{"contracts/mock/ERC20Mock.sol":{"MockSwapRouter":{"abi":[{"inputs":[{"components":[{"internalType":"address","name":"tokenIn","type":"address"},{"internalType":"address","name":"tokenOut","type":"address"},{"internalType":"uint24","name":"fee","type":"uint24"},{"internalType":"address","name":"recipient","type":"address"},{"internalType":"uint256","name":"amountIn","type":"uint256"},{"internalType":"uint256","name":"amountOutMinimum","type":"uint256"},{"internalType":"uint160","name":"sqrtPriceLimitX96","type":"uint160"}],"internalType":"struct MockSwapRouter.ExactInputSingleParams","name":"params","type":"tuple"}],"name":"exactInputSingle","outputs":[{"internalType":"uint256","name":"amountOut","type":"uint256"}],"stateMutability":"payable","type":"function"},{"inputs":[],"name":"getLastParams","outputs":[{"components":[{"internalType":"address","name":"tokenIn","type":"address"},{"internalType":"address","name":"tokenOut","type":"address"},{"internalType":"uint24","name":"fee","type":"uint24"},{"internalType":"address","name":"recipient","type":"address"},{"internalType":"uint256","name":"amountIn","type":"uint256"},{"internalType":"uint256","name":"amountOutMinimum","type":"uint256"},{"internalType":"uint160","name":"sqrtPriceLimitX96","type":"uint160"}],"internalType":"struct MockSwapRouter.ExactInputSingleParams","name":"","type":"tuple"}],"stateMutability":"view","type":"function"},{"inputs":[{"internalType":"uint256","name":"amountOut","type":"uint256"}],"name":"setSwapResult","outputs":[],"stateMutability":"nonpayable","type":"function"},{"inputs":[],"name":"setSwapToRevert","outputs":[],"stateMutability":"nonpayable","type":"function"}],"evm":{"bytecode":{"linkReferences":{},"object":"608060405234801561001057600080fd5b50610c63806100206000396000f3fe60806040526004361061003f5760003560e01c806304e45aaf14610044578063256c533e146100745780632c6fc14f1461009f578063d7cfecf5146100b6575b600080fd5b61005e6004803603810190610059919061058e565b6100df565b60405161006b91906105d4565b60405180910390f35b34801561008057600080fd5b506100896102e1565b60405161009691906106fa565b60405180910390f35b3480156100ab57600080fd5b506100b461048a565b005b3480156100c257600080fd5b506100dd60048036038101906100d89190610741565b6104a6565b005b60008160000160208101906100f4919061079a565b73ffffffffffffffffffffffffffffffffffffffff166323b872dd333085608001356040518463ffffffff1660e01b8152600401610134939291906107d6565b6020604051808303816000875af1158015610153573d6000803e3d6000fd5b505050506040513d601f19601f820116820180604052508101906101779190610845565b5073eeeeeeeeeeeeeeeeeeeeeeeeeeeeeeeeeeeeeeee73ffffffffffffffffffffffffffffffffffffffff168260200160208101906101b6919061079a565b73ffffffffffffffffffffffffffffffffffffffff1603610231578160600160208101906101e4919061079a565b73ffffffffffffffffffffffffffffffffffffffff166108fc6000549081150290604051600060405180830381858888f1935050505015801561022b573d6000803e3d6000fd5b506102c5565b816020016020810190610244919061079a565b73ffffffffffffffffffffffffffffffffffffffff166340c10f19836060016020810190610272919061079a565b6000546040518363ffffffff1660e01b8152600401610292929190610872565b600060405180830381600087803b1580156102ac57600080fd5b505af11580156102c0573d6000803e3d6000fd5b505050505b81600281816102d49190610c1f565b9050506000549050919050565b6102e96104cb565b60026040518060e00160405290816000820160009054906101000a900473ffffffffffffffffffffffffffffffffffffffff1673ffffffffffffffffffffffffffffffffffffffff1673ffffffffffffffffffffffffffffffffffffffff1681526020016001820160009054906101000a900473ffffffffffffffffffffffffffffffffffffffff1673ffffffffffffffffffffffffffffffffffffffff1673ffffffffffffffffffffffffffffffffffffffff1681526020016001820160149054906101000a900462ffffff1662ffffff1662ffffff1681526020016002820160009054906101000a900473ffffffffffffffffffffffffffffffffffffffff1673ffffffffffffffffffffffffffffffffffffffff1673ffffffffffffffffffffffffffffffffffffffff16815260200160038201548152602001600482015481526020016005820160009054906101000a900473ffffffffffffffffffffffffffffffffffffffff1673ffffffffffffffffffffffffffffffffffffffff1673ffffffffffffffffffffffffffffffffffffffff1681525050905090565b60018060006101000a81548160ff021916908315150217905550565b806000819055506000600160006101000a81548160ff02191690831515021790555050565b6040518060e00160405280600073ffffffffffffffffffffffffffffffffffffffff168152602001600073ffffffffffffffffffffffffffffffffffffffff168152602001600062ffffff168152602001600073ffffffffffffffffffffffffffffffffffffffff1681526020016000815260200160008152602001600073ffffffffffffffffffffffffffffffffffffffff1681525090565b600080fd5b600080fd5b600060e082840312156105855761058461056a565b5b81905092915050565b600060e082840312156105a4576105a3610565565b5b60006105b28482850161056f565b91505092915050565b6000819050919050565b6105ce816105bb565b82525050565b60006020820190506105e960008301846105c5565b92915050565b600073ffffffffffffffffffffffffffffffffffffffff82169050919050565b600061061a826105ef565b9050919050565b61062a8161060f565b82525050565b600062ffffff82169050919050565b61064881610630565b82525050565b610657816105bb565b82525050565b610666816105ef565b82525050565b60e0820160008201516106826000850182610621565b5060208201516106956020850182610621565b5060408201516106a8604085018261063f565b5060608201516106bb6060850182610621565b5060808201516106ce608085018261064e565b5060a08201516106e160a085018261064e565b5060c08201516106f460c085018261065d565b50505050565b600060e08201905061070f600083018461066c565b92915050565b61071e816105bb565b811461072957600080fd5b50565b60008135905061073b81610715565b92915050565b60006020828403121561075757610756610565565b5b60006107658482850161072c565b91505092915050565b6107778161060f565b811461078257600080fd5b50565b6000813590506107948161076e565b92915050565b6000602082840312156107b0576107af610565565b5b60006107be84828501610785565b91505092915050565b6107d08161060f565b82525050565b60006060820190506107eb60008301866107c7565b6107f860208301856107c7565b61080560408301846105c5565b949350505050565b60008115159050919050565b6108228161080d565b811461082d57600080fd5b50565b60008151905061083f81610819565b92915050565b60006020828403121561085b5761085a610565565b5b600061086984828501610830565b91505092915050565b600060408201905061088760008301856107c7565b61089460208301846105c5565b9392505050565b600081356108a88161076e565b80915050919050565b60008160001b9050919050565b600073ffffffffffffffffffffffffffffffffffffffff6108de846108b1565b9350801983169250808416831791505092915050565b6000819050919050565b600061091961091461090f846105ef565b6108f4565b6105ef565b9050919050565b600061092b826108fe565b9050919050565b600061093d82610920565b9050919050565b6000819050919050565b61095782610932565b61096a61096382610944565b83546108be565b8255505050565b61097a81610630565b811461098557600080fd5b50565b6000813561099581610971565b80915050919050565b60008160a01b9050919050565b600076ffffff00000000000000000000000000000000000000006109ce8461099e565b9350801983169250808416831791505092915050565b60006109ff6109fa6109f584610630565b6108f4565b610630565b9050919050565b6000819050919050565b610a19826109e4565b610a2c610a2582610a06565b83546109ab565b8255505050565b60008135610a4081610715565b80915050919050565b60007fffffffffffffffffffffffffffffffffffffffffffffffffffffffffffffffff610a75846108b1565b9350801983169250808416831791505092915050565b6000610aa6610aa1610a9c846105bb565b6108f4565b6105bb565b9050919050565b6000819050919050565b610ac082610a8b565b610ad3610acc82610aad565b8354610a49565b8255505050565b610ae3816105ef565b8114610aee57600080fd5b50565b60008135610afe81610ada565b80915050919050565b6000819050919050565b610b1a826108fe565b610b2d610b2682610b07565b83546108be565b8255505050565b600081016000830180610b468161089b565b9050610b52818461094e565b505050600181016020830180610b678161089b565b9050610b73818461094e565b505050600181016040830180610b8881610988565b9050610b948184610a10565b505050600281016060830180610ba98161089b565b9050610bb5818461094e565b505050600381016080830180610bca81610a33565b9050610bd68184610ab7565b5050506004810160a0830180610beb81610a33565b9050610bf78184610ab7565b5050506005810160c0830180610c0c81610af1565b9050610c188184610b11565b5050505050565b610c298282610b34565b505056fea2646970667358221220bc132f990a7ca95ddca62db5467692420f0bb1ebdd0be85985d7c3f58731368e64736f6c63430008180033","opcodes":"PUSH1 0x80 PUSH1 0x40 MSTORE CALLVALUE DUP1 ISZERO PUSH2 0x10 JUMPI PUSH1 0x0 DUP1 REVERT JUMPDEST POP PUSH2 0xC63 DUP1 PUSH2 0x20 PUSH1 0x0 CODECOPY PUSH1 0x0 RETURN INVALID PUSH1 0x80 PUSH1 0x40 MSTORE PUSH1 0x4 CALLDATASIZE LT PUSH2 0x3F JUMPI PUSH1 0x0 CALLDATALOAD PUSH1 0xE0 SHR DUP1 PUSH4 0x4E45AAF EQ PUSH2 0x44 JUMPI DUP1 PUSH4 0x256C533E EQ PUSH2 0x74 JUMPI DUP1 PUSH4 0x2C6FC14F EQ PUSH2 0x9F JUMPI DUP1 PUSH4 0xD7CFECF5 EQ PUSH2 0xB6 JUMPI JUMPDEST PUSH1 0x0 DUP1 REVERT JUMPDEST PUSH2 0x5E PUSH1 0x4 DUP1 CALLDATASIZE SUB DUP2 ADD SWAP1 PUSH2 0x59 SWAP2 SWAP1 PUSH2 0x58E JUMP JUMPDEST PUSH2 0xDF JUMP JUMPDEST PUSH1 0x40 MLOAD PUSH2 0x6B SWAP2 SWAP1 PUSH2 0x5D4 JUMP JUMPDEST PUSH1 0x40 MLOAD DUP1 SWAP2 SUB SWAP1 RETURN JUMPDEST CALLVALUE DUP1 ISZERO PUSH2 0x80 JUMPI PUSH1 0x0 DUP1 REVERT JUMPDEST POP PUSH2 0x89 PUSH2 0x2E1 JUMP JUMPDEST PUSH1 0x40 MLOAD PUSH2 0x96 SWAP2 SWAP1 PUSH2 0x6FA JUMP JUMPDEST PUSH1 0x40 MLOAD DUP1 SWAP2 SUB SWAP1 RETURN JUMPDEST CALLVALUE DUP1 ISZERO PUSH2 0xAB JUMPI PUSH1 0x0 DUP1 REVERT JUMPDEST POP PUSH2 0xB4 PUSH2 0x48A JUMP JUMPDEST STOP JUMPDEST CALLVALUE DUP1 ISZERO PUSH2 0xC2 JUMPI PUSH1 0x0 DUP1 REVERT JUMPDEST POP PUSH2 0xDD PUSH1 0x4 DUP1 CALLDATASIZE SUB DUP2 ADD SWAP1 PUSH2 0xD8 SWAP2 SWAP1 PUSH2 0x741 JUMP JUMPDEST PUSH2 0x4A6 JUMP JUMPDEST STOP JUMPDEST PUSH1 0x0 DUP2 PUSH1 0x0 ADD PUSH1 0x20 DUP2 ADD SWAP1 PUSH2 0xF4 SWAP2 SWAP1 PUSH2 0x79A JUMP JUMPDEST PUSH20 0xFFFFFFFFFFFFFFFFFFFFFFFFFFFFFFFFFFFFFFFF AND PUSH4 0x23B872DD CALLER ADDRESS DUP6 PUSH1 0x80 ADD CALLDATALOAD PUSH1 0x40 MLOAD DUP5 PUSH4 0xFFFFFFFF AND PUSH1 0xE0 SHL DUP2 MSTORE PUSH1 0x4 ADD PUSH2 0x134 SWAP4 SWAP3 SWAP2 SWAP1 PUSH2 0x7D6 JUMP JUMPDEST PUSH1 0x20 PUSH1 0x40 MLOAD DUP1 DUP4 SUB DUP2 PUSH1 0x0 DUP8 GAS CALL ISZERO DUP1 ISZERO PUSH2 0x153 JUMPI RETURNDATASIZE PUSH1 0x0 DUP1 RETURNDATACOPY RETURNDATASIZE PUSH1 0x0 REVERT JUMPDEST POP POP POP POP PUSH1 0x40 MLOAD RETURNDATASIZE PUSH1 0x1F NOT PUSH1 0x1F DUP3 ADD AND DUP3 ADD DUP1 PUSH1 0x40 MSTORE POP DUP2 ADD SWAP1 PUSH2 0x177 SWAP2 SWAP1 PUSH2 0x845 JUMP JUMPDEST POP PUSH20 0xEEEEEEEEEEEEEEEEEEEEEEEEEEEEEEEEEEEEEEEE PUSH20 0xFFFFFFFFFFFFFFFFFFFFFFFFFFFFFFFFFFFFFFFF AND DUP3 PUSH1 0x20 ADD PUSH1 0x20 DUP2 ADD SWAP1 PUSH2 0x1B6 SWAP2 SWAP1 PUSH2 0x79A JUMP JUMPDEST PUSH20 0xFFFFFFFFFFFFFFFFFFFFFFFFFFFFFFFFFFFFFFFF AND SUB PUSH2 0x231 JUMPI DUP2 PUSH1 0x60 ADD PUSH1 0x20 DUP2 ADD SWAP1 PUSH2 0x1E4 SWAP2 SWAP1 PUSH2 0x79A JUMP JUMPDEST PUSH20 0xFFFFFFFFFFFFFFFFFFFFFFFFFFFFFFFFFFFFFFFF AND PUSH2 0x8FC PUSH1 0x0 SLOAD SWAP1 DUP2 ISZERO MUL SWAP1 PUSH1 0x40 MLOAD PUSH1 0x0 PUSH1 0x40 MLOAD DUP1 DUP4 SUB DUP2 DUP6 DUP9 DUP9 CALL SWAP4 POP POP POP POP ISZERO DUP1 ISZERO PUSH2 0x22B JUMPI RETURNDATASIZE PUSH1 0x0 DUP1 RETURNDATACOPY RETURNDATASIZE PUSH1 0x0 REVERT JUMPDEST POP PUSH2 0x2C5 JUMP JUMPDEST DUP2 PUSH1 0x20 ADD PUSH1 0x20 DUP2 ADD SWAP1 PUSH2 0x244 SWAP2 SWAP1 PUSH2 0x79A JUMP JUMPDEST PUSH20 0xFFFFFFFFFFFFFFFFFFFFFFFFFFFFFFFFFFFFFFFF AND PUSH4 0x40C10F19 DUP4 PUSH1 0x60 ADD PUSH1 0x20 DUP2 ADD SWAP1 PUSH2 0x272 SWAP2 SWAP1 PUSH2 0x79A JUMP JUMPDEST PUSH1 0x0 SLOAD PUSH1 0x40 MLOAD DUP4 PUSH4 0xFFFFFFFF AND PUSH1 0xE0 SHL DUP2 MSTORE PUSH1 0x4 ADD PUSH2 0x292 SWAP3 SWAP2 SWAP1 PUSH2 0x872 JUMP JUMPDEST PUSH1 0x0 PUSH1 0x40 MLOAD DUP1 DUP4 SUB DUP2 PUSH1 0x0 DUP8 DUP1 EXTCODESIZE ISZERO DUP1 ISZERO PUSH2 0x2AC JUMPI PUSH1 0x0 DUP1 REVERT JUMPDEST POP GAS CALL ISZERO DUP1 ISZERO PUSH2 0x2C0 JUMPI RETURNDATASIZE PUSH1 0x0 DUP1 RETURNDATACOPY RETURNDATASIZE PUSH1 0x0 REVERT JUMPDEST POP POP POP POP JUMPDEST DUP2 PUSH1 0x2 DUP2 DUP2 PUSH2 0x2D4 SWAP2 SWAP1 PUSH2 0xC1F JUMP JUMPDEST SWAP1 POP POP PUSH1 0x0 SLOAD SWAP1 POP SWAP2 SWAP1 POP JUMP JUMPDEST PUSH2 0x2E9 PUSH2 0x4CB JUMP JUMPDEST PUSH1 0x2 PUSH1 0x40 MLOAD DUP1 PUSH1 0xE0 ADD PUSH1 0x40 MSTORE SWAP1 DUP2 PUSH1 0x0 DUP3 ADD PUSH1 0x0 SWAP1 SLOAD SWAP1 PUSH2 0x100 EXP SWAP1 DIV PUSH20 0xFFFFFFFFFFFFFFFFFFFFFFFFFFFFFFFFFFFFFFFF AND PUSH20 0xFFFFFFFFFFFFFFFFFFFFFFFFFFFFFFFFFFFFFFFF AND PUSH20 0xFFFFFFFFFFFFFFFFFFFFFFFFFFFFFFFFFFFFFFFF AND DUP2 MSTORE PUSH1 0x20 ADD PUSH1 0x1 DUP3 ADD PUSH1 0x0 SWAP1 SLOAD SWAP1 PUSH2 0x100 EXP SWAP1 DIV PUSH20 0xFFFFFFFFFFFFFFFFFFFFFFFFFFFFFFFFFFFFFFFF AND PUSH20 0xFFFFFFFFFFFFFFFFFFFFFFFFFFFFFFFFFFFFFFFF AND PUSH20 0xFFFFFFFFFFFFFFFFFFFFFFFFFFFFFFFFFFFFFFFF AND DUP2 MSTORE PUSH1 0x20 ADD PUSH1 0x1 DUP3 ADD PUSH1 0x14 SWAP1 SLOAD SWAP1 PUSH2 0x100 EXP SWAP1 DIV PUSH3 0xFFFFFF AND PUSH3 0xFFFFFF AND PUSH3 0xFFFFFF AND DUP2 MSTORE PUSH1 0x20 ADD PUSH1 0x2 DUP3 ADD PUSH1 0x0 SWAP1 SLOAD SWAP1 PUSH2 0x100 EXP SWAP1 DIV PUSH20 0xFFFFFFFFFFFFFFFFFFFFFFFFFFFFFFFFFFFFFFFF AND PUSH20 0xFFFFFFFFFFFFFFFFFFFFFFFFFFFFFFFFFFFFFFFF AND PUSH20 0xFFFFFFFFFFFFFFFFFFFFFFFFFFFFFFFFFFFFFFFF AND DUP2 MSTORE PUSH1 0x20 ADD PUSH1 0x3 DUP3 ADD SLOAD DUP2 MSTORE PUSH1 0x20 ADD PUSH1 0x4 DUP3 ADD SLOAD DUP2 MSTORE PUSH1 0x20 ADD PUSH1 0x5 DUP3 ADD PUSH1 0x0 SWAP1 SLOAD SWAP1 PUSH2 0x100 EXP SWAP1 DIV PUSH20 0xFFFFFFFFFFFFFFFFFFFFFFFFFFFFFFFFFFFFFFFF AND PUSH20 0xFFFFFFFFFFFFFFFFFFFFFFFFFFFFFFFFFFFFFFFF AND PUSH20 0xFFFFFFFFFFFFFFFFFFFFFFFFFFFFFFFFFFFFFFFF AND DUP2 MSTORE POP POP SWAP1 POP SWAP1 JUMP JUMPDEST PUSH1 0x1 DUP1 PUSH1 0x0 PUSH2 0x100 EXP DUP2 SLOAD DUP2 PUSH1 0xFF MUL NOT AND SWAP1 DUP4 ISZERO ISZERO MUL OR SWAP1 SSTORE POP JUMP JUMPDEST DUP1 PUSH1 0x0 DUP2 SWAP1 SSTORE POP PUSH1 0x0 PUSH1 0x1 PUSH1 0x0 PUSH2 0x100 EXP DUP2 SLOAD DUP2 PUSH1 0xFF MUL NOT AND SWAP1 DUP4 ISZERO ISZERO MUL OR SWAP1 SSTORE POP POP JUMP JUMPDEST PUSH1 0x40 MLOAD DUP1 PUSH1 0xE0 ADD PUSH1 0x40 MSTORE DUP1 PUSH1 0x0 PUSH20 0xFFFFFFFFFFFFFFFFFFFFFFFFFFFFFFFFFFFFFFFF AND DUP2 MSTORE PUSH1 0x20 ADD PUSH1 0x0 PUSH20 0xFFFFFFFFFFFFFFFFFFFFFFFFFFFFFFFFFFFFFFFF AND DUP2 MSTORE PUSH1 0x20 ADD PUSH1 0x0 PUSH3 0xFFFFFF AND DUP2 MSTORE PUSH1 0x20 ADD PUSH1 0x0 PUSH20 0xFFFFFFFFFFFFFFFFFFFFFFFFFFFFFFFFFFFFFFFF AND DUP2 MSTORE PUSH1 0x20 ADD PUSH1 0x0 DUP2 MSTORE PUSH1 0x20 ADD PUSH1 0x0 DUP2 MSTORE PUSH1 0x20 ADD PUSH1 0x0 PUSH20 0xFFFFFFFFFFFFFFFFFFFFFFFFFFFFFFFFFFFFFFFF AND DUP2 MSTORE POP SWAP1 JUMP JUMPDEST PUSH1 0x0 DUP1 REVERT JUMPDEST PUSH1 0x0 DUP1 REVERT JUMPDEST PUSH1 0x0 PUSH1 0xE0 DUP3 DUP5 SUB SLT ISZERO PUSH2 0x585 JUMPI PUSH2 0x584 PUSH2 0x56A JUMP JUMPDEST JUMPDEST DUP2 SWAP1 POP SWAP3 SWAP2 POP POP JUMP JUMPDEST PUSH1 0x0 PUSH1 0xE0 DUP3 DUP5 SUB SLT ISZERO PUSH2 0x5A4 JUMPI PUSH2 0x5A3 PUSH2 0x565 JUMP JUMPDEST JUMPDEST PUSH1 0x0 PUSH2 0x5B2 DUP5 DUP3 DUP6 ADD PUSH2 0x56F JUMP JUMPDEST SWAP2 POP POP SWAP3 SWAP2 POP POP JUMP JUMPDEST PUSH1 0x0 DUP2 SWAP1 POP SWAP2 SWAP1 POP JUMP JUMPDEST PUSH2 0x5CE DUP2 PUSH2 0x5BB JUMP JUMPDEST DUP3 MSTORE POP POP JUMP JUMPDEST PUSH1 0x0 PUSH1 0x20 DUP3 ADD SWAP1 POP PUSH2 0x5E9 PUSH1 0x0 DUP4 ADD DUP5 PUSH2 0x5C5 JUMP JUMPDEST SWAP3 SWAP2 POP POP JUMP JUMPDEST PUSH1 0x0 PUSH20 0xFFFFFFFFFFFFFFFFFFFFFFFFFFFFFFFFFFFFFFFF DUP3 AND SWAP1 POP SWAP2 SWAP1 POP JUMP JUMPDEST PUSH1 0x0 PUSH2 0x61A DUP3 PUSH2 0x5EF JUMP JUMPDEST SWAP1 POP SWAP2 SWAP1 POP JUMP JUMPDEST PUSH2 0x62A DUP2 PUSH2 0x60F JUMP JUMPDEST DUP3 MSTORE POP POP JUMP JUMPDEST PUSH1 0x0 PUSH3 0xFFFFFF DUP3 AND SWAP1 POP SWAP2 SWAP1 POP JUMP JUMPDEST PUSH2 0x648 DUP2 PUSH2 0x630 JUMP JUMPDEST DUP3 MSTORE POP POP JUMP JUMPDEST PUSH2 0x657 DUP2 PUSH2 0x5BB JUMP JUMPDEST DUP3 MSTORE POP POP JUMP JUMPDEST PUSH2 0x666 DUP2 PUSH2 0x5EF JUMP JUMPDEST DUP3 MSTORE POP POP JUMP JUMPDEST PUSH1 0xE0 DUP3 ADD PUSH1 0x0 DUP3 ADD MLOAD PUSH2 0x682 PUSH1 0x0 DUP6 ADD DUP3 PUSH2 0x621 JUMP JUMPDEST POP PUSH1 0x20 DUP3 ADD MLOAD PUSH2 0x695 PUSH1 0x20 DUP6 ADD DUP3 PUSH2 0x621 JUMP JUMPDEST POP PUSH1 0x40 DUP3 ADD MLOAD PUSH2 0x6A8 PUSH1 0x40 DUP6 ADD DUP3 PUSH2 0x63F JUMP JUMPDEST POP PUSH1 0x60 DUP3 ADD MLOAD PUSH2 0x6BB PUSH1 0x60 DUP6 ADD DUP3 PUSH2 0x621 JUMP JUMPDEST POP PUSH1 0x80 DUP3 ADD MLOAD PUSH2 0x6CE PUSH1 0x80 DUP6 ADD DUP3 PUSH2 0x64E JUMP JUMPDEST POP PUSH1 0xA0 DUP3 ADD MLOAD PUSH2 0x6E1 PUSH1 0xA0 DUP6 ADD DUP3 PUSH2 0x64E JUMP JUMPDEST POP PUSH1 0xC0 DUP3 ADD MLOAD PUSH2 0x6F4 PUSH1 0xC0 DUP6 ADD DUP3 PUSH2 0x65D JUMP JUMPDEST POP POP POP POP JUMP JUMPDEST PUSH1 0x0 PUSH1 0xE0 DUP3 ADD SWAP1 POP PUSH2 0x70F PUSH1 0x0 DUP4 ADD DUP5 PUSH2 0x66C JUMP JUMPDEST SWAP3 SWAP2 POP POP JUMP JUMPDEST PUSH2 0x71E DUP2 PUSH2 0x5BB JUMP JUMPDEST DUP2 EQ PUSH2 0x729 JUMPI PUSH1 0x0 DUP1 REVERT JUMPDEST POP JUMP JUMPDEST PUSH1 0x0 DUP2 CALLDATALOAD SWAP1 POP PUSH2 0x73B DUP2 PUSH2 0x715 JUMP JUMPDEST SWAP3 SWAP2 POP POP JUMP JUMPDEST PUSH1 0x0 PUSH1 0x20 DUP3 DUP5 SUB SLT ISZERO PUSH2 0x757 JUMPI PUSH2 0x756 PUSH2 0x565 JUMP JUMPDEST JUMPDEST PUSH1 0x0 PUSH2 0x765 DUP5 DUP3 DUP6 ADD PUSH2 0x72C JUMP JUMPDEST SWAP2 POP POP SWAP3 SWAP2 POP POP JUMP JUMPDEST PUSH2 0x777 DUP2 PUSH2 0x60F JUMP JUMPDEST DUP2 EQ PUSH2 0x782 JUMPI PUSH1 0x0 DUP1 REVERT JUMPDEST POP JUMP JUMPDEST PUSH1 0x0 DUP2 CALLDATALOAD SWAP1 POP PUSH2 0x794 DUP2 PUSH2 0x76E JUMP JUMPDEST SWAP3 SWAP2 POP POP JUMP JUMPDEST PUSH1 0x0 PUSH1 0x20 DUP3 DUP5 SUB SLT ISZERO PUSH2 0x7B0 JUMPI PUSH2 0x7AF PUSH2 0x565 JUMP JUMPDEST JUMPDEST PUSH1 0x0 PUSH2 0x7BE DUP5 DUP3 DUP6 ADD PUSH2 0x785 JUMP JUMPDEST SWAP2 POP POP SWAP3 SWAP2 POP POP JUMP JUMPDEST PUSH2 0x7D0 DUP2 PUSH2 0x60F JUMP JUMPDEST DUP3 MSTORE POP POP JUMP JUMPDEST PUSH1 0x0 PUSH1 0x60 DUP3 ADD SWAP1 POP PUSH2 0x7EB PUSH1 0x0 DUP4 ADD DUP7 PUSH2 0x7C7 JUMP JUMPDEST PUSH2 0x7F8 PUSH1 0x20 DUP4 ADD DUP6 PUSH2 0x7C7 JUMP JUMPDEST PUSH2 0x805 PUSH1 0x40 DUP4 ADD DUP5 PUSH2 0x5C5 JUMP JUMPDEST SWAP5 SWAP4 POP POP POP POP JUMP JUMPDEST PUSH1 0x0 DUP2 ISZERO ISZERO SWAP1 POP SWAP2 SWAP1 POP JUMP JUMPDEST PUSH2 0x822 DUP2 PUSH2 0x80D JUMP JUMPDEST DUP2 EQ PUSH2 0x82D JUMPI PUSH1 0x0 DUP1 REVERT JUMPDEST POP JUMP JUMPDEST PUSH1 0x0 DUP2 MLOAD SWAP1 POP PUSH2 0x83F DUP2 PUSH2 0x819 JUMP JUMPDEST SWAP3 SWAP2 POP POP JUMP JUMPDEST PUSH1 0x0 PUSH1 0x20 DUP3 DUP5 SUB SLT ISZERO PUSH2 0x85B JUMPI PUSH2 0x85A PUSH2 0x565 JUMP JUMPDEST JUMPDEST PUSH1 0x0 PUSH2 0x869 DUP5 DUP3 DUP6 ADD PUSH2 0x830 JUMP JUMPDEST SWAP2 POP POP SWAP3 SWAP2 POP POP JUMP JUMPDEST PUSH1 0x0 PUSH1 0x40 DUP3 ADD SWAP1 POP PUSH2 0x887 PUSH1 0x0 DUP4 ADD DUP6 PUSH2 0x7C7 JUMP JUMPDEST PUSH2 0x894 PUSH1 0x20 DUP4 ADD DUP5 PUSH2 0x5C5 JUMP JUMPDEST SWAP4 SWAP3 POP POP POP JUMP JUMPDEST PUSH1 0x0 DUP2 CALLDATALOAD PUSH2 0x8A8 DUP2 PUSH2 0x76E JUMP JUMPDEST DUP1 SWAP2 POP POP SWAP2 SWAP1 POP JUMP JUMPDEST PUSH1 0x0 DUP2 PUSH1 0x0 SHL SWAP1 POP SWAP2 SWAP1 POP JUMP JUMPDEST PUSH1 0x0 PUSH20 0xFFFFFFFFFFFFFFFFFFFFFFFFFFFFFFFFFFFFFFFF PUSH2 0x8DE DUP5 PUSH2 0x8B1 JUMP JUMPDEST SWAP4 POP DUP1 NOT DUP4 AND SWAP3 POP DUP1 DUP5 AND DUP4 OR SWAP2 POP POP SWAP3 SWAP2 POP POP JUMP JUMPDEST PUSH1 0x0 DUP2 SWAP1 POP SWAP2 SWAP1 POP JUMP JUMPDEST PUSH1 0x0 PUSH2 0x919 PUSH2 0x914 PUSH2 0x90F DUP5 PUSH2 0x5EF JUMP JUMPDEST PUSH2 0x8F4 JUMP JUMPDEST PUSH2 0x5EF JUMP JUMPDEST SWAP1 POP SWAP2 SWAP1 POP JUMP JUMPDEST PUSH1 0x0 PUSH2 0x92B DUP3 PUSH2 0x8FE JUMP JUMPDEST SWAP1 POP SWAP2 SWAP1 POP JUMP JUMPDEST PUSH1 0x0 PUSH2 0x93D DUP3 PUSH2 0x920 JUMP JUMPDEST SWAP1 POP SWAP2 SWAP1 POP JUMP JUMPDEST PUSH1 0x0 DUP2 SWAP1 POP SWAP2 SWAP1 POP JUMP JUMPDEST PUSH2 0x957 DUP3 PUSH2 0x932 JUMP JUMPDEST PUSH2 0x96A PUSH2 0x963 DUP3 PUSH2 0x944 JUMP JUMPDEST DUP4 SLOAD PUSH2 0x8BE JUMP JUMPDEST DUP3 SSTORE POP POP POP JUMP JUMPDEST PUSH2 0x97A DUP2 PUSH2 0x630 JUMP JUMPDEST DUP2 EQ PUSH2 0x985 JUMPI PUSH1 0x0 DUP1 REVERT JUMPDEST POP JUMP JUMPDEST PUSH1 0x0 DUP2 CALLDATALOAD PUSH2 0x995 DUP2 PUSH2 0x971 JUMP JUMPDEST DUP1 SWAP2 POP POP SWAP2 SWAP1 POP JUMP JUMPDEST PUSH1 0x0 DUP2 PUSH1 0xA0 SHL SWAP1 POP SWAP2 SWAP1 POP JUMP JUMPDEST PUSH1 0x0 PUSH23 0xFFFFFF0000000000000000000000000000000000000000 PUSH2 0x9CE DUP5 PUSH2 0x99E JUMP JUMPDEST SWAP4 POP DUP1 NOT DUP4 AND SWAP3 POP DUP1 DUP5 AND DUP4 OR SWAP2 POP POP SWAP3 SWAP2 POP POP JUMP JUMPDEST PUSH1 0x0 PUSH2 0x9FF PUSH2 0x9FA PUSH2 0x9F5 DUP5 PUSH2 0x630 JUMP JUMPDEST PUSH2 0x8F4 JUMP JUMPDEST PUSH2 0x630 JUMP JUMPDEST SWAP1 POP SWAP2 SWAP1 POP JUMP JUMPDEST PUSH1 0x0 DUP2 SWAP1 POP SWAP2 SWAP1 POP JUMP JUMPDEST PUSH2 0xA19 DUP3 PUSH2 0x9E4 JUMP JUMPDEST PUSH2 0xA2C PUSH2 0xA25 DUP3 PUSH2 0xA06 JUMP JUMPDEST DUP4 SLOAD PUSH2 0x9AB JUMP JUMPDEST DUP3 SSTORE POP POP POP JUMP JUMPDEST PUSH1 0x0 DUP2 CALLDATALOAD PUSH2 0xA40 DUP2 PUSH2 0x715 JUMP JUMPDEST DUP1 SWAP2 POP POP SWAP2 SWAP1 POP JUMP JUMPDEST PUSH1 0x0 PUSH32 0xFFFFFFFFFFFFFFFFFFFFFFFFFFFFFFFFFFFFFFFFFFFFFFFFFFFFFFFFFFFFFFFF PUSH2 0xA75 DUP5 PUSH2 0x8B1 JUMP JUMPDEST SWAP4 POP DUP1 NOT DUP4 AND SWAP3 POP DUP1 DUP5 AND DUP4 OR SWAP2 POP POP SWAP3 SWAP2 POP POP JUMP JUMPDEST PUSH1 0x0 PUSH2 0xAA6 PUSH2 0xAA1 PUSH2 0xA9C DUP5 PUSH2 0x5BB JUMP JUMPDEST PUSH2 0x8F4 JUMP JUMPDEST PUSH2 0x5BB JUMP JUMPDEST SWAP1 POP SWAP2 SWAP1 POP JUMP JUMPDEST PUSH1 0x0 DUP2 SWAP1 POP SWAP2 SWAP1 POP JUMP JUMPDEST PUSH2 0xAC0 DUP3 PUSH2 0xA8B JUMP JUMPDEST PUSH2 0xAD3 PUSH2 0xACC DUP3 PUSH2 0xAAD JUMP JUMPDEST DUP4 SLOAD PUSH2 0xA49 JUMP JUMPDEST DUP3 SSTORE POP POP POP JUMP JUMPDEST PUSH2 0xAE3 DUP2 PUSH2 0x5EF JUMP JUMPDEST DUP2 EQ PUSH2 0xAEE JUMPI PUSH1 0x0 DUP1 REVERT JUMPDEST POP JUMP JUMPDEST PUSH1 0x0 DUP2 CALLDATALOAD PUSH2 0xAFE DUP2 PUSH2 0xADA JUMP JUMPDEST DUP1 SWAP2 POP POP SWAP2 SWAP1 POP JUMP JUMPDEST PUSH1 0x0 DUP2 SWAP1 POP SWAP2 SWAP1 POP JUMP JUMPDEST PUSH2 0xB1A DUP3 PUSH2 0x8FE JUMP JUMPDEST PUSH2 0xB2D PUSH2 0xB26 DUP3 PUSH2 0xB07 JUMP JUMPDEST DUP4 SLOAD PUSH2 0x8BE JUMP JUMPDEST DUP3 SSTORE POP POP POP JUMP JUMPDEST PUSH1 0x0 DUP2 ADD PUSH1 0x0 DUP4 ADD DUP1 PUSH2 0xB46 DUP2 PUSH2 0x89B JUMP JUMPDEST SWAP1 POP PUSH2 0xB52 DUP2 DUP5 PUSH2 0x94E JUMP JUMPDEST POP POP POP PUSH1 0x1 DUP2 ADD PUSH1 0x20 DUP4 ADD DUP1 PUSH2 0xB67 DUP2 PUSH2 0x89B JUMP JUMPDEST SWAP1 POP PUSH2 0xB73 DUP2 DUP5 PUSH2 0x94E JUMP JUMPDEST POP POP POP PUSH1 0x1 DUP2 ADD PUSH1 0x40 DUP4 ADD DUP1 PUSH2 0xB88 DUP2 PUSH2 0x988 JUMP JUMPDEST SWAP1 POP PUSH2 0xB94 DUP2 DUP5 PUSH2 0xA10 JUMP JUMPDEST POP POP POP PUSH1 0x2 DUP2 ADD PUSH1 0x60 DUP4 ADD DUP1 PUSH2 0xBA9 DUP2 PUSH2 0x89B JUMP JUMPDEST SWAP1 POP PUSH2 0xBB5 DUP2 DUP5 PUSH2 0x94E JUMP JUMPDEST POP POP POP PUSH1 0x3 DUP2 ADD PUSH1 0x80 DUP4 ADD DUP1 PUSH2 0xBCA DUP2 PUSH2 0xA33 JUMP JUMPDEST SWAP1 POP PUSH2 0xBD6 DUP2 DUP5 PUSH2 0xAB7 JUMP JUMPDEST POP POP POP PUSH1 0x4 DUP2 ADD PUSH1 0xA0 DUP4 ADD DUP1 PUSH2 0xBEB DUP2 PUSH2 0xA33 JUMP JUMPDEST SWAP1 POP PUSH2 0xBF7 DUP2 DUP5 PUSH2 0xAB7 JUMP JUMPDEST POP POP POP PUSH1 0x5 DUP2 ADD PUSH1 0xC0 DUP4 ADD DUP1 PUSH2 0xC0C DUP2 PUSH2 0xAF1 JUMP JUMPDEST SWAP1 POP PUSH2 0xC18 DUP2 DUP5 PUSH2 0xB11 JUMP JUMPDEST POP POP POP POP POP JUMP JUMPDEST PUSH2 0xC29 DUP3 DUP3 PUSH2 0xB34 JUMP JUMPDEST POP POP JUMP INVALID LOG2 PUSH5 0x6970667358 0x22 SLT KECCAK256 0xBC SGT 0x2F SWAP10 EXP PUSH29 0xA95DDCA62DB5467692420F0BB1EBDD0BE85985D7C3F58731368E64736F PUSH13 0x63430008180033000000000000 "},"methodIdentifiers":{"exactInputSingle((address,address,uint24,address,uint256,uint256,uint160))":"04e45aaf","getLastParams()":"256c533e","setSwapResult(uint256)":"d7cfecf5","setSwapToRevert()":"2c6fc14f"}}}}}