{"contracts/Vault.sol":{"VaultFactory2":{"abi":[{"inputs":[{"internalType":"address","name":"_vaultImplementation","type":"address"}],"stateMutability":"nonpayable","type":"constructor"},{"anonymous":false,"inputs":[{"indexed":false,"internalType":"address","name":"vaultAddress","type":"address"},{"indexed":true,"internalType":"address","name":"owner","type":"address"},{"indexed":false,"internalType":"string","name":"name","type":"string"},{"indexed":false,"internalType":"address","name":"recoveryAddress","type":"address"}],"name":"VaultCreated","type":"event"},{"inputs":[{"internalType":"string","name":"_name","type":"string"},{"internalType":"address","name":"_recoveryAddress","type":"address"},{"internalType":"address[]","name":"_whitelistedAddresses","type":"address[]"},{"internalType":"uint256","name":"_dailyLimit","type":"uint256"},{"internalType":"uint256","name":"_threshold","type":"uint256"},{"internalType":"uint256","name":"_delay","type":"uint256"}],"name":"createVault","outputs":[{"internalType":"address","name":"","type":"address"}],"stateMutability":"nonpayable","type":"function"},{"inputs":[{"internalType":"address","name":"_owner","type":"address"}],"name":"getVaultsByOwner","outputs":[{"internalType":"address[]","name":"","type":"address[]"}],"stateMutability":"view","type":"function"},{"inputs":[],"name":"owner","outputs":[{"internalType":"address","name":"","type":"address"}],"stateMutability":"view","type":"function"},{"inputs":[{"internalType":"address","name":"","type":"address"},{"internalType":"uint256","name":"","type":"uint256"}],"name":"ownerToVaults","outputs":[{"internalType":"address","name":"","type":"address"}],"stateMutability":"view","type":"function"},{"inputs":[],"name":"totalVaults","outputs":[{"internalType":"uint256","name":"","type":"uint256"}],"stateMutability":"view","type":"function"},{"inputs":[{"internalType":"address","name":"_vaultImplementation","type":"address"}],"name":"updateVaultImplementation","outputs":[],"stateMutability":"nonpayable","type":"function"},{"inputs":[],"name":"vaultImplementation","outputs":[{"internalType":"address","name":"","type":"address"}],"stateMutability":"view","type":"function"},{"inputs":[{"internalType":"string","name":"","type":"string"}],"name":"vaultNames","outputs":[{"internalType":"address","name":"","type":"address"}],"stateMutability":"view","type":"function"}],"evm":{"bytecode":{"linkReferences":{},"object":"60806040523480156200001157600080fd5b50604051620016d3380380620016d3833981810160405281019062000037919062000129565b336000806101000a81548173ffffffffffffffffffffffffffffffffffffffff021916908373ffffffffffffffffffffffffffffffffffffffff16021790555080600260006101000a81548173ffffffffffffffffffffffffffffffffffffffff021916908373ffffffffffffffffffffffffffffffffffffffff160217905550506200015b565b600080fd5b600073ffffffffffffffffffffffffffffffffffffffff82169050919050565b6000620000f182620000c4565b9050919050565b6200010381620000e4565b81146200010f57600080fd5b50565b6000815190506200012381620000f8565b92915050565b600060208284031215620001425762000141620000bf565b5b6000620001528482850162000112565b91505092915050565b611568806200016b6000396000f3fe60806040523480156200001157600080fd5b5060043610620000945760003560e01c80638d65402311620000635780638d654023146200015b5780638da5cb5b146200017d578063ac818711146200019f578063bba48a9014620001d55762000094565b80630c5bc6a9146200009957806310195f9514620000cf578063174ef86a14620001055780632cf08fd11462000125575b600080fd5b620000b76004803603810190620000b19190620008cb565b620001f7565b604051620000c6919062000923565b60405180910390f35b620000ed6004803603810190620000e7919062000b7d565b62000246565b604051620000fc919062000923565b60405180910390f35b6200012360048036038101906200011d919062000c57565b620005cc565b005b6200014360048036038101906200013d919062000c89565b620006a1565b60405162000152919062000923565b60405180910390f35b62000165620006ea565b60405162000174919062000ceb565b60405180910390f35b62000187620006f0565b60405162000196919062000923565b60405180910390f35b620001bd6004803603810190620001b7919062000c57565b62000714565b604051620001cc919062000dd6565b60405180910390f35b620001df620007e3565b604051620001ee919062000923565b60405180910390f35b600460205281600052604060002081815481106200021457600080fd5b906000526020600020016000915091509054906101000a900473ffffffffffffffffffffffffffffffffffffffff1681565b60008073ffffffffffffffffffffffffffffffffffffffff1660038860405162000271919062000e73565b908152602001604051809103902060009054906101000a900473ffffffffffffffffffffffffffffffffffffffff1673ffffffffffffffffffffffffffffffffffffffff1614620002f9576040517f08c379a0000000000000000000000000000000000000000000000000000000008152600401620002f09062000eed565b60405180910390fd5b600033600460003373ffffffffffffffffffffffffffffffffffffffff1673ffffffffffffffffffffffffffffffffffffffff168152602001908152602001600020805490506040516020016200035292919062000f84565b604051602081830303815290604052805190602001209050600081600260009054906101000a900473ffffffffffffffffffffffffffffffffffffffff166040516200039e9062000809565b620003aa919062000923565b8190604051809103906000f5905080158015620003cb573d6000803e3d6000fd5b50905060008190508073ffffffffffffffffffffffffffffffffffffffff1663d63da95c338c8c8c8c8c8c6040518863ffffffff1660e01b81526004016200041a979695949392919062000ff5565b600060405180830381600087803b1580156200043557600080fd5b505af11580156200044a573d6000803e3d6000fd5b505050508060038b60405162000461919062000e73565b908152602001604051809103902060006101000a81548173ffffffffffffffffffffffffffffffffffffffff021916908373ffffffffffffffffffffffffffffffffffffffff160217905550600460003373ffffffffffffffffffffffffffffffffffffffff1673ffffffffffffffffffffffffffffffffffffffff168152602001908152602001600020819080600181540180825580915050600190039060005260206000200160009091909190916101000a81548173ffffffffffffffffffffffffffffffffffffffff021916908373ffffffffffffffffffffffffffffffffffffffff1602179055506001806000828254620005619190620010af565b925050819055503373ffffffffffffffffffffffffffffffffffffffff167f86c9dd70a6de5b89643ead0c76a7d9c215afd05c87f64d8eaff050b89c341bb3828c8c604051620005b493929190620010ea565b60405180910390a28093505050509695505050505050565b60008054906101000a900473ffffffffffffffffffffffffffffffffffffffff1673ffffffffffffffffffffffffffffffffffffffff163373ffffffffffffffffffffffffffffffffffffffff16146200065d576040517f08c379a000000000000000000000000000000000000000000000000000000000815260040162000654906200117e565b60405180910390fd5b80600260006101000a81548173ffffffffffffffffffffffffffffffffffffffff021916908373ffffffffffffffffffffffffffffffffffffffff16021790555050565b6003818051602081018201805184825260208301602085012081835280955050505050506000915054906101000a900473ffffffffffffffffffffffffffffffffffffffff1681565b60015481565b60008054906101000a900473ffffffffffffffffffffffffffffffffffffffff1681565b6060600460008373ffffffffffffffffffffffffffffffffffffffff1673ffffffffffffffffffffffffffffffffffffffff168152602001908152602001600020805480602002602001604051908101604052809291908181526020018280548015620007d757602002820191906000526020600020905b8160009054906101000a900473ffffffffffffffffffffffffffffffffffffffff1673ffffffffffffffffffffffffffffffffffffffff16815260200190600101908083116200078c575b50505050509050919050565b600260009054906101000a900473ffffffffffffffffffffffffffffffffffffffff1681565b61039280620011a183390190565b6000604051905090565b600080fd5b600080fd5b600073ffffffffffffffffffffffffffffffffffffffff82169050919050565b600062000858826200082b565b9050919050565b6200086a816200084b565b81146200087657600080fd5b50565b6000813590506200088a816200085f565b92915050565b6000819050919050565b620008a58162000890565b8114620008b157600080fd5b50565b600081359050620008c5816200089a565b92915050565b60008060408385031215620008e557620008e462000821565b5b6000620008f58582860162000879565b92505060206200090885828601620008b4565b9150509250929050565b6200091d816200084b565b82525050565b60006020820190506200093a600083018462000912565b92915050565b600080fd5b600080fd5b6000601f19601f8301169050919050565b7f4e487b7100000000000000000000000000000000000000000000000000000000600052604160045260246000fd5b62000995826200094a565b810181811067ffffffffffffffff82111715620009b757620009b66200095b565b5b80604052505050565b6000620009cc62000817565b9050620009da82826200098a565b919050565b600067ffffffffffffffff821115620009fd57620009fc6200095b565b5b62000a08826200094a565b9050602081019050919050565b82818337600083830152505050565b600062000a3b62000a3584620009df565b620009c0565b90508281526020810184848401111562000a5a5762000a5962000945565b5b62000a6784828562000a15565b509392505050565b600082601f83011262000a875762000a8662000940565b5b813562000a9984826020860162000a24565b91505092915050565b600067ffffffffffffffff82111562000ac05762000abf6200095b565b5b602082029050602081019050919050565b600080fd5b600062000aed62000ae78462000aa2565b620009c0565b9050808382526020820190506020840283018581111562000b135762000b1262000ad1565b5b835b8181101562000b40578062000b2b888262000879565b84526020840193505060208101905062000b15565b5050509392505050565b600082601f83011262000b625762000b6162000940565b5b813562000b7484826020860162000ad6565b91505092915050565b60008060008060008060c0878903121562000b9d5762000b9c62000821565b5b600087013567ffffffffffffffff81111562000bbe5762000bbd62000826565b5b62000bcc89828a0162000a6f565b965050602062000bdf89828a0162000879565b955050604087013567ffffffffffffffff81111562000c035762000c0262000826565b5b62000c1189828a0162000b4a565b945050606062000c2489828a01620008b4565b935050608062000c3789828a01620008b4565b92505060a062000c4a89828a01620008b4565b9150509295509295509295565b60006020828403121562000c705762000c6f62000821565b5b600062000c808482850162000879565b91505092915050565b60006020828403121562000ca25762000ca162000821565b5b600082013567ffffffffffffffff81111562000cc35762000cc262000826565b5b62000cd18482850162000a6f565b91505092915050565b62000ce58162000890565b82525050565b600060208201905062000d02600083018462000cda565b92915050565b600081519050919050565b600082825260208201905092915050565b6000819050602082019050919050565b62000d3f816200084b565b82525050565b600062000d53838362000d34565b60208301905092915050565b6000602082019050919050565b600062000d798262000d08565b62000d85818562000d13565b935062000d928362000d24565b8060005b8381101562000dc957815162000dad888262000d45565b975062000dba8362000d5f565b92505060018101905062000d96565b5085935050505092915050565b6000602082019050818103600083015262000df2818462000d6c565b905092915050565b600081519050919050565b600081905092915050565b60005b8381101562000e3057808201518184015260208101905062000e13565b60008484015250505050565b600062000e498262000dfa565b62000e55818562000e05565b935062000e6781856020860162000e10565b80840191505092915050565b600062000e81828462000e3c565b915081905092915050565b600082825260208201905092915050565b7f5661756c74206e616d6520616c72656164792065786973747300000000000000600082015250565b600062000ed560198362000e8c565b915062000ee28262000e9d565b602082019050919050565b6000602082019050818103600083015262000f088162000ec6565b9050919050565b60008160601b9050919050565b600062000f298262000f0f565b9050919050565b600062000f3d8262000f1c565b9050919050565b62000f5962000f53826200084b565b62000f30565b82525050565b6000819050919050565b62000f7e62000f788262000890565b62000f5f565b82525050565b600062000f92828562000f44565b60148201915062000fa4828462000f69565b6020820191508190509392505050565b600062000fc18262000dfa565b62000fcd818562000e8c565b935062000fdf81856020860162000e10565b62000fea816200094a565b840191505092915050565b600060e0820190506200100c600083018a62000912565b818103602083015262001020818962000fb4565b905062001031604083018862000912565b818103606083015262001045818762000d6c565b905062001056608083018662000cda565b6200106560a083018562000cda565b6200107460c083018462000cda565b98975050505050505050565b7f4e487b7100000000000000000000000000000000000000000000000000000000600052601160045260246000fd5b6000620010bc8262000890565b9150620010c98362000890565b9250828201905080821115620010e457620010e362001080565b5b92915050565b600060608201905062001101600083018662000912565b818103602083015262001115818562000fb4565b905062001126604083018462000912565b949350505050565b7f4e6f7420746865206f776e657200000000000000000000000000000000000000600082015250565b600062001166600d8362000e8c565b915062001173826200112e565b602082019050919050565b60006020820190508181036000830152620011998162001157565b905091905056fe60a060405234801561001057600080fd5b506040516103923803806103928339818101604052810190610032919061013e565b600073ffffffffffffffffffffffffffffffffffffffff168173ffffffffffffffffffffffffffffffffffffffff16036100a1576040517f08c379a0000000000000000000000000000000000000000000000000000000008152600401610098906101c8565b60405180910390fd5b8073ffffffffffffffffffffffffffffffffffffffff1660808173ffffffffffffffffffffffffffffffffffffffff1681525050506101e8565b600080fd5b600073ffffffffffffffffffffffffffffffffffffffff82169050919050565b600061010b826100e0565b9050919050565b61011b81610100565b811461012657600080fd5b50565b60008151905061013881610112565b92915050565b600060208284031215610154576101536100db565b5b600061016284828501610129565b91505092915050565b600082825260208201905092915050565b7f496e76616c696420696d706c656d656e746174696f6e20616464726573730000600082015250565b60006101b2601e8361016b565b91506101bd8261017c565b602082019050919050565b600060208201905081810360008301526101e1816101a5565b9050919050565b60805161018461020e60003960008181602c015281816057015260d001526101846000f3fe6080604052600436106100225760003560e01c80635c60da1b1461007d57610052565b36610052576100507f00000000000000000000000000000000000000000000000000000000000000006100a8565b005b61007b7f00000000000000000000000000000000000000000000000000000000000000006100a8565b005b34801561008957600080fd5b506100926100ce565b60405161009f9190610133565b60405180910390f35b3660008037600080366000845af43d6000803e80600081146100c9573d6000f35b3d6000fd5b7f000000000000000000000000000000000000000000000000000000000000000081565b600073ffffffffffffffffffffffffffffffffffffffff82169050919050565b600061011d826100f2565b9050919050565b61012d81610112565b82525050565b60006020820190506101486000830184610124565b9291505056fea2646970667358221220b5ecb539ad681c7998c1ba8ea711eaa49674163da0d8411937016ce84886592064736f6c63430008180033a264697066735822122062dc6e749781edefac15ac88592a5ba519be8f13573a802da28e00e547813c0e64736f6c63430008180033","opcodes":"PUSH1 0x80 PUSH1 0x40 MSTORE CALLVALUE DUP1 ISZERO PUSH3 0x11 JUMPI PUSH1 0x0 DUP1 REVERT JUMPDEST POP PUSH1 0x40 MLOAD PUSH3 0x16D3 CODESIZE SUB DUP1 PUSH3 0x16D3 DUP4 CODECOPY DUP2 DUP2 ADD PUSH1 0x40 MSTORE DUP2 ADD SWAP1 PUSH3 0x37 SWAP2 SWAP1 PUSH3 0x129 JUMP JUMPDEST CALLER PUSH1 0x0 DUP1 PUSH2 0x100 EXP DUP2 SLOAD DUP2 PUSH20 0xFFFFFFFFFFFFFFFFFFFFFFFFFFFFFFFFFFFFFFFF MUL NOT AND SWAP1 DUP4 PUSH20 0xFFFFFFFFFFFFFFFFFFFFFFFFFFFFFFFFFFFFFFFF AND MUL OR SWAP1 SSTORE POP DUP1 PUSH1 0x2 PUSH1 0x0 PUSH2 0x100 EXP DUP2 SLOAD DUP2 PUSH20 0xFFFFFFFFFFFFFFFFFFFFFFFFFFFFFFFFFFFFFFFF MUL NOT AND SWAP1 DUP4 PUSH20 0xFFFFFFFFFFFFFFFFFFFFFFFFFFFFFFFFFFFFFFFF AND MUL OR SWAP1 SSTORE POP POP PUSH3 0x15B JUMP JUMPDEST PUSH1 0x0 DUP1 REVERT JUMPDEST PUSH1 0x0 PUSH20 0xFFFFFFFFFFFFFFFFFFFFFFFFFFFFFFFFFFFFFFFF DUP3 AND SWAP1 POP SWAP2 SWAP1 POP JUMP JUMPDEST PUSH1 0x0 PUSH3 0xF1 DUP3 PUSH3 0xC4 JUMP JUMPDEST SWAP1 POP SWAP2 SWAP1 POP JUMP JUMPDEST PUSH3 0x103 DUP2 PUSH3 0xE4 JUMP JUMPDEST DUP2 EQ PUSH3 0x10F JUMPI PUSH1 0x0 DUP1 REVERT JUMPDEST POP JUMP JUMPDEST PUSH1 0x0 DUP2 MLOAD SWAP1 POP PUSH3 0x123 DUP2 PUSH3 0xF8 JUMP JUMPDEST SWAP3 SWAP2 POP POP JUMP JUMPDEST PUSH1 0x0 PUSH1 0x20 DUP3 DUP5 SUB SLT ISZERO PUSH3 0x142 JUMPI PUSH3 0x141 PUSH3 0xBF JUMP JUMPDEST JUMPDEST PUSH1 0x0 PUSH3 0x152 DUP5 DUP3 DUP6 ADD PUSH3 0x112 JUMP JUMPDEST SWAP2 POP POP SWAP3 SWAP2 POP POP JUMP JUMPDEST PUSH2 0x1568 DUP1 PUSH3 0x16B PUSH1 0x0 CODECOPY PUSH1 0x0 RETURN INVALID PUSH1 0x80 PUSH1 0x40 MSTORE CALLVALUE DUP1 ISZERO PUSH3 0x11 JUMPI PUSH1 0x0 DUP1 REVERT JUMPDEST POP PUSH1 0x4 CALLDATASIZE LT PUSH3 0x94 JUMPI PUSH1 0x0 CALLDATALOAD PUSH1 0xE0 SHR DUP1 PUSH4 0x8D654023 GT PUSH3 0x63 JUMPI DUP1 PUSH4 0x8D654023 EQ PUSH3 0x15B JUMPI DUP1 PUSH4 0x8DA5CB5B EQ PUSH3 0x17D JUMPI DUP1 PUSH4 0xAC818711 EQ PUSH3 0x19F JUMPI DUP1 PUSH4 0xBBA48A90 EQ PUSH3 0x1D5 JUMPI PUSH3 0x94 JUMP JUMPDEST DUP1 PUSH4 0xC5BC6A9 EQ PUSH3 0x99 JUMPI DUP1 PUSH4 0x10195F95 EQ PUSH3 0xCF JUMPI DUP1 PUSH4 0x174EF86A EQ PUSH3 0x105 JUMPI DUP1 PUSH4 0x2CF08FD1 EQ PUSH3 0x125 JUMPI JUMPDEST PUSH1 0x0 DUP1 REVERT JUMPDEST PUSH3 0xB7 PUSH1 0x4 DUP1 CALLDATASIZE SUB DUP2 ADD SWAP1 PUSH3 0xB1 SWAP2 SWAP1 PUSH3 0x8CB JUMP JUMPDEST PUSH3 0x1F7 JUMP JUMPDEST PUSH1 0x40 MLOAD PUSH3 0xC6 SWAP2 SWAP1 PUSH3 0x923 JUMP JUMPDEST PUSH1 0x40 MLOAD DUP1 SWAP2 SUB SWAP1 RETURN JUMPDEST PUSH3 0xED PUSH1 0x4 DUP1 CALLDATASIZE SUB DUP2 ADD SWAP1 PUSH3 0xE7 SWAP2 SWAP1 PUSH3 0xB7D JUMP JUMPDEST PUSH3 0x246 JUMP JUMPDEST PUSH1 0x40 MLOAD PUSH3 0xFC SWAP2 SWAP1 PUSH3 0x923 JUMP JUMPDEST PUSH1 0x40 MLOAD DUP1 SWAP2 SUB SWAP1 RETURN JUMPDEST PUSH3 0x123 PUSH1 0x4 DUP1 CALLDATASIZE SUB DUP2 ADD SWAP1 PUSH3 0x11D SWAP2 SWAP1 PUSH3 0xC57 JUMP JUMPDEST PUSH3 0x5CC JUMP JUMPDEST STOP JUMPDEST PUSH3 0x143 PUSH1 0x4 DUP1 CALLDATASIZE SUB DUP2 ADD SWAP1 PUSH3 0x13D SWAP2 SWAP1 PUSH3 0xC89 JUMP JUMPDEST PUSH3 0x6A1 JUMP JUMPDEST PUSH1 0x40 MLOAD PUSH3 0x152 SWAP2 SWAP1 PUSH3 0x923 JUMP JUMPDEST PUSH1 0x40 MLOAD DUP1 SWAP2 SUB SWAP1 RETURN JUMPDEST PUSH3 0x165 PUSH3 0x6EA JUMP JUMPDEST PUSH1 0x40 MLOAD PUSH3 0x174 SWAP2 SWAP1 PUSH3 0xCEB JUMP JUMPDEST PUSH1 0x40 MLOAD DUP1 SWAP2 SUB SWAP1 RETURN JUMPDEST PUSH3 0x187 PUSH3 0x6F0 JUMP JUMPDEST PUSH1 0x40 MLOAD PUSH3 0x196 SWAP2 SWAP1 PUSH3 0x923 JUMP JUMPDEST PUSH1 0x40 MLOAD DUP1 SWAP2 SUB SWAP1 RETURN JUMPDEST PUSH3 0x1BD PUSH1 0x4 DUP1 CALLDATASIZE SUB DUP2 ADD SWAP1 PUSH3 0x1B7 SWAP2 SWAP1 PUSH3 0xC57 JUMP JUMPDEST PUSH3 0x714 JUMP JUMPDEST PUSH1 0x40 MLOAD PUSH3 0x1CC SWAP2 SWAP1 PUSH3 0xDD6 JUMP JUMPDEST PUSH1 0x40 MLOAD DUP1 SWAP2 SUB SWAP1 RETURN JUMPDEST PUSH3 0x1DF PUSH3 0x7E3 JUMP JUMPDEST PUSH1 0x40 MLOAD PUSH3 0x1EE SWAP2 SWAP1 PUSH3 0x923 JUMP JUMPDEST PUSH1 0x40 MLOAD DUP1 SWAP2 SUB SWAP1 RETURN JUMPDEST PUSH1 0x4 PUSH1 0x20 MSTORE DUP2 PUSH1 0x0 MSTORE PUSH1 0x40 PUSH1 0x0 KECCAK256 DUP2 DUP2 SLOAD DUP2 LT PUSH3 0x214 JUMPI PUSH1 0x0 DUP1 REVERT JUMPDEST SWAP1 PUSH1 0x0 MSTORE PUSH1 0x20 PUSH1 0x0 KECCAK256 ADD PUSH1 0x0 SWAP2 POP SWAP2 POP SWAP1 SLOAD SWAP1 PUSH2 0x100 EXP SWAP1 DIV PUSH20 0xFFFFFFFFFFFFFFFFFFFFFFFFFFFFFFFFFFFFFFFF AND DUP2 JUMP JUMPDEST PUSH1 0x0 DUP1 PUSH20 0xFFFFFFFFFFFFFFFFFFFFFFFFFFFFFFFFFFFFFFFF AND PUSH1 0x3 DUP9 PUSH1 0x40 MLOAD PUSH3 0x271 SWAP2 SWAP1 PUSH3 0xE73 JUMP JUMPDEST SWAP1 DUP2 MSTORE PUSH1 0x20 ADD PUSH1 0x40 MLOAD DUP1 SWAP2 SUB SWAP1 KECCAK256 PUSH1 0x0 SWAP1 SLOAD SWAP1 PUSH2 0x100 EXP SWAP1 DIV PUSH20 0xFFFFFFFFFFFFFFFFFFFFFFFFFFFFFFFFFFFFFFFF AND PUSH20 0xFFFFFFFFFFFFFFFFFFFFFFFFFFFFFFFFFFFFFFFF AND EQ PUSH3 0x2F9 JUMPI PUSH1 0x40 MLOAD PUSH32 0x8C379A000000000000000000000000000000000000000000000000000000000 DUP2 MSTORE PUSH1 0x4 ADD PUSH3 0x2F0 SWAP1 PUSH3 0xEED JUMP JUMPDEST PUSH1 0x40 MLOAD DUP1 SWAP2 SUB SWAP1 REVERT JUMPDEST PUSH1 0x0 CALLER PUSH1 0x4 PUSH1 0x0 CALLER PUSH20 0xFFFFFFFFFFFFFFFFFFFFFFFFFFFFFFFFFFFFFFFF AND PUSH20 0xFFFFFFFFFFFFFFFFFFFFFFFFFFFFFFFFFFFFFFFF AND DUP2 MSTORE PUSH1 0x20 ADD SWAP1 DUP2 MSTORE PUSH1 0x20 ADD PUSH1 0x0 KECCAK256 DUP1 SLOAD SWAP1 POP PUSH1 0x40 MLOAD PUSH1 0x20 ADD PUSH3 0x352 SWAP3 SWAP2 SWAP1 PUSH3 0xF84 JUMP JUMPDEST PUSH1 0x40 MLOAD PUSH1 0x20 DUP2 DUP4 SUB SUB DUP2 MSTORE SWAP1 PUSH1 0x40 MSTORE DUP1 MLOAD SWAP1 PUSH1 0x20 ADD KECCAK256 SWAP1 POP PUSH1 0x0 DUP2 PUSH1 0x2 PUSH1 0x0 SWAP1 SLOAD SWAP1 PUSH2 0x100 EXP SWAP1 DIV PUSH20 0xFFFFFFFFFFFFFFFFFFFFFFFFFFFFFFFFFFFFFFFF AND PUSH1 0x40 MLOAD PUSH3 0x39E SWAP1 PUSH3 0x809 JUMP JUMPDEST PUSH3 0x3AA SWAP2 SWAP1 PUSH3 0x923 JUMP JUMPDEST DUP2 SWAP1 PUSH1 0x40 MLOAD DUP1 SWAP2 SUB SWAP1 PUSH1 0x0 CREATE2 SWAP1 POP DUP1 ISZERO DUP1 ISZERO PUSH3 0x3CB JUMPI RETURNDATASIZE PUSH1 0x0 DUP1 RETURNDATACOPY RETURNDATASIZE PUSH1 0x0 REVERT JUMPDEST POP SWAP1 POP PUSH1 0x0 DUP2 SWAP1 POP DUP1 PUSH20 0xFFFFFFFFFFFFFFFFFFFFFFFFFFFFFFFFFFFFFFFF AND PUSH4 0xD63DA95C CALLER DUP13 DUP13 DUP13 DUP13 DUP13 DUP13 PUSH1 0x40 MLOAD DUP9 PUSH4 0xFFFFFFFF AND PUSH1 0xE0 SHL DUP2 MSTORE PUSH1 0x4 ADD PUSH3 0x41A SWAP8 SWAP7 SWAP6 SWAP5 SWAP4 SWAP3 SWAP2 SWAP1 PUSH3 0xFF5 JUMP JUMPDEST PUSH1 0x0 PUSH1 0x40 MLOAD DUP1 DUP4 SUB DUP2 PUSH1 0x0 DUP8 DUP1 EXTCODESIZE ISZERO DUP1 ISZERO PUSH3 0x435 JUMPI PUSH1 0x0 DUP1 REVERT JUMPDEST POP GAS CALL ISZERO DUP1 ISZERO PUSH3 0x44A JUMPI RETURNDATASIZE PUSH1 0x0 DUP1 RETURNDATACOPY RETURNDATASIZE PUSH1 0x0 REVERT JUMPDEST POP POP POP POP DUP1 PUSH1 0x3 DUP12 PUSH1 0x40 MLOAD PUSH3 0x461 SWAP2 SWAP1 PUSH3 0xE73 JUMP JUMPDEST SWAP1 DUP2 MSTORE PUSH1 0x20 ADD PUSH1 0x40 MLOAD DUP1 SWAP2 SUB SWAP1 KECCAK256 PUSH1 0x0 PUSH2 0x100 EXP DUP2 SLOAD DUP2 PUSH20 0xFFFFFFFFFFFFFFFFFFFFFFFFFFFFFFFFFFFFFFFF MUL NOT AND SWAP1 DUP4 PUSH20 0xFFFFFFFFFFFFFFFFFFFFFFFFFFFFFFFFFFFFFFFF AND MUL OR SWAP1 SSTORE POP PUSH1 0x4 PUSH1 0x0 CALLER PUSH20 0xFFFFFFFFFFFFFFFFFFFFFFFFFFFFFFFFFFFFFFFF AND PUSH20 0xFFFFFFFFFFFFFFFFFFFFFFFFFFFFFFFFFFFFFFFF AND DUP2 MSTORE PUSH1 0x20 ADD SWAP1 DUP2 MSTORE PUSH1 0x20 ADD PUSH1 0x0 KECCAK256 DUP2 SWAP1 DUP1 PUSH1 0x1 DUP2 SLOAD ADD DUP1 DUP3 SSTORE DUP1 SWAP2 POP POP PUSH1 0x1 SWAP1 SUB SWAP1 PUSH1 0x0 MSTORE PUSH1 0x20 PUSH1 0x0 KECCAK256 ADD PUSH1 0x0 SWAP1 SWAP2 SWAP1 SWAP2 SWAP1 SWAP2 PUSH2 0x100 EXP DUP2 SLOAD DUP2 PUSH20 0xFFFFFFFFFFFFFFFFFFFFFFFFFFFFFFFFFFFFFFFF MUL NOT AND SWAP1 DUP4 PUSH20 0xFFFFFFFFFFFFFFFFFFFFFFFFFFFFFFFFFFFFFFFF AND MUL OR SWAP1 SSTORE POP PUSH1 0x1 DUP1 PUSH1 0x0 DUP3 DUP3 SLOAD PUSH3 0x561 SWAP2 SWAP1 PUSH3 0x10AF JUMP JUMPDEST SWAP3 POP POP DUP2 SWAP1 SSTORE POP CALLER PUSH20 0xFFFFFFFFFFFFFFFFFFFFFFFFFFFFFFFFFFFFFFFF AND PUSH32 0x86C9DD70A6DE5B89643EAD0C76A7D9C215AFD05C87F64D8EAFF050B89C341BB3 DUP3 DUP13 DUP13 PUSH1 0x40 MLOAD PUSH3 0x5B4 SWAP4 SWAP3 SWAP2 SWAP1 PUSH3 0x10EA JUMP JUMPDEST PUSH1 0x40 MLOAD DUP1 SWAP2 SUB SWAP1 LOG2 DUP1 SWAP4 POP POP POP POP SWAP7 SWAP6 POP POP POP POP POP POP JUMP JUMPDEST PUSH1 0x0 DUP1 SLOAD SWAP1 PUSH2 0x100 EXP SWAP1 DIV PUSH20 0xFFFFFFFFFFFFFFFFFFFFFFFFFFFFFFFFFFFFFFFF AND PUSH20 0xFFFFFFFFFFFFFFFFFFFFFFFFFFFFFFFFFFFFFFFF AND CALLER PUSH20 0xFFFFFFFFFFFFFFFFFFFFFFFFFFFFFFFFFFFFFFFF AND EQ PUSH3 0x65D JUMPI PUSH1 0x40 MLOAD PUSH32 0x8C379A000000000000000000000000000000000000000000000000000000000 DUP2 MSTORE PUSH1 0x4 ADD PUSH3 0x654 SWAP1 PUSH3 0x117E JUMP JUMPDEST PUSH1 0x40 MLOAD DUP1 SWAP2 SUB SWAP1 REVERT JUMPDEST DUP1 PUSH1 0x2 PUSH1 0x0 PUSH2 0x100 EXP DUP2 SLOAD DUP2 PUSH20 0xFFFFFFFFFFFFFFFFFFFFFFFFFFFFFFFFFFFFFFFF MUL NOT AND SWAP1 DUP4 PUSH20 0xFFFFFFFFFFFFFFFFFFFFFFFFFFFFFFFFFFFFFFFF AND MUL OR SWAP1 SSTORE POP POP JUMP JUMPDEST PUSH1 0x3 DUP2 DUP1 MLOAD PUSH1 0x20 DUP2 ADD DUP3 ADD DUP1 MLOAD DUP5 DUP3 MSTORE PUSH1 0x20 DUP4 ADD PUSH1 0x20 DUP6 ADD KECCAK256 DUP2 DUP4 MSTORE DUP1 SWAP6 POP POP POP POP POP POP PUSH1 0x0 SWAP2 POP SLOAD SWAP1 PUSH2 0x100 EXP SWAP1 DIV PUSH20 0xFFFFFFFFFFFFFFFFFFFFFFFFFFFFFFFFFFFFFFFF AND DUP2 JUMP JUMPDEST PUSH1 0x1 SLOAD DUP2 JUMP JUMPDEST PUSH1 0x0 DUP1 SLOAD SWAP1 PUSH2 0x100 EXP SWAP1 DIV PUSH20 0xFFFFFFFFFFFFFFFFFFFFFFFFFFFFFFFFFFFFFFFF AND DUP2 JUMP JUMPDEST PUSH1 0x60 PUSH1 0x4 PUSH1 0x0 DUP4 PUSH20 0xFFFFFFFFFFFFFFFFFFFFFFFFFFFFFFFFFFFFFFFF AND PUSH20 0xFFFFFFFFFFFFFFFFFFFFFFFFFFFFFFFFFFFFFFFF AND DUP2 MSTORE PUSH1 0x20 ADD SWAP1 DUP2 MSTORE PUSH1 0x20 ADD PUSH1 0x0 KECCAK256 DUP1 SLOAD DUP1 PUSH1 0x20 MUL PUSH1 0x20 ADD PUSH1 0x40 MLOAD SWAP1 DUP2 ADD PUSH1 0x40 MSTORE DUP1 SWAP3 SWAP2 SWAP1 DUP2 DUP2 MSTORE PUSH1 0x20 ADD DUP3 DUP1 SLOAD DUP1 ISZERO PUSH3 0x7D7 JUMPI PUSH1 0x20 MUL DUP3 ADD SWAP2 SWAP1 PUSH1 0x0 MSTORE PUSH1 0x20 PUSH1 0x0 KECCAK256 SWAP1 JUMPDEST DUP2 PUSH1 0x0 SWAP1 SLOAD SWAP1 PUSH2 0x100 EXP SWAP1 DIV PUSH20 0xFFFFFFFFFFFFFFFFFFFFFFFFFFFFFFFFFFFFFFFF AND PUSH20 0xFFFFFFFFFFFFFFFFFFFFFFFFFFFFFFFFFFFFFFFF AND DUP2 MSTORE PUSH1 0x20 ADD SWAP1 PUSH1 0x1 ADD SWAP1 DUP1 DUP4 GT PUSH3 0x78C JUMPI JUMPDEST POP POP POP POP POP SWAP1 POP SWAP2 SWAP1 POP JUMP JUMPDEST PUSH1 0x2 PUSH1 0x0 SWAP1 SLOAD SWAP1 PUSH2 0x100 EXP SWAP1 DIV PUSH20 0xFFFFFFFFFFFFFFFFFFFFFFFFFFFFFFFFFFFFFFFF AND DUP2 JUMP JUMPDEST PUSH2 0x392 DUP1 PUSH3 0x11A1 DUP4 CODECOPY ADD SWAP1 JUMP JUMPDEST PUSH1 0x0 PUSH1 0x40 MLOAD SWAP1 POP SWAP1 JUMP JUMPDEST PUSH1 0x0 DUP1 REVERT JUMPDEST PUSH1 0x0 DUP1 REVERT JUMPDEST PUSH1 0x0 PUSH20 0xFFFFFFFFFFFFFFFFFFFFFFFFFFFFFFFFFFFFFFFF DUP3 AND SWAP1 POP SWAP2 SWAP1 POP JUMP JUMPDEST PUSH1 0x0 PUSH3 0x858 DUP3 PUSH3 0x82B JUMP JUMPDEST SWAP1 POP SWAP2 SWAP1 POP JUMP JUMPDEST PUSH3 0x86A DUP2 PUSH3 0x84B JUMP JUMPDEST DUP2 EQ PUSH3 0x876 JUMPI PUSH1 0x0 DUP1 REVERT JUMPDEST POP JUMP JUMPDEST PUSH1 0x0 DUP2 CALLDATALOAD SWAP1 POP PUSH3 0x88A DUP2 PUSH3 0x85F JUMP JUMPDEST SWAP3 SWAP2 POP POP JUMP JUMPDEST PUSH1 0x0 DUP2 SWAP1 POP SWAP2 SWAP1 POP JUMP JUMPDEST PUSH3 0x8A5 DUP2 PUSH3 0x890 JUMP JUMPDEST DUP2 EQ PUSH3 0x8B1 JUMPI PUSH1 0x0 DUP1 REVERT JUMPDEST POP JUMP JUMPDEST PUSH1 0x0 DUP2 CALLDATALOAD SWAP1 POP PUSH3 0x8C5 DUP2 PUSH3 0x89A JUMP JUMPDEST SWAP3 SWAP2 POP POP JUMP JUMPDEST PUSH1 0x0 DUP1 PUSH1 0x40 DUP4 DUP6 SUB SLT ISZERO PUSH3 0x8E5 JUMPI PUSH3 0x8E4 PUSH3 0x821 JUMP JUMPDEST JUMPDEST PUSH1 0x0 PUSH3 0x8F5 DUP6 DUP3 DUP7 ADD PUSH3 0x879 JUMP JUMPDEST SWAP3 POP POP PUSH1 0x20 PUSH3 0x908 DUP6 DUP3 DUP7 ADD PUSH3 0x8B4 JUMP JUMPDEST SWAP2 POP POP SWAP3 POP SWAP3 SWAP1 POP JUMP JUMPDEST PUSH3 0x91D DUP2 PUSH3 0x84B JUMP JUMPDEST DUP3 MSTORE POP POP JUMP JUMPDEST PUSH1 0x0 PUSH1 0x20 DUP3 ADD SWAP1 POP PUSH3 0x93A PUSH1 0x0 DUP4 ADD DUP5 PUSH3 0x912 JUMP JUMPDEST SWAP3 SWAP2 POP POP JUMP JUMPDEST PUSH1 0x0 DUP1 REVERT JUMPDEST PUSH1 0x0 DUP1 REVERT JUMPDEST PUSH1 0x0 PUSH1 0x1F NOT PUSH1 0x1F DUP4 ADD AND SWAP1 POP SWAP2 SWAP1 POP JUMP JUMPDEST PUSH32 0x4E487B7100000000000000000000000000000000000000000000000000000000 PUSH1 0x0 MSTORE PUSH1 0x41 PUSH1 0x4 MSTORE PUSH1 0x24 PUSH1 0x0 REVERT JUMPDEST PUSH3 0x995 DUP3 PUSH3 0x94A JUMP JUMPDEST DUP2 ADD DUP2 DUP2 LT PUSH8 0xFFFFFFFFFFFFFFFF DUP3 GT OR ISZERO PUSH3 0x9B7 JUMPI PUSH3 0x9B6 PUSH3 0x95B JUMP JUMPDEST JUMPDEST DUP1 PUSH1 0x40 MSTORE POP POP POP JUMP JUMPDEST PUSH1 0x0 PUSH3 0x9CC PUSH3 0x817 JUMP JUMPDEST SWAP1 POP PUSH3 0x9DA DUP3 DUP3 PUSH3 0x98A JUMP JUMPDEST SWAP2 SWAP1 POP JUMP JUMPDEST PUSH1 0x0 PUSH8 0xFFFFFFFFFFFFFFFF DUP3 GT ISZERO PUSH3 0x9FD JUMPI PUSH3 0x9FC PUSH3 0x95B JUMP JUMPDEST JUMPDEST PUSH3 0xA08 DUP3 PUSH3 0x94A JUMP JUMPDEST SWAP1 POP PUSH1 0x20 DUP2 ADD SWAP1 POP SWAP2 SWAP1 POP JUMP JUMPDEST DUP3 DUP2 DUP4 CALLDATACOPY PUSH1 0x0 DUP4 DUP4 ADD MSTORE POP POP POP JUMP JUMPDEST PUSH1 0x0 PUSH3 0xA3B PUSH3 0xA35 DUP5 PUSH3 0x9DF JUMP JUMPDEST PUSH3 0x9C0 JUMP JUMPDEST SWAP1 POP DUP3 DUP2 MSTORE PUSH1 0x20 DUP2 ADD DUP5 DUP5 DUP5 ADD GT ISZERO PUSH3 0xA5A JUMPI PUSH3 0xA59 PUSH3 0x945 JUMP JUMPDEST JUMPDEST PUSH3 0xA67 DUP5 DUP3 DUP6 PUSH3 0xA15 JUMP JUMPDEST POP SWAP4 SWAP3 POP POP POP JUMP JUMPDEST PUSH1 0x0 DUP3 PUSH1 0x1F DUP4 ADD SLT PUSH3 0xA87 JUMPI PUSH3 0xA86 PUSH3 0x940 JUMP JUMPDEST JUMPDEST DUP2 CALLDATALOAD PUSH3 0xA99 DUP5 DUP3 PUSH1 0x20 DUP7 ADD PUSH3 0xA24 JUMP JUMPDEST SWAP2 POP POP SWAP3 SWAP2 POP POP JUMP JUMPDEST PUSH1 0x0 PUSH8 0xFFFFFFFFFFFFFFFF DUP3 GT ISZERO PUSH3 0xAC0 JUMPI PUSH3 0xABF PUSH3 0x95B JUMP JUMPDEST JUMPDEST PUSH1 0x20 DUP3 MUL SWAP1 POP PUSH1 0x20 DUP2 ADD SWAP1 POP SWAP2 SWAP1 POP JUMP JUMPDEST PUSH1 0x0 DUP1 REVERT JUMPDEST PUSH1 0x0 PUSH3 0xAED PUSH3 0xAE7 DUP5 PUSH3 0xAA2 JUMP JUMPDEST PUSH3 0x9C0 JUMP JUMPDEST SWAP1 POP DUP1 DUP4 DUP3 MSTORE PUSH1 0x20 DUP3 ADD SWAP1 POP PUSH1 0x20 DUP5 MUL DUP4 ADD DUP6 DUP2 GT ISZERO PUSH3 0xB13 JUMPI PUSH3 0xB12 PUSH3 0xAD1 JUMP JUMPDEST JUMPDEST DUP4 JUMPDEST DUP2 DUP2 LT ISZERO PUSH3 0xB40 JUMPI DUP1 PUSH3 0xB2B DUP9 DUP3 PUSH3 0x879 JUMP JUMPDEST DUP5 MSTORE PUSH1 0x20 DUP5 ADD SWAP4 POP POP PUSH1 0x20 DUP2 ADD SWAP1 POP PUSH3 0xB15 JUMP JUMPDEST POP POP POP SWAP4 SWAP3 POP POP POP JUMP JUMPDEST PUSH1 0x0 DUP3 PUSH1 0x1F DUP4 ADD SLT PUSH3 0xB62 JUMPI PUSH3 0xB61 PUSH3 0x940 JUMP JUMPDEST JUMPDEST DUP2 CALLDATALOAD PUSH3 0xB74 DUP5 DUP3 PUSH1 0x20 DUP7 ADD PUSH3 0xAD6 JUMP JUMPDEST SWAP2 POP POP SWAP3 SWAP2 POP POP JUMP JUMPDEST PUSH1 0x0 DUP1 PUSH1 0x0 DUP1 PUSH1 0x0 DUP1 PUSH1 0xC0 DUP8 DUP10 SUB SLT ISZERO PUSH3 0xB9D JUMPI PUSH3 0xB9C PUSH3 0x821 JUMP JUMPDEST JUMPDEST PUSH1 0x0 DUP8 ADD CALLDATALOAD PUSH8 0xFFFFFFFFFFFFFFFF DUP2 GT ISZERO PUSH3 0xBBE JUMPI PUSH3 0xBBD PUSH3 0x826 JUMP JUMPDEST JUMPDEST PUSH3 0xBCC DUP10 DUP3 DUP11 ADD PUSH3 0xA6F JUMP JUMPDEST SWAP7 POP POP PUSH1 0x20 PUSH3 0xBDF DUP10 DUP3 DUP11 ADD PUSH3 0x879 JUMP JUMPDEST SWAP6 POP POP PUSH1 0x40 DUP8 ADD CALLDATALOAD PUSH8 0xFFFFFFFFFFFFFFFF DUP2 GT ISZERO PUSH3 0xC03 JUMPI PUSH3 0xC02 PUSH3 0x826 JUMP JUMPDEST JUMPDEST PUSH3 0xC11 DUP10 DUP3 DUP11 ADD PUSH3 0xB4A JUMP JUMPDEST SWAP5 POP POP PUSH1 0x60 PUSH3 0xC24 DUP10 DUP3 DUP11 ADD PUSH3 0x8B4 JUMP JUMPDEST SWAP4 POP POP PUSH1 0x80 PUSH3 0xC37 DUP10 DUP3 DUP11 ADD PUSH3 0x8B4 JUMP JUMPDEST SWAP3 POP POP PUSH1 0xA0 PUSH3 0xC4A DUP10 DUP3 DUP11 ADD PUSH3 0x8B4 JUMP JUMPDEST SWAP2 POP POP SWAP3 SWAP6 POP SWAP3 SWAP6 POP SWAP3 SWAP6 JUMP JUMPDEST PUSH1 0x0 PUSH1 0x20 DUP3 DUP5 SUB SLT ISZERO PUSH3 0xC70 JUMPI PUSH3 0xC6F PUSH3 0x821 JUMP JUMPDEST JUMPDEST PUSH1 0x0 PUSH3 0xC80 DUP5 DUP3 DUP6 ADD PUSH3 0x879 JUMP JUMPDEST SWAP2 POP POP SWAP3 SWAP2 POP POP JUMP JUMPDEST PUSH1 0x0 PUSH1 0x20 DUP3 DUP5 SUB SLT ISZERO PUSH3 0xCA2 JUMPI PUSH3 0xCA1 PUSH3 0x821 JUMP JUMPDEST JUMPDEST PUSH1 0x0 DUP3 ADD CALLDATALOAD PUSH8 0xFFFFFFFFFFFFFFFF DUP2 GT ISZERO PUSH3 0xCC3 JUMPI PUSH3 0xCC2 PUSH3 0x826 JUMP JUMPDEST JUMPDEST PUSH3 0xCD1 DUP5 DUP3 DUP6 ADD PUSH3 0xA6F JUMP JUMPDEST SWAP2 POP POP SWAP3 SWAP2 POP POP JUMP JUMPDEST PUSH3 0xCE5 DUP2 PUSH3 0x890 JUMP JUMPDEST DUP3 MSTORE POP POP JUMP JUMPDEST PUSH1 0x0 PUSH1 0x20 DUP3 ADD SWAP1 POP PUSH3 0xD02 PUSH1 0x0 DUP4 ADD DUP5 PUSH3 0xCDA JUMP JUMPDEST SWAP3 SWAP2 POP POP JUMP JUMPDEST PUSH1 0x0 DUP2 MLOAD SWAP1 POP SWAP2 SWAP1 POP JUMP JUMPDEST PUSH1 0x0 DUP3 DUP3 MSTORE PUSH1 0x20 DUP3 ADD SWAP1 POP SWAP3 SWAP2 POP POP JUMP JUMPDEST PUSH1 0x0 DUP2 SWAP1 POP PUSH1 0x20 DUP3 ADD SWAP1 POP SWAP2 SWAP1 POP JUMP JUMPDEST PUSH3 0xD3F DUP2 PUSH3 0x84B JUMP JUMPDEST DUP3 MSTORE POP POP JUMP JUMPDEST PUSH1 0x0 PUSH3 0xD53 DUP4 DUP4 PUSH3 0xD34 JUMP JUMPDEST PUSH1 0x20 DUP4 ADD SWAP1 POP SWAP3 SWAP2 POP POP JUMP JUMPDEST PUSH1 0x0 PUSH1 0x20 DUP3 ADD SWAP1 POP SWAP2 SWAP1 POP JUMP JUMPDEST PUSH1 0x0 PUSH3 0xD79 DUP3 PUSH3 0xD08 JUMP JUMPDEST PUSH3 0xD85 DUP2 DUP6 PUSH3 0xD13 JUMP JUMPDEST SWAP4 POP PUSH3 0xD92 DUP4 PUSH3 0xD24 JUMP JUMPDEST DUP1 PUSH1 0x0 JUMPDEST DUP4 DUP2 LT ISZERO PUSH3 0xDC9 JUMPI DUP2 MLOAD PUSH3 0xDAD DUP9 DUP3 PUSH3 0xD45 JUMP JUMPDEST SWAP8 POP PUSH3 0xDBA DUP4 PUSH3 0xD5F JUMP JUMPDEST SWAP3 POP POP PUSH1 0x1 DUP2 ADD SWAP1 POP PUSH3 0xD96 JUMP JUMPDEST POP DUP6 SWAP4 POP POP POP POP SWAP3 SWAP2 POP POP JUMP JUMPDEST PUSH1 0x0 PUSH1 0x20 DUP3 ADD SWAP1 POP DUP2 DUP2 SUB PUSH1 0x0 DUP4 ADD MSTORE PUSH3 0xDF2 DUP2 DUP5 PUSH3 0xD6C JUMP JUMPDEST SWAP1 POP SWAP3 SWAP2 POP POP JUMP JUMPDEST PUSH1 0x0 DUP2 MLOAD SWAP1 POP SWAP2 SWAP1 POP JUMP JUMPDEST PUSH1 0x0 DUP2 SWAP1 POP SWAP3 SWAP2 POP POP JUMP JUMPDEST PUSH1 0x0 JUMPDEST DUP4 DUP2 LT ISZERO PUSH3 0xE30 JUMPI DUP1 DUP3 ADD MLOAD DUP2 DUP5 ADD MSTORE PUSH1 0x20 DUP2 ADD SWAP1 POP PUSH3 0xE13 JUMP JUMPDEST PUSH1 0x0 DUP5 DUP5 ADD MSTORE POP POP POP POP JUMP JUMPDEST PUSH1 0x0 PUSH3 0xE49 DUP3 PUSH3 0xDFA JUMP JUMPDEST PUSH3 0xE55 DUP2 DUP6 PUSH3 0xE05 JUMP JUMPDEST SWAP4 POP PUSH3 0xE67 DUP2 DUP6 PUSH1 0x20 DUP7 ADD PUSH3 0xE10 JUMP JUMPDEST DUP1 DUP5 ADD SWAP2 POP POP SWAP3 SWAP2 POP POP JUMP JUMPDEST PUSH1 0x0 PUSH3 0xE81 DUP3 DUP5 PUSH3 0xE3C JUMP JUMPDEST SWAP2 POP DUP2 SWAP1 POP SWAP3 SWAP2 POP POP JUMP JUMPDEST PUSH1 0x0 DUP3 DUP3 MSTORE PUSH1 0x20 DUP3 ADD SWAP1 POP SWAP3 SWAP2 POP POP JUMP JUMPDEST PUSH32 0x5661756C74206E616D6520616C72656164792065786973747300000000000000 PUSH1 0x0 DUP3 ADD MSTORE POP JUMP JUMPDEST PUSH1 0x0 PUSH3 0xED5 PUSH1 0x19 DUP4 PUSH3 0xE8C JUMP JUMPDEST SWAP2 POP PUSH3 0xEE2 DUP3 PUSH3 0xE9D JUMP JUMPDEST PUSH1 0x20 DUP3 ADD SWAP1 POP SWAP2 SWAP1 POP JUMP JUMPDEST PUSH1 0x0 PUSH1 0x20 DUP3 ADD SWAP1 POP DUP2 DUP2 SUB PUSH1 0x0 DUP4 ADD MSTORE PUSH3 0xF08 DUP2 PUSH3 0xEC6 JUMP JUMPDEST SWAP1 POP SWAP2 SWAP1 POP JUMP JUMPDEST PUSH1 0x0 DUP2 PUSH1 0x60 SHL SWAP1 POP SWAP2 SWAP1 POP JUMP JUMPDEST PUSH1 0x0 PUSH3 0xF29 DUP3 PUSH3 0xF0F JUMP JUMPDEST SWAP1 POP SWAP2 SWAP1 POP JUMP JUMPDEST PUSH1 0x0 PUSH3 0xF3D DUP3 PUSH3 0xF1C JUMP JUMPDEST SWAP1 POP SWAP2 SWAP1 POP JUMP JUMPDEST PUSH3 0xF59 PUSH3 0xF53 DUP3 PUSH3 0x84B JUMP JUMPDEST PUSH3 0xF30 JUMP JUMPDEST DUP3 MSTORE POP POP JUMP JUMPDEST PUSH1 0x0 DUP2 SWAP1 POP SWAP2 SWAP1 POP JUMP JUMPDEST PUSH3 0xF7E PUSH3 0xF78 DUP3 PUSH3 0x890 JUMP JUMPDEST PUSH3 0xF5F JUMP JUMPDEST DUP3 MSTORE POP POP JUMP JUMPDEST PUSH1 0x0 PUSH3 0xF92 DUP3 DUP6 PUSH3 0xF44 JUMP JUMPDEST PUSH1 0x14 DUP3 ADD SWAP2 POP PUSH3 0xFA4 DUP3 DUP5 PUSH3 0xF69 JUMP JUMPDEST PUSH1 0x20 DUP3 ADD SWAP2 POP DUP2 SWAP1 POP SWAP4 SWAP3 POP POP POP JUMP JUMPDEST PUSH1 0x0 PUSH3 0xFC1 DUP3 PUSH3 0xDFA JUMP JUMPDEST PUSH3 0xFCD DUP2 DUP6 PUSH3 0xE8C JUMP JUMPDEST SWAP4 POP PUSH3 0xFDF DUP2 DUP6 PUSH1 0x20 DUP7 ADD PUSH3 0xE10 JUMP JUMPDEST PUSH3 0xFEA DUP2 PUSH3 0x94A JUMP JUMPDEST DUP5 ADD SWAP2 POP POP SWAP3 SWAP2 POP POP JUMP JUMPDEST PUSH1 0x0 PUSH1 0xE0 DUP3 ADD SWAP1 POP PUSH3 0x100C PUSH1 0x0 DUP4 ADD DUP11 PUSH3 0x912 JUMP JUMPDEST DUP2 DUP2 SUB PUSH1 0x20 DUP4 ADD MSTORE PUSH3 0x1020 DUP2 DUP10 PUSH3 0xFB4 JUMP JUMPDEST SWAP1 POP PUSH3 0x1031 PUSH1 0x40 DUP4 ADD DUP9 PUSH3 0x912 JUMP JUMPDEST DUP2 DUP2 SUB PUSH1 0x60 DUP4 ADD MSTORE PUSH3 0x1045 DUP2 DUP8 PUSH3 0xD6C JUMP JUMPDEST SWAP1 POP PUSH3 0x1056 PUSH1 0x80 DUP4 ADD DUP7 PUSH3 0xCDA JUMP JUMPDEST PUSH3 0x1065 PUSH1 0xA0 DUP4 ADD DUP6 PUSH3 0xCDA JUMP JUMPDEST PUSH3 0x1074 PUSH1 0xC0 DUP4 ADD DUP5 PUSH3 0xCDA JUMP JUMPDEST SWAP9 SWAP8 POP POP POP POP POP POP POP POP JUMP JUMPDEST PUSH32 0x4E487B7100000000000000000000000000000000000000000000000000000000 PUSH1 0x0 MSTORE PUSH1 0x11 PUSH1 0x4 MSTORE PUSH1 0x24 PUSH1 0x0 REVERT JUMPDEST PUSH1 0x0 PUSH3 0x10BC DUP3 PUSH3 0x890 JUMP JUMPDEST SWAP2 POP PUSH3 0x10C9 DUP4 PUSH3 0x890 JUMP JUMPDEST SWAP3 POP DUP3 DUP3 ADD SWAP1 POP DUP1 DUP3 GT ISZERO PUSH3 0x10E4 JUMPI PUSH3 0x10E3 PUSH3 0x1080 JUMP JUMPDEST JUMPDEST SWAP3 SWAP2 POP POP JUMP JUMPDEST PUSH1 0x0 PUSH1 0x60 DUP3 ADD SWAP1 POP PUSH3 0x1101 PUSH1 0x0 DUP4 ADD DUP7 PUSH3 0x912 JUMP JUMPDEST DUP2 DUP2 SUB PUSH1 0x20 DUP4 ADD MSTORE PUSH3 0x1115 DUP2 DUP6 PUSH3 0xFB4 JUMP JUMPDEST SWAP1 POP PUSH3 0x1126 PUSH1 0x40 DUP4 ADD DUP5 PUSH3 0x912 JUMP JUMPDEST SWAP5 SWAP4 POP POP POP POP JUMP JUMPDEST PUSH32 0x4E6F7420746865206F776E657200000000000000000000000000000000000000 PUSH1 0x0 DUP3 ADD MSTORE POP JUMP JUMPDEST PUSH1 0x0 PUSH3 0x1166 PUSH1 0xD DUP4 PUSH3 0xE8C JUMP JUMPDEST SWAP2 POP PUSH3 0x1173 DUP3 PUSH3 0x112E JUMP JUMPDEST PUSH1 0x20 DUP3 ADD SWAP1 POP SWAP2 SWAP1 POP JUMP JUMPDEST PUSH1 0x0 PUSH1 0x20 DUP3 ADD SWAP1 POP DUP2 DUP2 SUB PUSH1 0x0 DUP4 ADD MSTORE PUSH3 0x1199 DUP2 PUSH3 0x1157 JUMP JUMPDEST SWAP1 POP SWAP2 SWAP1 POP JUMP INVALID PUSH1 0xA0 PUSH1 0x40 MSTORE CALLVALUE DUP1 ISZERO PUSH2 0x10 JUMPI PUSH1 0x0 DUP1 REVERT JUMPDEST POP PUSH1 0x40 MLOAD PUSH2 0x392 CODESIZE SUB DUP1 PUSH2 0x392 DUP4 CODECOPY DUP2 DUP2 ADD PUSH1 0x40 MSTORE DUP2 ADD SWAP1 PUSH2 0x32 SWAP2 SWAP1 PUSH2 0x13E JUMP JUMPDEST PUSH1 0x0 PUSH20 0xFFFFFFFFFFFFFFFFFFFFFFFFFFFFFFFFFFFFFFFF AND DUP2 PUSH20 0xFFFFFFFFFFFFFFFFFFFFFFFFFFFFFFFFFFFFFFFF AND SUB PUSH2 0xA1 JUMPI PUSH1 0x40 MLOAD PUSH32 0x8C379A000000000000000000000000000000000000000000000000000000000 DUP2 MSTORE PUSH1 0x4 ADD PUSH2 0x98 SWAP1 PUSH2 0x1C8 JUMP JUMPDEST PUSH1 0x40 MLOAD DUP1 SWAP2 SUB SWAP1 REVERT JUMPDEST DUP1 PUSH20 0xFFFFFFFFFFFFFFFFFFFFFFFFFFFFFFFFFFFFFFFF AND PUSH1 0x80 DUP2 PUSH20 0xFFFFFFFFFFFFFFFFFFFFFFFFFFFFFFFFFFFFFFFF AND DUP2 MSTORE POP POP POP PUSH2 0x1E8 JUMP JUMPDEST PUSH1 0x0 DUP1 REVERT JUMPDEST PUSH1 0x0 PUSH20 0xFFFFFFFFFFFFFFFFFFFFFFFFFFFFFFFFFFFFFFFF DUP3 AND SWAP1 POP SWAP2 SWAP1 POP JUMP JUMPDEST PUSH1 0x0 PUSH2 0x10B DUP3 PUSH2 0xE0 JUMP JUMPDEST SWAP1 POP SWAP2 SWAP1 POP JUMP JUMPDEST PUSH2 0x11B DUP2 PUSH2 0x100 JUMP JUMPDEST DUP2 EQ PUSH2 0x126 JUMPI PUSH1 0x0 DUP1 REVERT JUMPDEST POP JUMP JUMPDEST PUSH1 0x0 DUP2 MLOAD SWAP1 POP PUSH2 0x138 DUP2 PUSH2 0x112 JUMP JUMPDEST SWAP3 SWAP2 POP POP JUMP JUMPDEST PUSH1 0x0 PUSH1 0x20 DUP3 DUP5 SUB SLT ISZERO PUSH2 0x154 JUMPI PUSH2 0x153 PUSH2 0xDB JUMP JUMPDEST JUMPDEST PUSH1 0x0 PUSH2 0x162 DUP5 DUP3 DUP6 ADD PUSH2 0x129 JUMP JUMPDEST SWAP2 POP POP SWAP3 SWAP2 POP POP JUMP JUMPDEST PUSH1 0x0 DUP3 DUP3 MSTORE PUSH1 0x20 DUP3 ADD SWAP1 POP SWAP3 SWAP2 POP POP JUMP JUMPDEST PUSH32 0x496E76616C696420696D706C656D656E746174696F6E20616464726573730000 PUSH1 0x0 DUP3 ADD MSTORE POP JUMP JUMPDEST PUSH1 0x0 PUSH2 0x1B2 PUSH1 0x1E DUP4 PUSH2 0x16B JUMP JUMPDEST SWAP2 POP PUSH2 0x1BD DUP3 PUSH2 0x17C JUMP JUMPDEST PUSH1 0x20 DUP3 ADD SWAP1 POP SWAP2 SWAP1 POP JUMP JUMPDEST PUSH1 0x0 PUSH1 0x20 DUP3 ADD SWAP1 POP DUP2 DUP2 SUB PUSH1 0x0 DUP4 ADD MSTORE PUSH2 0x1E1 DUP2 PUSH2 0x1A5 JUMP JUMPDEST SWAP1 POP SWAP2 SWAP1 POP JUMP JUMPDEST PUSH1 0x80 MLOAD PUSH2 0x184 PUSH2 0x20E PUSH1 0x0 CODECOPY PUSH1 0x0 DUP2 DUP2 PUSH1 0x2C ADD MSTORE DUP2 DUP2 PUSH1 0x57 ADD MSTORE PUSH1 0xD0 ADD MSTORE PUSH2 0x184 PUSH1 0x0 RETURN INVALID PUSH1 0x80 PUSH1 0x40 MSTORE PUSH1 0x4 CALLDATASIZE LT PUSH2 0x22 JUMPI PUSH1 0x0 CALLDATALOAD PUSH1 0xE0 SHR DUP1 PUSH4 0x5C60DA1B EQ PUSH2 0x7D JUMPI PUSH2 0x52 JUMP JUMPDEST CALLDATASIZE PUSH2 0x52 JUMPI PUSH2 0x50 PUSH32 0x0 PUSH2 0xA8 JUMP JUMPDEST STOP JUMPDEST PUSH2 0x7B PUSH32 0x0 PUSH2 0xA8 JUMP JUMPDEST STOP JUMPDEST CALLVALUE DUP1 ISZERO PUSH2 0x89 JUMPI PUSH1 0x0 DUP1 REVERT JUMPDEST POP PUSH2 0x92 PUSH2 0xCE JUMP JUMPDEST PUSH1 0x40 MLOAD PUSH2 0x9F SWAP2 SWAP1 PUSH2 0x133 JUMP JUMPDEST PUSH1 0x40 MLOAD DUP1 SWAP2 SUB SWAP1 RETURN JUMPDEST CALLDATASIZE PUSH1 0x0 DUP1 CALLDATACOPY PUSH1 0x0 DUP1 CALLDATASIZE PUSH1 0x0 DUP5 GAS DELEGATECALL RETURNDATASIZE PUSH1 0x0 DUP1 RETURNDATACOPY DUP1 PUSH1 0x0 DUP2 EQ PUSH2 0xC9 JUMPI RETURNDATASIZE PUSH1 0x0 RETURN JUMPDEST RETURNDATASIZE PUSH1 0x0 REVERT JUMPDEST PUSH32 0x0 DUP2 JUMP JUMPDEST PUSH1 0x0 PUSH20 0xFFFFFFFFFFFFFFFFFFFFFFFFFFFFFFFFFFFFFFFF DUP3 AND SWAP1 POP SWAP2 SWAP1 POP JUMP JUMPDEST PUSH1 0x0 PUSH2 0x11D DUP3 PUSH2 0xF2 JUMP JUMPDEST SWAP1 POP SWAP2 SWAP1 POP JUMP JUMPDEST PUSH2 0x12D DUP2 PUSH2 0x112 JUMP JUMPDEST DUP3 MSTORE POP POP JUMP JUMPDEST PUSH1 0x0 PUSH1 0x20 DUP3 ADD SWAP1 POP PUSH2 0x148 PUSH1 0x0 DUP4 ADD DUP5 PUSH2 0x124 JUMP JUMPDEST SWAP3 SWAP2 POP POP JUMP INVALID LOG2 PUSH5 0x6970667358 0x22 SLT KECCAK256 0xB5 0xEC 0xB5 CODECOPY 0xAD PUSH9 0x1C7998C1BA8EA711EA LOG4 SWAP7 PUSH21 0x163DA0D8411937016CE84886592064736F6C634300 ADDMOD XOR STOP CALLER LOG2 PUSH5 0x6970667358 0x22 SLT KECCAK256 PUSH3 0xDC6E74 SWAP8 DUP2 0xED 0xEF 0xAC ISZERO 0xAC DUP9 MSIZE 0x2A JUMPDEST 0xA5 NOT 0xBE DUP16 SGT JUMPI GASPRICE DUP1 0x2D LOG2 DUP15 STOP 0xE5 SELFBALANCE DUP2 EXTCODECOPY 0xE PUSH5 0x736F6C6343 STOP ADDMOD XOR STOP CALLER "},"methodIdentifiers":{"createVault(string,address,address[],uint256,uint256,uint256)":"10195f95","getVaultsByOwner(address)":"ac818711","owner()":"8da5cb5b","ownerToVaults(address,uint256)":"0c5bc6a9","totalVaults()":"8d654023","updateVaultImplementation(address)":"174ef86a","vaultImplementation()":"bba48a90","vaultNames(string)":"2cf08fd1"}}}}}