{"contracts/Vault.sol":{"Vault":{"abi":[{"anonymous":false,"inputs":[{"indexed":false,"internalType":"address","name":"nft","type":"address"},{"indexed":false,"internalType":"uint256","name":"tokenId","type":"uint256"},{"indexed":true,"internalType":"address","name":"depositor","type":"address"}],"name":"NFTDeposited","type":"event"},{"anonymous":false,"inputs":[{"indexed":false,"internalType":"address","name":"token","type":"address"},{"indexed":false,"internalType":"uint256","name":"amount","type":"uint256"},{"indexed":true,"internalType":"address","name":"depositor","type":"address"}],"name":"TokenDeposited","type":"event"},{"anonymous":false,"inputs":[{"indexed":false,"internalType":"address","name":"token","type":"address"},{"indexed":false,"internalType":"uint256","name":"amount","type":"uint256"}],"name":"TokenWithdrawn","type":"event"},{"anonymous":false,"inputs":[{"indexed":false,"internalType":"uint256","name":"txIndex","type":"uint256"},{"indexed":false,"internalType":"address","name":"confirmer","type":"address"}],"name":"TransactionConfirmed","type":"event"},{"anonymous":false,"inputs":[{"indexed":false,"internalType":"uint256","name":"txIndex","type":"uint256"},{"indexed":false,"internalType":"address","name":"to","type":"address"},{"indexed":false,"internalType":"bytes","name":"data","type":"bytes"}],"name":"TransactionExecuted","type":"event"},{"anonymous":false,"inputs":[{"indexed":false,"internalType":"uint256","name":"txIndex","type":"uint256"},{"indexed":false,"internalType":"address","name":"to","type":"address"},{"indexed":false,"internalType":"bytes","name":"data","type":"bytes"},{"indexed":false,"internalType":"uint256","name":"amount","type":"uint256"}],"name":"TransactionQueued","type":"event"},{"inputs":[{"internalType":"uint256","name":"","type":"uint256"}],"name":"assets","outputs":[{"internalType":"address","name":"","type":"address"}],"stateMutability":"view","type":"function"},{"inputs":[{"internalType":"uint256","name":"txIndex","type":"uint256"}],"name":"cancelTransaction","outputs":[],"stateMutability":"nonpayable","type":"function"},{"inputs":[{"internalType":"uint256","name":"txIndex","type":"uint256"}],"name":"confirmTransaction","outputs":[],"stateMutability":"nonpayable","type":"function"},{"inputs":[{"internalType":"uint256","name":"","type":"uint256"},{"internalType":"address","name":"","type":"address"}],"name":"confirmed","outputs":[{"internalType":"bool","name":"","type":"bool"}],"stateMutability":"view","type":"function"},{"inputs":[],"name":"dailyLimit","outputs":[{"internalType":"uint256","name":"","type":"uint256"}],"stateMutability":"view","type":"function"},{"inputs":[{"internalType":"address","name":"","type":"address"}],"name":"dailyWithdrawnAmount","outputs":[{"internalType":"uint256","name":"","type":"uint256"}],"stateMutability":"view","type":"function"},{"inputs":[],"name":"delay","outputs":[{"internalType":"uint256","name":"","type":"uint256"}],"stateMutability":"view","type":"function"},{"inputs":[{"internalType":"address","name":"nft","type":"address"},{"internalType":"uint256","name":"tokenId","type":"uint256"}],"name":"depositNFT","outputs":[],"stateMutability":"nonpayable","type":"function"},{"inputs":[{"internalType":"address","name":"token","type":"address"},{"internalType":"uint256","name":"amount","type":"uint256"}],"name":"depositToken","outputs":[],"stateMutability":"payable","type":"function"},{"inputs":[],"name":"freeze","outputs":[{"internalType":"uint256","name":"","type":"uint256"}],"stateMutability":"view","type":"function"},{"inputs":[{"internalType":"uint256","name":"freezeL","type":"uint256"}],"name":"freezeLock","outputs":[],"stateMutability":"nonpayable","type":"function"},{"inputs":[{"internalType":"address","name":"to","type":"address"},{"internalType":"address","name":"token","type":"address"},{"internalType":"uint256","name":"amount","type":"uint256"}],"name":"getLimit","outputs":[{"internalType":"uint256","name":"","type":"uint256"}],"stateMutability":"view","type":"function"},{"inputs":[{"internalType":"address","name":"token","type":"address"}],"name":"getLimitAmount","outputs":[{"internalType":"uint256","name":"","type":"uint256"}],"stateMutability":"view","type":"function"},{"inputs":[{"internalType":"address","name":"_owner","type":"address"},{"internalType":"string","name":"_name","type":"string"},{"internalType":"address","name":"_recoveryAddress","type":"address"},{"internalType":"address[]","name":"_whitelistedAddresses","type":"address[]"},{"internalType":"uint256","name":"_dailyLimit","type":"uint256"},{"internalType":"uint256","name":"_threshold","type":"uint256"},{"internalType":"uint256","name":"_delay","type":"uint256"}],"name":"init","outputs":[],"stateMutability":"nonpayable","type":"function"},{"inputs":[{"internalType":"address","name":"","type":"address"}],"name":"isWhitelisted","outputs":[{"internalType":"bool","name":"","type":"bool"}],"stateMutability":"view","type":"function"},{"inputs":[{"internalType":"address","name":"","type":"address"}],"name":"lastWithdrawTimestamp","outputs":[{"internalType":"uint256","name":"","type":"uint256"}],"stateMutability":"view","type":"function"},{"inputs":[],"name":"name","outputs":[{"internalType":"string","name":"","type":"string"}],"stateMutability":"view","type":"function"},{"inputs":[{"internalType":"address","name":"_operator","type":"address"},{"internalType":"address","name":"_from","type":"address"},{"internalType":"uint256","name":"_tokenId","type":"uint256"},{"internalType":"bytes","name":"_data","type":"bytes"}],"name":"onERC721Received","outputs":[{"internalType":"bytes4","name":"","type":"bytes4"}],"stateMutability":"nonpayable","type":"function"},{"inputs":[],"name":"owner","outputs":[{"internalType":"address","name":"","type":"address"}],"stateMutability":"view","type":"function"},{"inputs":[{"internalType":"address","name":"to","type":"address"},{"internalType":"bytes","name":"data","type":"bytes"},{"internalType":"uint256","name":"amount","type":"uint256"}],"name":"queueTransaction","outputs":[],"stateMutability":"nonpayable","type":"function"},{"inputs":[{"internalType":"uint256","name":"","type":"uint256"}],"name":"queuedTransactions","outputs":[{"internalType":"address","name":"to","type":"address"},{"internalType":"bytes","name":"data","type":"bytes"},{"internalType":"uint256","name":"timestamp","type":"uint256"},{"internalType":"bool","name":"executed","type":"bool"},{"internalType":"uint256","name":"confirmations","type":"uint256"},{"internalType":"uint256","name":"amount","type":"uint256"}],"stateMutability":"view","type":"function"},{"inputs":[],"name":"queuedTxs","outputs":[{"internalType":"uint256","name":"","type":"uint256"}],"stateMutability":"view","type":"function"},{"inputs":[{"internalType":"address","name":"token","type":"address"},{"internalType":"address","name":"to","type":"address"},{"internalType":"uint256","name":"amount","type":"uint256"},{"internalType":"bytes","name":"data","type":"bytes"},{"internalType":"uint256","name":"freezeL","type":"uint256"}],"name":"recover","outputs":[],"stateMutability":"nonpayable","type":"function"},{"inputs":[],"name":"recoveryAddress","outputs":[{"internalType":"address","name":"","type":"address"}],"stateMutability":"view","type":"function"},{"inputs":[{"internalType":"address","name":"token","type":"address"},{"internalType":"uint256","name":"fixedLimit","type":"uint256"},{"internalType":"uint256","name":"percentageLimit","type":"uint256"},{"internalType":"uint256","name":"useBaseLimit","type":"uint256"}],"name":"setTokenLimit","outputs":[],"stateMutability":"nonpayable","type":"function"},{"inputs":[],"name":"threshold","outputs":[{"internalType":"uint256","name":"","type":"uint256"}],"stateMutability":"view","type":"function"},{"inputs":[{"internalType":"address","name":"","type":"address"}],"name":"tokenLimits","outputs":[{"internalType":"uint256","name":"fixedLimit","type":"uint256"},{"internalType":"uint256","name":"percentageLimit","type":"uint256"},{"internalType":"uint256","name":"useBaseLimit","type":"uint256"}],"stateMutability":"view","type":"function"},{"inputs":[{"internalType":"uint256","name":"newDailyLimit","type":"uint256"}],"name":"updateDailyLimit","outputs":[],"stateMutability":"nonpayable","type":"function"},{"inputs":[{"internalType":"uint256","name":"newDelay","type":"uint256"}],"name":"updateDelay","outputs":[],"stateMutability":"nonpayable","type":"function"},{"inputs":[{"internalType":"address","name":"newRecoveryAddress","type":"address"}],"name":"updateRecoveryAddress","outputs":[],"stateMutability":"nonpayable","type":"function"},{"inputs":[{"internalType":"address","name":"newRecoveryAddress","type":"address"},{"internalType":"address[]","name":"newWhitelistedAddresses","type":"address[]"},{"internalType":"uint256","name":"newDailyLimit","type":"uint256"},{"internalType":"uint256","name":"newThreshold","type":"uint256"},{"internalType":"uint256","name":"newDelay","type":"uint256"},{"internalType":"address[]","name":"tokens","type":"address[]"},{"internalType":"uint256[]","name":"fixedLimits","type":"uint256[]"},{"internalType":"uint256[]","name":"percentageLimits","type":"uint256[]"},{"internalType":"uint256[]","name":"useBaseLimits","type":"uint256[]"}],"name":"updateSettings","outputs":[],"stateMutability":"nonpayable","type":"function"},{"inputs":[{"internalType":"uint256","name":"newThreshold","type":"uint256"}],"name":"updateThreshold","outputs":[],"stateMutability":"nonpayable","type":"function"},{"inputs":[{"internalType":"address[]","name":"newWhitelistedAddresses","type":"address[]"}],"name":"updateWhitelistAddresses","outputs":[],"stateMutability":"nonpayable","type":"function"},{"inputs":[],"name":"version","outputs":[{"internalType":"uint256","name":"","type":"uint256"}],"stateMutability":"view","type":"function"},{"inputs":[{"internalType":"uint256","name":"","type":"uint256"}],"name":"whitelistedAddresses","outputs":[{"internalType":"address","name":"","type":"address"}],"stateMutability":"view","type":"function"},{"inputs":[{"internalType":"address","name":"to","type":"address"},{"internalType":"address","name":"token","type":"address"},{"internalType":"uint256","name":"amount","type":"uint256"}],"name":"withdrawToken","outputs":[],"stateMutability":"nonpayable","type":"function"},{"stateMutability":"payable","type":"receive"}],"evm":{"bytecode":{"linkReferences":{},"object":"608060405234801561001057600080fd5b5061569180620000216000396000f3fe6080604052600436106102135760003560e01c80636ae5624011610118578063ba4e5c49116100a0578063d63da95c1161006f578063d63da95c146107d6578063d7d7442f146107ff578063da1eac0d14610828578063f11ce42914610865578063f8175d78146108a25761021a565b8063ba4e5c49146106f1578063c01a8c841461072e578063cf35bdd014610757578063d176e93a146107945761021a565b80638790c1de116100e75780638790c1de146105fa5780638c3dc5c1146106375780638c8bfd0e146106605780638da5cb5b1461069d5780639b5b9b18146106c85761021a565b80636ae5624014610540578063710eb26c1461056957806375ca1a011461059457806380a4b461146105d15761021a565b8063417a06981161019b5780635d12069a1161016a5780635d12069a1461046d57806362a5af3b1461049657806364d62353146104c157806367eeba0c146104ea5780636a42b8f8146105155761021a565b8063417a0698146103af57806342cde4e8146103ee57806354fd4d50146104195780635664a47a146104445761021a565b806327492ccf116101e257806327492ccf146102d95780632780fb1d146103025780633380c0d81461032d578063338b5dea146103565780633af32abf146103725761021a565b806301e336671461021f57806306fdde0314610248578063150b7a02146102735780631ae138a5146102b05761021a565b3661021a57005b600080fd5b34801561022b57600080fd5b50610246600480360381019061024191906138fd565b6108cb565b005b34801561025457600080fd5b5061025d610d01565b60405161026a91906139e0565b60405180910390f35b34801561027f57600080fd5b5061029a60048036038101906102959190613b37565b610d8f565b6040516102a79190613bf5565b60405180910390f35b3480156102bc57600080fd5b506102d760048036038101906102d29190613c10565b610da3565b005b3480156102e557600080fd5b5061030060048036038101906102fb9190613e02565b610ed6565b005b34801561030e57600080fd5b50610317611373565b6040516103249190613f67565b60405180910390f35b34801561033957600080fd5b50610354600480360381019061034f9190613f82565b611379565b005b610370600480360381019061036b9190613faf565b61154a565b005b34801561037e57600080fd5b5061039960048036038101906103949190613fef565b6116d9565b6040516103a69190614037565b60405180910390f35b3480156103bb57600080fd5b506103d660048036038101906103d19190613fef565b6116f9565b6040516103e593929190614052565b60405180910390f35b3480156103fa57600080fd5b50610403611723565b6040516104109190613f67565b60405180910390f35b34801561042557600080fd5b5061042e611729565b60405161043b9190613f67565b60405180910390f35b34801561045057600080fd5b5061046b60048036038101906104669190613f82565b61172f565b005b34801561047957600080fd5b50610494600480360381019061048f9190614089565b611944565b005b3480156104a257600080fd5b506104ab611b0c565b6040516104b89190613f67565b60405180910390f35b3480156104cd57600080fd5b506104e860048036038101906104e39190613f82565b611b12565b005b3480156104f657600080fd5b506104ff611b8a565b60405161050c9190613f67565b60405180910390f35b34801561052157600080fd5b5061052a611b90565b6040516105379190613f67565b60405180910390f35b34801561054c57600080fd5b50610567600480360381019061056291906140d2565b611b96565b005b34801561057557600080fd5b5061057e611f12565b60405161058b9190614178565b60405180910390f35b3480156105a057600080fd5b506105bb60048036038101906105b69190613fef565b611f38565b6040516105c89190613f67565b60405180910390f35b3480156105dd57600080fd5b506105f860048036038101906105f39190613fef565b611f50565b005b34801561060657600080fd5b50610621600480360381019061061c9190614193565b612002565b60405161062e9190614037565b60405180910390f35b34801561064357600080fd5b5061065e600480360381019061065991906141d3565b612031565b005b34801561066c57600080fd5b5061068760048036038101906106829190613fef565b61221a565b6040516106949190613f67565b60405180910390f35b3480156106a957600080fd5b506106b2612232565b6040516106bf9190614178565b60405180910390f35b3480156106d457600080fd5b506106ef60048036038101906106ea9190613faf565b612256565b005b3480156106fd57600080fd5b5061071860048036038101906107139190613f82565b612319565b6040516107259190614178565b60405180910390f35b34801561073a57600080fd5b5061075560048036038101906107509190613f82565b612358565b005b34801561076357600080fd5b5061077e60048036038101906107799190613f82565b6127fb565b60405161078b9190614178565b60405180910390f35b3480156107a057600080fd5b506107bb60048036038101906107b69190613f82565b61283a565b6040516107cd96959493929190614297565b60405180910390f35b3480156107e257600080fd5b506107fd60048036038101906107f891906143a0565b61293b565b005b34801561080b57600080fd5b5061082660048036038101906108219190613f82565b612b24565b005b34801561083457600080fd5b5061084f600480360381019061084a9190613fef565b612b9c565b60405161085c9190613f67565b60405180910390f35b34801561087157600080fd5b5061088c600480360381019061088791906138fd565b612d44565b6040516108999190613f67565b60405180910390f35b3480156108ae57600080fd5b506108c960048036038101906108c49190613f82565b613015565b005b60008054906101000a900473ffffffffffffffffffffffffffffffffffffffff1673ffffffffffffffffffffffffffffffffffffffff163373ffffffffffffffffffffffffffffffffffffffff1614610959576040517f08c379a0000000000000000000000000000000000000000000000000000000008152600401610950906144c6565b60405180910390fd5b60008073ffffffffffffffffffffffffffffffffffffffff168373ffffffffffffffffffffffffffffffffffffffff1614610a0d578273ffffffffffffffffffffffffffffffffffffffff166370a08231306040518263ffffffff1660e01b81526004016109c79190614178565b602060405180830381865afa1580156109e4573d6000803e3d6000fd5b505050506040513d601f19601f82011682018060405250810190610a0891906144fb565b610a0f565b475b905081811015610a54576040517f08c379a0000000000000000000000000000000000000000000000000000000008152600401610a4b90614574565b60405180910390fd5b6000600e5414610a99576040517f08c379a0000000000000000000000000000000000000000000000000000000008152600401610a90906145e0565b60405180910390fd5b6000610aa484612b9c565b90506000600a60008673ffffffffffffffffffffffffffffffffffffffff1673ffffffffffffffffffffffffffffffffffffffff1681526020019081526020016000205442610af3919061462f565b9050620151808110610b45576000600960008773ffffffffffffffffffffffffffffffffffffffff1673ffffffffffffffffffffffffffffffffffffffff168152602001908152602001600020819055505b6000600960008773ffffffffffffffffffffffffffffffffffffffff1673ffffffffffffffffffffffffffffffffffffffff16815260200190815260200160002054620151808484610b979190614663565b610ba191906146d4565b84610bac9190614705565b11610bb8576000610c28565b600960008773ffffffffffffffffffffffffffffffffffffffff1673ffffffffffffffffffffffffffffffffffffffff16815260200190815260200160002054620151808484610c089190614663565b610c1291906146d4565b84610c1d9190614705565b610c27919061462f565b5b905082811115610c36578290505b80851115610c4e57610c4986888761308d565b610cf8565b848184610c5b919061462f565b610c659190614705565b600960008873ffffffffffffffffffffffffffffffffffffffff1673ffffffffffffffffffffffffffffffffffffffff1681526020019081526020016000208190555042600a60008873ffffffffffffffffffffffffffffffffffffffff1673ffffffffffffffffffffffffffffffffffffffff16815260200190815260200160002081905550610cf787878761318a565b5b50505050505050565b60018054610d0e90614768565b80601f0160208091040260200160405190810160405280929190818152602001828054610d3a90614768565b8015610d875780601f10610d5c57610100808354040283529160200191610d87565b820191906000526020600020905b815481529060010190602001808311610d6a57829003601f168201915b505050505081565b600063150b7a0260e01b9050949350505050565b3073ffffffffffffffffffffffffffffffffffffffff163373ffffffffffffffffffffffffffffffffffffffff1614610e11576040517f08c379a0000000000000000000000000000000000000000000000000000000008152600401610e089061480b565b60405180910390fd5b6002811115610e55576040517f08c379a0000000000000000000000000000000000000000000000000000000008152600401610e4c90614877565b60405180910390fd5b604051806060016040528084815260200183815260200182815250600b60008673ffffffffffffffffffffffffffffffffffffffff1673ffffffffffffffffffffffffffffffffffffffff16815260200190815260200160002060008201518160000155602082015181600101556040820151816002015590505050505050565b3073ffffffffffffffffffffffffffffffffffffffff163373ffffffffffffffffffffffffffffffffffffffff161480610f5d5750600260009054906101000a900473ffffffffffffffffffffffffffffffffffffffff1673ffffffffffffffffffffffffffffffffffffffff163373ffffffffffffffffffffffffffffffffffffffff16145b610f9c576040517f08c379a0000000000000000000000000000000000000000000000000000000008152600401610f93906148e3565b60405180910390fd5b600073ffffffffffffffffffffffffffffffffffffffff168973ffffffffffffffffffffffffffffffffffffffff16146110125788600260006101000a81548173ffffffffffffffffffffffffffffffffffffffff021916908373ffffffffffffffffffffffffffffffffffffffff1602179055505b6000885111156111745760005b6003805490508110156110cf576000600860006003848154811061104657611045614903565b5b9060005260206000200160009054906101000a900473ffffffffffffffffffffffffffffffffffffffff1673ffffffffffffffffffffffffffffffffffffffff1673ffffffffffffffffffffffffffffffffffffffff16815260200190815260200160002060006101000a81548160ff021916908315150217905550808060010191505061101f565b5060005b885181101561115b576001600860008b84815181106110f5576110f4614903565b5b602002602001015173ffffffffffffffffffffffffffffffffffffffff1673ffffffffffffffffffffffffffffffffffffffff16815260200190815260200160002060006101000a81548160ff02191690831515021790555080806001019150506110d3565b5087600390805190602001906111729291906137ae565b505b6000871461118457866004819055505b6000861461119457856005819055505b600085146111a457846006819055505b60008451111561136857825184511480156111c0575081518451145b80156111cd575080518451145b61120c576040517f08c379a00000000000000000000000000000000000000000000000000000000081526004016112039061497e565b60405180910390fd5b60005b845181101561136657600282828151811061122d5761122c614903565b5b60200260200101511115611276576040517f08c379a000000000000000000000000000000000000000000000000000000000815260040161126d90614877565b60405180910390fd5b604051806060016040528085838151811061129457611293614903565b5b602002602001015181526020018483815181106112b4576112b3614903565b5b602002602001015181526020018383815181106112d4576112d3614903565b5b6020026020010151815250600b60008784815181106112f6576112f5614903565b5b602002602001015173ffffffffffffffffffffffffffffffffffffffff1673ffffffffffffffffffffffffffffffffffffffff168152602001908152602001600020600082015181600001556020820151816001015560408201518160020155905050808060010191505061120f565b505b505050505050505050565b600d5481565b60008054906101000a900473ffffffffffffffffffffffffffffffffffffffff1673ffffffffffffffffffffffffffffffffffffffff163373ffffffffffffffffffffffffffffffffffffffff1614806114205750600260009054906101000a900473ffffffffffffffffffffffffffffffffffffffff1673ffffffffffffffffffffffffffffffffffffffff163373ffffffffffffffffffffffffffffffffffffffff16145b61145f576040517f08c379a0000000000000000000000000000000000000000000000000000000008152600401611456906148e3565b60405180910390fd5b6000600c828154811061147557611474614903565b5b9060005260206000209060060201905060008160020154036114cc576040517f08c379a00000000000000000000000000000000000000000000000000000000081526004016114c3906149ea565b60405180910390fd5b8060030160009054906101000a900460ff161561151e576040517f08c379a000000000000000000000000000000000000000000000000000000000815260040161151590614a56565b60405180910390fd5b60018160030160006101000a81548160ff02191690831515021790555061019481600401819055505050565b600073ffffffffffffffffffffffffffffffffffffffff168273ffffffffffffffffffffffffffffffffffffffff16036115c5578034146115c0576040517f08c379a00000000000000000000000000000000000000000000000000000000081526004016115b790614ac2565b60405180910390fd5b611685565b8173ffffffffffffffffffffffffffffffffffffffff166323b872dd3330846040518463ffffffff1660e01b815260040161160293929190614ae2565b6020604051808303816000875af1158015611621573d6000803e3d6000fd5b505050506040513d601f19601f820116820180604052508101906116459190614b45565b611684576040517f08c379a000000000000000000000000000000000000000000000000000000000815260040161167b90614bbe565b60405180910390fd5b5b3373ffffffffffffffffffffffffffffffffffffffff167fd47f8695679b1495d2b6e58da0fcdfb015b967fbb928aa9aefe25206bd0ba60583836040516116cd929190614bde565b60405180910390a25050565b60086020528060005260406000206000915054906101000a900460ff1681565b600b6020528060005260406000206000915090508060000154908060010154908060020154905083565b60055481565b600f5481565b3073ffffffffffffffffffffffffffffffffffffffff163373ffffffffffffffffffffffffffffffffffffffff1614806117b4575060008054906101000a900473ffffffffffffffffffffffffffffffffffffffff1673ffffffffffffffffffffffffffffffffffffffff163373ffffffffffffffffffffffffffffffffffffffff16145b8061180c5750600260009054906101000a900473ffffffffffffffffffffffffffffffffffffffff1673ffffffffffffffffffffffffffffffffffffffff163373ffffffffffffffffffffffffffffffffffffffff16145b806118605750600860003373ffffffffffffffffffffffffffffffffffffffff1673ffffffffffffffffffffffffffffffffffffffff16815260200190815260200160002060009054906101000a900460ff165b61189f576040517f08c379a000000000000000000000000000000000000000000000000000000000815260040161189690614c9f565b60405180910390fd5b600260009054906101000a900473ffffffffffffffffffffffffffffffffffffffff1673ffffffffffffffffffffffffffffffffffffffff163373ffffffffffffffffffffffffffffffffffffffff161461193a57600e54811015611939576040517f08c379a000000000000000000000000000000000000000000000000000000000815260040161193090614d0b565b60405180910390fd5b5b80600e8190555050565b3073ffffffffffffffffffffffffffffffffffffffff163373ffffffffffffffffffffffffffffffffffffffff16146119b2576040517f08c379a00000000000000000000000000000000000000000000000000000000081526004016119a99061480b565b60405180910390fd5b60005b600380549050811015611a6557600060086000600384815481106119dc576119db614903565b5b9060005260206000200160009054906101000a900473ffffffffffffffffffffffffffffffffffffffff1673ffffffffffffffffffffffffffffffffffffffff1673ffffffffffffffffffffffffffffffffffffffff16815260200190815260200160002060006101000a81548160ff02191690831515021790555080806001019150506119b5565b5060005b8151811015611af157600160086000848481518110611a8b57611a8a614903565b5b602002602001015173ffffffffffffffffffffffffffffffffffffffff1673ffffffffffffffffffffffffffffffffffffffff16815260200190815260200160002060006101000a81548160ff0219169083151502179055508080600101915050611a69565b508060039080519060200190611b089291906137ae565b5050565b600e5481565b3073ffffffffffffffffffffffffffffffffffffffff163373ffffffffffffffffffffffffffffffffffffffff1614611b80576040517f08c379a0000000000000000000000000000000000000000000000000000000008152600401611b779061480b565b60405180910390fd5b8060068190555050565b60045481565b60065481565b600260009054906101000a900473ffffffffffffffffffffffffffffffffffffffff1673ffffffffffffffffffffffffffffffffffffffff163373ffffffffffffffffffffffffffffffffffffffff1614611c26576040517f08c379a0000000000000000000000000000000000000000000000000000000008152600401611c1d90614d77565b60405180910390fd5b600073ffffffffffffffffffffffffffffffffffffffff168573ffffffffffffffffffffffffffffffffffffffff1603611d515782471015611c9d576040517f08c379a0000000000000000000000000000000000000000000000000000000008152600401611c9490614574565b60405180910390fd5b60008473ffffffffffffffffffffffffffffffffffffffff168484604051611cc59190614dd3565b60006040518083038185875af1925050503d8060008114611d02576040519150601f19603f3d011682016040523d82523d6000602084013e611d07565b606091505b5050905080611d4b576040517f08c379a0000000000000000000000000000000000000000000000000000000008152600401611d4290614bbe565b60405180910390fd5b50611ecb565b828573ffffffffffffffffffffffffffffffffffffffff166370a08231306040518263ffffffff1660e01b8152600401611d8b9190614178565b602060405180830381865afa158015611da8573d6000803e3d6000fd5b505050506040513d601f19601f82011682018060405250810190611dcc91906144fb565b1015611e0d576040517f08c379a0000000000000000000000000000000000000000000000000000000008152600401611e0490614574565b60405180910390fd5b8473ffffffffffffffffffffffffffffffffffffffff1663a9059cbb85856040518363ffffffff1660e01b8152600401611e48929190614bde565b6020604051808303816000875af1158015611e67573d6000803e3d6000fd5b505050506040513d601f19601f82011682018060405250810190611e8b9190614b45565b611eca576040517f08c379a0000000000000000000000000000000000000000000000000000000008152600401611ec190614bbe565b60405180910390fd5b5b7fa2bd9fcfcdba69f52bcd9a520846ad4bd685b187483f53efc42d035b2ddebff08584604051611efc929190614bde565b60405180910390a180600e819055505050505050565b600260009054906101000a900473ffffffffffffffffffffffffffffffffffffffff1681565b600a6020528060005260406000206000915090505481565b3073ffffffffffffffffffffffffffffffffffffffff163373ffffffffffffffffffffffffffffffffffffffff1614611fbe576040517f08c379a0000000000000000000000000000000000000000000000000000000008152600401611fb59061480b565b60405180910390fd5b80600260006101000a81548173ffffffffffffffffffffffffffffffffffffffff021916908373ffffffffffffffffffffffffffffffffffffffff16021790555050565b60106020528160005260406000206020528060005260406000206000915091509054906101000a900460ff1681565b60008054906101000a900473ffffffffffffffffffffffffffffffffffffffff1673ffffffffffffffffffffffffffffffffffffffff163373ffffffffffffffffffffffffffffffffffffffff16146120bf576040517f08c379a00000000000000000000000000000000000000000000000000000000081526004016120b6906144c6565b60405180910390fd5b6000600e5414612104576040517f08c379a00000000000000000000000000000000000000000000000000000000081526004016120fb906145e0565b60405180910390fd5b6000600c6001816001815401808255809150500390600052602060002090600602019050838160000160006101000a81548173ffffffffffffffffffffffffffffffffffffffff021916908373ffffffffffffffffffffffffffffffffffffffff1602179055508281600101908161217c9190614f96565b5042816002018190555060008160030160006101000a81548160ff0219169083151502179055508181600501819055506001600d60008282546121bf9190614705565b925050819055507fc243f4be367411622fb5772863ed10b8a7d6941c97f4ef7ab6885e4cf7b5cd326001600c805490506121f9919061462f565b85858560405161220c9493929190615068565b60405180910390a150505050565b60096020528060005260406000206000915090505481565b60008054906101000a900473ffffffffffffffffffffffffffffffffffffffff1681565b8173ffffffffffffffffffffffffffffffffffffffff166342842e0e3330846040518463ffffffff1660e01b815260040161229393929190614ae2565b600060405180830381600087803b1580156122ad57600080fd5b505af11580156122c1573d6000803e3d6000fd5b505050503373ffffffffffffffffffffffffffffffffffffffff167f895deabb3b0da77cb5d42b057ff02ae7f731aa7ec9279822571010fdde66e1a3838360405161230d929190614bde565b60405180910390a25050565b6003818154811061232957600080fd5b906000526020600020016000915054906101000a900473ffffffffffffffffffffffffffffffffffffffff1681565b60008054906101000a900473ffffffffffffffffffffffffffffffffffffffff1673ffffffffffffffffffffffffffffffffffffffff163373ffffffffffffffffffffffffffffffffffffffff1614806123fb5750600860003373ffffffffffffffffffffffffffffffffffffffff1673ffffffffffffffffffffffffffffffffffffffff16815260200190815260200160002060009054906101000a900460ff165b61243a576040517f08c379a0000000000000000000000000000000000000000000000000000000008152600401612431906148e3565b60405180910390fd5b6001600e541115612480576040517f08c379a0000000000000000000000000000000000000000000000000000000008152600401612477906145e0565b60405180910390fd5b6000600c828154811061249657612495614903565b5b9060005260206000209060060201905060008160020154036124ed576040517f08c379a00000000000000000000000000000000000000000000000000000000081526004016124e4906149ea565b60405180910390fd5b8060030160009054906101000a900460ff161561253f576040517f08c379a000000000000000000000000000000000000000000000000000000000815260040161253690614a56565b60405180910390fd5b600860003373ffffffffffffffffffffffffffffffffffffffff1673ffffffffffffffffffffffffffffffffffffffff16815260200190815260200160002060009054906101000a900460ff168015612601575060008054906101000a900473ffffffffffffffffffffffffffffffffffffffff1673ffffffffffffffffffffffffffffffffffffffff163373ffffffffffffffffffffffffffffffffffffffff161480156125ff57504260065482600201546125fc9190614705565b11155b155b1561272a576010600083815260200190815260200160002060003373ffffffffffffffffffffffffffffffffffffffff1673ffffffffffffffffffffffffffffffffffffffff16815260200190815260200160002060009054906101000a900460ff16156126a4576040517f08c379a000000000000000000000000000000000000000000000000000000000815260040161269b90615126565b60405180910390fd5b60018160040160008282546126b99190614705565b9250508190555060016010600084815260200190815260200160002060003373ffffffffffffffffffffffffffffffffffffffff1673ffffffffffffffffffffffffffffffffffffffff16815260200190815260200160002060006101000a81548160ff0219169083151502179055505b60008054906101000a900473ffffffffffffffffffffffffffffffffffffffff1673ffffffffffffffffffffffffffffffffffffffff163373ffffffffffffffffffffffffffffffffffffffff1614801561279657504260065482600201546127939190614705565b11155b156127a75760055481600401819055505b7f15c2f311c9e0f53b50388279894aeff029a3457884a6601e924fca879e12adcc82336040516127d8929190615146565b60405180910390a16005548160040154106127f7576127f682613590565b5b5050565b6007818154811061280b57600080fd5b906000526020600020016000915054906101000a900473ffffffffffffffffffffffffffffffffffffffff1681565b600c818154811061284a57600080fd5b90600052602060002090600602016000915090508060000160009054906101000a900473ffffffffffffffffffffffffffffffffffffffff169080600101805461289390614768565b80601f01602080910402602001604051908101604052809291908181526020018280546128bf90614768565b801561290c5780601f106128e15761010080835404028352916020019161290c565b820191906000526020600020905b8154815290600101906020018083116128ef57829003601f168201915b5050505050908060020154908060030160009054906101000a900460ff16908060040154908060050154905086565b600073ffffffffffffffffffffffffffffffffffffffff1660008054906101000a900473ffffffffffffffffffffffffffffffffffffffff1673ffffffffffffffffffffffffffffffffffffffff16146129ca576040517f08c379a00000000000000000000000000000000000000000000000000000000081526004016129c1906151bb565b60405180910390fd5b866000806101000a81548173ffffffffffffffffffffffffffffffffffffffff021916908373ffffffffffffffffffffffffffffffffffffffff1602179055508560019081612a199190615236565b5084600260006101000a81548173ffffffffffffffffffffffffffffffffffffffff021916908373ffffffffffffffffffffffffffffffffffffffff1602179055508260048190555081600581905550806006819055506001600f8190555060005b8451811015612b0357600160086000878481518110612a9d57612a9c614903565b5b602002602001015173ffffffffffffffffffffffffffffffffffffffff1673ffffffffffffffffffffffffffffffffffffffff16815260200190815260200160002060006101000a81548160ff0219169083151502179055508080600101915050612a7b565b508360039080519060200190612b1a9291906137ae565b5050505050505050565b3073ffffffffffffffffffffffffffffffffffffffff163373ffffffffffffffffffffffffffffffffffffffff1614612b92576040517f08c379a0000000000000000000000000000000000000000000000000000000008152600401612b899061480b565b60405180910390fd5b8060058190555050565b600080600073ffffffffffffffffffffffffffffffffffffffff168373ffffffffffffffffffffffffffffffffffffffff1614612c52578273ffffffffffffffffffffffffffffffffffffffff166370a08231306040518263ffffffff1660e01b8152600401612c0c9190614178565b602060405180830381865afa158015612c29573d6000803e3d6000fd5b505050506040513d601f19601f82011682018060405250810190612c4d91906144fb565b612c54565b475b90506000600b60008573ffffffffffffffffffffffffffffffffffffffff1673ffffffffffffffffffffffffffffffffffffffff1681526020019081526020016000209050600081600001541115612cb457806000015492505050612d3f565b600081600101541115612ce6576064816001015483612cd39190614663565b612cdd91906146d4565b92505050612d3f565b6001816002015403612cfd57600092505050612d3f565b6002816002015403612d20576c0c9f2c9cd04674edea4000000092505050612d3f565b606460045483612d309190614663565b612d3a91906146d4565b925050505b919050565b600080600073ffffffffffffffffffffffffffffffffffffffff168473ffffffffffffffffffffffffffffffffffffffff1614612dfa578373ffffffffffffffffffffffffffffffffffffffff166370a08231306040518263ffffffff1660e01b8152600401612db49190614178565b602060405180830381865afa158015612dd1573d6000803e3d6000fd5b505050506040513d601f19601f82011682018060405250810190612df591906144fb565b612dfc565b475b905082811015612e41576040517f08c379a0000000000000000000000000000000000000000000000000000000008152600401612e3890614574565b60405180910390fd5b6000612e4c85612b9c565b90506000600a60008773ffffffffffffffffffffffffffffffffffffffff1673ffffffffffffffffffffffffffffffffffffffff1681526020019081526020016000205442612e9b919061462f565b90506000600960008873ffffffffffffffffffffffffffffffffffffffff1673ffffffffffffffffffffffffffffffffffffffff168152602001908152602001600020549050620151808210612ef057600090505b6000600960008973ffffffffffffffffffffffffffffffffffffffff1673ffffffffffffffffffffffffffffffffffffffff16815260200190815260200160002054620151808585612f429190614663565b612f4c91906146d4565b85612f579190614705565b11612f63576000612fd3565b600960008973ffffffffffffffffffffffffffffffffffffffff1673ffffffffffffffffffffffffffffffffffffffff16815260200190815260200160002054620151808585612fb39190614663565b612fbd91906146d4565b85612fc89190614705565b612fd2919061462f565b5b905083811115612fe1578390505b8087116130045760008703612ff65780612ff8565b865b9550505050505061300e565b6000955050505050505b9392505050565b3073ffffffffffffffffffffffffffffffffffffffff163373ffffffffffffffffffffffffffffffffffffffff1614613083576040517f08c379a000000000000000000000000000000000000000000000000000000000815260040161307a9061480b565b60405180910390fd5b8060048190555050565b6060600073ffffffffffffffffffffffffffffffffffffffff168473ffffffffffffffffffffffffffffffffffffffff16036130e5576040518060200160405280600081525090506130e0838284612031565b613184565b82826040516024016130f8929190614bde565b6040516020818303038152906040527fa9059cbb000000000000000000000000000000000000000000000000000000007bffffffffffffffffffffffffffffffffffffffffffffffffffffffff19166020820180517bffffffffffffffffffffffffffffffffffffffffffffffffffffffff8381831617835250505050905061318384826000612031565b5b50505050565b600073ffffffffffffffffffffffffffffffffffffffff168273ffffffffffffffffffffffffffffffffffffffff16036132705760008373ffffffffffffffffffffffffffffffffffffffff16826040516131e49061532e565b60006040518083038185875af1925050503d8060008114613221576040519150601f19603f3d011682016040523d82523d6000602084013e613226565b606091505b505090508061326a576040517f08c379a000000000000000000000000000000000000000000000000000000000815260040161326190614bbe565b60405180910390fd5b5061332e565b8173ffffffffffffffffffffffffffffffffffffffff1663a9059cbb84836040518363ffffffff1660e01b81526004016132ab929190614bde565b6020604051808303816000875af11580156132ca573d6000803e3d6000fd5b505050506040513d601f19601f820116820180604052508101906132ee9190614b45565b61332d576040517f08c379a000000000000000000000000000000000000000000000000000000000815260040161332490614bbe565b60405180910390fd5b5b7fa2bd9fcfcdba69f52bcd9a520846ad4bd685b187483f53efc42d035b2ddebff0828260405161335f929190614bde565b60405180910390a16000600c6001816001815401808255809150500390600052602060002090600602019050600073ffffffffffffffffffffffffffffffffffffffff168373ffffffffffffffffffffffffffffffffffffffff16036133c557836133c7565b825b8160000160006101000a81548173ffffffffffffffffffffffffffffffffffffffff021916908373ffffffffffffffffffffffffffffffffffffffff160217905550838260405160240161341c929190614bde565b6040516020818303038152906040527fa9059cbb000000000000000000000000000000000000000000000000000000007bffffffffffffffffffffffffffffffffffffffffffffffffffffffff19166020820180517bffffffffffffffffffffffffffffffffffffffffffffffffffffffff83818316178352505050508160010190816134a99190614f96565b5042816002018190555060018160030160006101000a81548160ff0219169083151502179055508181600501819055506001600d60008282546134ec9190614705565b925050819055507fc243f4be367411622fb5772863ed10b8a7d6941c97f4ef7ab6885e4cf7b5cd326001600c80549050613526919061462f565b856000604051613538939291906153a1565b60405180910390a17f518df7417ea3ad72d40e6f8bd20a6344a813b8b5e5cc0638f8cbd1487107c3396001600c80549050613573919061462f565b856040516135829291906153eb565b60405180910390a150505050565b6000600c82815481106135a6576135a5614903565b5b90600052602060002090600602019050600554816004015410156135ff576040517f08c379a00000000000000000000000000000000000000000000000000000000081526004016135f690615473565b60405180910390fd5b8060030160009054906101000a900460ff1615613651576040517f08c379a000000000000000000000000000000000000000000000000000000000815260040161364890614a56565b60405180910390fd5b60018160030160006101000a81548160ff02191690831515021790555060008160000160009054906101000a900473ffffffffffffffffffffffffffffffffffffffff1673ffffffffffffffffffffffffffffffffffffffff168260050154836001016040516136c19190615516565b60006040518083038185875af1925050503d80600081146136fe576040519150601f19603f3d011682016040523d82523d6000602084013e613703565b606091505b5050905080613747576040517f08c379a000000000000000000000000000000000000000000000000000000000815260040161373e90615579565b60405180910390fd5b7f518df7417ea3ad72d40e6f8bd20a6344a813b8b5e5cc0638f8cbd1487107c339838360000160009054906101000a900473ffffffffffffffffffffffffffffffffffffffff16846001016040516137a19392919061561d565b60405180910390a1505050565b828054828255906000526020600020908101928215613827579160200282015b828111156138265782518260006101000a81548173ffffffffffffffffffffffffffffffffffffffff021916908373ffffffffffffffffffffffffffffffffffffffff160217905550916020019190600101906137ce565b5b5090506138349190613838565b5090565b5b80821115613851576000816000905550600101613839565b5090565b6000604051905090565b600080fd5b600080fd5b600073ffffffffffffffffffffffffffffffffffffffff82169050919050565b600061389482613869565b9050919050565b6138a481613889565b81146138af57600080fd5b50565b6000813590506138c18161389b565b92915050565b6000819050919050565b6138da816138c7565b81146138e557600080fd5b50565b6000813590506138f7816138d1565b92915050565b6000806000606084860312156139165761391561385f565b5b6000613924868287016138b2565b9350506020613935868287016138b2565b9250506040613946868287016138e8565b9150509250925092565b600081519050919050565b600082825260208201905092915050565b60005b8381101561398a57808201518184015260208101905061396f565b60008484015250505050565b6000601f19601f8301169050919050565b60006139b282613950565b6139bc818561395b565b93506139cc81856020860161396c565b6139d581613996565b840191505092915050565b600060208201905081810360008301526139fa81846139a7565b905092915050565b600080fd5b600080fd5b7f4e487b7100000000000000000000000000000000000000000000000000000000600052604160045260246000fd5b613a4482613996565b810181811067ffffffffffffffff82111715613a6357613a62613a0c565b5b80604052505050565b6000613a76613855565b9050613a828282613a3b565b919050565b600067ffffffffffffffff821115613aa257613aa1613a0c565b5b613aab82613996565b9050602081019050919050565b82818337600083830152505050565b6000613ada613ad584613a87565b613a6c565b905082815260208101848484011115613af657613af5613a07565b5b613b01848285613ab8565b509392505050565b600082601f830112613b1e57613b1d613a02565b5b8135613b2e848260208601613ac7565b91505092915050565b60008060008060808587031215613b5157613b5061385f565b5b6000613b5f878288016138b2565b9450506020613b70878288016138b2565b9350506040613b81878288016138e8565b925050606085013567ffffffffffffffff811115613ba257613ba1613864565b5b613bae87828801613b09565b91505092959194509250565b60007fffffffff0000000000000000000000000000000000000000000000000000000082169050919050565b613bef81613bba565b82525050565b6000602082019050613c0a6000830184613be6565b92915050565b60008060008060808587031215613c2a57613c2961385f565b5b6000613c38878288016138b2565b9450506020613c49878288016138e8565b9350506040613c5a878288016138e8565b9250506060613c6b878288016138e8565b91505092959194509250565b600067ffffffffffffffff821115613c9257613c91613a0c565b5b602082029050602081019050919050565b600080fd5b6000613cbb613cb684613c77565b613a6c565b90508083825260208201905060208402830185811115613cde57613cdd613ca3565b5b835b81811015613d075780613cf388826138b2565b845260208401935050602081019050613ce0565b5050509392505050565b600082601f830112613d2657613d25613a02565b5b8135613d36848260208601613ca8565b91505092915050565b600067ffffffffffffffff821115613d5a57613d59613a0c565b5b602082029050602081019050919050565b6000613d7e613d7984613d3f565b613a6c565b90508083825260208201905060208402830185811115613da157613da0613ca3565b5b835b81811015613dca5780613db688826138e8565b845260208401935050602081019050613da3565b5050509392505050565b600082601f830112613de957613de8613a02565b5b8135613df9848260208601613d6b565b91505092915050565b60008060008060008060008060006101208a8c031215613e2557613e2461385f565b5b6000613e338c828d016138b2565b99505060208a013567ffffffffffffffff811115613e5457613e53613864565b5b613e608c828d01613d11565b9850506040613e718c828d016138e8565b9750506060613e828c828d016138e8565b9650506080613e938c828d016138e8565b95505060a08a013567ffffffffffffffff811115613eb457613eb3613864565b5b613ec08c828d01613d11565b94505060c08a013567ffffffffffffffff811115613ee157613ee0613864565b5b613eed8c828d01613dd4565b93505060e08a013567ffffffffffffffff811115613f0e57613f0d613864565b5b613f1a8c828d01613dd4565b9250506101008a013567ffffffffffffffff811115613f3c57613f3b613864565b5b613f488c828d01613dd4565b9150509295985092959850929598565b613f61816138c7565b82525050565b6000602082019050613f7c6000830184613f58565b92915050565b600060208284031215613f9857613f9761385f565b5b6000613fa6848285016138e8565b91505092915050565b60008060408385031215613fc657613fc561385f565b5b6000613fd4858286016138b2565b9250506020613fe5858286016138e8565b9150509250929050565b6000602082840312156140055761400461385f565b5b6000614013848285016138b2565b91505092915050565b60008115159050919050565b6140318161401c565b82525050565b600060208201905061404c6000830184614028565b92915050565b60006060820190506140676000830186613f58565b6140746020830185613f58565b6140816040830184613f58565b949350505050565b60006020828403121561409f5761409e61385f565b5b600082013567ffffffffffffffff8111156140bd576140bc613864565b5b6140c984828501613d11565b91505092915050565b600080600080600060a086880312156140ee576140ed61385f565b5b60006140fc888289016138b2565b955050602061410d888289016138b2565b945050604061411e888289016138e8565b935050606086013567ffffffffffffffff81111561413f5761413e613864565b5b61414b88828901613b09565b925050608061415c888289016138e8565b9150509295509295909350565b61417281613889565b82525050565b600060208201905061418d6000830184614169565b92915050565b600080604083850312156141aa576141a961385f565b5b60006141b8858286016138e8565b92505060206141c9858286016138b2565b9150509250929050565b6000806000606084860312156141ec576141eb61385f565b5b60006141fa868287016138b2565b935050602084013567ffffffffffffffff81111561421b5761421a613864565b5b61422786828701613b09565b9250506040614238868287016138e8565b9150509250925092565b600081519050919050565b600082825260208201905092915050565b600061426982614242565b614273818561424d565b935061428381856020860161396c565b61428c81613996565b840191505092915050565b600060c0820190506142ac6000830189614169565b81810360208301526142be818861425e565b90506142cd6040830187613f58565b6142da6060830186614028565b6142e76080830185613f58565b6142f460a0830184613f58565b979650505050505050565b600067ffffffffffffffff82111561431a57614319613a0c565b5b61432382613996565b9050602081019050919050565b600061434361433e846142ff565b613a6c565b90508281526020810184848401111561435f5761435e613a07565b5b61436a848285613ab8565b509392505050565b600082601f83011261438757614386613a02565b5b8135614397848260208601614330565b91505092915050565b600080600080600080600060e0888a0312156143bf576143be61385f565b5b60006143cd8a828b016138b2565b975050602088013567ffffffffffffffff8111156143ee576143ed613864565b5b6143fa8a828b01614372565b965050604061440b8a828b016138b2565b955050606088013567ffffffffffffffff81111561442c5761442b613864565b5b6144388a828b01613d11565b94505060806144498a828b016138e8565b93505060a061445a8a828b016138e8565b92505060c061446b8a828b016138e8565b91505092959891949750929550565b7f4e6f7420746865206f776e657200000000000000000000000000000000000000600082015250565b60006144b0600d8361395b565b91506144bb8261447a565b602082019050919050565b600060208201905081810360008301526144df816144a3565b9050919050565b6000815190506144f5816138d1565b92915050565b6000602082840312156145115761451061385f565b5b600061451f848285016144e6565b91505092915050565b7f496e73756666696369656e742062616c616e6365000000000000000000000000600082015250565b600061455e60148361395b565b915061456982614528565b602082019050919050565b6000602082019050818103600083015261458d81614551565b9050919050565b7f467265657a652069732061637469766500000000000000000000000000000000600082015250565b60006145ca60108361395b565b91506145d582614594565b602082019050919050565b600060208201905081810360008301526145f9816145bd565b9050919050565b7f4e487b7100000000000000000000000000000000000000000000000000000000600052601160045260246000fd5b600061463a826138c7565b9150614645836138c7565b925082820390508181111561465d5761465c614600565b5b92915050565b600061466e826138c7565b9150614679836138c7565b9250828202614687816138c7565b9150828204841483151761469e5761469d614600565b5b5092915050565b7f4e487b7100000000000000000000000000000000000000000000000000000000600052601260045260246000fd5b60006146df826138c7565b91506146ea836138c7565b9250826146fa576146f96146a5565b5b828204905092915050565b6000614710826138c7565b915061471b836138c7565b925082820190508082111561473357614732614600565b5b92915050565b7f4e487b7100000000000000000000000000000000000000000000000000000000600052602260045260246000fd5b6000600282049050600182168061478057607f821691505b60208210810361479357614792614739565b5b50919050565b7f43616e206f6e6c792062652063616c6c656420627920636f6e7472616374206960008201527f7473656c66000000000000000000000000000000000000000000000000000000602082015250565b60006147f560258361395b565b915061480082614799565b604082019050919050565b60006020820190508181036000830152614824816147e8565b9050919050565b7f496e76616c696420757365426173654c696d69742076616c7565000000000000600082015250565b6000614861601a8361395b565b915061486c8261482b565b602082019050919050565b6000602082019050818103600083015261489081614854565b9050919050565b7f4e6f7420617574686f72697a6564000000000000000000000000000000000000600082015250565b60006148cd600e8361395b565b91506148d882614897565b602082019050919050565b600060208201905081810360008301526148fc816148c0565b9050919050565b7f4e487b7100000000000000000000000000000000000000000000000000000000600052603260045260246000fd5b7f496e70757420617272617973206c656e677468206d69736d6174636800000000600082015250565b6000614968601c8361395b565b915061497382614932565b602082019050919050565b600060208201905081810360008301526149978161495b565b9050919050565b7f5472616e73616374696f6e206e6f7420666f756e640000000000000000000000600082015250565b60006149d460158361395b565b91506149df8261499e565b602082019050919050565b60006020820190508181036000830152614a03816149c7565b9050919050565b7f5472616e73616374696f6e20616c726561647920657865637574656400000000600082015250565b6000614a40601c8361395b565b9150614a4b82614a0a565b602082019050919050565b60006020820190508181036000830152614a6f81614a33565b9050919050565b7f496e636f72726563742045544820616d6f756e74000000000000000000000000600082015250565b6000614aac60148361395b565b9150614ab782614a76565b602082019050919050565b60006020820190508181036000830152614adb81614a9f565b9050919050565b6000606082019050614af76000830186614169565b614b046020830185614169565b614b116040830184613f58565b949350505050565b614b228161401c565b8114614b2d57600080fd5b50565b600081519050614b3f81614b19565b92915050565b600060208284031215614b5b57614b5a61385f565b5b6000614b6984828501614b30565b91505092915050565b7f5472616e73666572206661696c65640000000000000000000000000000000000600082015250565b6000614ba8600f8361395b565b9150614bb382614b72565b602082019050919050565b60006020820190508181036000830152614bd781614b9b565b9050919050565b6000604082019050614bf36000830185614169565b614c006020830184613f58565b9392505050565b7f43616e206f6e6c792062652063616c6c656420627920636f6e7472616374206960008201527f7473656c662c206f776e65722c207265636f766572792061646472657373206f60208201527f722077686974656c697374656420616464726573736573000000000000000000604082015250565b6000614c8960578361395b565b9150614c9482614c07565b606082019050919050565b60006020820190508181036000830152614cb881614c7c565b9050919050565b7f43616e6e6f7420756e667265657a650000000000000000000000000000000000600082015250565b6000614cf5600f8361395b565b9150614d0082614cbf565b602082019050919050565b60006020820190508181036000830152614d2481614ce8565b9050919050565b7f4e6f7420746865207265636f7665727920616464726573730000000000000000600082015250565b6000614d6160188361395b565b9150614d6c82614d2b565b602082019050919050565b60006020820190508181036000830152614d9081614d54565b9050919050565b600081905092915050565b6000614dad82614242565b614db78185614d97565b9350614dc781856020860161396c565b80840191505092915050565b6000614ddf8284614da2565b915081905092915050565b60008190508160005260206000209050919050565b60006020601f8301049050919050565b600082821b905092915050565b600060088302614e4c7fffffffffffffffffffffffffffffffffffffffffffffffffffffffffffffffff82614e0f565b614e568683614e0f565b95508019841693508086168417925050509392505050565b6000819050919050565b6000614e93614e8e614e89846138c7565b614e6e565b6138c7565b9050919050565b6000819050919050565b614ead83614e78565b614ec1614eb982614e9a565b848454614e1c565b825550505050565b600090565b614ed6614ec9565b614ee1818484614ea4565b505050565b5b81811015614f0557614efa600082614ece565b600181019050614ee7565b5050565b601f821115614f4a57614f1b81614dea565b614f2484614dff565b81016020851015614f33578190505b614f47614f3f85614dff565b830182614ee6565b50505b505050565b600082821c905092915050565b6000614f6d60001984600802614f4f565b1980831691505092915050565b6000614f868383614f5c565b9150826002028217905092915050565b614f9f82614242565b67ffffffffffffffff811115614fb857614fb7613a0c565b5b614fc28254614768565b614fcd828285614f09565b600060209050601f8311600181146150005760008415614fee578287015190505b614ff88582614f7a565b865550615060565b601f19841661500e86614dea565b60005b8281101561503657848901518255600182019150602085019450602081019050615011565b86831015615053578489015161504f601f891682614f5c565b8355505b6001600288020188555050505b505050505050565b600060808201905061507d6000830187613f58565b61508a6020830186614169565b818103604083015261509c818561425e565b90506150ab6060830184613f58565b95945050505050565b7f5472616e73616374696f6e20616c726561647920636f6e6669726d656420627960008201527f2074686973206164647265737300000000000000000000000000000000000000602082015250565b6000615110602d8361395b565b915061511b826150b4565b604082019050919050565b6000602082019050818103600083015261513f81615103565b9050919050565b600060408201905061515b6000830185613f58565b6151686020830184614169565b9392505050565b7f416c726561647920696e697469616c697a656400000000000000000000000000600082015250565b60006151a560138361395b565b91506151b08261516f565b602082019050919050565b600060208201905081810360008301526151d481615198565b9050919050565b60008190508160005260206000209050919050565b601f82111561523157615202816151db565b61520b84614dff565b8101602085101561521a578190505b61522e61522685614dff565b830182614ee6565b50505b505050565b61523f82613950565b67ffffffffffffffff81111561525857615257613a0c565b5b6152628254614768565b61526d8282856151f0565b600060209050601f8311600181146152a0576000841561528e578287015190505b6152988582614f7a565b865550615300565b601f1984166152ae866151db565b60005b828110156152d6578489015182556001820191506020850194506020810190506152b1565b868310156152f357848901516152ef601f891682614f5c565b8355505b6001600288020188555050505b505050505050565b50565b6000615318600083614d97565b915061532382615308565b600082019050919050565b60006153398261530b565b9150819050919050565b600061535060008361424d565b915061535b82615308565b600082019050919050565b6000819050919050565b600061538b61538661538184615366565b614e6e565b6138c7565b9050919050565b61539b81615370565b82525050565b60006080820190506153b66000830186613f58565b6153c36020830185614169565b81810360408301526153d481615343565b90506153e36060830184615392565b949350505050565b60006060820190506154006000830185613f58565b61540d6020830184614169565b818103604083015261541e81615343565b90509392505050565b7f4e6f7420656e6f75676820636f6e6669726d6174696f6e730000000000000000600082015250565b600061545d60188361395b565b915061546882615427565b602082019050919050565b6000602082019050818103600083015261548c81615450565b9050919050565b600081546154a081614768565b6154aa8186614d97565b945060018216600081146154c557600181146154da5761550d565b60ff198316865281151582028601935061550d565b6154e385614dea565b60005b83811015615505578154818901526001820191506020810190506154e6565b838801955050505b50505092915050565b60006155228284615493565b915081905092915050565b7f5472616e73616374696f6e20657865637574696f6e206661696c656400000000600082015250565b6000615563601c8361395b565b915061556e8261552d565b602082019050919050565b6000602082019050818103600083015261559281615556565b9050919050565b600081546155a681614768565b6155b0818661424d565b945060018216600081146155cb57600181146155e157615614565b60ff198316865281151560200286019350615614565b6155ea85614dea565b60005b8381101561560c578154818901526001820191506020810190506155ed565b808801955050505b50505092915050565b60006060820190506156326000830186613f58565b61563f6020830185614169565b81810360408301526156518184615599565b905094935050505056fea26469706673582212209f0a6f94cb9d3e427b34895aa2f6c99f13c9f1aa7ba7c1f1cdd325430dbca6a664736f6c63430008180033","opcodes":"PUSH1 0x80 PUSH1 0x40 MSTORE CALLVALUE DUP1 ISZERO PUSH2 0x10 JUMPI PUSH1 0x0 DUP1 REVERT JUMPDEST POP PUSH2 0x5691 DUP1 PUSH3 0x21 PUSH1 0x0 CODECOPY PUSH1 0x0 RETURN INVALID PUSH1 0x80 PUSH1 0x40 MSTORE PUSH1 0x4 CALLDATASIZE LT PUSH2 0x213 JUMPI PUSH1 0x0 CALLDATALOAD PUSH1 0xE0 SHR DUP1 PUSH4 0x6AE56240 GT PUSH2 0x118 JUMPI DUP1 PUSH4 0xBA4E5C49 GT PUSH2 0xA0 JUMPI DUP1 PUSH4 0xD63DA95C GT PUSH2 0x6F JUMPI DUP1 PUSH4 0xD63DA95C EQ PUSH2 0x7D6 JUMPI DUP1 PUSH4 0xD7D7442F EQ PUSH2 0x7FF JUMPI DUP1 PUSH4 0xDA1EAC0D EQ PUSH2 0x828 JUMPI DUP1 PUSH4 0xF11CE429 EQ PUSH2 0x865 JUMPI DUP1 PUSH4 0xF8175D78 EQ PUSH2 0x8A2 JUMPI PUSH2 0x21A JUMP JUMPDEST DUP1 PUSH4 0xBA4E5C49 EQ PUSH2 0x6F1 JUMPI DUP1 PUSH4 0xC01A8C84 EQ PUSH2 0x72E JUMPI DUP1 PUSH4 0xCF35BDD0 EQ PUSH2 0x757 JUMPI DUP1 PUSH4 0xD176E93A EQ PUSH2 0x794 JUMPI PUSH2 0x21A JUMP JUMPDEST DUP1 PUSH4 0x8790C1DE GT PUSH2 0xE7 JUMPI DUP1 PUSH4 0x8790C1DE EQ PUSH2 0x5FA JUMPI DUP1 PUSH4 0x8C3DC5C1 EQ PUSH2 0x637 JUMPI DUP1 PUSH4 0x8C8BFD0E EQ PUSH2 0x660 JUMPI DUP1 PUSH4 0x8DA5CB5B EQ PUSH2 0x69D JUMPI DUP1 PUSH4 0x9B5B9B18 EQ PUSH2 0x6C8 JUMPI PUSH2 0x21A JUMP JUMPDEST DUP1 PUSH4 0x6AE56240 EQ PUSH2 0x540 JUMPI DUP1 PUSH4 0x710EB26C EQ PUSH2 0x569 JUMPI DUP1 PUSH4 0x75CA1A01 EQ PUSH2 0x594 JUMPI DUP1 PUSH4 0x80A4B461 EQ PUSH2 0x5D1 JUMPI PUSH2 0x21A JUMP JUMPDEST DUP1 PUSH4 0x417A0698 GT PUSH2 0x19B JUMPI DUP1 PUSH4 0x5D12069A GT PUSH2 0x16A JUMPI DUP1 PUSH4 0x5D12069A EQ PUSH2 0x46D JUMPI DUP1 PUSH4 0x62A5AF3B EQ PUSH2 0x496 JUMPI DUP1 PUSH4 0x64D62353 EQ PUSH2 0x4C1 JUMPI DUP1 PUSH4 0x67EEBA0C EQ PUSH2 0x4EA JUMPI DUP1 PUSH4 0x6A42B8F8 EQ PUSH2 0x515 JUMPI PUSH2 0x21A JUMP JUMPDEST DUP1 PUSH4 0x417A0698 EQ PUSH2 0x3AF JUMPI DUP1 PUSH4 0x42CDE4E8 EQ PUSH2 0x3EE JUMPI DUP1 PUSH4 0x54FD4D50 EQ PUSH2 0x419 JUMPI DUP1 PUSH4 0x5664A47A EQ PUSH2 0x444 JUMPI PUSH2 0x21A JUMP JUMPDEST DUP1 PUSH4 0x27492CCF GT PUSH2 0x1E2 JUMPI DUP1 PUSH4 0x27492CCF EQ PUSH2 0x2D9 JUMPI DUP1 PUSH4 0x2780FB1D EQ PUSH2 0x302 JUMPI DUP1 PUSH4 0x3380C0D8 EQ PUSH2 0x32D JUMPI DUP1 PUSH4 0x338B5DEA EQ PUSH2 0x356 JUMPI DUP1 PUSH4 0x3AF32ABF EQ PUSH2 0x372 JUMPI PUSH2 0x21A JUMP JUMPDEST DUP1 PUSH4 0x1E33667 EQ PUSH2 0x21F JUMPI DUP1 PUSH4 0x6FDDE03 EQ PUSH2 0x248 JUMPI DUP1 PUSH4 0x150B7A02 EQ PUSH2 0x273 JUMPI DUP1 PUSH4 0x1AE138A5 EQ PUSH2 0x2B0 JUMPI PUSH2 0x21A JUMP JUMPDEST CALLDATASIZE PUSH2 0x21A JUMPI STOP JUMPDEST PUSH1 0x0 DUP1 REVERT JUMPDEST CALLVALUE DUP1 ISZERO PUSH2 0x22B JUMPI PUSH1 0x0 DUP1 REVERT JUMPDEST POP PUSH2 0x246 PUSH1 0x4 DUP1 CALLDATASIZE SUB DUP2 ADD SWAP1 PUSH2 0x241 SWAP2 SWAP1 PUSH2 0x38FD JUMP JUMPDEST PUSH2 0x8CB JUMP JUMPDEST STOP JUMPDEST CALLVALUE DUP1 ISZERO PUSH2 0x254 JUMPI PUSH1 0x0 DUP1 REVERT JUMPDEST POP PUSH2 0x25D PUSH2 0xD01 JUMP JUMPDEST PUSH1 0x40 MLOAD PUSH2 0x26A SWAP2 SWAP1 PUSH2 0x39E0 JUMP JUMPDEST PUSH1 0x40 MLOAD DUP1 SWAP2 SUB SWAP1 RETURN JUMPDEST CALLVALUE DUP1 ISZERO PUSH2 0x27F JUMPI PUSH1 0x0 DUP1 REVERT JUMPDEST POP PUSH2 0x29A PUSH1 0x4 DUP1 CALLDATASIZE SUB DUP2 ADD SWAP1 PUSH2 0x295 SWAP2 SWAP1 PUSH2 0x3B37 JUMP JUMPDEST PUSH2 0xD8F JUMP JUMPDEST PUSH1 0x40 MLOAD PUSH2 0x2A7 SWAP2 SWAP1 PUSH2 0x3BF5 JUMP JUMPDEST PUSH1 0x40 MLOAD DUP1 SWAP2 SUB SWAP1 RETURN JUMPDEST CALLVALUE DUP1 ISZERO PUSH2 0x2BC JUMPI PUSH1 0x0 DUP1 REVERT JUMPDEST POP PUSH2 0x2D7 PUSH1 0x4 DUP1 CALLDATASIZE SUB DUP2 ADD SWAP1 PUSH2 0x2D2 SWAP2 SWAP1 PUSH2 0x3C10 JUMP JUMPDEST PUSH2 0xDA3 JUMP JUMPDEST STOP JUMPDEST CALLVALUE DUP1 ISZERO PUSH2 0x2E5 JUMPI PUSH1 0x0 DUP1 REVERT JUMPDEST POP PUSH2 0x300 PUSH1 0x4 DUP1 CALLDATASIZE SUB DUP2 ADD SWAP1 PUSH2 0x2FB SWAP2 SWAP1 PUSH2 0x3E02 JUMP JUMPDEST PUSH2 0xED6 JUMP JUMPDEST STOP JUMPDEST CALLVALUE DUP1 ISZERO PUSH2 0x30E JUMPI PUSH1 0x0 DUP1 REVERT JUMPDEST POP PUSH2 0x317 PUSH2 0x1373 JUMP JUMPDEST PUSH1 0x40 MLOAD PUSH2 0x324 SWAP2 SWAP1 PUSH2 0x3F67 JUMP JUMPDEST PUSH1 0x40 MLOAD DUP1 SWAP2 SUB SWAP1 RETURN JUMPDEST CALLVALUE DUP1 ISZERO PUSH2 0x339 JUMPI PUSH1 0x0 DUP1 REVERT JUMPDEST POP PUSH2 0x354 PUSH1 0x4 DUP1 CALLDATASIZE SUB DUP2 ADD SWAP1 PUSH2 0x34F SWAP2 SWAP1 PUSH2 0x3F82 JUMP JUMPDEST PUSH2 0x1379 JUMP JUMPDEST STOP JUMPDEST PUSH2 0x370 PUSH1 0x4 DUP1 CALLDATASIZE SUB DUP2 ADD SWAP1 PUSH2 0x36B SWAP2 SWAP1 PUSH2 0x3FAF JUMP JUMPDEST PUSH2 0x154A JUMP JUMPDEST STOP JUMPDEST CALLVALUE DUP1 ISZERO PUSH2 0x37E JUMPI PUSH1 0x0 DUP1 REVERT JUMPDEST POP PUSH2 0x399 PUSH1 0x4 DUP1 CALLDATASIZE SUB DUP2 ADD SWAP1 PUSH2 0x394 SWAP2 SWAP1 PUSH2 0x3FEF JUMP JUMPDEST PUSH2 0x16D9 JUMP JUMPDEST PUSH1 0x40 MLOAD PUSH2 0x3A6 SWAP2 SWAP1 PUSH2 0x4037 JUMP JUMPDEST PUSH1 0x40 MLOAD DUP1 SWAP2 SUB SWAP1 RETURN JUMPDEST CALLVALUE DUP1 ISZERO PUSH2 0x3BB JUMPI PUSH1 0x0 DUP1 REVERT JUMPDEST POP PUSH2 0x3D6 PUSH1 0x4 DUP1 CALLDATASIZE SUB DUP2 ADD SWAP1 PUSH2 0x3D1 SWAP2 SWAP1 PUSH2 0x3FEF JUMP JUMPDEST PUSH2 0x16F9 JUMP JUMPDEST PUSH1 0x40 MLOAD PUSH2 0x3E5 SWAP4 SWAP3 SWAP2 SWAP1 PUSH2 0x4052 JUMP JUMPDEST PUSH1 0x40 MLOAD DUP1 SWAP2 SUB SWAP1 RETURN JUMPDEST CALLVALUE DUP1 ISZERO PUSH2 0x3FA JUMPI PUSH1 0x0 DUP1 REVERT JUMPDEST POP PUSH2 0x403 PUSH2 0x1723 JUMP JUMPDEST PUSH1 0x40 MLOAD PUSH2 0x410 SWAP2 SWAP1 PUSH2 0x3F67 JUMP JUMPDEST PUSH1 0x40 MLOAD DUP1 SWAP2 SUB SWAP1 RETURN JUMPDEST CALLVALUE DUP1 ISZERO PUSH2 0x425 JUMPI PUSH1 0x0 DUP1 REVERT JUMPDEST POP PUSH2 0x42E PUSH2 0x1729 JUMP JUMPDEST PUSH1 0x40 MLOAD PUSH2 0x43B SWAP2 SWAP1 PUSH2 0x3F67 JUMP JUMPDEST PUSH1 0x40 MLOAD DUP1 SWAP2 SUB SWAP1 RETURN JUMPDEST CALLVALUE DUP1 ISZERO PUSH2 0x450 JUMPI PUSH1 0x0 DUP1 REVERT JUMPDEST POP PUSH2 0x46B PUSH1 0x4 DUP1 CALLDATASIZE SUB DUP2 ADD SWAP1 PUSH2 0x466 SWAP2 SWAP1 PUSH2 0x3F82 JUMP JUMPDEST PUSH2 0x172F JUMP JUMPDEST STOP JUMPDEST CALLVALUE DUP1 ISZERO PUSH2 0x479 JUMPI PUSH1 0x0 DUP1 REVERT JUMPDEST POP PUSH2 0x494 PUSH1 0x4 DUP1 CALLDATASIZE SUB DUP2 ADD SWAP1 PUSH2 0x48F SWAP2 SWAP1 PUSH2 0x4089 JUMP JUMPDEST PUSH2 0x1944 JUMP JUMPDEST STOP JUMPDEST CALLVALUE DUP1 ISZERO PUSH2 0x4A2 JUMPI PUSH1 0x0 DUP1 REVERT JUMPDEST POP PUSH2 0x4AB PUSH2 0x1B0C JUMP JUMPDEST PUSH1 0x40 MLOAD PUSH2 0x4B8 SWAP2 SWAP1 PUSH2 0x3F67 JUMP JUMPDEST PUSH1 0x40 MLOAD DUP1 SWAP2 SUB SWAP1 RETURN JUMPDEST CALLVALUE DUP1 ISZERO PUSH2 0x4CD JUMPI PUSH1 0x0 DUP1 REVERT JUMPDEST POP PUSH2 0x4E8 PUSH1 0x4 DUP1 CALLDATASIZE SUB DUP2 ADD SWAP1 PUSH2 0x4E3 SWAP2 SWAP1 PUSH2 0x3F82 JUMP JUMPDEST PUSH2 0x1B12 JUMP JUMPDEST STOP JUMPDEST CALLVALUE DUP1 ISZERO PUSH2 0x4F6 JUMPI PUSH1 0x0 DUP1 REVERT JUMPDEST POP PUSH2 0x4FF PUSH2 0x1B8A JUMP JUMPDEST PUSH1 0x40 MLOAD PUSH2 0x50C SWAP2 SWAP1 PUSH2 0x3F67 JUMP JUMPDEST PUSH1 0x40 MLOAD DUP1 SWAP2 SUB SWAP1 RETURN JUMPDEST CALLVALUE DUP1 ISZERO PUSH2 0x521 JUMPI PUSH1 0x0 DUP1 REVERT JUMPDEST POP PUSH2 0x52A PUSH2 0x1B90 JUMP JUMPDEST PUSH1 0x40 MLOAD PUSH2 0x537 SWAP2 SWAP1 PUSH2 0x3F67 JUMP JUMPDEST PUSH1 0x40 MLOAD DUP1 SWAP2 SUB SWAP1 RETURN JUMPDEST CALLVALUE DUP1 ISZERO PUSH2 0x54C JUMPI PUSH1 0x0 DUP1 REVERT JUMPDEST POP PUSH2 0x567 PUSH1 0x4 DUP1 CALLDATASIZE SUB DUP2 ADD SWAP1 PUSH2 0x562 SWAP2 SWAP1 PUSH2 0x40D2 JUMP JUMPDEST PUSH2 0x1B96 JUMP JUMPDEST STOP JUMPDEST CALLVALUE DUP1 ISZERO PUSH2 0x575 JUMPI PUSH1 0x0 DUP1 REVERT JUMPDEST POP PUSH2 0x57E PUSH2 0x1F12 JUMP JUMPDEST PUSH1 0x40 MLOAD PUSH2 0x58B SWAP2 SWAP1 PUSH2 0x4178 JUMP JUMPDEST PUSH1 0x40 MLOAD DUP1 SWAP2 SUB SWAP1 RETURN JUMPDEST CALLVALUE DUP1 ISZERO PUSH2 0x5A0 JUMPI PUSH1 0x0 DUP1 REVERT JUMPDEST POP PUSH2 0x5BB PUSH1 0x4 DUP1 CALLDATASIZE SUB DUP2 ADD SWAP1 PUSH2 0x5B6 SWAP2 SWAP1 PUSH2 0x3FEF JUMP JUMPDEST PUSH2 0x1F38 JUMP JUMPDEST PUSH1 0x40 MLOAD PUSH2 0x5C8 SWAP2 SWAP1 PUSH2 0x3F67 JUMP JUMPDEST PUSH1 0x40 MLOAD DUP1 SWAP2 SUB SWAP1 RETURN JUMPDEST CALLVALUE DUP1 ISZERO PUSH2 0x5DD JUMPI PUSH1 0x0 DUP1 REVERT JUMPDEST POP PUSH2 0x5F8 PUSH1 0x4 DUP1 CALLDATASIZE SUB DUP2 ADD SWAP1 PUSH2 0x5F3 SWAP2 SWAP1 PUSH2 0x3FEF JUMP JUMPDEST PUSH2 0x1F50 JUMP JUMPDEST STOP JUMPDEST CALLVALUE DUP1 ISZERO PUSH2 0x606 JUMPI PUSH1 0x0 DUP1 REVERT JUMPDEST POP PUSH2 0x621 PUSH1 0x4 DUP1 CALLDATASIZE SUB DUP2 ADD SWAP1 PUSH2 0x61C SWAP2 SWAP1 PUSH2 0x4193 JUMP JUMPDEST PUSH2 0x2002 JUMP JUMPDEST PUSH1 0x40 MLOAD PUSH2 0x62E SWAP2 SWAP1 PUSH2 0x4037 JUMP JUMPDEST PUSH1 0x40 MLOAD DUP1 SWAP2 SUB SWAP1 RETURN JUMPDEST CALLVALUE DUP1 ISZERO PUSH2 0x643 JUMPI PUSH1 0x0 DUP1 REVERT JUMPDEST POP PUSH2 0x65E PUSH1 0x4 DUP1 CALLDATASIZE SUB DUP2 ADD SWAP1 PUSH2 0x659 SWAP2 SWAP1 PUSH2 0x41D3 JUMP JUMPDEST PUSH2 0x2031 JUMP JUMPDEST STOP JUMPDEST CALLVALUE DUP1 ISZERO PUSH2 0x66C JUMPI PUSH1 0x0 DUP1 REVERT JUMPDEST POP PUSH2 0x687 PUSH1 0x4 DUP1 CALLDATASIZE SUB DUP2 ADD SWAP1 PUSH2 0x682 SWAP2 SWAP1 PUSH2 0x3FEF JUMP JUMPDEST PUSH2 0x221A JUMP JUMPDEST PUSH1 0x40 MLOAD PUSH2 0x694 SWAP2 SWAP1 PUSH2 0x3F67 JUMP JUMPDEST PUSH1 0x40 MLOAD DUP1 SWAP2 SUB SWAP1 RETURN JUMPDEST CALLVALUE DUP1 ISZERO PUSH2 0x6A9 JUMPI PUSH1 0x0 DUP1 REVERT JUMPDEST POP PUSH2 0x6B2 PUSH2 0x2232 JUMP JUMPDEST PUSH1 0x40 MLOAD PUSH2 0x6BF SWAP2 SWAP1 PUSH2 0x4178 JUMP JUMPDEST PUSH1 0x40 MLOAD DUP1 SWAP2 SUB SWAP1 RETURN JUMPDEST CALLVALUE DUP1 ISZERO PUSH2 0x6D4 JUMPI PUSH1 0x0 DUP1 REVERT JUMPDEST POP PUSH2 0x6EF PUSH1 0x4 DUP1 CALLDATASIZE SUB DUP2 ADD SWAP1 PUSH2 0x6EA SWAP2 SWAP1 PUSH2 0x3FAF JUMP JUMPDEST PUSH2 0x2256 JUMP JUMPDEST STOP JUMPDEST CALLVALUE DUP1 ISZERO PUSH2 0x6FD JUMPI PUSH1 0x0 DUP1 REVERT JUMPDEST POP PUSH2 0x718 PUSH1 0x4 DUP1 CALLDATASIZE SUB DUP2 ADD SWAP1 PUSH2 0x713 SWAP2 SWAP1 PUSH2 0x3F82 JUMP JUMPDEST PUSH2 0x2319 JUMP JUMPDEST PUSH1 0x40 MLOAD PUSH2 0x725 SWAP2 SWAP1 PUSH2 0x4178 JUMP JUMPDEST PUSH1 0x40 MLOAD DUP1 SWAP2 SUB SWAP1 RETURN JUMPDEST CALLVALUE DUP1 ISZERO PUSH2 0x73A JUMPI PUSH1 0x0 DUP1 REVERT JUMPDEST POP PUSH2 0x755 PUSH1 0x4 DUP1 CALLDATASIZE SUB DUP2 ADD SWAP1 PUSH2 0x750 SWAP2 SWAP1 PUSH2 0x3F82 JUMP JUMPDEST PUSH2 0x2358 JUMP JUMPDEST STOP JUMPDEST CALLVALUE DUP1 ISZERO PUSH2 0x763 JUMPI PUSH1 0x0 DUP1 REVERT JUMPDEST POP PUSH2 0x77E PUSH1 0x4 DUP1 CALLDATASIZE SUB DUP2 ADD SWAP1 PUSH2 0x779 SWAP2 SWAP1 PUSH2 0x3F82 JUMP JUMPDEST PUSH2 0x27FB JUMP JUMPDEST PUSH1 0x40 MLOAD PUSH2 0x78B SWAP2 SWAP1 PUSH2 0x4178 JUMP JUMPDEST PUSH1 0x40 MLOAD DUP1 SWAP2 SUB SWAP1 RETURN JUMPDEST CALLVALUE DUP1 ISZERO PUSH2 0x7A0 JUMPI PUSH1 0x0 DUP1 REVERT JUMPDEST POP PUSH2 0x7BB PUSH1 0x4 DUP1 CALLDATASIZE SUB DUP2 ADD SWAP1 PUSH2 0x7B6 SWAP2 SWAP1 PUSH2 0x3F82 JUMP JUMPDEST PUSH2 0x283A JUMP JUMPDEST PUSH1 0x40 MLOAD PUSH2 0x7CD SWAP7 SWAP6 SWAP5 SWAP4 SWAP3 SWAP2 SWAP1 PUSH2 0x4297 JUMP JUMPDEST PUSH1 0x40 MLOAD DUP1 SWAP2 SUB SWAP1 RETURN JUMPDEST CALLVALUE DUP1 ISZERO PUSH2 0x7E2 JUMPI PUSH1 0x0 DUP1 REVERT JUMPDEST POP PUSH2 0x7FD PUSH1 0x4 DUP1 CALLDATASIZE SUB DUP2 ADD SWAP1 PUSH2 0x7F8 SWAP2 SWAP1 PUSH2 0x43A0 JUMP JUMPDEST PUSH2 0x293B JUMP JUMPDEST STOP JUMPDEST CALLVALUE DUP1 ISZERO PUSH2 0x80B JUMPI PUSH1 0x0 DUP1 REVERT JUMPDEST POP PUSH2 0x826 PUSH1 0x4 DUP1 CALLDATASIZE SUB DUP2 ADD SWAP1 PUSH2 0x821 SWAP2 SWAP1 PUSH2 0x3F82 JUMP JUMPDEST PUSH2 0x2B24 JUMP JUMPDEST STOP JUMPDEST CALLVALUE DUP1 ISZERO PUSH2 0x834 JUMPI PUSH1 0x0 DUP1 REVERT JUMPDEST POP PUSH2 0x84F PUSH1 0x4 DUP1 CALLDATASIZE SUB DUP2 ADD SWAP1 PUSH2 0x84A SWAP2 SWAP1 PUSH2 0x3FEF JUMP JUMPDEST PUSH2 0x2B9C JUMP JUMPDEST PUSH1 0x40 MLOAD PUSH2 0x85C SWAP2 SWAP1 PUSH2 0x3F67 JUMP JUMPDEST PUSH1 0x40 MLOAD DUP1 SWAP2 SUB SWAP1 RETURN JUMPDEST CALLVALUE DUP1 ISZERO PUSH2 0x871 JUMPI PUSH1 0x0 DUP1 REVERT JUMPDEST POP PUSH2 0x88C PUSH1 0x4 DUP1 CALLDATASIZE SUB DUP2 ADD SWAP1 PUSH2 0x887 SWAP2 SWAP1 PUSH2 0x38FD JUMP JUMPDEST PUSH2 0x2D44 JUMP JUMPDEST PUSH1 0x40 MLOAD PUSH2 0x899 SWAP2 SWAP1 PUSH2 0x3F67 JUMP JUMPDEST PUSH1 0x40 MLOAD DUP1 SWAP2 SUB SWAP1 RETURN JUMPDEST CALLVALUE DUP1 ISZERO PUSH2 0x8AE JUMPI PUSH1 0x0 DUP1 REVERT JUMPDEST POP PUSH2 0x8C9 PUSH1 0x4 DUP1 CALLDATASIZE SUB DUP2 ADD SWAP1 PUSH2 0x8C4 SWAP2 SWAP1 PUSH2 0x3F82 JUMP JUMPDEST PUSH2 0x3015 JUMP JUMPDEST STOP JUMPDEST PUSH1 0x0 DUP1 SLOAD SWAP1 PUSH2 0x100 EXP SWAP1 DIV PUSH20 0xFFFFFFFFFFFFFFFFFFFFFFFFFFFFFFFFFFFFFFFF AND PUSH20 0xFFFFFFFFFFFFFFFFFFFFFFFFFFFFFFFFFFFFFFFF AND CALLER PUSH20 0xFFFFFFFFFFFFFFFFFFFFFFFFFFFFFFFFFFFFFFFF AND EQ PUSH2 0x959 JUMPI PUSH1 0x40 MLOAD PUSH32 0x8C379A000000000000000000000000000000000000000000000000000000000 DUP2 MSTORE PUSH1 0x4 ADD PUSH2 0x950 SWAP1 PUSH2 0x44C6 JUMP JUMPDEST PUSH1 0x40 MLOAD DUP1 SWAP2 SUB SWAP1 REVERT JUMPDEST PUSH1 0x0 DUP1 PUSH20 0xFFFFFFFFFFFFFFFFFFFFFFFFFFFFFFFFFFFFFFFF AND DUP4 PUSH20 0xFFFFFFFFFFFFFFFFFFFFFFFFFFFFFFFFFFFFFFFF AND EQ PUSH2 0xA0D JUMPI DUP3 PUSH20 0xFFFFFFFFFFFFFFFFFFFFFFFFFFFFFFFFFFFFFFFF AND PUSH4 0x70A08231 ADDRESS PUSH1 0x40 MLOAD DUP3 PUSH4 0xFFFFFFFF AND PUSH1 0xE0 SHL DUP2 MSTORE PUSH1 0x4 ADD PUSH2 0x9C7 SWAP2 SWAP1 PUSH2 0x4178 JUMP JUMPDEST PUSH1 0x20 PUSH1 0x40 MLOAD DUP1 DUP4 SUB DUP2 DUP7 GAS STATICCALL ISZERO DUP1 ISZERO PUSH2 0x9E4 JUMPI RETURNDATASIZE PUSH1 0x0 DUP1 RETURNDATACOPY RETURNDATASIZE PUSH1 0x0 REVERT JUMPDEST POP POP POP POP PUSH1 0x40 MLOAD RETURNDATASIZE PUSH1 0x1F NOT PUSH1 0x1F DUP3 ADD AND DUP3 ADD DUP1 PUSH1 0x40 MSTORE POP DUP2 ADD SWAP1 PUSH2 0xA08 SWAP2 SWAP1 PUSH2 0x44FB JUMP JUMPDEST PUSH2 0xA0F JUMP JUMPDEST SELFBALANCE JUMPDEST SWAP1 POP DUP2 DUP2 LT ISZERO PUSH2 0xA54 JUMPI PUSH1 0x40 MLOAD PUSH32 0x8C379A000000000000000000000000000000000000000000000000000000000 DUP2 MSTORE PUSH1 0x4 ADD PUSH2 0xA4B SWAP1 PUSH2 0x4574 JUMP JUMPDEST PUSH1 0x40 MLOAD DUP1 SWAP2 SUB SWAP1 REVERT JUMPDEST PUSH1 0x0 PUSH1 0xE SLOAD EQ PUSH2 0xA99 JUMPI PUSH1 0x40 MLOAD PUSH32 0x8C379A000000000000000000000000000000000000000000000000000000000 DUP2 MSTORE PUSH1 0x4 ADD PUSH2 0xA90 SWAP1 PUSH2 0x45E0 JUMP JUMPDEST PUSH1 0x40 MLOAD DUP1 SWAP2 SUB SWAP1 REVERT JUMPDEST PUSH1 0x0 PUSH2 0xAA4 DUP5 PUSH2 0x2B9C JUMP JUMPDEST SWAP1 POP PUSH1 0x0 PUSH1 0xA PUSH1 0x0 DUP7 PUSH20 0xFFFFFFFFFFFFFFFFFFFFFFFFFFFFFFFFFFFFFFFF AND PUSH20 0xFFFFFFFFFFFFFFFFFFFFFFFFFFFFFFFFFFFFFFFF AND DUP2 MSTORE PUSH1 0x20 ADD SWAP1 DUP2 MSTORE PUSH1 0x20 ADD PUSH1 0x0 KECCAK256 SLOAD TIMESTAMP PUSH2 0xAF3 SWAP2 SWAP1 PUSH2 0x462F JUMP JUMPDEST SWAP1 POP PUSH3 0x15180 DUP2 LT PUSH2 0xB45 JUMPI PUSH1 0x0 PUSH1 0x9 PUSH1 0x0 DUP8 PUSH20 0xFFFFFFFFFFFFFFFFFFFFFFFFFFFFFFFFFFFFFFFF AND PUSH20 0xFFFFFFFFFFFFFFFFFFFFFFFFFFFFFFFFFFFFFFFF AND DUP2 MSTORE PUSH1 0x20 ADD SWAP1 DUP2 MSTORE PUSH1 0x20 ADD PUSH1 0x0 KECCAK256 DUP2 SWAP1 SSTORE POP JUMPDEST PUSH1 0x0 PUSH1 0x9 PUSH1 0x0 DUP8 PUSH20 0xFFFFFFFFFFFFFFFFFFFFFFFFFFFFFFFFFFFFFFFF AND PUSH20 0xFFFFFFFFFFFFFFFFFFFFFFFFFFFFFFFFFFFFFFFF AND DUP2 MSTORE PUSH1 0x20 ADD SWAP1 DUP2 MSTORE PUSH1 0x20 ADD PUSH1 0x0 KECCAK256 SLOAD PUSH3 0x15180 DUP5 DUP5 PUSH2 0xB97 SWAP2 SWAP1 PUSH2 0x4663 JUMP JUMPDEST PUSH2 0xBA1 SWAP2 SWAP1 PUSH2 0x46D4 JUMP JUMPDEST DUP5 PUSH2 0xBAC SWAP2 SWAP1 PUSH2 0x4705 JUMP JUMPDEST GT PUSH2 0xBB8 JUMPI PUSH1 0x0 PUSH2 0xC28 JUMP JUMPDEST PUSH1 0x9 PUSH1 0x0 DUP8 PUSH20 0xFFFFFFFFFFFFFFFFFFFFFFFFFFFFFFFFFFFFFFFF AND PUSH20 0xFFFFFFFFFFFFFFFFFFFFFFFFFFFFFFFFFFFFFFFF AND DUP2 MSTORE PUSH1 0x20 ADD SWAP1 DUP2 MSTORE PUSH1 0x20 ADD PUSH1 0x0 KECCAK256 SLOAD PUSH3 0x15180 DUP5 DUP5 PUSH2 0xC08 SWAP2 SWAP1 PUSH2 0x4663 JUMP JUMPDEST PUSH2 0xC12 SWAP2 SWAP1 PUSH2 0x46D4 JUMP JUMPDEST DUP5 PUSH2 0xC1D SWAP2 SWAP1 PUSH2 0x4705 JUMP JUMPDEST PUSH2 0xC27 SWAP2 SWAP1 PUSH2 0x462F JUMP JUMPDEST JUMPDEST SWAP1 POP DUP3 DUP2 GT ISZERO PUSH2 0xC36 JUMPI DUP3 SWAP1 POP JUMPDEST DUP1 DUP6 GT ISZERO PUSH2 0xC4E JUMPI PUSH2 0xC49 DUP7 DUP9 DUP8 PUSH2 0x308D JUMP JUMPDEST PUSH2 0xCF8 JUMP JUMPDEST DUP5 DUP2 DUP5 PUSH2 0xC5B SWAP2 SWAP1 PUSH2 0x462F JUMP JUMPDEST PUSH2 0xC65 SWAP2 SWAP1 PUSH2 0x4705 JUMP JUMPDEST PUSH1 0x9 PUSH1 0x0 DUP9 PUSH20 0xFFFFFFFFFFFFFFFFFFFFFFFFFFFFFFFFFFFFFFFF AND PUSH20 0xFFFFFFFFFFFFFFFFFFFFFFFFFFFFFFFFFFFFFFFF AND DUP2 MSTORE PUSH1 0x20 ADD SWAP1 DUP2 MSTORE PUSH1 0x20 ADD PUSH1 0x0 KECCAK256 DUP2 SWAP1 SSTORE POP TIMESTAMP PUSH1 0xA PUSH1 0x0 DUP9 PUSH20 0xFFFFFFFFFFFFFFFFFFFFFFFFFFFFFFFFFFFFFFFF AND PUSH20 0xFFFFFFFFFFFFFFFFFFFFFFFFFFFFFFFFFFFFFFFF AND DUP2 MSTORE PUSH1 0x20 ADD SWAP1 DUP2 MSTORE PUSH1 0x20 ADD PUSH1 0x0 KECCAK256 DUP2 SWAP1 SSTORE POP PUSH2 0xCF7 DUP8 DUP8 DUP8 PUSH2 0x318A JUMP JUMPDEST JUMPDEST POP POP POP POP POP POP POP JUMP JUMPDEST PUSH1 0x1 DUP1 SLOAD PUSH2 0xD0E SWAP1 PUSH2 0x4768 JUMP JUMPDEST DUP1 PUSH1 0x1F ADD PUSH1 0x20 DUP1 SWAP2 DIV MUL PUSH1 0x20 ADD PUSH1 0x40 MLOAD SWAP1 DUP2 ADD PUSH1 0x40 MSTORE DUP1 SWAP3 SWAP2 SWAP1 DUP2 DUP2 MSTORE PUSH1 0x20 ADD DUP3 DUP1 SLOAD PUSH2 0xD3A SWAP1 PUSH2 0x4768 JUMP JUMPDEST DUP1 ISZERO PUSH2 0xD87 JUMPI DUP1 PUSH1 0x1F LT PUSH2 0xD5C JUMPI PUSH2 0x100 DUP1 DUP4 SLOAD DIV MUL DUP4 MSTORE SWAP2 PUSH1 0x20 ADD SWAP2 PUSH2 0xD87 JUMP JUMPDEST DUP3 ADD SWAP2 SWAP1 PUSH1 0x0 MSTORE PUSH1 0x20 PUSH1 0x0 KECCAK256 SWAP1 JUMPDEST DUP2 SLOAD DUP2 MSTORE SWAP1 PUSH1 0x1 ADD SWAP1 PUSH1 0x20 ADD DUP1 DUP4 GT PUSH2 0xD6A JUMPI DUP3 SWAP1 SUB PUSH1 0x1F AND DUP3 ADD SWAP2 JUMPDEST POP POP POP POP POP DUP2 JUMP JUMPDEST PUSH1 0x0 PUSH4 0x150B7A02 PUSH1 0xE0 SHL SWAP1 POP SWAP5 SWAP4 POP POP POP POP JUMP JUMPDEST ADDRESS PUSH20 0xFFFFFFFFFFFFFFFFFFFFFFFFFFFFFFFFFFFFFFFF AND CALLER PUSH20 0xFFFFFFFFFFFFFFFFFFFFFFFFFFFFFFFFFFFFFFFF AND EQ PUSH2 0xE11 JUMPI PUSH1 0x40 MLOAD PUSH32 0x8C379A000000000000000000000000000000000000000000000000000000000 DUP2 MSTORE PUSH1 0x4 ADD PUSH2 0xE08 SWAP1 PUSH2 0x480B JUMP JUMPDEST PUSH1 0x40 MLOAD DUP1 SWAP2 SUB SWAP1 REVERT JUMPDEST PUSH1 0x2 DUP2 GT ISZERO PUSH2 0xE55 JUMPI PUSH1 0x40 MLOAD PUSH32 0x8C379A000000000000000000000000000000000000000000000000000000000 DUP2 MSTORE PUSH1 0x4 ADD PUSH2 0xE4C SWAP1 PUSH2 0x4877 JUMP JUMPDEST PUSH1 0x40 MLOAD DUP1 SWAP2 SUB SWAP1 REVERT JUMPDEST PUSH1 0x40 MLOAD DUP1 PUSH1 0x60 ADD PUSH1 0x40 MSTORE DUP1 DUP5 DUP2 MSTORE PUSH1 0x20 ADD DUP4 DUP2 MSTORE PUSH1 0x20 ADD DUP3 DUP2 MSTORE POP PUSH1 0xB PUSH1 0x0 DUP7 PUSH20 0xFFFFFFFFFFFFFFFFFFFFFFFFFFFFFFFFFFFFFFFF AND PUSH20 0xFFFFFFFFFFFFFFFFFFFFFFFFFFFFFFFFFFFFFFFF AND DUP2 MSTORE PUSH1 0x20 ADD SWAP1 DUP2 MSTORE PUSH1 0x20 ADD PUSH1 0x0 KECCAK256 PUSH1 0x0 DUP3 ADD MLOAD DUP2 PUSH1 0x0 ADD SSTORE PUSH1 0x20 DUP3 ADD MLOAD DUP2 PUSH1 0x1 ADD SSTORE PUSH1 0x40 DUP3 ADD MLOAD DUP2 PUSH1 0x2 ADD SSTORE SWAP1 POP POP POP POP POP POP JUMP JUMPDEST ADDRESS PUSH20 0xFFFFFFFFFFFFFFFFFFFFFFFFFFFFFFFFFFFFFFFF AND CALLER PUSH20 0xFFFFFFFFFFFFFFFFFFFFFFFFFFFFFFFFFFFFFFFF AND EQ DUP1 PUSH2 0xF5D JUMPI POP PUSH1 0x2 PUSH1 0x0 SWAP1 SLOAD SWAP1 PUSH2 0x100 EXP SWAP1 DIV PUSH20 0xFFFFFFFFFFFFFFFFFFFFFFFFFFFFFFFFFFFFFFFF AND PUSH20 0xFFFFFFFFFFFFFFFFFFFFFFFFFFFFFFFFFFFFFFFF AND CALLER PUSH20 0xFFFFFFFFFFFFFFFFFFFFFFFFFFFFFFFFFFFFFFFF AND EQ JUMPDEST PUSH2 0xF9C JUMPI PUSH1 0x40 MLOAD PUSH32 0x8C379A000000000000000000000000000000000000000000000000000000000 DUP2 MSTORE PUSH1 0x4 ADD PUSH2 0xF93 SWAP1 PUSH2 0x48E3 JUMP JUMPDEST PUSH1 0x40 MLOAD DUP1 SWAP2 SUB SWAP1 REVERT JUMPDEST PUSH1 0x0 PUSH20 0xFFFFFFFFFFFFFFFFFFFFFFFFFFFFFFFFFFFFFFFF AND DUP10 PUSH20 0xFFFFFFFFFFFFFFFFFFFFFFFFFFFFFFFFFFFFFFFF AND EQ PUSH2 0x1012 JUMPI DUP9 PUSH1 0x2 PUSH1 0x0 PUSH2 0x100 EXP DUP2 SLOAD DUP2 PUSH20 0xFFFFFFFFFFFFFFFFFFFFFFFFFFFFFFFFFFFFFFFF MUL NOT AND SWAP1 DUP4 PUSH20 0xFFFFFFFFFFFFFFFFFFFFFFFFFFFFFFFFFFFFFFFF AND MUL OR SWAP1 SSTORE POP JUMPDEST PUSH1 0x0 DUP9 MLOAD GT ISZERO PUSH2 0x1174 JUMPI PUSH1 0x0 JUMPDEST PUSH1 0x3 DUP1 SLOAD SWAP1 POP DUP2 LT ISZERO PUSH2 0x10CF JUMPI PUSH1 0x0 PUSH1 0x8 PUSH1 0x0 PUSH1 0x3 DUP5 DUP2 SLOAD DUP2 LT PUSH2 0x1046 JUMPI PUSH2 0x1045 PUSH2 0x4903 JUMP JUMPDEST JUMPDEST SWAP1 PUSH1 0x0 MSTORE PUSH1 0x20 PUSH1 0x0 KECCAK256 ADD PUSH1 0x0 SWAP1 SLOAD SWAP1 PUSH2 0x100 EXP SWAP1 DIV PUSH20 0xFFFFFFFFFFFFFFFFFFFFFFFFFFFFFFFFFFFFFFFF AND PUSH20 0xFFFFFFFFFFFFFFFFFFFFFFFFFFFFFFFFFFFFFFFF AND PUSH20 0xFFFFFFFFFFFFFFFFFFFFFFFFFFFFFFFFFFFFFFFF AND DUP2 MSTORE PUSH1 0x20 ADD SWAP1 DUP2 MSTORE PUSH1 0x20 ADD PUSH1 0x0 KECCAK256 PUSH1 0x0 PUSH2 0x100 EXP DUP2 SLOAD DUP2 PUSH1 0xFF MUL NOT AND SWAP1 DUP4 ISZERO ISZERO MUL OR SWAP1 SSTORE POP DUP1 DUP1 PUSH1 0x1 ADD SWAP2 POP POP PUSH2 0x101F JUMP JUMPDEST POP PUSH1 0x0 JUMPDEST DUP9 MLOAD DUP2 LT ISZERO PUSH2 0x115B JUMPI PUSH1 0x1 PUSH1 0x8 PUSH1 0x0 DUP12 DUP5 DUP2 MLOAD DUP2 LT PUSH2 0x10F5 JUMPI PUSH2 0x10F4 PUSH2 0x4903 JUMP JUMPDEST JUMPDEST PUSH1 0x20 MUL PUSH1 0x20 ADD ADD MLOAD PUSH20 0xFFFFFFFFFFFFFFFFFFFFFFFFFFFFFFFFFFFFFFFF AND PUSH20 0xFFFFFFFFFFFFFFFFFFFFFFFFFFFFFFFFFFFFFFFF AND DUP2 MSTORE PUSH1 0x20 ADD SWAP1 DUP2 MSTORE PUSH1 0x20 ADD PUSH1 0x0 KECCAK256 PUSH1 0x0 PUSH2 0x100 EXP DUP2 SLOAD DUP2 PUSH1 0xFF MUL NOT AND SWAP1 DUP4 ISZERO ISZERO MUL OR SWAP1 SSTORE POP DUP1 DUP1 PUSH1 0x1 ADD SWAP2 POP POP PUSH2 0x10D3 JUMP JUMPDEST POP DUP8 PUSH1 0x3 SWAP1 DUP1 MLOAD SWAP1 PUSH1 0x20 ADD SWAP1 PUSH2 0x1172 SWAP3 SWAP2 SWAP1 PUSH2 0x37AE JUMP JUMPDEST POP JUMPDEST PUSH1 0x0 DUP8 EQ PUSH2 0x1184 JUMPI DUP7 PUSH1 0x4 DUP2 SWAP1 SSTORE POP JUMPDEST PUSH1 0x0 DUP7 EQ PUSH2 0x1194 JUMPI DUP6 PUSH1 0x5 DUP2 SWAP1 SSTORE POP JUMPDEST PUSH1 0x0 DUP6 EQ PUSH2 0x11A4 JUMPI DUP5 PUSH1 0x6 DUP2 SWAP1 SSTORE POP JUMPDEST PUSH1 0x0 DUP5 MLOAD GT ISZERO PUSH2 0x1368 JUMPI DUP3 MLOAD DUP5 MLOAD EQ DUP1 ISZERO PUSH2 0x11C0 JUMPI POP DUP2 MLOAD DUP5 MLOAD EQ JUMPDEST DUP1 ISZERO PUSH2 0x11CD JUMPI POP DUP1 MLOAD DUP5 MLOAD EQ JUMPDEST PUSH2 0x120C JUMPI PUSH1 0x40 MLOAD PUSH32 0x8C379A000000000000000000000000000000000000000000000000000000000 DUP2 MSTORE PUSH1 0x4 ADD PUSH2 0x1203 SWAP1 PUSH2 0x497E JUMP JUMPDEST PUSH1 0x40 MLOAD DUP1 SWAP2 SUB SWAP1 REVERT JUMPDEST PUSH1 0x0 JUMPDEST DUP5 MLOAD DUP2 LT ISZERO PUSH2 0x1366 JUMPI PUSH1 0x2 DUP3 DUP3 DUP2 MLOAD DUP2 LT PUSH2 0x122D JUMPI PUSH2 0x122C PUSH2 0x4903 JUMP JUMPDEST JUMPDEST PUSH1 0x20 MUL PUSH1 0x20 ADD ADD MLOAD GT ISZERO PUSH2 0x1276 JUMPI PUSH1 0x40 MLOAD PUSH32 0x8C379A000000000000000000000000000000000000000000000000000000000 DUP2 MSTORE PUSH1 0x4 ADD PUSH2 0x126D SWAP1 PUSH2 0x4877 JUMP JUMPDEST PUSH1 0x40 MLOAD DUP1 SWAP2 SUB SWAP1 REVERT JUMPDEST PUSH1 0x40 MLOAD DUP1 PUSH1 0x60 ADD PUSH1 0x40 MSTORE DUP1 DUP6 DUP4 DUP2 MLOAD DUP2 LT PUSH2 0x1294 JUMPI PUSH2 0x1293 PUSH2 0x4903 JUMP JUMPDEST JUMPDEST PUSH1 0x20 MUL PUSH1 0x20 ADD ADD MLOAD DUP2 MSTORE PUSH1 0x20 ADD DUP5 DUP4 DUP2 MLOAD DUP2 LT PUSH2 0x12B4 JUMPI PUSH2 0x12B3 PUSH2 0x4903 JUMP JUMPDEST JUMPDEST PUSH1 0x20 MUL PUSH1 0x20 ADD ADD MLOAD DUP2 MSTORE PUSH1 0x20 ADD DUP4 DUP4 DUP2 MLOAD DUP2 LT PUSH2 0x12D4 JUMPI PUSH2 0x12D3 PUSH2 0x4903 JUMP JUMPDEST JUMPDEST PUSH1 0x20 MUL PUSH1 0x20 ADD ADD MLOAD DUP2 MSTORE POP PUSH1 0xB PUSH1 0x0 DUP8 DUP5 DUP2 MLOAD DUP2 LT PUSH2 0x12F6 JUMPI PUSH2 0x12F5 PUSH2 0x4903 JUMP JUMPDEST JUMPDEST PUSH1 0x20 MUL PUSH1 0x20 ADD ADD MLOAD PUSH20 0xFFFFFFFFFFFFFFFFFFFFFFFFFFFFFFFFFFFFFFFF AND PUSH20 0xFFFFFFFFFFFFFFFFFFFFFFFFFFFFFFFFFFFFFFFF AND DUP2 MSTORE PUSH1 0x20 ADD SWAP1 DUP2 MSTORE PUSH1 0x20 ADD PUSH1 0x0 KECCAK256 PUSH1 0x0 DUP3 ADD MLOAD DUP2 PUSH1 0x0 ADD SSTORE PUSH1 0x20 DUP3 ADD MLOAD DUP2 PUSH1 0x1 ADD SSTORE PUSH1 0x40 DUP3 ADD MLOAD DUP2 PUSH1 0x2 ADD SSTORE SWAP1 POP POP DUP1 DUP1 PUSH1 0x1 ADD SWAP2 POP POP PUSH2 0x120F JUMP JUMPDEST POP JUMPDEST POP POP POP POP POP POP POP POP POP JUMP JUMPDEST PUSH1 0xD SLOAD DUP2 JUMP JUMPDEST PUSH1 0x0 DUP1 SLOAD SWAP1 PUSH2 0x100 EXP SWAP1 DIV PUSH20 0xFFFFFFFFFFFFFFFFFFFFFFFFFFFFFFFFFFFFFFFF AND PUSH20 0xFFFFFFFFFFFFFFFFFFFFFFFFFFFFFFFFFFFFFFFF AND CALLER PUSH20 0xFFFFFFFFFFFFFFFFFFFFFFFFFFFFFFFFFFFFFFFF AND EQ DUP1 PUSH2 0x1420 JUMPI POP PUSH1 0x2 PUSH1 0x0 SWAP1 SLOAD SWAP1 PUSH2 0x100 EXP SWAP1 DIV PUSH20 0xFFFFFFFFFFFFFFFFFFFFFFFFFFFFFFFFFFFFFFFF AND PUSH20 0xFFFFFFFFFFFFFFFFFFFFFFFFFFFFFFFFFFFFFFFF AND CALLER PUSH20 0xFFFFFFFFFFFFFFFFFFFFFFFFFFFFFFFFFFFFFFFF AND EQ JUMPDEST PUSH2 0x145F JUMPI PUSH1 0x40 MLOAD PUSH32 0x8C379A000000000000000000000000000000000000000000000000000000000 DUP2 MSTORE PUSH1 0x4 ADD PUSH2 0x1456 SWAP1 PUSH2 0x48E3 JUMP JUMPDEST PUSH1 0x40 MLOAD DUP1 SWAP2 SUB SWAP1 REVERT JUMPDEST PUSH1 0x0 PUSH1 0xC DUP3 DUP2 SLOAD DUP2 LT PUSH2 0x1475 JUMPI PUSH2 0x1474 PUSH2 0x4903 JUMP JUMPDEST JUMPDEST SWAP1 PUSH1 0x0 MSTORE PUSH1 0x20 PUSH1 0x0 KECCAK256 SWAP1 PUSH1 0x6 MUL ADD SWAP1 POP PUSH1 0x0 DUP2 PUSH1 0x2 ADD SLOAD SUB PUSH2 0x14CC JUMPI PUSH1 0x40 MLOAD PUSH32 0x8C379A000000000000000000000000000000000000000000000000000000000 DUP2 MSTORE PUSH1 0x4 ADD PUSH2 0x14C3 SWAP1 PUSH2 0x49EA JUMP JUMPDEST PUSH1 0x40 MLOAD DUP1 SWAP2 SUB SWAP1 REVERT JUMPDEST DUP1 PUSH1 0x3 ADD PUSH1 0x0 SWAP1 SLOAD SWAP1 PUSH2 0x100 EXP SWAP1 DIV PUSH1 0xFF AND ISZERO PUSH2 0x151E JUMPI PUSH1 0x40 MLOAD PUSH32 0x8C379A000000000000000000000000000000000000000000000000000000000 DUP2 MSTORE PUSH1 0x4 ADD PUSH2 0x1515 SWAP1 PUSH2 0x4A56 JUMP JUMPDEST PUSH1 0x40 MLOAD DUP1 SWAP2 SUB SWAP1 REVERT JUMPDEST PUSH1 0x1 DUP2 PUSH1 0x3 ADD PUSH1 0x0 PUSH2 0x100 EXP DUP2 SLOAD DUP2 PUSH1 0xFF MUL NOT AND SWAP1 DUP4 ISZERO ISZERO MUL OR SWAP1 SSTORE POP PUSH2 0x194 DUP2 PUSH1 0x4 ADD DUP2 SWAP1 SSTORE POP POP POP JUMP JUMPDEST PUSH1 0x0 PUSH20 0xFFFFFFFFFFFFFFFFFFFFFFFFFFFFFFFFFFFFFFFF AND DUP3 PUSH20 0xFFFFFFFFFFFFFFFFFFFFFFFFFFFFFFFFFFFFFFFF AND SUB PUSH2 0x15C5 JUMPI DUP1 CALLVALUE EQ PUSH2 0x15C0 JUMPI PUSH1 0x40 MLOAD PUSH32 0x8C379A000000000000000000000000000000000000000000000000000000000 DUP2 MSTORE PUSH1 0x4 ADD PUSH2 0x15B7 SWAP1 PUSH2 0x4AC2 JUMP JUMPDEST PUSH1 0x40 MLOAD DUP1 SWAP2 SUB SWAP1 REVERT JUMPDEST PUSH2 0x1685 JUMP JUMPDEST DUP2 PUSH20 0xFFFFFFFFFFFFFFFFFFFFFFFFFFFFFFFFFFFFFFFF AND PUSH4 0x23B872DD CALLER ADDRESS DUP5 PUSH1 0x40 MLOAD DUP5 PUSH4 0xFFFFFFFF AND PUSH1 0xE0 SHL DUP2 MSTORE PUSH1 0x4 ADD PUSH2 0x1602 SWAP4 SWAP3 SWAP2 SWAP1 PUSH2 0x4AE2 JUMP JUMPDEST PUSH1 0x20 PUSH1 0x40 MLOAD DUP1 DUP4 SUB DUP2 PUSH1 0x0 DUP8 GAS CALL ISZERO DUP1 ISZERO PUSH2 0x1621 JUMPI RETURNDATASIZE PUSH1 0x0 DUP1 RETURNDATACOPY RETURNDATASIZE PUSH1 0x0 REVERT JUMPDEST POP POP POP POP PUSH1 0x40 MLOAD RETURNDATASIZE PUSH1 0x1F NOT PUSH1 0x1F DUP3 ADD AND DUP3 ADD DUP1 PUSH1 0x40 MSTORE POP DUP2 ADD SWAP1 PUSH2 0x1645 SWAP2 SWAP1 PUSH2 0x4B45 JUMP JUMPDEST PUSH2 0x1684 JUMPI PUSH1 0x40 MLOAD PUSH32 0x8C379A000000000000000000000000000000000000000000000000000000000 DUP2 MSTORE PUSH1 0x4 ADD PUSH2 0x167B SWAP1 PUSH2 0x4BBE JUMP JUMPDEST PUSH1 0x40 MLOAD DUP1 SWAP2 SUB SWAP1 REVERT JUMPDEST JUMPDEST CALLER PUSH20 0xFFFFFFFFFFFFFFFFFFFFFFFFFFFFFFFFFFFFFFFF AND PUSH32 0xD47F8695679B1495D2B6E58DA0FCDFB015B967FBB928AA9AEFE25206BD0BA605 DUP4 DUP4 PUSH1 0x40 MLOAD PUSH2 0x16CD SWAP3 SWAP2 SWAP1 PUSH2 0x4BDE JUMP JUMPDEST PUSH1 0x40 MLOAD DUP1 SWAP2 SUB SWAP1 LOG2 POP POP JUMP JUMPDEST PUSH1 0x8 PUSH1 0x20 MSTORE DUP1 PUSH1 0x0 MSTORE PUSH1 0x40 PUSH1 0x0 KECCAK256 PUSH1 0x0 SWAP2 POP SLOAD SWAP1 PUSH2 0x100 EXP SWAP1 DIV PUSH1 0xFF AND DUP2 JUMP JUMPDEST PUSH1 0xB PUSH1 0x20 MSTORE DUP1 PUSH1 0x0 MSTORE PUSH1 0x40 PUSH1 0x0 KECCAK256 PUSH1 0x0 SWAP2 POP SWAP1 POP DUP1 PUSH1 0x0 ADD SLOAD SWAP1 DUP1 PUSH1 0x1 ADD SLOAD SWAP1 DUP1 PUSH1 0x2 ADD SLOAD SWAP1 POP DUP4 JUMP JUMPDEST PUSH1 0x5 SLOAD DUP2 JUMP JUMPDEST PUSH1 0xF SLOAD DUP2 JUMP JUMPDEST ADDRESS PUSH20 0xFFFFFFFFFFFFFFFFFFFFFFFFFFFFFFFFFFFFFFFF AND CALLER PUSH20 0xFFFFFFFFFFFFFFFFFFFFFFFFFFFFFFFFFFFFFFFF AND EQ DUP1 PUSH2 0x17B4 JUMPI POP PUSH1 0x0 DUP1 SLOAD SWAP1 PUSH2 0x100 EXP SWAP1 DIV PUSH20 0xFFFFFFFFFFFFFFFFFFFFFFFFFFFFFFFFFFFFFFFF AND PUSH20 0xFFFFFFFFFFFFFFFFFFFFFFFFFFFFFFFFFFFFFFFF AND CALLER PUSH20 0xFFFFFFFFFFFFFFFFFFFFFFFFFFFFFFFFFFFFFFFF AND EQ JUMPDEST DUP1 PUSH2 0x180C JUMPI POP PUSH1 0x2 PUSH1 0x0 SWAP1 SLOAD SWAP1 PUSH2 0x100 EXP SWAP1 DIV PUSH20 0xFFFFFFFFFFFFFFFFFFFFFFFFFFFFFFFFFFFFFFFF AND PUSH20 0xFFFFFFFFFFFFFFFFFFFFFFFFFFFFFFFFFFFFFFFF AND CALLER PUSH20 0xFFFFFFFFFFFFFFFFFFFFFFFFFFFFFFFFFFFFFFFF AND EQ JUMPDEST DUP1 PUSH2 0x1860 JUMPI POP PUSH1 0x8 PUSH1 0x0 CALLER PUSH20 0xFFFFFFFFFFFFFFFFFFFFFFFFFFFFFFFFFFFFFFFF AND PUSH20 0xFFFFFFFFFFFFFFFFFFFFFFFFFFFFFFFFFFFFFFFF AND DUP2 MSTORE PUSH1 0x20 ADD SWAP1 DUP2 MSTORE PUSH1 0x20 ADD PUSH1 0x0 KECCAK256 PUSH1 0x0 SWAP1 SLOAD SWAP1 PUSH2 0x100 EXP SWAP1 DIV PUSH1 0xFF AND JUMPDEST PUSH2 0x189F JUMPI PUSH1 0x40 MLOAD PUSH32 0x8C379A000000000000000000000000000000000000000000000000000000000 DUP2 MSTORE PUSH1 0x4 ADD PUSH2 0x1896 SWAP1 PUSH2 0x4C9F JUMP JUMPDEST PUSH1 0x40 MLOAD DUP1 SWAP2 SUB SWAP1 REVERT JUMPDEST PUSH1 0x2 PUSH1 0x0 SWAP1 SLOAD SWAP1 PUSH2 0x100 EXP SWAP1 DIV PUSH20 0xFFFFFFFFFFFFFFFFFFFFFFFFFFFFFFFFFFFFFFFF AND PUSH20 0xFFFFFFFFFFFFFFFFFFFFFFFFFFFFFFFFFFFFFFFF AND CALLER PUSH20 0xFFFFFFFFFFFFFFFFFFFFFFFFFFFFFFFFFFFFFFFF AND EQ PUSH2 0x193A JUMPI PUSH1 0xE SLOAD DUP2 LT ISZERO PUSH2 0x1939 JUMPI PUSH1 0x40 MLOAD PUSH32 0x8C379A000000000000000000000000000000000000000000000000000000000 DUP2 MSTORE PUSH1 0x4 ADD PUSH2 0x1930 SWAP1 PUSH2 0x4D0B JUMP JUMPDEST PUSH1 0x40 MLOAD DUP1 SWAP2 SUB SWAP1 REVERT JUMPDEST JUMPDEST DUP1 PUSH1 0xE DUP2 SWAP1 SSTORE POP POP JUMP JUMPDEST ADDRESS PUSH20 0xFFFFFFFFFFFFFFFFFFFFFFFFFFFFFFFFFFFFFFFF AND CALLER PUSH20 0xFFFFFFFFFFFFFFFFFFFFFFFFFFFFFFFFFFFFFFFF AND EQ PUSH2 0x19B2 JUMPI PUSH1 0x40 MLOAD PUSH32 0x8C379A000000000000000000000000000000000000000000000000000000000 DUP2 MSTORE PUSH1 0x4 ADD PUSH2 0x19A9 SWAP1 PUSH2 0x480B JUMP JUMPDEST PUSH1 0x40 MLOAD DUP1 SWAP2 SUB SWAP1 REVERT JUMPDEST PUSH1 0x0 JUMPDEST PUSH1 0x3 DUP1 SLOAD SWAP1 POP DUP2 LT ISZERO PUSH2 0x1A65 JUMPI PUSH1 0x0 PUSH1 0x8 PUSH1 0x0 PUSH1 0x3 DUP5 DUP2 SLOAD DUP2 LT PUSH2 0x19DC JUMPI PUSH2 0x19DB PUSH2 0x4903 JUMP JUMPDEST JUMPDEST SWAP1 PUSH1 0x0 MSTORE PUSH1 0x20 PUSH1 0x0 KECCAK256 ADD PUSH1 0x0 SWAP1 SLOAD SWAP1 PUSH2 0x100 EXP SWAP1 DIV PUSH20 0xFFFFFFFFFFFFFFFFFFFFFFFFFFFFFFFFFFFFFFFF AND PUSH20 0xFFFFFFFFFFFFFFFFFFFFFFFFFFFFFFFFFFFFFFFF AND PUSH20 0xFFFFFFFFFFFFFFFFFFFFFFFFFFFFFFFFFFFFFFFF AND DUP2 MSTORE PUSH1 0x20 ADD SWAP1 DUP2 MSTORE PUSH1 0x20 ADD PUSH1 0x0 KECCAK256 PUSH1 0x0 PUSH2 0x100 EXP DUP2 SLOAD DUP2 PUSH1 0xFF MUL NOT AND SWAP1 DUP4 ISZERO ISZERO MUL OR SWAP1 SSTORE POP DUP1 DUP1 PUSH1 0x1 ADD SWAP2 POP POP PUSH2 0x19B5 JUMP JUMPDEST POP PUSH1 0x0 JUMPDEST DUP2 MLOAD DUP2 LT ISZERO PUSH2 0x1AF1 JUMPI PUSH1 0x1 PUSH1 0x8 PUSH1 0x0 DUP5 DUP5 DUP2 MLOAD DUP2 LT PUSH2 0x1A8B JUMPI PUSH2 0x1A8A PUSH2 0x4903 JUMP JUMPDEST JUMPDEST PUSH1 0x20 MUL PUSH1 0x20 ADD ADD MLOAD PUSH20 0xFFFFFFFFFFFFFFFFFFFFFFFFFFFFFFFFFFFFFFFF AND PUSH20 0xFFFFFFFFFFFFFFFFFFFFFFFFFFFFFFFFFFFFFFFF AND DUP2 MSTORE PUSH1 0x20 ADD SWAP1 DUP2 MSTORE PUSH1 0x20 ADD PUSH1 0x0 KECCAK256 PUSH1 0x0 PUSH2 0x100 EXP DUP2 SLOAD DUP2 PUSH1 0xFF MUL NOT AND SWAP1 DUP4 ISZERO ISZERO MUL OR SWAP1 SSTORE POP DUP1 DUP1 PUSH1 0x1 ADD SWAP2 POP POP PUSH2 0x1A69 JUMP JUMPDEST POP DUP1 PUSH1 0x3 SWAP1 DUP1 MLOAD SWAP1 PUSH1 0x20 ADD SWAP1 PUSH2 0x1B08 SWAP3 SWAP2 SWAP1 PUSH2 0x37AE JUMP JUMPDEST POP POP JUMP JUMPDEST PUSH1 0xE SLOAD DUP2 JUMP JUMPDEST ADDRESS PUSH20 0xFFFFFFFFFFFFFFFFFFFFFFFFFFFFFFFFFFFFFFFF AND CALLER PUSH20 0xFFFFFFFFFFFFFFFFFFFFFFFFFFFFFFFFFFFFFFFF AND EQ PUSH2 0x1B80 JUMPI PUSH1 0x40 MLOAD PUSH32 0x8C379A000000000000000000000000000000000000000000000000000000000 DUP2 MSTORE PUSH1 0x4 ADD PUSH2 0x1B77 SWAP1 PUSH2 0x480B JUMP JUMPDEST PUSH1 0x40 MLOAD DUP1 SWAP2 SUB SWAP1 REVERT JUMPDEST DUP1 PUSH1 0x6 DUP2 SWAP1 SSTORE POP POP JUMP JUMPDEST PUSH1 0x4 SLOAD DUP2 JUMP JUMPDEST PUSH1 0x6 SLOAD DUP2 JUMP JUMPDEST PUSH1 0x2 PUSH1 0x0 SWAP1 SLOAD SWAP1 PUSH2 0x100 EXP SWAP1 DIV PUSH20 0xFFFFFFFFFFFFFFFFFFFFFFFFFFFFFFFFFFFFFFFF AND PUSH20 0xFFFFFFFFFFFFFFFFFFFFFFFFFFFFFFFFFFFFFFFF AND CALLER PUSH20 0xFFFFFFFFFFFFFFFFFFFFFFFFFFFFFFFFFFFFFFFF AND EQ PUSH2 0x1C26 JUMPI PUSH1 0x40 MLOAD PUSH32 0x8C379A000000000000000000000000000000000000000000000000000000000 DUP2 MSTORE PUSH1 0x4 ADD PUSH2 0x1C1D SWAP1 PUSH2 0x4D77 JUMP JUMPDEST PUSH1 0x40 MLOAD DUP1 SWAP2 SUB SWAP1 REVERT JUMPDEST PUSH1 0x0 PUSH20 0xFFFFFFFFFFFFFFFFFFFFFFFFFFFFFFFFFFFFFFFF AND DUP6 PUSH20 0xFFFFFFFFFFFFFFFFFFFFFFFFFFFFFFFFFFFFFFFF AND SUB PUSH2 0x1D51 JUMPI DUP3 SELFBALANCE LT ISZERO PUSH2 0x1C9D JUMPI PUSH1 0x40 MLOAD PUSH32 0x8C379A000000000000000000000000000000000000000000000000000000000 DUP2 MSTORE PUSH1 0x4 ADD PUSH2 0x1C94 SWAP1 PUSH2 0x4574 JUMP JUMPDEST PUSH1 0x40 MLOAD DUP1 SWAP2 SUB SWAP1 REVERT JUMPDEST PUSH1 0x0 DUP5 PUSH20 0xFFFFFFFFFFFFFFFFFFFFFFFFFFFFFFFFFFFFFFFF AND DUP5 DUP5 PUSH1 0x40 MLOAD PUSH2 0x1CC5 SWAP2 SWAP1 PUSH2 0x4DD3 JUMP JUMPDEST PUSH1 0x0 PUSH1 0x40 MLOAD DUP1 DUP4 SUB DUP2 DUP6 DUP8 GAS CALL SWAP3 POP POP POP RETURNDATASIZE DUP1 PUSH1 0x0 DUP2 EQ PUSH2 0x1D02 JUMPI PUSH1 0x40 MLOAD SWAP2 POP PUSH1 0x1F NOT PUSH1 0x3F RETURNDATASIZE ADD AND DUP3 ADD PUSH1 0x40 MSTORE RETURNDATASIZE DUP3 MSTORE RETURNDATASIZE PUSH1 0x0 PUSH1 0x20 DUP5 ADD RETURNDATACOPY PUSH2 0x1D07 JUMP JUMPDEST PUSH1 0x60 SWAP2 POP JUMPDEST POP POP SWAP1 POP DUP1 PUSH2 0x1D4B JUMPI PUSH1 0x40 MLOAD PUSH32 0x8C379A000000000000000000000000000000000000000000000000000000000 DUP2 MSTORE PUSH1 0x4 ADD PUSH2 0x1D42 SWAP1 PUSH2 0x4BBE JUMP JUMPDEST PUSH1 0x40 MLOAD DUP1 SWAP2 SUB SWAP1 REVERT JUMPDEST POP PUSH2 0x1ECB JUMP JUMPDEST DUP3 DUP6 PUSH20 0xFFFFFFFFFFFFFFFFFFFFFFFFFFFFFFFFFFFFFFFF AND PUSH4 0x70A08231 ADDRESS PUSH1 0x40 MLOAD DUP3 PUSH4 0xFFFFFFFF AND PUSH1 0xE0 SHL DUP2 MSTORE PUSH1 0x4 ADD PUSH2 0x1D8B SWAP2 SWAP1 PUSH2 0x4178 JUMP JUMPDEST PUSH1 0x20 PUSH1 0x40 MLOAD DUP1 DUP4 SUB DUP2 DUP7 GAS STATICCALL ISZERO DUP1 ISZERO PUSH2 0x1DA8 JUMPI RETURNDATASIZE PUSH1 0x0 DUP1 RETURNDATACOPY RETURNDATASIZE PUSH1 0x0 REVERT JUMPDEST POP POP POP POP PUSH1 0x40 MLOAD RETURNDATASIZE PUSH1 0x1F NOT PUSH1 0x1F DUP3 ADD AND DUP3 ADD DUP1 PUSH1 0x40 MSTORE POP DUP2 ADD SWAP1 PUSH2 0x1DCC SWAP2 SWAP1 PUSH2 0x44FB JUMP JUMPDEST LT ISZERO PUSH2 0x1E0D JUMPI PUSH1 0x40 MLOAD PUSH32 0x8C379A000000000000000000000000000000000000000000000000000000000 DUP2 MSTORE PUSH1 0x4 ADD PUSH2 0x1E04 SWAP1 PUSH2 0x4574 JUMP JUMPDEST PUSH1 0x40 MLOAD DUP1 SWAP2 SUB SWAP1 REVERT JUMPDEST DUP5 PUSH20 0xFFFFFFFFFFFFFFFFFFFFFFFFFFFFFFFFFFFFFFFF AND PUSH4 0xA9059CBB DUP6 DUP6 PUSH1 0x40 MLOAD DUP4 PUSH4 0xFFFFFFFF AND PUSH1 0xE0 SHL DUP2 MSTORE PUSH1 0x4 ADD PUSH2 0x1E48 SWAP3 SWAP2 SWAP1 PUSH2 0x4BDE JUMP JUMPDEST PUSH1 0x20 PUSH1 0x40 MLOAD DUP1 DUP4 SUB DUP2 PUSH1 0x0 DUP8 GAS CALL ISZERO DUP1 ISZERO PUSH2 0x1E67 JUMPI RETURNDATASIZE PUSH1 0x0 DUP1 RETURNDATACOPY RETURNDATASIZE PUSH1 0x0 REVERT JUMPDEST POP POP POP POP PUSH1 0x40 MLOAD RETURNDATASIZE PUSH1 0x1F NOT PUSH1 0x1F DUP3 ADD AND DUP3 ADD DUP1 PUSH1 0x40 MSTORE POP DUP2 ADD SWAP1 PUSH2 0x1E8B SWAP2 SWAP1 PUSH2 0x4B45 JUMP JUMPDEST PUSH2 0x1ECA JUMPI PUSH1 0x40 MLOAD PUSH32 0x8C379A000000000000000000000000000000000000000000000000000000000 DUP2 MSTORE PUSH1 0x4 ADD PUSH2 0x1EC1 SWAP1 PUSH2 0x4BBE JUMP JUMPDEST PUSH1 0x40 MLOAD DUP1 SWAP2 SUB SWAP1 REVERT JUMPDEST JUMPDEST PUSH32 0xA2BD9FCFCDBA69F52BCD9A520846AD4BD685B187483F53EFC42D035B2DDEBFF0 DUP6 DUP5 PUSH1 0x40 MLOAD PUSH2 0x1EFC SWAP3 SWAP2 SWAP1 PUSH2 0x4BDE JUMP JUMPDEST PUSH1 0x40 MLOAD DUP1 SWAP2 SUB SWAP1 LOG1 DUP1 PUSH1 0xE DUP2 SWAP1 SSTORE POP POP POP POP POP POP JUMP JUMPDEST PUSH1 0x2 PUSH1 0x0 SWAP1 SLOAD SWAP1 PUSH2 0x100 EXP SWAP1 DIV PUSH20 0xFFFFFFFFFFFFFFFFFFFFFFFFFFFFFFFFFFFFFFFF AND DUP2 JUMP JUMPDEST PUSH1 0xA PUSH1 0x20 MSTORE DUP1 PUSH1 0x0 MSTORE PUSH1 0x40 PUSH1 0x0 KECCAK256 PUSH1 0x0 SWAP2 POP SWAP1 POP SLOAD DUP2 JUMP JUMPDEST ADDRESS PUSH20 0xFFFFFFFFFFFFFFFFFFFFFFFFFFFFFFFFFFFFFFFF AND CALLER PUSH20 0xFFFFFFFFFFFFFFFFFFFFFFFFFFFFFFFFFFFFFFFF AND EQ PUSH2 0x1FBE JUMPI PUSH1 0x40 MLOAD PUSH32 0x8C379A000000000000000000000000000000000000000000000000000000000 DUP2 MSTORE PUSH1 0x4 ADD PUSH2 0x1FB5 SWAP1 PUSH2 0x480B JUMP JUMPDEST PUSH1 0x40 MLOAD DUP1 SWAP2 SUB SWAP1 REVERT JUMPDEST DUP1 PUSH1 0x2 PUSH1 0x0 PUSH2 0x100 EXP DUP2 SLOAD DUP2 PUSH20 0xFFFFFFFFFFFFFFFFFFFFFFFFFFFFFFFFFFFFFFFF MUL NOT AND SWAP1 DUP4 PUSH20 0xFFFFFFFFFFFFFFFFFFFFFFFFFFFFFFFFFFFFFFFF AND MUL OR SWAP1 SSTORE POP POP JUMP JUMPDEST PUSH1 0x10 PUSH1 0x20 MSTORE DUP2 PUSH1 0x0 MSTORE PUSH1 0x40 PUSH1 0x0 KECCAK256 PUSH1 0x20 MSTORE DUP1 PUSH1 0x0 MSTORE PUSH1 0x40 PUSH1 0x0 KECCAK256 PUSH1 0x0 SWAP2 POP SWAP2 POP SWAP1 SLOAD SWAP1 PUSH2 0x100 EXP SWAP1 DIV PUSH1 0xFF AND DUP2 JUMP JUMPDEST PUSH1 0x0 DUP1 SLOAD SWAP1 PUSH2 0x100 EXP SWAP1 DIV PUSH20 0xFFFFFFFFFFFFFFFFFFFFFFFFFFFFFFFFFFFFFFFF AND PUSH20 0xFFFFFFFFFFFFFFFFFFFFFFFFFFFFFFFFFFFFFFFF AND CALLER PUSH20 0xFFFFFFFFFFFFFFFFFFFFFFFFFFFFFFFFFFFFFFFF AND EQ PUSH2 0x20BF JUMPI PUSH1 0x40 MLOAD PUSH32 0x8C379A000000000000000000000000000000000000000000000000000000000 DUP2 MSTORE PUSH1 0x4 ADD PUSH2 0x20B6 SWAP1 PUSH2 0x44C6 JUMP JUMPDEST PUSH1 0x40 MLOAD DUP1 SWAP2 SUB SWAP1 REVERT JUMPDEST PUSH1 0x0 PUSH1 0xE SLOAD EQ PUSH2 0x2104 JUMPI PUSH1 0x40 MLOAD PUSH32 0x8C379A000000000000000000000000000000000000000000000000000000000 DUP2 MSTORE PUSH1 0x4 ADD PUSH2 0x20FB SWAP1 PUSH2 0x45E0 JUMP JUMPDEST PUSH1 0x40 MLOAD DUP1 SWAP2 SUB SWAP1 REVERT JUMPDEST PUSH1 0x0 PUSH1 0xC PUSH1 0x1 DUP2 PUSH1 0x1 DUP2 SLOAD ADD DUP1 DUP3 SSTORE DUP1 SWAP2 POP POP SUB SWAP1 PUSH1 0x0 MSTORE PUSH1 0x20 PUSH1 0x0 KECCAK256 SWAP1 PUSH1 0x6 MUL ADD SWAP1 POP DUP4 DUP2 PUSH1 0x0 ADD PUSH1 0x0 PUSH2 0x100 EXP DUP2 SLOAD DUP2 PUSH20 0xFFFFFFFFFFFFFFFFFFFFFFFFFFFFFFFFFFFFFFFF MUL NOT AND SWAP1 DUP4 PUSH20 0xFFFFFFFFFFFFFFFFFFFFFFFFFFFFFFFFFFFFFFFF AND MUL OR SWAP1 SSTORE POP DUP3 DUP2 PUSH1 0x1 ADD SWAP1 DUP2 PUSH2 0x217C SWAP2 SWAP1 PUSH2 0x4F96 JUMP JUMPDEST POP TIMESTAMP DUP2 PUSH1 0x2 ADD DUP2 SWAP1 SSTORE POP PUSH1 0x0 DUP2 PUSH1 0x3 ADD PUSH1 0x0 PUSH2 0x100 EXP DUP2 SLOAD DUP2 PUSH1 0xFF MUL NOT AND SWAP1 DUP4 ISZERO ISZERO MUL OR SWAP1 SSTORE POP DUP2 DUP2 PUSH1 0x5 ADD DUP2 SWAP1 SSTORE POP PUSH1 0x1 PUSH1 0xD PUSH1 0x0 DUP3 DUP3 SLOAD PUSH2 0x21BF SWAP2 SWAP1 PUSH2 0x4705 JUMP JUMPDEST SWAP3 POP POP DUP2 SWAP1 SSTORE POP PUSH32 0xC243F4BE367411622FB5772863ED10B8A7D6941C97F4EF7AB6885E4CF7B5CD32 PUSH1 0x1 PUSH1 0xC DUP1 SLOAD SWAP1 POP PUSH2 0x21F9 SWAP2 SWAP1 PUSH2 0x462F JUMP JUMPDEST DUP6 DUP6 DUP6 PUSH1 0x40 MLOAD PUSH2 0x220C SWAP5 SWAP4 SWAP3 SWAP2 SWAP1 PUSH2 0x5068 JUMP JUMPDEST PUSH1 0x40 MLOAD DUP1 SWAP2 SUB SWAP1 LOG1 POP POP POP POP JUMP JUMPDEST PUSH1 0x9 PUSH1 0x20 MSTORE DUP1 PUSH1 0x0 MSTORE PUSH1 0x40 PUSH1 0x0 KECCAK256 PUSH1 0x0 SWAP2 POP SWAP1 POP SLOAD DUP2 JUMP JUMPDEST PUSH1 0x0 DUP1 SLOAD SWAP1 PUSH2 0x100 EXP SWAP1 DIV PUSH20 0xFFFFFFFFFFFFFFFFFFFFFFFFFFFFFFFFFFFFFFFF AND DUP2 JUMP JUMPDEST DUP2 PUSH20 0xFFFFFFFFFFFFFFFFFFFFFFFFFFFFFFFFFFFFFFFF AND PUSH4 0x42842E0E CALLER ADDRESS DUP5 PUSH1 0x40 MLOAD DUP5 PUSH4 0xFFFFFFFF AND PUSH1 0xE0 SHL DUP2 MSTORE PUSH1 0x4 ADD PUSH2 0x2293 SWAP4 SWAP3 SWAP2 SWAP1 PUSH2 0x4AE2 JUMP JUMPDEST PUSH1 0x0 PUSH1 0x40 MLOAD DUP1 DUP4 SUB DUP2 PUSH1 0x0 DUP8 DUP1 EXTCODESIZE ISZERO DUP1 ISZERO PUSH2 0x22AD JUMPI PUSH1 0x0 DUP1 REVERT JUMPDEST POP GAS CALL ISZERO DUP1 ISZERO PUSH2 0x22C1 JUMPI RETURNDATASIZE PUSH1 0x0 DUP1 RETURNDATACOPY RETURNDATASIZE PUSH1 0x0 REVERT JUMPDEST POP POP POP POP CALLER PUSH20 0xFFFFFFFFFFFFFFFFFFFFFFFFFFFFFFFFFFFFFFFF AND PUSH32 0x895DEABB3B0DA77CB5D42B057FF02AE7F731AA7EC9279822571010FDDE66E1A3 DUP4 DUP4 PUSH1 0x40 MLOAD PUSH2 0x230D SWAP3 SWAP2 SWAP1 PUSH2 0x4BDE JUMP JUMPDEST PUSH1 0x40 MLOAD DUP1 SWAP2 SUB SWAP1 LOG2 POP POP JUMP JUMPDEST PUSH1 0x3 DUP2 DUP2 SLOAD DUP2 LT PUSH2 0x2329 JUMPI PUSH1 0x0 DUP1 REVERT JUMPDEST SWAP1 PUSH1 0x0 MSTORE PUSH1 0x20 PUSH1 0x0 KECCAK256 ADD PUSH1 0x0 SWAP2 POP SLOAD SWAP1 PUSH2 0x100 EXP SWAP1 DIV PUSH20 0xFFFFFFFFFFFFFFFFFFFFFFFFFFFFFFFFFFFFFFFF AND DUP2 JUMP JUMPDEST PUSH1 0x0 DUP1 SLOAD SWAP1 PUSH2 0x100 EXP SWAP1 DIV PUSH20 0xFFFFFFFFFFFFFFFFFFFFFFFFFFFFFFFFFFFFFFFF AND PUSH20 0xFFFFFFFFFFFFFFFFFFFFFFFFFFFFFFFFFFFFFFFF AND CALLER PUSH20 0xFFFFFFFFFFFFFFFFFFFFFFFFFFFFFFFFFFFFFFFF AND EQ DUP1 PUSH2 0x23FB JUMPI POP PUSH1 0x8 PUSH1 0x0 CALLER PUSH20 0xFFFFFFFFFFFFFFFFFFFFFFFFFFFFFFFFFFFFFFFF AND PUSH20 0xFFFFFFFFFFFFFFFFFFFFFFFFFFFFFFFFFFFFFFFF AND DUP2 MSTORE PUSH1 0x20 ADD SWAP1 DUP2 MSTORE PUSH1 0x20 ADD PUSH1 0x0 KECCAK256 PUSH1 0x0 SWAP1 SLOAD SWAP1 PUSH2 0x100 EXP SWAP1 DIV PUSH1 0xFF AND JUMPDEST PUSH2 0x243A JUMPI PUSH1 0x40 MLOAD PUSH32 0x8C379A000000000000000000000000000000000000000000000000000000000 DUP2 MSTORE PUSH1 0x4 ADD PUSH2 0x2431 SWAP1 PUSH2 0x48E3 JUMP JUMPDEST PUSH1 0x40 MLOAD DUP1 SWAP2 SUB SWAP1 REVERT JUMPDEST PUSH1 0x1 PUSH1 0xE SLOAD GT ISZERO PUSH2 0x2480 JUMPI PUSH1 0x40 MLOAD PUSH32 0x8C379A000000000000000000000000000000000000000000000000000000000 DUP2 MSTORE PUSH1 0x4 ADD PUSH2 0x2477 SWAP1 PUSH2 0x45E0 JUMP JUMPDEST PUSH1 0x40 MLOAD DUP1 SWAP2 SUB SWAP1 REVERT JUMPDEST PUSH1 0x0 PUSH1 0xC DUP3 DUP2 SLOAD DUP2 LT PUSH2 0x2496 JUMPI PUSH2 0x2495 PUSH2 0x4903 JUMP JUMPDEST JUMPDEST SWAP1 PUSH1 0x0 MSTORE PUSH1 0x20 PUSH1 0x0 KECCAK256 SWAP1 PUSH1 0x6 MUL ADD SWAP1 POP PUSH1 0x0 DUP2 PUSH1 0x2 ADD SLOAD SUB PUSH2 0x24ED JUMPI PUSH1 0x40 MLOAD PUSH32 0x8C379A000000000000000000000000000000000000000000000000000000000 DUP2 MSTORE PUSH1 0x4 ADD PUSH2 0x24E4 SWAP1 PUSH2 0x49EA JUMP JUMPDEST PUSH1 0x40 MLOAD DUP1 SWAP2 SUB SWAP1 REVERT JUMPDEST DUP1 PUSH1 0x3 ADD PUSH1 0x0 SWAP1 SLOAD SWAP1 PUSH2 0x100 EXP SWAP1 DIV PUSH1 0xFF AND ISZERO PUSH2 0x253F JUMPI PUSH1 0x40 MLOAD PUSH32 0x8C379A000000000000000000000000000000000000000000000000000000000 DUP2 MSTORE PUSH1 0x4 ADD PUSH2 0x2536 SWAP1 PUSH2 0x4A56 JUMP JUMPDEST PUSH1 0x40 MLOAD DUP1 SWAP2 SUB SWAP1 REVERT JUMPDEST PUSH1 0x8 PUSH1 0x0 CALLER PUSH20 0xFFFFFFFFFFFFFFFFFFFFFFFFFFFFFFFFFFFFFFFF AND PUSH20 0xFFFFFFFFFFFFFFFFFFFFFFFFFFFFFFFFFFFFFFFF AND DUP2 MSTORE PUSH1 0x20 ADD SWAP1 DUP2 MSTORE PUSH1 0x20 ADD PUSH1 0x0 KECCAK256 PUSH1 0x0 SWAP1 SLOAD SWAP1 PUSH2 0x100 EXP SWAP1 DIV PUSH1 0xFF AND DUP1 ISZERO PUSH2 0x2601 JUMPI POP PUSH1 0x0 DUP1 SLOAD SWAP1 PUSH2 0x100 EXP SWAP1 DIV PUSH20 0xFFFFFFFFFFFFFFFFFFFFFFFFFFFFFFFFFFFFFFFF AND PUSH20 0xFFFFFFFFFFFFFFFFFFFFFFFFFFFFFFFFFFFFFFFF AND CALLER PUSH20 0xFFFFFFFFFFFFFFFFFFFFFFFFFFFFFFFFFFFFFFFF AND EQ DUP1 ISZERO PUSH2 0x25FF JUMPI POP TIMESTAMP PUSH1 0x6 SLOAD DUP3 PUSH1 0x2 ADD SLOAD PUSH2 0x25FC SWAP2 SWAP1 PUSH2 0x4705 JUMP JUMPDEST GT ISZERO JUMPDEST ISZERO JUMPDEST ISZERO PUSH2 0x272A JUMPI PUSH1 0x10 PUSH1 0x0 DUP4 DUP2 MSTORE PUSH1 0x20 ADD SWAP1 DUP2 MSTORE PUSH1 0x20 ADD PUSH1 0x0 KECCAK256 PUSH1 0x0 CALLER PUSH20 0xFFFFFFFFFFFFFFFFFFFFFFFFFFFFFFFFFFFFFFFF AND PUSH20 0xFFFFFFFFFFFFFFFFFFFFFFFFFFFFFFFFFFFFFFFF AND DUP2 MSTORE PUSH1 0x20 ADD SWAP1 DUP2 MSTORE PUSH1 0x20 ADD PUSH1 0x0 KECCAK256 PUSH1 0x0 SWAP1 SLOAD SWAP1 PUSH2 0x100 EXP SWAP1 DIV PUSH1 0xFF AND ISZERO PUSH2 0x26A4 JUMPI PUSH1 0x40 MLOAD PUSH32 0x8C379A000000000000000000000000000000000000000000000000000000000 DUP2 MSTORE PUSH1 0x4 ADD PUSH2 0x269B SWAP1 PUSH2 0x5126 JUMP JUMPDEST PUSH1 0x40 MLOAD DUP1 SWAP2 SUB SWAP1 REVERT JUMPDEST PUSH1 0x1 DUP2 PUSH1 0x4 ADD PUSH1 0x0 DUP3 DUP3 SLOAD PUSH2 0x26B9 SWAP2 SWAP1 PUSH2 0x4705 JUMP JUMPDEST SWAP3 POP POP DUP2 SWAP1 SSTORE POP PUSH1 0x1 PUSH1 0x10 PUSH1 0x0 DUP5 DUP2 MSTORE PUSH1 0x20 ADD SWAP1 DUP2 MSTORE PUSH1 0x20 ADD PUSH1 0x0 KECCAK256 PUSH1 0x0 CALLER PUSH20 0xFFFFFFFFFFFFFFFFFFFFFFFFFFFFFFFFFFFFFFFF AND PUSH20 0xFFFFFFFFFFFFFFFFFFFFFFFFFFFFFFFFFFFFFFFF AND DUP2 MSTORE PUSH1 0x20 ADD SWAP1 DUP2 MSTORE PUSH1 0x20 ADD PUSH1 0x0 KECCAK256 PUSH1 0x0 PUSH2 0x100 EXP DUP2 SLOAD DUP2 PUSH1 0xFF MUL NOT AND SWAP1 DUP4 ISZERO ISZERO MUL OR SWAP1 SSTORE POP JUMPDEST PUSH1 0x0 DUP1 SLOAD SWAP1 PUSH2 0x100 EXP SWAP1 DIV PUSH20 0xFFFFFFFFFFFFFFFFFFFFFFFFFFFFFFFFFFFFFFFF AND PUSH20 0xFFFFFFFFFFFFFFFFFFFFFFFFFFFFFFFFFFFFFFFF AND CALLER PUSH20 0xFFFFFFFFFFFFFFFFFFFFFFFFFFFFFFFFFFFFFFFF AND EQ DUP1 ISZERO PUSH2 0x2796 JUMPI POP TIMESTAMP PUSH1 0x6 SLOAD DUP3 PUSH1 0x2 ADD SLOAD PUSH2 0x2793 SWAP2 SWAP1 PUSH2 0x4705 JUMP JUMPDEST GT ISZERO JUMPDEST ISZERO PUSH2 0x27A7 JUMPI PUSH1 0x5 SLOAD DUP2 PUSH1 0x4 ADD DUP2 SWAP1 SSTORE POP JUMPDEST PUSH32 0x15C2F311C9E0F53B50388279894AEFF029A3457884A6601E924FCA879E12ADCC DUP3 CALLER PUSH1 0x40 MLOAD PUSH2 0x27D8 SWAP3 SWAP2 SWAP1 PUSH2 0x5146 JUMP JUMPDEST PUSH1 0x40 MLOAD DUP1 SWAP2 SUB SWAP1 LOG1 PUSH1 0x5 SLOAD DUP2 PUSH1 0x4 ADD SLOAD LT PUSH2 0x27F7 JUMPI PUSH2 0x27F6 DUP3 PUSH2 0x3590 JUMP JUMPDEST JUMPDEST POP POP JUMP JUMPDEST PUSH1 0x7 DUP2 DUP2 SLOAD DUP2 LT PUSH2 0x280B JUMPI PUSH1 0x0 DUP1 REVERT JUMPDEST SWAP1 PUSH1 0x0 MSTORE PUSH1 0x20 PUSH1 0x0 KECCAK256 ADD PUSH1 0x0 SWAP2 POP SLOAD SWAP1 PUSH2 0x100 EXP SWAP1 DIV PUSH20 0xFFFFFFFFFFFFFFFFFFFFFFFFFFFFFFFFFFFFFFFF AND DUP2 JUMP JUMPDEST PUSH1 0xC DUP2 DUP2 SLOAD DUP2 LT PUSH2 0x284A JUMPI PUSH1 0x0 DUP1 REVERT JUMPDEST SWAP1 PUSH1 0x0 MSTORE PUSH1 0x20 PUSH1 0x0 KECCAK256 SWAP1 PUSH1 0x6 MUL ADD PUSH1 0x0 SWAP2 POP SWAP1 POP DUP1 PUSH1 0x0 ADD PUSH1 0x0 SWAP1 SLOAD SWAP1 PUSH2 0x100 EXP SWAP1 DIV PUSH20 0xFFFFFFFFFFFFFFFFFFFFFFFFFFFFFFFFFFFFFFFF AND SWAP1 DUP1 PUSH1 0x1 ADD DUP1 SLOAD PUSH2 0x2893 SWAP1 PUSH2 0x4768 JUMP JUMPDEST DUP1 PUSH1 0x1F ADD PUSH1 0x20 DUP1 SWAP2 DIV MUL PUSH1 0x20 ADD PUSH1 0x40 MLOAD SWAP1 DUP2 ADD PUSH1 0x40 MSTORE DUP1 SWAP3 SWAP2 SWAP1 DUP2 DUP2 MSTORE PUSH1 0x20 ADD DUP3 DUP1 SLOAD PUSH2 0x28BF SWAP1 PUSH2 0x4768 JUMP JUMPDEST DUP1 ISZERO PUSH2 0x290C JUMPI DUP1 PUSH1 0x1F LT PUSH2 0x28E1 JUMPI PUSH2 0x100 DUP1 DUP4 SLOAD DIV MUL DUP4 MSTORE SWAP2 PUSH1 0x20 ADD SWAP2 PUSH2 0x290C JUMP JUMPDEST DUP3 ADD SWAP2 SWAP1 PUSH1 0x0 MSTORE PUSH1 0x20 PUSH1 0x0 KECCAK256 SWAP1 JUMPDEST DUP2 SLOAD DUP2 MSTORE SWAP1 PUSH1 0x1 ADD SWAP1 PUSH1 0x20 ADD DUP1 DUP4 GT PUSH2 0x28EF JUMPI DUP3 SWAP1 SUB PUSH1 0x1F AND DUP3 ADD SWAP2 JUMPDEST POP POP POP POP POP SWAP1 DUP1 PUSH1 0x2 ADD SLOAD SWAP1 DUP1 PUSH1 0x3 ADD PUSH1 0x0 SWAP1 SLOAD SWAP1 PUSH2 0x100 EXP SWAP1 DIV PUSH1 0xFF AND SWAP1 DUP1 PUSH1 0x4 ADD SLOAD SWAP1 DUP1 PUSH1 0x5 ADD SLOAD SWAP1 POP DUP7 JUMP JUMPDEST PUSH1 0x0 PUSH20 0xFFFFFFFFFFFFFFFFFFFFFFFFFFFFFFFFFFFFFFFF AND PUSH1 0x0 DUP1 SLOAD SWAP1 PUSH2 0x100 EXP SWAP1 DIV PUSH20 0xFFFFFFFFFFFFFFFFFFFFFFFFFFFFFFFFFFFFFFFF AND PUSH20 0xFFFFFFFFFFFFFFFFFFFFFFFFFFFFFFFFFFFFFFFF AND EQ PUSH2 0x29CA JUMPI PUSH1 0x40 MLOAD PUSH32 0x8C379A000000000000000000000000000000000000000000000000000000000 DUP2 MSTORE PUSH1 0x4 ADD PUSH2 0x29C1 SWAP1 PUSH2 0x51BB JUMP JUMPDEST PUSH1 0x40 MLOAD DUP1 SWAP2 SUB SWAP1 REVERT JUMPDEST DUP7 PUSH1 0x0 DUP1 PUSH2 0x100 EXP DUP2 SLOAD DUP2 PUSH20 0xFFFFFFFFFFFFFFFFFFFFFFFFFFFFFFFFFFFFFFFF MUL NOT AND SWAP1 DUP4 PUSH20 0xFFFFFFFFFFFFFFFFFFFFFFFFFFFFFFFFFFFFFFFF AND MUL OR SWAP1 SSTORE POP DUP6 PUSH1 0x1 SWAP1 DUP2 PUSH2 0x2A19 SWAP2 SWAP1 PUSH2 0x5236 JUMP JUMPDEST POP DUP5 PUSH1 0x2 PUSH1 0x0 PUSH2 0x100 EXP DUP2 SLOAD DUP2 PUSH20 0xFFFFFFFFFFFFFFFFFFFFFFFFFFFFFFFFFFFFFFFF MUL NOT AND SWAP1 DUP4 PUSH20 0xFFFFFFFFFFFFFFFFFFFFFFFFFFFFFFFFFFFFFFFF AND MUL OR SWAP1 SSTORE POP DUP3 PUSH1 0x4 DUP2 SWAP1 SSTORE POP DUP2 PUSH1 0x5 DUP2 SWAP1 SSTORE POP DUP1 PUSH1 0x6 DUP2 SWAP1 SSTORE POP PUSH1 0x1 PUSH1 0xF DUP2 SWAP1 SSTORE POP PUSH1 0x0 JUMPDEST DUP5 MLOAD DUP2 LT ISZERO PUSH2 0x2B03 JUMPI PUSH1 0x1 PUSH1 0x8 PUSH1 0x0 DUP8 DUP5 DUP2 MLOAD DUP2 LT PUSH2 0x2A9D JUMPI PUSH2 0x2A9C PUSH2 0x4903 JUMP JUMPDEST JUMPDEST PUSH1 0x20 MUL PUSH1 0x20 ADD ADD MLOAD PUSH20 0xFFFFFFFFFFFFFFFFFFFFFFFFFFFFFFFFFFFFFFFF AND PUSH20 0xFFFFFFFFFFFFFFFFFFFFFFFFFFFFFFFFFFFFFFFF AND DUP2 MSTORE PUSH1 0x20 ADD SWAP1 DUP2 MSTORE PUSH1 0x20 ADD PUSH1 0x0 KECCAK256 PUSH1 0x0 PUSH2 0x100 EXP DUP2 SLOAD DUP2 PUSH1 0xFF MUL NOT AND SWAP1 DUP4 ISZERO ISZERO MUL OR SWAP1 SSTORE POP DUP1 DUP1 PUSH1 0x1 ADD SWAP2 POP POP PUSH2 0x2A7B JUMP JUMPDEST POP DUP4 PUSH1 0x3 SWAP1 DUP1 MLOAD SWAP1 PUSH1 0x20 ADD SWAP1 PUSH2 0x2B1A SWAP3 SWAP2 SWAP1 PUSH2 0x37AE JUMP JUMPDEST POP POP POP POP POP POP POP POP JUMP JUMPDEST ADDRESS PUSH20 0xFFFFFFFFFFFFFFFFFFFFFFFFFFFFFFFFFFFFFFFF AND CALLER PUSH20 0xFFFFFFFFFFFFFFFFFFFFFFFFFFFFFFFFFFFFFFFF AND EQ PUSH2 0x2B92 JUMPI PUSH1 0x40 MLOAD PUSH32 0x8C379A000000000000000000000000000000000000000000000000000000000 DUP2 MSTORE PUSH1 0x4 ADD PUSH2 0x2B89 SWAP1 PUSH2 0x480B JUMP JUMPDEST PUSH1 0x40 MLOAD DUP1 SWAP2 SUB SWAP1 REVERT JUMPDEST DUP1 PUSH1 0x5 DUP2 SWAP1 SSTORE POP POP JUMP JUMPDEST PUSH1 0x0 DUP1 PUSH1 0x0 PUSH20 0xFFFFFFFFFFFFFFFFFFFFFFFFFFFFFFFFFFFFFFFF AND DUP4 PUSH20 0xFFFFFFFFFFFFFFFFFFFFFFFFFFFFFFFFFFFFFFFF AND EQ PUSH2 0x2C52 JUMPI DUP3 PUSH20 0xFFFFFFFFFFFFFFFFFFFFFFFFFFFFFFFFFFFFFFFF AND PUSH4 0x70A08231 ADDRESS PUSH1 0x40 MLOAD DUP3 PUSH4 0xFFFFFFFF AND PUSH1 0xE0 SHL DUP2 MSTORE PUSH1 0x4 ADD PUSH2 0x2C0C SWAP2 SWAP1 PUSH2 0x4178 JUMP JUMPDEST PUSH1 0x20 PUSH1 0x40 MLOAD DUP1 DUP4 SUB DUP2 DUP7 GAS STATICCALL ISZERO DUP1 ISZERO PUSH2 0x2C29 JUMPI RETURNDATASIZE PUSH1 0x0 DUP1 RETURNDATACOPY RETURNDATASIZE PUSH1 0x0 REVERT JUMPDEST POP POP POP POP PUSH1 0x40 MLOAD RETURNDATASIZE PUSH1 0x1F NOT PUSH1 0x1F DUP3 ADD AND DUP3 ADD DUP1 PUSH1 0x40 MSTORE POP DUP2 ADD SWAP1 PUSH2 0x2C4D SWAP2 SWAP1 PUSH2 0x44FB JUMP JUMPDEST PUSH2 0x2C54 JUMP JUMPDEST SELFBALANCE JUMPDEST SWAP1 POP PUSH1 0x0 PUSH1 0xB PUSH1 0x0 DUP6 PUSH20 0xFFFFFFFFFFFFFFFFFFFFFFFFFFFFFFFFFFFFFFFF AND PUSH20 0xFFFFFFFFFFFFFFFFFFFFFFFFFFFFFFFFFFFFFFFF AND DUP2 MSTORE PUSH1 0x20 ADD SWAP1 DUP2 MSTORE PUSH1 0x20 ADD PUSH1 0x0 KECCAK256 SWAP1 POP PUSH1 0x0 DUP2 PUSH1 0x0 ADD SLOAD GT ISZERO PUSH2 0x2CB4 JUMPI DUP1 PUSH1 0x0 ADD SLOAD SWAP3 POP POP POP PUSH2 0x2D3F JUMP JUMPDEST PUSH1 0x0 DUP2 PUSH1 0x1 ADD SLOAD GT ISZERO PUSH2 0x2CE6 JUMPI PUSH1 0x64 DUP2 PUSH1 0x1 ADD SLOAD DUP4 PUSH2 0x2CD3 SWAP2 SWAP1 PUSH2 0x4663 JUMP JUMPDEST PUSH2 0x2CDD SWAP2 SWAP1 PUSH2 0x46D4 JUMP JUMPDEST SWAP3 POP POP POP PUSH2 0x2D3F JUMP JUMPDEST PUSH1 0x1 DUP2 PUSH1 0x2 ADD SLOAD SUB PUSH2 0x2CFD JUMPI PUSH1 0x0 SWAP3 POP POP POP PUSH2 0x2D3F JUMP JUMPDEST PUSH1 0x2 DUP2 PUSH1 0x2 ADD SLOAD SUB PUSH2 0x2D20 JUMPI PUSH13 0xC9F2C9CD04674EDEA40000000 SWAP3 POP POP POP PUSH2 0x2D3F JUMP JUMPDEST PUSH1 0x64 PUSH1 0x4 SLOAD DUP4 PUSH2 0x2D30 SWAP2 SWAP1 PUSH2 0x4663 JUMP JUMPDEST PUSH2 0x2D3A SWAP2 SWAP1 PUSH2 0x46D4 JUMP JUMPDEST SWAP3 POP POP POP JUMPDEST SWAP2 SWAP1 POP JUMP JUMPDEST PUSH1 0x0 DUP1 PUSH1 0x0 PUSH20 0xFFFFFFFFFFFFFFFFFFFFFFFFFFFFFFFFFFFFFFFF AND DUP5 PUSH20 0xFFFFFFFFFFFFFFFFFFFFFFFFFFFFFFFFFFFFFFFF AND EQ PUSH2 0x2DFA JUMPI DUP4 PUSH20 0xFFFFFFFFFFFFFFFFFFFFFFFFFFFFFFFFFFFFFFFF AND PUSH4 0x70A08231 ADDRESS PUSH1 0x40 MLOAD DUP3 PUSH4 0xFFFFFFFF AND PUSH1 0xE0 SHL DUP2 MSTORE PUSH1 0x4 ADD PUSH2 0x2DB4 SWAP2 SWAP1 PUSH2 0x4178 JUMP JUMPDEST PUSH1 0x20 PUSH1 0x40 MLOAD DUP1 DUP4 SUB DUP2 DUP7 GAS STATICCALL ISZERO DUP1 ISZERO PUSH2 0x2DD1 JUMPI RETURNDATASIZE PUSH1 0x0 DUP1 RETURNDATACOPY RETURNDATASIZE PUSH1 0x0 REVERT JUMPDEST POP POP POP POP PUSH1 0x40 MLOAD RETURNDATASIZE PUSH1 0x1F NOT PUSH1 0x1F DUP3 ADD AND DUP3 ADD DUP1 PUSH1 0x40 MSTORE POP DUP2 ADD SWAP1 PUSH2 0x2DF5 SWAP2 SWAP1 PUSH2 0x44FB JUMP JUMPDEST PUSH2 0x2DFC JUMP JUMPDEST SELFBALANCE JUMPDEST SWAP1 POP DUP3 DUP2 LT ISZERO PUSH2 0x2E41 JUMPI PUSH1 0x40 MLOAD PUSH32 0x8C379A000000000000000000000000000000000000000000000000000000000 DUP2 MSTORE PUSH1 0x4 ADD PUSH2 0x2E38 SWAP1 PUSH2 0x4574 JUMP JUMPDEST PUSH1 0x40 MLOAD DUP1 SWAP2 SUB SWAP1 REVERT JUMPDEST PUSH1 0x0 PUSH2 0x2E4C DUP6 PUSH2 0x2B9C JUMP JUMPDEST SWAP1 POP PUSH1 0x0 PUSH1 0xA PUSH1 0x0 DUP8 PUSH20 0xFFFFFFFFFFFFFFFFFFFFFFFFFFFFFFFFFFFFFFFF AND PUSH20 0xFFFFFFFFFFFFFFFFFFFFFFFFFFFFFFFFFFFFFFFF AND DUP2 MSTORE PUSH1 0x20 ADD SWAP1 DUP2 MSTORE PUSH1 0x20 ADD PUSH1 0x0 KECCAK256 SLOAD TIMESTAMP PUSH2 0x2E9B SWAP2 SWAP1 PUSH2 0x462F JUMP JUMPDEST SWAP1 POP PUSH1 0x0 PUSH1 0x9 PUSH1 0x0 DUP9 PUSH20 0xFFFFFFFFFFFFFFFFFFFFFFFFFFFFFFFFFFFFFFFF AND PUSH20 0xFFFFFFFFFFFFFFFFFFFFFFFFFFFFFFFFFFFFFFFF AND DUP2 MSTORE PUSH1 0x20 ADD SWAP1 DUP2 MSTORE PUSH1 0x20 ADD PUSH1 0x0 KECCAK256 SLOAD SWAP1 POP PUSH3 0x15180 DUP3 LT PUSH2 0x2EF0 JUMPI PUSH1 0x0 SWAP1 POP JUMPDEST PUSH1 0x0 PUSH1 0x9 PUSH1 0x0 DUP10 PUSH20 0xFFFFFFFFFFFFFFFFFFFFFFFFFFFFFFFFFFFFFFFF AND PUSH20 0xFFFFFFFFFFFFFFFFFFFFFFFFFFFFFFFFFFFFFFFF AND DUP2 MSTORE PUSH1 0x20 ADD SWAP1 DUP2 MSTORE PUSH1 0x20 ADD PUSH1 0x0 KECCAK256 SLOAD PUSH3 0x15180 DUP6 DUP6 PUSH2 0x2F42 SWAP2 SWAP1 PUSH2 0x4663 JUMP JUMPDEST PUSH2 0x2F4C SWAP2 SWAP1 PUSH2 0x46D4 JUMP JUMPDEST DUP6 PUSH2 0x2F57 SWAP2 SWAP1 PUSH2 0x4705 JUMP JUMPDEST GT PUSH2 0x2F63 JUMPI PUSH1 0x0 PUSH2 0x2FD3 JUMP JUMPDEST PUSH1 0x9 PUSH1 0x0 DUP10 PUSH20 0xFFFFFFFFFFFFFFFFFFFFFFFFFFFFFFFFFFFFFFFF AND PUSH20 0xFFFFFFFFFFFFFFFFFFFFFFFFFFFFFFFFFFFFFFFF AND DUP2 MSTORE PUSH1 0x20 ADD SWAP1 DUP2 MSTORE PUSH1 0x20 ADD PUSH1 0x0 KECCAK256 SLOAD PUSH3 0x15180 DUP6 DUP6 PUSH2 0x2FB3 SWAP2 SWAP1 PUSH2 0x4663 JUMP JUMPDEST PUSH2 0x2FBD SWAP2 SWAP1 PUSH2 0x46D4 JUMP JUMPDEST DUP6 PUSH2 0x2FC8 SWAP2 SWAP1 PUSH2 0x4705 JUMP JUMPDEST PUSH2 0x2FD2 SWAP2 SWAP1 PUSH2 0x462F JUMP JUMPDEST JUMPDEST SWAP1 POP DUP4 DUP2 GT ISZERO PUSH2 0x2FE1 JUMPI DUP4 SWAP1 POP JUMPDEST DUP1 DUP8 GT PUSH2 0x3004 JUMPI PUSH1 0x0 DUP8 SUB PUSH2 0x2FF6 JUMPI DUP1 PUSH2 0x2FF8 JUMP JUMPDEST DUP7 JUMPDEST SWAP6 POP POP POP POP POP POP PUSH2 0x300E JUMP JUMPDEST PUSH1 0x0 SWAP6 POP POP POP POP POP POP JUMPDEST SWAP4 SWAP3 POP POP POP JUMP JUMPDEST ADDRESS PUSH20 0xFFFFFFFFFFFFFFFFFFFFFFFFFFFFFFFFFFFFFFFF AND CALLER PUSH20 0xFFFFFFFFFFFFFFFFFFFFFFFFFFFFFFFFFFFFFFFF AND EQ PUSH2 0x3083 JUMPI PUSH1 0x40 MLOAD PUSH32 0x8C379A000000000000000000000000000000000000000000000000000000000 DUP2 MSTORE PUSH1 0x4 ADD PUSH2 0x307A SWAP1 PUSH2 0x480B JUMP JUMPDEST PUSH1 0x40 MLOAD DUP1 SWAP2 SUB SWAP1 REVERT JUMPDEST DUP1 PUSH1 0x4 DUP2 SWAP1 SSTORE POP POP JUMP JUMPDEST PUSH1 0x60 PUSH1 0x0 PUSH20 0xFFFFFFFFFFFFFFFFFFFFFFFFFFFFFFFFFFFFFFFF AND DUP5 PUSH20 0xFFFFFFFFFFFFFFFFFFFFFFFFFFFFFFFFFFFFFFFF AND SUB PUSH2 0x30E5 JUMPI PUSH1 0x40 MLOAD DUP1 PUSH1 0x20 ADD PUSH1 0x40 MSTORE DUP1 PUSH1 0x0 DUP2 MSTORE POP SWAP1 POP PUSH2 0x30E0 DUP4 DUP3 DUP5 PUSH2 0x2031 JUMP JUMPDEST PUSH2 0x3184 JUMP JUMPDEST DUP3 DUP3 PUSH1 0x40 MLOAD PUSH1 0x24 ADD PUSH2 0x30F8 SWAP3 SWAP2 SWAP1 PUSH2 0x4BDE JUMP JUMPDEST PUSH1 0x40 MLOAD PUSH1 0x20 DUP2 DUP4 SUB SUB DUP2 MSTORE SWAP1 PUSH1 0x40 MSTORE PUSH32 0xA9059CBB00000000000000000000000000000000000000000000000000000000 PUSH28 0xFFFFFFFFFFFFFFFFFFFFFFFFFFFFFFFFFFFFFFFFFFFFFFFFFFFFFFFF NOT AND PUSH1 0x20 DUP3 ADD DUP1 MLOAD PUSH28 0xFFFFFFFFFFFFFFFFFFFFFFFFFFFFFFFFFFFFFFFFFFFFFFFFFFFFFFFF DUP4 DUP2 DUP4 AND OR DUP4 MSTORE POP POP POP POP SWAP1 POP PUSH2 0x3183 DUP5 DUP3 PUSH1 0x0 PUSH2 0x2031 JUMP JUMPDEST JUMPDEST POP POP POP POP JUMP JUMPDEST PUSH1 0x0 PUSH20 0xFFFFFFFFFFFFFFFFFFFFFFFFFFFFFFFFFFFFFFFF AND DUP3 PUSH20 0xFFFFFFFFFFFFFFFFFFFFFFFFFFFFFFFFFFFFFFFF AND SUB PUSH2 0x3270 JUMPI PUSH1 0x0 DUP4 PUSH20 0xFFFFFFFFFFFFFFFFFFFFFFFFFFFFFFFFFFFFFFFF AND DUP3 PUSH1 0x40 MLOAD PUSH2 0x31E4 SWAP1 PUSH2 0x532E JUMP JUMPDEST PUSH1 0x0 PUSH1 0x40 MLOAD DUP1 DUP4 SUB DUP2 DUP6 DUP8 GAS CALL SWAP3 POP POP POP RETURNDATASIZE DUP1 PUSH1 0x0 DUP2 EQ PUSH2 0x3221 JUMPI PUSH1 0x40 MLOAD SWAP2 POP PUSH1 0x1F NOT PUSH1 0x3F RETURNDATASIZE ADD AND DUP3 ADD PUSH1 0x40 MSTORE RETURNDATASIZE DUP3 MSTORE RETURNDATASIZE PUSH1 0x0 PUSH1 0x20 DUP5 ADD RETURNDATACOPY PUSH2 0x3226 JUMP JUMPDEST PUSH1 0x60 SWAP2 POP JUMPDEST POP POP SWAP1 POP DUP1 PUSH2 0x326A JUMPI PUSH1 0x40 MLOAD PUSH32 0x8C379A000000000000000000000000000000000000000000000000000000000 DUP2 MSTORE PUSH1 0x4 ADD PUSH2 0x3261 SWAP1 PUSH2 0x4BBE JUMP JUMPDEST PUSH1 0x40 MLOAD DUP1 SWAP2 SUB SWAP1 REVERT JUMPDEST POP PUSH2 0x332E JUMP JUMPDEST DUP2 PUSH20 0xFFFFFFFFFFFFFFFFFFFFFFFFFFFFFFFFFFFFFFFF AND PUSH4 0xA9059CBB DUP5 DUP4 PUSH1 0x40 MLOAD DUP4 PUSH4 0xFFFFFFFF AND PUSH1 0xE0 SHL DUP2 MSTORE PUSH1 0x4 ADD PUSH2 0x32AB SWAP3 SWAP2 SWAP1 PUSH2 0x4BDE JUMP JUMPDEST PUSH1 0x20 PUSH1 0x40 MLOAD DUP1 DUP4 SUB DUP2 PUSH1 0x0 DUP8 GAS CALL ISZERO DUP1 ISZERO PUSH2 0x32CA JUMPI RETURNDATASIZE PUSH1 0x0 DUP1 RETURNDATACOPY RETURNDATASIZE PUSH1 0x0 REVERT JUMPDEST POP POP POP POP PUSH1 0x40 MLOAD RETURNDATASIZE PUSH1 0x1F NOT PUSH1 0x1F DUP3 ADD AND DUP3 ADD DUP1 PUSH1 0x40 MSTORE POP DUP2 ADD SWAP1 PUSH2 0x32EE SWAP2 SWAP1 PUSH2 0x4B45 JUMP JUMPDEST PUSH2 0x332D JUMPI PUSH1 0x40 MLOAD PUSH32 0x8C379A000000000000000000000000000000000000000000000000000000000 DUP2 MSTORE PUSH1 0x4 ADD PUSH2 0x3324 SWAP1 PUSH2 0x4BBE JUMP JUMPDEST PUSH1 0x40 MLOAD DUP1 SWAP2 SUB SWAP1 REVERT JUMPDEST JUMPDEST PUSH32 0xA2BD9FCFCDBA69F52BCD9A520846AD4BD685B187483F53EFC42D035B2DDEBFF0 DUP3 DUP3 PUSH1 0x40 MLOAD PUSH2 0x335F SWAP3 SWAP2 SWAP1 PUSH2 0x4BDE JUMP JUMPDEST PUSH1 0x40 MLOAD DUP1 SWAP2 SUB SWAP1 LOG1 PUSH1 0x0 PUSH1 0xC PUSH1 0x1 DUP2 PUSH1 0x1 DUP2 SLOAD ADD DUP1 DUP3 SSTORE DUP1 SWAP2 POP POP SUB SWAP1 PUSH1 0x0 MSTORE PUSH1 0x20 PUSH1 0x0 KECCAK256 SWAP1 PUSH1 0x6 MUL ADD SWAP1 POP PUSH1 0x0 PUSH20 0xFFFFFFFFFFFFFFFFFFFFFFFFFFFFFFFFFFFFFFFF AND DUP4 PUSH20 0xFFFFFFFFFFFFFFFFFFFFFFFFFFFFFFFFFFFFFFFF AND SUB PUSH2 0x33C5 JUMPI DUP4 PUSH2 0x33C7 JUMP JUMPDEST DUP3 JUMPDEST DUP2 PUSH1 0x0 ADD PUSH1 0x0 PUSH2 0x100 EXP DUP2 SLOAD DUP2 PUSH20 0xFFFFFFFFFFFFFFFFFFFFFFFFFFFFFFFFFFFFFFFF MUL NOT AND SWAP1 DUP4 PUSH20 0xFFFFFFFFFFFFFFFFFFFFFFFFFFFFFFFFFFFFFFFF AND MUL OR SWAP1 SSTORE POP DUP4 DUP3 PUSH1 0x40 MLOAD PUSH1 0x24 ADD PUSH2 0x341C SWAP3 SWAP2 SWAP1 PUSH2 0x4BDE JUMP JUMPDEST PUSH1 0x40 MLOAD PUSH1 0x20 DUP2 DUP4 SUB SUB DUP2 MSTORE SWAP1 PUSH1 0x40 MSTORE PUSH32 0xA9059CBB00000000000000000000000000000000000000000000000000000000 PUSH28 0xFFFFFFFFFFFFFFFFFFFFFFFFFFFFFFFFFFFFFFFFFFFFFFFFFFFFFFFF NOT AND PUSH1 0x20 DUP3 ADD DUP1 MLOAD PUSH28 0xFFFFFFFFFFFFFFFFFFFFFFFFFFFFFFFFFFFFFFFFFFFFFFFFFFFFFFFF DUP4 DUP2 DUP4 AND OR DUP4 MSTORE POP POP POP POP DUP2 PUSH1 0x1 ADD SWAP1 DUP2 PUSH2 0x34A9 SWAP2 SWAP1 PUSH2 0x4F96 JUMP JUMPDEST POP TIMESTAMP DUP2 PUSH1 0x2 ADD DUP2 SWAP1 SSTORE POP PUSH1 0x1 DUP2 PUSH1 0x3 ADD PUSH1 0x0 PUSH2 0x100 EXP DUP2 SLOAD DUP2 PUSH1 0xFF MUL NOT AND SWAP1 DUP4 ISZERO ISZERO MUL OR SWAP1 SSTORE POP DUP2 DUP2 PUSH1 0x5 ADD DUP2 SWAP1 SSTORE POP PUSH1 0x1 PUSH1 0xD PUSH1 0x0 DUP3 DUP3 SLOAD PUSH2 0x34EC SWAP2 SWAP1 PUSH2 0x4705 JUMP JUMPDEST SWAP3 POP POP DUP2 SWAP1 SSTORE POP PUSH32 0xC243F4BE367411622FB5772863ED10B8A7D6941C97F4EF7AB6885E4CF7B5CD32 PUSH1 0x1 PUSH1 0xC DUP1 SLOAD SWAP1 POP PUSH2 0x3526 SWAP2 SWAP1 PUSH2 0x462F JUMP JUMPDEST DUP6 PUSH1 0x0 PUSH1 0x40 MLOAD PUSH2 0x3538 SWAP4 SWAP3 SWAP2 SWAP1 PUSH2 0x53A1 JUMP JUMPDEST PUSH1 0x40 MLOAD DUP1 SWAP2 SUB SWAP1 LOG1 PUSH32 0x518DF7417EA3AD72D40E6F8BD20A6344A813B8B5E5CC0638F8CBD1487107C339 PUSH1 0x1 PUSH1 0xC DUP1 SLOAD SWAP1 POP PUSH2 0x3573 SWAP2 SWAP1 PUSH2 0x462F JUMP JUMPDEST DUP6 PUSH1 0x40 MLOAD PUSH2 0x3582 SWAP3 SWAP2 SWAP1 PUSH2 0x53EB JUMP JUMPDEST PUSH1 0x40 MLOAD DUP1 SWAP2 SUB SWAP1 LOG1 POP POP POP POP JUMP JUMPDEST PUSH1 0x0 PUSH1 0xC DUP3 DUP2 SLOAD DUP2 LT PUSH2 0x35A6 JUMPI PUSH2 0x35A5 PUSH2 0x4903 JUMP JUMPDEST JUMPDEST SWAP1 PUSH1 0x0 MSTORE PUSH1 0x20 PUSH1 0x0 KECCAK256 SWAP1 PUSH1 0x6 MUL ADD SWAP1 POP PUSH1 0x5 SLOAD DUP2 PUSH1 0x4 ADD SLOAD LT ISZERO PUSH2 0x35FF JUMPI PUSH1 0x40 MLOAD PUSH32 0x8C379A000000000000000000000000000000000000000000000000000000000 DUP2 MSTORE PUSH1 0x4 ADD PUSH2 0x35F6 SWAP1 PUSH2 0x5473 JUMP JUMPDEST PUSH1 0x40 MLOAD DUP1 SWAP2 SUB SWAP1 REVERT JUMPDEST DUP1 PUSH1 0x3 ADD PUSH1 0x0 SWAP1 SLOAD SWAP1 PUSH2 0x100 EXP SWAP1 DIV PUSH1 0xFF AND ISZERO PUSH2 0x3651 JUMPI PUSH1 0x40 MLOAD PUSH32 0x8C379A000000000000000000000000000000000000000000000000000000000 DUP2 MSTORE PUSH1 0x4 ADD PUSH2 0x3648 SWAP1 PUSH2 0x4A56 JUMP JUMPDEST PUSH1 0x40 MLOAD DUP1 SWAP2 SUB SWAP1 REVERT JUMPDEST PUSH1 0x1 DUP2 PUSH1 0x3 ADD PUSH1 0x0 PUSH2 0x100 EXP DUP2 SLOAD DUP2 PUSH1 0xFF MUL NOT AND SWAP1 DUP4 ISZERO ISZERO MUL OR SWAP1 SSTORE POP PUSH1 0x0 DUP2 PUSH1 0x0 ADD PUSH1 0x0 SWAP1 SLOAD SWAP1 PUSH2 0x100 EXP SWAP1 DIV PUSH20 0xFFFFFFFFFFFFFFFFFFFFFFFFFFFFFFFFFFFFFFFF AND PUSH20 0xFFFFFFFFFFFFFFFFFFFFFFFFFFFFFFFFFFFFFFFF AND DUP3 PUSH1 0x5 ADD SLOAD DUP4 PUSH1 0x1 ADD PUSH1 0x40 MLOAD PUSH2 0x36C1 SWAP2 SWAP1 PUSH2 0x5516 JUMP JUMPDEST PUSH1 0x0 PUSH1 0x40 MLOAD DUP1 DUP4 SUB DUP2 DUP6 DUP8 GAS CALL SWAP3 POP POP POP RETURNDATASIZE DUP1 PUSH1 0x0 DUP2 EQ PUSH2 0x36FE JUMPI PUSH1 0x40 MLOAD SWAP2 POP PUSH1 0x1F NOT PUSH1 0x3F RETURNDATASIZE ADD AND DUP3 ADD PUSH1 0x40 MSTORE RETURNDATASIZE DUP3 MSTORE RETURNDATASIZE PUSH1 0x0 PUSH1 0x20 DUP5 ADD RETURNDATACOPY PUSH2 0x3703 JUMP JUMPDEST PUSH1 0x60 SWAP2 POP JUMPDEST POP POP SWAP1 POP DUP1 PUSH2 0x3747 JUMPI PUSH1 0x40 MLOAD PUSH32 0x8C379A000000000000000000000000000000000000000000000000000000000 DUP2 MSTORE PUSH1 0x4 ADD PUSH2 0x373E SWAP1 PUSH2 0x5579 JUMP JUMPDEST PUSH1 0x40 MLOAD DUP1 SWAP2 SUB SWAP1 REVERT JUMPDEST PUSH32 0x518DF7417EA3AD72D40E6F8BD20A6344A813B8B5E5CC0638F8CBD1487107C339 DUP4 DUP4 PUSH1 0x0 ADD PUSH1 0x0 SWAP1 SLOAD SWAP1 PUSH2 0x100 EXP SWAP1 DIV PUSH20 0xFFFFFFFFFFFFFFFFFFFFFFFFFFFFFFFFFFFFFFFF AND DUP5 PUSH1 0x1 ADD PUSH1 0x40 MLOAD PUSH2 0x37A1 SWAP4 SWAP3 SWAP2 SWAP1 PUSH2 0x561D JUMP JUMPDEST PUSH1 0x40 MLOAD DUP1 SWAP2 SUB SWAP1 LOG1 POP POP POP JUMP JUMPDEST DUP3 DUP1 SLOAD DUP3 DUP3 SSTORE SWAP1 PUSH1 0x0 MSTORE PUSH1 0x20 PUSH1 0x0 KECCAK256 SWAP1 DUP2 ADD SWAP3 DUP3 ISZERO PUSH2 0x3827 JUMPI SWAP2 PUSH1 0x20 MUL DUP3 ADD JUMPDEST DUP3 DUP2 GT ISZERO PUSH2 0x3826 JUMPI DUP3 MLOAD DUP3 PUSH1 0x0 PUSH2 0x100 EXP DUP2 SLOAD DUP2 PUSH20 0xFFFFFFFFFFFFFFFFFFFFFFFFFFFFFFFFFFFFFFFF MUL NOT AND SWAP1 DUP4 PUSH20 0xFFFFFFFFFFFFFFFFFFFFFFFFFFFFFFFFFFFFFFFF AND MUL OR SWAP1 SSTORE POP SWAP2 PUSH1 0x20 ADD SWAP2 SWAP1 PUSH1 0x1 ADD SWAP1 PUSH2 0x37CE JUMP JUMPDEST JUMPDEST POP SWAP1 POP PUSH2 0x3834 SWAP2 SWAP1 PUSH2 0x3838 JUMP JUMPDEST POP SWAP1 JUMP JUMPDEST JUMPDEST DUP1 DUP3 GT ISZERO PUSH2 0x3851 JUMPI PUSH1 0x0 DUP2 PUSH1 0x0 SWAP1 SSTORE POP PUSH1 0x1 ADD PUSH2 0x3839 JUMP JUMPDEST POP SWAP1 JUMP JUMPDEST PUSH1 0x0 PUSH1 0x40 MLOAD SWAP1 POP SWAP1 JUMP JUMPDEST PUSH1 0x0 DUP1 REVERT JUMPDEST PUSH1 0x0 DUP1 REVERT JUMPDEST PUSH1 0x0 PUSH20 0xFFFFFFFFFFFFFFFFFFFFFFFFFFFFFFFFFFFFFFFF DUP3 AND SWAP1 POP SWAP2 SWAP1 POP JUMP JUMPDEST PUSH1 0x0 PUSH2 0x3894 DUP3 PUSH2 0x3869 JUMP JUMPDEST SWAP1 POP SWAP2 SWAP1 POP JUMP JUMPDEST PUSH2 0x38A4 DUP2 PUSH2 0x3889 JUMP JUMPDEST DUP2 EQ PUSH2 0x38AF JUMPI PUSH1 0x0 DUP1 REVERT JUMPDEST POP JUMP JUMPDEST PUSH1 0x0 DUP2 CALLDATALOAD SWAP1 POP PUSH2 0x38C1 DUP2 PUSH2 0x389B JUMP JUMPDEST SWAP3 SWAP2 POP POP JUMP JUMPDEST PUSH1 0x0 DUP2 SWAP1 POP SWAP2 SWAP1 POP JUMP JUMPDEST PUSH2 0x38DA DUP2 PUSH2 0x38C7 JUMP JUMPDEST DUP2 EQ PUSH2 0x38E5 JUMPI PUSH1 0x0 DUP1 REVERT JUMPDEST POP JUMP JUMPDEST PUSH1 0x0 DUP2 CALLDATALOAD SWAP1 POP PUSH2 0x38F7 DUP2 PUSH2 0x38D1 JUMP JUMPDEST SWAP3 SWAP2 POP POP JUMP JUMPDEST PUSH1 0x0 DUP1 PUSH1 0x0 PUSH1 0x60 DUP5 DUP7 SUB SLT ISZERO PUSH2 0x3916 JUMPI PUSH2 0x3915 PUSH2 0x385F JUMP JUMPDEST JUMPDEST PUSH1 0x0 PUSH2 0x3924 DUP7 DUP3 DUP8 ADD PUSH2 0x38B2 JUMP JUMPDEST SWAP4 POP POP PUSH1 0x20 PUSH2 0x3935 DUP7 DUP3 DUP8 ADD PUSH2 0x38B2 JUMP JUMPDEST SWAP3 POP POP PUSH1 0x40 PUSH2 0x3946 DUP7 DUP3 DUP8 ADD PUSH2 0x38E8 JUMP JUMPDEST SWAP2 POP POP SWAP3 POP SWAP3 POP SWAP3 JUMP JUMPDEST PUSH1 0x0 DUP2 MLOAD SWAP1 POP SWAP2 SWAP1 POP JUMP JUMPDEST PUSH1 0x0 DUP3 DUP3 MSTORE PUSH1 0x20 DUP3 ADD SWAP1 POP SWAP3 SWAP2 POP POP JUMP JUMPDEST PUSH1 0x0 JUMPDEST DUP4 DUP2 LT ISZERO PUSH2 0x398A JUMPI DUP1 DUP3 ADD MLOAD DUP2 DUP5 ADD MSTORE PUSH1 0x20 DUP2 ADD SWAP1 POP PUSH2 0x396F JUMP JUMPDEST PUSH1 0x0 DUP5 DUP5 ADD MSTORE POP POP POP POP JUMP JUMPDEST PUSH1 0x0 PUSH1 0x1F NOT PUSH1 0x1F DUP4 ADD AND SWAP1 POP SWAP2 SWAP1 POP JUMP JUMPDEST PUSH1 0x0 PUSH2 0x39B2 DUP3 PUSH2 0x3950 JUMP JUMPDEST PUSH2 0x39BC DUP2 DUP6 PUSH2 0x395B JUMP JUMPDEST SWAP4 POP PUSH2 0x39CC DUP2 DUP6 PUSH1 0x20 DUP7 ADD PUSH2 0x396C JUMP JUMPDEST PUSH2 0x39D5 DUP2 PUSH2 0x3996 JUMP JUMPDEST DUP5 ADD SWAP2 POP POP SWAP3 SWAP2 POP POP JUMP JUMPDEST PUSH1 0x0 PUSH1 0x20 DUP3 ADD SWAP1 POP DUP2 DUP2 SUB PUSH1 0x0 DUP4 ADD MSTORE PUSH2 0x39FA DUP2 DUP5 PUSH2 0x39A7 JUMP JUMPDEST SWAP1 POP SWAP3 SWAP2 POP POP JUMP JUMPDEST PUSH1 0x0 DUP1 REVERT JUMPDEST PUSH1 0x0 DUP1 REVERT JUMPDEST PUSH32 0x4E487B7100000000000000000000000000000000000000000000000000000000 PUSH1 0x0 MSTORE PUSH1 0x41 PUSH1 0x4 MSTORE PUSH1 0x24 PUSH1 0x0 REVERT JUMPDEST PUSH2 0x3A44 DUP3 PUSH2 0x3996 JUMP JUMPDEST DUP2 ADD DUP2 DUP2 LT PUSH8 0xFFFFFFFFFFFFFFFF DUP3 GT OR ISZERO PUSH2 0x3A63 JUMPI PUSH2 0x3A62 PUSH2 0x3A0C JUMP JUMPDEST JUMPDEST DUP1 PUSH1 0x40 MSTORE POP POP POP JUMP JUMPDEST PUSH1 0x0 PUSH2 0x3A76 PUSH2 0x3855 JUMP JUMPDEST SWAP1 POP PUSH2 0x3A82 DUP3 DUP3 PUSH2 0x3A3B JUMP JUMPDEST SWAP2 SWAP1 POP JUMP JUMPDEST PUSH1 0x0 PUSH8 0xFFFFFFFFFFFFFFFF DUP3 GT ISZERO PUSH2 0x3AA2 JUMPI PUSH2 0x3AA1 PUSH2 0x3A0C JUMP JUMPDEST JUMPDEST PUSH2 0x3AAB DUP3 PUSH2 0x3996 JUMP JUMPDEST SWAP1 POP PUSH1 0x20 DUP2 ADD SWAP1 POP SWAP2 SWAP1 POP JUMP JUMPDEST DUP3 DUP2 DUP4 CALLDATACOPY PUSH1 0x0 DUP4 DUP4 ADD MSTORE POP POP POP JUMP JUMPDEST PUSH1 0x0 PUSH2 0x3ADA PUSH2 0x3AD5 DUP5 PUSH2 0x3A87 JUMP JUMPDEST PUSH2 0x3A6C JUMP JUMPDEST SWAP1 POP DUP3 DUP2 MSTORE PUSH1 0x20 DUP2 ADD DUP5 DUP5 DUP5 ADD GT ISZERO PUSH2 0x3AF6 JUMPI PUSH2 0x3AF5 PUSH2 0x3A07 JUMP JUMPDEST JUMPDEST PUSH2 0x3B01 DUP5 DUP3 DUP6 PUSH2 0x3AB8 JUMP JUMPDEST POP SWAP4 SWAP3 POP POP POP JUMP JUMPDEST PUSH1 0x0 DUP3 PUSH1 0x1F DUP4 ADD SLT PUSH2 0x3B1E JUMPI PUSH2 0x3B1D PUSH2 0x3A02 JUMP JUMPDEST JUMPDEST DUP2 CALLDATALOAD PUSH2 0x3B2E DUP5 DUP3 PUSH1 0x20 DUP7 ADD PUSH2 0x3AC7 JUMP JUMPDEST SWAP2 POP POP SWAP3 SWAP2 POP POP JUMP JUMPDEST PUSH1 0x0 DUP1 PUSH1 0x0 DUP1 PUSH1 0x80 DUP6 DUP8 SUB SLT ISZERO PUSH2 0x3B51 JUMPI PUSH2 0x3B50 PUSH2 0x385F JUMP JUMPDEST JUMPDEST PUSH1 0x0 PUSH2 0x3B5F DUP8 DUP3 DUP9 ADD PUSH2 0x38B2 JUMP JUMPDEST SWAP5 POP POP PUSH1 0x20 PUSH2 0x3B70 DUP8 DUP3 DUP9 ADD PUSH2 0x38B2 JUMP JUMPDEST SWAP4 POP POP PUSH1 0x40 PUSH2 0x3B81 DUP8 DUP3 DUP9 ADD PUSH2 0x38E8 JUMP JUMPDEST SWAP3 POP POP PUSH1 0x60 DUP6 ADD CALLDATALOAD PUSH8 0xFFFFFFFFFFFFFFFF DUP2 GT ISZERO PUSH2 0x3BA2 JUMPI PUSH2 0x3BA1 PUSH2 0x3864 JUMP JUMPDEST JUMPDEST PUSH2 0x3BAE DUP8 DUP3 DUP9 ADD PUSH2 0x3B09 JUMP JUMPDEST SWAP2 POP POP SWAP3 SWAP6 SWAP2 SWAP5 POP SWAP3 POP JUMP JUMPDEST PUSH1 0x0 PUSH32 0xFFFFFFFF00000000000000000000000000000000000000000000000000000000 DUP3 AND SWAP1 POP SWAP2 SWAP1 POP JUMP JUMPDEST PUSH2 0x3BEF DUP2 PUSH2 0x3BBA JUMP JUMPDEST DUP3 MSTORE POP POP JUMP JUMPDEST PUSH1 0x0 PUSH1 0x20 DUP3 ADD SWAP1 POP PUSH2 0x3C0A PUSH1 0x0 DUP4 ADD DUP5 PUSH2 0x3BE6 JUMP JUMPDEST SWAP3 SWAP2 POP POP JUMP JUMPDEST PUSH1 0x0 DUP1 PUSH1 0x0 DUP1 PUSH1 0x80 DUP6 DUP8 SUB SLT ISZERO PUSH2 0x3C2A JUMPI PUSH2 0x3C29 PUSH2 0x385F JUMP JUMPDEST JUMPDEST PUSH1 0x0 PUSH2 0x3C38 DUP8 DUP3 DUP9 ADD PUSH2 0x38B2 JUMP JUMPDEST SWAP5 POP POP PUSH1 0x20 PUSH2 0x3C49 DUP8 DUP3 DUP9 ADD PUSH2 0x38E8 JUMP JUMPDEST SWAP4 POP POP PUSH1 0x40 PUSH2 0x3C5A DUP8 DUP3 DUP9 ADD PUSH2 0x38E8 JUMP JUMPDEST SWAP3 POP POP PUSH1 0x60 PUSH2 0x3C6B DUP8 DUP3 DUP9 ADD PUSH2 0x38E8 JUMP JUMPDEST SWAP2 POP POP SWAP3 SWAP6 SWAP2 SWAP5 POP SWAP3 POP JUMP JUMPDEST PUSH1 0x0 PUSH8 0xFFFFFFFFFFFFFFFF DUP3 GT ISZERO PUSH2 0x3C92 JUMPI PUSH2 0x3C91 PUSH2 0x3A0C JUMP JUMPDEST JUMPDEST PUSH1 0x20 DUP3 MUL SWAP1 POP PUSH1 0x20 DUP2 ADD SWAP1 POP SWAP2 SWAP1 POP JUMP JUMPDEST PUSH1 0x0 DUP1 REVERT JUMPDEST PUSH1 0x0 PUSH2 0x3CBB PUSH2 0x3CB6 DUP5 PUSH2 0x3C77 JUMP JUMPDEST PUSH2 0x3A6C JUMP JUMPDEST SWAP1 POP DUP1 DUP4 DUP3 MSTORE PUSH1 0x20 DUP3 ADD SWAP1 POP PUSH1 0x20 DUP5 MUL DUP4 ADD DUP6 DUP2 GT ISZERO PUSH2 0x3CDE JUMPI PUSH2 0x3CDD PUSH2 0x3CA3 JUMP JUMPDEST JUMPDEST DUP4 JUMPDEST DUP2 DUP2 LT ISZERO PUSH2 0x3D07 JUMPI DUP1 PUSH2 0x3CF3 DUP9 DUP3 PUSH2 0x38B2 JUMP JUMPDEST DUP5 MSTORE PUSH1 0x20 DUP5 ADD SWAP4 POP POP PUSH1 0x20 DUP2 ADD SWAP1 POP PUSH2 0x3CE0 JUMP JUMPDEST POP POP POP SWAP4 SWAP3 POP POP POP JUMP JUMPDEST PUSH1 0x0 DUP3 PUSH1 0x1F DUP4 ADD SLT PUSH2 0x3D26 JUMPI PUSH2 0x3D25 PUSH2 0x3A02 JUMP JUMPDEST JUMPDEST DUP2 CALLDATALOAD PUSH2 0x3D36 DUP5 DUP3 PUSH1 0x20 DUP7 ADD PUSH2 0x3CA8 JUMP JUMPDEST SWAP2 POP POP SWAP3 SWAP2 POP POP JUMP JUMPDEST PUSH1 0x0 PUSH8 0xFFFFFFFFFFFFFFFF DUP3 GT ISZERO PUSH2 0x3D5A JUMPI PUSH2 0x3D59 PUSH2 0x3A0C JUMP JUMPDEST JUMPDEST PUSH1 0x20 DUP3 MUL SWAP1 POP PUSH1 0x20 DUP2 ADD SWAP1 POP SWAP2 SWAP1 POP JUMP JUMPDEST PUSH1 0x0 PUSH2 0x3D7E PUSH2 0x3D79 DUP5 PUSH2 0x3D3F JUMP JUMPDEST PUSH2 0x3A6C JUMP JUMPDEST SWAP1 POP DUP1 DUP4 DUP3 MSTORE PUSH1 0x20 DUP3 ADD SWAP1 POP PUSH1 0x20 DUP5 MUL DUP4 ADD DUP6 DUP2 GT ISZERO PUSH2 0x3DA1 JUMPI PUSH2 0x3DA0 PUSH2 0x3CA3 JUMP JUMPDEST JUMPDEST DUP4 JUMPDEST DUP2 DUP2 LT ISZERO PUSH2 0x3DCA JUMPI DUP1 PUSH2 0x3DB6 DUP9 DUP3 PUSH2 0x38E8 JUMP JUMPDEST DUP5 MSTORE PUSH1 0x20 DUP5 ADD SWAP4 POP POP PUSH1 0x20 DUP2 ADD SWAP1 POP PUSH2 0x3DA3 JUMP JUMPDEST POP POP POP SWAP4 SWAP3 POP POP POP JUMP JUMPDEST PUSH1 0x0 DUP3 PUSH1 0x1F DUP4 ADD SLT PUSH2 0x3DE9 JUMPI PUSH2 0x3DE8 PUSH2 0x3A02 JUMP JUMPDEST JUMPDEST DUP2 CALLDATALOAD PUSH2 0x3DF9 DUP5 DUP3 PUSH1 0x20 DUP7 ADD PUSH2 0x3D6B JUMP JUMPDEST SWAP2 POP POP SWAP3 SWAP2 POP POP JUMP JUMPDEST PUSH1 0x0 DUP1 PUSH1 0x0 DUP1 PUSH1 0x0 DUP1 PUSH1 0x0 DUP1 PUSH1 0x0 PUSH2 0x120 DUP11 DUP13 SUB SLT ISZERO PUSH2 0x3E25 JUMPI PUSH2 0x3E24 PUSH2 0x385F JUMP JUMPDEST JUMPDEST PUSH1 0x0 PUSH2 0x3E33 DUP13 DUP3 DUP14 ADD PUSH2 0x38B2 JUMP JUMPDEST SWAP10 POP POP PUSH1 0x20 DUP11 ADD CALLDATALOAD PUSH8 0xFFFFFFFFFFFFFFFF DUP2 GT ISZERO PUSH2 0x3E54 JUMPI PUSH2 0x3E53 PUSH2 0x3864 JUMP JUMPDEST JUMPDEST PUSH2 0x3E60 DUP13 DUP3 DUP14 ADD PUSH2 0x3D11 JUMP JUMPDEST SWAP9 POP POP PUSH1 0x40 PUSH2 0x3E71 DUP13 DUP3 DUP14 ADD PUSH2 0x38E8 JUMP JUMPDEST SWAP8 POP POP PUSH1 0x60 PUSH2 0x3E82 DUP13 DUP3 DUP14 ADD PUSH2 0x38E8 JUMP JUMPDEST SWAP7 POP POP PUSH1 0x80 PUSH2 0x3E93 DUP13 DUP3 DUP14 ADD PUSH2 0x38E8 JUMP JUMPDEST SWAP6 POP POP PUSH1 0xA0 DUP11 ADD CALLDATALOAD PUSH8 0xFFFFFFFFFFFFFFFF DUP2 GT ISZERO PUSH2 0x3EB4 JUMPI PUSH2 0x3EB3 PUSH2 0x3864 JUMP JUMPDEST JUMPDEST PUSH2 0x3EC0 DUP13 DUP3 DUP14 ADD PUSH2 0x3D11 JUMP JUMPDEST SWAP5 POP POP PUSH1 0xC0 DUP11 ADD CALLDATALOAD PUSH8 0xFFFFFFFFFFFFFFFF DUP2 GT ISZERO PUSH2 0x3EE1 JUMPI PUSH2 0x3EE0 PUSH2 0x3864 JUMP JUMPDEST JUMPDEST PUSH2 0x3EED DUP13 DUP3 DUP14 ADD PUSH2 0x3DD4 JUMP JUMPDEST SWAP4 POP POP PUSH1 0xE0 DUP11 ADD CALLDATALOAD PUSH8 0xFFFFFFFFFFFFFFFF DUP2 GT ISZERO PUSH2 0x3F0E JUMPI PUSH2 0x3F0D PUSH2 0x3864 JUMP JUMPDEST JUMPDEST PUSH2 0x3F1A DUP13 DUP3 DUP14 ADD PUSH2 0x3DD4 JUMP JUMPDEST SWAP3 POP POP PUSH2 0x100 DUP11 ADD CALLDATALOAD PUSH8 0xFFFFFFFFFFFFFFFF DUP2 GT ISZERO PUSH2 0x3F3C JUMPI PUSH2 0x3F3B PUSH2 0x3864 JUMP JUMPDEST JUMPDEST PUSH2 0x3F48 DUP13 DUP3 DUP14 ADD PUSH2 0x3DD4 JUMP JUMPDEST SWAP2 POP POP SWAP3 SWAP6 SWAP9 POP SWAP3 SWAP6 SWAP9 POP SWAP3 SWAP6 SWAP9 JUMP JUMPDEST PUSH2 0x3F61 DUP2 PUSH2 0x38C7 JUMP JUMPDEST DUP3 MSTORE POP POP JUMP JUMPDEST PUSH1 0x0 PUSH1 0x20 DUP3 ADD SWAP1 POP PUSH2 0x3F7C PUSH1 0x0 DUP4 ADD DUP5 PUSH2 0x3F58 JUMP JUMPDEST SWAP3 SWAP2 POP POP JUMP JUMPDEST PUSH1 0x0 PUSH1 0x20 DUP3 DUP5 SUB SLT ISZERO PUSH2 0x3F98 JUMPI PUSH2 0x3F97 PUSH2 0x385F JUMP JUMPDEST JUMPDEST PUSH1 0x0 PUSH2 0x3FA6 DUP5 DUP3 DUP6 ADD PUSH2 0x38E8 JUMP JUMPDEST SWAP2 POP POP SWAP3 SWAP2 POP POP JUMP JUMPDEST PUSH1 0x0 DUP1 PUSH1 0x40 DUP4 DUP6 SUB SLT ISZERO PUSH2 0x3FC6 JUMPI PUSH2 0x3FC5 PUSH2 0x385F JUMP JUMPDEST JUMPDEST PUSH1 0x0 PUSH2 0x3FD4 DUP6 DUP3 DUP7 ADD PUSH2 0x38B2 JUMP JUMPDEST SWAP3 POP POP PUSH1 0x20 PUSH2 0x3FE5 DUP6 DUP3 DUP7 ADD PUSH2 0x38E8 JUMP JUMPDEST SWAP2 POP POP SWAP3 POP SWAP3 SWAP1 POP JUMP JUMPDEST PUSH1 0x0 PUSH1 0x20 DUP3 DUP5 SUB SLT ISZERO PUSH2 0x4005 JUMPI PUSH2 0x4004 PUSH2 0x385F JUMP JUMPDEST JUMPDEST PUSH1 0x0 PUSH2 0x4013 DUP5 DUP3 DUP6 ADD PUSH2 0x38B2 JUMP JUMPDEST SWAP2 POP POP SWAP3 SWAP2 POP POP JUMP JUMPDEST PUSH1 0x0 DUP2 ISZERO ISZERO SWAP1 POP SWAP2 SWAP1 POP JUMP JUMPDEST PUSH2 0x4031 DUP2 PUSH2 0x401C JUMP JUMPDEST DUP3 MSTORE POP POP JUMP JUMPDEST PUSH1 0x0 PUSH1 0x20 DUP3 ADD SWAP1 POP PUSH2 0x404C PUSH1 0x0 DUP4 ADD DUP5 PUSH2 0x4028 JUMP JUMPDEST SWAP3 SWAP2 POP POP JUMP JUMPDEST PUSH1 0x0 PUSH1 0x60 DUP3 ADD SWAP1 POP PUSH2 0x4067 PUSH1 0x0 DUP4 ADD DUP7 PUSH2 0x3F58 JUMP JUMPDEST PUSH2 0x4074 PUSH1 0x20 DUP4 ADD DUP6 PUSH2 0x3F58 JUMP JUMPDEST PUSH2 0x4081 PUSH1 0x40 DUP4 ADD DUP5 PUSH2 0x3F58 JUMP JUMPDEST SWAP5 SWAP4 POP POP POP POP JUMP JUMPDEST PUSH1 0x0 PUSH1 0x20 DUP3 DUP5 SUB SLT ISZERO PUSH2 0x409F JUMPI PUSH2 0x409E PUSH2 0x385F JUMP JUMPDEST JUMPDEST PUSH1 0x0 DUP3 ADD CALLDATALOAD PUSH8 0xFFFFFFFFFFFFFFFF DUP2 GT ISZERO PUSH2 0x40BD JUMPI PUSH2 0x40BC PUSH2 0x3864 JUMP JUMPDEST JUMPDEST PUSH2 0x40C9 DUP5 DUP3 DUP6 ADD PUSH2 0x3D11 JUMP JUMPDEST SWAP2 POP POP SWAP3 SWAP2 POP POP JUMP JUMPDEST PUSH1 0x0 DUP1 PUSH1 0x0 DUP1 PUSH1 0x0 PUSH1 0xA0 DUP7 DUP9 SUB SLT ISZERO PUSH2 0x40EE JUMPI PUSH2 0x40ED PUSH2 0x385F JUMP JUMPDEST JUMPDEST PUSH1 0x0 PUSH2 0x40FC DUP9 DUP3 DUP10 ADD PUSH2 0x38B2 JUMP JUMPDEST SWAP6 POP POP PUSH1 0x20 PUSH2 0x410D DUP9 DUP3 DUP10 ADD PUSH2 0x38B2 JUMP JUMPDEST SWAP5 POP POP PUSH1 0x40 PUSH2 0x411E DUP9 DUP3 DUP10 ADD PUSH2 0x38E8 JUMP JUMPDEST SWAP4 POP POP PUSH1 0x60 DUP7 ADD CALLDATALOAD PUSH8 0xFFFFFFFFFFFFFFFF DUP2 GT ISZERO PUSH2 0x413F JUMPI PUSH2 0x413E PUSH2 0x3864 JUMP JUMPDEST JUMPDEST PUSH2 0x414B DUP9 DUP3 DUP10 ADD PUSH2 0x3B09 JUMP JUMPDEST SWAP3 POP POP PUSH1 0x80 PUSH2 0x415C DUP9 DUP3 DUP10 ADD PUSH2 0x38E8 JUMP JUMPDEST SWAP2 POP POP SWAP3 SWAP6 POP SWAP3 SWAP6 SWAP1 SWAP4 POP JUMP JUMPDEST PUSH2 0x4172 DUP2 PUSH2 0x3889 JUMP JUMPDEST DUP3 MSTORE POP POP JUMP JUMPDEST PUSH1 0x0 PUSH1 0x20 DUP3 ADD SWAP1 POP PUSH2 0x418D PUSH1 0x0 DUP4 ADD DUP5 PUSH2 0x4169 JUMP JUMPDEST SWAP3 SWAP2 POP POP JUMP JUMPDEST PUSH1 0x0 DUP1 PUSH1 0x40 DUP4 DUP6 SUB SLT ISZERO PUSH2 0x41AA JUMPI PUSH2 0x41A9 PUSH2 0x385F JUMP JUMPDEST JUMPDEST PUSH1 0x0 PUSH2 0x41B8 DUP6 DUP3 DUP7 ADD PUSH2 0x38E8 JUMP JUMPDEST SWAP3 POP POP PUSH1 0x20 PUSH2 0x41C9 DUP6 DUP3 DUP7 ADD PUSH2 0x38B2 JUMP JUMPDEST SWAP2 POP POP SWAP3 POP SWAP3 SWAP1 POP JUMP JUMPDEST PUSH1 0x0 DUP1 PUSH1 0x0 PUSH1 0x60 DUP5 DUP7 SUB SLT ISZERO PUSH2 0x41EC JUMPI PUSH2 0x41EB PUSH2 0x385F JUMP JUMPDEST JUMPDEST PUSH1 0x0 PUSH2 0x41FA DUP7 DUP3 DUP8 ADD PUSH2 0x38B2 JUMP JUMPDEST SWAP4 POP POP PUSH1 0x20 DUP5 ADD CALLDATALOAD PUSH8 0xFFFFFFFFFFFFFFFF DUP2 GT ISZERO PUSH2 0x421B JUMPI PUSH2 0x421A PUSH2 0x3864 JUMP JUMPDEST JUMPDEST PUSH2 0x4227 DUP7 DUP3 DUP8 ADD PUSH2 0x3B09 JUMP JUMPDEST SWAP3 POP POP PUSH1 0x40 PUSH2 0x4238 DUP7 DUP3 DUP8 ADD PUSH2 0x38E8 JUMP JUMPDEST SWAP2 POP POP SWAP3 POP SWAP3 POP SWAP3 JUMP JUMPDEST PUSH1 0x0 DUP2 MLOAD SWAP1 POP SWAP2 SWAP1 POP JUMP JUMPDEST PUSH1 0x0 DUP3 DUP3 MSTORE PUSH1 0x20 DUP3 ADD SWAP1 POP SWAP3 SWAP2 POP POP JUMP JUMPDEST PUSH1 0x0 PUSH2 0x4269 DUP3 PUSH2 0x4242 JUMP JUMPDEST PUSH2 0x4273 DUP2 DUP6 PUSH2 0x424D JUMP JUMPDEST SWAP4 POP PUSH2 0x4283 DUP2 DUP6 PUSH1 0x20 DUP7 ADD PUSH2 0x396C JUMP JUMPDEST PUSH2 0x428C DUP2 PUSH2 0x3996 JUMP JUMPDEST DUP5 ADD SWAP2 POP POP SWAP3 SWAP2 POP POP JUMP JUMPDEST PUSH1 0x0 PUSH1 0xC0 DUP3 ADD SWAP1 POP PUSH2 0x42AC PUSH1 0x0 DUP4 ADD DUP10 PUSH2 0x4169 JUMP JUMPDEST DUP2 DUP2 SUB PUSH1 0x20 DUP4 ADD MSTORE PUSH2 0x42BE DUP2 DUP9 PUSH2 0x425E JUMP JUMPDEST SWAP1 POP PUSH2 0x42CD PUSH1 0x40 DUP4 ADD DUP8 PUSH2 0x3F58 JUMP JUMPDEST PUSH2 0x42DA PUSH1 0x60 DUP4 ADD DUP7 PUSH2 0x4028 JUMP JUMPDEST PUSH2 0x42E7 PUSH1 0x80 DUP4 ADD DUP6 PUSH2 0x3F58 JUMP JUMPDEST PUSH2 0x42F4 PUSH1 0xA0 DUP4 ADD DUP5 PUSH2 0x3F58 JUMP JUMPDEST SWAP8 SWAP7 POP POP POP POP POP POP POP JUMP JUMPDEST PUSH1 0x0 PUSH8 0xFFFFFFFFFFFFFFFF DUP3 GT ISZERO PUSH2 0x431A JUMPI PUSH2 0x4319 PUSH2 0x3A0C JUMP JUMPDEST JUMPDEST PUSH2 0x4323 DUP3 PUSH2 0x3996 JUMP JUMPDEST SWAP1 POP PUSH1 0x20 DUP2 ADD SWAP1 POP SWAP2 SWAP1 POP JUMP JUMPDEST PUSH1 0x0 PUSH2 0x4343 PUSH2 0x433E DUP5 PUSH2 0x42FF JUMP JUMPDEST PUSH2 0x3A6C JUMP JUMPDEST SWAP1 POP DUP3 DUP2 MSTORE PUSH1 0x20 DUP2 ADD DUP5 DUP5 DUP5 ADD GT ISZERO PUSH2 0x435F JUMPI PUSH2 0x435E PUSH2 0x3A07 JUMP JUMPDEST JUMPDEST PUSH2 0x436A DUP5 DUP3 DUP6 PUSH2 0x3AB8 JUMP JUMPDEST POP SWAP4 SWAP3 POP POP POP JUMP JUMPDEST PUSH1 0x0 DUP3 PUSH1 0x1F DUP4 ADD SLT PUSH2 0x4387 JUMPI PUSH2 0x4386 PUSH2 0x3A02 JUMP JUMPDEST JUMPDEST DUP2 CALLDATALOAD PUSH2 0x4397 DUP5 DUP3 PUSH1 0x20 DUP7 ADD PUSH2 0x4330 JUMP JUMPDEST SWAP2 POP POP SWAP3 SWAP2 POP POP JUMP JUMPDEST PUSH1 0x0 DUP1 PUSH1 0x0 DUP1 PUSH1 0x0 DUP1 PUSH1 0x0 PUSH1 0xE0 DUP9 DUP11 SUB SLT ISZERO PUSH2 0x43BF JUMPI PUSH2 0x43BE PUSH2 0x385F JUMP JUMPDEST JUMPDEST PUSH1 0x0 PUSH2 0x43CD DUP11 DUP3 DUP12 ADD PUSH2 0x38B2 JUMP JUMPDEST SWAP8 POP POP PUSH1 0x20 DUP9 ADD CALLDATALOAD PUSH8 0xFFFFFFFFFFFFFFFF DUP2 GT ISZERO PUSH2 0x43EE JUMPI PUSH2 0x43ED PUSH2 0x3864 JUMP JUMPDEST JUMPDEST PUSH2 0x43FA DUP11 DUP3 DUP12 ADD PUSH2 0x4372 JUMP JUMPDEST SWAP7 POP POP PUSH1 0x40 PUSH2 0x440B DUP11 DUP3 DUP12 ADD PUSH2 0x38B2 JUMP JUMPDEST SWAP6 POP POP PUSH1 0x60 DUP9 ADD CALLDATALOAD PUSH8 0xFFFFFFFFFFFFFFFF DUP2 GT ISZERO PUSH2 0x442C JUMPI PUSH2 0x442B PUSH2 0x3864 JUMP JUMPDEST JUMPDEST PUSH2 0x4438 DUP11 DUP3 DUP12 ADD PUSH2 0x3D11 JUMP JUMPDEST SWAP5 POP POP PUSH1 0x80 PUSH2 0x4449 DUP11 DUP3 DUP12 ADD PUSH2 0x38E8 JUMP JUMPDEST SWAP4 POP POP PUSH1 0xA0 PUSH2 0x445A DUP11 DUP3 DUP12 ADD PUSH2 0x38E8 JUMP JUMPDEST SWAP3 POP POP PUSH1 0xC0 PUSH2 0x446B DUP11 DUP3 DUP12 ADD PUSH2 0x38E8 JUMP JUMPDEST SWAP2 POP POP SWAP3 SWAP6 SWAP9 SWAP2 SWAP5 SWAP8 POP SWAP3 SWAP6 POP JUMP JUMPDEST PUSH32 0x4E6F7420746865206F776E657200000000000000000000000000000000000000 PUSH1 0x0 DUP3 ADD MSTORE POP JUMP JUMPDEST PUSH1 0x0 PUSH2 0x44B0 PUSH1 0xD DUP4 PUSH2 0x395B JUMP JUMPDEST SWAP2 POP PUSH2 0x44BB DUP3 PUSH2 0x447A JUMP JUMPDEST PUSH1 0x20 DUP3 ADD SWAP1 POP SWAP2 SWAP1 POP JUMP JUMPDEST PUSH1 0x0 PUSH1 0x20 DUP3 ADD SWAP1 POP DUP2 DUP2 SUB PUSH1 0x0 DUP4 ADD MSTORE PUSH2 0x44DF DUP2 PUSH2 0x44A3 JUMP JUMPDEST SWAP1 POP SWAP2 SWAP1 POP JUMP JUMPDEST PUSH1 0x0 DUP2 MLOAD SWAP1 POP PUSH2 0x44F5 DUP2 PUSH2 0x38D1 JUMP JUMPDEST SWAP3 SWAP2 POP POP JUMP JUMPDEST PUSH1 0x0 PUSH1 0x20 DUP3 DUP5 SUB SLT ISZERO PUSH2 0x4511 JUMPI PUSH2 0x4510 PUSH2 0x385F JUMP JUMPDEST JUMPDEST PUSH1 0x0 PUSH2 0x451F DUP5 DUP3 DUP6 ADD PUSH2 0x44E6 JUMP JUMPDEST SWAP2 POP POP SWAP3 SWAP2 POP POP JUMP JUMPDEST PUSH32 0x496E73756666696369656E742062616C616E6365000000000000000000000000 PUSH1 0x0 DUP3 ADD MSTORE POP JUMP JUMPDEST PUSH1 0x0 PUSH2 0x455E PUSH1 0x14 DUP4 PUSH2 0x395B JUMP JUMPDEST SWAP2 POP PUSH2 0x4569 DUP3 PUSH2 0x4528 JUMP JUMPDEST PUSH1 0x20 DUP3 ADD SWAP1 POP SWAP2 SWAP1 POP JUMP JUMPDEST PUSH1 0x0 PUSH1 0x20 DUP3 ADD SWAP1 POP DUP2 DUP2 SUB PUSH1 0x0 DUP4 ADD MSTORE PUSH2 0x458D DUP2 PUSH2 0x4551 JUMP JUMPDEST SWAP1 POP SWAP2 SWAP1 POP JUMP JUMPDEST PUSH32 0x467265657A652069732061637469766500000000000000000000000000000000 PUSH1 0x0 DUP3 ADD MSTORE POP JUMP JUMPDEST PUSH1 0x0 PUSH2 0x45CA PUSH1 0x10 DUP4 PUSH2 0x395B JUMP JUMPDEST SWAP2 POP PUSH2 0x45D5 DUP3 PUSH2 0x4594 JUMP JUMPDEST PUSH1 0x20 DUP3 ADD SWAP1 POP SWAP2 SWAP1 POP JUMP JUMPDEST PUSH1 0x0 PUSH1 0x20 DUP3 ADD SWAP1 POP DUP2 DUP2 SUB PUSH1 0x0 DUP4 ADD MSTORE PUSH2 0x45F9 DUP2 PUSH2 0x45BD JUMP JUMPDEST SWAP1 POP SWAP2 SWAP1 POP JUMP JUMPDEST PUSH32 0x4E487B7100000000000000000000000000000000000000000000000000000000 PUSH1 0x0 MSTORE PUSH1 0x11 PUSH1 0x4 MSTORE PUSH1 0x24 PUSH1 0x0 REVERT JUMPDEST PUSH1 0x0 PUSH2 0x463A DUP3 PUSH2 0x38C7 JUMP JUMPDEST SWAP2 POP PUSH2 0x4645 DUP4 PUSH2 0x38C7 JUMP JUMPDEST SWAP3 POP DUP3 DUP3 SUB SWAP1 POP DUP2 DUP2 GT ISZERO PUSH2 0x465D JUMPI PUSH2 0x465C PUSH2 0x4600 JUMP JUMPDEST JUMPDEST SWAP3 SWAP2 POP POP JUMP JUMPDEST PUSH1 0x0 PUSH2 0x466E DUP3 PUSH2 0x38C7 JUMP JUMPDEST SWAP2 POP PUSH2 0x4679 DUP4 PUSH2 0x38C7 JUMP JUMPDEST SWAP3 POP DUP3 DUP3 MUL PUSH2 0x4687 DUP2 PUSH2 0x38C7 JUMP JUMPDEST SWAP2 POP DUP3 DUP3 DIV DUP5 EQ DUP4 ISZERO OR PUSH2 0x469E JUMPI PUSH2 0x469D PUSH2 0x4600 JUMP JUMPDEST JUMPDEST POP SWAP3 SWAP2 POP POP JUMP JUMPDEST PUSH32 0x4E487B7100000000000000000000000000000000000000000000000000000000 PUSH1 0x0 MSTORE PUSH1 0x12 PUSH1 0x4 MSTORE PUSH1 0x24 PUSH1 0x0 REVERT JUMPDEST PUSH1 0x0 PUSH2 0x46DF DUP3 PUSH2 0x38C7 JUMP JUMPDEST SWAP2 POP PUSH2 0x46EA DUP4 PUSH2 0x38C7 JUMP JUMPDEST SWAP3 POP DUP3 PUSH2 0x46FA JUMPI PUSH2 0x46F9 PUSH2 0x46A5 JUMP JUMPDEST JUMPDEST DUP3 DUP3 DIV SWAP1 POP SWAP3 SWAP2 POP POP JUMP JUMPDEST PUSH1 0x0 PUSH2 0x4710 DUP3 PUSH2 0x38C7 JUMP JUMPDEST SWAP2 POP PUSH2 0x471B DUP4 PUSH2 0x38C7 JUMP JUMPDEST SWAP3 POP DUP3 DUP3 ADD SWAP1 POP DUP1 DUP3 GT ISZERO PUSH2 0x4733 JUMPI PUSH2 0x4732 PUSH2 0x4600 JUMP JUMPDEST JUMPDEST SWAP3 SWAP2 POP POP JUMP JUMPDEST PUSH32 0x4E487B7100000000000000000000000000000000000000000000000000000000 PUSH1 0x0 MSTORE PUSH1 0x22 PUSH1 0x4 MSTORE PUSH1 0x24 PUSH1 0x0 REVERT JUMPDEST PUSH1 0x0 PUSH1 0x2 DUP3 DIV SWAP1 POP PUSH1 0x1 DUP3 AND DUP1 PUSH2 0x4780 JUMPI PUSH1 0x7F DUP3 AND SWAP2 POP JUMPDEST PUSH1 0x20 DUP3 LT DUP2 SUB PUSH2 0x4793 JUMPI PUSH2 0x4792 PUSH2 0x4739 JUMP JUMPDEST JUMPDEST POP SWAP2 SWAP1 POP JUMP JUMPDEST PUSH32 0x43616E206F6E6C792062652063616C6C656420627920636F6E74726163742069 PUSH1 0x0 DUP3 ADD MSTORE PUSH32 0x7473656C66000000000000000000000000000000000000000000000000000000 PUSH1 0x20 DUP3 ADD MSTORE POP JUMP JUMPDEST PUSH1 0x0 PUSH2 0x47F5 PUSH1 0x25 DUP4 PUSH2 0x395B JUMP JUMPDEST SWAP2 POP PUSH2 0x4800 DUP3 PUSH2 0x4799 JUMP JUMPDEST PUSH1 0x40 DUP3 ADD SWAP1 POP SWAP2 SWAP1 POP JUMP JUMPDEST PUSH1 0x0 PUSH1 0x20 DUP3 ADD SWAP1 POP DUP2 DUP2 SUB PUSH1 0x0 DUP4 ADD MSTORE PUSH2 0x4824 DUP2 PUSH2 0x47E8 JUMP JUMPDEST SWAP1 POP SWAP2 SWAP1 POP JUMP JUMPDEST PUSH32 0x496E76616C696420757365426173654C696D69742076616C7565000000000000 PUSH1 0x0 DUP3 ADD MSTORE POP JUMP JUMPDEST PUSH1 0x0 PUSH2 0x4861 PUSH1 0x1A DUP4 PUSH2 0x395B JUMP JUMPDEST SWAP2 POP PUSH2 0x486C DUP3 PUSH2 0x482B JUMP JUMPDEST PUSH1 0x20 DUP3 ADD SWAP1 POP SWAP2 SWAP1 POP JUMP JUMPDEST PUSH1 0x0 PUSH1 0x20 DUP3 ADD SWAP1 POP DUP2 DUP2 SUB PUSH1 0x0 DUP4 ADD MSTORE PUSH2 0x4890 DUP2 PUSH2 0x4854 JUMP JUMPDEST SWAP1 POP SWAP2 SWAP1 POP JUMP JUMPDEST PUSH32 0x4E6F7420617574686F72697A6564000000000000000000000000000000000000 PUSH1 0x0 DUP3 ADD MSTORE POP JUMP JUMPDEST PUSH1 0x0 PUSH2 0x48CD PUSH1 0xE DUP4 PUSH2 0x395B JUMP JUMPDEST SWAP2 POP PUSH2 0x48D8 DUP3 PUSH2 0x4897 JUMP JUMPDEST PUSH1 0x20 DUP3 ADD SWAP1 POP SWAP2 SWAP1 POP JUMP JUMPDEST PUSH1 0x0 PUSH1 0x20 DUP3 ADD SWAP1 POP DUP2 DUP2 SUB PUSH1 0x0 DUP4 ADD MSTORE PUSH2 0x48FC DUP2 PUSH2 0x48C0 JUMP JUMPDEST SWAP1 POP SWAP2 SWAP1 POP JUMP JUMPDEST PUSH32 0x4E487B7100000000000000000000000000000000000000000000000000000000 PUSH1 0x0 MSTORE PUSH1 0x32 PUSH1 0x4 MSTORE PUSH1 0x24 PUSH1 0x0 REVERT JUMPDEST PUSH32 0x496E70757420617272617973206C656E677468206D69736D6174636800000000 PUSH1 0x0 DUP3 ADD MSTORE POP JUMP JUMPDEST PUSH1 0x0 PUSH2 0x4968 PUSH1 0x1C DUP4 PUSH2 0x395B JUMP JUMPDEST SWAP2 POP PUSH2 0x4973 DUP3 PUSH2 0x4932 JUMP JUMPDEST PUSH1 0x20 DUP3 ADD SWAP1 POP SWAP2 SWAP1 POP JUMP JUMPDEST PUSH1 0x0 PUSH1 0x20 DUP3 ADD SWAP1 POP DUP2 DUP2 SUB PUSH1 0x0 DUP4 ADD MSTORE PUSH2 0x4997 DUP2 PUSH2 0x495B JUMP JUMPDEST SWAP1 POP SWAP2 SWAP1 POP JUMP JUMPDEST PUSH32 0x5472616E73616374696F6E206E6F7420666F756E640000000000000000000000 PUSH1 0x0 DUP3 ADD MSTORE POP JUMP JUMPDEST PUSH1 0x0 PUSH2 0x49D4 PUSH1 0x15 DUP4 PUSH2 0x395B JUMP JUMPDEST SWAP2 POP PUSH2 0x49DF DUP3 PUSH2 0x499E JUMP JUMPDEST PUSH1 0x20 DUP3 ADD SWAP1 POP SWAP2 SWAP1 POP JUMP JUMPDEST PUSH1 0x0 PUSH1 0x20 DUP3 ADD SWAP1 POP DUP2 DUP2 SUB PUSH1 0x0 DUP4 ADD MSTORE PUSH2 0x4A03 DUP2 PUSH2 0x49C7 JUMP JUMPDEST SWAP1 POP SWAP2 SWAP1 POP JUMP JUMPDEST PUSH32 0x5472616E73616374696F6E20616C726561647920657865637574656400000000 PUSH1 0x0 DUP3 ADD MSTORE POP JUMP JUMPDEST PUSH1 0x0 PUSH2 0x4A40 PUSH1 0x1C DUP4 PUSH2 0x395B JUMP JUMPDEST SWAP2 POP PUSH2 0x4A4B DUP3 PUSH2 0x4A0A JUMP JUMPDEST PUSH1 0x20 DUP3 ADD SWAP1 POP SWAP2 SWAP1 POP JUMP JUMPDEST PUSH1 0x0 PUSH1 0x20 DUP3 ADD SWAP1 POP DUP2 DUP2 SUB PUSH1 0x0 DUP4 ADD MSTORE PUSH2 0x4A6F DUP2 PUSH2 0x4A33 JUMP JUMPDEST SWAP1 POP SWAP2 SWAP1 POP JUMP JUMPDEST PUSH32 0x496E636F72726563742045544820616D6F756E74000000000000000000000000 PUSH1 0x0 DUP3 ADD MSTORE POP JUMP JUMPDEST PUSH1 0x0 PUSH2 0x4AAC PUSH1 0x14 DUP4 PUSH2 0x395B JUMP JUMPDEST SWAP2 POP PUSH2 0x4AB7 DUP3 PUSH2 0x4A76 JUMP JUMPDEST PUSH1 0x20 DUP3 ADD SWAP1 POP SWAP2 SWAP1 POP JUMP JUMPDEST PUSH1 0x0 PUSH1 0x20 DUP3 ADD SWAP1 POP DUP2 DUP2 SUB PUSH1 0x0 DUP4 ADD MSTORE PUSH2 0x4ADB DUP2 PUSH2 0x4A9F JUMP JUMPDEST SWAP1 POP SWAP2 SWAP1 POP JUMP JUMPDEST PUSH1 0x0 PUSH1 0x60 DUP3 ADD SWAP1 POP PUSH2 0x4AF7 PUSH1 0x0 DUP4 ADD DUP7 PUSH2 0x4169 JUMP JUMPDEST PUSH2 0x4B04 PUSH1 0x20 DUP4 ADD DUP6 PUSH2 0x4169 JUMP JUMPDEST PUSH2 0x4B11 PUSH1 0x40 DUP4 ADD DUP5 PUSH2 0x3F58 JUMP JUMPDEST SWAP5 SWAP4 POP POP POP POP JUMP JUMPDEST PUSH2 0x4B22 DUP2 PUSH2 0x401C JUMP JUMPDEST DUP2 EQ PUSH2 0x4B2D JUMPI PUSH1 0x0 DUP1 REVERT JUMPDEST POP JUMP JUMPDEST PUSH1 0x0 DUP2 MLOAD SWAP1 POP PUSH2 0x4B3F DUP2 PUSH2 0x4B19 JUMP JUMPDEST SWAP3 SWAP2 POP POP JUMP JUMPDEST PUSH1 0x0 PUSH1 0x20 DUP3 DUP5 SUB SLT ISZERO PUSH2 0x4B5B JUMPI PUSH2 0x4B5A PUSH2 0x385F JUMP JUMPDEST JUMPDEST PUSH1 0x0 PUSH2 0x4B69 DUP5 DUP3 DUP6 ADD PUSH2 0x4B30 JUMP JUMPDEST SWAP2 POP POP SWAP3 SWAP2 POP POP JUMP JUMPDEST PUSH32 0x5472616E73666572206661696C65640000000000000000000000000000000000 PUSH1 0x0 DUP3 ADD MSTORE POP JUMP JUMPDEST PUSH1 0x0 PUSH2 0x4BA8 PUSH1 0xF DUP4 PUSH2 0x395B JUMP JUMPDEST SWAP2 POP PUSH2 0x4BB3 DUP3 PUSH2 0x4B72 JUMP JUMPDEST PUSH1 0x20 DUP3 ADD SWAP1 POP SWAP2 SWAP1 POP JUMP JUMPDEST PUSH1 0x0 PUSH1 0x20 DUP3 ADD SWAP1 POP DUP2 DUP2 SUB PUSH1 0x0 DUP4 ADD MSTORE PUSH2 0x4BD7 DUP2 PUSH2 0x4B9B JUMP JUMPDEST SWAP1 POP SWAP2 SWAP1 POP JUMP JUMPDEST PUSH1 0x0 PUSH1 0x40 DUP3 ADD SWAP1 POP PUSH2 0x4BF3 PUSH1 0x0 DUP4 ADD DUP6 PUSH2 0x4169 JUMP JUMPDEST PUSH2 0x4C00 PUSH1 0x20 DUP4 ADD DUP5 PUSH2 0x3F58 JUMP JUMPDEST SWAP4 SWAP3 POP POP POP JUMP JUMPDEST PUSH32 0x43616E206F6E6C792062652063616C6C656420627920636F6E74726163742069 PUSH1 0x0 DUP3 ADD MSTORE PUSH32 0x7473656C662C206F776E65722C207265636F766572792061646472657373206F PUSH1 0x20 DUP3 ADD MSTORE PUSH32 0x722077686974656C697374656420616464726573736573000000000000000000 PUSH1 0x40 DUP3 ADD MSTORE POP JUMP JUMPDEST PUSH1 0x0 PUSH2 0x4C89 PUSH1 0x57 DUP4 PUSH2 0x395B JUMP JUMPDEST SWAP2 POP PUSH2 0x4C94 DUP3 PUSH2 0x4C07 JUMP JUMPDEST PUSH1 0x60 DUP3 ADD SWAP1 POP SWAP2 SWAP1 POP JUMP JUMPDEST PUSH1 0x0 PUSH1 0x20 DUP3 ADD SWAP1 POP DUP2 DUP2 SUB PUSH1 0x0 DUP4 ADD MSTORE PUSH2 0x4CB8 DUP2 PUSH2 0x4C7C JUMP JUMPDEST SWAP1 POP SWAP2 SWAP1 POP JUMP JUMPDEST PUSH32 0x43616E6E6F7420756E667265657A650000000000000000000000000000000000 PUSH1 0x0 DUP3 ADD MSTORE POP JUMP JUMPDEST PUSH1 0x0 PUSH2 0x4CF5 PUSH1 0xF DUP4 PUSH2 0x395B JUMP JUMPDEST SWAP2 POP PUSH2 0x4D00 DUP3 PUSH2 0x4CBF JUMP JUMPDEST PUSH1 0x20 DUP3 ADD SWAP1 POP SWAP2 SWAP1 POP JUMP JUMPDEST PUSH1 0x0 PUSH1 0x20 DUP3 ADD SWAP1 POP DUP2 DUP2 SUB PUSH1 0x0 DUP4 ADD MSTORE PUSH2 0x4D24 DUP2 PUSH2 0x4CE8 JUMP JUMPDEST SWAP1 POP SWAP2 SWAP1 POP JUMP JUMPDEST PUSH32 0x4E6F7420746865207265636F7665727920616464726573730000000000000000 PUSH1 0x0 DUP3 ADD MSTORE POP JUMP JUMPDEST PUSH1 0x0 PUSH2 0x4D61 PUSH1 0x18 DUP4 PUSH2 0x395B JUMP JUMPDEST SWAP2 POP PUSH2 0x4D6C DUP3 PUSH2 0x4D2B JUMP JUMPDEST PUSH1 0x20 DUP3 ADD SWAP1 POP SWAP2 SWAP1 POP JUMP JUMPDEST PUSH1 0x0 PUSH1 0x20 DUP3 ADD SWAP1 POP DUP2 DUP2 SUB PUSH1 0x0 DUP4 ADD MSTORE PUSH2 0x4D90 DUP2 PUSH2 0x4D54 JUMP JUMPDEST SWAP1 POP SWAP2 SWAP1 POP JUMP JUMPDEST PUSH1 0x0 DUP2 SWAP1 POP SWAP3 SWAP2 POP POP JUMP JUMPDEST PUSH1 0x0 PUSH2 0x4DAD DUP3 PUSH2 0x4242 JUMP JUMPDEST PUSH2 0x4DB7 DUP2 DUP6 PUSH2 0x4D97 JUMP JUMPDEST SWAP4 POP PUSH2 0x4DC7 DUP2 DUP6 PUSH1 0x20 DUP7 ADD PUSH2 0x396C JUMP JUMPDEST DUP1 DUP5 ADD SWAP2 POP POP SWAP3 SWAP2 POP POP JUMP JUMPDEST PUSH1 0x0 PUSH2 0x4DDF DUP3 DUP5 PUSH2 0x4DA2 JUMP JUMPDEST SWAP2 POP DUP2 SWAP1 POP SWAP3 SWAP2 POP POP JUMP JUMPDEST PUSH1 0x0 DUP2 SWAP1 POP DUP2 PUSH1 0x0 MSTORE PUSH1 0x20 PUSH1 0x0 KECCAK256 SWAP1 POP SWAP2 SWAP1 POP JUMP JUMPDEST PUSH1 0x0 PUSH1 0x20 PUSH1 0x1F DUP4 ADD DIV SWAP1 POP SWAP2 SWAP1 POP JUMP JUMPDEST PUSH1 0x0 DUP3 DUP3 SHL SWAP1 POP SWAP3 SWAP2 POP POP JUMP JUMPDEST PUSH1 0x0 PUSH1 0x8 DUP4 MUL PUSH2 0x4E4C PUSH32 0xFFFFFFFFFFFFFFFFFFFFFFFFFFFFFFFFFFFFFFFFFFFFFFFFFFFFFFFFFFFFFFFF DUP3 PUSH2 0x4E0F JUMP JUMPDEST PUSH2 0x4E56 DUP7 DUP4 PUSH2 0x4E0F JUMP JUMPDEST SWAP6 POP DUP1 NOT DUP5 AND SWAP4 POP DUP1 DUP7 AND DUP5 OR SWAP3 POP POP POP SWAP4 SWAP3 POP POP POP JUMP JUMPDEST PUSH1 0x0 DUP2 SWAP1 POP SWAP2 SWAP1 POP JUMP JUMPDEST PUSH1 0x0 PUSH2 0x4E93 PUSH2 0x4E8E PUSH2 0x4E89 DUP5 PUSH2 0x38C7 JUMP JUMPDEST PUSH2 0x4E6E JUMP JUMPDEST PUSH2 0x38C7 JUMP JUMPDEST SWAP1 POP SWAP2 SWAP1 POP JUMP JUMPDEST PUSH1 0x0 DUP2 SWAP1 POP SWAP2 SWAP1 POP JUMP JUMPDEST PUSH2 0x4EAD DUP4 PUSH2 0x4E78 JUMP JUMPDEST PUSH2 0x4EC1 PUSH2 0x4EB9 DUP3 PUSH2 0x4E9A JUMP JUMPDEST DUP5 DUP5 SLOAD PUSH2 0x4E1C JUMP JUMPDEST DUP3 SSTORE POP POP POP POP JUMP JUMPDEST PUSH1 0x0 SWAP1 JUMP JUMPDEST PUSH2 0x4ED6 PUSH2 0x4EC9 JUMP JUMPDEST PUSH2 0x4EE1 DUP2 DUP5 DUP5 PUSH2 0x4EA4 JUMP JUMPDEST POP POP POP JUMP JUMPDEST JUMPDEST DUP2 DUP2 LT ISZERO PUSH2 0x4F05 JUMPI PUSH2 0x4EFA PUSH1 0x0 DUP3 PUSH2 0x4ECE JUMP JUMPDEST PUSH1 0x1 DUP2 ADD SWAP1 POP PUSH2 0x4EE7 JUMP JUMPDEST POP POP JUMP JUMPDEST PUSH1 0x1F DUP3 GT ISZERO PUSH2 0x4F4A JUMPI PUSH2 0x4F1B DUP2 PUSH2 0x4DEA JUMP JUMPDEST PUSH2 0x4F24 DUP5 PUSH2 0x4DFF JUMP JUMPDEST DUP2 ADD PUSH1 0x20 DUP6 LT ISZERO PUSH2 0x4F33 JUMPI DUP2 SWAP1 POP JUMPDEST PUSH2 0x4F47 PUSH2 0x4F3F DUP6 PUSH2 0x4DFF JUMP JUMPDEST DUP4 ADD DUP3 PUSH2 0x4EE6 JUMP JUMPDEST POP POP JUMPDEST POP POP POP JUMP JUMPDEST PUSH1 0x0 DUP3 DUP3 SHR SWAP1 POP SWAP3 SWAP2 POP POP JUMP JUMPDEST PUSH1 0x0 PUSH2 0x4F6D PUSH1 0x0 NOT DUP5 PUSH1 0x8 MUL PUSH2 0x4F4F JUMP JUMPDEST NOT DUP1 DUP4 AND SWAP2 POP POP SWAP3 SWAP2 POP POP JUMP JUMPDEST PUSH1 0x0 PUSH2 0x4F86 DUP4 DUP4 PUSH2 0x4F5C JUMP JUMPDEST SWAP2 POP DUP3 PUSH1 0x2 MUL DUP3 OR SWAP1 POP SWAP3 SWAP2 POP POP JUMP JUMPDEST PUSH2 0x4F9F DUP3 PUSH2 0x4242 JUMP JUMPDEST PUSH8 0xFFFFFFFFFFFFFFFF DUP2 GT ISZERO PUSH2 0x4FB8 JUMPI PUSH2 0x4FB7 PUSH2 0x3A0C JUMP JUMPDEST JUMPDEST PUSH2 0x4FC2 DUP3 SLOAD PUSH2 0x4768 JUMP JUMPDEST PUSH2 0x4FCD DUP3 DUP3 DUP6 PUSH2 0x4F09 JUMP JUMPDEST PUSH1 0x0 PUSH1 0x20 SWAP1 POP PUSH1 0x1F DUP4 GT PUSH1 0x1 DUP2 EQ PUSH2 0x5000 JUMPI PUSH1 0x0 DUP5 ISZERO PUSH2 0x4FEE JUMPI DUP3 DUP8 ADD MLOAD SWAP1 POP JUMPDEST PUSH2 0x4FF8 DUP6 DUP3 PUSH2 0x4F7A JUMP JUMPDEST DUP7 SSTORE POP PUSH2 0x5060 JUMP JUMPDEST PUSH1 0x1F NOT DUP5 AND PUSH2 0x500E DUP7 PUSH2 0x4DEA JUMP JUMPDEST PUSH1 0x0 JUMPDEST DUP3 DUP2 LT ISZERO PUSH2 0x5036 JUMPI DUP5 DUP10 ADD MLOAD DUP3 SSTORE PUSH1 0x1 DUP3 ADD SWAP2 POP PUSH1 0x20 DUP6 ADD SWAP5 POP PUSH1 0x20 DUP2 ADD SWAP1 POP PUSH2 0x5011 JUMP JUMPDEST DUP7 DUP4 LT ISZERO PUSH2 0x5053 JUMPI DUP5 DUP10 ADD MLOAD PUSH2 0x504F PUSH1 0x1F DUP10 AND DUP3 PUSH2 0x4F5C JUMP JUMPDEST DUP4 SSTORE POP JUMPDEST PUSH1 0x1 PUSH1 0x2 DUP9 MUL ADD DUP9 SSTORE POP POP POP JUMPDEST POP POP POP POP POP POP JUMP JUMPDEST PUSH1 0x0 PUSH1 0x80 DUP3 ADD SWAP1 POP PUSH2 0x507D PUSH1 0x0 DUP4 ADD DUP8 PUSH2 0x3F58 JUMP JUMPDEST PUSH2 0x508A PUSH1 0x20 DUP4 ADD DUP7 PUSH2 0x4169 JUMP JUMPDEST DUP2 DUP2 SUB PUSH1 0x40 DUP4 ADD MSTORE PUSH2 0x509C DUP2 DUP6 PUSH2 0x425E JUMP JUMPDEST SWAP1 POP PUSH2 0x50AB PUSH1 0x60 DUP4 ADD DUP5 PUSH2 0x3F58 JUMP JUMPDEST SWAP6 SWAP5 POP POP POP POP POP JUMP JUMPDEST PUSH32 0x5472616E73616374696F6E20616C726561647920636F6E6669726D6564206279 PUSH1 0x0 DUP3 ADD MSTORE PUSH32 0x2074686973206164647265737300000000000000000000000000000000000000 PUSH1 0x20 DUP3 ADD MSTORE POP JUMP JUMPDEST PUSH1 0x0 PUSH2 0x5110 PUSH1 0x2D DUP4 PUSH2 0x395B JUMP JUMPDEST SWAP2 POP PUSH2 0x511B DUP3 PUSH2 0x50B4 JUMP JUMPDEST PUSH1 0x40 DUP3 ADD SWAP1 POP SWAP2 SWAP1 POP JUMP JUMPDEST PUSH1 0x0 PUSH1 0x20 DUP3 ADD SWAP1 POP DUP2 DUP2 SUB PUSH1 0x0 DUP4 ADD MSTORE PUSH2 0x513F DUP2 PUSH2 0x5103 JUMP JUMPDEST SWAP1 POP SWAP2 SWAP1 POP JUMP JUMPDEST PUSH1 0x0 PUSH1 0x40 DUP3 ADD SWAP1 POP PUSH2 0x515B PUSH1 0x0 DUP4 ADD DUP6 PUSH2 0x3F58 JUMP JUMPDEST PUSH2 0x5168 PUSH1 0x20 DUP4 ADD DUP5 PUSH2 0x4169 JUMP JUMPDEST SWAP4 SWAP3 POP POP POP JUMP JUMPDEST PUSH32 0x416C726561647920696E697469616C697A656400000000000000000000000000 PUSH1 0x0 DUP3 ADD MSTORE POP JUMP JUMPDEST PUSH1 0x0 PUSH2 0x51A5 PUSH1 0x13 DUP4 PUSH2 0x395B JUMP JUMPDEST SWAP2 POP PUSH2 0x51B0 DUP3 PUSH2 0x516F JUMP JUMPDEST PUSH1 0x20 DUP3 ADD SWAP1 POP SWAP2 SWAP1 POP JUMP JUMPDEST PUSH1 0x0 PUSH1 0x20 DUP3 ADD SWAP1 POP DUP2 DUP2 SUB PUSH1 0x0 DUP4 ADD MSTORE PUSH2 0x51D4 DUP2 PUSH2 0x5198 JUMP JUMPDEST SWAP1 POP SWAP2 SWAP1 POP JUMP JUMPDEST PUSH1 0x0 DUP2 SWAP1 POP DUP2 PUSH1 0x0 MSTORE PUSH1 0x20 PUSH1 0x0 KECCAK256 SWAP1 POP SWAP2 SWAP1 POP JUMP JUMPDEST PUSH1 0x1F DUP3 GT ISZERO PUSH2 0x5231 JUMPI PUSH2 0x5202 DUP2 PUSH2 0x51DB JUMP JUMPDEST PUSH2 0x520B DUP5 PUSH2 0x4DFF JUMP JUMPDEST DUP2 ADD PUSH1 0x20 DUP6 LT ISZERO PUSH2 0x521A JUMPI DUP2 SWAP1 POP JUMPDEST PUSH2 0x522E PUSH2 0x5226 DUP6 PUSH2 0x4DFF JUMP JUMPDEST DUP4 ADD DUP3 PUSH2 0x4EE6 JUMP JUMPDEST POP POP JUMPDEST POP POP POP JUMP JUMPDEST PUSH2 0x523F DUP3 PUSH2 0x3950 JUMP JUMPDEST PUSH8 0xFFFFFFFFFFFFFFFF DUP2 GT ISZERO PUSH2 0x5258 JUMPI PUSH2 0x5257 PUSH2 0x3A0C JUMP JUMPDEST JUMPDEST PUSH2 0x5262 DUP3 SLOAD PUSH2 0x4768 JUMP JUMPDEST PUSH2 0x526D DUP3 DUP3 DUP6 PUSH2 0x51F0 JUMP JUMPDEST PUSH1 0x0 PUSH1 0x20 SWAP1 POP PUSH1 0x1F DUP4 GT PUSH1 0x1 DUP2 EQ PUSH2 0x52A0 JUMPI PUSH1 0x0 DUP5 ISZERO PUSH2 0x528E JUMPI DUP3 DUP8 ADD MLOAD SWAP1 POP JUMPDEST PUSH2 0x5298 DUP6 DUP3 PUSH2 0x4F7A JUMP JUMPDEST DUP7 SSTORE POP PUSH2 0x5300 JUMP JUMPDEST PUSH1 0x1F NOT DUP5 AND PUSH2 0x52AE DUP7 PUSH2 0x51DB JUMP JUMPDEST PUSH1 0x0 JUMPDEST DUP3 DUP2 LT ISZERO PUSH2 0x52D6 JUMPI DUP5 DUP10 ADD MLOAD DUP3 SSTORE PUSH1 0x1 DUP3 ADD SWAP2 POP PUSH1 0x20 DUP6 ADD SWAP5 POP PUSH1 0x20 DUP2 ADD SWAP1 POP PUSH2 0x52B1 JUMP JUMPDEST DUP7 DUP4 LT ISZERO PUSH2 0x52F3 JUMPI DUP5 DUP10 ADD MLOAD PUSH2 0x52EF PUSH1 0x1F DUP10 AND DUP3 PUSH2 0x4F5C JUMP JUMPDEST DUP4 SSTORE POP JUMPDEST PUSH1 0x1 PUSH1 0x2 DUP9 MUL ADD DUP9 SSTORE POP POP POP JUMPDEST POP POP POP POP POP POP JUMP JUMPDEST POP JUMP JUMPDEST PUSH1 0x0 PUSH2 0x5318 PUSH1 0x0 DUP4 PUSH2 0x4D97 JUMP JUMPDEST SWAP2 POP PUSH2 0x5323 DUP3 PUSH2 0x5308 JUMP JUMPDEST PUSH1 0x0 DUP3 ADD SWAP1 POP SWAP2 SWAP1 POP JUMP JUMPDEST PUSH1 0x0 PUSH2 0x5339 DUP3 PUSH2 0x530B JUMP JUMPDEST SWAP2 POP DUP2 SWAP1 POP SWAP2 SWAP1 POP JUMP JUMPDEST PUSH1 0x0 PUSH2 0x5350 PUSH1 0x0 DUP4 PUSH2 0x424D JUMP JUMPDEST SWAP2 POP PUSH2 0x535B DUP3 PUSH2 0x5308 JUMP JUMPDEST PUSH1 0x0 DUP3 ADD SWAP1 POP SWAP2 SWAP1 POP JUMP JUMPDEST PUSH1 0x0 DUP2 SWAP1 POP SWAP2 SWAP1 POP JUMP JUMPDEST PUSH1 0x0 PUSH2 0x538B PUSH2 0x5386 PUSH2 0x5381 DUP5 PUSH2 0x5366 JUMP JUMPDEST PUSH2 0x4E6E JUMP JUMPDEST PUSH2 0x38C7 JUMP JUMPDEST SWAP1 POP SWAP2 SWAP1 POP JUMP JUMPDEST PUSH2 0x539B DUP2 PUSH2 0x5370 JUMP JUMPDEST DUP3 MSTORE POP POP JUMP JUMPDEST PUSH1 0x0 PUSH1 0x80 DUP3 ADD SWAP1 POP PUSH2 0x53B6 PUSH1 0x0 DUP4 ADD DUP7 PUSH2 0x3F58 JUMP JUMPDEST PUSH2 0x53C3 PUSH1 0x20 DUP4 ADD DUP6 PUSH2 0x4169 JUMP JUMPDEST DUP2 DUP2 SUB PUSH1 0x40 DUP4 ADD MSTORE PUSH2 0x53D4 DUP2 PUSH2 0x5343 JUMP JUMPDEST SWAP1 POP PUSH2 0x53E3 PUSH1 0x60 DUP4 ADD DUP5 PUSH2 0x5392 JUMP JUMPDEST SWAP5 SWAP4 POP POP POP POP JUMP JUMPDEST PUSH1 0x0 PUSH1 0x60 DUP3 ADD SWAP1 POP PUSH2 0x5400 PUSH1 0x0 DUP4 ADD DUP6 PUSH2 0x3F58 JUMP JUMPDEST PUSH2 0x540D PUSH1 0x20 DUP4 ADD DUP5 PUSH2 0x4169 JUMP JUMPDEST DUP2 DUP2 SUB PUSH1 0x40 DUP4 ADD MSTORE PUSH2 0x541E DUP2 PUSH2 0x5343 JUMP JUMPDEST SWAP1 POP SWAP4 SWAP3 POP POP POP JUMP JUMPDEST PUSH32 0x4E6F7420656E6F75676820636F6E6669726D6174696F6E730000000000000000 PUSH1 0x0 DUP3 ADD MSTORE POP JUMP JUMPDEST PUSH1 0x0 PUSH2 0x545D PUSH1 0x18 DUP4 PUSH2 0x395B JUMP JUMPDEST SWAP2 POP PUSH2 0x5468 DUP3 PUSH2 0x5427 JUMP JUMPDEST PUSH1 0x20 DUP3 ADD SWAP1 POP SWAP2 SWAP1 POP JUMP JUMPDEST PUSH1 0x0 PUSH1 0x20 DUP3 ADD SWAP1 POP DUP2 DUP2 SUB PUSH1 0x0 DUP4 ADD MSTORE PUSH2 0x548C DUP2 PUSH2 0x5450 JUMP JUMPDEST SWAP1 POP SWAP2 SWAP1 POP JUMP JUMPDEST PUSH1 0x0 DUP2 SLOAD PUSH2 0x54A0 DUP2 PUSH2 0x4768 JUMP JUMPDEST PUSH2 0x54AA DUP2 DUP7 PUSH2 0x4D97 JUMP JUMPDEST SWAP5 POP PUSH1 0x1 DUP3 AND PUSH1 0x0 DUP2 EQ PUSH2 0x54C5 JUMPI PUSH1 0x1 DUP2 EQ PUSH2 0x54DA JUMPI PUSH2 0x550D JUMP JUMPDEST PUSH1 0xFF NOT DUP4 AND DUP7 MSTORE DUP2 ISZERO ISZERO DUP3 MUL DUP7 ADD SWAP4 POP PUSH2 0x550D JUMP JUMPDEST PUSH2 0x54E3 DUP6 PUSH2 0x4DEA JUMP JUMPDEST PUSH1 0x0 JUMPDEST DUP4 DUP2 LT ISZERO PUSH2 0x5505 JUMPI DUP2 SLOAD DUP2 DUP10 ADD MSTORE PUSH1 0x1 DUP3 ADD SWAP2 POP PUSH1 0x20 DUP2 ADD SWAP1 POP PUSH2 0x54E6 JUMP JUMPDEST DUP4 DUP9 ADD SWAP6 POP POP POP JUMPDEST POP POP POP SWAP3 SWAP2 POP POP JUMP JUMPDEST PUSH1 0x0 PUSH2 0x5522 DUP3 DUP5 PUSH2 0x5493 JUMP JUMPDEST SWAP2 POP DUP2 SWAP1 POP SWAP3 SWAP2 POP POP JUMP JUMPDEST PUSH32 0x5472616E73616374696F6E20657865637574696F6E206661696C656400000000 PUSH1 0x0 DUP3 ADD MSTORE POP JUMP JUMPDEST PUSH1 0x0 PUSH2 0x5563 PUSH1 0x1C DUP4 PUSH2 0x395B JUMP JUMPDEST SWAP2 POP PUSH2 0x556E DUP3 PUSH2 0x552D JUMP JUMPDEST PUSH1 0x20 DUP3 ADD SWAP1 POP SWAP2 SWAP1 POP JUMP JUMPDEST PUSH1 0x0 PUSH1 0x20 DUP3 ADD SWAP1 POP DUP2 DUP2 SUB PUSH1 0x0 DUP4 ADD MSTORE PUSH2 0x5592 DUP2 PUSH2 0x5556 JUMP JUMPDEST SWAP1 POP SWAP2 SWAP1 POP JUMP JUMPDEST PUSH1 0x0 DUP2 SLOAD PUSH2 0x55A6 DUP2 PUSH2 0x4768 JUMP JUMPDEST PUSH2 0x55B0 DUP2 DUP7 PUSH2 0x424D JUMP JUMPDEST SWAP5 POP PUSH1 0x1 DUP3 AND PUSH1 0x0 DUP2 EQ PUSH2 0x55CB JUMPI PUSH1 0x1 DUP2 EQ PUSH2 0x55E1 JUMPI PUSH2 0x5614 JUMP JUMPDEST PUSH1 0xFF NOT DUP4 AND DUP7 MSTORE DUP2 ISZERO ISZERO PUSH1 0x20 MUL DUP7 ADD SWAP4 POP PUSH2 0x5614 JUMP JUMPDEST PUSH2 0x55EA DUP6 PUSH2 0x4DEA JUMP JUMPDEST PUSH1 0x0 JUMPDEST DUP4 DUP2 LT ISZERO PUSH2 0x560C JUMPI DUP2 SLOAD DUP2 DUP10 ADD MSTORE PUSH1 0x1 DUP3 ADD SWAP2 POP PUSH1 0x20 DUP2 ADD SWAP1 POP PUSH2 0x55ED JUMP JUMPDEST DUP1 DUP9 ADD SWAP6 POP POP POP JUMPDEST POP POP POP SWAP3 SWAP2 POP POP JUMP JUMPDEST PUSH1 0x0 PUSH1 0x60 DUP3 ADD SWAP1 POP PUSH2 0x5632 PUSH1 0x0 DUP4 ADD DUP7 PUSH2 0x3F58 JUMP JUMPDEST PUSH2 0x563F PUSH1 0x20 DUP4 ADD DUP6 PUSH2 0x4169 JUMP JUMPDEST DUP2 DUP2 SUB PUSH1 0x40 DUP4 ADD MSTORE PUSH2 0x5651 DUP2 DUP5 PUSH2 0x5599 JUMP JUMPDEST SWAP1 POP SWAP5 SWAP4 POP POP POP POP JUMP INVALID LOG2 PUSH5 0x6970667358 0x22 SLT KECCAK256 SWAP16 EXP PUSH16 0x94CB9D3E427B34895AA2F6C99F13C9F1 0xAA PUSH28 0xA7C1F1CDD325430DBCA6A664736F6C63430008180033000000000000 "},"methodIdentifiers":{"assets(uint256)":"cf35bdd0","cancelTransaction(uint256)":"3380c0d8","confirmTransaction(uint256)":"c01a8c84","confirmed(uint256,address)":"8790c1de","dailyLimit()":"67eeba0c","dailyWithdrawnAmount(address)":"8c8bfd0e","delay()":"6a42b8f8","depositNFT(address,uint256)":"9b5b9b18","depositToken(address,uint256)":"338b5dea","freeze()":"62a5af3b","freezeLock(uint256)":"5664a47a","getLimit(address,address,uint256)":"f11ce429","getLimitAmount(address)":"da1eac0d","init(address,string,address,address[],uint256,uint256,uint256)":"d63da95c","isWhitelisted(address)":"3af32abf","lastWithdrawTimestamp(address)":"75ca1a01","name()":"06fdde03","onERC721Received(address,address,uint256,bytes)":"150b7a02","owner()":"8da5cb5b","queueTransaction(address,bytes,uint256)":"8c3dc5c1","queuedTransactions(uint256)":"d176e93a","queuedTxs()":"2780fb1d","recover(address,address,uint256,bytes,uint256)":"6ae56240","recoveryAddress()":"710eb26c","setTokenLimit(address,uint256,uint256,uint256)":"1ae138a5","threshold()":"42cde4e8","tokenLimits(address)":"417a0698","updateDailyLimit(uint256)":"f8175d78","updateDelay(uint256)":"64d62353","updateRecoveryAddress(address)":"80a4b461","updateSettings(address,address[],uint256,uint256,uint256,address[],uint256[],uint256[],uint256[])":"27492ccf","updateThreshold(uint256)":"d7d7442f","updateWhitelistAddresses(address[])":"5d12069a","version()":"54fd4d50","whitelistedAddresses(uint256)":"ba4e5c49","withdrawToken(address,address,uint256)":"01e33667"}}}}}