{"contracts/Gigastrat.sol":{"Gigastrat2":{"abi":[{"inputs":[{"internalType":"address","name":"_ioUMint","type":"address"},{"internalType":"address","name":"_usdcToken","type":"address"},{"internalType":"address","name":"_uniswapV3Router","type":"address"},{"internalType":"address","name":"_wethAddress","type":"address"},{"internalType":"address","name":"_priceFeedAddress","type":"address"}],"stateMutability":"nonpayable","type":"constructor"},{"inputs":[],"name":"AllowanceOverflow","type":"error"},{"inputs":[],"name":"AllowanceUnderflow","type":"error"},{"inputs":[],"name":"InsufficientAllowance","type":"error"},{"inputs":[],"name":"InsufficientBalance","type":"error"},{"inputs":[],"name":"TotalSupplyOverflow","type":"error"},{"anonymous":false,"inputs":[{"indexed":true,"internalType":"address","name":"owner","type":"address"},{"indexed":true,"internalType":"address","name":"spender","type":"address"},{"indexed":false,"internalType":"uint256","name":"amount","type":"uint256"}],"name":"Approval","type":"event"},{"anonymous":false,"inputs":[{"indexed":false,"internalType":"uint256","name":"loanIndex","type":"uint256"},{"indexed":false,"internalType":"uint256","name":"usdcSpent","type":"uint256"},{"indexed":false,"internalType":"uint256","name":"ethReceived","type":"uint256"}],"name":"BoughtETH","type":"event"},{"anonymous":false,"inputs":[{"indexed":true,"internalType":"address","name":"user","type":"address"},{"indexed":false,"internalType":"uint256","name":"daoBurned","type":"uint256"},{"indexed":false,"internalType":"uint256","name":"ethReceived","type":"uint256"}],"name":"BurnedForETH","type":"event"},{"anonymous":false,"inputs":[{"indexed":false,"internalType":"uint256","name":"loanIndex","type":"uint256"},{"indexed":false,"internalType":"uint256","name":"newRate","type":"uint256"}],"name":"ConversionRateUpdated","type":"event"},{"anonymous":false,"inputs":[{"indexed":true,"internalType":"address","name":"user","type":"address"},{"indexed":true,"internalType":"address","name":"loanAddress","type":"address"},{"indexed":false,"internalType":"uint256","name":"iouAmount","type":"uint256"},{"indexed":false,"internalType":"uint256","name":"daoMinted","type":"uint256"},{"indexed":false,"internalType":"uint256","name":"loanIndex","type":"uint256"}],"name":"IOUSwapped","type":"event"},{"anonymous":false,"inputs":[{"indexed":false,"internalType":"uint256","name":"amount","type":"uint256"},{"indexed":false,"internalType":"uint256","name":"drawTime","type":"uint256"},{"indexed":false,"internalType":"uint256","name":"loanIndex","type":"uint256"}],"name":"LoanDrawn","type":"event"},{"anonymous":false,"inputs":[{"indexed":false,"internalType":"uint256","name":"loanIndex","type":"uint256"},{"indexed":false,"internalType":"uint256","name":"usdcUsed","type":"uint256"}],"name":"LoanRepaid","type":"event"},{"anonymous":false,"inputs":[{"indexed":true,"internalType":"address","name":"loanAddress","type":"address"},{"indexed":false,"internalType":"uint256","name":"loanIndex","type":"uint256"}],"name":"LoanStarted","type":"event"},{"anonymous":false,"inputs":[{"indexed":false,"internalType":"uint256","name":"loanIndex","type":"uint256"},{"indexed":false,"internalType":"uint256","name":"profitETH","type":"uint256"}],"name":"ProfitFinalized","type":"event"},{"anonymous":false,"inputs":[{"indexed":false,"internalType":"uint256","name":"iouRedeemed","type":"uint256"},{"indexed":false,"internalType":"uint256","name":"usdcReceived","type":"uint256"},{"indexed":false,"internalType":"uint256","name":"ethReceived","type":"uint256"}],"name":"RedeemedAndSwapped","type":"event"},{"anonymous":false,"inputs":[{"indexed":true,"internalType":"address","name":"from","type":"address"},{"indexed":true,"internalType":"address","name":"to","type":"address"},{"indexed":false,"internalType":"uint256","name":"amount","type":"uint256"}],"name":"Transfer","type":"event"},{"inputs":[],"name":"NO_DEADLINE","outputs":[{"internalType":"uint256","name":"","type":"uint256"}],"stateMutability":"view","type":"function"},{"inputs":[],"name":"POOL_FEE","outputs":[{"internalType":"uint24","name":"","type":"uint24"}],"stateMutability":"view","type":"function"},{"inputs":[],"name":"SLIPPAGE","outputs":[{"internalType":"uint256","name":"","type":"uint256"}],"stateMutability":"view","type":"function"},{"inputs":[{"internalType":"address","name":"owner","type":"address"},{"internalType":"address","name":"spender","type":"address"}],"name":"allowance","outputs":[{"internalType":"uint256","name":"result","type":"uint256"}],"stateMutability":"view","type":"function"},{"inputs":[{"internalType":"address","name":"spender","type":"address"},{"internalType":"uint256","name":"amount","type":"uint256"}],"name":"approve","outputs":[{"internalType":"bool","name":"","type":"bool"}],"stateMutability":"nonpayable","type":"function"},{"inputs":[{"internalType":"address","name":"owner","type":"address"}],"name":"balanceOf","outputs":[{"internalType":"uint256","name":"result","type":"uint256"}],"stateMutability":"view","type":"function"},{"inputs":[{"internalType":"uint256","name":"daoTokenAmount","type":"uint256"}],"name":"burnForETH","outputs":[],"stateMutability":"nonpayable","type":"function"},{"inputs":[{"internalType":"uint256","name":"loanIndex","type":"uint256"},{"internalType":"uint256","name":"usdcAmount","type":"uint256"}],"name":"buyETH","outputs":[],"stateMutability":"nonpayable","type":"function"},{"inputs":[],"name":"decimals","outputs":[{"internalType":"uint8","name":"","type":"uint8"}],"stateMutability":"view","type":"function"},{"inputs":[{"internalType":"uint256","name":"loanIndex","type":"uint256"},{"internalType":"uint256","name":"amount","type":"uint256"}],"name":"drawDownLoan","outputs":[],"stateMutability":"nonpayable","type":"function"},{"inputs":[],"name":"ethFromMint","outputs":[{"internalType":"uint256","name":"","type":"uint256"}],"stateMutability":"view","type":"function"},{"inputs":[{"internalType":"uint256","name":"loanIndex","type":"uint256"},{"internalType":"uint256","name":"amount","type":"uint256"},{"internalType":"uint256","name":"repayRedeemorBuy","type":"uint256"}],"name":"fill","outputs":[],"stateMutability":"payable","type":"function"},{"inputs":[{"internalType":"uint256","name":"loanIndex","type":"uint256"},{"internalType":"uint256","name":"amount","type":"uint256"}],"name":"fundLoan","outputs":[],"stateMutability":"nonpayable","type":"function"},{"inputs":[],"name":"getLatestPrice","outputs":[{"internalType":"int256","name":"","type":"int256"}],"stateMutability":"view","type":"function"},{"inputs":[],"name":"getProfit","outputs":[{"internalType":"uint256","name":"","type":"uint256"}],"stateMutability":"view","type":"function"},{"inputs":[],"name":"ioUMint","outputs":[{"internalType":"contract IIOUMint","name":"","type":"address"}],"stateMutability":"view","type":"function"},{"inputs":[{"internalType":"uint256","name":"","type":"uint256"}],"name":"loans","outputs":[{"internalType":"address","name":"loanAddress","type":"address"},{"internalType":"uint256","name":"loanGoal","type":"uint256"},{"internalType":"uint256","name":"totalDrawnDown","type":"uint256"},{"internalType":"bool","name":"loanDrawn","type":"bool"},{"internalType":"uint256","name":"loanDrawnTime","type":"uint256"},{"internalType":"bool","name":"fullyRepaid","type":"bool"},{"internalType":"uint256","name":"iouConversionRate","type":"uint256"},{"internalType":"uint256","name":"totalBuyETH","type":"uint256"},{"internalType":"uint256","name":"soldETH","type":"uint256"},{"internalType":"uint256","name":"profitETH","type":"uint256"},{"internalType":"uint256","name":"lossETH","type":"uint256"}],"stateMutability":"view","type":"function"},{"inputs":[],"name":"name","outputs":[{"internalType":"string","name":"","type":"string"}],"stateMutability":"view","type":"function"},{"inputs":[],"name":"openLoan","outputs":[],"stateMutability":"nonpayable","type":"function"},{"inputs":[],"name":"priceFeed","outputs":[{"internalType":"contract AggregatorV3Interface","name":"","type":"address"}],"stateMutability":"view","type":"function"},{"inputs":[{"internalType":"uint256","name":"","type":"uint256"}],"name":"repaid","outputs":[{"internalType":"uint256","name":"","type":"uint256"}],"stateMutability":"view","type":"function"},{"inputs":[{"internalType":"uint256","name":"loanIndex","type":"uint256"}],"name":"repayLoan","outputs":[],"stateMutability":"nonpayable","type":"function"},{"inputs":[{"internalType":"uint256","name":"loanIndex","type":"uint256"},{"internalType":"uint256","name":"usdcAmount","type":"uint256"}],"name":"repayLoanUSDC","outputs":[],"stateMutability":"nonpayable","type":"function"},{"inputs":[{"internalType":"address","name":"","type":"address"}],"name":"role","outputs":[{"internalType":"uint256","name":"","type":"uint256"}],"stateMutability":"view","type":"function"},{"inputs":[{"internalType":"address","name":"_address","type":"address"},{"internalType":"uint256","name":"_role","type":"uint256"}],"name":"setRole","outputs":[],"stateMutability":"nonpayable","type":"function"},{"inputs":[{"internalType":"uint256","name":"_loanGoal","type":"uint256"},{"internalType":"address","name":"_token","type":"address"},{"internalType":"uint256","name":"_annualInterestRate","type":"uint256"},{"internalType":"uint256","name":"_platformFeeRate","type":"uint256"},{"internalType":"address","name":"_feeAddress","type":"address"},{"internalType":"uint256","name":"_loanIOUConversionRate","type":"uint256"}],"name":"startLoan","outputs":[],"stateMutability":"nonpayable","type":"function"},{"inputs":[{"internalType":"uint256","name":"loanIndex","type":"uint256"},{"internalType":"uint256","name":"iouAmount","type":"uint256"}],"name":"swapIOUForMintTokens","outputs":[],"stateMutability":"nonpayable","type":"function"},{"inputs":[],"name":"swapRouter","outputs":[{"internalType":"contract ISwapRouter","name":"","type":"address"}],"stateMutability":"view","type":"function"},{"inputs":[],"name":"symbol","outputs":[{"internalType":"string","name":"","type":"string"}],"stateMutability":"view","type":"function"},{"inputs":[],"name":"totalLoans","outputs":[{"internalType":"uint256","name":"","type":"uint256"}],"stateMutability":"view","type":"function"},{"inputs":[],"name":"totalSupply","outputs":[{"internalType":"uint256","name":"result","type":"uint256"}],"stateMutability":"view","type":"function"},{"inputs":[{"internalType":"address","name":"to","type":"address"},{"internalType":"uint256","name":"amount","type":"uint256"}],"name":"transfer","outputs":[{"internalType":"bool","name":"","type":"bool"}],"stateMutability":"nonpayable","type":"function"},{"inputs":[{"internalType":"address","name":"from","type":"address"},{"internalType":"address","name":"to","type":"address"},{"internalType":"uint256","name":"amount","type":"uint256"}],"name":"transferFrom","outputs":[{"internalType":"bool","name":"","type":"bool"}],"stateMutability":"nonpayable","type":"function"},{"inputs":[],"name":"usdcToken","outputs":[{"internalType":"address","name":"","type":"address"}],"stateMutability":"view","type":"function"},{"inputs":[],"name":"wethAddress","outputs":[{"internalType":"address","name":"","type":"address"}],"stateMutability":"view","type":"function"},{"stateMutability":"payable","type":"receive"}],"evm":{"bytecode":{"linkReferences":{},"object":"6080604052739d31e30003f253563ff108bc60b16fdf2c93abb5600660006101000a81548173ffffffffffffffffffffffffffffffffffffffff021916908373ffffffffffffffffffffffffffffffffffffffff1602179055503480156200006657600080fd5b50604051620067253803806200672583398181016040528101906200008c9190620006c8565b84600160006101000a81548173ffffffffffffffffffffffffffffffffffffffff021916908373ffffffffffffffffffffffffffffffffffffffff16021790555083600260006101000a81548173ffffffffffffffffffffffffffffffffffffffff021916908373ffffffffffffffffffffffffffffffffffffffff16021790555082600360006101000a81548173ffffffffffffffffffffffffffffffffffffffff021916908373ffffffffffffffffffffffffffffffffffffffff16021790555081600460006101000a81548173ffffffffffffffffffffffffffffffffffffffff021916908373ffffffffffffffffffffffffffffffffffffffff16021790555080600560006101000a81548173ffffffffffffffffffffffffffffffffffffffff021916908373ffffffffffffffffffffffffffffffffffffffff1602179055506002600860003073ffffffffffffffffffffffffffffffffffffffff1673ffffffffffffffffffffffffffffffffffffffff168152602001908152602001600020819055506002600860003373ffffffffffffffffffffffffffffffffffffffff1673ffffffffffffffffffffffffffffffffffffffff168152602001908152602001600020819055506001600860006cc0d7d3017b342ff039b55b087973ffffffffffffffffffffffffffffffffffffffff1673ffffffffffffffffffffffffffffffffffffffff168152602001908152602001600020819055506002600860003373ffffffffffffffffffffffffffffffffffffffff1673ffffffffffffffffffffffffffffffffffffffff1681526020019081526020016000208190555062000337620186a0600260009054906101000a900473ffffffffffffffffffffffffffffffffffffffff166064600030670de0b6b3a76400006200034260201b60201c565b505050505062000a1e565b600280600860003373ffffffffffffffffffffffffffffffffffffffff1673ffffffffffffffffffffffffffffffffffffffff1681526020019081526020016000205414620003c8576040517f08c379a0000000000000000000000000000000000000000000000000000000008152600401620003bf90620007b1565b60405180910390fd5b6000600160009054906101000a900473ffffffffffffffffffffffffffffffffffffffff1673ffffffffffffffffffffffffffffffffffffffff16631638711b88308b8a8a8a60006040518863ffffffff1660e01b8152600401620004349796959493929190620008bc565b6020604051808303816000875af115801562000454573d6000803e3d6000fd5b505050506040513d601f19601f820116820180604052508101906200047a919062000965565b905060006040518061016001604052808373ffffffffffffffffffffffffffffffffffffffff1681526020018a81526020016000815260200160001515815260200160008152602001600015158152602001858152602001600081526020016000815260200160008152602001600081525090806001815401808255809150506001900390600052602060002090600b020160009091909190915060008201518160000160006101000a81548173ffffffffffffffffffffffffffffffffffffffff021916908373ffffffffffffffffffffffffffffffffffffffff160217905550602082015181600101556040820151816002015560608201518160030160006101000a81548160ff0219169083151502179055506080820151816004015560a08201518160050160006101000a81548160ff02191690831515021790555060c0820151816006015560e082015181600701556101008201518160080155610120820151816009015561014082015181600a015550508073ffffffffffffffffffffffffffffffffffffffff167f648e161f301b32079cbff6f2eecb4b7bc8d0eb9e67218201eb3703bdc232a29f60016000805490506200063d9190620009c6565b6040516200064c919062000a01565b60405180910390a25050505050505050565b600080fd5b600073ffffffffffffffffffffffffffffffffffffffff82169050919050565b6000620006908262000663565b9050919050565b620006a28162000683565b8114620006ae57600080fd5b50565b600081519050620006c28162000697565b92915050565b600080600080600060a08688031215620006e757620006e66200065e565b5b6000620006f788828901620006b1565b95505060206200070a88828901620006b1565b94505060406200071d88828901620006b1565b93505060606200073088828901620006b1565b92505060806200074388828901620006b1565b9150509295509295909350565b600082825260208201905092915050565b7f4e6f7420617574686f72697a6564000000000000000000000000000000000000600082015250565b600062000799600e8362000750565b9150620007a68262000761565b602082019050919050565b60006020820190508181036000830152620007cc816200078a565b9050919050565b620007de8162000683565b82525050565b6000819050919050565b620007f981620007e4565b82525050565b7f4769676153747261740000000000000000000000000000000000000000000000600082015250565b60006200083760098362000750565b91506200084482620007ff565b602082019050919050565b7f4747000000000000000000000000000000000000000000000000000000000000600082015250565b60006200088760028362000750565b915062000894826200084f565b602082019050919050565b60008115159050919050565b620008b6816200089f565b82525050565b600061012082019050620008d4600083018a620007d3565b620008e36020830189620007d3565b620008f26040830188620007ee565b620009016060830187620007ee565b620009106080830186620007ee565b6200091f60a0830185620007d3565b81810360c0830152620009328162000828565b905081810360e0830152620009478162000878565b905062000959610100830184620008ab565b98975050505050505050565b6000602082840312156200097e576200097d6200065e565b5b60006200098e84828501620006b1565b91505092915050565b7f4e487b7100000000000000000000000000000000000000000000000000000000600052601160045260246000fd5b6000620009d382620007e4565b9150620009e083620007e4565b9250828203905081811115620009fb57620009fa62000997565b5b92915050565b600060208201905062000a186000830184620007ee565b92915050565b615cf78062000a2e6000396000f3fe6080604052600436106102085760003560e01c8063741bef1a11610118578063cb254f7e116100a0578063dd1b9c4a1161006f578063dd1b9c4a14610759578063dd62ed3e14610784578063e1ec3c68146107c1578063ee5d025214610808578063f4512bb6146108315761020f565b8063cb254f7e1461069d578063cc952b57146106c6578063d590f8c9146106f1578063db3a98151461072e5761020f565b806395d89b41116100e757806395d89b41146105b6578063a693ac64146105e1578063a9059cbb1461060c578063ab7b1c8914610649578063c31c9c07146106725761020f565b8063741bef1a1461050c57806374277a63146105375780638b0c030d146105605780638e15f4731461058b5761020f565b80633614d0d21161019b578063679dffb41161016a578063679dffb4146104485780636b231938146104735780636b7619c41461048a5780636fe4a448146104b357806370a08231146104cf5761020f565b80633614d0d21461038c57806336b4134a146103b55780634f0e0ef3146103e05780635f93893b1461040b5761020f565b806318160ddd116101d757806318160ddd146102d05780632137e1b9146102fb57806323b872dd14610324578063313ce567146103615761020f565b806306fdde0314610214578063095ea7b31461023f5780630bbaf6751461027c57806311eac855146102a55761020f565b3661020f57005b600080fd5b34801561022057600080fd5b5061022961085a565b6040516102369190614708565b60405180910390f35b34801561024b57600080fd5b50610266600480360381019061026191906147c3565b610897565b604051610273919061481e565b60405180910390f35b34801561028857600080fd5b506102a3600480360381019061029e9190614839565b6108eb565b005b3480156102b157600080fd5b506102ba610bfb565b6040516102c791906148d5565b60405180910390f35b3480156102dc57600080fd5b506102e5610c21565b6040516102f291906148ff565b60405180910390f35b34801561030757600080fd5b50610322600480360381019061031d919061491a565b610c33565b005b34801561033057600080fd5b5061034b6004803603810190610346919061495a565b611289565b604051610358919061481e565b60405180910390f35b34801561036d57600080fd5b50610376611346565b60405161038391906149c9565b60405180910390f35b34801561039857600080fd5b506103b360048036038101906103ae919061491a565b61134f565b005b3480156103c157600080fd5b506103ca611b59565b6040516103d791906148ff565b60405180910390f35b3480156103ec57600080fd5b506103f5611b64565b60405161040291906148d5565b60405180910390f35b34801561041757600080fd5b50610432600480360381019061042d91906149e4565b611b8a565b60405161043f91906148ff565b60405180910390f35b34801561045457600080fd5b5061045d611ba2565b60405161046a91906148ff565b60405180910390f35b34801561047f57600080fd5b50610488611c54565b005b34801561049657600080fd5b506104b160048036038101906104ac919061491a565b612218565b005b6104cd60048036038101906104c89190614a11565b61242f565b005b3480156104db57600080fd5b506104f660048036038101906104f19190614a64565b613012565b60405161050391906148ff565b60405180910390f35b34801561051857600080fd5b5061052161302d565b60405161052e9190614af0565b60405180910390f35b34801561054357600080fd5b5061055e600480360381019061055991906147c3565b613053565b005b34801561056c57600080fd5b506105756131d0565b60405161058291906148ff565b60405180910390f35b34801561059757600080fd5b506105a06131d6565b6040516105ad9190614b24565b60405180910390f35b3480156105c257600080fd5b506105cb613277565b6040516105d89190614708565b60405180910390f35b3480156105ed57600080fd5b506105f66132b4565b60405161060391906148ff565b60405180910390f35b34801561061857600080fd5b50610633600480360381019061062e91906147c3565b6132d8565b604051610640919061481e565b60405180910390f35b34801561065557600080fd5b50610670600480360381019061066b91906149e4565b613354565b005b34801561067e57600080fd5b5061068761373b565b6040516106949190614b60565b60405180910390f35b3480156106a957600080fd5b506106c460048036038101906106bf919061491a565b613761565b005b3480156106d257600080fd5b506106db613c6c565b6040516106e891906148ff565b60405180910390f35b3480156106fd57600080fd5b5061071860048036038101906107139190614a64565b613c78565b60405161072591906148ff565b60405180910390f35b34801561073a57600080fd5b50610743613c90565b6040516107509190614b9c565b60405180910390f35b34801561076557600080fd5b5061076e613cb6565b60405161077b9190614bd5565b60405180910390f35b34801561079057600080fd5b506107ab60048036038101906107a69190614bf0565b613cbc565b6040516107b891906148ff565b60405180910390f35b3480156107cd57600080fd5b506107e860048036038101906107e391906149e4565b613cdc565b6040516107ff9b9a99989796959493929190614c30565b60405180910390f35b34801561081457600080fd5b5061082f600480360381019061082a91906149e4565b613d80565b005b34801561083d57600080fd5b506108586004803603810190610853919061491a565b6140e1565b005b60606040518060400160405280600981526020017f4769676153747261740000000000000000000000000000000000000000000000815250905090565b600082602052637f5e9f20600c5233600052816034600c205581600052602c5160601c337f8c5be1e5ebec7d5bd14f71427d1e84f3dd0314c0f7b2291e5b200ac8c7c3b92560206000a36001905092915050565b600280600860003373ffffffffffffffffffffffffffffffffffffffff1673ffffffffffffffffffffffffffffffffffffffff168152602001908152602001600020541461096e576040517f08c379a000000000000000000000000000000000000000000000000000000000815260040161096590614d27565b60405180910390fd5b6000600160009054906101000a900473ffffffffffffffffffffffffffffffffffffffff1673ffffffffffffffffffffffffffffffffffffffff16631638711b88308b8a8a8a60006040518863ffffffff1660e01b81526004016109d89796959493929190614ddf565b6020604051808303816000875af11580156109f7573d6000803e3d6000fd5b505050506040513d601f19601f82011682018060405250810190610a1b9190614e8b565b905060006040518061016001604052808373ffffffffffffffffffffffffffffffffffffffff1681526020018a81526020016000815260200160001515815260200160008152602001600015158152602001858152602001600081526020016000815260200160008152602001600081525090806001815401808255809150506001900390600052602060002090600b020160009091909190915060008201518160000160006101000a81548173ffffffffffffffffffffffffffffffffffffffff021916908373ffffffffffffffffffffffffffffffffffffffff160217905550602082015181600101556040820151816002015560608201518160030160006101000a81548160ff0219169083151502179055506080820151816004015560a08201518160050160006101000a81548160ff02191690831515021790555060c0820151816006015560e082015181600701556101008201518160080155610120820151816009015561014082015181600a015550508073ffffffffffffffffffffffffffffffffffffffff167f648e161f301b32079cbff6f2eecb4b7bc8d0eb9e67218201eb3703bdc232a29f6001600080549050610bdc9190614ee7565b604051610be991906148ff565b60405180910390a25050505050505050565b600260009054906101000a900473ffffffffffffffffffffffffffffffffffffffff1681565b60006805345cdf77eb68f44c54905090565b6000805490508210610c7a576040517f08c379a0000000000000000000000000000000000000000000000000000000008152600401610c7190614f67565b60405180910390fd5b60008111610cbd576040517f08c379a0000000000000000000000000000000000000000000000000000000008152600401610cb490614fd3565b60405180910390fd5b6000808381548110610cd257610cd1614ff3565b5b90600052602060002090600b020190508060000160009054906101000a900473ffffffffffffffffffffffffffffffffffffffff1673ffffffffffffffffffffffffffffffffffffffff166323b872dd3330856040518463ffffffff1660e01b8152600401610d4393929190615022565b6020604051808303816000875af1158015610d62573d6000803e3d6000fd5b505050506040513d601f19601f82011682018060405250810190610d869190615085565b5060008160060154670de0b6b3a764000084610da291906150b2565b610dac9190615123565b9050610db8338261457a565b610df0600660009054906101000a900473ffffffffffffffffffffffffffffffffffffffff16601483610deb9190615123565b61457a565b60008260000160009054906101000a900473ffffffffffffffffffffffffffffffffffffffff1673ffffffffffffffffffffffffffffffffffffffff166318160ddd6040518163ffffffff1660e01b8152600401602060405180830381865afa158015610e61573d6000803e3d6000fd5b505050506040513d601f19601f82011682018060405250810190610e859190615169565b60008681548110610e9957610e98614ff3565b5b90600052602060002090600b02016007015485610eb691906150b2565b610ec09190615123565b90508060008681548110610ed757610ed6614ff3565b5b90600052602060002090600b02016008016000828254610ef79190615196565b925050819055508260000160009054906101000a900473ffffffffffffffffffffffffffffffffffffffff1673ffffffffffffffffffffffffffffffffffffffff1663211d9a53856040518263ffffffff1660e01b8152600401610f5b91906148ff565b600060405180830381600087803b158015610f7557600080fd5b505af1158015610f89573d6000803e3d6000fd5b505050508260000160009054906101000a900473ffffffffffffffffffffffffffffffffffffffff1673ffffffffffffffffffffffffffffffffffffffff1663316fb7c48460000160009054906101000a900473ffffffffffffffffffffffffffffffffffffffff1673ffffffffffffffffffffffffffffffffffffffff166306d378176040518163ffffffff1660e01b8152600401602060405180830381865afa15801561103c573d6000803e3d6000fd5b505050506040513d601f19601f820116820180604052508101906110609190614e8b565b73ffffffffffffffffffffffffffffffffffffffff1663313ce5676040518163ffffffff1660e01b8152600401602060405180830381865afa1580156110aa573d6000803e3d6000fd5b505050506040513d601f19601f820116820180604052508101906110ce91906151f6565b60126110da9190615223565b600a6110e6919061538b565b866110f19190615123565b8560000160009054906101000a900473ffffffffffffffffffffffffffffffffffffffff1673ffffffffffffffffffffffffffffffffffffffff16636f0a7f716040518163ffffffff1660e01b8152600401602060405180830381865afa158015611160573d6000803e3d6000fd5b505050506040513d601f19601f820116820180604052508101906111849190615169565b61118e9190614ee7565b6040518263ffffffff1660e01b81526004016111aa91906148ff565b600060405180830381600087803b1580156111c457600080fd5b505af11580156111d8573d6000803e3d6000fd5b5050505080600760008282546111ee9190615196565b925050819055508260000160009054906101000a900473ffffffffffffffffffffffffffffffffffffffff1673ffffffffffffffffffffffffffffffffffffffff163373ffffffffffffffffffffffffffffffffffffffff167f37e6c831dff7b054163ba09e9da83d6f3655f037c0d389b6f453cff3007a54f186858960405161127a939291906153d6565b60405180910390a35050505050565b60008360601b33602052637f5e9f208117600c526034600c2080548019156112c757808511156112c1576313be252b6000526004601cfd5b84810382555b6387a211a28317600c526020600c208054808711156112ee5763f4d678b86000526004601cfd5b8681038255876000526020600c2087815401815587602052600c5160601c8660601c7fddf252ad1be2c89b69c2b068fc378daa952ba7f163c4a11628f55a4df523b3ef602080a3505050505050600190509392505050565b60006012905090565b600280600860003373ffffffffffffffffffffffffffffffffffffffff1673ffffffffffffffffffffffffffffffffffffffff16815260200190815260200160002054146113d2576040517f08c379a00000000000000000000000000000000000000000000000000000000081526004016113c990614d27565b60405180910390fd5b6000805490508310611419576040517f08c379a000000000000000000000000000000000000000000000000000000000815260040161141090614f67565b60405180910390fd5b600080848154811061142e5761142d614ff3565b5b90600052602060002090600b020190508060030160009054906101000a900460ff1661148f576040517f08c379a000000000000000000000000000000000000000000000000000000000815260040161148690615459565b60405180910390fd5b60006114996131d6565b9050600081136114de576040517f08c379a00000000000000000000000000000000000000000000000000000000081526004016114d5906154c5565b60405180910390fd5b60008168056bc75e2d63100000866114f691906150b2565b6115009190615123565b90506000662386f26fc10000670de0b6b3a764000061151f9190614ee7565b670de0b6b3a76400008361153391906150b2565b61153d9190615123565b9050600460009054906101000a900473ffffffffffffffffffffffffffffffffffffffff1673ffffffffffffffffffffffffffffffffffffffff1663d0e30db0826040518263ffffffff1660e01b81526004016000604051808303818588803b1580156115a957600080fd5b505af11580156115bd573d6000803e3d6000fd5b5050505050600460009054906101000a900473ffffffffffffffffffffffffffffffffffffffff1673ffffffffffffffffffffffffffffffffffffffff1663095ea7b3600360009054906101000a900473ffffffffffffffffffffffffffffffffffffffff16836040518363ffffffff1660e01b81526004016116419291906154e5565b6020604051808303816000875af1158015611660573d6000803e3d6000fd5b505050506040513d601f19601f820116820180604052508101906116849190615085565b5060006040518060e00160405280600460009054906101000a900473ffffffffffffffffffffffffffffffffffffffff1673ffffffffffffffffffffffffffffffffffffffff168152602001600260009054906101000a900473ffffffffffffffffffffffffffffffffffffffff1673ffffffffffffffffffffffffffffffffffffffff1681526020016101f462ffffff1681526020013073ffffffffffffffffffffffffffffffffffffffff168152602001838152602001888152602001600073ffffffffffffffffffffffffffffffffffffffff1681525090506000600360009054906101000a900473ffffffffffffffffffffffffffffffffffffffff1673ffffffffffffffffffffffffffffffffffffffff166304e45aaf836040518263ffffffff1660e01b81526004016117bd91906155d8565b6020604051808303816000875af11580156117dc573d6000803e3d6000fd5b505050506040513d601f19601f820116820180604052508101906118009190615169565b905087811015611845576040517f08c379a000000000000000000000000000000000000000000000000000000000815260040161183c9061563f565b60405180910390fd5b600260009054906101000a900473ffffffffffffffffffffffffffffffffffffffff1673ffffffffffffffffffffffffffffffffffffffff1663095ea7b38760000160009054906101000a900473ffffffffffffffffffffffffffffffffffffffff16836040518363ffffffff1660e01b81526004016118c69291906154e5565b6020604051808303816000875af11580156118e5573d6000803e3d6000fd5b505050506040513d601f19601f820116820180604052508101906119099190615085565b508560000160009054906101000a900473ffffffffffffffffffffffffffffffffffffffff1673ffffffffffffffffffffffffffffffffffffffff1663ab7b1c89826040518263ffffffff1660e01b815260040161196791906148ff565b600060405180830381600087803b15801561198157600080fd5b505af1158015611995573d6000803e3d6000fd5b505050507f040cee90ee4799897c30ca04e5feb6fa43dbba9b6d084b4b257cdafd84ba013e89826040516119ca92919061565f565b60405180910390a1828660080160008282546119e69190615196565b9250508190555060008660000160009054906101000a900473ffffffffffffffffffffffffffffffffffffffff1673ffffffffffffffffffffffffffffffffffffffff1663e7fa9f7d6040518163ffffffff1660e01b8152600401602060405180830381865afa158015611a5e573d6000803e3d6000fd5b505050506040513d601f19601f82011682018060405250810190611a829190615169565b148015611a96575085600101548660020154145b15611b4e5760018660050160006101000a81548160ff021916908315150217905550856008015486600701541115611ae95785600801548660070154611adc9190614ee7565b8660090181905550611b10565b6000866009018190555085600701548660080154611b079190614ee7565b86600a01819055505b7fcaed2f4de03d601fba728ca99751b5304b3d354dad95b26c4629f22f9dc287bb898760090154604051611b4592919061565f565b60405180910390a15b505050505050505050565b662386f26fc1000081565b600460009054906101000a900473ffffffffffffffffffffffffffffffffffffffff1681565b60096020528060005260406000206000915090505481565b600080600080600090505b600080549050811015611c2d5760008181548110611bce57611bcd614ff3565b5b90600052602060002090600b02016009015483611beb9190615196565b925060008181548110611c0157611c00614ff3565b5b90600052602060002090600b0201600a015482611c1e9190615196565b91508080600101915050611bad565b5060008160075484611c3f9190615196565b611c499190614ee7565b905080935050505090565b6000806001600080549050611c699190614ee7565b81548110611c7a57611c79614ff3565b5b90600052602060002090600b020160000160009054906101000a900473ffffffffffffffffffffffffffffffffffffffff1673ffffffffffffffffffffffffffffffffffffffff1663ad044f496040518163ffffffff1660e01b8152600401602060405180830381865afa158015611cf6573d6000803e3d6000fd5b505050506040513d601f19601f82011682018060405250810190611d1a9190615169565b60006001600080549050611d2e9190614ee7565b81548110611d3f57611d3e614ff3565b5b90600052602060002090600b020160000160009054906101000a900473ffffffffffffffffffffffffffffffffffffffff1673ffffffffffffffffffffffffffffffffffffffff16636f0a7f716040518163ffffffff1660e01b8152600401602060405180830381865afa158015611dbb573d6000803e3d6000fd5b505050506040513d601f19601f82011682018060405250810190611ddf9190615169565b611de99190614ee7565b14611df357600080fd5b600080600080611e01611ba2565b9050600a600f611e0f610c21565b836402540be400611e1e6131d6565b611e2891906150b2565b611e3291906150b2565b611e3c9190615123565b611e4691906150b2565b611e509190615123565b9150600a68056bc75e2d6310000047611e676131d6565b611e7191906150b2565b611e7b9190615123565b611e859190615123565b93506509184e72a0008410611e9a5783611ea2565b6509184e72a0005b935060006001600080549050611eb89190614ee7565b81548110611ec957611ec8614ff3565b5b90600052602060002090600b020160000160009054906101000a900473ffffffffffffffffffffffffffffffffffffffff1673ffffffffffffffffffffffffffffffffffffffff16631a9703da6040518163ffffffff1660e01b8152600401602060405180830381865afa158015611f45573d6000803e3d6000fd5b505050506040513d601f19601f82011682018060405250810190611f699190615169565b92506000600160009054906101000a900473ffffffffffffffffffffffffffffffffffffffff1673ffffffffffffffffffffffffffffffffffffffff16631638711b600260009054906101000a900473ffffffffffffffffffffffffffffffffffffffff1630888860003060006040518863ffffffff1660e01b8152600401611ff897969594939291906156c3565b6020604051808303816000875af1158015612017573d6000803e3d6000fd5b505050506040513d601f19601f8201168201806040525081019061203b9190614e8b565b905060006040518061016001604052808373ffffffffffffffffffffffffffffffffffffffff1681526020018781526020016000815260200160001515815260200160008152602001600015158152602001858152602001600081526020016000815260200160008152602001600081525090806001815401808255809150506001900390600052602060002090600b020160009091909190915060008201518160000160006101000a81548173ffffffffffffffffffffffffffffffffffffffff021916908373ffffffffffffffffffffffffffffffffffffffff160217905550602082015181600101556040820151816002015560608201518160030160006101000a81548160ff0219169083151502179055506080820151816004015560a08201518160050160006101000a81548160ff02191690831515021790555060c0820151816006015560e082015181600701556101008201518160080155610120820151816009015561014082015181600a015550508073ffffffffffffffffffffffffffffffffffffffff167f648e161f301b32079cbff6f2eecb4b7bc8d0eb9e67218201eb3703bdc232a29f60016000805490506121fc9190614ee7565b60405161220991906148ff565b60405180910390a25050505050565b600280600860003373ffffffffffffffffffffffffffffffffffffffff1673ffffffffffffffffffffffffffffffffffffffff168152602001908152602001600020541461229b576040517f08c379a000000000000000000000000000000000000000000000000000000000815260040161229290614d27565b60405180910390fd5b60008054905083106122e2576040517f08c379a00000000000000000000000000000000000000000000000000000000081526004016122d990614f67565b60405180910390fd5b60008084815481106122f7576122f6614ff3565b5b90600052602060002090600b020190508060000160009054906101000a900473ffffffffffffffffffffffffffffffffffffffff1673ffffffffffffffffffffffffffffffffffffffff1663038f5ed6846040518263ffffffff1660e01b815260040161236491906148ff565b600060405180830381600087803b15801561237e57600080fd5b505af1158015612392573d6000803e3d6000fd5b50505050828160020160008282546123aa9190615196565b925050819055508060030160009054906101000a900460ff166123ee5760018160030160006101000a81548160ff0219169083151502179055504281600401819055505b7fd1edbdd34fee983e251c22a8f20c29c0d667e6a7e6019a2525291314611c61e6834286604051612421939291906153d6565b60405180910390a150505050565b60008103612c4c578160646000858154811061244e5761244d614ff3565b5b90600052602060002090600b020160000160009054906101000a900473ffffffffffffffffffffffffffffffffffffffff1673ffffffffffffffffffffffffffffffffffffffff1663ad044f496040518163ffffffff1660e01b8152600401602060405180830381865afa1580156124ca573d6000803e3d6000fd5b505050506040513d601f19601f820116820180604052508101906124ee9190615169565b6124f89190615123565b14612538576040517f08c379a000000000000000000000000000000000000000000000000000000000815260040161252f906157a6565b60405180910390fd5b600080848154811061254d5761254c614ff3565b5b90600052602060002090600b020160000160009054906101000a900473ffffffffffffffffffffffffffffffffffffffff1673ffffffffffffffffffffffffffffffffffffffff1663e7fa9f7d6040518163ffffffff1660e01b8152600401602060405180830381865afa1580156125c9573d6000803e3d6000fd5b505050506040513d601f19601f820116820180604052508101906125ed9190615169565b1161262d576040517f08c379a000000000000000000000000000000000000000000000000000000000815260040161262490615812565b60405180910390fd5b426203f48060096000868152602001908152602001600020546126509190615196565b111561265b57600080fd5b426009600085815260200190815260200160002081905550600260009054906101000a900473ffffffffffffffffffffffffffffffffffffffff1673ffffffffffffffffffffffffffffffffffffffff166323b872dd3330856040518463ffffffff1660e01b81526004016126d293929190615022565b6020604051808303816000875af11580156126f1573d6000803e3d6000fd5b505050506040513d601f19601f820116820180604052508101906127159190615085565b506000838154811061272a57612729614ff3565b5b90600052602060002090600b020160000160009054906101000a900473ffffffffffffffffffffffffffffffffffffffff1673ffffffffffffffffffffffffffffffffffffffff1663ab7b1c89836040518263ffffffff1660e01b815260040161279491906148ff565b600060405180830381600087803b1580156127ae57600080fd5b505af11580156127c2573d6000803e3d6000fd5b505050503373ffffffffffffffffffffffffffffffffffffffff166108fc6103e86103ed6402540be4006127f46131d6565b6127fe91906150b2565b64e8d4a510008761280f91906150b2565b6128199190615123565b61282391906150b2565b61282d9190615123565b9081150290604051600060405180830381858888f19350505050158015612858573d6000803e3d6000fd5b506103e86103ed6402540be40061286d6131d6565b61287791906150b2565b64e8d4a510008561288891906150b2565b6128929190615123565b61289c91906150b2565b6128a69190615123565b600084815481106128ba576128b9614ff3565b5b90600052602060002090600b020160080160008282546128da9190615196565b925050819055507f040cee90ee4799897c30ca04e5feb6fa43dbba9b6d084b4b257cdafd84ba013e838360405161291292919061565f565b60405180910390a1600080848154811061292f5761292e614ff3565b5b90600052602060002090600b020160000160009054906101000a900473ffffffffffffffffffffffffffffffffffffffff1673ffffffffffffffffffffffffffffffffffffffff1663e7fa9f7d6040518163ffffffff1660e01b8152600401602060405180830381865afa1580156129ab573d6000803e3d6000fd5b505050506040513d601f19601f820116820180604052508101906129cf9190615169565b148015612a255750600083815481106129eb576129ea614ff3565b5b90600052602060002090600b02016001015460008481548110612a1157612a10614ff3565b5b90600052602060002090600b020160020154145b15612c4757600160008481548110612a4057612a3f614ff3565b5b90600052602060002090600b020160050160006101000a81548160ff02191690831515021790555060008381548110612a7c57612a7b614ff3565b5b90600052602060002090600b02016008015460008481548110612aa257612aa1614ff3565b5b90600052602060002090600b0201600701541115612b3e5760008381548110612ace57612acd614ff3565b5b90600052602060002090600b02016008015460008481548110612af457612af3614ff3565b5b90600052602060002090600b020160070154612b109190614ee7565b60008481548110612b2457612b23614ff3565b5b90600052602060002090600b020160090181905550612be8565b6000808481548110612b5357612b52614ff3565b5b90600052602060002090600b02016009018190555060008381548110612b7c57612b7b614ff3565b5b90600052602060002090600b02016007015460008481548110612ba257612ba1614ff3565b5b90600052602060002090600b020160080154612bbe9190614ee7565b60008481548110612bd257612bd1614ff3565b5b90600052602060002090600b0201600a01819055505b7fcaed2f4de03d601fba728ca99751b5304b3d354dad95b26c4629f22f9dc287bb8360008581548110612c1e57612c1d614ff3565b5b90600052602060002090600b020160090154604051612c3e92919061565f565b60405180910390a15b61300d565b6001810361300c57816305f5e100346103e86103e3612c696131d6565b612c7391906150b2565b612c7d9190615123565b612c8791906150b2565b612c919190615123565b1015612cd2576040517f08c379a0000000000000000000000000000000000000000000000000000000008152600401612cc99061587e565b60405180910390fd5b8160008481548110612ce757612ce6614ff3565b5b90600052602060002090600b020160000160009054906101000a900473ffffffffffffffffffffffffffffffffffffffff1673ffffffffffffffffffffffffffffffffffffffff1663fe3699c66040518163ffffffff1660e01b8152600401602060405180830381865afa158015612d63573d6000803e3d6000fd5b505050506040513d601f19601f82011682018060405250810190612d879190615169565b60008581548110612d9b57612d9a614ff3565b5b90600052602060002090600b020160000160009054906101000a900473ffffffffffffffffffffffffffffffffffffffff1673ffffffffffffffffffffffffffffffffffffffff1663ad044f496040518163ffffffff1660e01b8152600401602060405180830381865afa158015612e17573d6000803e3d6000fd5b505050506040513d601f19601f82011682018060405250810190612e3b9190615169565b612e459190614ee7565b1015612e86576040517f08c379a0000000000000000000000000000000000000000000000000000000008152600401612e7d906158ea565b60405180910390fd5b3073ffffffffffffffffffffffffffffffffffffffff16636b7619c484846040518363ffffffff1660e01b8152600401612ec192919061565f565b600060405180830381600087803b158015612edb57600080fd5b505af1158015612eef573d6000803e3d6000fd5b50505050600260009054906101000a900473ffffffffffffffffffffffffffffffffffffffff1673ffffffffffffffffffffffffffffffffffffffff1663a9059cbb33846040518363ffffffff1660e01b8152600401612f509291906154e5565b6020604051808303816000875af1158015612f6f573d6000803e3d6000fd5b505050506040513d601f19601f82011682018060405250810190612f939190615085565b503460008481548110612fa957612fa8614ff3565b5b90600052602060002090600b02016007016000828254612fc99190615196565b925050819055507fd15ae7b6dd35fea2f80ac5ecad34c59d0f1edd4a0368585ee58f5ed1d4126ade838334604051613003939291906153d6565b60405180910390a15b5b505050565b60006387a211a2600c52816000526020600c20549050919050565b600560009054906101000a900473ffffffffffffffffffffffffffffffffffffffff1681565b600180600860003373ffffffffffffffffffffffffffffffffffffffff1673ffffffffffffffffffffffffffffffffffffffff16815260200190815260200160002054146130d6576040517f08c379a00000000000000000000000000000000000000000000000000000000081526004016130cd90614d27565b60405180910390fd5b81600860008573ffffffffffffffffffffffffffffffffffffffff1673ffffffffffffffffffffffffffffffffffffffff168152602001908152602001600020819055506003821461318957600660009054906101000a900473ffffffffffffffffffffffffffffffffffffffff16600660006101000a81548173ffffffffffffffffffffffffffffffffffffffff021916908373ffffffffffffffffffffffffffffffffffffffff16021790556131ca565b82600660006101000a81548173ffffffffffffffffffffffffffffffffffffffff021916908373ffffffffffffffffffffffffffffffffffffffff16021790555b50505050565b60075481565b600080600560009054906101000a900473ffffffffffffffffffffffffffffffffffffffff1673ffffffffffffffffffffffffffffffffffffffff1663feaf968c6040518163ffffffff1660e01b815260040160a060405180830381865afa158015613246573d6000803e3d6000fd5b505050506040513d601f19601f8201168201806040525081019061326a9190615978565b5050509150508091505090565b60606040518060400160405280600281526020017f4747000000000000000000000000000000000000000000000000000000000000815250905090565b7fffffffffffffffffffffffffffffffffffffffffffffffffffffffffffffffff81565b60006387a211a2600c52336000526020600c208054808411156133035763f4d678b86000526004601cfd5b8381038255846000526020600c2084815401815584602052600c5160601c337fddf252ad1be2c89b69c2b068fc378daa952ba7f163c4a11628f55a4df523b3ef602080a35050506001905092915050565b426203f48060096000848152602001908152602001600020546133779190615196565b111561338257600080fd5b600080828154811061339757613396614ff3565b5b90600052602060002090600b020160000160009054906101000a900473ffffffffffffffffffffffffffffffffffffffff1673ffffffffffffffffffffffffffffffffffffffff1663e7fa9f7d6040518163ffffffff1660e01b8152600401602060405180830381865afa158015613413573d6000803e3d6000fd5b505050506040513d601f19601f820116820180604052508101906134379190615169565b11613477576040517f08c379a000000000000000000000000000000000000000000000000000000000815260040161346e90615812565b60405180910390fd5b42600960008381526020019081526020016000208190555060006064600083815481106134a7576134a6614ff3565b5b90600052602060002090600b020160000160009054906101000a900473ffffffffffffffffffffffffffffffffffffffff1673ffffffffffffffffffffffffffffffffffffffff1663ad044f496040518163ffffffff1660e01b8152600401602060405180830381865afa158015613523573d6000803e3d6000fd5b505050506040513d601f19601f820116820180604052508101906135479190615169565b6135519190615123565b90506000828154811061356757613566614ff3565b5b90600052602060002090600b020160000160009054906101000a900473ffffffffffffffffffffffffffffffffffffffff1673ffffffffffffffffffffffffffffffffffffffff1663e7fa9f7d6040518163ffffffff1660e01b8152600401602060405180830381865afa1580156135e3573d6000803e3d6000fd5b505050506040513d601f19601f820116820180604052508101906136079190615169565b811161361357806136c8565b6000828154811061362757613626614ff3565b5b90600052602060002090600b020160000160009054906101000a900473ffffffffffffffffffffffffffffffffffffffff1673ffffffffffffffffffffffffffffffffffffffff1663e7fa9f7d6040518163ffffffff1660e01b8152600401602060405180830381865afa1580156136a3573d6000803e3d6000fd5b505050506040513d601f19601f820116820180604052508101906136c79190615169565b5b90503073ffffffffffffffffffffffffffffffffffffffff16633614d0d283836040518363ffffffff1660e01b815260040161370592919061565f565b600060405180830381600087803b15801561371f57600080fd5b505af1158015613733573d6000803e3d6000fd5b505050505050565b600360009054906101000a900473ffffffffffffffffffffffffffffffffffffffff1681565b600280600860003373ffffffffffffffffffffffffffffffffffffffff1673ffffffffffffffffffffffffffffffffffffffff16815260200190815260200160002054146137e4576040517f08c379a00000000000000000000000000000000000000000000000000000000081526004016137db90614d27565b60405180910390fd5b600080549050831061382b576040517f08c379a000000000000000000000000000000000000000000000000000000000815260040161382290614f67565b60405180910390fd5b6000821161386e576040517f08c379a000000000000000000000000000000000000000000000000000000000815260040161386590615a3f565b60405180910390fd5b600260009054906101000a900473ffffffffffffffffffffffffffffffffffffffff1673ffffffffffffffffffffffffffffffffffffffff1663095ea7b3600360009054906101000a900473ffffffffffffffffffffffffffffffffffffffff16846040518363ffffffff1660e01b81526004016138ed9291906154e5565b6020604051808303816000875af115801561390c573d6000803e3d6000fd5b505050506040513d601f19601f820116820180604052508101906139309190615085565b50600061393b6131d6565b905060008113613980576040517f08c379a000000000000000000000000000000000000000000000000000000000815260040161397790615aab565b60405180910390fd5b60008168056bc75e2d631000008561399891906150b2565b6139a29190615123565b90506000670de0b6b3a7640000662386f26fc10000670de0b6b3a76400006139ca9190614ee7565b836139d591906150b2565b6139df9190615123565b905060006040518060e00160405280600260009054906101000a900473ffffffffffffffffffffffffffffffffffffffff1673ffffffffffffffffffffffffffffffffffffffff168152602001600460009054906101000a900473ffffffffffffffffffffffffffffffffffffffff1673ffffffffffffffffffffffffffffffffffffffff1681526020016101f462ffffff1681526020013073ffffffffffffffffffffffffffffffffffffffff168152602001878152602001838152602001600073ffffffffffffffffffffffffffffffffffffffff1681525090506000600360009054906101000a900473ffffffffffffffffffffffffffffffffffffffff1673ffffffffffffffffffffffffffffffffffffffff166304e45aaf836040518263ffffffff1660e01b8152600401613b1991906155d8565b6020604051808303816000875af1158015613b38573d6000803e3d6000fd5b505050506040513d601f19601f82011682018060405250810190613b5c9190615169565b9050600460009054906101000a900473ffffffffffffffffffffffffffffffffffffffff1673ffffffffffffffffffffffffffffffffffffffff16632e1a7d4d826040518263ffffffff1660e01b8152600401613bb991906148ff565b600060405180830381600087803b158015613bd357600080fd5b505af1158015613be7573d6000803e3d6000fd5b505050508060008981548110613c0057613bff614ff3565b5b90600052602060002090600b02016007016000828254613c209190615196565b925050819055507fd15ae7b6dd35fea2f80ac5ecad34c59d0f1edd4a0368585ee58f5ed1d4126ade888883604051613c5a939291906153d6565b60405180910390a15050505050505050565b60008080549050905090565b60086020528060005260406000206000915090505481565b600160009054906101000a900473ffffffffffffffffffffffffffffffffffffffff1681565b6101f481565b600081602052637f5e9f20600c52826000526034600c2054905092915050565b60008181548110613cec57600080fd5b90600052602060002090600b02016000915090508060000160009054906101000a900473ffffffffffffffffffffffffffffffffffffffff16908060010154908060020154908060030160009054906101000a900460ff16908060040154908060050160009054906101000a900460ff169080600601549080600701549080600801549080600901549080600a015490508b565b60008111613dc3576040517f08c379a0000000000000000000000000000000000000000000000000000000008152600401613dba90615b17565b60405180910390fd5b80613dcd33613012565b1015613e0e576040517f08c379a0000000000000000000000000000000000000000000000000000000008152600401613e0590615b83565b60405180910390fd5b6000613e18611ba2565b90506000613e24610c21565b8284613e3091906150b2565b613e3a9190615123565b905060008111613e7f576040517f08c379a0000000000000000000000000000000000000000000000000000000008152600401613e7690615bef565b60405180910390fd5b613e8933846145f9565b6000816007541015613e9d57600754613e9f565b815b90508060076000828254613eb39190614ee7565b9250508190555060008183613ec89190614ee7565b90506000811115613fdd57600081905060005b600080549050811015613fda576000808281548110613efd57613efc614ff3565b5b90600052602060002090600b0201600901540315613fcd5760008260008381548110613f2c57613f2b614ff3565b5b90600052602060002090600b0201600901541015613f6f5760008281548110613f5857613f57614ff3565b5b90600052602060002090600b020160090154613f71565b825b90508060008381548110613f8857613f87614ff3565b5b90600052602060002090600b02016009016000828254613fa89190614ee7565b925050819055508083613fbb9190614ee7565b925060008303613fcb5750613fda565b505b8080600101915050613edb565b50505b60003373ffffffffffffffffffffffffffffffffffffffff168460405161400390615c40565b60006040518083038185875af1925050503d8060008114614040576040519150601f19603f3d011682016040523d82523d6000602084013e614045565b606091505b5050905080614089576040517f08c379a000000000000000000000000000000000000000000000000000000000815260040161408090615ca1565b60405180910390fd5b3373ffffffffffffffffffffffffffffffffffffffff167f8dc57a14dabae9681ec851990eb2b72788cd4aa030f739d90e5c614a9dd174e487866040516140d192919061565f565b60405180910390a2505050505050565b600260009054906101000a900473ffffffffffffffffffffffffffffffffffffffff1673ffffffffffffffffffffffffffffffffffffffff166323b872dd3330846040518463ffffffff1660e01b815260040161414093929190615022565b6020604051808303816000875af115801561415f573d6000803e3d6000fd5b505050506040513d601f19601f820116820180604052508101906141839190615085565b50600260009054906101000a900473ffffffffffffffffffffffffffffffffffffffff1673ffffffffffffffffffffffffffffffffffffffff1663095ea7b3600084815481106141d6576141d5614ff3565b5b90600052602060002090600b020160000160009054906101000a900473ffffffffffffffffffffffffffffffffffffffff16836040518363ffffffff1660e01b81526004016142269291906154e5565b6020604051808303816000875af1158015614245573d6000803e3d6000fd5b505050506040513d601f19601f820116820180604052508101906142699190615085565b506000828154811061427e5761427d614ff3565b5b90600052602060002090600b020160000160009054906101000a900473ffffffffffffffffffffffffffffffffffffffff1673ffffffffffffffffffffffffffffffffffffffff1663846b909a826040518263ffffffff1660e01b81526004016142e891906148ff565b600060405180830381600087803b15801561430257600080fd5b505af1158015614316573d6000803e3d6000fd5b505050506000828154811061432e5761432d614ff3565b5b90600052602060002090600b020160000160009054906101000a900473ffffffffffffffffffffffffffffffffffffffff1673ffffffffffffffffffffffffffffffffffffffff1663a9059cbb33600085815481106143905761438f614ff3565b5b90600052602060002090600b020160000160009054906101000a900473ffffffffffffffffffffffffffffffffffffffff1673ffffffffffffffffffffffffffffffffffffffff166370a08231306040518263ffffffff1660e01b81526004016143fa91906148d5565b602060405180830381865afa158015614417573d6000803e3d6000fd5b505050506040513d601f19601f8201168201806040525081019061443b9190615169565b6040518363ffffffff1660e01b81526004016144589291906154e5565b6020604051808303816000875af1158015614477573d6000803e3d6000fd5b505050506040513d601f19601f8201168201806040525081019061449b9190615085565b503073ffffffffffffffffffffffffffffffffffffffff16636b7619c483836040518363ffffffff1660e01b81526004016144d792919061565f565b600060405180830381600087803b1580156144f157600080fd5b505af1158015614505573d6000803e3d6000fd5b505050503073ffffffffffffffffffffffffffffffffffffffff1663cb254f7e83836040518363ffffffff1660e01b815260040161454492919061565f565b600060405180830381600087803b15801561455e57600080fd5b505af1158015614572573d6000803e3d6000fd5b505050505050565b6805345cdf77eb68f44c548181018181101561459e5763e5cfe9576000526004601cfd5b806805345cdf77eb68f44c556387a211a2600c52836000526020600c2083815401815583602052600c5160601c60007fddf252ad1be2c89b69c2b068fc378daa952ba7f163c4a11628f55a4df523b3ef602080a35050505050565b6387a211a2600c52816000526020600c208054808311156146225763f4d678b86000526004601cfd5b8281038255826805345cdf77eb68f44c54036805345cdf77eb68f44c558260005260008460601b60601c7fddf252ad1be2c89b69c2b068fc378daa952ba7f163c4a11628f55a4df523b3ef60206000a350505050565b600081519050919050565b600082825260208201905092915050565b60005b838110156146b2578082015181840152602081019050614697565b60008484015250505050565b6000601f19601f8301169050919050565b60006146da82614678565b6146e48185614683565b93506146f4818560208601614694565b6146fd816146be565b840191505092915050565b6000602082019050818103600083015261472281846146cf565b905092915050565b600080fd5b600073ffffffffffffffffffffffffffffffffffffffff82169050919050565b600061475a8261472f565b9050919050565b61476a8161474f565b811461477557600080fd5b50565b60008135905061478781614761565b92915050565b6000819050919050565b6147a08161478d565b81146147ab57600080fd5b50565b6000813590506147bd81614797565b92915050565b600080604083850312156147da576147d961472a565b5b60006147e885828601614778565b92505060206147f9858286016147ae565b9150509250929050565b60008115159050919050565b61481881614803565b82525050565b6000602082019050614833600083018461480f565b92915050565b60008060008060008060c087890312156148565761485561472a565b5b600061486489828a016147ae565b965050602061487589828a01614778565b955050604061488689828a016147ae565b945050606061489789828a016147ae565b93505060806148a889828a01614778565b92505060a06148b989828a016147ae565b9150509295509295509295565b6148cf8161474f565b82525050565b60006020820190506148ea60008301846148c6565b92915050565b6148f98161478d565b82525050565b600060208201905061491460008301846148f0565b92915050565b600080604083850312156149315761493061472a565b5b600061493f858286016147ae565b9250506020614950858286016147ae565b9150509250929050565b6000806000606084860312156149735761497261472a565b5b600061498186828701614778565b935050602061499286828701614778565b92505060406149a3868287016147ae565b9150509250925092565b600060ff82169050919050565b6149c3816149ad565b82525050565b60006020820190506149de60008301846149ba565b92915050565b6000602082840312156149fa576149f961472a565b5b6000614a08848285016147ae565b91505092915050565b600080600060608486031215614a2a57614a2961472a565b5b6000614a38868287016147ae565b9350506020614a49868287016147ae565b9250506040614a5a868287016147ae565b9150509250925092565b600060208284031215614a7a57614a7961472a565b5b6000614a8884828501614778565b91505092915050565b6000819050919050565b6000614ab6614ab1614aac8461472f565b614a91565b61472f565b9050919050565b6000614ac882614a9b565b9050919050565b6000614ada82614abd565b9050919050565b614aea81614acf565b82525050565b6000602082019050614b056000830184614ae1565b92915050565b6000819050919050565b614b1e81614b0b565b82525050565b6000602082019050614b396000830184614b15565b92915050565b6000614b4a82614abd565b9050919050565b614b5a81614b3f565b82525050565b6000602082019050614b756000830184614b51565b92915050565b6000614b8682614abd565b9050919050565b614b9681614b7b565b82525050565b6000602082019050614bb16000830184614b8d565b92915050565b600062ffffff82169050919050565b614bcf81614bb7565b82525050565b6000602082019050614bea6000830184614bc6565b92915050565b60008060408385031215614c0757614c0661472a565b5b6000614c1585828601614778565b9250506020614c2685828601614778565b9150509250929050565b600061016082019050614c46600083018e6148c6565b614c53602083018d6148f0565b614c60604083018c6148f0565b614c6d606083018b61480f565b614c7a608083018a6148f0565b614c8760a083018961480f565b614c9460c08301886148f0565b614ca160e08301876148f0565b614caf6101008301866148f0565b614cbd6101208301856148f0565b614ccb6101408301846148f0565b9c9b505050505050505050505050565b7f4e6f7420617574686f72697a6564000000000000000000000000000000000000600082015250565b6000614d11600e83614683565b9150614d1c82614cdb565b602082019050919050565b60006020820190508181036000830152614d4081614d04565b9050919050565b7f4769676153747261740000000000000000000000000000000000000000000000600082015250565b6000614d7d600983614683565b9150614d8882614d47565b602082019050919050565b7f4747000000000000000000000000000000000000000000000000000000000000600082015250565b6000614dc9600283614683565b9150614dd482614d93565b602082019050919050565b600061012082019050614df5600083018a6148c6565b614e0260208301896148c6565b614e0f60408301886148f0565b614e1c60608301876148f0565b614e2960808301866148f0565b614e3660a08301856148c6565b81810360c0830152614e4781614d70565b905081810360e0830152614e5a81614dbc565b9050614e6a61010083018461480f565b98975050505050505050565b600081519050614e8581614761565b92915050565b600060208284031215614ea157614ea061472a565b5b6000614eaf84828501614e76565b91505092915050565b7f4e487b7100000000000000000000000000000000000000000000000000000000600052601160045260246000fd5b6000614ef28261478d565b9150614efd8361478d565b9250828203905081811115614f1557614f14614eb8565b5b92915050565b7f496e76616c6964206c6f616e20696e6465780000000000000000000000000000600082015250565b6000614f51601283614683565b9150614f5c82614f1b565b602082019050919050565b60006020820190508181036000830152614f8081614f44565b9050919050565b7f494f5520616d6f756e74206d757374206265203e203000000000000000000000600082015250565b6000614fbd601683614683565b9150614fc882614f87565b602082019050919050565b60006020820190508181036000830152614fec81614fb0565b9050919050565b7f4e487b7100000000000000000000000000000000000000000000000000000000600052603260045260246000fd5b600060608201905061503760008301866148c6565b61504460208301856148c6565b61505160408301846148f0565b949350505050565b61506281614803565b811461506d57600080fd5b50565b60008151905061507f81615059565b92915050565b60006020828403121561509b5761509a61472a565b5b60006150a984828501615070565b91505092915050565b60006150bd8261478d565b91506150c88361478d565b92508282026150d68161478d565b915082820484148315176150ed576150ec614eb8565b5b5092915050565b7f4e487b7100000000000000000000000000000000000000000000000000000000600052601260045260246000fd5b600061512e8261478d565b91506151398361478d565b925082615149576151486150f4565b5b828204905092915050565b60008151905061516381614797565b92915050565b60006020828403121561517f5761517e61472a565b5b600061518d84828501615154565b91505092915050565b60006151a18261478d565b91506151ac8361478d565b92508282019050808211156151c4576151c3614eb8565b5b92915050565b6151d3816149ad565b81146151de57600080fd5b50565b6000815190506151f0816151ca565b92915050565b60006020828403121561520c5761520b61472a565b5b600061521a848285016151e1565b91505092915050565b600061522e826149ad565b9150615239836149ad565b9250828203905060ff81111561525257615251614eb8565b5b92915050565b60008160011c9050919050565b6000808291508390505b60018511156152af5780860481111561528b5761528a614eb8565b5b600185161561529a5780820291505b80810290506152a885615258565b945061526f565b94509492505050565b6000826152c85760019050615384565b816152d65760009050615384565b81600181146152ec57600281146152f657615325565b6001915050615384565b60ff84111561530857615307614eb8565b5b8360020a91508482111561531f5761531e614eb8565b5b50615384565b5060208310610133831016604e8410600b841016171561535a5782820a90508381111561535557615354614eb8565b5b615384565b6153678484846001615265565b9250905081840481111561537e5761537d614eb8565b5b81810290505b9392505050565b60006153968261478d565b91506153a1836149ad565b92506153ce7fffffffffffffffffffffffffffffffffffffffffffffffffffffffffffffffff84846152b8565b905092915050565b60006060820190506153eb60008301866148f0565b6153f860208301856148f0565b61540560408301846148f0565b949350505050565b7f4c6f616e206e6f7420647261776e20646f776e00000000000000000000000000600082015250565b6000615443601383614683565b915061544e8261540d565b602082019050919050565b6000602082019050818103600083015261547281615436565b9050919050565b7f496e76616c69642070726963652066726f6d206f7261636c6500000000000000600082015250565b60006154af601983614683565b91506154ba82615479565b602082019050919050565b600060208201905081810360008301526154de816154a2565b9050919050565b60006040820190506154fa60008301856148c6565b61550760208301846148f0565b9392505050565b6155178161474f565b82525050565b61552681614bb7565b82525050565b6155358161478d565b82525050565b6155448161472f565b82525050565b60e082016000820151615560600085018261550e565b506020820151615573602085018261550e565b506040820151615586604085018261551d565b506060820151615599606085018261550e565b5060808201516155ac608085018261552c565b5060a08201516155bf60a085018261552c565b5060c08201516155d260c085018261553b565b50505050565b600060e0820190506155ed600083018461554a565b92915050565b7f4e6f7420656e6f7567682055534443206f757400000000000000000000000000600082015250565b6000615629601383614683565b9150615634826155f3565b602082019050919050565b600060208201905081810360008301526156588161561c565b9050919050565b600060408201905061567460008301856148f0565b61568160208301846148f0565b9392505050565b6000819050919050565b60006156ad6156a86156a384615688565b614a91565b61478d565b9050919050565b6156bd81615692565b82525050565b6000610120820190506156d9600083018a6148c6565b6156e660208301896148c6565b6156f360408301886148f0565b61570060608301876148f0565b61570d60808301866156b4565b61571a60a08301856148c6565b81810360c083015261572b81614d70565b905081810360e083015261573e81614dbc565b905061574e61010083018461480f565b98975050505050505050565b7f546f6f206d7563682073656e7400000000000000000000000000000000000000600082015250565b6000615790600d83614683565b915061579b8261575a565b602082019050919050565b600060208201905081810360008301526157bf81615783565b9050919050565b7f4c6f616e2066756c6c7920726570616964000000000000000000000000000000600082015250565b60006157fc601183614683565b9150615807826157c6565b602082019050919050565b6000602082019050818103600083015261582b816157ef565b9050919050565b7f4e6f7420656e6f7567682073656e740000000000000000000000000000000000600082015250565b6000615868600f83614683565b915061587382615832565b602082019050919050565b600060208201905081810360008301526158978161585b565b9050919050565b7f4e6f7420656e6f7567682066756e647300000000000000000000000000000000600082015250565b60006158d4601083614683565b91506158df8261589e565b602082019050919050565b60006020820190508181036000830152615903816158c7565b9050919050565b600069ffffffffffffffffffff82169050919050565b6159298161590a565b811461593457600080fd5b50565b60008151905061594681615920565b92915050565b61595581614b0b565b811461596057600080fd5b50565b6000815190506159728161594c565b92915050565b600080600080600060a086880312156159945761599361472a565b5b60006159a288828901615937565b95505060206159b388828901615963565b94505060406159c488828901615154565b93505060606159d588828901615154565b92505060806159e688828901615937565b9150509295509295909350565b7f5553444320616d6f756e74206d757374206265203e2030000000000000000000600082015250565b6000615a29601783614683565b9150615a34826159f3565b602082019050919050565b60006020820190508181036000830152615a5881615a1c565b9050919050565b7f496e76616c6964206f7261636c65207072696365000000000000000000000000600082015250565b6000615a95601483614683565b9150615aa082615a5f565b602082019050919050565b60006020820190508181036000830152615ac481615a88565b9050919050565b7f44414f20746f6b656e20616d6f756e74206d757374206265203e203000000000600082015250565b6000615b01601c83614683565b9150615b0c82615acb565b602082019050919050565b60006020820190508181036000830152615b3081615af4565b9050919050565b7f496e73756666696369656e742062616c616e6365000000000000000000000000600082015250565b6000615b6d601483614683565b9150615b7882615b37565b602082019050919050565b60006020820190508181036000830152615b9c81615b60565b9050919050565b7f55736572207368617265206973207a65726f0000000000000000000000000000600082015250565b6000615bd9601283614683565b9150615be482615ba3565b602082019050919050565b60006020820190508181036000830152615c0881615bcc565b9050919050565b600081905092915050565b50565b6000615c2a600083615c0f565b9150615c3582615c1a565b600082019050919050565b6000615c4b82615c1d565b9150819050919050565b7f455448207472616e73666572206661696c656400000000000000000000000000600082015250565b6000615c8b601383614683565b9150615c9682615c55565b602082019050919050565b60006020820190508181036000830152615cba81615c7e565b905091905056fea2646970667358221220f9b9f7ad37f1e9d7c824aa0ec0acdf134cfb27abcb0a36c0f286583f7a304f9064736f6c63430008180033","opcodes":"PUSH1 0x80 PUSH1 0x40 MSTORE PUSH20 0x9D31E30003F253563FF108BC60B16FDF2C93ABB5 PUSH1 0x6 PUSH1 0x0 PUSH2 0x100 EXP DUP2 SLOAD DUP2 PUSH20 0xFFFFFFFFFFFFFFFFFFFFFFFFFFFFFFFFFFFFFFFF MUL NOT AND SWAP1 DUP4 PUSH20 0xFFFFFFFFFFFFFFFFFFFFFFFFFFFFFFFFFFFFFFFF AND MUL OR SWAP1 SSTORE POP CALLVALUE DUP1 ISZERO PUSH3 0x66 JUMPI PUSH1 0x0 DUP1 REVERT JUMPDEST POP PUSH1 0x40 MLOAD PUSH3 0x6725 CODESIZE SUB DUP1 PUSH3 0x6725 DUP4 CODECOPY DUP2 DUP2 ADD PUSH1 0x40 MSTORE DUP2 ADD SWAP1 PUSH3 0x8C SWAP2 SWAP1 PUSH3 0x6C8 JUMP JUMPDEST DUP5 PUSH1 0x1 PUSH1 0x0 PUSH2 0x100 EXP DUP2 SLOAD DUP2 PUSH20 0xFFFFFFFFFFFFFFFFFFFFFFFFFFFFFFFFFFFFFFFF MUL NOT AND SWAP1 DUP4 PUSH20 0xFFFFFFFFFFFFFFFFFFFFFFFFFFFFFFFFFFFFFFFF AND MUL OR SWAP1 SSTORE POP DUP4 PUSH1 0x2 PUSH1 0x0 PUSH2 0x100 EXP DUP2 SLOAD DUP2 PUSH20 0xFFFFFFFFFFFFFFFFFFFFFFFFFFFFFFFFFFFFFFFF MUL NOT AND SWAP1 DUP4 PUSH20 0xFFFFFFFFFFFFFFFFFFFFFFFFFFFFFFFFFFFFFFFF AND MUL OR SWAP1 SSTORE POP DUP3 PUSH1 0x3 PUSH1 0x0 PUSH2 0x100 EXP DUP2 SLOAD DUP2 PUSH20 0xFFFFFFFFFFFFFFFFFFFFFFFFFFFFFFFFFFFFFFFF MUL NOT AND SWAP1 DUP4 PUSH20 0xFFFFFFFFFFFFFFFFFFFFFFFFFFFFFFFFFFFFFFFF AND MUL OR SWAP1 SSTORE POP DUP2 PUSH1 0x4 PUSH1 0x0 PUSH2 0x100 EXP DUP2 SLOAD DUP2 PUSH20 0xFFFFFFFFFFFFFFFFFFFFFFFFFFFFFFFFFFFFFFFF MUL NOT AND SWAP1 DUP4 PUSH20 0xFFFFFFFFFFFFFFFFFFFFFFFFFFFFFFFFFFFFFFFF AND MUL OR SWAP1 SSTORE POP DUP1 PUSH1 0x5 PUSH1 0x0 PUSH2 0x100 EXP DUP2 SLOAD DUP2 PUSH20 0xFFFFFFFFFFFFFFFFFFFFFFFFFFFFFFFFFFFFFFFF MUL NOT AND SWAP1 DUP4 PUSH20 0xFFFFFFFFFFFFFFFFFFFFFFFFFFFFFFFFFFFFFFFF AND MUL OR SWAP1 SSTORE POP PUSH1 0x2 PUSH1 0x8 PUSH1 0x0 ADDRESS PUSH20 0xFFFFFFFFFFFFFFFFFFFFFFFFFFFFFFFFFFFFFFFF AND PUSH20 0xFFFFFFFFFFFFFFFFFFFFFFFFFFFFFFFFFFFFFFFF AND DUP2 MSTORE PUSH1 0x20 ADD SWAP1 DUP2 MSTORE PUSH1 0x20 ADD PUSH1 0x0 KECCAK256 DUP2 SWAP1 SSTORE POP PUSH1 0x2 PUSH1 0x8 PUSH1 0x0 CALLER PUSH20 0xFFFFFFFFFFFFFFFFFFFFFFFFFFFFFFFFFFFFFFFF AND PUSH20 0xFFFFFFFFFFFFFFFFFFFFFFFFFFFFFFFFFFFFFFFF AND DUP2 MSTORE PUSH1 0x20 ADD SWAP1 DUP2 MSTORE PUSH1 0x20 ADD PUSH1 0x0 KECCAK256 DUP2 SWAP1 SSTORE POP PUSH1 0x1 PUSH1 0x8 PUSH1 0x0 PUSH13 0xC0D7D3017B342FF039B55B0879 PUSH20 0xFFFFFFFFFFFFFFFFFFFFFFFFFFFFFFFFFFFFFFFF AND PUSH20 0xFFFFFFFFFFFFFFFFFFFFFFFFFFFFFFFFFFFFFFFF AND DUP2 MSTORE PUSH1 0x20 ADD SWAP1 DUP2 MSTORE PUSH1 0x20 ADD PUSH1 0x0 KECCAK256 DUP2 SWAP1 SSTORE POP PUSH1 0x2 PUSH1 0x8 PUSH1 0x0 CALLER PUSH20 0xFFFFFFFFFFFFFFFFFFFFFFFFFFFFFFFFFFFFFFFF AND PUSH20 0xFFFFFFFFFFFFFFFFFFFFFFFFFFFFFFFFFFFFFFFF AND DUP2 MSTORE PUSH1 0x20 ADD SWAP1 DUP2 MSTORE PUSH1 0x20 ADD PUSH1 0x0 KECCAK256 DUP2 SWAP1 SSTORE POP PUSH3 0x337 PUSH3 0x186A0 PUSH1 0x2 PUSH1 0x0 SWAP1 SLOAD SWAP1 PUSH2 0x100 EXP SWAP1 DIV PUSH20 0xFFFFFFFFFFFFFFFFFFFFFFFFFFFFFFFFFFFFFFFF AND PUSH1 0x64 PUSH1 0x0 ADDRESS PUSH8 0xDE0B6B3A7640000 PUSH3 0x342 PUSH1 0x20 SHL PUSH1 0x20 SHR JUMP JUMPDEST POP POP POP POP POP PUSH3 0xA1E JUMP JUMPDEST PUSH1 0x2 DUP1 PUSH1 0x8 PUSH1 0x0 CALLER PUSH20 0xFFFFFFFFFFFFFFFFFFFFFFFFFFFFFFFFFFFFFFFF AND PUSH20 0xFFFFFFFFFFFFFFFFFFFFFFFFFFFFFFFFFFFFFFFF AND DUP2 MSTORE PUSH1 0x20 ADD SWAP1 DUP2 MSTORE PUSH1 0x20 ADD PUSH1 0x0 KECCAK256 SLOAD EQ PUSH3 0x3C8 JUMPI PUSH1 0x40 MLOAD PUSH32 0x8C379A000000000000000000000000000000000000000000000000000000000 DUP2 MSTORE PUSH1 0x4 ADD PUSH3 0x3BF SWAP1 PUSH3 0x7B1 JUMP JUMPDEST PUSH1 0x40 MLOAD DUP1 SWAP2 SUB SWAP1 REVERT JUMPDEST PUSH1 0x0 PUSH1 0x1 PUSH1 0x0 SWAP1 SLOAD SWAP1 PUSH2 0x100 EXP SWAP1 DIV PUSH20 0xFFFFFFFFFFFFFFFFFFFFFFFFFFFFFFFFFFFFFFFF AND PUSH20 0xFFFFFFFFFFFFFFFFFFFFFFFFFFFFFFFFFFFFFFFF AND PUSH4 0x1638711B DUP9 ADDRESS DUP12 DUP11 DUP11 DUP11 PUSH1 0x0 PUSH1 0x40 MLOAD DUP9 PUSH4 0xFFFFFFFF AND PUSH1 0xE0 SHL DUP2 MSTORE PUSH1 0x4 ADD PUSH3 0x434 SWAP8 SWAP7 SWAP6 SWAP5 SWAP4 SWAP3 SWAP2 SWAP1 PUSH3 0x8BC JUMP JUMPDEST PUSH1 0x20 PUSH1 0x40 MLOAD DUP1 DUP4 SUB DUP2 PUSH1 0x0 DUP8 GAS CALL ISZERO DUP1 ISZERO PUSH3 0x454 JUMPI RETURNDATASIZE PUSH1 0x0 DUP1 RETURNDATACOPY RETURNDATASIZE PUSH1 0x0 REVERT JUMPDEST POP POP POP POP PUSH1 0x40 MLOAD RETURNDATASIZE PUSH1 0x1F NOT PUSH1 0x1F DUP3 ADD AND DUP3 ADD DUP1 PUSH1 0x40 MSTORE POP DUP2 ADD SWAP1 PUSH3 0x47A SWAP2 SWAP1 PUSH3 0x965 JUMP JUMPDEST SWAP1 POP PUSH1 0x0 PUSH1 0x40 MLOAD DUP1 PUSH2 0x160 ADD PUSH1 0x40 MSTORE DUP1 DUP4 PUSH20 0xFFFFFFFFFFFFFFFFFFFFFFFFFFFFFFFFFFFFFFFF AND DUP2 MSTORE PUSH1 0x20 ADD DUP11 DUP2 MSTORE PUSH1 0x20 ADD PUSH1 0x0 DUP2 MSTORE PUSH1 0x20 ADD PUSH1 0x0 ISZERO ISZERO DUP2 MSTORE PUSH1 0x20 ADD PUSH1 0x0 DUP2 MSTORE PUSH1 0x20 ADD PUSH1 0x0 ISZERO ISZERO DUP2 MSTORE PUSH1 0x20 ADD DUP6 DUP2 MSTORE PUSH1 0x20 ADD PUSH1 0x0 DUP2 MSTORE PUSH1 0x20 ADD PUSH1 0x0 DUP2 MSTORE PUSH1 0x20 ADD PUSH1 0x0 DUP2 MSTORE PUSH1 0x20 ADD PUSH1 0x0 DUP2 MSTORE POP SWAP1 DUP1 PUSH1 0x1 DUP2 SLOAD ADD DUP1 DUP3 SSTORE DUP1 SWAP2 POP POP PUSH1 0x1 SWAP1 SUB SWAP1 PUSH1 0x0 MSTORE PUSH1 0x20 PUSH1 0x0 KECCAK256 SWAP1 PUSH1 0xB MUL ADD PUSH1 0x0 SWAP1 SWAP2 SWAP1 SWAP2 SWAP1 SWAP2 POP PUSH1 0x0 DUP3 ADD MLOAD DUP2 PUSH1 0x0 ADD PUSH1 0x0 PUSH2 0x100 EXP DUP2 SLOAD DUP2 PUSH20 0xFFFFFFFFFFFFFFFFFFFFFFFFFFFFFFFFFFFFFFFF MUL NOT AND SWAP1 DUP4 PUSH20 0xFFFFFFFFFFFFFFFFFFFFFFFFFFFFFFFFFFFFFFFF AND MUL OR SWAP1 SSTORE POP PUSH1 0x20 DUP3 ADD MLOAD DUP2 PUSH1 0x1 ADD SSTORE PUSH1 0x40 DUP3 ADD MLOAD DUP2 PUSH1 0x2 ADD SSTORE PUSH1 0x60 DUP3 ADD MLOAD DUP2 PUSH1 0x3 ADD PUSH1 0x0 PUSH2 0x100 EXP DUP2 SLOAD DUP2 PUSH1 0xFF MUL NOT AND SWAP1 DUP4 ISZERO ISZERO MUL OR SWAP1 SSTORE POP PUSH1 0x80 DUP3 ADD MLOAD DUP2 PUSH1 0x4 ADD SSTORE PUSH1 0xA0 DUP3 ADD MLOAD DUP2 PUSH1 0x5 ADD PUSH1 0x0 PUSH2 0x100 EXP DUP2 SLOAD DUP2 PUSH1 0xFF MUL NOT AND SWAP1 DUP4 ISZERO ISZERO MUL OR SWAP1 SSTORE POP PUSH1 0xC0 DUP3 ADD MLOAD DUP2 PUSH1 0x6 ADD SSTORE PUSH1 0xE0 DUP3 ADD MLOAD DUP2 PUSH1 0x7 ADD SSTORE PUSH2 0x100 DUP3 ADD MLOAD DUP2 PUSH1 0x8 ADD SSTORE PUSH2 0x120 DUP3 ADD MLOAD DUP2 PUSH1 0x9 ADD SSTORE PUSH2 0x140 DUP3 ADD MLOAD DUP2 PUSH1 0xA ADD SSTORE POP POP DUP1 PUSH20 0xFFFFFFFFFFFFFFFFFFFFFFFFFFFFFFFFFFFFFFFF AND PUSH32 0x648E161F301B32079CBFF6F2EECB4B7BC8D0EB9E67218201EB3703BDC232A29F PUSH1 0x1 PUSH1 0x0 DUP1 SLOAD SWAP1 POP PUSH3 0x63D SWAP2 SWAP1 PUSH3 0x9C6 JUMP JUMPDEST PUSH1 0x40 MLOAD PUSH3 0x64C SWAP2 SWAP1 PUSH3 0xA01 JUMP JUMPDEST PUSH1 0x40 MLOAD DUP1 SWAP2 SUB SWAP1 LOG2 POP POP POP POP POP POP POP POP JUMP JUMPDEST PUSH1 0x0 DUP1 REVERT JUMPDEST PUSH1 0x0 PUSH20 0xFFFFFFFFFFFFFFFFFFFFFFFFFFFFFFFFFFFFFFFF DUP3 AND SWAP1 POP SWAP2 SWAP1 POP JUMP JUMPDEST PUSH1 0x0 PUSH3 0x690 DUP3 PUSH3 0x663 JUMP JUMPDEST SWAP1 POP SWAP2 SWAP1 POP JUMP JUMPDEST PUSH3 0x6A2 DUP2 PUSH3 0x683 JUMP JUMPDEST DUP2 EQ PUSH3 0x6AE JUMPI PUSH1 0x0 DUP1 REVERT JUMPDEST POP JUMP JUMPDEST PUSH1 0x0 DUP2 MLOAD SWAP1 POP PUSH3 0x6C2 DUP2 PUSH3 0x697 JUMP JUMPDEST SWAP3 SWAP2 POP POP JUMP JUMPDEST PUSH1 0x0 DUP1 PUSH1 0x0 DUP1 PUSH1 0x0 PUSH1 0xA0 DUP7 DUP9 SUB SLT ISZERO PUSH3 0x6E7 JUMPI PUSH3 0x6E6 PUSH3 0x65E JUMP JUMPDEST JUMPDEST PUSH1 0x0 PUSH3 0x6F7 DUP9 DUP3 DUP10 ADD PUSH3 0x6B1 JUMP JUMPDEST SWAP6 POP POP PUSH1 0x20 PUSH3 0x70A DUP9 DUP3 DUP10 ADD PUSH3 0x6B1 JUMP JUMPDEST SWAP5 POP POP PUSH1 0x40 PUSH3 0x71D DUP9 DUP3 DUP10 ADD PUSH3 0x6B1 JUMP JUMPDEST SWAP4 POP POP PUSH1 0x60 PUSH3 0x730 DUP9 DUP3 DUP10 ADD PUSH3 0x6B1 JUMP JUMPDEST SWAP3 POP POP PUSH1 0x80 PUSH3 0x743 DUP9 DUP3 DUP10 ADD PUSH3 0x6B1 JUMP JUMPDEST SWAP2 POP POP SWAP3 SWAP6 POP SWAP3 SWAP6 SWAP1 SWAP4 POP JUMP JUMPDEST PUSH1 0x0 DUP3 DUP3 MSTORE PUSH1 0x20 DUP3 ADD SWAP1 POP SWAP3 SWAP2 POP POP JUMP JUMPDEST PUSH32 0x4E6F7420617574686F72697A6564000000000000000000000000000000000000 PUSH1 0x0 DUP3 ADD MSTORE POP JUMP JUMPDEST PUSH1 0x0 PUSH3 0x799 PUSH1 0xE DUP4 PUSH3 0x750 JUMP JUMPDEST SWAP2 POP PUSH3 0x7A6 DUP3 PUSH3 0x761 JUMP JUMPDEST PUSH1 0x20 DUP3 ADD SWAP1 POP SWAP2 SWAP1 POP JUMP JUMPDEST PUSH1 0x0 PUSH1 0x20 DUP3 ADD SWAP1 POP DUP2 DUP2 SUB PUSH1 0x0 DUP4 ADD MSTORE PUSH3 0x7CC DUP2 PUSH3 0x78A JUMP JUMPDEST SWAP1 POP SWAP2 SWAP1 POP JUMP JUMPDEST PUSH3 0x7DE DUP2 PUSH3 0x683 JUMP JUMPDEST DUP3 MSTORE POP POP JUMP JUMPDEST PUSH1 0x0 DUP2 SWAP1 POP SWAP2 SWAP1 POP JUMP JUMPDEST PUSH3 0x7F9 DUP2 PUSH3 0x7E4 JUMP JUMPDEST DUP3 MSTORE POP POP JUMP JUMPDEST PUSH32 0x4769676153747261740000000000000000000000000000000000000000000000 PUSH1 0x0 DUP3 ADD MSTORE POP JUMP JUMPDEST PUSH1 0x0 PUSH3 0x837 PUSH1 0x9 DUP4 PUSH3 0x750 JUMP JUMPDEST SWAP2 POP PUSH3 0x844 DUP3 PUSH3 0x7FF JUMP JUMPDEST PUSH1 0x20 DUP3 ADD SWAP1 POP SWAP2 SWAP1 POP JUMP JUMPDEST PUSH32 0x4747000000000000000000000000000000000000000000000000000000000000 PUSH1 0x0 DUP3 ADD MSTORE POP JUMP JUMPDEST PUSH1 0x0 PUSH3 0x887 PUSH1 0x2 DUP4 PUSH3 0x750 JUMP JUMPDEST SWAP2 POP PUSH3 0x894 DUP3 PUSH3 0x84F JUMP JUMPDEST PUSH1 0x20 DUP3 ADD SWAP1 POP SWAP2 SWAP1 POP JUMP JUMPDEST PUSH1 0x0 DUP2 ISZERO ISZERO SWAP1 POP SWAP2 SWAP1 POP JUMP JUMPDEST PUSH3 0x8B6 DUP2 PUSH3 0x89F JUMP JUMPDEST DUP3 MSTORE POP POP JUMP JUMPDEST PUSH1 0x0 PUSH2 0x120 DUP3 ADD SWAP1 POP PUSH3 0x8D4 PUSH1 0x0 DUP4 ADD DUP11 PUSH3 0x7D3 JUMP JUMPDEST PUSH3 0x8E3 PUSH1 0x20 DUP4 ADD DUP10 PUSH3 0x7D3 JUMP JUMPDEST PUSH3 0x8F2 PUSH1 0x40 DUP4 ADD DUP9 PUSH3 0x7EE JUMP JUMPDEST PUSH3 0x901 PUSH1 0x60 DUP4 ADD DUP8 PUSH3 0x7EE JUMP JUMPDEST PUSH3 0x910 PUSH1 0x80 DUP4 ADD DUP7 PUSH3 0x7EE JUMP JUMPDEST PUSH3 0x91F PUSH1 0xA0 DUP4 ADD DUP6 PUSH3 0x7D3 JUMP JUMPDEST DUP2 DUP2 SUB PUSH1 0xC0 DUP4 ADD MSTORE PUSH3 0x932 DUP2 PUSH3 0x828 JUMP JUMPDEST SWAP1 POP DUP2 DUP2 SUB PUSH1 0xE0 DUP4 ADD MSTORE PUSH3 0x947 DUP2 PUSH3 0x878 JUMP JUMPDEST SWAP1 POP PUSH3 0x959 PUSH2 0x100 DUP4 ADD DUP5 PUSH3 0x8AB JUMP JUMPDEST SWAP9 SWAP8 POP POP POP POP POP POP POP POP JUMP JUMPDEST PUSH1 0x0 PUSH1 0x20 DUP3 DUP5 SUB SLT ISZERO PUSH3 0x97E JUMPI PUSH3 0x97D PUSH3 0x65E JUMP JUMPDEST JUMPDEST PUSH1 0x0 PUSH3 0x98E DUP5 DUP3 DUP6 ADD PUSH3 0x6B1 JUMP JUMPDEST SWAP2 POP POP SWAP3 SWAP2 POP POP JUMP JUMPDEST PUSH32 0x4E487B7100000000000000000000000000000000000000000000000000000000 PUSH1 0x0 MSTORE PUSH1 0x11 PUSH1 0x4 MSTORE PUSH1 0x24 PUSH1 0x0 REVERT JUMPDEST PUSH1 0x0 PUSH3 0x9D3 DUP3 PUSH3 0x7E4 JUMP JUMPDEST SWAP2 POP PUSH3 0x9E0 DUP4 PUSH3 0x7E4 JUMP JUMPDEST SWAP3 POP DUP3 DUP3 SUB SWAP1 POP DUP2 DUP2 GT ISZERO PUSH3 0x9FB JUMPI PUSH3 0x9FA PUSH3 0x997 JUMP JUMPDEST JUMPDEST SWAP3 SWAP2 POP POP JUMP JUMPDEST PUSH1 0x0 PUSH1 0x20 DUP3 ADD SWAP1 POP PUSH3 0xA18 PUSH1 0x0 DUP4 ADD DUP5 PUSH3 0x7EE JUMP JUMPDEST SWAP3 SWAP2 POP POP JUMP JUMPDEST PUSH2 0x5CF7 DUP1 PUSH3 0xA2E PUSH1 0x0 CODECOPY PUSH1 0x0 RETURN INVALID PUSH1 0x80 PUSH1 0x40 MSTORE PUSH1 0x4 CALLDATASIZE LT PUSH2 0x208 JUMPI PUSH1 0x0 CALLDATALOAD PUSH1 0xE0 SHR DUP1 PUSH4 0x741BEF1A GT PUSH2 0x118 JUMPI DUP1 PUSH4 0xCB254F7E GT PUSH2 0xA0 JUMPI DUP1 PUSH4 0xDD1B9C4A GT PUSH2 0x6F JUMPI DUP1 PUSH4 0xDD1B9C4A EQ PUSH2 0x759 JUMPI DUP1 PUSH4 0xDD62ED3E EQ PUSH2 0x784 JUMPI DUP1 PUSH4 0xE1EC3C68 EQ PUSH2 0x7C1 JUMPI DUP1 PUSH4 0xEE5D0252 EQ PUSH2 0x808 JUMPI DUP1 PUSH4 0xF4512BB6 EQ PUSH2 0x831 JUMPI PUSH2 0x20F JUMP JUMPDEST DUP1 PUSH4 0xCB254F7E EQ PUSH2 0x69D JUMPI DUP1 PUSH4 0xCC952B57 EQ PUSH2 0x6C6 JUMPI DUP1 PUSH4 0xD590F8C9 EQ PUSH2 0x6F1 JUMPI DUP1 PUSH4 0xDB3A9815 EQ PUSH2 0x72E JUMPI PUSH2 0x20F JUMP JUMPDEST DUP1 PUSH4 0x95D89B41 GT PUSH2 0xE7 JUMPI DUP1 PUSH4 0x95D89B41 EQ PUSH2 0x5B6 JUMPI DUP1 PUSH4 0xA693AC64 EQ PUSH2 0x5E1 JUMPI DUP1 PUSH4 0xA9059CBB EQ PUSH2 0x60C JUMPI DUP1 PUSH4 0xAB7B1C89 EQ PUSH2 0x649 JUMPI DUP1 PUSH4 0xC31C9C07 EQ PUSH2 0x672 JUMPI PUSH2 0x20F JUMP JUMPDEST DUP1 PUSH4 0x741BEF1A EQ PUSH2 0x50C JUMPI DUP1 PUSH4 0x74277A63 EQ PUSH2 0x537 JUMPI DUP1 PUSH4 0x8B0C030D EQ PUSH2 0x560 JUMPI DUP1 PUSH4 0x8E15F473 EQ PUSH2 0x58B JUMPI PUSH2 0x20F JUMP JUMPDEST DUP1 PUSH4 0x3614D0D2 GT PUSH2 0x19B JUMPI DUP1 PUSH4 0x679DFFB4 GT PUSH2 0x16A JUMPI DUP1 PUSH4 0x679DFFB4 EQ PUSH2 0x448 JUMPI DUP1 PUSH4 0x6B231938 EQ PUSH2 0x473 JUMPI DUP1 PUSH4 0x6B7619C4 EQ PUSH2 0x48A JUMPI DUP1 PUSH4 0x6FE4A448 EQ PUSH2 0x4B3 JUMPI DUP1 PUSH4 0x70A08231 EQ PUSH2 0x4CF JUMPI PUSH2 0x20F JUMP JUMPDEST DUP1 PUSH4 0x3614D0D2 EQ PUSH2 0x38C JUMPI DUP1 PUSH4 0x36B4134A EQ PUSH2 0x3B5 JUMPI DUP1 PUSH4 0x4F0E0EF3 EQ PUSH2 0x3E0 JUMPI DUP1 PUSH4 0x5F93893B EQ PUSH2 0x40B JUMPI PUSH2 0x20F JUMP JUMPDEST DUP1 PUSH4 0x18160DDD GT PUSH2 0x1D7 JUMPI DUP1 PUSH4 0x18160DDD EQ PUSH2 0x2D0 JUMPI DUP1 PUSH4 0x2137E1B9 EQ PUSH2 0x2FB JUMPI DUP1 PUSH4 0x23B872DD EQ PUSH2 0x324 JUMPI DUP1 PUSH4 0x313CE567 EQ PUSH2 0x361 JUMPI PUSH2 0x20F JUMP JUMPDEST DUP1 PUSH4 0x6FDDE03 EQ PUSH2 0x214 JUMPI DUP1 PUSH4 0x95EA7B3 EQ PUSH2 0x23F JUMPI DUP1 PUSH4 0xBBAF675 EQ PUSH2 0x27C JUMPI DUP1 PUSH4 0x11EAC855 EQ PUSH2 0x2A5 JUMPI PUSH2 0x20F JUMP JUMPDEST CALLDATASIZE PUSH2 0x20F JUMPI STOP JUMPDEST PUSH1 0x0 DUP1 REVERT JUMPDEST CALLVALUE DUP1 ISZERO PUSH2 0x220 JUMPI PUSH1 0x0 DUP1 REVERT JUMPDEST POP PUSH2 0x229 PUSH2 0x85A JUMP JUMPDEST PUSH1 0x40 MLOAD PUSH2 0x236 SWAP2 SWAP1 PUSH2 0x4708 JUMP JUMPDEST PUSH1 0x40 MLOAD DUP1 SWAP2 SUB SWAP1 RETURN JUMPDEST CALLVALUE DUP1 ISZERO PUSH2 0x24B JUMPI PUSH1 0x0 DUP1 REVERT JUMPDEST POP PUSH2 0x266 PUSH1 0x4 DUP1 CALLDATASIZE SUB DUP2 ADD SWAP1 PUSH2 0x261 SWAP2 SWAP1 PUSH2 0x47C3 JUMP JUMPDEST PUSH2 0x897 JUMP JUMPDEST PUSH1 0x40 MLOAD PUSH2 0x273 SWAP2 SWAP1 PUSH2 0x481E JUMP JUMPDEST PUSH1 0x40 MLOAD DUP1 SWAP2 SUB SWAP1 RETURN JUMPDEST CALLVALUE DUP1 ISZERO PUSH2 0x288 JUMPI PUSH1 0x0 DUP1 REVERT JUMPDEST POP PUSH2 0x2A3 PUSH1 0x4 DUP1 CALLDATASIZE SUB DUP2 ADD SWAP1 PUSH2 0x29E SWAP2 SWAP1 PUSH2 0x4839 JUMP JUMPDEST PUSH2 0x8EB JUMP JUMPDEST STOP JUMPDEST CALLVALUE DUP1 ISZERO PUSH2 0x2B1 JUMPI PUSH1 0x0 DUP1 REVERT JUMPDEST POP PUSH2 0x2BA PUSH2 0xBFB JUMP JUMPDEST PUSH1 0x40 MLOAD PUSH2 0x2C7 SWAP2 SWAP1 PUSH2 0x48D5 JUMP JUMPDEST PUSH1 0x40 MLOAD DUP1 SWAP2 SUB SWAP1 RETURN JUMPDEST CALLVALUE DUP1 ISZERO PUSH2 0x2DC JUMPI PUSH1 0x0 DUP1 REVERT JUMPDEST POP PUSH2 0x2E5 PUSH2 0xC21 JUMP JUMPDEST PUSH1 0x40 MLOAD PUSH2 0x2F2 SWAP2 SWAP1 PUSH2 0x48FF JUMP JUMPDEST PUSH1 0x40 MLOAD DUP1 SWAP2 SUB SWAP1 RETURN JUMPDEST CALLVALUE DUP1 ISZERO PUSH2 0x307 JUMPI PUSH1 0x0 DUP1 REVERT JUMPDEST POP PUSH2 0x322 PUSH1 0x4 DUP1 CALLDATASIZE SUB DUP2 ADD SWAP1 PUSH2 0x31D SWAP2 SWAP1 PUSH2 0x491A JUMP JUMPDEST PUSH2 0xC33 JUMP JUMPDEST STOP JUMPDEST CALLVALUE DUP1 ISZERO PUSH2 0x330 JUMPI PUSH1 0x0 DUP1 REVERT JUMPDEST POP PUSH2 0x34B PUSH1 0x4 DUP1 CALLDATASIZE SUB DUP2 ADD SWAP1 PUSH2 0x346 SWAP2 SWAP1 PUSH2 0x495A JUMP JUMPDEST PUSH2 0x1289 JUMP JUMPDEST PUSH1 0x40 MLOAD PUSH2 0x358 SWAP2 SWAP1 PUSH2 0x481E JUMP JUMPDEST PUSH1 0x40 MLOAD DUP1 SWAP2 SUB SWAP1 RETURN JUMPDEST CALLVALUE DUP1 ISZERO PUSH2 0x36D JUMPI PUSH1 0x0 DUP1 REVERT JUMPDEST POP PUSH2 0x376 PUSH2 0x1346 JUMP JUMPDEST PUSH1 0x40 MLOAD PUSH2 0x383 SWAP2 SWAP1 PUSH2 0x49C9 JUMP JUMPDEST PUSH1 0x40 MLOAD DUP1 SWAP2 SUB SWAP1 RETURN JUMPDEST CALLVALUE DUP1 ISZERO PUSH2 0x398 JUMPI PUSH1 0x0 DUP1 REVERT JUMPDEST POP PUSH2 0x3B3 PUSH1 0x4 DUP1 CALLDATASIZE SUB DUP2 ADD SWAP1 PUSH2 0x3AE SWAP2 SWAP1 PUSH2 0x491A JUMP JUMPDEST PUSH2 0x134F JUMP JUMPDEST STOP JUMPDEST CALLVALUE DUP1 ISZERO PUSH2 0x3C1 JUMPI PUSH1 0x0 DUP1 REVERT JUMPDEST POP PUSH2 0x3CA PUSH2 0x1B59 JUMP JUMPDEST PUSH1 0x40 MLOAD PUSH2 0x3D7 SWAP2 SWAP1 PUSH2 0x48FF JUMP JUMPDEST PUSH1 0x40 MLOAD DUP1 SWAP2 SUB SWAP1 RETURN JUMPDEST CALLVALUE DUP1 ISZERO PUSH2 0x3EC JUMPI PUSH1 0x0 DUP1 REVERT JUMPDEST POP PUSH2 0x3F5 PUSH2 0x1B64 JUMP JUMPDEST PUSH1 0x40 MLOAD PUSH2 0x402 SWAP2 SWAP1 PUSH2 0x48D5 JUMP JUMPDEST PUSH1 0x40 MLOAD DUP1 SWAP2 SUB SWAP1 RETURN JUMPDEST CALLVALUE DUP1 ISZERO PUSH2 0x417 JUMPI PUSH1 0x0 DUP1 REVERT JUMPDEST POP PUSH2 0x432 PUSH1 0x4 DUP1 CALLDATASIZE SUB DUP2 ADD SWAP1 PUSH2 0x42D SWAP2 SWAP1 PUSH2 0x49E4 JUMP JUMPDEST PUSH2 0x1B8A JUMP JUMPDEST PUSH1 0x40 MLOAD PUSH2 0x43F SWAP2 SWAP1 PUSH2 0x48FF JUMP JUMPDEST PUSH1 0x40 MLOAD DUP1 SWAP2 SUB SWAP1 RETURN JUMPDEST CALLVALUE DUP1 ISZERO PUSH2 0x454 JUMPI PUSH1 0x0 DUP1 REVERT JUMPDEST POP PUSH2 0x45D PUSH2 0x1BA2 JUMP JUMPDEST PUSH1 0x40 MLOAD PUSH2 0x46A SWAP2 SWAP1 PUSH2 0x48FF JUMP JUMPDEST PUSH1 0x40 MLOAD DUP1 SWAP2 SUB SWAP1 RETURN JUMPDEST CALLVALUE DUP1 ISZERO PUSH2 0x47F JUMPI PUSH1 0x0 DUP1 REVERT JUMPDEST POP PUSH2 0x488 PUSH2 0x1C54 JUMP JUMPDEST STOP JUMPDEST CALLVALUE DUP1 ISZERO PUSH2 0x496 JUMPI PUSH1 0x0 DUP1 REVERT JUMPDEST POP PUSH2 0x4B1 PUSH1 0x4 DUP1 CALLDATASIZE SUB DUP2 ADD SWAP1 PUSH2 0x4AC SWAP2 SWAP1 PUSH2 0x491A JUMP JUMPDEST PUSH2 0x2218 JUMP JUMPDEST STOP JUMPDEST PUSH2 0x4CD PUSH1 0x4 DUP1 CALLDATASIZE SUB DUP2 ADD SWAP1 PUSH2 0x4C8 SWAP2 SWAP1 PUSH2 0x4A11 JUMP JUMPDEST PUSH2 0x242F JUMP JUMPDEST STOP JUMPDEST CALLVALUE DUP1 ISZERO PUSH2 0x4DB JUMPI PUSH1 0x0 DUP1 REVERT JUMPDEST POP PUSH2 0x4F6 PUSH1 0x4 DUP1 CALLDATASIZE SUB DUP2 ADD SWAP1 PUSH2 0x4F1 SWAP2 SWAP1 PUSH2 0x4A64 JUMP JUMPDEST PUSH2 0x3012 JUMP JUMPDEST PUSH1 0x40 MLOAD PUSH2 0x503 SWAP2 SWAP1 PUSH2 0x48FF JUMP JUMPDEST PUSH1 0x40 MLOAD DUP1 SWAP2 SUB SWAP1 RETURN JUMPDEST CALLVALUE DUP1 ISZERO PUSH2 0x518 JUMPI PUSH1 0x0 DUP1 REVERT JUMPDEST POP PUSH2 0x521 PUSH2 0x302D JUMP JUMPDEST PUSH1 0x40 MLOAD PUSH2 0x52E SWAP2 SWAP1 PUSH2 0x4AF0 JUMP JUMPDEST PUSH1 0x40 MLOAD DUP1 SWAP2 SUB SWAP1 RETURN JUMPDEST CALLVALUE DUP1 ISZERO PUSH2 0x543 JUMPI PUSH1 0x0 DUP1 REVERT JUMPDEST POP PUSH2 0x55E PUSH1 0x4 DUP1 CALLDATASIZE SUB DUP2 ADD SWAP1 PUSH2 0x559 SWAP2 SWAP1 PUSH2 0x47C3 JUMP JUMPDEST PUSH2 0x3053 JUMP JUMPDEST STOP JUMPDEST CALLVALUE DUP1 ISZERO PUSH2 0x56C JUMPI PUSH1 0x0 DUP1 REVERT JUMPDEST POP PUSH2 0x575 PUSH2 0x31D0 JUMP JUMPDEST PUSH1 0x40 MLOAD PUSH2 0x582 SWAP2 SWAP1 PUSH2 0x48FF JUMP JUMPDEST PUSH1 0x40 MLOAD DUP1 SWAP2 SUB SWAP1 RETURN JUMPDEST CALLVALUE DUP1 ISZERO PUSH2 0x597 JUMPI PUSH1 0x0 DUP1 REVERT JUMPDEST POP PUSH2 0x5A0 PUSH2 0x31D6 JUMP JUMPDEST PUSH1 0x40 MLOAD PUSH2 0x5AD SWAP2 SWAP1 PUSH2 0x4B24 JUMP JUMPDEST PUSH1 0x40 MLOAD DUP1 SWAP2 SUB SWAP1 RETURN JUMPDEST CALLVALUE DUP1 ISZERO PUSH2 0x5C2 JUMPI PUSH1 0x0 DUP1 REVERT JUMPDEST POP PUSH2 0x5CB PUSH2 0x3277 JUMP JUMPDEST PUSH1 0x40 MLOAD PUSH2 0x5D8 SWAP2 SWAP1 PUSH2 0x4708 JUMP JUMPDEST PUSH1 0x40 MLOAD DUP1 SWAP2 SUB SWAP1 RETURN JUMPDEST CALLVALUE DUP1 ISZERO PUSH2 0x5ED JUMPI PUSH1 0x0 DUP1 REVERT JUMPDEST POP PUSH2 0x5F6 PUSH2 0x32B4 JUMP JUMPDEST PUSH1 0x40 MLOAD PUSH2 0x603 SWAP2 SWAP1 PUSH2 0x48FF JUMP JUMPDEST PUSH1 0x40 MLOAD DUP1 SWAP2 SUB SWAP1 RETURN JUMPDEST CALLVALUE DUP1 ISZERO PUSH2 0x618 JUMPI PUSH1 0x0 DUP1 REVERT JUMPDEST POP PUSH2 0x633 PUSH1 0x4 DUP1 CALLDATASIZE SUB DUP2 ADD SWAP1 PUSH2 0x62E SWAP2 SWAP1 PUSH2 0x47C3 JUMP JUMPDEST PUSH2 0x32D8 JUMP JUMPDEST PUSH1 0x40 MLOAD PUSH2 0x640 SWAP2 SWAP1 PUSH2 0x481E JUMP JUMPDEST PUSH1 0x40 MLOAD DUP1 SWAP2 SUB SWAP1 RETURN JUMPDEST CALLVALUE DUP1 ISZERO PUSH2 0x655 JUMPI PUSH1 0x0 DUP1 REVERT JUMPDEST POP PUSH2 0x670 PUSH1 0x4 DUP1 CALLDATASIZE SUB DUP2 ADD SWAP1 PUSH2 0x66B SWAP2 SWAP1 PUSH2 0x49E4 JUMP JUMPDEST PUSH2 0x3354 JUMP JUMPDEST STOP JUMPDEST CALLVALUE DUP1 ISZERO PUSH2 0x67E JUMPI PUSH1 0x0 DUP1 REVERT JUMPDEST POP PUSH2 0x687 PUSH2 0x373B JUMP JUMPDEST PUSH1 0x40 MLOAD PUSH2 0x694 SWAP2 SWAP1 PUSH2 0x4B60 JUMP JUMPDEST PUSH1 0x40 MLOAD DUP1 SWAP2 SUB SWAP1 RETURN JUMPDEST CALLVALUE DUP1 ISZERO PUSH2 0x6A9 JUMPI PUSH1 0x0 DUP1 REVERT JUMPDEST POP PUSH2 0x6C4 PUSH1 0x4 DUP1 CALLDATASIZE SUB DUP2 ADD SWAP1 PUSH2 0x6BF SWAP2 SWAP1 PUSH2 0x491A JUMP JUMPDEST PUSH2 0x3761 JUMP JUMPDEST STOP JUMPDEST CALLVALUE DUP1 ISZERO PUSH2 0x6D2 JUMPI PUSH1 0x0 DUP1 REVERT JUMPDEST POP PUSH2 0x6DB PUSH2 0x3C6C JUMP JUMPDEST PUSH1 0x40 MLOAD PUSH2 0x6E8 SWAP2 SWAP1 PUSH2 0x48FF JUMP JUMPDEST PUSH1 0x40 MLOAD DUP1 SWAP2 SUB SWAP1 RETURN JUMPDEST CALLVALUE DUP1 ISZERO PUSH2 0x6FD JUMPI PUSH1 0x0 DUP1 REVERT JUMPDEST POP PUSH2 0x718 PUSH1 0x4 DUP1 CALLDATASIZE SUB DUP2 ADD SWAP1 PUSH2 0x713 SWAP2 SWAP1 PUSH2 0x4A64 JUMP JUMPDEST PUSH2 0x3C78 JUMP JUMPDEST PUSH1 0x40 MLOAD PUSH2 0x725 SWAP2 SWAP1 PUSH2 0x48FF JUMP JUMPDEST PUSH1 0x40 MLOAD DUP1 SWAP2 SUB SWAP1 RETURN JUMPDEST CALLVALUE DUP1 ISZERO PUSH2 0x73A JUMPI PUSH1 0x0 DUP1 REVERT JUMPDEST POP PUSH2 0x743 PUSH2 0x3C90 JUMP JUMPDEST PUSH1 0x40 MLOAD PUSH2 0x750 SWAP2 SWAP1 PUSH2 0x4B9C JUMP JUMPDEST PUSH1 0x40 MLOAD DUP1 SWAP2 SUB SWAP1 RETURN JUMPDEST CALLVALUE DUP1 ISZERO PUSH2 0x765 JUMPI PUSH1 0x0 DUP1 REVERT JUMPDEST POP PUSH2 0x76E PUSH2 0x3CB6 JUMP JUMPDEST PUSH1 0x40 MLOAD PUSH2 0x77B SWAP2 SWAP1 PUSH2 0x4BD5 JUMP JUMPDEST PUSH1 0x40 MLOAD DUP1 SWAP2 SUB SWAP1 RETURN JUMPDEST CALLVALUE DUP1 ISZERO PUSH2 0x790 JUMPI PUSH1 0x0 DUP1 REVERT JUMPDEST POP PUSH2 0x7AB PUSH1 0x4 DUP1 CALLDATASIZE SUB DUP2 ADD SWAP1 PUSH2 0x7A6 SWAP2 SWAP1 PUSH2 0x4BF0 JUMP JUMPDEST PUSH2 0x3CBC JUMP JUMPDEST PUSH1 0x40 MLOAD PUSH2 0x7B8 SWAP2 SWAP1 PUSH2 0x48FF JUMP JUMPDEST PUSH1 0x40 MLOAD DUP1 SWAP2 SUB SWAP1 RETURN JUMPDEST CALLVALUE DUP1 ISZERO PUSH2 0x7CD JUMPI PUSH1 0x0 DUP1 REVERT JUMPDEST POP PUSH2 0x7E8 PUSH1 0x4 DUP1 CALLDATASIZE SUB DUP2 ADD SWAP1 PUSH2 0x7E3 SWAP2 SWAP1 PUSH2 0x49E4 JUMP JUMPDEST PUSH2 0x3CDC JUMP JUMPDEST PUSH1 0x40 MLOAD PUSH2 0x7FF SWAP12 SWAP11 SWAP10 SWAP9 SWAP8 SWAP7 SWAP6 SWAP5 SWAP4 SWAP3 SWAP2 SWAP1 PUSH2 0x4C30 JUMP JUMPDEST PUSH1 0x40 MLOAD DUP1 SWAP2 SUB SWAP1 RETURN JUMPDEST CALLVALUE DUP1 ISZERO PUSH2 0x814 JUMPI PUSH1 0x0 DUP1 REVERT JUMPDEST POP PUSH2 0x82F PUSH1 0x4 DUP1 CALLDATASIZE SUB DUP2 ADD SWAP1 PUSH2 0x82A SWAP2 SWAP1 PUSH2 0x49E4 JUMP JUMPDEST PUSH2 0x3D80 JUMP JUMPDEST STOP JUMPDEST CALLVALUE DUP1 ISZERO PUSH2 0x83D JUMPI PUSH1 0x0 DUP1 REVERT JUMPDEST POP PUSH2 0x858 PUSH1 0x4 DUP1 CALLDATASIZE SUB DUP2 ADD SWAP1 PUSH2 0x853 SWAP2 SWAP1 PUSH2 0x491A JUMP JUMPDEST PUSH2 0x40E1 JUMP JUMPDEST STOP JUMPDEST PUSH1 0x60 PUSH1 0x40 MLOAD DUP1 PUSH1 0x40 ADD PUSH1 0x40 MSTORE DUP1 PUSH1 0x9 DUP2 MSTORE PUSH1 0x20 ADD PUSH32 0x4769676153747261740000000000000000000000000000000000000000000000 DUP2 MSTORE POP SWAP1 POP SWAP1 JUMP JUMPDEST PUSH1 0x0 DUP3 PUSH1 0x20 MSTORE PUSH4 0x7F5E9F20 PUSH1 0xC MSTORE CALLER PUSH1 0x0 MSTORE DUP2 PUSH1 0x34 PUSH1 0xC KECCAK256 SSTORE DUP2 PUSH1 0x0 MSTORE PUSH1 0x2C MLOAD PUSH1 0x60 SHR CALLER PUSH32 0x8C5BE1E5EBEC7D5BD14F71427D1E84F3DD0314C0F7B2291E5B200AC8C7C3B925 PUSH1 0x20 PUSH1 0x0 LOG3 PUSH1 0x1 SWAP1 POP SWAP3 SWAP2 POP POP JUMP JUMPDEST PUSH1 0x2 DUP1 PUSH1 0x8 PUSH1 0x0 CALLER PUSH20 0xFFFFFFFFFFFFFFFFFFFFFFFFFFFFFFFFFFFFFFFF AND PUSH20 0xFFFFFFFFFFFFFFFFFFFFFFFFFFFFFFFFFFFFFFFF AND DUP2 MSTORE PUSH1 0x20 ADD SWAP1 DUP2 MSTORE PUSH1 0x20 ADD PUSH1 0x0 KECCAK256 SLOAD EQ PUSH2 0x96E JUMPI PUSH1 0x40 MLOAD PUSH32 0x8C379A000000000000000000000000000000000000000000000000000000000 DUP2 MSTORE PUSH1 0x4 ADD PUSH2 0x965 SWAP1 PUSH2 0x4D27 JUMP JUMPDEST PUSH1 0x40 MLOAD DUP1 SWAP2 SUB SWAP1 REVERT JUMPDEST PUSH1 0x0 PUSH1 0x1 PUSH1 0x0 SWAP1 SLOAD SWAP1 PUSH2 0x100 EXP SWAP1 DIV PUSH20 0xFFFFFFFFFFFFFFFFFFFFFFFFFFFFFFFFFFFFFFFF AND PUSH20 0xFFFFFFFFFFFFFFFFFFFFFFFFFFFFFFFFFFFFFFFF AND PUSH4 0x1638711B DUP9 ADDRESS DUP12 DUP11 DUP11 DUP11 PUSH1 0x0 PUSH1 0x40 MLOAD DUP9 PUSH4 0xFFFFFFFF AND PUSH1 0xE0 SHL DUP2 MSTORE PUSH1 0x4 ADD PUSH2 0x9D8 SWAP8 SWAP7 SWAP6 SWAP5 SWAP4 SWAP3 SWAP2 SWAP1 PUSH2 0x4DDF JUMP JUMPDEST PUSH1 0x20 PUSH1 0x40 MLOAD DUP1 DUP4 SUB DUP2 PUSH1 0x0 DUP8 GAS CALL ISZERO DUP1 ISZERO PUSH2 0x9F7 JUMPI RETURNDATASIZE PUSH1 0x0 DUP1 RETURNDATACOPY RETURNDATASIZE PUSH1 0x0 REVERT JUMPDEST POP POP POP POP PUSH1 0x40 MLOAD RETURNDATASIZE PUSH1 0x1F NOT PUSH1 0x1F DUP3 ADD AND DUP3 ADD DUP1 PUSH1 0x40 MSTORE POP DUP2 ADD SWAP1 PUSH2 0xA1B SWAP2 SWAP1 PUSH2 0x4E8B JUMP JUMPDEST SWAP1 POP PUSH1 0x0 PUSH1 0x40 MLOAD DUP1 PUSH2 0x160 ADD PUSH1 0x40 MSTORE DUP1 DUP4 PUSH20 0xFFFFFFFFFFFFFFFFFFFFFFFFFFFFFFFFFFFFFFFF AND DUP2 MSTORE PUSH1 0x20 ADD DUP11 DUP2 MSTORE PUSH1 0x20 ADD PUSH1 0x0 DUP2 MSTORE PUSH1 0x20 ADD PUSH1 0x0 ISZERO ISZERO DUP2 MSTORE PUSH1 0x20 ADD PUSH1 0x0 DUP2 MSTORE PUSH1 0x20 ADD PUSH1 0x0 ISZERO ISZERO DUP2 MSTORE PUSH1 0x20 ADD DUP6 DUP2 MSTORE PUSH1 0x20 ADD PUSH1 0x0 DUP2 MSTORE PUSH1 0x20 ADD PUSH1 0x0 DUP2 MSTORE PUSH1 0x20 ADD PUSH1 0x0 DUP2 MSTORE PUSH1 0x20 ADD PUSH1 0x0 DUP2 MSTORE POP SWAP1 DUP1 PUSH1 0x1 DUP2 SLOAD ADD DUP1 DUP3 SSTORE DUP1 SWAP2 POP POP PUSH1 0x1 SWAP1 SUB SWAP1 PUSH1 0x0 MSTORE PUSH1 0x20 PUSH1 0x0 KECCAK256 SWAP1 PUSH1 0xB MUL ADD PUSH1 0x0 SWAP1 SWAP2 SWAP1 SWAP2 SWAP1 SWAP2 POP PUSH1 0x0 DUP3 ADD MLOAD DUP2 PUSH1 0x0 ADD PUSH1 0x0 PUSH2 0x100 EXP DUP2 SLOAD DUP2 PUSH20 0xFFFFFFFFFFFFFFFFFFFFFFFFFFFFFFFFFFFFFFFF MUL NOT AND SWAP1 DUP4 PUSH20 0xFFFFFFFFFFFFFFFFFFFFFFFFFFFFFFFFFFFFFFFF AND MUL OR SWAP1 SSTORE POP PUSH1 0x20 DUP3 ADD MLOAD DUP2 PUSH1 0x1 ADD SSTORE PUSH1 0x40 DUP3 ADD MLOAD DUP2 PUSH1 0x2 ADD SSTORE PUSH1 0x60 DUP3 ADD MLOAD DUP2 PUSH1 0x3 ADD PUSH1 0x0 PUSH2 0x100 EXP DUP2 SLOAD DUP2 PUSH1 0xFF MUL NOT AND SWAP1 DUP4 ISZERO ISZERO MUL OR SWAP1 SSTORE POP PUSH1 0x80 DUP3 ADD MLOAD DUP2 PUSH1 0x4 ADD SSTORE PUSH1 0xA0 DUP3 ADD MLOAD DUP2 PUSH1 0x5 ADD PUSH1 0x0 PUSH2 0x100 EXP DUP2 SLOAD DUP2 PUSH1 0xFF MUL NOT AND SWAP1 DUP4 ISZERO ISZERO MUL OR SWAP1 SSTORE POP PUSH1 0xC0 DUP3 ADD MLOAD DUP2 PUSH1 0x6 ADD SSTORE PUSH1 0xE0 DUP3 ADD MLOAD DUP2 PUSH1 0x7 ADD SSTORE PUSH2 0x100 DUP3 ADD MLOAD DUP2 PUSH1 0x8 ADD SSTORE PUSH2 0x120 DUP3 ADD MLOAD DUP2 PUSH1 0x9 ADD SSTORE PUSH2 0x140 DUP3 ADD MLOAD DUP2 PUSH1 0xA ADD SSTORE POP POP DUP1 PUSH20 0xFFFFFFFFFFFFFFFFFFFFFFFFFFFFFFFFFFFFFFFF AND PUSH32 0x648E161F301B32079CBFF6F2EECB4B7BC8D0EB9E67218201EB3703BDC232A29F PUSH1 0x1 PUSH1 0x0 DUP1 SLOAD SWAP1 POP PUSH2 0xBDC SWAP2 SWAP1 PUSH2 0x4EE7 JUMP JUMPDEST PUSH1 0x40 MLOAD PUSH2 0xBE9 SWAP2 SWAP1 PUSH2 0x48FF JUMP JUMPDEST PUSH1 0x40 MLOAD DUP1 SWAP2 SUB SWAP1 LOG2 POP POP POP POP POP POP POP POP JUMP JUMPDEST PUSH1 0x2 PUSH1 0x0 SWAP1 SLOAD SWAP1 PUSH2 0x100 EXP SWAP1 DIV PUSH20 0xFFFFFFFFFFFFFFFFFFFFFFFFFFFFFFFFFFFFFFFF AND DUP2 JUMP JUMPDEST PUSH1 0x0 PUSH9 0x5345CDF77EB68F44C SLOAD SWAP1 POP SWAP1 JUMP JUMPDEST PUSH1 0x0 DUP1 SLOAD SWAP1 POP DUP3 LT PUSH2 0xC7A JUMPI PUSH1 0x40 MLOAD PUSH32 0x8C379A000000000000000000000000000000000000000000000000000000000 DUP2 MSTORE PUSH1 0x4 ADD PUSH2 0xC71 SWAP1 PUSH2 0x4F67 JUMP JUMPDEST PUSH1 0x40 MLOAD DUP1 SWAP2 SUB SWAP1 REVERT JUMPDEST PUSH1 0x0 DUP2 GT PUSH2 0xCBD JUMPI PUSH1 0x40 MLOAD PUSH32 0x8C379A000000000000000000000000000000000000000000000000000000000 DUP2 MSTORE PUSH1 0x4 ADD PUSH2 0xCB4 SWAP1 PUSH2 0x4FD3 JUMP JUMPDEST PUSH1 0x40 MLOAD DUP1 SWAP2 SUB SWAP1 REVERT JUMPDEST PUSH1 0x0 DUP1 DUP4 DUP2 SLOAD DUP2 LT PUSH2 0xCD2 JUMPI PUSH2 0xCD1 PUSH2 0x4FF3 JUMP JUMPDEST JUMPDEST SWAP1 PUSH1 0x0 MSTORE PUSH1 0x20 PUSH1 0x0 KECCAK256 SWAP1 PUSH1 0xB MUL ADD SWAP1 POP DUP1 PUSH1 0x0 ADD PUSH1 0x0 SWAP1 SLOAD SWAP1 PUSH2 0x100 EXP SWAP1 DIV PUSH20 0xFFFFFFFFFFFFFFFFFFFFFFFFFFFFFFFFFFFFFFFF AND PUSH20 0xFFFFFFFFFFFFFFFFFFFFFFFFFFFFFFFFFFFFFFFF AND PUSH4 0x23B872DD CALLER ADDRESS DUP6 PUSH1 0x40 MLOAD DUP5 PUSH4 0xFFFFFFFF AND PUSH1 0xE0 SHL DUP2 MSTORE PUSH1 0x4 ADD PUSH2 0xD43 SWAP4 SWAP3 SWAP2 SWAP1 PUSH2 0x5022 JUMP JUMPDEST PUSH1 0x20 PUSH1 0x40 MLOAD DUP1 DUP4 SUB DUP2 PUSH1 0x0 DUP8 GAS CALL ISZERO DUP1 ISZERO PUSH2 0xD62 JUMPI RETURNDATASIZE PUSH1 0x0 DUP1 RETURNDATACOPY RETURNDATASIZE PUSH1 0x0 REVERT JUMPDEST POP POP POP POP PUSH1 0x40 MLOAD RETURNDATASIZE PUSH1 0x1F NOT PUSH1 0x1F DUP3 ADD AND DUP3 ADD DUP1 PUSH1 0x40 MSTORE POP DUP2 ADD SWAP1 PUSH2 0xD86 SWAP2 SWAP1 PUSH2 0x5085 JUMP JUMPDEST POP PUSH1 0x0 DUP2 PUSH1 0x6 ADD SLOAD PUSH8 0xDE0B6B3A7640000 DUP5 PUSH2 0xDA2 SWAP2 SWAP1 PUSH2 0x50B2 JUMP JUMPDEST PUSH2 0xDAC SWAP2 SWAP1 PUSH2 0x5123 JUMP JUMPDEST SWAP1 POP PUSH2 0xDB8 CALLER DUP3 PUSH2 0x457A JUMP JUMPDEST PUSH2 0xDF0 PUSH1 0x6 PUSH1 0x0 SWAP1 SLOAD SWAP1 PUSH2 0x100 EXP SWAP1 DIV PUSH20 0xFFFFFFFFFFFFFFFFFFFFFFFFFFFFFFFFFFFFFFFF AND PUSH1 0x14 DUP4 PUSH2 0xDEB SWAP2 SWAP1 PUSH2 0x5123 JUMP JUMPDEST PUSH2 0x457A JUMP JUMPDEST PUSH1 0x0 DUP3 PUSH1 0x0 ADD PUSH1 0x0 SWAP1 SLOAD SWAP1 PUSH2 0x100 EXP SWAP1 DIV PUSH20 0xFFFFFFFFFFFFFFFFFFFFFFFFFFFFFFFFFFFFFFFF AND PUSH20 0xFFFFFFFFFFFFFFFFFFFFFFFFFFFFFFFFFFFFFFFF AND PUSH4 0x18160DDD PUSH1 0x40 MLOAD DUP2 PUSH4 0xFFFFFFFF AND PUSH1 0xE0 SHL DUP2 MSTORE PUSH1 0x4 ADD PUSH1 0x20 PUSH1 0x40 MLOAD DUP1 DUP4 SUB DUP2 DUP7 GAS STATICCALL ISZERO DUP1 ISZERO PUSH2 0xE61 JUMPI RETURNDATASIZE PUSH1 0x0 DUP1 RETURNDATACOPY RETURNDATASIZE PUSH1 0x0 REVERT JUMPDEST POP POP POP POP PUSH1 0x40 MLOAD RETURNDATASIZE PUSH1 0x1F NOT PUSH1 0x1F DUP3 ADD AND DUP3 ADD DUP1 PUSH1 0x40 MSTORE POP DUP2 ADD SWAP1 PUSH2 0xE85 SWAP2 SWAP1 PUSH2 0x5169 JUMP JUMPDEST PUSH1 0x0 DUP7 DUP2 SLOAD DUP2 LT PUSH2 0xE99 JUMPI PUSH2 0xE98 PUSH2 0x4FF3 JUMP JUMPDEST JUMPDEST SWAP1 PUSH1 0x0 MSTORE PUSH1 0x20 PUSH1 0x0 KECCAK256 SWAP1 PUSH1 0xB MUL ADD PUSH1 0x7 ADD SLOAD DUP6 PUSH2 0xEB6 SWAP2 SWAP1 PUSH2 0x50B2 JUMP JUMPDEST PUSH2 0xEC0 SWAP2 SWAP1 PUSH2 0x5123 JUMP JUMPDEST SWAP1 POP DUP1 PUSH1 0x0 DUP7 DUP2 SLOAD DUP2 LT PUSH2 0xED7 JUMPI PUSH2 0xED6 PUSH2 0x4FF3 JUMP JUMPDEST JUMPDEST SWAP1 PUSH1 0x0 MSTORE PUSH1 0x20 PUSH1 0x0 KECCAK256 SWAP1 PUSH1 0xB MUL ADD PUSH1 0x8 ADD PUSH1 0x0 DUP3 DUP3 SLOAD PUSH2 0xEF7 SWAP2 SWAP1 PUSH2 0x5196 JUMP JUMPDEST SWAP3 POP POP DUP2 SWAP1 SSTORE POP DUP3 PUSH1 0x0 ADD PUSH1 0x0 SWAP1 SLOAD SWAP1 PUSH2 0x100 EXP SWAP1 DIV PUSH20 0xFFFFFFFFFFFFFFFFFFFFFFFFFFFFFFFFFFFFFFFF AND PUSH20 0xFFFFFFFFFFFFFFFFFFFFFFFFFFFFFFFFFFFFFFFF AND PUSH4 0x211D9A53 DUP6 PUSH1 0x40 MLOAD DUP3 PUSH4 0xFFFFFFFF AND PUSH1 0xE0 SHL DUP2 MSTORE PUSH1 0x4 ADD PUSH2 0xF5B SWAP2 SWAP1 PUSH2 0x48FF JUMP JUMPDEST PUSH1 0x0 PUSH1 0x40 MLOAD DUP1 DUP4 SUB DUP2 PUSH1 0x0 DUP8 DUP1 EXTCODESIZE ISZERO DUP1 ISZERO PUSH2 0xF75 JUMPI PUSH1 0x0 DUP1 REVERT JUMPDEST POP GAS CALL ISZERO DUP1 ISZERO PUSH2 0xF89 JUMPI RETURNDATASIZE PUSH1 0x0 DUP1 RETURNDATACOPY RETURNDATASIZE PUSH1 0x0 REVERT JUMPDEST POP POP POP POP DUP3 PUSH1 0x0 ADD PUSH1 0x0 SWAP1 SLOAD SWAP1 PUSH2 0x100 EXP SWAP1 DIV PUSH20 0xFFFFFFFFFFFFFFFFFFFFFFFFFFFFFFFFFFFFFFFF AND PUSH20 0xFFFFFFFFFFFFFFFFFFFFFFFFFFFFFFFFFFFFFFFF AND PUSH4 0x316FB7C4 DUP5 PUSH1 0x0 ADD PUSH1 0x0 SWAP1 SLOAD SWAP1 PUSH2 0x100 EXP SWAP1 DIV PUSH20 0xFFFFFFFFFFFFFFFFFFFFFFFFFFFFFFFFFFFFFFFF AND PUSH20 0xFFFFFFFFFFFFFFFFFFFFFFFFFFFFFFFFFFFFFFFF AND PUSH4 0x6D37817 PUSH1 0x40 MLOAD DUP2 PUSH4 0xFFFFFFFF AND PUSH1 0xE0 SHL DUP2 MSTORE PUSH1 0x4 ADD PUSH1 0x20 PUSH1 0x40 MLOAD DUP1 DUP4 SUB DUP2 DUP7 GAS STATICCALL ISZERO DUP1 ISZERO PUSH2 0x103C JUMPI RETURNDATASIZE PUSH1 0x0 DUP1 RETURNDATACOPY RETURNDATASIZE PUSH1 0x0 REVERT JUMPDEST POP POP POP POP PUSH1 0x40 MLOAD RETURNDATASIZE PUSH1 0x1F NOT PUSH1 0x1F DUP3 ADD AND DUP3 ADD DUP1 PUSH1 0x40 MSTORE POP DUP2 ADD SWAP1 PUSH2 0x1060 SWAP2 SWAP1 PUSH2 0x4E8B JUMP JUMPDEST PUSH20 0xFFFFFFFFFFFFFFFFFFFFFFFFFFFFFFFFFFFFFFFF AND PUSH4 0x313CE567 PUSH1 0x40 MLOAD DUP2 PUSH4 0xFFFFFFFF AND PUSH1 0xE0 SHL DUP2 MSTORE PUSH1 0x4 ADD PUSH1 0x20 PUSH1 0x40 MLOAD DUP1 DUP4 SUB DUP2 DUP7 GAS STATICCALL ISZERO DUP1 ISZERO PUSH2 0x10AA JUMPI RETURNDATASIZE PUSH1 0x0 DUP1 RETURNDATACOPY RETURNDATASIZE PUSH1 0x0 REVERT JUMPDEST POP POP POP POP PUSH1 0x40 MLOAD RETURNDATASIZE PUSH1 0x1F NOT PUSH1 0x1F DUP3 ADD AND DUP3 ADD DUP1 PUSH1 0x40 MSTORE POP DUP2 ADD SWAP1 PUSH2 0x10CE SWAP2 SWAP1 PUSH2 0x51F6 JUMP JUMPDEST PUSH1 0x12 PUSH2 0x10DA SWAP2 SWAP1 PUSH2 0x5223 JUMP JUMPDEST PUSH1 0xA PUSH2 0x10E6 SWAP2 SWAP1 PUSH2 0x538B JUMP JUMPDEST DUP7 PUSH2 0x10F1 SWAP2 SWAP1 PUSH2 0x5123 JUMP JUMPDEST DUP6 PUSH1 0x0 ADD PUSH1 0x0 SWAP1 SLOAD SWAP1 PUSH2 0x100 EXP SWAP1 DIV PUSH20 0xFFFFFFFFFFFFFFFFFFFFFFFFFFFFFFFFFFFFFFFF AND PUSH20 0xFFFFFFFFFFFFFFFFFFFFFFFFFFFFFFFFFFFFFFFF AND PUSH4 0x6F0A7F71 PUSH1 0x40 MLOAD DUP2 PUSH4 0xFFFFFFFF AND PUSH1 0xE0 SHL DUP2 MSTORE PUSH1 0x4 ADD PUSH1 0x20 PUSH1 0x40 MLOAD DUP1 DUP4 SUB DUP2 DUP7 GAS STATICCALL ISZERO DUP1 ISZERO PUSH2 0x1160 JUMPI RETURNDATASIZE PUSH1 0x0 DUP1 RETURNDATACOPY RETURNDATASIZE PUSH1 0x0 REVERT JUMPDEST POP POP POP POP PUSH1 0x40 MLOAD RETURNDATASIZE PUSH1 0x1F NOT PUSH1 0x1F DUP3 ADD AND DUP3 ADD DUP1 PUSH1 0x40 MSTORE POP DUP2 ADD SWAP1 PUSH2 0x1184 SWAP2 SWAP1 PUSH2 0x5169 JUMP JUMPDEST PUSH2 0x118E SWAP2 SWAP1 PUSH2 0x4EE7 JUMP JUMPDEST PUSH1 0x40 MLOAD DUP3 PUSH4 0xFFFFFFFF AND PUSH1 0xE0 SHL DUP2 MSTORE PUSH1 0x4 ADD PUSH2 0x11AA SWAP2 SWAP1 PUSH2 0x48FF JUMP JUMPDEST PUSH1 0x0 PUSH1 0x40 MLOAD DUP1 DUP4 SUB DUP2 PUSH1 0x0 DUP8 DUP1 EXTCODESIZE ISZERO DUP1 ISZERO PUSH2 0x11C4 JUMPI PUSH1 0x0 DUP1 REVERT JUMPDEST POP GAS CALL ISZERO DUP1 ISZERO PUSH2 0x11D8 JUMPI RETURNDATASIZE PUSH1 0x0 DUP1 RETURNDATACOPY RETURNDATASIZE PUSH1 0x0 REVERT JUMPDEST POP POP POP POP DUP1 PUSH1 0x7 PUSH1 0x0 DUP3 DUP3 SLOAD PUSH2 0x11EE SWAP2 SWAP1 PUSH2 0x5196 JUMP JUMPDEST SWAP3 POP POP DUP2 SWAP1 SSTORE POP DUP3 PUSH1 0x0 ADD PUSH1 0x0 SWAP1 SLOAD SWAP1 PUSH2 0x100 EXP SWAP1 DIV PUSH20 0xFFFFFFFFFFFFFFFFFFFFFFFFFFFFFFFFFFFFFFFF AND PUSH20 0xFFFFFFFFFFFFFFFFFFFFFFFFFFFFFFFFFFFFFFFF AND CALLER PUSH20 0xFFFFFFFFFFFFFFFFFFFFFFFFFFFFFFFFFFFFFFFF AND PUSH32 0x37E6C831DFF7B054163BA09E9DA83D6F3655F037C0D389B6F453CFF3007A54F1 DUP7 DUP6 DUP10 PUSH1 0x40 MLOAD PUSH2 0x127A SWAP4 SWAP3 SWAP2 SWAP1 PUSH2 0x53D6 JUMP JUMPDEST PUSH1 0x40 MLOAD DUP1 SWAP2 SUB SWAP1 LOG3 POP POP POP POP POP JUMP JUMPDEST PUSH1 0x0 DUP4 PUSH1 0x60 SHL CALLER PUSH1 0x20 MSTORE PUSH4 0x7F5E9F20 DUP2 OR PUSH1 0xC MSTORE PUSH1 0x34 PUSH1 0xC KECCAK256 DUP1 SLOAD DUP1 NOT ISZERO PUSH2 0x12C7 JUMPI DUP1 DUP6 GT ISZERO PUSH2 0x12C1 JUMPI PUSH4 0x13BE252B PUSH1 0x0 MSTORE PUSH1 0x4 PUSH1 0x1C REVERT JUMPDEST DUP5 DUP2 SUB DUP3 SSTORE JUMPDEST PUSH4 0x87A211A2 DUP4 OR PUSH1 0xC MSTORE PUSH1 0x20 PUSH1 0xC KECCAK256 DUP1 SLOAD DUP1 DUP8 GT ISZERO PUSH2 0x12EE JUMPI PUSH4 0xF4D678B8 PUSH1 0x0 MSTORE PUSH1 0x4 PUSH1 0x1C REVERT JUMPDEST DUP7 DUP2 SUB DUP3 SSTORE DUP8 PUSH1 0x0 MSTORE PUSH1 0x20 PUSH1 0xC KECCAK256 DUP8 DUP2 SLOAD ADD DUP2 SSTORE DUP8 PUSH1 0x20 MSTORE PUSH1 0xC MLOAD PUSH1 0x60 SHR DUP7 PUSH1 0x60 SHR PUSH32 0xDDF252AD1BE2C89B69C2B068FC378DAA952BA7F163C4A11628F55A4DF523B3EF PUSH1 0x20 DUP1 LOG3 POP POP POP POP POP POP PUSH1 0x1 SWAP1 POP SWAP4 SWAP3 POP POP POP JUMP JUMPDEST PUSH1 0x0 PUSH1 0x12 SWAP1 POP SWAP1 JUMP JUMPDEST PUSH1 0x2 DUP1 PUSH1 0x8 PUSH1 0x0 CALLER PUSH20 0xFFFFFFFFFFFFFFFFFFFFFFFFFFFFFFFFFFFFFFFF AND PUSH20 0xFFFFFFFFFFFFFFFFFFFFFFFFFFFFFFFFFFFFFFFF AND DUP2 MSTORE PUSH1 0x20 ADD SWAP1 DUP2 MSTORE PUSH1 0x20 ADD PUSH1 0x0 KECCAK256 SLOAD EQ PUSH2 0x13D2 JUMPI PUSH1 0x40 MLOAD PUSH32 0x8C379A000000000000000000000000000000000000000000000000000000000 DUP2 MSTORE PUSH1 0x4 ADD PUSH2 0x13C9 SWAP1 PUSH2 0x4D27 JUMP JUMPDEST PUSH1 0x40 MLOAD DUP1 SWAP2 SUB SWAP1 REVERT JUMPDEST PUSH1 0x0 DUP1 SLOAD SWAP1 POP DUP4 LT PUSH2 0x1419 JUMPI PUSH1 0x40 MLOAD PUSH32 0x8C379A000000000000000000000000000000000000000000000000000000000 DUP2 MSTORE PUSH1 0x4 ADD PUSH2 0x1410 SWAP1 PUSH2 0x4F67 JUMP JUMPDEST PUSH1 0x40 MLOAD DUP1 SWAP2 SUB SWAP1 REVERT JUMPDEST PUSH1 0x0 DUP1 DUP5 DUP2 SLOAD DUP2 LT PUSH2 0x142E JUMPI PUSH2 0x142D PUSH2 0x4FF3 JUMP JUMPDEST JUMPDEST SWAP1 PUSH1 0x0 MSTORE PUSH1 0x20 PUSH1 0x0 KECCAK256 SWAP1 PUSH1 0xB MUL ADD SWAP1 POP DUP1 PUSH1 0x3 ADD PUSH1 0x0 SWAP1 SLOAD SWAP1 PUSH2 0x100 EXP SWAP1 DIV PUSH1 0xFF AND PUSH2 0x148F JUMPI PUSH1 0x40 MLOAD PUSH32 0x8C379A000000000000000000000000000000000000000000000000000000000 DUP2 MSTORE PUSH1 0x4 ADD PUSH2 0x1486 SWAP1 PUSH2 0x5459 JUMP JUMPDEST PUSH1 0x40 MLOAD DUP1 SWAP2 SUB SWAP1 REVERT JUMPDEST PUSH1 0x0 PUSH2 0x1499 PUSH2 0x31D6 JUMP JUMPDEST SWAP1 POP PUSH1 0x0 DUP2 SGT PUSH2 0x14DE JUMPI PUSH1 0x40 MLOAD PUSH32 0x8C379A000000000000000000000000000000000000000000000000000000000 DUP2 MSTORE PUSH1 0x4 ADD PUSH2 0x14D5 SWAP1 PUSH2 0x54C5 JUMP JUMPDEST PUSH1 0x40 MLOAD DUP1 SWAP2 SUB SWAP1 REVERT JUMPDEST PUSH1 0x0 DUP2 PUSH9 0x56BC75E2D63100000 DUP7 PUSH2 0x14F6 SWAP2 SWAP1 PUSH2 0x50B2 JUMP JUMPDEST PUSH2 0x1500 SWAP2 SWAP1 PUSH2 0x5123 JUMP JUMPDEST SWAP1 POP PUSH1 0x0 PUSH7 0x2386F26FC10000 PUSH8 0xDE0B6B3A7640000 PUSH2 0x151F SWAP2 SWAP1 PUSH2 0x4EE7 JUMP JUMPDEST PUSH8 0xDE0B6B3A7640000 DUP4 PUSH2 0x1533 SWAP2 SWAP1 PUSH2 0x50B2 JUMP JUMPDEST PUSH2 0x153D SWAP2 SWAP1 PUSH2 0x5123 JUMP JUMPDEST SWAP1 POP PUSH1 0x4 PUSH1 0x0 SWAP1 SLOAD SWAP1 PUSH2 0x100 EXP SWAP1 DIV PUSH20 0xFFFFFFFFFFFFFFFFFFFFFFFFFFFFFFFFFFFFFFFF AND PUSH20 0xFFFFFFFFFFFFFFFFFFFFFFFFFFFFFFFFFFFFFFFF AND PUSH4 0xD0E30DB0 DUP3 PUSH1 0x40 MLOAD DUP3 PUSH4 0xFFFFFFFF AND PUSH1 0xE0 SHL DUP2 MSTORE PUSH1 0x4 ADD PUSH1 0x0 PUSH1 0x40 MLOAD DUP1 DUP4 SUB DUP2 DUP6 DUP9 DUP1 EXTCODESIZE ISZERO DUP1 ISZERO PUSH2 0x15A9 JUMPI PUSH1 0x0 DUP1 REVERT JUMPDEST POP GAS CALL ISZERO DUP1 ISZERO PUSH2 0x15BD JUMPI RETURNDATASIZE PUSH1 0x0 DUP1 RETURNDATACOPY RETURNDATASIZE PUSH1 0x0 REVERT JUMPDEST POP POP POP POP POP PUSH1 0x4 PUSH1 0x0 SWAP1 SLOAD SWAP1 PUSH2 0x100 EXP SWAP1 DIV PUSH20 0xFFFFFFFFFFFFFFFFFFFFFFFFFFFFFFFFFFFFFFFF AND PUSH20 0xFFFFFFFFFFFFFFFFFFFFFFFFFFFFFFFFFFFFFFFF AND PUSH4 0x95EA7B3 PUSH1 0x3 PUSH1 0x0 SWAP1 SLOAD SWAP1 PUSH2 0x100 EXP SWAP1 DIV PUSH20 0xFFFFFFFFFFFFFFFFFFFFFFFFFFFFFFFFFFFFFFFF AND DUP4 PUSH1 0x40 MLOAD DUP4 PUSH4 0xFFFFFFFF AND PUSH1 0xE0 SHL DUP2 MSTORE PUSH1 0x4 ADD PUSH2 0x1641 SWAP3 SWAP2 SWAP1 PUSH2 0x54E5 JUMP JUMPDEST PUSH1 0x20 PUSH1 0x40 MLOAD DUP1 DUP4 SUB DUP2 PUSH1 0x0 DUP8 GAS CALL ISZERO DUP1 ISZERO PUSH2 0x1660 JUMPI RETURNDATASIZE PUSH1 0x0 DUP1 RETURNDATACOPY RETURNDATASIZE PUSH1 0x0 REVERT JUMPDEST POP POP POP POP PUSH1 0x40 MLOAD RETURNDATASIZE PUSH1 0x1F NOT PUSH1 0x1F DUP3 ADD AND DUP3 ADD DUP1 PUSH1 0x40 MSTORE POP DUP2 ADD SWAP1 PUSH2 0x1684 SWAP2 SWAP1 PUSH2 0x5085 JUMP JUMPDEST POP PUSH1 0x0 PUSH1 0x40 MLOAD DUP1 PUSH1 0xE0 ADD PUSH1 0x40 MSTORE DUP1 PUSH1 0x4 PUSH1 0x0 SWAP1 SLOAD SWAP1 PUSH2 0x100 EXP SWAP1 DIV PUSH20 0xFFFFFFFFFFFFFFFFFFFFFFFFFFFFFFFFFFFFFFFF AND PUSH20 0xFFFFFFFFFFFFFFFFFFFFFFFFFFFFFFFFFFFFFFFF AND DUP2 MSTORE PUSH1 0x20 ADD PUSH1 0x2 PUSH1 0x0 SWAP1 SLOAD SWAP1 PUSH2 0x100 EXP SWAP1 DIV PUSH20 0xFFFFFFFFFFFFFFFFFFFFFFFFFFFFFFFFFFFFFFFF AND PUSH20 0xFFFFFFFFFFFFFFFFFFFFFFFFFFFFFFFFFFFFFFFF AND DUP2 MSTORE PUSH1 0x20 ADD PUSH2 0x1F4 PUSH3 0xFFFFFF AND DUP2 MSTORE PUSH1 0x20 ADD ADDRESS PUSH20 0xFFFFFFFFFFFFFFFFFFFFFFFFFFFFFFFFFFFFFFFF AND DUP2 MSTORE PUSH1 0x20 ADD DUP4 DUP2 MSTORE PUSH1 0x20 ADD DUP9 DUP2 MSTORE PUSH1 0x20 ADD PUSH1 0x0 PUSH20 0xFFFFFFFFFFFFFFFFFFFFFFFFFFFFFFFFFFFFFFFF AND DUP2 MSTORE POP SWAP1 POP PUSH1 0x0 PUSH1 0x3 PUSH1 0x0 SWAP1 SLOAD SWAP1 PUSH2 0x100 EXP SWAP1 DIV PUSH20 0xFFFFFFFFFFFFFFFFFFFFFFFFFFFFFFFFFFFFFFFF AND PUSH20 0xFFFFFFFFFFFFFFFFFFFFFFFFFFFFFFFFFFFFFFFF AND PUSH4 0x4E45AAF DUP4 PUSH1 0x40 MLOAD DUP3 PUSH4 0xFFFFFFFF AND PUSH1 0xE0 SHL DUP2 MSTORE PUSH1 0x4 ADD PUSH2 0x17BD SWAP2 SWAP1 PUSH2 0x55D8 JUMP JUMPDEST PUSH1 0x20 PUSH1 0x40 MLOAD DUP1 DUP4 SUB DUP2 PUSH1 0x0 DUP8 GAS CALL ISZERO DUP1 ISZERO PUSH2 0x17DC JUMPI RETURNDATASIZE PUSH1 0x0 DUP1 RETURNDATACOPY RETURNDATASIZE PUSH1 0x0 REVERT JUMPDEST POP POP POP POP PUSH1 0x40 MLOAD RETURNDATASIZE PUSH1 0x1F NOT PUSH1 0x1F DUP3 ADD AND DUP3 ADD DUP1 PUSH1 0x40 MSTORE POP DUP2 ADD SWAP1 PUSH2 0x1800 SWAP2 SWAP1 PUSH2 0x5169 JUMP JUMPDEST SWAP1 POP DUP8 DUP2 LT ISZERO PUSH2 0x1845 JUMPI PUSH1 0x40 MLOAD PUSH32 0x8C379A000000000000000000000000000000000000000000000000000000000 DUP2 MSTORE PUSH1 0x4 ADD PUSH2 0x183C SWAP1 PUSH2 0x563F JUMP JUMPDEST PUSH1 0x40 MLOAD DUP1 SWAP2 SUB SWAP1 REVERT JUMPDEST PUSH1 0x2 PUSH1 0x0 SWAP1 SLOAD SWAP1 PUSH2 0x100 EXP SWAP1 DIV PUSH20 0xFFFFFFFFFFFFFFFFFFFFFFFFFFFFFFFFFFFFFFFF AND PUSH20 0xFFFFFFFFFFFFFFFFFFFFFFFFFFFFFFFFFFFFFFFF AND PUSH4 0x95EA7B3 DUP8 PUSH1 0x0 ADD PUSH1 0x0 SWAP1 SLOAD SWAP1 PUSH2 0x100 EXP SWAP1 DIV PUSH20 0xFFFFFFFFFFFFFFFFFFFFFFFFFFFFFFFFFFFFFFFF AND DUP4 PUSH1 0x40 MLOAD DUP4 PUSH4 0xFFFFFFFF AND PUSH1 0xE0 SHL DUP2 MSTORE PUSH1 0x4 ADD PUSH2 0x18C6 SWAP3 SWAP2 SWAP1 PUSH2 0x54E5 JUMP JUMPDEST PUSH1 0x20 PUSH1 0x40 MLOAD DUP1 DUP4 SUB DUP2 PUSH1 0x0 DUP8 GAS CALL ISZERO DUP1 ISZERO PUSH2 0x18E5 JUMPI RETURNDATASIZE PUSH1 0x0 DUP1 RETURNDATACOPY RETURNDATASIZE PUSH1 0x0 REVERT JUMPDEST POP POP POP POP PUSH1 0x40 MLOAD RETURNDATASIZE PUSH1 0x1F NOT PUSH1 0x1F DUP3 ADD AND DUP3 ADD DUP1 PUSH1 0x40 MSTORE POP DUP2 ADD SWAP1 PUSH2 0x1909 SWAP2 SWAP1 PUSH2 0x5085 JUMP JUMPDEST POP DUP6 PUSH1 0x0 ADD PUSH1 0x0 SWAP1 SLOAD SWAP1 PUSH2 0x100 EXP SWAP1 DIV PUSH20 0xFFFFFFFFFFFFFFFFFFFFFFFFFFFFFFFFFFFFFFFF AND PUSH20 0xFFFFFFFFFFFFFFFFFFFFFFFFFFFFFFFFFFFFFFFF AND PUSH4 0xAB7B1C89 DUP3 PUSH1 0x40 MLOAD DUP3 PUSH4 0xFFFFFFFF AND PUSH1 0xE0 SHL DUP2 MSTORE PUSH1 0x4 ADD PUSH2 0x1967 SWAP2 SWAP1 PUSH2 0x48FF JUMP JUMPDEST PUSH1 0x0 PUSH1 0x40 MLOAD DUP1 DUP4 SUB DUP2 PUSH1 0x0 DUP8 DUP1 EXTCODESIZE ISZERO DUP1 ISZERO PUSH2 0x1981 JUMPI PUSH1 0x0 DUP1 REVERT JUMPDEST POP GAS CALL ISZERO DUP1 ISZERO PUSH2 0x1995 JUMPI RETURNDATASIZE PUSH1 0x0 DUP1 RETURNDATACOPY RETURNDATASIZE PUSH1 0x0 REVERT JUMPDEST POP POP POP POP PUSH32 0x40CEE90EE4799897C30CA04E5FEB6FA43DBBA9B6D084B4B257CDAFD84BA013E DUP10 DUP3 PUSH1 0x40 MLOAD PUSH2 0x19CA SWAP3 SWAP2 SWAP1 PUSH2 0x565F JUMP JUMPDEST PUSH1 0x40 MLOAD DUP1 SWAP2 SUB SWAP1 LOG1 DUP3 DUP7 PUSH1 0x8 ADD PUSH1 0x0 DUP3 DUP3 SLOAD PUSH2 0x19E6 SWAP2 SWAP1 PUSH2 0x5196 JUMP JUMPDEST SWAP3 POP POP DUP2 SWAP1 SSTORE POP PUSH1 0x0 DUP7 PUSH1 0x0 ADD PUSH1 0x0 SWAP1 SLOAD SWAP1 PUSH2 0x100 EXP SWAP1 DIV PUSH20 0xFFFFFFFFFFFFFFFFFFFFFFFFFFFFFFFFFFFFFFFF AND PUSH20 0xFFFFFFFFFFFFFFFFFFFFFFFFFFFFFFFFFFFFFFFF AND PUSH4 0xE7FA9F7D PUSH1 0x40 MLOAD DUP2 PUSH4 0xFFFFFFFF AND PUSH1 0xE0 SHL DUP2 MSTORE PUSH1 0x4 ADD PUSH1 0x20 PUSH1 0x40 MLOAD DUP1 DUP4 SUB DUP2 DUP7 GAS STATICCALL ISZERO DUP1 ISZERO PUSH2 0x1A5E JUMPI RETURNDATASIZE PUSH1 0x0 DUP1 RETURNDATACOPY RETURNDATASIZE PUSH1 0x0 REVERT JUMPDEST POP POP POP POP PUSH1 0x40 MLOAD RETURNDATASIZE PUSH1 0x1F NOT PUSH1 0x1F DUP3 ADD AND DUP3 ADD DUP1 PUSH1 0x40 MSTORE POP DUP2 ADD SWAP1 PUSH2 0x1A82 SWAP2 SWAP1 PUSH2 0x5169 JUMP JUMPDEST EQ DUP1 ISZERO PUSH2 0x1A96 JUMPI POP DUP6 PUSH1 0x1 ADD SLOAD DUP7 PUSH1 0x2 ADD SLOAD EQ JUMPDEST ISZERO PUSH2 0x1B4E JUMPI PUSH1 0x1 DUP7 PUSH1 0x5 ADD PUSH1 0x0 PUSH2 0x100 EXP DUP2 SLOAD DUP2 PUSH1 0xFF MUL NOT AND SWAP1 DUP4 ISZERO ISZERO MUL OR SWAP1 SSTORE POP DUP6 PUSH1 0x8 ADD SLOAD DUP7 PUSH1 0x7 ADD SLOAD GT ISZERO PUSH2 0x1AE9 JUMPI DUP6 PUSH1 0x8 ADD SLOAD DUP7 PUSH1 0x7 ADD SLOAD PUSH2 0x1ADC SWAP2 SWAP1 PUSH2 0x4EE7 JUMP JUMPDEST DUP7 PUSH1 0x9 ADD DUP2 SWAP1 SSTORE POP PUSH2 0x1B10 JUMP JUMPDEST PUSH1 0x0 DUP7 PUSH1 0x9 ADD DUP2 SWAP1 SSTORE POP DUP6 PUSH1 0x7 ADD SLOAD DUP7 PUSH1 0x8 ADD SLOAD PUSH2 0x1B07 SWAP2 SWAP1 PUSH2 0x4EE7 JUMP JUMPDEST DUP7 PUSH1 0xA ADD DUP2 SWAP1 SSTORE POP JUMPDEST PUSH32 0xCAED2F4DE03D601FBA728CA99751B5304B3D354DAD95B26C4629F22F9DC287BB DUP10 DUP8 PUSH1 0x9 ADD SLOAD PUSH1 0x40 MLOAD PUSH2 0x1B45 SWAP3 SWAP2 SWAP1 PUSH2 0x565F JUMP JUMPDEST PUSH1 0x40 MLOAD DUP1 SWAP2 SUB SWAP1 LOG1 JUMPDEST POP POP POP POP POP POP POP POP POP JUMP JUMPDEST PUSH7 0x2386F26FC10000 DUP2 JUMP JUMPDEST PUSH1 0x4 PUSH1 0x0 SWAP1 SLOAD SWAP1 PUSH2 0x100 EXP SWAP1 DIV PUSH20 0xFFFFFFFFFFFFFFFFFFFFFFFFFFFFFFFFFFFFFFFF AND DUP2 JUMP JUMPDEST PUSH1 0x9 PUSH1 0x20 MSTORE DUP1 PUSH1 0x0 MSTORE PUSH1 0x40 PUSH1 0x0 KECCAK256 PUSH1 0x0 SWAP2 POP SWAP1 POP SLOAD DUP2 JUMP JUMPDEST PUSH1 0x0 DUP1 PUSH1 0x0 DUP1 PUSH1 0x0 SWAP1 POP JUMPDEST PUSH1 0x0 DUP1 SLOAD SWAP1 POP DUP2 LT ISZERO PUSH2 0x1C2D JUMPI PUSH1 0x0 DUP2 DUP2 SLOAD DUP2 LT PUSH2 0x1BCE JUMPI PUSH2 0x1BCD PUSH2 0x4FF3 JUMP JUMPDEST JUMPDEST SWAP1 PUSH1 0x0 MSTORE PUSH1 0x20 PUSH1 0x0 KECCAK256 SWAP1 PUSH1 0xB MUL ADD PUSH1 0x9 ADD SLOAD DUP4 PUSH2 0x1BEB SWAP2 SWAP1 PUSH2 0x5196 JUMP JUMPDEST SWAP3 POP PUSH1 0x0 DUP2 DUP2 SLOAD DUP2 LT PUSH2 0x1C01 JUMPI PUSH2 0x1C00 PUSH2 0x4FF3 JUMP JUMPDEST JUMPDEST SWAP1 PUSH1 0x0 MSTORE PUSH1 0x20 PUSH1 0x0 KECCAK256 SWAP1 PUSH1 0xB MUL ADD PUSH1 0xA ADD SLOAD DUP3 PUSH2 0x1C1E SWAP2 SWAP1 PUSH2 0x5196 JUMP JUMPDEST SWAP2 POP DUP1 DUP1 PUSH1 0x1 ADD SWAP2 POP POP PUSH2 0x1BAD JUMP JUMPDEST POP PUSH1 0x0 DUP2 PUSH1 0x7 SLOAD DUP5 PUSH2 0x1C3F SWAP2 SWAP1 PUSH2 0x5196 JUMP JUMPDEST PUSH2 0x1C49 SWAP2 SWAP1 PUSH2 0x4EE7 JUMP JUMPDEST SWAP1 POP DUP1 SWAP4 POP POP POP POP SWAP1 JUMP JUMPDEST PUSH1 0x0 DUP1 PUSH1 0x1 PUSH1 0x0 DUP1 SLOAD SWAP1 POP PUSH2 0x1C69 SWAP2 SWAP1 PUSH2 0x4EE7 JUMP JUMPDEST DUP2 SLOAD DUP2 LT PUSH2 0x1C7A JUMPI PUSH2 0x1C79 PUSH2 0x4FF3 JUMP JUMPDEST JUMPDEST SWAP1 PUSH1 0x0 MSTORE PUSH1 0x20 PUSH1 0x0 KECCAK256 SWAP1 PUSH1 0xB MUL ADD PUSH1 0x0 ADD PUSH1 0x0 SWAP1 SLOAD SWAP1 PUSH2 0x100 EXP SWAP1 DIV PUSH20 0xFFFFFFFFFFFFFFFFFFFFFFFFFFFFFFFFFFFFFFFF AND PUSH20 0xFFFFFFFFFFFFFFFFFFFFFFFFFFFFFFFFFFFFFFFF AND PUSH4 0xAD044F49 PUSH1 0x40 MLOAD DUP2 PUSH4 0xFFFFFFFF AND PUSH1 0xE0 SHL DUP2 MSTORE PUSH1 0x4 ADD PUSH1 0x20 PUSH1 0x40 MLOAD DUP1 DUP4 SUB DUP2 DUP7 GAS STATICCALL ISZERO DUP1 ISZERO PUSH2 0x1CF6 JUMPI RETURNDATASIZE PUSH1 0x0 DUP1 RETURNDATACOPY RETURNDATASIZE PUSH1 0x0 REVERT JUMPDEST POP POP POP POP PUSH1 0x40 MLOAD RETURNDATASIZE PUSH1 0x1F NOT PUSH1 0x1F DUP3 ADD AND DUP3 ADD DUP1 PUSH1 0x40 MSTORE POP DUP2 ADD SWAP1 PUSH2 0x1D1A SWAP2 SWAP1 PUSH2 0x5169 JUMP JUMPDEST PUSH1 0x0 PUSH1 0x1 PUSH1 0x0 DUP1 SLOAD SWAP1 POP PUSH2 0x1D2E SWAP2 SWAP1 PUSH2 0x4EE7 JUMP JUMPDEST DUP2 SLOAD DUP2 LT PUSH2 0x1D3F JUMPI PUSH2 0x1D3E PUSH2 0x4FF3 JUMP JUMPDEST JUMPDEST SWAP1 PUSH1 0x0 MSTORE PUSH1 0x20 PUSH1 0x0 KECCAK256 SWAP1 PUSH1 0xB MUL ADD PUSH1 0x0 ADD PUSH1 0x0 SWAP1 SLOAD SWAP1 PUSH2 0x100 EXP SWAP1 DIV PUSH20 0xFFFFFFFFFFFFFFFFFFFFFFFFFFFFFFFFFFFFFFFF AND PUSH20 0xFFFFFFFFFFFFFFFFFFFFFFFFFFFFFFFFFFFFFFFF AND PUSH4 0x6F0A7F71 PUSH1 0x40 MLOAD DUP2 PUSH4 0xFFFFFFFF AND PUSH1 0xE0 SHL DUP2 MSTORE PUSH1 0x4 ADD PUSH1 0x20 PUSH1 0x40 MLOAD DUP1 DUP4 SUB DUP2 DUP7 GAS STATICCALL ISZERO DUP1 ISZERO PUSH2 0x1DBB JUMPI RETURNDATASIZE PUSH1 0x0 DUP1 RETURNDATACOPY RETURNDATASIZE PUSH1 0x0 REVERT JUMPDEST POP POP POP POP PUSH1 0x40 MLOAD RETURNDATASIZE PUSH1 0x1F NOT PUSH1 0x1F DUP3 ADD AND DUP3 ADD DUP1 PUSH1 0x40 MSTORE POP DUP2 ADD SWAP1 PUSH2 0x1DDF SWAP2 SWAP1 PUSH2 0x5169 JUMP JUMPDEST PUSH2 0x1DE9 SWAP2 SWAP1 PUSH2 0x4EE7 JUMP JUMPDEST EQ PUSH2 0x1DF3 JUMPI PUSH1 0x0 DUP1 REVERT JUMPDEST PUSH1 0x0 DUP1 PUSH1 0x0 DUP1 PUSH2 0x1E01 PUSH2 0x1BA2 JUMP JUMPDEST SWAP1 POP PUSH1 0xA PUSH1 0xF PUSH2 0x1E0F PUSH2 0xC21 JUMP JUMPDEST DUP4 PUSH5 0x2540BE400 PUSH2 0x1E1E PUSH2 0x31D6 JUMP JUMPDEST PUSH2 0x1E28 SWAP2 SWAP1 PUSH2 0x50B2 JUMP JUMPDEST PUSH2 0x1E32 SWAP2 SWAP1 PUSH2 0x50B2 JUMP JUMPDEST PUSH2 0x1E3C SWAP2 SWAP1 PUSH2 0x5123 JUMP JUMPDEST PUSH2 0x1E46 SWAP2 SWAP1 PUSH2 0x50B2 JUMP JUMPDEST PUSH2 0x1E50 SWAP2 SWAP1 PUSH2 0x5123 JUMP JUMPDEST SWAP2 POP PUSH1 0xA PUSH9 0x56BC75E2D63100000 SELFBALANCE PUSH2 0x1E67 PUSH2 0x31D6 JUMP JUMPDEST PUSH2 0x1E71 SWAP2 SWAP1 PUSH2 0x50B2 JUMP JUMPDEST PUSH2 0x1E7B SWAP2 SWAP1 PUSH2 0x5123 JUMP JUMPDEST PUSH2 0x1E85 SWAP2 SWAP1 PUSH2 0x5123 JUMP JUMPDEST SWAP4 POP PUSH6 0x9184E72A000 DUP5 LT PUSH2 0x1E9A JUMPI DUP4 PUSH2 0x1EA2 JUMP JUMPDEST PUSH6 0x9184E72A000 JUMPDEST SWAP4 POP PUSH1 0x0 PUSH1 0x1 PUSH1 0x0 DUP1 SLOAD SWAP1 POP PUSH2 0x1EB8 SWAP2 SWAP1 PUSH2 0x4EE7 JUMP JUMPDEST DUP2 SLOAD DUP2 LT PUSH2 0x1EC9 JUMPI PUSH2 0x1EC8 PUSH2 0x4FF3 JUMP JUMPDEST JUMPDEST SWAP1 PUSH1 0x0 MSTORE PUSH1 0x20 PUSH1 0x0 KECCAK256 SWAP1 PUSH1 0xB MUL ADD PUSH1 0x0 ADD PUSH1 0x0 SWAP1 SLOAD SWAP1 PUSH2 0x100 EXP SWAP1 DIV PUSH20 0xFFFFFFFFFFFFFFFFFFFFFFFFFFFFFFFFFFFFFFFF AND PUSH20 0xFFFFFFFFFFFFFFFFFFFFFFFFFFFFFFFFFFFFFFFF AND PUSH4 0x1A9703DA PUSH1 0x40 MLOAD DUP2 PUSH4 0xFFFFFFFF AND PUSH1 0xE0 SHL DUP2 MSTORE PUSH1 0x4 ADD PUSH1 0x20 PUSH1 0x40 MLOAD DUP1 DUP4 SUB DUP2 DUP7 GAS STATICCALL ISZERO DUP1 ISZERO PUSH2 0x1F45 JUMPI RETURNDATASIZE PUSH1 0x0 DUP1 RETURNDATACOPY RETURNDATASIZE PUSH1 0x0 REVERT JUMPDEST POP POP POP POP PUSH1 0x40 MLOAD RETURNDATASIZE PUSH1 0x1F NOT PUSH1 0x1F DUP3 ADD AND DUP3 ADD DUP1 PUSH1 0x40 MSTORE POP DUP2 ADD SWAP1 PUSH2 0x1F69 SWAP2 SWAP1 PUSH2 0x5169 JUMP JUMPDEST SWAP3 POP PUSH1 0x0 PUSH1 0x1 PUSH1 0x0 SWAP1 SLOAD SWAP1 PUSH2 0x100 EXP SWAP1 DIV PUSH20 0xFFFFFFFFFFFFFFFFFFFFFFFFFFFFFFFFFFFFFFFF AND PUSH20 0xFFFFFFFFFFFFFFFFFFFFFFFFFFFFFFFFFFFFFFFF AND PUSH4 0x1638711B PUSH1 0x2 PUSH1 0x0 SWAP1 SLOAD SWAP1 PUSH2 0x100 EXP SWAP1 DIV PUSH20 0xFFFFFFFFFFFFFFFFFFFFFFFFFFFFFFFFFFFFFFFF AND ADDRESS DUP9 DUP9 PUSH1 0x0 ADDRESS PUSH1 0x0 PUSH1 0x40 MLOAD DUP9 PUSH4 0xFFFFFFFF AND PUSH1 0xE0 SHL DUP2 MSTORE PUSH1 0x4 ADD PUSH2 0x1FF8 SWAP8 SWAP7 SWAP6 SWAP5 SWAP4 SWAP3 SWAP2 SWAP1 PUSH2 0x56C3 JUMP JUMPDEST PUSH1 0x20 PUSH1 0x40 MLOAD DUP1 DUP4 SUB DUP2 PUSH1 0x0 DUP8 GAS CALL ISZERO DUP1 ISZERO PUSH2 0x2017 JUMPI RETURNDATASIZE PUSH1 0x0 DUP1 RETURNDATACOPY RETURNDATASIZE PUSH1 0x0 REVERT JUMPDEST POP POP POP POP PUSH1 0x40 MLOAD RETURNDATASIZE PUSH1 0x1F NOT PUSH1 0x1F DUP3 ADD AND DUP3 ADD DUP1 PUSH1 0x40 MSTORE POP DUP2 ADD SWAP1 PUSH2 0x203B SWAP2 SWAP1 PUSH2 0x4E8B JUMP JUMPDEST SWAP1 POP PUSH1 0x0 PUSH1 0x40 MLOAD DUP1 PUSH2 0x160 ADD PUSH1 0x40 MSTORE DUP1 DUP4 PUSH20 0xFFFFFFFFFFFFFFFFFFFFFFFFFFFFFFFFFFFFFFFF AND DUP2 MSTORE PUSH1 0x20 ADD DUP8 DUP2 MSTORE PUSH1 0x20 ADD PUSH1 0x0 DUP2 MSTORE PUSH1 0x20 ADD PUSH1 0x0 ISZERO ISZERO DUP2 MSTORE PUSH1 0x20 ADD PUSH1 0x0 DUP2 MSTORE PUSH1 0x20 ADD PUSH1 0x0 ISZERO ISZERO DUP2 MSTORE PUSH1 0x20 ADD DUP6 DUP2 MSTORE PUSH1 0x20 ADD PUSH1 0x0 DUP2 MSTORE PUSH1 0x20 ADD PUSH1 0x0 DUP2 MSTORE PUSH1 0x20 ADD PUSH1 0x0 DUP2 MSTORE PUSH1 0x20 ADD PUSH1 0x0 DUP2 MSTORE POP SWAP1 DUP1 PUSH1 0x1 DUP2 SLOAD ADD DUP1 DUP3 SSTORE DUP1 SWAP2 POP POP PUSH1 0x1 SWAP1 SUB SWAP1 PUSH1 0x0 MSTORE PUSH1 0x20 PUSH1 0x0 KECCAK256 SWAP1 PUSH1 0xB MUL ADD PUSH1 0x0 SWAP1 SWAP2 SWAP1 SWAP2 SWAP1 SWAP2 POP PUSH1 0x0 DUP3 ADD MLOAD DUP2 PUSH1 0x0 ADD PUSH1 0x0 PUSH2 0x100 EXP DUP2 SLOAD DUP2 PUSH20 0xFFFFFFFFFFFFFFFFFFFFFFFFFFFFFFFFFFFFFFFF MUL NOT AND SWAP1 DUP4 PUSH20 0xFFFFFFFFFFFFFFFFFFFFFFFFFFFFFFFFFFFFFFFF AND MUL OR SWAP1 SSTORE POP PUSH1 0x20 DUP3 ADD MLOAD DUP2 PUSH1 0x1 ADD SSTORE PUSH1 0x40 DUP3 ADD MLOAD DUP2 PUSH1 0x2 ADD SSTORE PUSH1 0x60 DUP3 ADD MLOAD DUP2 PUSH1 0x3 ADD PUSH1 0x0 PUSH2 0x100 EXP DUP2 SLOAD DUP2 PUSH1 0xFF MUL NOT AND SWAP1 DUP4 ISZERO ISZERO MUL OR SWAP1 SSTORE POP PUSH1 0x80 DUP3 ADD MLOAD DUP2 PUSH1 0x4 ADD SSTORE PUSH1 0xA0 DUP3 ADD MLOAD DUP2 PUSH1 0x5 ADD PUSH1 0x0 PUSH2 0x100 EXP DUP2 SLOAD DUP2 PUSH1 0xFF MUL NOT AND SWAP1 DUP4 ISZERO ISZERO MUL OR SWAP1 SSTORE POP PUSH1 0xC0 DUP3 ADD MLOAD DUP2 PUSH1 0x6 ADD SSTORE PUSH1 0xE0 DUP3 ADD MLOAD DUP2 PUSH1 0x7 ADD SSTORE PUSH2 0x100 DUP3 ADD MLOAD DUP2 PUSH1 0x8 ADD SSTORE PUSH2 0x120 DUP3 ADD MLOAD DUP2 PUSH1 0x9 ADD SSTORE PUSH2 0x140 DUP3 ADD MLOAD DUP2 PUSH1 0xA ADD SSTORE POP POP DUP1 PUSH20 0xFFFFFFFFFFFFFFFFFFFFFFFFFFFFFFFFFFFFFFFF AND PUSH32 0x648E161F301B32079CBFF6F2EECB4B7BC8D0EB9E67218201EB3703BDC232A29F PUSH1 0x1 PUSH1 0x0 DUP1 SLOAD SWAP1 POP PUSH2 0x21FC SWAP2 SWAP1 PUSH2 0x4EE7 JUMP JUMPDEST PUSH1 0x40 MLOAD PUSH2 0x2209 SWAP2 SWAP1 PUSH2 0x48FF JUMP JUMPDEST PUSH1 0x40 MLOAD DUP1 SWAP2 SUB SWAP1 LOG2 POP POP POP POP POP JUMP JUMPDEST PUSH1 0x2 DUP1 PUSH1 0x8 PUSH1 0x0 CALLER PUSH20 0xFFFFFFFFFFFFFFFFFFFFFFFFFFFFFFFFFFFFFFFF AND PUSH20 0xFFFFFFFFFFFFFFFFFFFFFFFFFFFFFFFFFFFFFFFF AND DUP2 MSTORE PUSH1 0x20 ADD SWAP1 DUP2 MSTORE PUSH1 0x20 ADD PUSH1 0x0 KECCAK256 SLOAD EQ PUSH2 0x229B JUMPI PUSH1 0x40 MLOAD PUSH32 0x8C379A000000000000000000000000000000000000000000000000000000000 DUP2 MSTORE PUSH1 0x4 ADD PUSH2 0x2292 SWAP1 PUSH2 0x4D27 JUMP JUMPDEST PUSH1 0x40 MLOAD DUP1 SWAP2 SUB SWAP1 REVERT JUMPDEST PUSH1 0x0 DUP1 SLOAD SWAP1 POP DUP4 LT PUSH2 0x22E2 JUMPI PUSH1 0x40 MLOAD PUSH32 0x8C379A000000000000000000000000000000000000000000000000000000000 DUP2 MSTORE PUSH1 0x4 ADD PUSH2 0x22D9 SWAP1 PUSH2 0x4F67 JUMP JUMPDEST PUSH1 0x40 MLOAD DUP1 SWAP2 SUB SWAP1 REVERT JUMPDEST PUSH1 0x0 DUP1 DUP5 DUP2 SLOAD DUP2 LT PUSH2 0x22F7 JUMPI PUSH2 0x22F6 PUSH2 0x4FF3 JUMP JUMPDEST JUMPDEST SWAP1 PUSH1 0x0 MSTORE PUSH1 0x20 PUSH1 0x0 KECCAK256 SWAP1 PUSH1 0xB MUL ADD SWAP1 POP DUP1 PUSH1 0x0 ADD PUSH1 0x0 SWAP1 SLOAD SWAP1 PUSH2 0x100 EXP SWAP1 DIV PUSH20 0xFFFFFFFFFFFFFFFFFFFFFFFFFFFFFFFFFFFFFFFF AND PUSH20 0xFFFFFFFFFFFFFFFFFFFFFFFFFFFFFFFFFFFFFFFF AND PUSH4 0x38F5ED6 DUP5 PUSH1 0x40 MLOAD DUP3 PUSH4 0xFFFFFFFF AND PUSH1 0xE0 SHL DUP2 MSTORE PUSH1 0x4 ADD PUSH2 0x2364 SWAP2 SWAP1 PUSH2 0x48FF JUMP JUMPDEST PUSH1 0x0 PUSH1 0x40 MLOAD DUP1 DUP4 SUB DUP2 PUSH1 0x0 DUP8 DUP1 EXTCODESIZE ISZERO DUP1 ISZERO PUSH2 0x237E JUMPI PUSH1 0x0 DUP1 REVERT JUMPDEST POP GAS CALL ISZERO DUP1 ISZERO PUSH2 0x2392 JUMPI RETURNDATASIZE PUSH1 0x0 DUP1 RETURNDATACOPY RETURNDATASIZE PUSH1 0x0 REVERT JUMPDEST POP POP POP POP DUP3 DUP2 PUSH1 0x2 ADD PUSH1 0x0 DUP3 DUP3 SLOAD PUSH2 0x23AA SWAP2 SWAP1 PUSH2 0x5196 JUMP JUMPDEST SWAP3 POP POP DUP2 SWAP1 SSTORE POP DUP1 PUSH1 0x3 ADD PUSH1 0x0 SWAP1 SLOAD SWAP1 PUSH2 0x100 EXP SWAP1 DIV PUSH1 0xFF AND PUSH2 0x23EE JUMPI PUSH1 0x1 DUP2 PUSH1 0x3 ADD PUSH1 0x0 PUSH2 0x100 EXP DUP2 SLOAD DUP2 PUSH1 0xFF MUL NOT AND SWAP1 DUP4 ISZERO ISZERO MUL OR SWAP1 SSTORE POP TIMESTAMP DUP2 PUSH1 0x4 ADD DUP2 SWAP1 SSTORE POP JUMPDEST PUSH32 0xD1EDBDD34FEE983E251C22A8F20C29C0D667E6A7E6019A2525291314611C61E6 DUP4 TIMESTAMP DUP7 PUSH1 0x40 MLOAD PUSH2 0x2421 SWAP4 SWAP3 SWAP2 SWAP1 PUSH2 0x53D6 JUMP JUMPDEST PUSH1 0x40 MLOAD DUP1 SWAP2 SUB SWAP1 LOG1 POP POP POP POP JUMP JUMPDEST PUSH1 0x0 DUP2 SUB PUSH2 0x2C4C JUMPI DUP2 PUSH1 0x64 PUSH1 0x0 DUP6 DUP2 SLOAD DUP2 LT PUSH2 0x244E JUMPI PUSH2 0x244D PUSH2 0x4FF3 JUMP JUMPDEST JUMPDEST SWAP1 PUSH1 0x0 MSTORE PUSH1 0x20 PUSH1 0x0 KECCAK256 SWAP1 PUSH1 0xB MUL ADD PUSH1 0x0 ADD PUSH1 0x0 SWAP1 SLOAD SWAP1 PUSH2 0x100 EXP SWAP1 DIV PUSH20 0xFFFFFFFFFFFFFFFFFFFFFFFFFFFFFFFFFFFFFFFF AND PUSH20 0xFFFFFFFFFFFFFFFFFFFFFFFFFFFFFFFFFFFFFFFF AND PUSH4 0xAD044F49 PUSH1 0x40 MLOAD DUP2 PUSH4 0xFFFFFFFF AND PUSH1 0xE0 SHL DUP2 MSTORE PUSH1 0x4 ADD PUSH1 0x20 PUSH1 0x40 MLOAD DUP1 DUP4 SUB DUP2 DUP7 GAS STATICCALL ISZERO DUP1 ISZERO PUSH2 0x24CA JUMPI RETURNDATASIZE PUSH1 0x0 DUP1 RETURNDATACOPY RETURNDATASIZE PUSH1 0x0 REVERT JUMPDEST POP POP POP POP PUSH1 0x40 MLOAD RETURNDATASIZE PUSH1 0x1F NOT PUSH1 0x1F DUP3 ADD AND DUP3 ADD DUP1 PUSH1 0x40 MSTORE POP DUP2 ADD SWAP1 PUSH2 0x24EE SWAP2 SWAP1 PUSH2 0x5169 JUMP JUMPDEST PUSH2 0x24F8 SWAP2 SWAP1 PUSH2 0x5123 JUMP JUMPDEST EQ PUSH2 0x2538 JUMPI PUSH1 0x40 MLOAD PUSH32 0x8C379A000000000000000000000000000000000000000000000000000000000 DUP2 MSTORE PUSH1 0x4 ADD PUSH2 0x252F SWAP1 PUSH2 0x57A6 JUMP JUMPDEST PUSH1 0x40 MLOAD DUP1 SWAP2 SUB SWAP1 REVERT JUMPDEST PUSH1 0x0 DUP1 DUP5 DUP2 SLOAD DUP2 LT PUSH2 0x254D JUMPI PUSH2 0x254C PUSH2 0x4FF3 JUMP JUMPDEST JUMPDEST SWAP1 PUSH1 0x0 MSTORE PUSH1 0x20 PUSH1 0x0 KECCAK256 SWAP1 PUSH1 0xB MUL ADD PUSH1 0x0 ADD PUSH1 0x0 SWAP1 SLOAD SWAP1 PUSH2 0x100 EXP SWAP1 DIV PUSH20 0xFFFFFFFFFFFFFFFFFFFFFFFFFFFFFFFFFFFFFFFF AND PUSH20 0xFFFFFFFFFFFFFFFFFFFFFFFFFFFFFFFFFFFFFFFF AND PUSH4 0xE7FA9F7D PUSH1 0x40 MLOAD DUP2 PUSH4 0xFFFFFFFF AND PUSH1 0xE0 SHL DUP2 MSTORE PUSH1 0x4 ADD PUSH1 0x20 PUSH1 0x40 MLOAD DUP1 DUP4 SUB DUP2 DUP7 GAS STATICCALL ISZERO DUP1 ISZERO PUSH2 0x25C9 JUMPI RETURNDATASIZE PUSH1 0x0 DUP1 RETURNDATACOPY RETURNDATASIZE PUSH1 0x0 REVERT JUMPDEST POP POP POP POP PUSH1 0x40 MLOAD RETURNDATASIZE PUSH1 0x1F NOT PUSH1 0x1F DUP3 ADD AND DUP3 ADD DUP1 PUSH1 0x40 MSTORE POP DUP2 ADD SWAP1 PUSH2 0x25ED SWAP2 SWAP1 PUSH2 0x5169 JUMP JUMPDEST GT PUSH2 0x262D JUMPI PUSH1 0x40 MLOAD PUSH32 0x8C379A000000000000000000000000000000000000000000000000000000000 DUP2 MSTORE PUSH1 0x4 ADD PUSH2 0x2624 SWAP1 PUSH2 0x5812 JUMP JUMPDEST PUSH1 0x40 MLOAD DUP1 SWAP2 SUB SWAP1 REVERT JUMPDEST TIMESTAMP PUSH3 0x3F480 PUSH1 0x9 PUSH1 0x0 DUP7 DUP2 MSTORE PUSH1 0x20 ADD SWAP1 DUP2 MSTORE PUSH1 0x20 ADD PUSH1 0x0 KECCAK256 SLOAD PUSH2 0x2650 SWAP2 SWAP1 PUSH2 0x5196 JUMP JUMPDEST GT ISZERO PUSH2 0x265B JUMPI PUSH1 0x0 DUP1 REVERT JUMPDEST TIMESTAMP PUSH1 0x9 PUSH1 0x0 DUP6 DUP2 MSTORE PUSH1 0x20 ADD SWAP1 DUP2 MSTORE PUSH1 0x20 ADD PUSH1 0x0 KECCAK256 DUP2 SWAP1 SSTORE POP PUSH1 0x2 PUSH1 0x0 SWAP1 SLOAD SWAP1 PUSH2 0x100 EXP SWAP1 DIV PUSH20 0xFFFFFFFFFFFFFFFFFFFFFFFFFFFFFFFFFFFFFFFF AND PUSH20 0xFFFFFFFFFFFFFFFFFFFFFFFFFFFFFFFFFFFFFFFF AND PUSH4 0x23B872DD CALLER ADDRESS DUP6 PUSH1 0x40 MLOAD DUP5 PUSH4 0xFFFFFFFF AND PUSH1 0xE0 SHL DUP2 MSTORE PUSH1 0x4 ADD PUSH2 0x26D2 SWAP4 SWAP3 SWAP2 SWAP1 PUSH2 0x5022 JUMP JUMPDEST PUSH1 0x20 PUSH1 0x40 MLOAD DUP1 DUP4 SUB DUP2 PUSH1 0x0 DUP8 GAS CALL ISZERO DUP1 ISZERO PUSH2 0x26F1 JUMPI RETURNDATASIZE PUSH1 0x0 DUP1 RETURNDATACOPY RETURNDATASIZE PUSH1 0x0 REVERT JUMPDEST POP POP POP POP PUSH1 0x40 MLOAD RETURNDATASIZE PUSH1 0x1F NOT PUSH1 0x1F DUP3 ADD AND DUP3 ADD DUP1 PUSH1 0x40 MSTORE POP DUP2 ADD SWAP1 PUSH2 0x2715 SWAP2 SWAP1 PUSH2 0x5085 JUMP JUMPDEST POP PUSH1 0x0 DUP4 DUP2 SLOAD DUP2 LT PUSH2 0x272A JUMPI PUSH2 0x2729 PUSH2 0x4FF3 JUMP JUMPDEST JUMPDEST SWAP1 PUSH1 0x0 MSTORE PUSH1 0x20 PUSH1 0x0 KECCAK256 SWAP1 PUSH1 0xB MUL ADD PUSH1 0x0 ADD PUSH1 0x0 SWAP1 SLOAD SWAP1 PUSH2 0x100 EXP SWAP1 DIV PUSH20 0xFFFFFFFFFFFFFFFFFFFFFFFFFFFFFFFFFFFFFFFF AND PUSH20 0xFFFFFFFFFFFFFFFFFFFFFFFFFFFFFFFFFFFFFFFF AND PUSH4 0xAB7B1C89 DUP4 PUSH1 0x40 MLOAD DUP3 PUSH4 0xFFFFFFFF AND PUSH1 0xE0 SHL DUP2 MSTORE PUSH1 0x4 ADD PUSH2 0x2794 SWAP2 SWAP1 PUSH2 0x48FF JUMP JUMPDEST PUSH1 0x0 PUSH1 0x40 MLOAD DUP1 DUP4 SUB DUP2 PUSH1 0x0 DUP8 DUP1 EXTCODESIZE ISZERO DUP1 ISZERO PUSH2 0x27AE JUMPI PUSH1 0x0 DUP1 REVERT JUMPDEST POP GAS CALL ISZERO DUP1 ISZERO PUSH2 0x27C2 JUMPI RETURNDATASIZE PUSH1 0x0 DUP1 RETURNDATACOPY RETURNDATASIZE PUSH1 0x0 REVERT JUMPDEST POP POP POP POP CALLER PUSH20 0xFFFFFFFFFFFFFFFFFFFFFFFFFFFFFFFFFFFFFFFF AND PUSH2 0x8FC PUSH2 0x3E8 PUSH2 0x3ED PUSH5 0x2540BE400 PUSH2 0x27F4 PUSH2 0x31D6 JUMP JUMPDEST PUSH2 0x27FE SWAP2 SWAP1 PUSH2 0x50B2 JUMP JUMPDEST PUSH5 0xE8D4A51000 DUP8 PUSH2 0x280F SWAP2 SWAP1 PUSH2 0x50B2 JUMP JUMPDEST PUSH2 0x2819 SWAP2 SWAP1 PUSH2 0x5123 JUMP JUMPDEST PUSH2 0x2823 SWAP2 SWAP1 PUSH2 0x50B2 JUMP JUMPDEST PUSH2 0x282D SWAP2 SWAP1 PUSH2 0x5123 JUMP JUMPDEST SWAP1 DUP2 ISZERO MUL SWAP1 PUSH1 0x40 MLOAD PUSH1 0x0 PUSH1 0x40 MLOAD DUP1 DUP4 SUB DUP2 DUP6 DUP9 DUP9 CALL SWAP4 POP POP POP POP ISZERO DUP1 ISZERO PUSH2 0x2858 JUMPI RETURNDATASIZE PUSH1 0x0 DUP1 RETURNDATACOPY RETURNDATASIZE PUSH1 0x0 REVERT JUMPDEST POP PUSH2 0x3E8 PUSH2 0x3ED PUSH5 0x2540BE400 PUSH2 0x286D PUSH2 0x31D6 JUMP JUMPDEST PUSH2 0x2877 SWAP2 SWAP1 PUSH2 0x50B2 JUMP JUMPDEST PUSH5 0xE8D4A51000 DUP6 PUSH2 0x2888 SWAP2 SWAP1 PUSH2 0x50B2 JUMP JUMPDEST PUSH2 0x2892 SWAP2 SWAP1 PUSH2 0x5123 JUMP JUMPDEST PUSH2 0x289C SWAP2 SWAP1 PUSH2 0x50B2 JUMP JUMPDEST PUSH2 0x28A6 SWAP2 SWAP1 PUSH2 0x5123 JUMP JUMPDEST PUSH1 0x0 DUP5 DUP2 SLOAD DUP2 LT PUSH2 0x28BA JUMPI PUSH2 0x28B9 PUSH2 0x4FF3 JUMP JUMPDEST JUMPDEST SWAP1 PUSH1 0x0 MSTORE PUSH1 0x20 PUSH1 0x0 KECCAK256 SWAP1 PUSH1 0xB MUL ADD PUSH1 0x8 ADD PUSH1 0x0 DUP3 DUP3 SLOAD PUSH2 0x28DA SWAP2 SWAP1 PUSH2 0x5196 JUMP JUMPDEST SWAP3 POP POP DUP2 SWAP1 SSTORE POP PUSH32 0x40CEE90EE4799897C30CA04E5FEB6FA43DBBA9B6D084B4B257CDAFD84BA013E DUP4 DUP4 PUSH1 0x40 MLOAD PUSH2 0x2912 SWAP3 SWAP2 SWAP1 PUSH2 0x565F JUMP JUMPDEST PUSH1 0x40 MLOAD DUP1 SWAP2 SUB SWAP1 LOG1 PUSH1 0x0 DUP1 DUP5 DUP2 SLOAD DUP2 LT PUSH2 0x292F JUMPI PUSH2 0x292E PUSH2 0x4FF3 JUMP JUMPDEST JUMPDEST SWAP1 PUSH1 0x0 MSTORE PUSH1 0x20 PUSH1 0x0 KECCAK256 SWAP1 PUSH1 0xB MUL ADD PUSH1 0x0 ADD PUSH1 0x0 SWAP1 SLOAD SWAP1 PUSH2 0x100 EXP SWAP1 DIV PUSH20 0xFFFFFFFFFFFFFFFFFFFFFFFFFFFFFFFFFFFFFFFF AND PUSH20 0xFFFFFFFFFFFFFFFFFFFFFFFFFFFFFFFFFFFFFFFF AND PUSH4 0xE7FA9F7D PUSH1 0x40 MLOAD DUP2 PUSH4 0xFFFFFFFF AND PUSH1 0xE0 SHL DUP2 MSTORE PUSH1 0x4 ADD PUSH1 0x20 PUSH1 0x40 MLOAD DUP1 DUP4 SUB DUP2 DUP7 GAS STATICCALL ISZERO DUP1 ISZERO PUSH2 0x29AB JUMPI RETURNDATASIZE PUSH1 0x0 DUP1 RETURNDATACOPY RETURNDATASIZE PUSH1 0x0 REVERT JUMPDEST POP POP POP POP PUSH1 0x40 MLOAD RETURNDATASIZE PUSH1 0x1F NOT PUSH1 0x1F DUP3 ADD AND DUP3 ADD DUP1 PUSH1 0x40 MSTORE POP DUP2 ADD SWAP1 PUSH2 0x29CF SWAP2 SWAP1 PUSH2 0x5169 JUMP JUMPDEST EQ DUP1 ISZERO PUSH2 0x2A25 JUMPI POP PUSH1 0x0 DUP4 DUP2 SLOAD DUP2 LT PUSH2 0x29EB JUMPI PUSH2 0x29EA PUSH2 0x4FF3 JUMP JUMPDEST JUMPDEST SWAP1 PUSH1 0x0 MSTORE PUSH1 0x20 PUSH1 0x0 KECCAK256 SWAP1 PUSH1 0xB MUL ADD PUSH1 0x1 ADD SLOAD PUSH1 0x0 DUP5 DUP2 SLOAD DUP2 LT PUSH2 0x2A11 JUMPI PUSH2 0x2A10 PUSH2 0x4FF3 JUMP JUMPDEST JUMPDEST SWAP1 PUSH1 0x0 MSTORE PUSH1 0x20 PUSH1 0x0 KECCAK256 SWAP1 PUSH1 0xB MUL ADD PUSH1 0x2 ADD SLOAD EQ JUMPDEST ISZERO PUSH2 0x2C47 JUMPI PUSH1 0x1 PUSH1 0x0 DUP5 DUP2 SLOAD DUP2 LT PUSH2 0x2A40 JUMPI PUSH2 0x2A3F PUSH2 0x4FF3 JUMP JUMPDEST JUMPDEST SWAP1 PUSH1 0x0 MSTORE PUSH1 0x20 PUSH1 0x0 KECCAK256 SWAP1 PUSH1 0xB MUL ADD PUSH1 0x5 ADD PUSH1 0x0 PUSH2 0x100 EXP DUP2 SLOAD DUP2 PUSH1 0xFF MUL NOT AND SWAP1 DUP4 ISZERO ISZERO MUL OR SWAP1 SSTORE POP PUSH1 0x0 DUP4 DUP2 SLOAD DUP2 LT PUSH2 0x2A7C JUMPI PUSH2 0x2A7B PUSH2 0x4FF3 JUMP JUMPDEST JUMPDEST SWAP1 PUSH1 0x0 MSTORE PUSH1 0x20 PUSH1 0x0 KECCAK256 SWAP1 PUSH1 0xB MUL ADD PUSH1 0x8 ADD SLOAD PUSH1 0x0 DUP5 DUP2 SLOAD DUP2 LT PUSH2 0x2AA2 JUMPI PUSH2 0x2AA1 PUSH2 0x4FF3 JUMP JUMPDEST JUMPDEST SWAP1 PUSH1 0x0 MSTORE PUSH1 0x20 PUSH1 0x0 KECCAK256 SWAP1 PUSH1 0xB MUL ADD PUSH1 0x7 ADD SLOAD GT ISZERO PUSH2 0x2B3E JUMPI PUSH1 0x0 DUP4 DUP2 SLOAD DUP2 LT PUSH2 0x2ACE JUMPI PUSH2 0x2ACD PUSH2 0x4FF3 JUMP JUMPDEST JUMPDEST SWAP1 PUSH1 0x0 MSTORE PUSH1 0x20 PUSH1 0x0 KECCAK256 SWAP1 PUSH1 0xB MUL ADD PUSH1 0x8 ADD SLOAD PUSH1 0x0 DUP5 DUP2 SLOAD DUP2 LT PUSH2 0x2AF4 JUMPI PUSH2 0x2AF3 PUSH2 0x4FF3 JUMP JUMPDEST JUMPDEST SWAP1 PUSH1 0x0 MSTORE PUSH1 0x20 PUSH1 0x0 KECCAK256 SWAP1 PUSH1 0xB MUL ADD PUSH1 0x7 ADD SLOAD PUSH2 0x2B10 SWAP2 SWAP1 PUSH2 0x4EE7 JUMP JUMPDEST PUSH1 0x0 DUP5 DUP2 SLOAD DUP2 LT PUSH2 0x2B24 JUMPI PUSH2 0x2B23 PUSH2 0x4FF3 JUMP JUMPDEST JUMPDEST SWAP1 PUSH1 0x0 MSTORE PUSH1 0x20 PUSH1 0x0 KECCAK256 SWAP1 PUSH1 0xB MUL ADD PUSH1 0x9 ADD DUP2 SWAP1 SSTORE POP PUSH2 0x2BE8 JUMP JUMPDEST PUSH1 0x0 DUP1 DUP5 DUP2 SLOAD DUP2 LT PUSH2 0x2B53 JUMPI PUSH2 0x2B52 PUSH2 0x4FF3 JUMP JUMPDEST JUMPDEST SWAP1 PUSH1 0x0 MSTORE PUSH1 0x20 PUSH1 0x0 KECCAK256 SWAP1 PUSH1 0xB MUL ADD PUSH1 0x9 ADD DUP2 SWAP1 SSTORE POP PUSH1 0x0 DUP4 DUP2 SLOAD DUP2 LT PUSH2 0x2B7C JUMPI PUSH2 0x2B7B PUSH2 0x4FF3 JUMP JUMPDEST JUMPDEST SWAP1 PUSH1 0x0 MSTORE PUSH1 0x20 PUSH1 0x0 KECCAK256 SWAP1 PUSH1 0xB MUL ADD PUSH1 0x7 ADD SLOAD PUSH1 0x0 DUP5 DUP2 SLOAD DUP2 LT PUSH2 0x2BA2 JUMPI PUSH2 0x2BA1 PUSH2 0x4FF3 JUMP JUMPDEST JUMPDEST SWAP1 PUSH1 0x0 MSTORE PUSH1 0x20 PUSH1 0x0 KECCAK256 SWAP1 PUSH1 0xB MUL ADD PUSH1 0x8 ADD SLOAD PUSH2 0x2BBE SWAP2 SWAP1 PUSH2 0x4EE7 JUMP JUMPDEST PUSH1 0x0 DUP5 DUP2 SLOAD DUP2 LT PUSH2 0x2BD2 JUMPI PUSH2 0x2BD1 PUSH2 0x4FF3 JUMP JUMPDEST JUMPDEST SWAP1 PUSH1 0x0 MSTORE PUSH1 0x20 PUSH1 0x0 KECCAK256 SWAP1 PUSH1 0xB MUL ADD PUSH1 0xA ADD DUP2 SWAP1 SSTORE POP JUMPDEST PUSH32 0xCAED2F4DE03D601FBA728CA99751B5304B3D354DAD95B26C4629F22F9DC287BB DUP4 PUSH1 0x0 DUP6 DUP2 SLOAD DUP2 LT PUSH2 0x2C1E JUMPI PUSH2 0x2C1D PUSH2 0x4FF3 JUMP JUMPDEST JUMPDEST SWAP1 PUSH1 0x0 MSTORE PUSH1 0x20 PUSH1 0x0 KECCAK256 SWAP1 PUSH1 0xB MUL ADD PUSH1 0x9 ADD SLOAD PUSH1 0x40 MLOAD PUSH2 0x2C3E SWAP3 SWAP2 SWAP1 PUSH2 0x565F JUMP JUMPDEST PUSH1 0x40 MLOAD DUP1 SWAP2 SUB SWAP1 LOG1 JUMPDEST PUSH2 0x300D JUMP JUMPDEST PUSH1 0x1 DUP2 SUB PUSH2 0x300C JUMPI DUP2 PUSH4 0x5F5E100 CALLVALUE PUSH2 0x3E8 PUSH2 0x3E3 PUSH2 0x2C69 PUSH2 0x31D6 JUMP JUMPDEST PUSH2 0x2C73 SWAP2 SWAP1 PUSH2 0x50B2 JUMP JUMPDEST PUSH2 0x2C7D SWAP2 SWAP1 PUSH2 0x5123 JUMP JUMPDEST PUSH2 0x2C87 SWAP2 SWAP1 PUSH2 0x50B2 JUMP JUMPDEST PUSH2 0x2C91 SWAP2 SWAP1 PUSH2 0x5123 JUMP JUMPDEST LT ISZERO PUSH2 0x2CD2 JUMPI PUSH1 0x40 MLOAD PUSH32 0x8C379A000000000000000000000000000000000000000000000000000000000 DUP2 MSTORE PUSH1 0x4 ADD PUSH2 0x2CC9 SWAP1 PUSH2 0x587E JUMP JUMPDEST PUSH1 0x40 MLOAD DUP1 SWAP2 SUB SWAP1 REVERT JUMPDEST DUP2 PUSH1 0x0 DUP5 DUP2 SLOAD DUP2 LT PUSH2 0x2CE7 JUMPI PUSH2 0x2CE6 PUSH2 0x4FF3 JUMP JUMPDEST JUMPDEST SWAP1 PUSH1 0x0 MSTORE PUSH1 0x20 PUSH1 0x0 KECCAK256 SWAP1 PUSH1 0xB MUL ADD PUSH1 0x0 ADD PUSH1 0x0 SWAP1 SLOAD SWAP1 PUSH2 0x100 EXP SWAP1 DIV PUSH20 0xFFFFFFFFFFFFFFFFFFFFFFFFFFFFFFFFFFFFFFFF AND PUSH20 0xFFFFFFFFFFFFFFFFFFFFFFFFFFFFFFFFFFFFFFFF AND PUSH4 0xFE3699C6 PUSH1 0x40 MLOAD DUP2 PUSH4 0xFFFFFFFF AND PUSH1 0xE0 SHL DUP2 MSTORE PUSH1 0x4 ADD PUSH1 0x20 PUSH1 0x40 MLOAD DUP1 DUP4 SUB DUP2 DUP7 GAS STATICCALL ISZERO DUP1 ISZERO PUSH2 0x2D63 JUMPI RETURNDATASIZE PUSH1 0x0 DUP1 RETURNDATACOPY RETURNDATASIZE PUSH1 0x0 REVERT JUMPDEST POP POP POP POP PUSH1 0x40 MLOAD RETURNDATASIZE PUSH1 0x1F NOT PUSH1 0x1F DUP3 ADD AND DUP3 ADD DUP1 PUSH1 0x40 MSTORE POP DUP2 ADD SWAP1 PUSH2 0x2D87 SWAP2 SWAP1 PUSH2 0x5169 JUMP JUMPDEST PUSH1 0x0 DUP6 DUP2 SLOAD DUP2 LT PUSH2 0x2D9B JUMPI PUSH2 0x2D9A PUSH2 0x4FF3 JUMP JUMPDEST JUMPDEST SWAP1 PUSH1 0x0 MSTORE PUSH1 0x20 PUSH1 0x0 KECCAK256 SWAP1 PUSH1 0xB MUL ADD PUSH1 0x0 ADD PUSH1 0x0 SWAP1 SLOAD SWAP1 PUSH2 0x100 EXP SWAP1 DIV PUSH20 0xFFFFFFFFFFFFFFFFFFFFFFFFFFFFFFFFFFFFFFFF AND PUSH20 0xFFFFFFFFFFFFFFFFFFFFFFFFFFFFFFFFFFFFFFFF AND PUSH4 0xAD044F49 PUSH1 0x40 MLOAD DUP2 PUSH4 0xFFFFFFFF AND PUSH1 0xE0 SHL DUP2 MSTORE PUSH1 0x4 ADD PUSH1 0x20 PUSH1 0x40 MLOAD DUP1 DUP4 SUB DUP2 DUP7 GAS STATICCALL ISZERO DUP1 ISZERO PUSH2 0x2E17 JUMPI RETURNDATASIZE PUSH1 0x0 DUP1 RETURNDATACOPY RETURNDATASIZE PUSH1 0x0 REVERT JUMPDEST POP POP POP POP PUSH1 0x40 MLOAD RETURNDATASIZE PUSH1 0x1F NOT PUSH1 0x1F DUP3 ADD AND DUP3 ADD DUP1 PUSH1 0x40 MSTORE POP DUP2 ADD SWAP1 PUSH2 0x2E3B SWAP2 SWAP1 PUSH2 0x5169 JUMP JUMPDEST PUSH2 0x2E45 SWAP2 SWAP1 PUSH2 0x4EE7 JUMP JUMPDEST LT ISZERO PUSH2 0x2E86 JUMPI PUSH1 0x40 MLOAD PUSH32 0x8C379A000000000000000000000000000000000000000000000000000000000 DUP2 MSTORE PUSH1 0x4 ADD PUSH2 0x2E7D SWAP1 PUSH2 0x58EA JUMP JUMPDEST PUSH1 0x40 MLOAD DUP1 SWAP2 SUB SWAP1 REVERT JUMPDEST ADDRESS PUSH20 0xFFFFFFFFFFFFFFFFFFFFFFFFFFFFFFFFFFFFFFFF AND PUSH4 0x6B7619C4 DUP5 DUP5 PUSH1 0x40 MLOAD DUP4 PUSH4 0xFFFFFFFF AND PUSH1 0xE0 SHL DUP2 MSTORE PUSH1 0x4 ADD PUSH2 0x2EC1 SWAP3 SWAP2 SWAP1 PUSH2 0x565F JUMP JUMPDEST PUSH1 0x0 PUSH1 0x40 MLOAD DUP1 DUP4 SUB DUP2 PUSH1 0x0 DUP8 DUP1 EXTCODESIZE ISZERO DUP1 ISZERO PUSH2 0x2EDB JUMPI PUSH1 0x0 DUP1 REVERT JUMPDEST POP GAS CALL ISZERO DUP1 ISZERO PUSH2 0x2EEF JUMPI RETURNDATASIZE PUSH1 0x0 DUP1 RETURNDATACOPY RETURNDATASIZE PUSH1 0x0 REVERT JUMPDEST POP POP POP POP PUSH1 0x2 PUSH1 0x0 SWAP1 SLOAD SWAP1 PUSH2 0x100 EXP SWAP1 DIV PUSH20 0xFFFFFFFFFFFFFFFFFFFFFFFFFFFFFFFFFFFFFFFF AND PUSH20 0xFFFFFFFFFFFFFFFFFFFFFFFFFFFFFFFFFFFFFFFF AND PUSH4 0xA9059CBB CALLER DUP5 PUSH1 0x40 MLOAD DUP4 PUSH4 0xFFFFFFFF AND PUSH1 0xE0 SHL DUP2 MSTORE PUSH1 0x4 ADD PUSH2 0x2F50 SWAP3 SWAP2 SWAP1 PUSH2 0x54E5 JUMP JUMPDEST PUSH1 0x20 PUSH1 0x40 MLOAD DUP1 DUP4 SUB DUP2 PUSH1 0x0 DUP8 GAS CALL ISZERO DUP1 ISZERO PUSH2 0x2F6F JUMPI RETURNDATASIZE PUSH1 0x0 DUP1 RETURNDATACOPY RETURNDATASIZE PUSH1 0x0 REVERT JUMPDEST POP POP POP POP PUSH1 0x40 MLOAD RETURNDATASIZE PUSH1 0x1F NOT PUSH1 0x1F DUP3 ADD AND DUP3 ADD DUP1 PUSH1 0x40 MSTORE POP DUP2 ADD SWAP1 PUSH2 0x2F93 SWAP2 SWAP1 PUSH2 0x5085 JUMP JUMPDEST POP CALLVALUE PUSH1 0x0 DUP5 DUP2 SLOAD DUP2 LT PUSH2 0x2FA9 JUMPI PUSH2 0x2FA8 PUSH2 0x4FF3 JUMP JUMPDEST JUMPDEST SWAP1 PUSH1 0x0 MSTORE PUSH1 0x20 PUSH1 0x0 KECCAK256 SWAP1 PUSH1 0xB MUL ADD PUSH1 0x7 ADD PUSH1 0x0 DUP3 DUP3 SLOAD PUSH2 0x2FC9 SWAP2 SWAP1 PUSH2 0x5196 JUMP JUMPDEST SWAP3 POP POP DUP2 SWAP1 SSTORE POP PUSH32 0xD15AE7B6DD35FEA2F80AC5ECAD34C59D0F1EDD4A0368585EE58F5ED1D4126ADE DUP4 DUP4 CALLVALUE PUSH1 0x40 MLOAD PUSH2 0x3003 SWAP4 SWAP3 SWAP2 SWAP1 PUSH2 0x53D6 JUMP JUMPDEST PUSH1 0x40 MLOAD DUP1 SWAP2 SUB SWAP1 LOG1 JUMPDEST JUMPDEST POP POP POP JUMP JUMPDEST PUSH1 0x0 PUSH4 0x87A211A2 PUSH1 0xC MSTORE DUP2 PUSH1 0x0 MSTORE PUSH1 0x20 PUSH1 0xC KECCAK256 SLOAD SWAP1 POP SWAP2 SWAP1 POP JUMP JUMPDEST PUSH1 0x5 PUSH1 0x0 SWAP1 SLOAD SWAP1 PUSH2 0x100 EXP SWAP1 DIV PUSH20 0xFFFFFFFFFFFFFFFFFFFFFFFFFFFFFFFFFFFFFFFF AND DUP2 JUMP JUMPDEST PUSH1 0x1 DUP1 PUSH1 0x8 PUSH1 0x0 CALLER PUSH20 0xFFFFFFFFFFFFFFFFFFFFFFFFFFFFFFFFFFFFFFFF AND PUSH20 0xFFFFFFFFFFFFFFFFFFFFFFFFFFFFFFFFFFFFFFFF AND DUP2 MSTORE PUSH1 0x20 ADD SWAP1 DUP2 MSTORE PUSH1 0x20 ADD PUSH1 0x0 KECCAK256 SLOAD EQ PUSH2 0x30D6 JUMPI PUSH1 0x40 MLOAD PUSH32 0x8C379A000000000000000000000000000000000000000000000000000000000 DUP2 MSTORE PUSH1 0x4 ADD PUSH2 0x30CD SWAP1 PUSH2 0x4D27 JUMP JUMPDEST PUSH1 0x40 MLOAD DUP1 SWAP2 SUB SWAP1 REVERT JUMPDEST DUP2 PUSH1 0x8 PUSH1 0x0 DUP6 PUSH20 0xFFFFFFFFFFFFFFFFFFFFFFFFFFFFFFFFFFFFFFFF AND PUSH20 0xFFFFFFFFFFFFFFFFFFFFFFFFFFFFFFFFFFFFFFFF AND DUP2 MSTORE PUSH1 0x20 ADD SWAP1 DUP2 MSTORE PUSH1 0x20 ADD PUSH1 0x0 KECCAK256 DUP2 SWAP1 SSTORE POP PUSH1 0x3 DUP3 EQ PUSH2 0x3189 JUMPI PUSH1 0x6 PUSH1 0x0 SWAP1 SLOAD SWAP1 PUSH2 0x100 EXP SWAP1 DIV PUSH20 0xFFFFFFFFFFFFFFFFFFFFFFFFFFFFFFFFFFFFFFFF AND PUSH1 0x6 PUSH1 0x0 PUSH2 0x100 EXP DUP2 SLOAD DUP2 PUSH20 0xFFFFFFFFFFFFFFFFFFFFFFFFFFFFFFFFFFFFFFFF MUL NOT AND SWAP1 DUP4 PUSH20 0xFFFFFFFFFFFFFFFFFFFFFFFFFFFFFFFFFFFFFFFF AND MUL OR SWAP1 SSTORE PUSH2 0x31CA JUMP JUMPDEST DUP3 PUSH1 0x6 PUSH1 0x0 PUSH2 0x100 EXP DUP2 SLOAD DUP2 PUSH20 0xFFFFFFFFFFFFFFFFFFFFFFFFFFFFFFFFFFFFFFFF MUL NOT AND SWAP1 DUP4 PUSH20 0xFFFFFFFFFFFFFFFFFFFFFFFFFFFFFFFFFFFFFFFF AND MUL OR SWAP1 SSTORE JUMPDEST POP POP POP POP JUMP JUMPDEST PUSH1 0x7 SLOAD DUP2 JUMP JUMPDEST PUSH1 0x0 DUP1 PUSH1 0x5 PUSH1 0x0 SWAP1 SLOAD SWAP1 PUSH2 0x100 EXP SWAP1 DIV PUSH20 0xFFFFFFFFFFFFFFFFFFFFFFFFFFFFFFFFFFFFFFFF AND PUSH20 0xFFFFFFFFFFFFFFFFFFFFFFFFFFFFFFFFFFFFFFFF AND PUSH4 0xFEAF968C PUSH1 0x40 MLOAD DUP2 PUSH4 0xFFFFFFFF AND PUSH1 0xE0 SHL DUP2 MSTORE PUSH1 0x4 ADD PUSH1 0xA0 PUSH1 0x40 MLOAD DUP1 DUP4 SUB DUP2 DUP7 GAS STATICCALL ISZERO DUP1 ISZERO PUSH2 0x3246 JUMPI RETURNDATASIZE PUSH1 0x0 DUP1 RETURNDATACOPY RETURNDATASIZE PUSH1 0x0 REVERT JUMPDEST POP POP POP POP PUSH1 0x40 MLOAD RETURNDATASIZE PUSH1 0x1F NOT PUSH1 0x1F DUP3 ADD AND DUP3 ADD DUP1 PUSH1 0x40 MSTORE POP DUP2 ADD SWAP1 PUSH2 0x326A SWAP2 SWAP1 PUSH2 0x5978 JUMP JUMPDEST POP POP POP SWAP2 POP POP DUP1 SWAP2 POP POP SWAP1 JUMP JUMPDEST PUSH1 0x60 PUSH1 0x40 MLOAD DUP1 PUSH1 0x40 ADD PUSH1 0x40 MSTORE DUP1 PUSH1 0x2 DUP2 MSTORE PUSH1 0x20 ADD PUSH32 0x4747000000000000000000000000000000000000000000000000000000000000 DUP2 MSTORE POP SWAP1 POP SWAP1 JUMP JUMPDEST PUSH32 0xFFFFFFFFFFFFFFFFFFFFFFFFFFFFFFFFFFFFFFFFFFFFFFFFFFFFFFFFFFFFFFFF DUP2 JUMP JUMPDEST PUSH1 0x0 PUSH4 0x87A211A2 PUSH1 0xC MSTORE CALLER PUSH1 0x0 MSTORE PUSH1 0x20 PUSH1 0xC KECCAK256 DUP1 SLOAD DUP1 DUP5 GT ISZERO PUSH2 0x3303 JUMPI PUSH4 0xF4D678B8 PUSH1 0x0 MSTORE PUSH1 0x4 PUSH1 0x1C REVERT JUMPDEST DUP4 DUP2 SUB DUP3 SSTORE DUP5 PUSH1 0x0 MSTORE PUSH1 0x20 PUSH1 0xC KECCAK256 DUP5 DUP2 SLOAD ADD DUP2 SSTORE DUP5 PUSH1 0x20 MSTORE PUSH1 0xC MLOAD PUSH1 0x60 SHR CALLER PUSH32 0xDDF252AD1BE2C89B69C2B068FC378DAA952BA7F163C4A11628F55A4DF523B3EF PUSH1 0x20 DUP1 LOG3 POP POP POP PUSH1 0x1 SWAP1 POP SWAP3 SWAP2 POP POP JUMP JUMPDEST TIMESTAMP PUSH3 0x3F480 PUSH1 0x9 PUSH1 0x0 DUP5 DUP2 MSTORE PUSH1 0x20 ADD SWAP1 DUP2 MSTORE PUSH1 0x20 ADD PUSH1 0x0 KECCAK256 SLOAD PUSH2 0x3377 SWAP2 SWAP1 PUSH2 0x5196 JUMP JUMPDEST GT ISZERO PUSH2 0x3382 JUMPI PUSH1 0x0 DUP1 REVERT JUMPDEST PUSH1 0x0 DUP1 DUP3 DUP2 SLOAD DUP2 LT PUSH2 0x3397 JUMPI PUSH2 0x3396 PUSH2 0x4FF3 JUMP JUMPDEST JUMPDEST SWAP1 PUSH1 0x0 MSTORE PUSH1 0x20 PUSH1 0x0 KECCAK256 SWAP1 PUSH1 0xB MUL ADD PUSH1 0x0 ADD PUSH1 0x0 SWAP1 SLOAD SWAP1 PUSH2 0x100 EXP SWAP1 DIV PUSH20 0xFFFFFFFFFFFFFFFFFFFFFFFFFFFFFFFFFFFFFFFF AND PUSH20 0xFFFFFFFFFFFFFFFFFFFFFFFFFFFFFFFFFFFFFFFF AND PUSH4 0xE7FA9F7D PUSH1 0x40 MLOAD DUP2 PUSH4 0xFFFFFFFF AND PUSH1 0xE0 SHL DUP2 MSTORE PUSH1 0x4 ADD PUSH1 0x20 PUSH1 0x40 MLOAD DUP1 DUP4 SUB DUP2 DUP7 GAS STATICCALL ISZERO DUP1 ISZERO PUSH2 0x3413 JUMPI RETURNDATASIZE PUSH1 0x0 DUP1 RETURNDATACOPY RETURNDATASIZE PUSH1 0x0 REVERT JUMPDEST POP POP POP POP PUSH1 0x40 MLOAD RETURNDATASIZE PUSH1 0x1F NOT PUSH1 0x1F DUP3 ADD AND DUP3 ADD DUP1 PUSH1 0x40 MSTORE POP DUP2 ADD SWAP1 PUSH2 0x3437 SWAP2 SWAP1 PUSH2 0x5169 JUMP JUMPDEST GT PUSH2 0x3477 JUMPI PUSH1 0x40 MLOAD PUSH32 0x8C379A000000000000000000000000000000000000000000000000000000000 DUP2 MSTORE PUSH1 0x4 ADD PUSH2 0x346E SWAP1 PUSH2 0x5812 JUMP JUMPDEST PUSH1 0x40 MLOAD DUP1 SWAP2 SUB SWAP1 REVERT JUMPDEST TIMESTAMP PUSH1 0x9 PUSH1 0x0 DUP4 DUP2 MSTORE PUSH1 0x20 ADD SWAP1 DUP2 MSTORE PUSH1 0x20 ADD PUSH1 0x0 KECCAK256 DUP2 SWAP1 SSTORE POP PUSH1 0x0 PUSH1 0x64 PUSH1 0x0 DUP4 DUP2 SLOAD DUP2 LT PUSH2 0x34A7 JUMPI PUSH2 0x34A6 PUSH2 0x4FF3 JUMP JUMPDEST JUMPDEST SWAP1 PUSH1 0x0 MSTORE PUSH1 0x20 PUSH1 0x0 KECCAK256 SWAP1 PUSH1 0xB MUL ADD PUSH1 0x0 ADD PUSH1 0x0 SWAP1 SLOAD SWAP1 PUSH2 0x100 EXP SWAP1 DIV PUSH20 0xFFFFFFFFFFFFFFFFFFFFFFFFFFFFFFFFFFFFFFFF AND PUSH20 0xFFFFFFFFFFFFFFFFFFFFFFFFFFFFFFFFFFFFFFFF AND PUSH4 0xAD044F49 PUSH1 0x40 MLOAD DUP2 PUSH4 0xFFFFFFFF AND PUSH1 0xE0 SHL DUP2 MSTORE PUSH1 0x4 ADD PUSH1 0x20 PUSH1 0x40 MLOAD DUP1 DUP4 SUB DUP2 DUP7 GAS STATICCALL ISZERO DUP1 ISZERO PUSH2 0x3523 JUMPI RETURNDATASIZE PUSH1 0x0 DUP1 RETURNDATACOPY RETURNDATASIZE PUSH1 0x0 REVERT JUMPDEST POP POP POP POP PUSH1 0x40 MLOAD RETURNDATASIZE PUSH1 0x1F NOT PUSH1 0x1F DUP3 ADD AND DUP3 ADD DUP1 PUSH1 0x40 MSTORE POP DUP2 ADD SWAP1 PUSH2 0x3547 SWAP2 SWAP1 PUSH2 0x5169 JUMP JUMPDEST PUSH2 0x3551 SWAP2 SWAP1 PUSH2 0x5123 JUMP JUMPDEST SWAP1 POP PUSH1 0x0 DUP3 DUP2 SLOAD DUP2 LT PUSH2 0x3567 JUMPI PUSH2 0x3566 PUSH2 0x4FF3 JUMP JUMPDEST JUMPDEST SWAP1 PUSH1 0x0 MSTORE PUSH1 0x20 PUSH1 0x0 KECCAK256 SWAP1 PUSH1 0xB MUL ADD PUSH1 0x0 ADD PUSH1 0x0 SWAP1 SLOAD SWAP1 PUSH2 0x100 EXP SWAP1 DIV PUSH20 0xFFFFFFFFFFFFFFFFFFFFFFFFFFFFFFFFFFFFFFFF AND PUSH20 0xFFFFFFFFFFFFFFFFFFFFFFFFFFFFFFFFFFFFFFFF AND PUSH4 0xE7FA9F7D PUSH1 0x40 MLOAD DUP2 PUSH4 0xFFFFFFFF AND PUSH1 0xE0 SHL DUP2 MSTORE PUSH1 0x4 ADD PUSH1 0x20 PUSH1 0x40 MLOAD DUP1 DUP4 SUB DUP2 DUP7 GAS STATICCALL ISZERO DUP1 ISZERO PUSH2 0x35E3 JUMPI RETURNDATASIZE PUSH1 0x0 DUP1 RETURNDATACOPY RETURNDATASIZE PUSH1 0x0 REVERT JUMPDEST POP POP POP POP PUSH1 0x40 MLOAD RETURNDATASIZE PUSH1 0x1F NOT PUSH1 0x1F DUP3 ADD AND DUP3 ADD DUP1 PUSH1 0x40 MSTORE POP DUP2 ADD SWAP1 PUSH2 0x3607 SWAP2 SWAP1 PUSH2 0x5169 JUMP JUMPDEST DUP2 GT PUSH2 0x3613 JUMPI DUP1 PUSH2 0x36C8 JUMP JUMPDEST PUSH1 0x0 DUP3 DUP2 SLOAD DUP2 LT PUSH2 0x3627 JUMPI PUSH2 0x3626 PUSH2 0x4FF3 JUMP JUMPDEST JUMPDEST SWAP1 PUSH1 0x0 MSTORE PUSH1 0x20 PUSH1 0x0 KECCAK256 SWAP1 PUSH1 0xB MUL ADD PUSH1 0x0 ADD PUSH1 0x0 SWAP1 SLOAD SWAP1 PUSH2 0x100 EXP SWAP1 DIV PUSH20 0xFFFFFFFFFFFFFFFFFFFFFFFFFFFFFFFFFFFFFFFF AND PUSH20 0xFFFFFFFFFFFFFFFFFFFFFFFFFFFFFFFFFFFFFFFF AND PUSH4 0xE7FA9F7D PUSH1 0x40 MLOAD DUP2 PUSH4 0xFFFFFFFF AND PUSH1 0xE0 SHL DUP2 MSTORE PUSH1 0x4 ADD PUSH1 0x20 PUSH1 0x40 MLOAD DUP1 DUP4 SUB DUP2 DUP7 GAS STATICCALL ISZERO DUP1 ISZERO PUSH2 0x36A3 JUMPI RETURNDATASIZE PUSH1 0x0 DUP1 RETURNDATACOPY RETURNDATASIZE PUSH1 0x0 REVERT JUMPDEST POP POP POP POP PUSH1 0x40 MLOAD RETURNDATASIZE PUSH1 0x1F NOT PUSH1 0x1F DUP3 ADD AND DUP3 ADD DUP1 PUSH1 0x40 MSTORE POP DUP2 ADD SWAP1 PUSH2 0x36C7 SWAP2 SWAP1 PUSH2 0x5169 JUMP JUMPDEST JUMPDEST SWAP1 POP ADDRESS PUSH20 0xFFFFFFFFFFFFFFFFFFFFFFFFFFFFFFFFFFFFFFFF AND PUSH4 0x3614D0D2 DUP4 DUP4 PUSH1 0x40 MLOAD DUP4 PUSH4 0xFFFFFFFF AND PUSH1 0xE0 SHL DUP2 MSTORE PUSH1 0x4 ADD PUSH2 0x3705 SWAP3 SWAP2 SWAP1 PUSH2 0x565F JUMP JUMPDEST PUSH1 0x0 PUSH1 0x40 MLOAD DUP1 DUP4 SUB DUP2 PUSH1 0x0 DUP8 DUP1 EXTCODESIZE ISZERO DUP1 ISZERO PUSH2 0x371F JUMPI PUSH1 0x0 DUP1 REVERT JUMPDEST POP GAS CALL ISZERO DUP1 ISZERO PUSH2 0x3733 JUMPI RETURNDATASIZE PUSH1 0x0 DUP1 RETURNDATACOPY RETURNDATASIZE PUSH1 0x0 REVERT JUMPDEST POP POP POP POP POP POP JUMP JUMPDEST PUSH1 0x3 PUSH1 0x0 SWAP1 SLOAD SWAP1 PUSH2 0x100 EXP SWAP1 DIV PUSH20 0xFFFFFFFFFFFFFFFFFFFFFFFFFFFFFFFFFFFFFFFF AND DUP2 JUMP JUMPDEST PUSH1 0x2 DUP1 PUSH1 0x8 PUSH1 0x0 CALLER PUSH20 0xFFFFFFFFFFFFFFFFFFFFFFFFFFFFFFFFFFFFFFFF AND PUSH20 0xFFFFFFFFFFFFFFFFFFFFFFFFFFFFFFFFFFFFFFFF AND DUP2 MSTORE PUSH1 0x20 ADD SWAP1 DUP2 MSTORE PUSH1 0x20 ADD PUSH1 0x0 KECCAK256 SLOAD EQ PUSH2 0x37E4 JUMPI PUSH1 0x40 MLOAD PUSH32 0x8C379A000000000000000000000000000000000000000000000000000000000 DUP2 MSTORE PUSH1 0x4 ADD PUSH2 0x37DB SWAP1 PUSH2 0x4D27 JUMP JUMPDEST PUSH1 0x40 MLOAD DUP1 SWAP2 SUB SWAP1 REVERT JUMPDEST PUSH1 0x0 DUP1 SLOAD SWAP1 POP DUP4 LT PUSH2 0x382B JUMPI PUSH1 0x40 MLOAD PUSH32 0x8C379A000000000000000000000000000000000000000000000000000000000 DUP2 MSTORE PUSH1 0x4 ADD PUSH2 0x3822 SWAP1 PUSH2 0x4F67 JUMP JUMPDEST PUSH1 0x40 MLOAD DUP1 SWAP2 SUB SWAP1 REVERT JUMPDEST PUSH1 0x0 DUP3 GT PUSH2 0x386E JUMPI PUSH1 0x40 MLOAD PUSH32 0x8C379A000000000000000000000000000000000000000000000000000000000 DUP2 MSTORE PUSH1 0x4 ADD PUSH2 0x3865 SWAP1 PUSH2 0x5A3F JUMP JUMPDEST PUSH1 0x40 MLOAD DUP1 SWAP2 SUB SWAP1 REVERT JUMPDEST PUSH1 0x2 PUSH1 0x0 SWAP1 SLOAD SWAP1 PUSH2 0x100 EXP SWAP1 DIV PUSH20 0xFFFFFFFFFFFFFFFFFFFFFFFFFFFFFFFFFFFFFFFF AND PUSH20 0xFFFFFFFFFFFFFFFFFFFFFFFFFFFFFFFFFFFFFFFF AND PUSH4 0x95EA7B3 PUSH1 0x3 PUSH1 0x0 SWAP1 SLOAD SWAP1 PUSH2 0x100 EXP SWAP1 DIV PUSH20 0xFFFFFFFFFFFFFFFFFFFFFFFFFFFFFFFFFFFFFFFF AND DUP5 PUSH1 0x40 MLOAD DUP4 PUSH4 0xFFFFFFFF AND PUSH1 0xE0 SHL DUP2 MSTORE PUSH1 0x4 ADD PUSH2 0x38ED SWAP3 SWAP2 SWAP1 PUSH2 0x54E5 JUMP JUMPDEST PUSH1 0x20 PUSH1 0x40 MLOAD DUP1 DUP4 SUB DUP2 PUSH1 0x0 DUP8 GAS CALL ISZERO DUP1 ISZERO PUSH2 0x390C JUMPI RETURNDATASIZE PUSH1 0x0 DUP1 RETURNDATACOPY RETURNDATASIZE PUSH1 0x0 REVERT JUMPDEST POP POP POP POP PUSH1 0x40 MLOAD RETURNDATASIZE PUSH1 0x1F NOT PUSH1 0x1F DUP3 ADD AND DUP3 ADD DUP1 PUSH1 0x40 MSTORE POP DUP2 ADD SWAP1 PUSH2 0x3930 SWAP2 SWAP1 PUSH2 0x5085 JUMP JUMPDEST POP PUSH1 0x0 PUSH2 0x393B PUSH2 0x31D6 JUMP JUMPDEST SWAP1 POP PUSH1 0x0 DUP2 SGT PUSH2 0x3980 JUMPI PUSH1 0x40 MLOAD PUSH32 0x8C379A000000000000000000000000000000000000000000000000000000000 DUP2 MSTORE PUSH1 0x4 ADD PUSH2 0x3977 SWAP1 PUSH2 0x5AAB JUMP JUMPDEST PUSH1 0x40 MLOAD DUP1 SWAP2 SUB SWAP1 REVERT JUMPDEST PUSH1 0x0 DUP2 PUSH9 0x56BC75E2D63100000 DUP6 PUSH2 0x3998 SWAP2 SWAP1 PUSH2 0x50B2 JUMP JUMPDEST PUSH2 0x39A2 SWAP2 SWAP1 PUSH2 0x5123 JUMP JUMPDEST SWAP1 POP PUSH1 0x0 PUSH8 0xDE0B6B3A7640000 PUSH7 0x2386F26FC10000 PUSH8 0xDE0B6B3A7640000 PUSH2 0x39CA SWAP2 SWAP1 PUSH2 0x4EE7 JUMP JUMPDEST DUP4 PUSH2 0x39D5 SWAP2 SWAP1 PUSH2 0x50B2 JUMP JUMPDEST PUSH2 0x39DF SWAP2 SWAP1 PUSH2 0x5123 JUMP JUMPDEST SWAP1 POP PUSH1 0x0 PUSH1 0x40 MLOAD DUP1 PUSH1 0xE0 ADD PUSH1 0x40 MSTORE DUP1 PUSH1 0x2 PUSH1 0x0 SWAP1 SLOAD SWAP1 PUSH2 0x100 EXP SWAP1 DIV PUSH20 0xFFFFFFFFFFFFFFFFFFFFFFFFFFFFFFFFFFFFFFFF AND PUSH20 0xFFFFFFFFFFFFFFFFFFFFFFFFFFFFFFFFFFFFFFFF AND DUP2 MSTORE PUSH1 0x20 ADD PUSH1 0x4 PUSH1 0x0 SWAP1 SLOAD SWAP1 PUSH2 0x100 EXP SWAP1 DIV PUSH20 0xFFFFFFFFFFFFFFFFFFFFFFFFFFFFFFFFFFFFFFFF AND PUSH20 0xFFFFFFFFFFFFFFFFFFFFFFFFFFFFFFFFFFFFFFFF AND DUP2 MSTORE PUSH1 0x20 ADD PUSH2 0x1F4 PUSH3 0xFFFFFF AND DUP2 MSTORE PUSH1 0x20 ADD ADDRESS PUSH20 0xFFFFFFFFFFFFFFFFFFFFFFFFFFFFFFFFFFFFFFFF AND DUP2 MSTORE PUSH1 0x20 ADD DUP8 DUP2 MSTORE PUSH1 0x20 ADD DUP4 DUP2 MSTORE PUSH1 0x20 ADD PUSH1 0x0 PUSH20 0xFFFFFFFFFFFFFFFFFFFFFFFFFFFFFFFFFFFFFFFF AND DUP2 MSTORE POP SWAP1 POP PUSH1 0x0 PUSH1 0x3 PUSH1 0x0 SWAP1 SLOAD SWAP1 PUSH2 0x100 EXP SWAP1 DIV PUSH20 0xFFFFFFFFFFFFFFFFFFFFFFFFFFFFFFFFFFFFFFFF AND PUSH20 0xFFFFFFFFFFFFFFFFFFFFFFFFFFFFFFFFFFFFFFFF AND PUSH4 0x4E45AAF DUP4 PUSH1 0x40 MLOAD DUP3 PUSH4 0xFFFFFFFF AND PUSH1 0xE0 SHL DUP2 MSTORE PUSH1 0x4 ADD PUSH2 0x3B19 SWAP2 SWAP1 PUSH2 0x55D8 JUMP JUMPDEST PUSH1 0x20 PUSH1 0x40 MLOAD DUP1 DUP4 SUB DUP2 PUSH1 0x0 DUP8 GAS CALL ISZERO DUP1 ISZERO PUSH2 0x3B38 JUMPI RETURNDATASIZE PUSH1 0x0 DUP1 RETURNDATACOPY RETURNDATASIZE PUSH1 0x0 REVERT JUMPDEST POP POP POP POP PUSH1 0x40 MLOAD RETURNDATASIZE PUSH1 0x1F NOT PUSH1 0x1F DUP3 ADD AND DUP3 ADD DUP1 PUSH1 0x40 MSTORE POP DUP2 ADD SWAP1 PUSH2 0x3B5C SWAP2 SWAP1 PUSH2 0x5169 JUMP JUMPDEST SWAP1 POP PUSH1 0x4 PUSH1 0x0 SWAP1 SLOAD SWAP1 PUSH2 0x100 EXP SWAP1 DIV PUSH20 0xFFFFFFFFFFFFFFFFFFFFFFFFFFFFFFFFFFFFFFFF AND PUSH20 0xFFFFFFFFFFFFFFFFFFFFFFFFFFFFFFFFFFFFFFFF AND PUSH4 0x2E1A7D4D DUP3 PUSH1 0x40 MLOAD DUP3 PUSH4 0xFFFFFFFF AND PUSH1 0xE0 SHL DUP2 MSTORE PUSH1 0x4 ADD PUSH2 0x3BB9 SWAP2 SWAP1 PUSH2 0x48FF JUMP JUMPDEST PUSH1 0x0 PUSH1 0x40 MLOAD DUP1 DUP4 SUB DUP2 PUSH1 0x0 DUP8 DUP1 EXTCODESIZE ISZERO DUP1 ISZERO PUSH2 0x3BD3 JUMPI PUSH1 0x0 DUP1 REVERT JUMPDEST POP GAS CALL ISZERO DUP1 ISZERO PUSH2 0x3BE7 JUMPI RETURNDATASIZE PUSH1 0x0 DUP1 RETURNDATACOPY RETURNDATASIZE PUSH1 0x0 REVERT JUMPDEST POP POP POP POP DUP1 PUSH1 0x0 DUP10 DUP2 SLOAD DUP2 LT PUSH2 0x3C00 JUMPI PUSH2 0x3BFF PUSH2 0x4FF3 JUMP JUMPDEST JUMPDEST SWAP1 PUSH1 0x0 MSTORE PUSH1 0x20 PUSH1 0x0 KECCAK256 SWAP1 PUSH1 0xB MUL ADD PUSH1 0x7 ADD PUSH1 0x0 DUP3 DUP3 SLOAD PUSH2 0x3C20 SWAP2 SWAP1 PUSH2 0x5196 JUMP JUMPDEST SWAP3 POP POP DUP2 SWAP1 SSTORE POP PUSH32 0xD15AE7B6DD35FEA2F80AC5ECAD34C59D0F1EDD4A0368585EE58F5ED1D4126ADE DUP9 DUP9 DUP4 PUSH1 0x40 MLOAD PUSH2 0x3C5A SWAP4 SWAP3 SWAP2 SWAP1 PUSH2 0x53D6 JUMP JUMPDEST PUSH1 0x40 MLOAD DUP1 SWAP2 SUB SWAP1 LOG1 POP POP POP POP POP POP POP POP JUMP JUMPDEST PUSH1 0x0 DUP1 DUP1 SLOAD SWAP1 POP SWAP1 POP SWAP1 JUMP JUMPDEST PUSH1 0x8 PUSH1 0x20 MSTORE DUP1 PUSH1 0x0 MSTORE PUSH1 0x40 PUSH1 0x0 KECCAK256 PUSH1 0x0 SWAP2 POP SWAP1 POP SLOAD DUP2 JUMP JUMPDEST PUSH1 0x1 PUSH1 0x0 SWAP1 SLOAD SWAP1 PUSH2 0x100 EXP SWAP1 DIV PUSH20 0xFFFFFFFFFFFFFFFFFFFFFFFFFFFFFFFFFFFFFFFF AND DUP2 JUMP JUMPDEST PUSH2 0x1F4 DUP2 JUMP JUMPDEST PUSH1 0x0 DUP2 PUSH1 0x20 MSTORE PUSH4 0x7F5E9F20 PUSH1 0xC MSTORE DUP3 PUSH1 0x0 MSTORE PUSH1 0x34 PUSH1 0xC KECCAK256 SLOAD SWAP1 POP SWAP3 SWAP2 POP POP JUMP JUMPDEST PUSH1 0x0 DUP2 DUP2 SLOAD DUP2 LT PUSH2 0x3CEC JUMPI PUSH1 0x0 DUP1 REVERT JUMPDEST SWAP1 PUSH1 0x0 MSTORE PUSH1 0x20 PUSH1 0x0 KECCAK256 SWAP1 PUSH1 0xB MUL ADD PUSH1 0x0 SWAP2 POP SWAP1 POP DUP1 PUSH1 0x0 ADD PUSH1 0x0 SWAP1 SLOAD SWAP1 PUSH2 0x100 EXP SWAP1 DIV PUSH20 0xFFFFFFFFFFFFFFFFFFFFFFFFFFFFFFFFFFFFFFFF AND SWAP1 DUP1 PUSH1 0x1 ADD SLOAD SWAP1 DUP1 PUSH1 0x2 ADD SLOAD SWAP1 DUP1 PUSH1 0x3 ADD PUSH1 0x0 SWAP1 SLOAD SWAP1 PUSH2 0x100 EXP SWAP1 DIV PUSH1 0xFF AND SWAP1 DUP1 PUSH1 0x4 ADD SLOAD SWAP1 DUP1 PUSH1 0x5 ADD PUSH1 0x0 SWAP1 SLOAD SWAP1 PUSH2 0x100 EXP SWAP1 DIV PUSH1 0xFF AND SWAP1 DUP1 PUSH1 0x6 ADD SLOAD SWAP1 DUP1 PUSH1 0x7 ADD SLOAD SWAP1 DUP1 PUSH1 0x8 ADD SLOAD SWAP1 DUP1 PUSH1 0x9 ADD SLOAD SWAP1 DUP1 PUSH1 0xA ADD SLOAD SWAP1 POP DUP12 JUMP JUMPDEST PUSH1 0x0 DUP2 GT PUSH2 0x3DC3 JUMPI PUSH1 0x40 MLOAD PUSH32 0x8C379A000000000000000000000000000000000000000000000000000000000 DUP2 MSTORE PUSH1 0x4 ADD PUSH2 0x3DBA SWAP1 PUSH2 0x5B17 JUMP JUMPDEST PUSH1 0x40 MLOAD DUP1 SWAP2 SUB SWAP1 REVERT JUMPDEST DUP1 PUSH2 0x3DCD CALLER PUSH2 0x3012 JUMP JUMPDEST LT ISZERO PUSH2 0x3E0E JUMPI PUSH1 0x40 MLOAD PUSH32 0x8C379A000000000000000000000000000000000000000000000000000000000 DUP2 MSTORE PUSH1 0x4 ADD PUSH2 0x3E05 SWAP1 PUSH2 0x5B83 JUMP JUMPDEST PUSH1 0x40 MLOAD DUP1 SWAP2 SUB SWAP1 REVERT JUMPDEST PUSH1 0x0 PUSH2 0x3E18 PUSH2 0x1BA2 JUMP JUMPDEST SWAP1 POP PUSH1 0x0 PUSH2 0x3E24 PUSH2 0xC21 JUMP JUMPDEST DUP3 DUP5 PUSH2 0x3E30 SWAP2 SWAP1 PUSH2 0x50B2 JUMP JUMPDEST PUSH2 0x3E3A SWAP2 SWAP1 PUSH2 0x5123 JUMP JUMPDEST SWAP1 POP PUSH1 0x0 DUP2 GT PUSH2 0x3E7F JUMPI PUSH1 0x40 MLOAD PUSH32 0x8C379A000000000000000000000000000000000000000000000000000000000 DUP2 MSTORE PUSH1 0x4 ADD PUSH2 0x3E76 SWAP1 PUSH2 0x5BEF JUMP JUMPDEST PUSH1 0x40 MLOAD DUP1 SWAP2 SUB SWAP1 REVERT JUMPDEST PUSH2 0x3E89 CALLER DUP5 PUSH2 0x45F9 JUMP JUMPDEST PUSH1 0x0 DUP2 PUSH1 0x7 SLOAD LT ISZERO PUSH2 0x3E9D JUMPI PUSH1 0x7 SLOAD PUSH2 0x3E9F JUMP JUMPDEST DUP2 JUMPDEST SWAP1 POP DUP1 PUSH1 0x7 PUSH1 0x0 DUP3 DUP3 SLOAD PUSH2 0x3EB3 SWAP2 SWAP1 PUSH2 0x4EE7 JUMP JUMPDEST SWAP3 POP POP DUP2 SWAP1 SSTORE POP PUSH1 0x0 DUP2 DUP4 PUSH2 0x3EC8 SWAP2 SWAP1 PUSH2 0x4EE7 JUMP JUMPDEST SWAP1 POP PUSH1 0x0 DUP2 GT ISZERO PUSH2 0x3FDD JUMPI PUSH1 0x0 DUP2 SWAP1 POP PUSH1 0x0 JUMPDEST PUSH1 0x0 DUP1 SLOAD SWAP1 POP DUP2 LT ISZERO PUSH2 0x3FDA JUMPI PUSH1 0x0 DUP1 DUP3 DUP2 SLOAD DUP2 LT PUSH2 0x3EFD JUMPI PUSH2 0x3EFC PUSH2 0x4FF3 JUMP JUMPDEST JUMPDEST SWAP1 PUSH1 0x0 MSTORE PUSH1 0x20 PUSH1 0x0 KECCAK256 SWAP1 PUSH1 0xB MUL ADD PUSH1 0x9 ADD SLOAD SUB ISZERO PUSH2 0x3FCD JUMPI PUSH1 0x0 DUP3 PUSH1 0x0 DUP4 DUP2 SLOAD DUP2 LT PUSH2 0x3F2C JUMPI PUSH2 0x3F2B PUSH2 0x4FF3 JUMP JUMPDEST JUMPDEST SWAP1 PUSH1 0x0 MSTORE PUSH1 0x20 PUSH1 0x0 KECCAK256 SWAP1 PUSH1 0xB MUL ADD PUSH1 0x9 ADD SLOAD LT ISZERO PUSH2 0x3F6F JUMPI PUSH1 0x0 DUP3 DUP2 SLOAD DUP2 LT PUSH2 0x3F58 JUMPI PUSH2 0x3F57 PUSH2 0x4FF3 JUMP JUMPDEST JUMPDEST SWAP1 PUSH1 0x0 MSTORE PUSH1 0x20 PUSH1 0x0 KECCAK256 SWAP1 PUSH1 0xB MUL ADD PUSH1 0x9 ADD SLOAD PUSH2 0x3F71 JUMP JUMPDEST DUP3 JUMPDEST SWAP1 POP DUP1 PUSH1 0x0 DUP4 DUP2 SLOAD DUP2 LT PUSH2 0x3F88 JUMPI PUSH2 0x3F87 PUSH2 0x4FF3 JUMP JUMPDEST JUMPDEST SWAP1 PUSH1 0x0 MSTORE PUSH1 0x20 PUSH1 0x0 KECCAK256 SWAP1 PUSH1 0xB MUL ADD PUSH1 0x9 ADD PUSH1 0x0 DUP3 DUP3 SLOAD PUSH2 0x3FA8 SWAP2 SWAP1 PUSH2 0x4EE7 JUMP JUMPDEST SWAP3 POP POP DUP2 SWAP1 SSTORE POP DUP1 DUP4 PUSH2 0x3FBB SWAP2 SWAP1 PUSH2 0x4EE7 JUMP JUMPDEST SWAP3 POP PUSH1 0x0 DUP4 SUB PUSH2 0x3FCB JUMPI POP PUSH2 0x3FDA JUMP JUMPDEST POP JUMPDEST DUP1 DUP1 PUSH1 0x1 ADD SWAP2 POP POP PUSH2 0x3EDB JUMP JUMPDEST POP POP JUMPDEST PUSH1 0x0 CALLER PUSH20 0xFFFFFFFFFFFFFFFFFFFFFFFFFFFFFFFFFFFFFFFF AND DUP5 PUSH1 0x40 MLOAD PUSH2 0x4003 SWAP1 PUSH2 0x5C40 JUMP JUMPDEST PUSH1 0x0 PUSH1 0x40 MLOAD DUP1 DUP4 SUB DUP2 DUP6 DUP8 GAS CALL SWAP3 POP POP POP RETURNDATASIZE DUP1 PUSH1 0x0 DUP2 EQ PUSH2 0x4040 JUMPI PUSH1 0x40 MLOAD SWAP2 POP PUSH1 0x1F NOT PUSH1 0x3F RETURNDATASIZE ADD AND DUP3 ADD PUSH1 0x40 MSTORE RETURNDATASIZE DUP3 MSTORE RETURNDATASIZE PUSH1 0x0 PUSH1 0x20 DUP5 ADD RETURNDATACOPY PUSH2 0x4045 JUMP JUMPDEST PUSH1 0x60 SWAP2 POP JUMPDEST POP POP SWAP1 POP DUP1 PUSH2 0x4089 JUMPI PUSH1 0x40 MLOAD PUSH32 0x8C379A000000000000000000000000000000000000000000000000000000000 DUP2 MSTORE PUSH1 0x4 ADD PUSH2 0x4080 SWAP1 PUSH2 0x5CA1 JUMP JUMPDEST PUSH1 0x40 MLOAD DUP1 SWAP2 SUB SWAP1 REVERT JUMPDEST CALLER PUSH20 0xFFFFFFFFFFFFFFFFFFFFFFFFFFFFFFFFFFFFFFFF AND PUSH32 0x8DC57A14DABAE9681EC851990EB2B72788CD4AA030F739D90E5C614A9DD174E4 DUP8 DUP7 PUSH1 0x40 MLOAD PUSH2 0x40D1 SWAP3 SWAP2 SWAP1 PUSH2 0x565F JUMP JUMPDEST PUSH1 0x40 MLOAD DUP1 SWAP2 SUB SWAP1 LOG2 POP POP POP POP POP POP JUMP JUMPDEST PUSH1 0x2 PUSH1 0x0 SWAP1 SLOAD SWAP1 PUSH2 0x100 EXP SWAP1 DIV PUSH20 0xFFFFFFFFFFFFFFFFFFFFFFFFFFFFFFFFFFFFFFFF AND PUSH20 0xFFFFFFFFFFFFFFFFFFFFFFFFFFFFFFFFFFFFFFFF AND PUSH4 0x23B872DD CALLER ADDRESS DUP5 PUSH1 0x40 MLOAD DUP5 PUSH4 0xFFFFFFFF AND PUSH1 0xE0 SHL DUP2 MSTORE PUSH1 0x4 ADD PUSH2 0x4140 SWAP4 SWAP3 SWAP2 SWAP1 PUSH2 0x5022 JUMP JUMPDEST PUSH1 0x20 PUSH1 0x40 MLOAD DUP1 DUP4 SUB DUP2 PUSH1 0x0 DUP8 GAS CALL ISZERO DUP1 ISZERO PUSH2 0x415F JUMPI RETURNDATASIZE PUSH1 0x0 DUP1 RETURNDATACOPY RETURNDATASIZE PUSH1 0x0 REVERT JUMPDEST POP POP POP POP PUSH1 0x40 MLOAD RETURNDATASIZE PUSH1 0x1F NOT PUSH1 0x1F DUP3 ADD AND DUP3 ADD DUP1 PUSH1 0x40 MSTORE POP DUP2 ADD SWAP1 PUSH2 0x4183 SWAP2 SWAP1 PUSH2 0x5085 JUMP JUMPDEST POP PUSH1 0x2 PUSH1 0x0 SWAP1 SLOAD SWAP1 PUSH2 0x100 EXP SWAP1 DIV PUSH20 0xFFFFFFFFFFFFFFFFFFFFFFFFFFFFFFFFFFFFFFFF AND PUSH20 0xFFFFFFFFFFFFFFFFFFFFFFFFFFFFFFFFFFFFFFFF AND PUSH4 0x95EA7B3 PUSH1 0x0 DUP5 DUP2 SLOAD DUP2 LT PUSH2 0x41D6 JUMPI PUSH2 0x41D5 PUSH2 0x4FF3 JUMP JUMPDEST JUMPDEST SWAP1 PUSH1 0x0 MSTORE PUSH1 0x20 PUSH1 0x0 KECCAK256 SWAP1 PUSH1 0xB MUL ADD PUSH1 0x0 ADD PUSH1 0x0 SWAP1 SLOAD SWAP1 PUSH2 0x100 EXP SWAP1 DIV PUSH20 0xFFFFFFFFFFFFFFFFFFFFFFFFFFFFFFFFFFFFFFFF AND DUP4 PUSH1 0x40 MLOAD DUP4 PUSH4 0xFFFFFFFF AND PUSH1 0xE0 SHL DUP2 MSTORE PUSH1 0x4 ADD PUSH2 0x4226 SWAP3 SWAP2 SWAP1 PUSH2 0x54E5 JUMP JUMPDEST PUSH1 0x20 PUSH1 0x40 MLOAD DUP1 DUP4 SUB DUP2 PUSH1 0x0 DUP8 GAS CALL ISZERO DUP1 ISZERO PUSH2 0x4245 JUMPI RETURNDATASIZE PUSH1 0x0 DUP1 RETURNDATACOPY RETURNDATASIZE PUSH1 0x0 REVERT JUMPDEST POP POP POP POP PUSH1 0x40 MLOAD RETURNDATASIZE PUSH1 0x1F NOT PUSH1 0x1F DUP3 ADD AND DUP3 ADD DUP1 PUSH1 0x40 MSTORE POP DUP2 ADD SWAP1 PUSH2 0x4269 SWAP2 SWAP1 PUSH2 0x5085 JUMP JUMPDEST POP PUSH1 0x0 DUP3 DUP2 SLOAD DUP2 LT PUSH2 0x427E JUMPI PUSH2 0x427D PUSH2 0x4FF3 JUMP JUMPDEST JUMPDEST SWAP1 PUSH1 0x0 MSTORE PUSH1 0x20 PUSH1 0x0 KECCAK256 SWAP1 PUSH1 0xB MUL ADD PUSH1 0x0 ADD PUSH1 0x0 SWAP1 SLOAD SWAP1 PUSH2 0x100 EXP SWAP1 DIV PUSH20 0xFFFFFFFFFFFFFFFFFFFFFFFFFFFFFFFFFFFFFFFF AND PUSH20 0xFFFFFFFFFFFFFFFFFFFFFFFFFFFFFFFFFFFFFFFF AND PUSH4 0x846B909A DUP3 PUSH1 0x40 MLOAD DUP3 PUSH4 0xFFFFFFFF AND PUSH1 0xE0 SHL DUP2 MSTORE PUSH1 0x4 ADD PUSH2 0x42E8 SWAP2 SWAP1 PUSH2 0x48FF JUMP JUMPDEST PUSH1 0x0 PUSH1 0x40 MLOAD DUP1 DUP4 SUB DUP2 PUSH1 0x0 DUP8 DUP1 EXTCODESIZE ISZERO DUP1 ISZERO PUSH2 0x4302 JUMPI PUSH1 0x0 DUP1 REVERT JUMPDEST POP GAS CALL ISZERO DUP1 ISZERO PUSH2 0x4316 JUMPI RETURNDATASIZE PUSH1 0x0 DUP1 RETURNDATACOPY RETURNDATASIZE PUSH1 0x0 REVERT JUMPDEST POP POP POP POP PUSH1 0x0 DUP3 DUP2 SLOAD DUP2 LT PUSH2 0x432E JUMPI PUSH2 0x432D PUSH2 0x4FF3 JUMP JUMPDEST JUMPDEST SWAP1 PUSH1 0x0 MSTORE PUSH1 0x20 PUSH1 0x0 KECCAK256 SWAP1 PUSH1 0xB MUL ADD PUSH1 0x0 ADD PUSH1 0x0 SWAP1 SLOAD SWAP1 PUSH2 0x100 EXP SWAP1 DIV PUSH20 0xFFFFFFFFFFFFFFFFFFFFFFFFFFFFFFFFFFFFFFFF AND PUSH20 0xFFFFFFFFFFFFFFFFFFFFFFFFFFFFFFFFFFFFFFFF AND PUSH4 0xA9059CBB CALLER PUSH1 0x0 DUP6 DUP2 SLOAD DUP2 LT PUSH2 0x4390 JUMPI PUSH2 0x438F PUSH2 0x4FF3 JUMP JUMPDEST JUMPDEST SWAP1 PUSH1 0x0 MSTORE PUSH1 0x20 PUSH1 0x0 KECCAK256 SWAP1 PUSH1 0xB MUL ADD PUSH1 0x0 ADD PUSH1 0x0 SWAP1 SLOAD SWAP1 PUSH2 0x100 EXP SWAP1 DIV PUSH20 0xFFFFFFFFFFFFFFFFFFFFFFFFFFFFFFFFFFFFFFFF AND PUSH20 0xFFFFFFFFFFFFFFFFFFFFFFFFFFFFFFFFFFFFFFFF AND PUSH4 0x70A08231 ADDRESS PUSH1 0x40 MLOAD DUP3 PUSH4 0xFFFFFFFF AND PUSH1 0xE0 SHL DUP2 MSTORE PUSH1 0x4 ADD PUSH2 0x43FA SWAP2 SWAP1 PUSH2 0x48D5 JUMP JUMPDEST PUSH1 0x20 PUSH1 0x40 MLOAD DUP1 DUP4 SUB DUP2 DUP7 GAS STATICCALL ISZERO DUP1 ISZERO PUSH2 0x4417 JUMPI RETURNDATASIZE PUSH1 0x0 DUP1 RETURNDATACOPY RETURNDATASIZE PUSH1 0x0 REVERT JUMPDEST POP POP POP POP PUSH1 0x40 MLOAD RETURNDATASIZE PUSH1 0x1F NOT PUSH1 0x1F DUP3 ADD AND DUP3 ADD DUP1 PUSH1 0x40 MSTORE POP DUP2 ADD SWAP1 PUSH2 0x443B SWAP2 SWAP1 PUSH2 0x5169 JUMP JUMPDEST PUSH1 0x40 MLOAD DUP4 PUSH4 0xFFFFFFFF AND PUSH1 0xE0 SHL DUP2 MSTORE PUSH1 0x4 ADD PUSH2 0x4458 SWAP3 SWAP2 SWAP1 PUSH2 0x54E5 JUMP JUMPDEST PUSH1 0x20 PUSH1 0x40 MLOAD DUP1 DUP4 SUB DUP2 PUSH1 0x0 DUP8 GAS CALL ISZERO DUP1 ISZERO PUSH2 0x4477 JUMPI RETURNDATASIZE PUSH1 0x0 DUP1 RETURNDATACOPY RETURNDATASIZE PUSH1 0x0 REVERT JUMPDEST POP POP POP POP PUSH1 0x40 MLOAD RETURNDATASIZE PUSH1 0x1F NOT PUSH1 0x1F DUP3 ADD AND DUP3 ADD DUP1 PUSH1 0x40 MSTORE POP DUP2 ADD SWAP1 PUSH2 0x449B SWAP2 SWAP1 PUSH2 0x5085 JUMP JUMPDEST POP ADDRESS PUSH20 0xFFFFFFFFFFFFFFFFFFFFFFFFFFFFFFFFFFFFFFFF AND PUSH4 0x6B7619C4 DUP4 DUP4 PUSH1 0x40 MLOAD DUP4 PUSH4 0xFFFFFFFF AND PUSH1 0xE0 SHL DUP2 MSTORE PUSH1 0x4 ADD PUSH2 0x44D7 SWAP3 SWAP2 SWAP1 PUSH2 0x565F JUMP JUMPDEST PUSH1 0x0 PUSH1 0x40 MLOAD DUP1 DUP4 SUB DUP2 PUSH1 0x0 DUP8 DUP1 EXTCODESIZE ISZERO DUP1 ISZERO PUSH2 0x44F1 JUMPI PUSH1 0x0 DUP1 REVERT JUMPDEST POP GAS CALL ISZERO DUP1 ISZERO PUSH2 0x4505 JUMPI RETURNDATASIZE PUSH1 0x0 DUP1 RETURNDATACOPY RETURNDATASIZE PUSH1 0x0 REVERT JUMPDEST POP POP POP POP ADDRESS PUSH20 0xFFFFFFFFFFFFFFFFFFFFFFFFFFFFFFFFFFFFFFFF AND PUSH4 0xCB254F7E DUP4 DUP4 PUSH1 0x40 MLOAD DUP4 PUSH4 0xFFFFFFFF AND PUSH1 0xE0 SHL DUP2 MSTORE PUSH1 0x4 ADD PUSH2 0x4544 SWAP3 SWAP2 SWAP1 PUSH2 0x565F JUMP JUMPDEST PUSH1 0x0 PUSH1 0x40 MLOAD DUP1 DUP4 SUB DUP2 PUSH1 0x0 DUP8 DUP1 EXTCODESIZE ISZERO DUP1 ISZERO PUSH2 0x455E JUMPI PUSH1 0x0 DUP1 REVERT JUMPDEST POP GAS CALL ISZERO DUP1 ISZERO PUSH2 0x4572 JUMPI RETURNDATASIZE PUSH1 0x0 DUP1 RETURNDATACOPY RETURNDATASIZE PUSH1 0x0 REVERT JUMPDEST POP POP POP POP POP POP JUMP JUMPDEST PUSH9 0x5345CDF77EB68F44C SLOAD DUP2 DUP2 ADD DUP2 DUP2 LT ISZERO PUSH2 0x459E JUMPI PUSH4 0xE5CFE957 PUSH1 0x0 MSTORE PUSH1 0x4 PUSH1 0x1C REVERT JUMPDEST DUP1 PUSH9 0x5345CDF77EB68F44C SSTORE PUSH4 0x87A211A2 PUSH1 0xC MSTORE DUP4 PUSH1 0x0 MSTORE PUSH1 0x20 PUSH1 0xC KECCAK256 DUP4 DUP2 SLOAD ADD DUP2 SSTORE DUP4 PUSH1 0x20 MSTORE PUSH1 0xC MLOAD PUSH1 0x60 SHR PUSH1 0x0 PUSH32 0xDDF252AD1BE2C89B69C2B068FC378DAA952BA7F163C4A11628F55A4DF523B3EF PUSH1 0x20 DUP1 LOG3 POP POP POP POP POP JUMP JUMPDEST PUSH4 0x87A211A2 PUSH1 0xC MSTORE DUP2 PUSH1 0x0 MSTORE PUSH1 0x20 PUSH1 0xC KECCAK256 DUP1 SLOAD DUP1 DUP4 GT ISZERO PUSH2 0x4622 JUMPI PUSH4 0xF4D678B8 PUSH1 0x0 MSTORE PUSH1 0x4 PUSH1 0x1C REVERT JUMPDEST DUP3 DUP2 SUB DUP3 SSTORE DUP3 PUSH9 0x5345CDF77EB68F44C SLOAD SUB PUSH9 0x5345CDF77EB68F44C SSTORE DUP3 PUSH1 0x0 MSTORE PUSH1 0x0 DUP5 PUSH1 0x60 SHL PUSH1 0x60 SHR PUSH32 0xDDF252AD1BE2C89B69C2B068FC378DAA952BA7F163C4A11628F55A4DF523B3EF PUSH1 0x20 PUSH1 0x0 LOG3 POP POP POP POP JUMP JUMPDEST PUSH1 0x0 DUP2 MLOAD SWAP1 POP SWAP2 SWAP1 POP JUMP JUMPDEST PUSH1 0x0 DUP3 DUP3 MSTORE PUSH1 0x20 DUP3 ADD SWAP1 POP SWAP3 SWAP2 POP POP JUMP JUMPDEST PUSH1 0x0 JUMPDEST DUP4 DUP2 LT ISZERO PUSH2 0x46B2 JUMPI DUP1 DUP3 ADD MLOAD DUP2 DUP5 ADD MSTORE PUSH1 0x20 DUP2 ADD SWAP1 POP PUSH2 0x4697 JUMP JUMPDEST PUSH1 0x0 DUP5 DUP5 ADD MSTORE POP POP POP POP JUMP JUMPDEST PUSH1 0x0 PUSH1 0x1F NOT PUSH1 0x1F DUP4 ADD AND SWAP1 POP SWAP2 SWAP1 POP JUMP JUMPDEST PUSH1 0x0 PUSH2 0x46DA DUP3 PUSH2 0x4678 JUMP JUMPDEST PUSH2 0x46E4 DUP2 DUP6 PUSH2 0x4683 JUMP JUMPDEST SWAP4 POP PUSH2 0x46F4 DUP2 DUP6 PUSH1 0x20 DUP7 ADD PUSH2 0x4694 JUMP JUMPDEST PUSH2 0x46FD DUP2 PUSH2 0x46BE JUMP JUMPDEST DUP5 ADD SWAP2 POP POP SWAP3 SWAP2 POP POP JUMP JUMPDEST PUSH1 0x0 PUSH1 0x20 DUP3 ADD SWAP1 POP DUP2 DUP2 SUB PUSH1 0x0 DUP4 ADD MSTORE PUSH2 0x4722 DUP2 DUP5 PUSH2 0x46CF JUMP JUMPDEST SWAP1 POP SWAP3 SWAP2 POP POP JUMP JUMPDEST PUSH1 0x0 DUP1 REVERT JUMPDEST PUSH1 0x0 PUSH20 0xFFFFFFFFFFFFFFFFFFFFFFFFFFFFFFFFFFFFFFFF DUP3 AND SWAP1 POP SWAP2 SWAP1 POP JUMP JUMPDEST PUSH1 0x0 PUSH2 0x475A DUP3 PUSH2 0x472F JUMP JUMPDEST SWAP1 POP SWAP2 SWAP1 POP JUMP JUMPDEST PUSH2 0x476A DUP2 PUSH2 0x474F JUMP JUMPDEST DUP2 EQ PUSH2 0x4775 JUMPI PUSH1 0x0 DUP1 REVERT JUMPDEST POP JUMP JUMPDEST PUSH1 0x0 DUP2 CALLDATALOAD SWAP1 POP PUSH2 0x4787 DUP2 PUSH2 0x4761 JUMP JUMPDEST SWAP3 SWAP2 POP POP JUMP JUMPDEST PUSH1 0x0 DUP2 SWAP1 POP SWAP2 SWAP1 POP JUMP JUMPDEST PUSH2 0x47A0 DUP2 PUSH2 0x478D JUMP JUMPDEST DUP2 EQ PUSH2 0x47AB JUMPI PUSH1 0x0 DUP1 REVERT JUMPDEST POP JUMP JUMPDEST PUSH1 0x0 DUP2 CALLDATALOAD SWAP1 POP PUSH2 0x47BD DUP2 PUSH2 0x4797 JUMP JUMPDEST SWAP3 SWAP2 POP POP JUMP JUMPDEST PUSH1 0x0 DUP1 PUSH1 0x40 DUP4 DUP6 SUB SLT ISZERO PUSH2 0x47DA JUMPI PUSH2 0x47D9 PUSH2 0x472A JUMP JUMPDEST JUMPDEST PUSH1 0x0 PUSH2 0x47E8 DUP6 DUP3 DUP7 ADD PUSH2 0x4778 JUMP JUMPDEST SWAP3 POP POP PUSH1 0x20 PUSH2 0x47F9 DUP6 DUP3 DUP7 ADD PUSH2 0x47AE JUMP JUMPDEST SWAP2 POP POP SWAP3 POP SWAP3 SWAP1 POP JUMP JUMPDEST PUSH1 0x0 DUP2 ISZERO ISZERO SWAP1 POP SWAP2 SWAP1 POP JUMP JUMPDEST PUSH2 0x4818 DUP2 PUSH2 0x4803 JUMP JUMPDEST DUP3 MSTORE POP POP JUMP JUMPDEST PUSH1 0x0 PUSH1 0x20 DUP3 ADD SWAP1 POP PUSH2 0x4833 PUSH1 0x0 DUP4 ADD DUP5 PUSH2 0x480F JUMP JUMPDEST SWAP3 SWAP2 POP POP JUMP JUMPDEST PUSH1 0x0 DUP1 PUSH1 0x0 DUP1 PUSH1 0x0 DUP1 PUSH1 0xC0 DUP8 DUP10 SUB SLT ISZERO PUSH2 0x4856 JUMPI PUSH2 0x4855 PUSH2 0x472A JUMP JUMPDEST JUMPDEST PUSH1 0x0 PUSH2 0x4864 DUP10 DUP3 DUP11 ADD PUSH2 0x47AE JUMP JUMPDEST SWAP7 POP POP PUSH1 0x20 PUSH2 0x4875 DUP10 DUP3 DUP11 ADD PUSH2 0x4778 JUMP JUMPDEST SWAP6 POP POP PUSH1 0x40 PUSH2 0x4886 DUP10 DUP3 DUP11 ADD PUSH2 0x47AE JUMP JUMPDEST SWAP5 POP POP PUSH1 0x60 PUSH2 0x4897 DUP10 DUP3 DUP11 ADD PUSH2 0x47AE JUMP JUMPDEST SWAP4 POP POP PUSH1 0x80 PUSH2 0x48A8 DUP10 DUP3 DUP11 ADD PUSH2 0x4778 JUMP JUMPDEST SWAP3 POP POP PUSH1 0xA0 PUSH2 0x48B9 DUP10 DUP3 DUP11 ADD PUSH2 0x47AE JUMP JUMPDEST SWAP2 POP POP SWAP3 SWAP6 POP SWAP3 SWAP6 POP SWAP3 SWAP6 JUMP JUMPDEST PUSH2 0x48CF DUP2 PUSH2 0x474F JUMP JUMPDEST DUP3 MSTORE POP POP JUMP JUMPDEST PUSH1 0x0 PUSH1 0x20 DUP3 ADD SWAP1 POP PUSH2 0x48EA PUSH1 0x0 DUP4 ADD DUP5 PUSH2 0x48C6 JUMP JUMPDEST SWAP3 SWAP2 POP POP JUMP JUMPDEST PUSH2 0x48F9 DUP2 PUSH2 0x478D JUMP JUMPDEST DUP3 MSTORE POP POP JUMP JUMPDEST PUSH1 0x0 PUSH1 0x20 DUP3 ADD SWAP1 POP PUSH2 0x4914 PUSH1 0x0 DUP4 ADD DUP5 PUSH2 0x48F0 JUMP JUMPDEST SWAP3 SWAP2 POP POP JUMP JUMPDEST PUSH1 0x0 DUP1 PUSH1 0x40 DUP4 DUP6 SUB SLT ISZERO PUSH2 0x4931 JUMPI PUSH2 0x4930 PUSH2 0x472A JUMP JUMPDEST JUMPDEST PUSH1 0x0 PUSH2 0x493F DUP6 DUP3 DUP7 ADD PUSH2 0x47AE JUMP JUMPDEST SWAP3 POP POP PUSH1 0x20 PUSH2 0x4950 DUP6 DUP3 DUP7 ADD PUSH2 0x47AE JUMP JUMPDEST SWAP2 POP POP SWAP3 POP SWAP3 SWAP1 POP JUMP JUMPDEST PUSH1 0x0 DUP1 PUSH1 0x0 PUSH1 0x60 DUP5 DUP7 SUB SLT ISZERO PUSH2 0x4973 JUMPI PUSH2 0x4972 PUSH2 0x472A JUMP JUMPDEST JUMPDEST PUSH1 0x0 PUSH2 0x4981 DUP7 DUP3 DUP8 ADD PUSH2 0x4778 JUMP JUMPDEST SWAP4 POP POP PUSH1 0x20 PUSH2 0x4992 DUP7 DUP3 DUP8 ADD PUSH2 0x4778 JUMP JUMPDEST SWAP3 POP POP PUSH1 0x40 PUSH2 0x49A3 DUP7 DUP3 DUP8 ADD PUSH2 0x47AE JUMP JUMPDEST SWAP2 POP POP SWAP3 POP SWAP3 POP SWAP3 JUMP JUMPDEST PUSH1 0x0 PUSH1 0xFF DUP3 AND SWAP1 POP SWAP2 SWAP1 POP JUMP JUMPDEST PUSH2 0x49C3 DUP2 PUSH2 0x49AD JUMP JUMPDEST DUP3 MSTORE POP POP JUMP JUMPDEST PUSH1 0x0 PUSH1 0x20 DUP3 ADD SWAP1 POP PUSH2 0x49DE PUSH1 0x0 DUP4 ADD DUP5 PUSH2 0x49BA JUMP JUMPDEST SWAP3 SWAP2 POP POP JUMP JUMPDEST PUSH1 0x0 PUSH1 0x20 DUP3 DUP5 SUB SLT ISZERO PUSH2 0x49FA JUMPI PUSH2 0x49F9 PUSH2 0x472A JUMP JUMPDEST JUMPDEST PUSH1 0x0 PUSH2 0x4A08 DUP5 DUP3 DUP6 ADD PUSH2 0x47AE JUMP JUMPDEST SWAP2 POP POP SWAP3 SWAP2 POP POP JUMP JUMPDEST PUSH1 0x0 DUP1 PUSH1 0x0 PUSH1 0x60 DUP5 DUP7 SUB SLT ISZERO PUSH2 0x4A2A JUMPI PUSH2 0x4A29 PUSH2 0x472A JUMP JUMPDEST JUMPDEST PUSH1 0x0 PUSH2 0x4A38 DUP7 DUP3 DUP8 ADD PUSH2 0x47AE JUMP JUMPDEST SWAP4 POP POP PUSH1 0x20 PUSH2 0x4A49 DUP7 DUP3 DUP8 ADD PUSH2 0x47AE JUMP JUMPDEST SWAP3 POP POP PUSH1 0x40 PUSH2 0x4A5A DUP7 DUP3 DUP8 ADD PUSH2 0x47AE JUMP JUMPDEST SWAP2 POP POP SWAP3 POP SWAP3 POP SWAP3 JUMP JUMPDEST PUSH1 0x0 PUSH1 0x20 DUP3 DUP5 SUB SLT ISZERO PUSH2 0x4A7A JUMPI PUSH2 0x4A79 PUSH2 0x472A JUMP JUMPDEST JUMPDEST PUSH1 0x0 PUSH2 0x4A88 DUP5 DUP3 DUP6 ADD PUSH2 0x4778 JUMP JUMPDEST SWAP2 POP POP SWAP3 SWAP2 POP POP JUMP JUMPDEST PUSH1 0x0 DUP2 SWAP1 POP SWAP2 SWAP1 POP JUMP JUMPDEST PUSH1 0x0 PUSH2 0x4AB6 PUSH2 0x4AB1 PUSH2 0x4AAC DUP5 PUSH2 0x472F JUMP JUMPDEST PUSH2 0x4A91 JUMP JUMPDEST PUSH2 0x472F JUMP JUMPDEST SWAP1 POP SWAP2 SWAP1 POP JUMP JUMPDEST PUSH1 0x0 PUSH2 0x4AC8 DUP3 PUSH2 0x4A9B JUMP JUMPDEST SWAP1 POP SWAP2 SWAP1 POP JUMP JUMPDEST PUSH1 0x0 PUSH2 0x4ADA DUP3 PUSH2 0x4ABD JUMP JUMPDEST SWAP1 POP SWAP2 SWAP1 POP JUMP JUMPDEST PUSH2 0x4AEA DUP2 PUSH2 0x4ACF JUMP JUMPDEST DUP3 MSTORE POP POP JUMP JUMPDEST PUSH1 0x0 PUSH1 0x20 DUP3 ADD SWAP1 POP PUSH2 0x4B05 PUSH1 0x0 DUP4 ADD DUP5 PUSH2 0x4AE1 JUMP JUMPDEST SWAP3 SWAP2 POP POP JUMP JUMPDEST PUSH1 0x0 DUP2 SWAP1 POP SWAP2 SWAP1 POP JUMP JUMPDEST PUSH2 0x4B1E DUP2 PUSH2 0x4B0B JUMP JUMPDEST DUP3 MSTORE POP POP JUMP JUMPDEST PUSH1 0x0 PUSH1 0x20 DUP3 ADD SWAP1 POP PUSH2 0x4B39 PUSH1 0x0 DUP4 ADD DUP5 PUSH2 0x4B15 JUMP JUMPDEST SWAP3 SWAP2 POP POP JUMP JUMPDEST PUSH1 0x0 PUSH2 0x4B4A DUP3 PUSH2 0x4ABD JUMP JUMPDEST SWAP1 POP SWAP2 SWAP1 POP JUMP JUMPDEST PUSH2 0x4B5A DUP2 PUSH2 0x4B3F JUMP JUMPDEST DUP3 MSTORE POP POP JUMP JUMPDEST PUSH1 0x0 PUSH1 0x20 DUP3 ADD SWAP1 POP PUSH2 0x4B75 PUSH1 0x0 DUP4 ADD DUP5 PUSH2 0x4B51 JUMP JUMPDEST SWAP3 SWAP2 POP POP JUMP JUMPDEST PUSH1 0x0 PUSH2 0x4B86 DUP3 PUSH2 0x4ABD JUMP JUMPDEST SWAP1 POP SWAP2 SWAP1 POP JUMP JUMPDEST PUSH2 0x4B96 DUP2 PUSH2 0x4B7B JUMP JUMPDEST DUP3 MSTORE POP POP JUMP JUMPDEST PUSH1 0x0 PUSH1 0x20 DUP3 ADD SWAP1 POP PUSH2 0x4BB1 PUSH1 0x0 DUP4 ADD DUP5 PUSH2 0x4B8D JUMP JUMPDEST SWAP3 SWAP2 POP POP JUMP JUMPDEST PUSH1 0x0 PUSH3 0xFFFFFF DUP3 AND SWAP1 POP SWAP2 SWAP1 POP JUMP JUMPDEST PUSH2 0x4BCF DUP2 PUSH2 0x4BB7 JUMP JUMPDEST DUP3 MSTORE POP POP JUMP JUMPDEST PUSH1 0x0 PUSH1 0x20 DUP3 ADD SWAP1 POP PUSH2 0x4BEA PUSH1 0x0 DUP4 ADD DUP5 PUSH2 0x4BC6 JUMP JUMPDEST SWAP3 SWAP2 POP POP JUMP JUMPDEST PUSH1 0x0 DUP1 PUSH1 0x40 DUP4 DUP6 SUB SLT ISZERO PUSH2 0x4C07 JUMPI PUSH2 0x4C06 PUSH2 0x472A JUMP JUMPDEST JUMPDEST PUSH1 0x0 PUSH2 0x4C15 DUP6 DUP3 DUP7 ADD PUSH2 0x4778 JUMP JUMPDEST SWAP3 POP POP PUSH1 0x20 PUSH2 0x4C26 DUP6 DUP3 DUP7 ADD PUSH2 0x4778 JUMP JUMPDEST SWAP2 POP POP SWAP3 POP SWAP3 SWAP1 POP JUMP JUMPDEST PUSH1 0x0 PUSH2 0x160 DUP3 ADD SWAP1 POP PUSH2 0x4C46 PUSH1 0x0 DUP4 ADD DUP15 PUSH2 0x48C6 JUMP JUMPDEST PUSH2 0x4C53 PUSH1 0x20 DUP4 ADD DUP14 PUSH2 0x48F0 JUMP JUMPDEST PUSH2 0x4C60 PUSH1 0x40 DUP4 ADD DUP13 PUSH2 0x48F0 JUMP JUMPDEST PUSH2 0x4C6D PUSH1 0x60 DUP4 ADD DUP12 PUSH2 0x480F JUMP JUMPDEST PUSH2 0x4C7A PUSH1 0x80 DUP4 ADD DUP11 PUSH2 0x48F0 JUMP JUMPDEST PUSH2 0x4C87 PUSH1 0xA0 DUP4 ADD DUP10 PUSH2 0x480F JUMP JUMPDEST PUSH2 0x4C94 PUSH1 0xC0 DUP4 ADD DUP9 PUSH2 0x48F0 JUMP JUMPDEST PUSH2 0x4CA1 PUSH1 0xE0 DUP4 ADD DUP8 PUSH2 0x48F0 JUMP JUMPDEST PUSH2 0x4CAF PUSH2 0x100 DUP4 ADD DUP7 PUSH2 0x48F0 JUMP JUMPDEST PUSH2 0x4CBD PUSH2 0x120 DUP4 ADD DUP6 PUSH2 0x48F0 JUMP JUMPDEST PUSH2 0x4CCB PUSH2 0x140 DUP4 ADD DUP5 PUSH2 0x48F0 JUMP JUMPDEST SWAP13 SWAP12 POP POP POP POP POP POP POP POP POP POP POP POP JUMP JUMPDEST PUSH32 0x4E6F7420617574686F72697A6564000000000000000000000000000000000000 PUSH1 0x0 DUP3 ADD MSTORE POP JUMP JUMPDEST PUSH1 0x0 PUSH2 0x4D11 PUSH1 0xE DUP4 PUSH2 0x4683 JUMP JUMPDEST SWAP2 POP PUSH2 0x4D1C DUP3 PUSH2 0x4CDB JUMP JUMPDEST PUSH1 0x20 DUP3 ADD SWAP1 POP SWAP2 SWAP1 POP JUMP JUMPDEST PUSH1 0x0 PUSH1 0x20 DUP3 ADD SWAP1 POP DUP2 DUP2 SUB PUSH1 0x0 DUP4 ADD MSTORE PUSH2 0x4D40 DUP2 PUSH2 0x4D04 JUMP JUMPDEST SWAP1 POP SWAP2 SWAP1 POP JUMP JUMPDEST PUSH32 0x4769676153747261740000000000000000000000000000000000000000000000 PUSH1 0x0 DUP3 ADD MSTORE POP JUMP JUMPDEST PUSH1 0x0 PUSH2 0x4D7D PUSH1 0x9 DUP4 PUSH2 0x4683 JUMP JUMPDEST SWAP2 POP PUSH2 0x4D88 DUP3 PUSH2 0x4D47 JUMP JUMPDEST PUSH1 0x20 DUP3 ADD SWAP1 POP SWAP2 SWAP1 POP JUMP JUMPDEST PUSH32 0x4747000000000000000000000000000000000000000000000000000000000000 PUSH1 0x0 DUP3 ADD MSTORE POP JUMP JUMPDEST PUSH1 0x0 PUSH2 0x4DC9 PUSH1 0x2 DUP4 PUSH2 0x4683 JUMP JUMPDEST SWAP2 POP PUSH2 0x4DD4 DUP3 PUSH2 0x4D93 JUMP JUMPDEST PUSH1 0x20 DUP3 ADD SWAP1 POP SWAP2 SWAP1 POP JUMP JUMPDEST PUSH1 0x0 PUSH2 0x120 DUP3 ADD SWAP1 POP PUSH2 0x4DF5 PUSH1 0x0 DUP4 ADD DUP11 PUSH2 0x48C6 JUMP JUMPDEST PUSH2 0x4E02 PUSH1 0x20 DUP4 ADD DUP10 PUSH2 0x48C6 JUMP JUMPDEST PUSH2 0x4E0F PUSH1 0x40 DUP4 ADD DUP9 PUSH2 0x48F0 JUMP JUMPDEST PUSH2 0x4E1C PUSH1 0x60 DUP4 ADD DUP8 PUSH2 0x48F0 JUMP JUMPDEST PUSH2 0x4E29 PUSH1 0x80 DUP4 ADD DUP7 PUSH2 0x48F0 JUMP JUMPDEST PUSH2 0x4E36 PUSH1 0xA0 DUP4 ADD DUP6 PUSH2 0x48C6 JUMP JUMPDEST DUP2 DUP2 SUB PUSH1 0xC0 DUP4 ADD MSTORE PUSH2 0x4E47 DUP2 PUSH2 0x4D70 JUMP JUMPDEST SWAP1 POP DUP2 DUP2 SUB PUSH1 0xE0 DUP4 ADD MSTORE PUSH2 0x4E5A DUP2 PUSH2 0x4DBC JUMP JUMPDEST SWAP1 POP PUSH2 0x4E6A PUSH2 0x100 DUP4 ADD DUP5 PUSH2 0x480F JUMP JUMPDEST SWAP9 SWAP8 POP POP POP POP POP POP POP POP JUMP JUMPDEST PUSH1 0x0 DUP2 MLOAD SWAP1 POP PUSH2 0x4E85 DUP2 PUSH2 0x4761 JUMP JUMPDEST SWAP3 SWAP2 POP POP JUMP JUMPDEST PUSH1 0x0 PUSH1 0x20 DUP3 DUP5 SUB SLT ISZERO PUSH2 0x4EA1 JUMPI PUSH2 0x4EA0 PUSH2 0x472A JUMP JUMPDEST JUMPDEST PUSH1 0x0 PUSH2 0x4EAF DUP5 DUP3 DUP6 ADD PUSH2 0x4E76 JUMP JUMPDEST SWAP2 POP POP SWAP3 SWAP2 POP POP JUMP JUMPDEST PUSH32 0x4E487B7100000000000000000000000000000000000000000000000000000000 PUSH1 0x0 MSTORE PUSH1 0x11 PUSH1 0x4 MSTORE PUSH1 0x24 PUSH1 0x0 REVERT JUMPDEST PUSH1 0x0 PUSH2 0x4EF2 DUP3 PUSH2 0x478D JUMP JUMPDEST SWAP2 POP PUSH2 0x4EFD DUP4 PUSH2 0x478D JUMP JUMPDEST SWAP3 POP DUP3 DUP3 SUB SWAP1 POP DUP2 DUP2 GT ISZERO PUSH2 0x4F15 JUMPI PUSH2 0x4F14 PUSH2 0x4EB8 JUMP JUMPDEST JUMPDEST SWAP3 SWAP2 POP POP JUMP JUMPDEST PUSH32 0x496E76616C6964206C6F616E20696E6465780000000000000000000000000000 PUSH1 0x0 DUP3 ADD MSTORE POP JUMP JUMPDEST PUSH1 0x0 PUSH2 0x4F51 PUSH1 0x12 DUP4 PUSH2 0x4683 JUMP JUMPDEST SWAP2 POP PUSH2 0x4F5C DUP3 PUSH2 0x4F1B JUMP JUMPDEST PUSH1 0x20 DUP3 ADD SWAP1 POP SWAP2 SWAP1 POP JUMP JUMPDEST PUSH1 0x0 PUSH1 0x20 DUP3 ADD SWAP1 POP DUP2 DUP2 SUB PUSH1 0x0 DUP4 ADD MSTORE PUSH2 0x4F80 DUP2 PUSH2 0x4F44 JUMP JUMPDEST SWAP1 POP SWAP2 SWAP1 POP JUMP JUMPDEST PUSH32 0x494F5520616D6F756E74206D757374206265203E203000000000000000000000 PUSH1 0x0 DUP3 ADD MSTORE POP JUMP JUMPDEST PUSH1 0x0 PUSH2 0x4FBD PUSH1 0x16 DUP4 PUSH2 0x4683 JUMP JUMPDEST SWAP2 POP PUSH2 0x4FC8 DUP3 PUSH2 0x4F87 JUMP JUMPDEST PUSH1 0x20 DUP3 ADD SWAP1 POP SWAP2 SWAP1 POP JUMP JUMPDEST PUSH1 0x0 PUSH1 0x20 DUP3 ADD SWAP1 POP DUP2 DUP2 SUB PUSH1 0x0 DUP4 ADD MSTORE PUSH2 0x4FEC DUP2 PUSH2 0x4FB0 JUMP JUMPDEST SWAP1 POP SWAP2 SWAP1 POP JUMP JUMPDEST PUSH32 0x4E487B7100000000000000000000000000000000000000000000000000000000 PUSH1 0x0 MSTORE PUSH1 0x32 PUSH1 0x4 MSTORE PUSH1 0x24 PUSH1 0x0 REVERT JUMPDEST PUSH1 0x0 PUSH1 0x60 DUP3 ADD SWAP1 POP PUSH2 0x5037 PUSH1 0x0 DUP4 ADD DUP7 PUSH2 0x48C6 JUMP JUMPDEST PUSH2 0x5044 PUSH1 0x20 DUP4 ADD DUP6 PUSH2 0x48C6 JUMP JUMPDEST PUSH2 0x5051 PUSH1 0x40 DUP4 ADD DUP5 PUSH2 0x48F0 JUMP JUMPDEST SWAP5 SWAP4 POP POP POP POP JUMP JUMPDEST PUSH2 0x5062 DUP2 PUSH2 0x4803 JUMP JUMPDEST DUP2 EQ PUSH2 0x506D JUMPI PUSH1 0x0 DUP1 REVERT JUMPDEST POP JUMP JUMPDEST PUSH1 0x0 DUP2 MLOAD SWAP1 POP PUSH2 0x507F DUP2 PUSH2 0x5059 JUMP JUMPDEST SWAP3 SWAP2 POP POP JUMP JUMPDEST PUSH1 0x0 PUSH1 0x20 DUP3 DUP5 SUB SLT ISZERO PUSH2 0x509B JUMPI PUSH2 0x509A PUSH2 0x472A JUMP JUMPDEST JUMPDEST PUSH1 0x0 PUSH2 0x50A9 DUP5 DUP3 DUP6 ADD PUSH2 0x5070 JUMP JUMPDEST SWAP2 POP POP SWAP3 SWAP2 POP POP JUMP JUMPDEST PUSH1 0x0 PUSH2 0x50BD DUP3 PUSH2 0x478D JUMP JUMPDEST SWAP2 POP PUSH2 0x50C8 DUP4 PUSH2 0x478D JUMP JUMPDEST SWAP3 POP DUP3 DUP3 MUL PUSH2 0x50D6 DUP2 PUSH2 0x478D JUMP JUMPDEST SWAP2 POP DUP3 DUP3 DIV DUP5 EQ DUP4 ISZERO OR PUSH2 0x50ED JUMPI PUSH2 0x50EC PUSH2 0x4EB8 JUMP JUMPDEST JUMPDEST POP SWAP3 SWAP2 POP POP JUMP JUMPDEST PUSH32 0x4E487B7100000000000000000000000000000000000000000000000000000000 PUSH1 0x0 MSTORE PUSH1 0x12 PUSH1 0x4 MSTORE PUSH1 0x24 PUSH1 0x0 REVERT JUMPDEST PUSH1 0x0 PUSH2 0x512E DUP3 PUSH2 0x478D JUMP JUMPDEST SWAP2 POP PUSH2 0x5139 DUP4 PUSH2 0x478D JUMP JUMPDEST SWAP3 POP DUP3 PUSH2 0x5149 JUMPI PUSH2 0x5148 PUSH2 0x50F4 JUMP JUMPDEST JUMPDEST DUP3 DUP3 DIV SWAP1 POP SWAP3 SWAP2 POP POP JUMP JUMPDEST PUSH1 0x0 DUP2 MLOAD SWAP1 POP PUSH2 0x5163 DUP2 PUSH2 0x4797 JUMP JUMPDEST SWAP3 SWAP2 POP POP JUMP JUMPDEST PUSH1 0x0 PUSH1 0x20 DUP3 DUP5 SUB SLT ISZERO PUSH2 0x517F JUMPI PUSH2 0x517E PUSH2 0x472A JUMP JUMPDEST JUMPDEST PUSH1 0x0 PUSH2 0x518D DUP5 DUP3 DUP6 ADD PUSH2 0x5154 JUMP JUMPDEST SWAP2 POP POP SWAP3 SWAP2 POP POP JUMP JUMPDEST PUSH1 0x0 PUSH2 0x51A1 DUP3 PUSH2 0x478D JUMP JUMPDEST SWAP2 POP PUSH2 0x51AC DUP4 PUSH2 0x478D JUMP JUMPDEST SWAP3 POP DUP3 DUP3 ADD SWAP1 POP DUP1 DUP3 GT ISZERO PUSH2 0x51C4 JUMPI PUSH2 0x51C3 PUSH2 0x4EB8 JUMP JUMPDEST JUMPDEST SWAP3 SWAP2 POP POP JUMP JUMPDEST PUSH2 0x51D3 DUP2 PUSH2 0x49AD JUMP JUMPDEST DUP2 EQ PUSH2 0x51DE JUMPI PUSH1 0x0 DUP1 REVERT JUMPDEST POP JUMP JUMPDEST PUSH1 0x0 DUP2 MLOAD SWAP1 POP PUSH2 0x51F0 DUP2 PUSH2 0x51CA JUMP JUMPDEST SWAP3 SWAP2 POP POP JUMP JUMPDEST PUSH1 0x0 PUSH1 0x20 DUP3 DUP5 SUB SLT ISZERO PUSH2 0x520C JUMPI PUSH2 0x520B PUSH2 0x472A JUMP JUMPDEST JUMPDEST PUSH1 0x0 PUSH2 0x521A DUP5 DUP3 DUP6 ADD PUSH2 0x51E1 JUMP JUMPDEST SWAP2 POP POP SWAP3 SWAP2 POP POP JUMP JUMPDEST PUSH1 0x0 PUSH2 0x522E DUP3 PUSH2 0x49AD JUMP JUMPDEST SWAP2 POP PUSH2 0x5239 DUP4 PUSH2 0x49AD JUMP JUMPDEST SWAP3 POP DUP3 DUP3 SUB SWAP1 POP PUSH1 0xFF DUP2 GT ISZERO PUSH2 0x5252 JUMPI PUSH2 0x5251 PUSH2 0x4EB8 JUMP JUMPDEST JUMPDEST SWAP3 SWAP2 POP POP JUMP JUMPDEST PUSH1 0x0 DUP2 PUSH1 0x1 SHR SWAP1 POP SWAP2 SWAP1 POP JUMP JUMPDEST PUSH1 0x0 DUP1 DUP3 SWAP2 POP DUP4 SWAP1 POP JUMPDEST PUSH1 0x1 DUP6 GT ISZERO PUSH2 0x52AF JUMPI DUP1 DUP7 DIV DUP2 GT ISZERO PUSH2 0x528B JUMPI PUSH2 0x528A PUSH2 0x4EB8 JUMP JUMPDEST JUMPDEST PUSH1 0x1 DUP6 AND ISZERO PUSH2 0x529A JUMPI DUP1 DUP3 MUL SWAP2 POP JUMPDEST DUP1 DUP2 MUL SWAP1 POP PUSH2 0x52A8 DUP6 PUSH2 0x5258 JUMP JUMPDEST SWAP5 POP PUSH2 0x526F JUMP JUMPDEST SWAP5 POP SWAP5 SWAP3 POP POP POP JUMP JUMPDEST PUSH1 0x0 DUP3 PUSH2 0x52C8 JUMPI PUSH1 0x1 SWAP1 POP PUSH2 0x5384 JUMP JUMPDEST DUP2 PUSH2 0x52D6 JUMPI PUSH1 0x0 SWAP1 POP PUSH2 0x5384 JUMP JUMPDEST DUP2 PUSH1 0x1 DUP2 EQ PUSH2 0x52EC JUMPI PUSH1 0x2 DUP2 EQ PUSH2 0x52F6 JUMPI PUSH2 0x5325 JUMP JUMPDEST PUSH1 0x1 SWAP2 POP POP PUSH2 0x5384 JUMP JUMPDEST PUSH1 0xFF DUP5 GT ISZERO PUSH2 0x5308 JUMPI PUSH2 0x5307 PUSH2 0x4EB8 JUMP JUMPDEST JUMPDEST DUP4 PUSH1 0x2 EXP SWAP2 POP DUP5 DUP3 GT ISZERO PUSH2 0x531F JUMPI PUSH2 0x531E PUSH2 0x4EB8 JUMP JUMPDEST JUMPDEST POP PUSH2 0x5384 JUMP JUMPDEST POP PUSH1 0x20 DUP4 LT PUSH2 0x133 DUP4 LT AND PUSH1 0x4E DUP5 LT PUSH1 0xB DUP5 LT AND OR ISZERO PUSH2 0x535A JUMPI DUP3 DUP3 EXP SWAP1 POP DUP4 DUP2 GT ISZERO PUSH2 0x5355 JUMPI PUSH2 0x5354 PUSH2 0x4EB8 JUMP JUMPDEST JUMPDEST PUSH2 0x5384 JUMP JUMPDEST PUSH2 0x5367 DUP5 DUP5 DUP5 PUSH1 0x1 PUSH2 0x5265 JUMP JUMPDEST SWAP3 POP SWAP1 POP DUP2 DUP5 DIV DUP2 GT ISZERO PUSH2 0x537E JUMPI PUSH2 0x537D PUSH2 0x4EB8 JUMP JUMPDEST JUMPDEST DUP2 DUP2 MUL SWAP1 POP JUMPDEST SWAP4 SWAP3 POP POP POP JUMP JUMPDEST PUSH1 0x0 PUSH2 0x5396 DUP3 PUSH2 0x478D JUMP JUMPDEST SWAP2 POP PUSH2 0x53A1 DUP4 PUSH2 0x49AD JUMP JUMPDEST SWAP3 POP PUSH2 0x53CE PUSH32 0xFFFFFFFFFFFFFFFFFFFFFFFFFFFFFFFFFFFFFFFFFFFFFFFFFFFFFFFFFFFFFFFF DUP5 DUP5 PUSH2 0x52B8 JUMP JUMPDEST SWAP1 POP SWAP3 SWAP2 POP POP JUMP JUMPDEST PUSH1 0x0 PUSH1 0x60 DUP3 ADD SWAP1 POP PUSH2 0x53EB PUSH1 0x0 DUP4 ADD DUP7 PUSH2 0x48F0 JUMP JUMPDEST PUSH2 0x53F8 PUSH1 0x20 DUP4 ADD DUP6 PUSH2 0x48F0 JUMP JUMPDEST PUSH2 0x5405 PUSH1 0x40 DUP4 ADD DUP5 PUSH2 0x48F0 JUMP JUMPDEST SWAP5 SWAP4 POP POP POP POP JUMP JUMPDEST PUSH32 0x4C6F616E206E6F7420647261776E20646F776E00000000000000000000000000 PUSH1 0x0 DUP3 ADD MSTORE POP JUMP JUMPDEST PUSH1 0x0 PUSH2 0x5443 PUSH1 0x13 DUP4 PUSH2 0x4683 JUMP JUMPDEST SWAP2 POP PUSH2 0x544E DUP3 PUSH2 0x540D JUMP JUMPDEST PUSH1 0x20 DUP3 ADD SWAP1 POP SWAP2 SWAP1 POP JUMP JUMPDEST PUSH1 0x0 PUSH1 0x20 DUP3 ADD SWAP1 POP DUP2 DUP2 SUB PUSH1 0x0 DUP4 ADD MSTORE PUSH2 0x5472 DUP2 PUSH2 0x5436 JUMP JUMPDEST SWAP1 POP SWAP2 SWAP1 POP JUMP JUMPDEST PUSH32 0x496E76616C69642070726963652066726F6D206F7261636C6500000000000000 PUSH1 0x0 DUP3 ADD MSTORE POP JUMP JUMPDEST PUSH1 0x0 PUSH2 0x54AF PUSH1 0x19 DUP4 PUSH2 0x4683 JUMP JUMPDEST SWAP2 POP PUSH2 0x54BA DUP3 PUSH2 0x5479 JUMP JUMPDEST PUSH1 0x20 DUP3 ADD SWAP1 POP SWAP2 SWAP1 POP JUMP JUMPDEST PUSH1 0x0 PUSH1 0x20 DUP3 ADD SWAP1 POP DUP2 DUP2 SUB PUSH1 0x0 DUP4 ADD MSTORE PUSH2 0x54DE DUP2 PUSH2 0x54A2 JUMP JUMPDEST SWAP1 POP SWAP2 SWAP1 POP JUMP JUMPDEST PUSH1 0x0 PUSH1 0x40 DUP3 ADD SWAP1 POP PUSH2 0x54FA PUSH1 0x0 DUP4 ADD DUP6 PUSH2 0x48C6 JUMP JUMPDEST PUSH2 0x5507 PUSH1 0x20 DUP4 ADD DUP5 PUSH2 0x48F0 JUMP JUMPDEST SWAP4 SWAP3 POP POP POP JUMP JUMPDEST PUSH2 0x5517 DUP2 PUSH2 0x474F JUMP JUMPDEST DUP3 MSTORE POP POP JUMP JUMPDEST PUSH2 0x5526 DUP2 PUSH2 0x4BB7 JUMP JUMPDEST DUP3 MSTORE POP POP JUMP JUMPDEST PUSH2 0x5535 DUP2 PUSH2 0x478D JUMP JUMPDEST DUP3 MSTORE POP POP JUMP JUMPDEST PUSH2 0x5544 DUP2 PUSH2 0x472F JUMP JUMPDEST DUP3 MSTORE POP POP JUMP JUMPDEST PUSH1 0xE0 DUP3 ADD PUSH1 0x0 DUP3 ADD MLOAD PUSH2 0x5560 PUSH1 0x0 DUP6 ADD DUP3 PUSH2 0x550E JUMP JUMPDEST POP PUSH1 0x20 DUP3 ADD MLOAD PUSH2 0x5573 PUSH1 0x20 DUP6 ADD DUP3 PUSH2 0x550E JUMP JUMPDEST POP PUSH1 0x40 DUP3 ADD MLOAD PUSH2 0x5586 PUSH1 0x40 DUP6 ADD DUP3 PUSH2 0x551D JUMP JUMPDEST POP PUSH1 0x60 DUP3 ADD MLOAD PUSH2 0x5599 PUSH1 0x60 DUP6 ADD DUP3 PUSH2 0x550E JUMP JUMPDEST POP PUSH1 0x80 DUP3 ADD MLOAD PUSH2 0x55AC PUSH1 0x80 DUP6 ADD DUP3 PUSH2 0x552C JUMP JUMPDEST POP PUSH1 0xA0 DUP3 ADD MLOAD PUSH2 0x55BF PUSH1 0xA0 DUP6 ADD DUP3 PUSH2 0x552C JUMP JUMPDEST POP PUSH1 0xC0 DUP3 ADD MLOAD PUSH2 0x55D2 PUSH1 0xC0 DUP6 ADD DUP3 PUSH2 0x553B JUMP JUMPDEST POP POP POP POP JUMP JUMPDEST PUSH1 0x0 PUSH1 0xE0 DUP3 ADD SWAP1 POP PUSH2 0x55ED PUSH1 0x0 DUP4 ADD DUP5 PUSH2 0x554A JUMP JUMPDEST SWAP3 SWAP2 POP POP JUMP JUMPDEST PUSH32 0x4E6F7420656E6F7567682055534443206F757400000000000000000000000000 PUSH1 0x0 DUP3 ADD MSTORE POP JUMP JUMPDEST PUSH1 0x0 PUSH2 0x5629 PUSH1 0x13 DUP4 PUSH2 0x4683 JUMP JUMPDEST SWAP2 POP PUSH2 0x5634 DUP3 PUSH2 0x55F3 JUMP JUMPDEST PUSH1 0x20 DUP3 ADD SWAP1 POP SWAP2 SWAP1 POP JUMP JUMPDEST PUSH1 0x0 PUSH1 0x20 DUP3 ADD SWAP1 POP DUP2 DUP2 SUB PUSH1 0x0 DUP4 ADD MSTORE PUSH2 0x5658 DUP2 PUSH2 0x561C JUMP JUMPDEST SWAP1 POP SWAP2 SWAP1 POP JUMP JUMPDEST PUSH1 0x0 PUSH1 0x40 DUP3 ADD SWAP1 POP PUSH2 0x5674 PUSH1 0x0 DUP4 ADD DUP6 PUSH2 0x48F0 JUMP JUMPDEST PUSH2 0x5681 PUSH1 0x20 DUP4 ADD DUP5 PUSH2 0x48F0 JUMP JUMPDEST SWAP4 SWAP3 POP POP POP JUMP JUMPDEST PUSH1 0x0 DUP2 SWAP1 POP SWAP2 SWAP1 POP JUMP JUMPDEST PUSH1 0x0 PUSH2 0x56AD PUSH2 0x56A8 PUSH2 0x56A3 DUP5 PUSH2 0x5688 JUMP JUMPDEST PUSH2 0x4A91 JUMP JUMPDEST PUSH2 0x478D JUMP JUMPDEST SWAP1 POP SWAP2 SWAP1 POP JUMP JUMPDEST PUSH2 0x56BD DUP2 PUSH2 0x5692 JUMP JUMPDEST DUP3 MSTORE POP POP JUMP JUMPDEST PUSH1 0x0 PUSH2 0x120 DUP3 ADD SWAP1 POP PUSH2 0x56D9 PUSH1 0x0 DUP4 ADD DUP11 PUSH2 0x48C6 JUMP JUMPDEST PUSH2 0x56E6 PUSH1 0x20 DUP4 ADD DUP10 PUSH2 0x48C6 JUMP JUMPDEST PUSH2 0x56F3 PUSH1 0x40 DUP4 ADD DUP9 PUSH2 0x48F0 JUMP JUMPDEST PUSH2 0x5700 PUSH1 0x60 DUP4 ADD DUP8 PUSH2 0x48F0 JUMP JUMPDEST PUSH2 0x570D PUSH1 0x80 DUP4 ADD DUP7 PUSH2 0x56B4 JUMP JUMPDEST PUSH2 0x571A PUSH1 0xA0 DUP4 ADD DUP6 PUSH2 0x48C6 JUMP JUMPDEST DUP2 DUP2 SUB PUSH1 0xC0 DUP4 ADD MSTORE PUSH2 0x572B DUP2 PUSH2 0x4D70 JUMP JUMPDEST SWAP1 POP DUP2 DUP2 SUB PUSH1 0xE0 DUP4 ADD MSTORE PUSH2 0x573E DUP2 PUSH2 0x4DBC JUMP JUMPDEST SWAP1 POP PUSH2 0x574E PUSH2 0x100 DUP4 ADD DUP5 PUSH2 0x480F JUMP JUMPDEST SWAP9 SWAP8 POP POP POP POP POP POP POP POP JUMP JUMPDEST PUSH32 0x546F6F206D7563682073656E7400000000000000000000000000000000000000 PUSH1 0x0 DUP3 ADD MSTORE POP JUMP JUMPDEST PUSH1 0x0 PUSH2 0x5790 PUSH1 0xD DUP4 PUSH2 0x4683 JUMP JUMPDEST SWAP2 POP PUSH2 0x579B DUP3 PUSH2 0x575A JUMP JUMPDEST PUSH1 0x20 DUP3 ADD SWAP1 POP SWAP2 SWAP1 POP JUMP JUMPDEST PUSH1 0x0 PUSH1 0x20 DUP3 ADD SWAP1 POP DUP2 DUP2 SUB PUSH1 0x0 DUP4 ADD MSTORE PUSH2 0x57BF DUP2 PUSH2 0x5783 JUMP JUMPDEST SWAP1 POP SWAP2 SWAP1 POP JUMP JUMPDEST PUSH32 0x4C6F616E2066756C6C7920726570616964000000000000000000000000000000 PUSH1 0x0 DUP3 ADD MSTORE POP JUMP JUMPDEST PUSH1 0x0 PUSH2 0x57FC PUSH1 0x11 DUP4 PUSH2 0x4683 JUMP JUMPDEST SWAP2 POP PUSH2 0x5807 DUP3 PUSH2 0x57C6 JUMP JUMPDEST PUSH1 0x20 DUP3 ADD SWAP1 POP SWAP2 SWAP1 POP JUMP JUMPDEST PUSH1 0x0 PUSH1 0x20 DUP3 ADD SWAP1 POP DUP2 DUP2 SUB PUSH1 0x0 DUP4 ADD MSTORE PUSH2 0x582B DUP2 PUSH2 0x57EF JUMP JUMPDEST SWAP1 POP SWAP2 SWAP1 POP JUMP JUMPDEST PUSH32 0x4E6F7420656E6F7567682073656E740000000000000000000000000000000000 PUSH1 0x0 DUP3 ADD MSTORE POP JUMP JUMPDEST PUSH1 0x0 PUSH2 0x5868 PUSH1 0xF DUP4 PUSH2 0x4683 JUMP JUMPDEST SWAP2 POP PUSH2 0x5873 DUP3 PUSH2 0x5832 JUMP JUMPDEST PUSH1 0x20 DUP3 ADD SWAP1 POP SWAP2 SWAP1 POP JUMP JUMPDEST PUSH1 0x0 PUSH1 0x20 DUP3 ADD SWAP1 POP DUP2 DUP2 SUB PUSH1 0x0 DUP4 ADD MSTORE PUSH2 0x5897 DUP2 PUSH2 0x585B JUMP JUMPDEST SWAP1 POP SWAP2 SWAP1 POP JUMP JUMPDEST PUSH32 0x4E6F7420656E6F7567682066756E647300000000000000000000000000000000 PUSH1 0x0 DUP3 ADD MSTORE POP JUMP JUMPDEST PUSH1 0x0 PUSH2 0x58D4 PUSH1 0x10 DUP4 PUSH2 0x4683 JUMP JUMPDEST SWAP2 POP PUSH2 0x58DF DUP3 PUSH2 0x589E JUMP JUMPDEST PUSH1 0x20 DUP3 ADD SWAP1 POP SWAP2 SWAP1 POP JUMP JUMPDEST PUSH1 0x0 PUSH1 0x20 DUP3 ADD SWAP1 POP DUP2 DUP2 SUB PUSH1 0x0 DUP4 ADD MSTORE PUSH2 0x5903 DUP2 PUSH2 0x58C7 JUMP JUMPDEST SWAP1 POP SWAP2 SWAP1 POP JUMP JUMPDEST PUSH1 0x0 PUSH10 0xFFFFFFFFFFFFFFFFFFFF DUP3 AND SWAP1 POP SWAP2 SWAP1 POP JUMP JUMPDEST PUSH2 0x5929 DUP2 PUSH2 0x590A JUMP JUMPDEST DUP2 EQ PUSH2 0x5934 JUMPI PUSH1 0x0 DUP1 REVERT JUMPDEST POP JUMP JUMPDEST PUSH1 0x0 DUP2 MLOAD SWAP1 POP PUSH2 0x5946 DUP2 PUSH2 0x5920 JUMP JUMPDEST SWAP3 SWAP2 POP POP JUMP JUMPDEST PUSH2 0x5955 DUP2 PUSH2 0x4B0B JUMP JUMPDEST DUP2 EQ PUSH2 0x5960 JUMPI PUSH1 0x0 DUP1 REVERT JUMPDEST POP JUMP JUMPDEST PUSH1 0x0 DUP2 MLOAD SWAP1 POP PUSH2 0x5972 DUP2 PUSH2 0x594C JUMP JUMPDEST SWAP3 SWAP2 POP POP JUMP JUMPDEST PUSH1 0x0 DUP1 PUSH1 0x0 DUP1 PUSH1 0x0 PUSH1 0xA0 DUP7 DUP9 SUB SLT ISZERO PUSH2 0x5994 JUMPI PUSH2 0x5993 PUSH2 0x472A JUMP JUMPDEST JUMPDEST PUSH1 0x0 PUSH2 0x59A2 DUP9 DUP3 DUP10 ADD PUSH2 0x5937 JUMP JUMPDEST SWAP6 POP POP PUSH1 0x20 PUSH2 0x59B3 DUP9 DUP3 DUP10 ADD PUSH2 0x5963 JUMP JUMPDEST SWAP5 POP POP PUSH1 0x40 PUSH2 0x59C4 DUP9 DUP3 DUP10 ADD PUSH2 0x5154 JUMP JUMPDEST SWAP4 POP POP PUSH1 0x60 PUSH2 0x59D5 DUP9 DUP3 DUP10 ADD PUSH2 0x5154 JUMP JUMPDEST SWAP3 POP POP PUSH1 0x80 PUSH2 0x59E6 DUP9 DUP3 DUP10 ADD PUSH2 0x5937 JUMP JUMPDEST SWAP2 POP POP SWAP3 SWAP6 POP SWAP3 SWAP6 SWAP1 SWAP4 POP JUMP JUMPDEST PUSH32 0x5553444320616D6F756E74206D757374206265203E2030000000000000000000 PUSH1 0x0 DUP3 ADD MSTORE POP JUMP JUMPDEST PUSH1 0x0 PUSH2 0x5A29 PUSH1 0x17 DUP4 PUSH2 0x4683 JUMP JUMPDEST SWAP2 POP PUSH2 0x5A34 DUP3 PUSH2 0x59F3 JUMP JUMPDEST PUSH1 0x20 DUP3 ADD SWAP1 POP SWAP2 SWAP1 POP JUMP JUMPDEST PUSH1 0x0 PUSH1 0x20 DUP3 ADD SWAP1 POP DUP2 DUP2 SUB PUSH1 0x0 DUP4 ADD MSTORE PUSH2 0x5A58 DUP2 PUSH2 0x5A1C JUMP JUMPDEST SWAP1 POP SWAP2 SWAP1 POP JUMP JUMPDEST PUSH32 0x496E76616C6964206F7261636C65207072696365000000000000000000000000 PUSH1 0x0 DUP3 ADD MSTORE POP JUMP JUMPDEST PUSH1 0x0 PUSH2 0x5A95 PUSH1 0x14 DUP4 PUSH2 0x4683 JUMP JUMPDEST SWAP2 POP PUSH2 0x5AA0 DUP3 PUSH2 0x5A5F JUMP JUMPDEST PUSH1 0x20 DUP3 ADD SWAP1 POP SWAP2 SWAP1 POP JUMP JUMPDEST PUSH1 0x0 PUSH1 0x20 DUP3 ADD SWAP1 POP DUP2 DUP2 SUB PUSH1 0x0 DUP4 ADD MSTORE PUSH2 0x5AC4 DUP2 PUSH2 0x5A88 JUMP JUMPDEST SWAP1 POP SWAP2 SWAP1 POP JUMP JUMPDEST PUSH32 0x44414F20746F6B656E20616D6F756E74206D757374206265203E203000000000 PUSH1 0x0 DUP3 ADD MSTORE POP JUMP JUMPDEST PUSH1 0x0 PUSH2 0x5B01 PUSH1 0x1C DUP4 PUSH2 0x4683 JUMP JUMPDEST SWAP2 POP PUSH2 0x5B0C DUP3 PUSH2 0x5ACB JUMP JUMPDEST PUSH1 0x20 DUP3 ADD SWAP1 POP SWAP2 SWAP1 POP JUMP JUMPDEST PUSH1 0x0 PUSH1 0x20 DUP3 ADD SWAP1 POP DUP2 DUP2 SUB PUSH1 0x0 DUP4 ADD MSTORE PUSH2 0x5B30 DUP2 PUSH2 0x5AF4 JUMP JUMPDEST SWAP1 POP SWAP2 SWAP1 POP JUMP JUMPDEST PUSH32 0x496E73756666696369656E742062616C616E6365000000000000000000000000 PUSH1 0x0 DUP3 ADD MSTORE POP JUMP JUMPDEST PUSH1 0x0 PUSH2 0x5B6D PUSH1 0x14 DUP4 PUSH2 0x4683 JUMP JUMPDEST SWAP2 POP PUSH2 0x5B78 DUP3 PUSH2 0x5B37 JUMP JUMPDEST PUSH1 0x20 DUP3 ADD SWAP1 POP SWAP2 SWAP1 POP JUMP JUMPDEST PUSH1 0x0 PUSH1 0x20 DUP3 ADD SWAP1 POP DUP2 DUP2 SUB PUSH1 0x0 DUP4 ADD MSTORE PUSH2 0x5B9C DUP2 PUSH2 0x5B60 JUMP JUMPDEST SWAP1 POP SWAP2 SWAP1 POP JUMP JUMPDEST PUSH32 0x55736572207368617265206973207A65726F0000000000000000000000000000 PUSH1 0x0 DUP3 ADD MSTORE POP JUMP JUMPDEST PUSH1 0x0 PUSH2 0x5BD9 PUSH1 0x12 DUP4 PUSH2 0x4683 JUMP JUMPDEST SWAP2 POP PUSH2 0x5BE4 DUP3 PUSH2 0x5BA3 JUMP JUMPDEST PUSH1 0x20 DUP3 ADD SWAP1 POP SWAP2 SWAP1 POP JUMP JUMPDEST PUSH1 0x0 PUSH1 0x20 DUP3 ADD SWAP1 POP DUP2 DUP2 SUB PUSH1 0x0 DUP4 ADD MSTORE PUSH2 0x5C08 DUP2 PUSH2 0x5BCC JUMP JUMPDEST SWAP1 POP SWAP2 SWAP1 POP JUMP JUMPDEST PUSH1 0x0 DUP2 SWAP1 POP SWAP3 SWAP2 POP POP JUMP JUMPDEST POP JUMP JUMPDEST PUSH1 0x0 PUSH2 0x5C2A PUSH1 0x0 DUP4 PUSH2 0x5C0F JUMP JUMPDEST SWAP2 POP PUSH2 0x5C35 DUP3 PUSH2 0x5C1A JUMP JUMPDEST PUSH1 0x0 DUP3 ADD SWAP1 POP SWAP2 SWAP1 POP JUMP JUMPDEST PUSH1 0x0 PUSH2 0x5C4B DUP3 PUSH2 0x5C1D JUMP JUMPDEST SWAP2 POP DUP2 SWAP1 POP SWAP2 SWAP1 POP JUMP JUMPDEST PUSH32 0x455448207472616E73666572206661696C656400000000000000000000000000 PUSH1 0x0 DUP3 ADD MSTORE POP JUMP JUMPDEST PUSH1 0x0 PUSH2 0x5C8B PUSH1 0x13 DUP4 PUSH2 0x4683 JUMP JUMPDEST SWAP2 POP PUSH2 0x5C96 DUP3 PUSH2 0x5C55 JUMP JUMPDEST PUSH1 0x20 DUP3 ADD SWAP1 POP SWAP2 SWAP1 POP JUMP JUMPDEST PUSH1 0x0 PUSH1 0x20 DUP3 ADD SWAP1 POP DUP2 DUP2 SUB PUSH1 0x0 DUP4 ADD MSTORE PUSH2 0x5CBA DUP2 PUSH2 0x5C7E JUMP JUMPDEST SWAP1 POP SWAP2 SWAP1 POP JUMP INVALID LOG2 PUSH5 0x6970667358 0x22 SLT KECCAK256 0xF9 0xB9 0xF7 0xAD CALLDATACOPY CALL 0xE9 0xD7 0xC8 0x24 0xAA 0xE 0xC0 0xAC 0xDF SGT 0x4C 0xFB 0x27 0xAB 0xCB EXP CALLDATASIZE 0xC0 CALLCODE DUP7 PC EXTCODEHASH PUSH27 0x304F9064736F6C6343000818003300000000000000000000000000 "},"methodIdentifiers":{"NO_DEADLINE()":"a693ac64","POOL_FEE()":"dd1b9c4a","SLIPPAGE()":"36b4134a","allowance(address,address)":"dd62ed3e","approve(address,uint256)":"095ea7b3","balanceOf(address)":"70a08231","burnForETH(uint256)":"ee5d0252","buyETH(uint256,uint256)":"cb254f7e","decimals()":"313ce567","drawDownLoan(uint256,uint256)":"6b7619c4","ethFromMint()":"8b0c030d","fill(uint256,uint256,uint256)":"6fe4a448","fundLoan(uint256,uint256)":"f4512bb6","getLatestPrice()":"8e15f473","getProfit()":"679dffb4","ioUMint()":"db3a9815","loans(uint256)":"e1ec3c68","name()":"06fdde03","openLoan()":"6b231938","priceFeed()":"741bef1a","repaid(uint256)":"5f93893b","repayLoan(uint256)":"ab7b1c89","repayLoanUSDC(uint256,uint256)":"3614d0d2","role(address)":"d590f8c9","setRole(address,uint256)":"74277a63","startLoan(uint256,address,uint256,uint256,address,uint256)":"0bbaf675","swapIOUForMintTokens(uint256,uint256)":"2137e1b9","swapRouter()":"c31c9c07","symbol()":"95d89b41","totalLoans()":"cc952b57","totalSupply()":"18160ddd","transfer(address,uint256)":"a9059cbb","transferFrom(address,address,uint256)":"23b872dd","usdcToken()":"11eac855","wethAddress()":"4f0e0ef3"}}}}}