{
  "_format": "hh-sol-artifact-1",
  "contractName": "ERC20Mock",
  "sourceName": "contracts/mock/ERC20Mock.sol",
  "abi": [
    {
      "inputs": [
        {
          "internalType": "string",
          "name": "name",
          "type": "string"
        },
        {
          "internalType": "string",
          "name": "symbol",
          "type": "string"
        },
        {
          "internalType": "uint256",
          "name": "initialSupply",
          "type": "uint256"
        }
      ],
      "stateMutability": "nonpayable",
      "type": "constructor"
    },
    {
      "anonymous": false,
      "inputs": [
        {
          "indexed": true,
          "internalType": "address",
          "name": "owner",
          "type": "address"
        },
        {
          "indexed": true,
          "internalType": "address",
          "name": "spender",
          "type": "address"
        },
        {
          "indexed": false,
          "internalType": "uint256",
          "name": "value",
          "type": "uint256"
        }
      ],
      "name": "Approval",
      "type": "event"
    },
    {
      "anonymous": false,
      "inputs": [
        {
          "indexed": true,
          "internalType": "address",
          "name": "from",
          "type": "address"
        },
        {
          "indexed": true,
          "internalType": "address",
          "name": "to",
          "type": "address"
        },
        {
          "indexed": false,
          "internalType": "uint256",
          "name": "value",
          "type": "uint256"
        }
      ],
      "name": "Transfer",
      "type": "event"
    },
    {
      "inputs": [
        {
          "internalType": "address",
          "name": "owner",
          "type": "address"
        },
        {
          "internalType": "address",
          "name": "spender",
          "type": "address"
        }
      ],
      "name": "allowance",
      "outputs": [
        {
          "internalType": "uint256",
          "name": "",
          "type": "uint256"
        }
      ],
      "stateMutability": "view",
      "type": "function"
    },
    {
      "inputs": [
        {
          "internalType": "address",
          "name": "spender",
          "type": "address"
        },
        {
          "internalType": "uint256",
          "name": "amount",
          "type": "uint256"
        }
      ],
      "name": "approve",
      "outputs": [
        {
          "internalType": "bool",
          "name": "",
          "type": "bool"
        }
      ],
      "stateMutability": "nonpayable",
      "type": "function"
    },
    {
      "inputs": [
        {
          "internalType": "address",
          "name": "account",
          "type": "address"
        }
      ],
      "name": "balanceOf",
      "outputs": [
        {
          "internalType": "uint256",
          "name": "",
          "type": "uint256"
        }
      ],
      "stateMutability": "view",
      "type": "function"
    },
    {
      "inputs": [],
      "name": "decimals",
      "outputs": [
        {
          "internalType": "uint8",
          "name": "",
          "type": "uint8"
        }
      ],
      "stateMutability": "view",
      "type": "function"
    },
    {
      "inputs": [
        {
          "internalType": "address",
          "name": "spender",
          "type": "address"
        },
        {
          "internalType": "uint256",
          "name": "subtractedValue",
          "type": "uint256"
        }
      ],
      "name": "decreaseAllowance",
      "outputs": [
        {
          "internalType": "bool",
          "name": "",
          "type": "bool"
        }
      ],
      "stateMutability": "nonpayable",
      "type": "function"
    },
    {
      "inputs": [
        {
          "internalType": "address",
          "name": "spender",
          "type": "address"
        },
        {
          "internalType": "uint256",
          "name": "addedValue",
          "type": "uint256"
        }
      ],
      "name": "increaseAllowance",
      "outputs": [
        {
          "internalType": "bool",
          "name": "",
          "type": "bool"
        }
      ],
      "stateMutability": "nonpayable",
      "type": "function"
    },
    {
      "inputs": [],
      "name": "name",
      "outputs": [
        {
          "internalType": "string",
          "name": "",
          "type": "string"
        }
      ],
      "stateMutability": "view",
      "type": "function"
    },
    {
      "inputs": [],
      "name": "symbol",
      "outputs": [
        {
          "internalType": "string",
          "name": "",
          "type": "string"
        }
      ],
      "stateMutability": "view",
      "type": "function"
    },
    {
      "inputs": [],
      "name": "totalSupply",
      "outputs": [
        {
          "internalType": "uint256",
          "name": "",
          "type": "uint256"
        }
      ],
      "stateMutability": "view",
      "type": "function"
    },
    {
      "inputs": [
        {
          "internalType": "address",
          "name": "to",
          "type": "address"
        },
        {
          "internalType": "uint256",
          "name": "amount",
          "type": "uint256"
        }
      ],
      "name": "transfer",
      "outputs": [
        {
          "internalType": "bool",
          "name": "",
          "type": "bool"
        }
      ],
      "stateMutability": "nonpayable",
      "type": "function"
    },
    {
      "inputs": [
        {
          "internalType": "address",
          "name": "from",
          "type": "address"
        },
        {
          "internalType": "address",
          "name": "to",
          "type": "address"
        },
        {
          "internalType": "uint256",
          "name": "amount",
          "type": "uint256"
        }
      ],
      "name": "transferFrom",
      "outputs": [
        {
          "internalType": "bool",
          "name": "",
          "type": "bool"
        }
      ],
      "stateMutability": "nonpayable",
      "type": "function"
    }
  ],
  "bytecode": "0x60806040523480156200001157600080fd5b5060405162001b4638038062001b46833981810160405281019062000037919062000421565b828281600390816200004a9190620006fc565b5080600490816200005c9190620006fc565b5050506200007b6776fc30a0d015c25360c01b620000ce60201b60201c565b62000097679497a7c6c7e00c5160c01b620000ce60201b60201c565b620000b3675108962fa78fc63760c01b620000ce60201b60201c565b620000c53382620000d160201b60201c565b505050620008fe565b50565b600073ffffffffffffffffffffffffffffffffffffffff168273ffffffffffffffffffffffffffffffffffffffff160362000143576040517f08c379a00000000000000000000000000000000000000000000000000000000081526004016200013a9062000844565b60405180910390fd5b62000157600083836200024960201b60201c565b80600260008282546200016b919062000895565b92505081905550806000808473ffffffffffffffffffffffffffffffffffffffff1673ffffffffffffffffffffffffffffffffffffffff1681526020019081526020016000206000828254620001c2919062000895565b925050819055508173ffffffffffffffffffffffffffffffffffffffff16600073ffffffffffffffffffffffffffffffffffffffff167fddf252ad1be2c89b69c2b068fc378daa952ba7f163c4a11628f55a4df523b3ef83604051620002299190620008e1565b60405180910390a362000245600083836200024e60201b60201c565b5050565b505050565b505050565b6000604051905090565b600080fd5b600080fd5b600080fd5b600080fd5b6000601f19601f8301169050919050565b7f4e487b7100000000000000000000000000000000000000000000000000000000600052604160045260246000fd5b620002bc8262000271565b810181811067ffffffffffffffff82111715620002de57620002dd62000282565b5b80604052505050565b6000620002f362000253565b9050620003018282620002b1565b919050565b600067ffffffffffffffff82111562000324576200032362000282565b5b6200032f8262000271565b9050602081019050919050565b60005b838110156200035c5780820151818401526020810190506200033f565b60008484015250505050565b60006200037f620003798462000306565b620002e7565b9050828152602081018484840111156200039e576200039d6200026c565b5b620003ab8482856200033c565b509392505050565b600082601f830112620003cb57620003ca62000267565b5b8151620003dd84826020860162000368565b91505092915050565b6000819050919050565b620003fb81620003e6565b81146200040757600080fd5b50565b6000815190506200041b81620003f0565b92915050565b6000806000606084860312156200043d576200043c6200025d565b5b600084015167ffffffffffffffff8111156200045e576200045d62000262565b5b6200046c86828701620003b3565b935050602084015167ffffffffffffffff81111562000490576200048f62000262565b5b6200049e86828701620003b3565b9250506040620004b1868287016200040a565b9150509250925092565b600081519050919050565b7f4e487b7100000000000000000000000000000000000000000000000000000000600052602260045260246000fd5b600060028204905060018216806200050e57607f821691505b602082108103620005245762000523620004c6565b5b50919050565b60008190508160005260206000209050919050565b60006020601f8301049050919050565b600082821b905092915050565b6000600883026200058e7fffffffffffffffffffffffffffffffffffffffffffffffffffffffffffffffff826200054f565b6200059a86836200054f565b95508019841693508086168417925050509392505050565b6000819050919050565b6000620005dd620005d7620005d184620003e6565b620005b2565b620003e6565b9050919050565b6000819050919050565b620005f983620005bc565b620006116200060882620005e4565b8484546200055c565b825550505050565b600090565b6200062862000619565b62000635818484620005ee565b505050565b5b818110156200065d57620006516000826200061e565b6001810190506200063b565b5050565b601f821115620006ac5762000676816200052a565b62000681846200053f565b8101602085101562000691578190505b620006a9620006a0856200053f565b8301826200063a565b50505b505050565b600082821c905092915050565b6000620006d160001984600802620006b1565b1980831691505092915050565b6000620006ec8383620006be565b9150826002028217905092915050565b6200070782620004bb565b67ffffffffffffffff81111562000723576200072262000282565b5b6200072f8254620004f5565b6200073c82828562000661565b600060209050601f8311600181146200077457600084156200075f578287015190505b6200076b8582620006de565b865550620007db565b601f19841662000784866200052a565b60005b82811015620007ae5784890151825560018201915060208501945060208101905062000787565b86831015620007ce5784890151620007ca601f891682620006be565b8355505b6001600288020188555050505b505050505050565b600082825260208201905092915050565b7f45524332303a206d696e7420746f20746865207a65726f206164647265737300600082015250565b60006200082c601f83620007e3565b91506200083982620007f4565b602082019050919050565b600060208201905081810360008301526200085f816200081d565b9050919050565b7f4e487b7100000000000000000000000000000000000000000000000000000000600052601160045260246000fd5b6000620008a282620003e6565b9150620008af83620003e6565b9250828201905080821115620008ca57620008c962000866565b5b92915050565b620008db81620003e6565b82525050565b6000602082019050620008f86000830184620008d0565b92915050565b611238806200090e6000396000f3fe608060405234801561001057600080fd5b50600436106100a95760003560e01c80633950935111610071578063395093511461016857806370a082311461019857806395d89b41146101c8578063a457c2d7146101e6578063a9059cbb14610216578063dd62ed3e14610246576100a9565b806306fdde03146100ae578063095ea7b3146100cc57806318160ddd146100fc57806323b872dd1461011a578063313ce5671461014a575b600080fd5b6100b6610276565b6040516100c39190610b15565b60405180910390f35b6100e660048036038101906100e19190610bd0565b610308565b6040516100f39190610c2b565b60405180910390f35b61010461032b565b6040516101119190610c55565b60405180910390f35b610134600480360381019061012f9190610c70565b610335565b6040516101419190610c2b565b60405180910390f35b610152610364565b60405161015f9190610cdf565b60405180910390f35b610182600480360381019061017d9190610bd0565b61036d565b60405161018f9190610c2b565b60405180910390f35b6101b260048036038101906101ad9190610cfa565b6103a4565b6040516101bf9190610c55565b60405180910390f35b6101d06103ec565b6040516101dd9190610b15565b60405180910390f35b61020060048036038101906101fb9190610bd0565b61047e565b60405161020d9190610c2b565b60405180910390f35b610230600480360381019061022b9190610bd0565b6104f5565b60405161023d9190610c2b565b60405180910390f35b610260600480360381019061025b9190610d27565b610518565b60405161026d9190610c55565b60405180910390f35b60606003805461028590610d96565b80601f01602080910402602001604051908101604052809291908181526020018280546102b190610d96565b80156102fe5780601f106102d3576101008083540402835291602001916102fe565b820191906000526020600020905b8154815290600101906020018083116102e157829003601f168201915b5050505050905090565b60008061031361059f565b90506103208185856105a7565b600191505092915050565b6000600254905090565b60008061034061059f565b905061034d858285610770565b6103588585856107fc565b60019150509392505050565b60006012905090565b60008061037861059f565b905061039981858561038a8589610518565b6103949190610df6565b6105a7565b600191505092915050565b60008060008373ffffffffffffffffffffffffffffffffffffffff1673ffffffffffffffffffffffffffffffffffffffff168152602001908152602001600020549050919050565b6060600480546103fb90610d96565b80601f016020809104026020016040519081016040528092919081815260200182805461042790610d96565b80156104745780601f1061044957610100808354040283529160200191610474565b820191906000526020600020905b81548152906001019060200180831161045757829003601f168201915b5050505050905090565b60008061048961059f565b905060006104978286610518565b9050838110156104dc576040517f08c379a00000000000000000000000000000000000000000000000000000000081526004016104d390610e9c565b60405180910390fd5b6104e982868684036105a7565b60019250505092915050565b60008061050061059f565b905061050d8185856107fc565b600191505092915050565b6000600160008473ffffffffffffffffffffffffffffffffffffffff1673ffffffffffffffffffffffffffffffffffffffff16815260200190815260200160002060008373ffffffffffffffffffffffffffffffffffffffff1673ffffffffffffffffffffffffffffffffffffffff16815260200190815260200160002054905092915050565b600033905090565b600073ffffffffffffffffffffffffffffffffffffffff168373ffffffffffffffffffffffffffffffffffffffff1603610616576040517f08c379a000000000000000000000000000000000000000000000000000000000815260040161060d90610f2e565b60405180910390fd5b600073ffffffffffffffffffffffffffffffffffffffff168273ffffffffffffffffffffffffffffffffffffffff1603610685576040517f08c379a000000000000000000000000000000000000000000000000000000000815260040161067c90610fc0565b60405180910390fd5b80600160008573ffffffffffffffffffffffffffffffffffffffff1673ffffffffffffffffffffffffffffffffffffffff16815260200190815260200160002060008473ffffffffffffffffffffffffffffffffffffffff1673ffffffffffffffffffffffffffffffffffffffff168152602001908152602001600020819055508173ffffffffffffffffffffffffffffffffffffffff168373ffffffffffffffffffffffffffffffffffffffff167f8c5be1e5ebec7d5bd14f71427d1e84f3dd0314c0f7b2291e5b200ac8c7c3b925836040516107639190610c55565b60405180910390a3505050565b600061077c8484610518565b90507fffffffffffffffffffffffffffffffffffffffffffffffffffffffffffffffff81146107f657818110156107e8576040517f08c379a00000000000000000000000000000000000000000000000000000000081526004016107df9061102c565b60405180910390fd5b6107f584848484036105a7565b5b50505050565b600073ffffffffffffffffffffffffffffffffffffffff168373ffffffffffffffffffffffffffffffffffffffff160361086b576040517f08c379a0000000000000000000000000000000000000000000000000000000008152600401610862906110be565b60405180910390fd5b600073ffffffffffffffffffffffffffffffffffffffff168273ffffffffffffffffffffffffffffffffffffffff16036108da576040517f08c379a00000000000000000000000000000000000000000000000000000000081526004016108d190611150565b60405180910390fd5b6108e5838383610a7b565b60008060008573ffffffffffffffffffffffffffffffffffffffff1673ffffffffffffffffffffffffffffffffffffffff1681526020019081526020016000205490508181101561096b576040517f08c379a0000000000000000000000000000000000000000000000000000000008152600401610962906111e2565b60405180910390fd5b8181036000808673ffffffffffffffffffffffffffffffffffffffff1673ffffffffffffffffffffffffffffffffffffffff16815260200190815260200160002081905550816000808573ffffffffffffffffffffffffffffffffffffffff1673ffffffffffffffffffffffffffffffffffffffff16815260200190815260200160002060008282546109fe9190610df6565b925050819055508273ffffffffffffffffffffffffffffffffffffffff168473ffffffffffffffffffffffffffffffffffffffff167fddf252ad1be2c89b69c2b068fc378daa952ba7f163c4a11628f55a4df523b3ef84604051610a629190610c55565b60405180910390a3610a75848484610a80565b50505050565b505050565b505050565b600081519050919050565b600082825260208201905092915050565b60005b83811015610abf578082015181840152602081019050610aa4565b60008484015250505050565b6000601f19601f8301169050919050565b6000610ae782610a85565b610af18185610a90565b9350610b01818560208601610aa1565b610b0a81610acb565b840191505092915050565b60006020820190508181036000830152610b2f8184610adc565b905092915050565b600080fd5b600073ffffffffffffffffffffffffffffffffffffffff82169050919050565b6000610b6782610b3c565b9050919050565b610b7781610b5c565b8114610b8257600080fd5b50565b600081359050610b9481610b6e565b92915050565b6000819050919050565b610bad81610b9a565b8114610bb857600080fd5b50565b600081359050610bca81610ba4565b92915050565b60008060408385031215610be757610be6610b37565b5b6000610bf585828601610b85565b9250506020610c0685828601610bbb565b9150509250929050565b60008115159050919050565b610c2581610c10565b82525050565b6000602082019050610c406000830184610c1c565b92915050565b610c4f81610b9a565b82525050565b6000602082019050610c6a6000830184610c46565b92915050565b600080600060608486031215610c8957610c88610b37565b5b6000610c9786828701610b85565b9350506020610ca886828701610b85565b9250506040610cb986828701610bbb565b9150509250925092565b600060ff82169050919050565b610cd981610cc3565b82525050565b6000602082019050610cf46000830184610cd0565b92915050565b600060208284031215610d1057610d0f610b37565b5b6000610d1e84828501610b85565b91505092915050565b60008060408385031215610d3e57610d3d610b37565b5b6000610d4c85828601610b85565b9250506020610d5d85828601610b85565b9150509250929050565b7f4e487b7100000000000000000000000000000000000000000000000000000000600052602260045260246000fd5b60006002820490506001821680610dae57607f821691505b602082108103610dc157610dc0610d67565b5b50919050565b7f4e487b7100000000000000000000000000000000000000000000000000000000600052601160045260246000fd5b6000610e0182610b9a565b9150610e0c83610b9a565b9250828201905080821115610e2457610e23610dc7565b5b92915050565b7f45524332303a2064656372656173656420616c6c6f77616e63652062656c6f7760008201527f207a65726f000000000000000000000000000000000000000000000000000000602082015250565b6000610e86602583610a90565b9150610e9182610e2a565b604082019050919050565b60006020820190508181036000830152610eb581610e79565b9050919050565b7f45524332303a20617070726f76652066726f6d20746865207a65726f2061646460008201527f7265737300000000000000000000000000000000000000000000000000000000602082015250565b6000610f18602483610a90565b9150610f2382610ebc565b604082019050919050565b60006020820190508181036000830152610f4781610f0b565b9050919050565b7f45524332303a20617070726f766520746f20746865207a65726f20616464726560008201527f7373000000000000000000000000000000000000000000000000000000000000602082015250565b6000610faa602283610a90565b9150610fb582610f4e565b604082019050919050565b60006020820190508181036000830152610fd981610f9d565b9050919050565b7f45524332303a20696e73756666696369656e7420616c6c6f77616e6365000000600082015250565b6000611016601d83610a90565b915061102182610fe0565b602082019050919050565b6000602082019050818103600083015261104581611009565b9050919050565b7f45524332303a207472616e736665722066726f6d20746865207a65726f20616460008201527f6472657373000000000000000000000000000000000000000000000000000000602082015250565b60006110a8602583610a90565b91506110b38261104c565b604082019050919050565b600060208201905081810360008301526110d78161109b565b9050919050565b7f45524332303a207472616e7366657220746f20746865207a65726f206164647260008201527f6573730000000000000000000000000000000000000000000000000000000000602082015250565b600061113a602383610a90565b9150611145826110de565b604082019050919050565b600060208201905081810360008301526111698161112d565b9050919050565b7f45524332303a207472616e7366657220616d6f756e742065786365656473206260008201527f616c616e63650000000000000000000000000000000000000000000000000000602082015250565b60006111cc602683610a90565b91506111d782611170565b604082019050919050565b600060208201905081810360008301526111fb816111bf565b905091905056fea2646970667358221220218dd6800b2de0e91013a15e46b48b501d4352e4ad124f69082cee3720aa791864736f6c63430008180033",
  "linkReferences": {},
  "deployedLinkReferences": {}
}