{
  "_format": "hh-sol-artifact-1",
  "contractName": "MockSwapRouter",
  "sourceName": "contracts/mock/ERC20Mock.sol",
  "abi": [
    {
      "inputs": [
        {
          "components": [
            {
              "internalType": "address",
              "name": "tokenIn",
              "type": "address"
            },
            {
              "internalType": "address",
              "name": "tokenOut",
              "type": "address"
            },
            {
              "internalType": "uint24",
              "name": "fee",
              "type": "uint24"
            },
            {
              "internalType": "address",
              "name": "recipient",
              "type": "address"
            },
            {
              "internalType": "uint256",
              "name": "amountIn",
              "type": "uint256"
            },
            {
              "internalType": "uint256",
              "name": "amountOutMinimum",
              "type": "uint256"
            },
            {
              "internalType": "uint160",
              "name": "sqrtPriceLimitX96",
              "type": "uint160"
            }
          ],
          "internalType": "struct MockSwapRouter.ExactInputSingleParams",
          "name": "params",
          "type": "tuple"
        }
      ],
      "name": "exactInputSingle",
      "outputs": [
        {
          "internalType": "uint256",
          "name": "amountOut",
          "type": "uint256"
        }
      ],
      "stateMutability": "payable",
      "type": "function"
    },
    {
      "inputs": [],
      "name": "getLastParams",
      "outputs": [
        {
          "components": [
            {
              "internalType": "address",
              "name": "tokenIn",
              "type": "address"
            },
            {
              "internalType": "address",
              "name": "tokenOut",
              "type": "address"
            },
            {
              "internalType": "uint24",
              "name": "fee",
              "type": "uint24"
            },
            {
              "internalType": "address",
              "name": "recipient",
              "type": "address"
            },
            {
              "internalType": "uint256",
              "name": "amountIn",
              "type": "uint256"
            },
            {
              "internalType": "uint256",
              "name": "amountOutMinimum",
              "type": "uint256"
            },
            {
              "internalType": "uint160",
              "name": "sqrtPriceLimitX96",
              "type": "uint160"
            }
          ],
          "internalType": "struct MockSwapRouter.ExactInputSingleParams",
          "name": "",
          "type": "tuple"
        }
      ],
      "stateMutability": "view",
      "type": "function"
    },
    {
      "inputs": [
        {
          "internalType": "uint256",
          "name": "amountOut",
          "type": "uint256"
        }
      ],
      "name": "setSwapResult",
      "outputs": [],
      "stateMutability": "nonpayable",
      "type": "function"
    },
    {
      "inputs": [],
      "name": "setSwapToRevert",
      "outputs": [],
      "stateMutability": "nonpayable",
      "type": "function"
    }
  ],
  "bytecode": "0x608060405234801561001057600080fd5b50610e1e806100206000396000f3fe60806040526004361061003f5760003560e01c806304e45aaf14610044578063256c533e146100745780632c6fc14f1461009f578063d7cfecf5146100b6575b600080fd5b61005e60048036038101906100599190610749565b6100df565b60405161006b919061078f565b60405180910390f35b34801561008057600080fd5b506100896103f9565b60405161009691906108b5565b60405180910390f35b3480156100ab57600080fd5b506100b46105de565b005b3480156100c257600080fd5b506100dd60048036038101906100d891906108fc565b610622565b005b60006100f5673c00d801dc5a017d60c01b610683565b6101096715b6ce050fce7eb060c01b610683565b61011d672a370b9dbdafc91960c01b610683565b8160000160208101906101309190610955565b73ffffffffffffffffffffffffffffffffffffffff166323b872dd333085608001356040518463ffffffff1660e01b815260040161017093929190610991565b6020604051808303816000875af115801561018f573d6000803e3d6000fd5b505050506040513d601f19601f820116820180604052508101906101b39190610a00565b506101c86736431962b90dc05360c01b610683565b6101dc6795b30cabaa11628560c01b610683565b73eeeeeeeeeeeeeeeeeeeeeeeeeeeeeeeeeeeeeeee73ffffffffffffffffffffffffffffffffffffffff1682602001602081019061021a9190610955565b73ffffffffffffffffffffffffffffffffffffffff16036102d1576102496763254b054c3d133860c01b610683565b61025d678f97396be710c0c460c01b610683565b6102716736f71079e8d7e91c60c01b610683565b8160600160208101906102849190610955565b73ffffffffffffffffffffffffffffffffffffffff166108fc6000549081150290604051600060405180830381858888f193505050501580156102cb573d6000803e3d6000fd5b506103a1565b6102e56768faf3cdccacc4f760c01b610683565b6102f96721bc8b4cc059e53360c01b610683565b61030d67bae42fe60c7a695160c01b610683565b8160200160208101906103209190610955565b73ffffffffffffffffffffffffffffffffffffffff166340c10f1983606001602081019061034e9190610955565b6000546040518363ffffffff1660e01b815260040161036e929190610a2d565b600060405180830381600087803b15801561038857600080fd5b505af115801561039c573d6000803e3d6000fd5b505050505b6103b56721328edb216027c160c01b610683565b81600281816103c49190610dda565b9050506103db678e6e50e64cb8a80c60c01b610683565b6103ef675173cfcde9223e0860c01b610683565b6000549050919050565b610401610686565b610415676a8368099593fc6460c01b610683565b610429678edf493d9482da5860c01b610683565b61043d67d0cc22f0755b734960c01b610683565b60026040518060e00160405290816000820160009054906101000a900473ffffffffffffffffffffffffffffffffffffffff1673ffffffffffffffffffffffffffffffffffffffff1673ffffffffffffffffffffffffffffffffffffffff1681526020016001820160009054906101000a900473ffffffffffffffffffffffffffffffffffffffff1673ffffffffffffffffffffffffffffffffffffffff1673ffffffffffffffffffffffffffffffffffffffff1681526020016001820160149054906101000a900462ffffff1662ffffff1662ffffff1681526020016002820160009054906101000a900473ffffffffffffffffffffffffffffffffffffffff1673ffffffffffffffffffffffffffffffffffffffff1673ffffffffffffffffffffffffffffffffffffffff16815260200160038201548152602001600482015481526020016005820160009054906101000a900473ffffffffffffffffffffffffffffffffffffffff1673ffffffffffffffffffffffffffffffffffffffff1673ffffffffffffffffffffffffffffffffffffffff1681525050905090565b6105f2679f8936fbb269686060c01b610683565b61060667355c5ada633f410d60c01b610683565b60018060006101000a81548160ff021916908315150217905550565b61063667705c3ca05d5b6f1d60c01b610683565b61064a6749d9e9657fd4dc8c60c01b610683565b80600081905550610665676f6564b0445409bd60c01b610683565b6000600160006101000a81548160ff02191690831515021790555050565b50565b6040518060e00160405280600073ffffffffffffffffffffffffffffffffffffffff168152602001600073ffffffffffffffffffffffffffffffffffffffff168152602001600062ffffff168152602001600073ffffffffffffffffffffffffffffffffffffffff1681526020016000815260200160008152602001600073ffffffffffffffffffffffffffffffffffffffff1681525090565b600080fd5b600080fd5b600060e082840312156107405761073f610725565b5b81905092915050565b600060e0828403121561075f5761075e610720565b5b600061076d8482850161072a565b91505092915050565b6000819050919050565b61078981610776565b82525050565b60006020820190506107a46000830184610780565b92915050565b600073ffffffffffffffffffffffffffffffffffffffff82169050919050565b60006107d5826107aa565b9050919050565b6107e5816107ca565b82525050565b600062ffffff82169050919050565b610803816107eb565b82525050565b61081281610776565b82525050565b610821816107aa565b82525050565b60e08201600082015161083d60008501826107dc565b50602082015161085060208501826107dc565b50604082015161086360408501826107fa565b50606082015161087660608501826107dc565b5060808201516108896080850182610809565b5060a082015161089c60a0850182610809565b5060c08201516108af60c0850182610818565b50505050565b600060e0820190506108ca6000830184610827565b92915050565b6108d981610776565b81146108e457600080fd5b50565b6000813590506108f6816108d0565b92915050565b60006020828403121561091257610911610720565b5b6000610920848285016108e7565b91505092915050565b610932816107ca565b811461093d57600080fd5b50565b60008135905061094f81610929565b92915050565b60006020828403121561096b5761096a610720565b5b600061097984828501610940565b91505092915050565b61098b816107ca565b82525050565b60006060820190506109a66000830186610982565b6109b36020830185610982565b6109c06040830184610780565b949350505050565b60008115159050919050565b6109dd816109c8565b81146109e857600080fd5b50565b6000815190506109fa816109d4565b92915050565b600060208284031215610a1657610a15610720565b5b6000610a24848285016109eb565b91505092915050565b6000604082019050610a426000830185610982565b610a4f6020830184610780565b9392505050565b60008135610a6381610929565b80915050919050565b60008160001b9050919050565b600073ffffffffffffffffffffffffffffffffffffffff610a9984610a6c565b9350801983169250808416831791505092915050565b6000819050919050565b6000610ad4610acf610aca846107aa565b610aaf565b6107aa565b9050919050565b6000610ae682610ab9565b9050919050565b6000610af882610adb565b9050919050565b6000819050919050565b610b1282610aed565b610b25610b1e82610aff565b8354610a79565b8255505050565b610b35816107eb565b8114610b4057600080fd5b50565b60008135610b5081610b2c565b80915050919050565b60008160a01b9050919050565b600076ffffff0000000000000000000000000000000000000000610b8984610b59565b9350801983169250808416831791505092915050565b6000610bba610bb5610bb0846107eb565b610aaf565b6107eb565b9050919050565b6000819050919050565b610bd482610b9f565b610be7610be082610bc1565b8354610b66565b8255505050565b60008135610bfb816108d0565b80915050919050565b60007fffffffffffffffffffffffffffffffffffffffffffffffffffffffffffffffff610c3084610a6c565b9350801983169250808416831791505092915050565b6000610c61610c5c610c5784610776565b610aaf565b610776565b9050919050565b6000819050919050565b610c7b82610c46565b610c8e610c8782610c68565b8354610c04565b8255505050565b610c9e816107aa565b8114610ca957600080fd5b50565b60008135610cb981610c95565b80915050919050565b6000819050919050565b610cd582610ab9565b610ce8610ce182610cc2565b8354610a79565b8255505050565b600081016000830180610d0181610a56565b9050610d0d8184610b09565b505050600181016020830180610d2281610a56565b9050610d2e8184610b09565b505050600181016040830180610d4381610b43565b9050610d4f8184610bcb565b505050600281016060830180610d6481610a56565b9050610d708184610b09565b505050600381016080830180610d8581610bee565b9050610d918184610c72565b5050506004810160a0830180610da681610bee565b9050610db28184610c72565b5050506005810160c0830180610dc781610cac565b9050610dd38184610ccc565b5050505050565b610de48282610cef565b505056fea2646970667358221220deea7d39b8d301fb986d7946973fdb45b9586217ceb7e9dbb443754bc9b1d48164736f6c63430008180033",
  "linkReferences": {},
  "deployedLinkReferences": {}
}