{
  "_format": "hh-sol-artifact-1",
  "contractName": "MockV3Aggregator",
  "sourceName": "contracts/mock/ERC20Mock.sol",
  "abi": [
    {
      "inputs": [
        {
          "internalType": "uint8",
          "name": "decimals_",
          "type": "uint8"
        },
        {
          "internalType": "int256",
          "name": "initialAnswer",
          "type": "int256"
        }
      ],
      "stateMutability": "nonpayable",
      "type": "constructor"
    },
    {
      "inputs": [],
      "name": "decimals",
      "outputs": [
        {
          "internalType": "uint8",
          "name": "",
          "type": "uint8"
        }
      ],
      "stateMutability": "view",
      "type": "function"
    },
    {
      "inputs": [],
      "name": "latestRoundData",
      "outputs": [
        {
          "internalType": "uint80",
          "name": "roundId",
          "type": "uint80"
        },
        {
          "internalType": "int256",
          "name": "answer",
          "type": "int256"
        },
        {
          "internalType": "uint256",
          "name": "startedAt",
          "type": "uint256"
        },
        {
          "internalType": "uint256",
          "name": "updatedAt",
          "type": "uint256"
        },
        {
          "internalType": "uint80",
          "name": "answeredInRound",
          "type": "uint80"
        }
      ],
      "stateMutability": "view",
      "type": "function"
    },
    {
      "inputs": [
        {
          "internalType": "int256",
          "name": "newAnswer",
          "type": "int256"
        }
      ],
      "name": "updateAnswer",
      "outputs": [],
      "stateMutability": "nonpayable",
      "type": "function"
    }
  ],
  "bytecode": "0x608060405234801561001057600080fd5b506040516104a63803806104a683398181016040528101906100329190610140565b61004c67fc4f11be1b36fa8c60c01b6100c960201b60201c565b61006667c5117af7a1e186d860c01b6100c960201b60201c565b816000806101000a81548160ff021916908360ff16021790555061009a6741369f2f32ebfdbf60c01b6100c960201b60201c565b806001819055506100bb67ddf80a613ecc919260c01b6100c960201b60201c565b426002819055505050610180565b50565b600080fd5b600060ff82169050919050565b6100e7816100d1565b81146100f257600080fd5b50565b600081519050610104816100de565b92915050565b6000819050919050565b61011d8161010a565b811461012857600080fd5b50565b60008151905061013a81610114565b92915050565b60008060408385031215610157576101566100cc565b5b6000610165858286016100f5565b92505060206101768582860161012b565b9150509250929050565b6103178061018f6000396000f3fe608060405234801561001057600080fd5b50600436106100415760003560e01c8063313ce56714610046578063a87a20ce14610064578063feaf968c14610080575b600080fd5b61004e6100a2565b60405161005b91906101be565b60405180910390f35b61007e60048036038101906100799190610214565b6100f3565b005b610088610140565b60405161009995949392919061028e565b60405180910390f35b60006100b867816a93bbe9b6619b60c01b61019f565b6100cc67ad0ca9af9c8d3aa660c01b61019f565b6100e0673bd60ba2ec249e8d60c01b61019f565b60008054906101000a900460ff16905090565b610107678143fe17f75ef83460c01b61019f565b61011b67c455631b1424071f60c01b61019f565b80600181905550610136678797cce1a400493860c01b61019f565b4260028190555050565b600080600080600061015c67dea33c49bef6ff4360c01b61019f565b6101706781f15c639339b3c560c01b61019f565b61018467af6521d455439a9d60c01b61019f565b60018054426002546001945094509450945094509091929394565b50565b600060ff82169050919050565b6101b8816101a2565b82525050565b60006020820190506101d360008301846101af565b92915050565b600080fd5b6000819050919050565b6101f1816101de565b81146101fc57600080fd5b50565b60008135905061020e816101e8565b92915050565b60006020828403121561022a576102296101d9565b5b6000610238848285016101ff565b91505092915050565b600069ffffffffffffffffffff82169050919050565b61026081610241565b82525050565b61026f816101de565b82525050565b6000819050919050565b61028881610275565b82525050565b600060a0820190506102a36000830188610257565b6102b06020830187610266565b6102bd604083018661027f565b6102ca606083018561027f565b6102d76080830184610257565b969550505050505056fea26469706673582212206ca37877dd66b2b537e38cc1cf046b6ad1bc7893670e9a3fafc4362f524426d764736f6c63430008180033",
  "linkReferences": {},
  "deployedLinkReferences": {}
}