{
  "_format": "hh-sol-artifact-1",
  "contractName": "MockSwapRouter",
  "sourceName": "contracts/mock/ERC20Mock.sol",
  "abi": [
    {
      "inputs": [
        {
          "components": [
            {
              "internalType": "address",
              "name": "tokenIn",
              "type": "address"
            },
            {
              "internalType": "address",
              "name": "tokenOut",
              "type": "address"
            },
            {
              "internalType": "uint24",
              "name": "fee",
              "type": "uint24"
            },
            {
              "internalType": "address",
              "name": "recipient",
              "type": "address"
            },
            {
              "internalType": "uint256",
              "name": "amountIn",
              "type": "uint256"
            },
            {
              "internalType": "uint256",
              "name": "amountOutMinimum",
              "type": "uint256"
            },
            {
              "internalType": "uint160",
              "name": "sqrtPriceLimitX96",
              "type": "uint160"
            }
          ],
          "internalType": "struct MockSwapRouter.ExactInputSingleParams",
          "name": "params",
          "type": "tuple"
        }
      ],
      "name": "exactInputSingle",
      "outputs": [
        {
          "internalType": "uint256",
          "name": "amountOut",
          "type": "uint256"
        }
      ],
      "stateMutability": "payable",
      "type": "function"
    },
    {
      "inputs": [],
      "name": "getLastParams",
      "outputs": [
        {
          "components": [
            {
              "internalType": "address",
              "name": "tokenIn",
              "type": "address"
            },
            {
              "internalType": "address",
              "name": "tokenOut",
              "type": "address"
            },
            {
              "internalType": "uint24",
              "name": "fee",
              "type": "uint24"
            },
            {
              "internalType": "address",
              "name": "recipient",
              "type": "address"
            },
            {
              "internalType": "uint256",
              "name": "amountIn",
              "type": "uint256"
            },
            {
              "internalType": "uint256",
              "name": "amountOutMinimum",
              "type": "uint256"
            },
            {
              "internalType": "uint160",
              "name": "sqrtPriceLimitX96",
              "type": "uint160"
            }
          ],
          "internalType": "struct MockSwapRouter.ExactInputSingleParams",
          "name": "",
          "type": "tuple"
        }
      ],
      "stateMutability": "view",
      "type": "function"
    },
    {
      "inputs": [
        {
          "internalType": "uint256",
          "name": "amountOut",
          "type": "uint256"
        }
      ],
      "name": "setSwapResult",
      "outputs": [],
      "stateMutability": "nonpayable",
      "type": "function"
    },
    {
      "inputs": [],
      "name": "setSwapToRevert",
      "outputs": [],
      "stateMutability": "nonpayable",
      "type": "function"
    }
  ],
  "bytecode": "0x608060405234801561001057600080fd5b50610c63806100206000396000f3fe60806040526004361061003f5760003560e01c806304e45aaf14610044578063256c533e146100745780632c6fc14f1461009f578063d7cfecf5146100b6575b600080fd5b61005e6004803603810190610059919061058e565b6100df565b60405161006b91906105d4565b60405180910390f35b34801561008057600080fd5b506100896102e1565b60405161009691906106fa565b60405180910390f35b3480156100ab57600080fd5b506100b461048a565b005b3480156100c257600080fd5b506100dd60048036038101906100d89190610741565b6104a6565b005b60008160000160208101906100f4919061079a565b73ffffffffffffffffffffffffffffffffffffffff166323b872dd333085608001356040518463ffffffff1660e01b8152600401610134939291906107d6565b6020604051808303816000875af1158015610153573d6000803e3d6000fd5b505050506040513d601f19601f820116820180604052508101906101779190610845565b5073eeeeeeeeeeeeeeeeeeeeeeeeeeeeeeeeeeeeeeee73ffffffffffffffffffffffffffffffffffffffff168260200160208101906101b6919061079a565b73ffffffffffffffffffffffffffffffffffffffff1603610231578160600160208101906101e4919061079a565b73ffffffffffffffffffffffffffffffffffffffff166108fc6000549081150290604051600060405180830381858888f1935050505015801561022b573d6000803e3d6000fd5b506102c5565b816020016020810190610244919061079a565b73ffffffffffffffffffffffffffffffffffffffff166340c10f19836060016020810190610272919061079a565b6000546040518363ffffffff1660e01b8152600401610292929190610872565b600060405180830381600087803b1580156102ac57600080fd5b505af11580156102c0573d6000803e3d6000fd5b505050505b81600281816102d49190610c1f565b9050506000549050919050565b6102e96104cb565b60026040518060e00160405290816000820160009054906101000a900473ffffffffffffffffffffffffffffffffffffffff1673ffffffffffffffffffffffffffffffffffffffff1673ffffffffffffffffffffffffffffffffffffffff1681526020016001820160009054906101000a900473ffffffffffffffffffffffffffffffffffffffff1673ffffffffffffffffffffffffffffffffffffffff1673ffffffffffffffffffffffffffffffffffffffff1681526020016001820160149054906101000a900462ffffff1662ffffff1662ffffff1681526020016002820160009054906101000a900473ffffffffffffffffffffffffffffffffffffffff1673ffffffffffffffffffffffffffffffffffffffff1673ffffffffffffffffffffffffffffffffffffffff16815260200160038201548152602001600482015481526020016005820160009054906101000a900473ffffffffffffffffffffffffffffffffffffffff1673ffffffffffffffffffffffffffffffffffffffff1673ffffffffffffffffffffffffffffffffffffffff1681525050905090565b60018060006101000a81548160ff021916908315150217905550565b806000819055506000600160006101000a81548160ff02191690831515021790555050565b6040518060e00160405280600073ffffffffffffffffffffffffffffffffffffffff168152602001600073ffffffffffffffffffffffffffffffffffffffff168152602001600062ffffff168152602001600073ffffffffffffffffffffffffffffffffffffffff1681526020016000815260200160008152602001600073ffffffffffffffffffffffffffffffffffffffff1681525090565b600080fd5b600080fd5b600060e082840312156105855761058461056a565b5b81905092915050565b600060e082840312156105a4576105a3610565565b5b60006105b28482850161056f565b91505092915050565b6000819050919050565b6105ce816105bb565b82525050565b60006020820190506105e960008301846105c5565b92915050565b600073ffffffffffffffffffffffffffffffffffffffff82169050919050565b600061061a826105ef565b9050919050565b61062a8161060f565b82525050565b600062ffffff82169050919050565b61064881610630565b82525050565b610657816105bb565b82525050565b610666816105ef565b82525050565b60e0820160008201516106826000850182610621565b5060208201516106956020850182610621565b5060408201516106a8604085018261063f565b5060608201516106bb6060850182610621565b5060808201516106ce608085018261064e565b5060a08201516106e160a085018261064e565b5060c08201516106f460c085018261065d565b50505050565b600060e08201905061070f600083018461066c565b92915050565b61071e816105bb565b811461072957600080fd5b50565b60008135905061073b81610715565b92915050565b60006020828403121561075757610756610565565b5b60006107658482850161072c565b91505092915050565b6107778161060f565b811461078257600080fd5b50565b6000813590506107948161076e565b92915050565b6000602082840312156107b0576107af610565565b5b60006107be84828501610785565b91505092915050565b6107d08161060f565b82525050565b60006060820190506107eb60008301866107c7565b6107f860208301856107c7565b61080560408301846105c5565b949350505050565b60008115159050919050565b6108228161080d565b811461082d57600080fd5b50565b60008151905061083f81610819565b92915050565b60006020828403121561085b5761085a610565565b5b600061086984828501610830565b91505092915050565b600060408201905061088760008301856107c7565b61089460208301846105c5565b9392505050565b600081356108a88161076e565b80915050919050565b60008160001b9050919050565b600073ffffffffffffffffffffffffffffffffffffffff6108de846108b1565b9350801983169250808416831791505092915050565b6000819050919050565b600061091961091461090f846105ef565b6108f4565b6105ef565b9050919050565b600061092b826108fe565b9050919050565b600061093d82610920565b9050919050565b6000819050919050565b61095782610932565b61096a61096382610944565b83546108be565b8255505050565b61097a81610630565b811461098557600080fd5b50565b6000813561099581610971565b80915050919050565b60008160a01b9050919050565b600076ffffff00000000000000000000000000000000000000006109ce8461099e565b9350801983169250808416831791505092915050565b60006109ff6109fa6109f584610630565b6108f4565b610630565b9050919050565b6000819050919050565b610a19826109e4565b610a2c610a2582610a06565b83546109ab565b8255505050565b60008135610a4081610715565b80915050919050565b60007fffffffffffffffffffffffffffffffffffffffffffffffffffffffffffffffff610a75846108b1565b9350801983169250808416831791505092915050565b6000610aa6610aa1610a9c846105bb565b6108f4565b6105bb565b9050919050565b6000819050919050565b610ac082610a8b565b610ad3610acc82610aad565b8354610a49565b8255505050565b610ae3816105ef565b8114610aee57600080fd5b50565b60008135610afe81610ada565b80915050919050565b6000819050919050565b610b1a826108fe565b610b2d610b2682610b07565b83546108be565b8255505050565b600081016000830180610b468161089b565b9050610b52818461094e565b505050600181016020830180610b678161089b565b9050610b73818461094e565b505050600181016040830180610b8881610988565b9050610b948184610a10565b505050600281016060830180610ba98161089b565b9050610bb5818461094e565b505050600381016080830180610bca81610a33565b9050610bd68184610ab7565b5050506004810160a0830180610beb81610a33565b9050610bf78184610ab7565b5050506005810160c0830180610c0c81610af1565b9050610c188184610b11565b5050505050565b610c298282610b34565b505056fea2646970667358221220bc132f990a7ca95ddca62db5467692420f0bb1ebdd0be85985d7c3f58731368e64736f6c63430008180033",
  "linkReferences": {},
  "deployedLinkReferences": {}
}