{
  "_format": "hh-sol-artifact-1",
  "contractName": "MockV3Aggregator",
  "sourceName": "contracts/mock/ERC20Mock.sol",
  "abi": [
    {
      "inputs": [
        {
          "internalType": "uint8",
          "name": "decimals_",
          "type": "uint8"
        },
        {
          "internalType": "int256",
          "name": "initialAnswer",
          "type": "int256"
        }
      ],
      "stateMutability": "nonpayable",
      "type": "constructor"
    },
    {
      "inputs": [],
      "name": "decimals",
      "outputs": [
        {
          "internalType": "uint8",
          "name": "",
          "type": "uint8"
        }
      ],
      "stateMutability": "view",
      "type": "function"
    },
    {
      "inputs": [],
      "name": "latestRoundData",
      "outputs": [
        {
          "internalType": "uint80",
          "name": "roundId",
          "type": "uint80"
        },
        {
          "internalType": "int256",
          "name": "answer",
          "type": "int256"
        },
        {
          "internalType": "uint256",
          "name": "startedAt",
          "type": "uint256"
        },
        {
          "internalType": "uint256",
          "name": "updatedAt",
          "type": "uint256"
        },
        {
          "internalType": "uint80",
          "name": "answeredInRound",
          "type": "uint80"
        }
      ],
      "stateMutability": "view",
      "type": "function"
    },
    {
      "inputs": [
        {
          "internalType": "int256",
          "name": "newAnswer",
          "type": "int256"
        }
      ],
      "name": "updateAnswer",
      "outputs": [],
      "stateMutability": "nonpayable",
      "type": "function"
    }
  ],
  "bytecode": "0x608060405234801561001057600080fd5b50604051610385380380610385833981810160405281019061003291906100d5565b816000806101000a81548160ff021916908360ff16021790555080600181905550426002819055505050610115565b600080fd5b600060ff82169050919050565b61007c81610066565b811461008757600080fd5b50565b60008151905061009981610073565b92915050565b6000819050919050565b6100b28161009f565b81146100bd57600080fd5b50565b6000815190506100cf816100a9565b92915050565b600080604083850312156100ec576100eb610061565b5b60006100fa8582860161008a565b925050602061010b858286016100c0565b9150509250929050565b610261806101246000396000f3fe608060405234801561001057600080fd5b50600436106100415760003560e01c8063313ce56714610046578063a87a20ce14610064578063feaf968c14610080575b600080fd5b61004e6100a2565b60405161005b9190610108565b60405180910390f35b61007e6004803603810190610079919061015e565b6100b8565b005b6100886100c9565b6040516100999594939291906101d8565b60405180910390f35b60008060009054906101000a900460ff16905090565b806001819055504260028190555050565b600080600080600060018054426002546001945094509450945094509091929394565b600060ff82169050919050565b610102816100ec565b82525050565b600060208201905061011d60008301846100f9565b92915050565b600080fd5b6000819050919050565b61013b81610128565b811461014657600080fd5b50565b60008135905061015881610132565b92915050565b60006020828403121561017457610173610123565b5b600061018284828501610149565b91505092915050565b600069ffffffffffffffffffff82169050919050565b6101aa8161018b565b82525050565b6101b981610128565b82525050565b6000819050919050565b6101d2816101bf565b82525050565b600060a0820190506101ed60008301886101a1565b6101fa60208301876101b0565b61020760408301866101c9565b61021460608301856101c9565b61022160808301846101a1565b969550505050505056fea2646970667358221220046defb11d71fed919ca36aa16cd401043ab99d5596736071e08d8e78e61914164736f6c63430008180033",
  "linkReferences": {},
  "deployedLinkReferences": {}
}