{
  "_format": "hh-sol-artifact-1",
  "contractName": "Stream",
  "sourceName": "contracts/Stream.sol",
  "abi": [
    {
      "inputs": [
        {
          "internalType": "address payable",
          "name": "feeAddrs",
          "type": "address"
        }
      ],
      "stateMutability": "nonpayable",
      "type": "constructor"
    },
    {
      "anonymous": false,
      "inputs": [
        {
          "indexed": true,
          "internalType": "address",
          "name": "streamer",
          "type": "address"
        },
        {
          "indexed": true,
          "internalType": "address",
          "name": "token",
          "type": "address"
        },
        {
          "indexed": true,
          "internalType": "address",
          "name": "recipient",
          "type": "address"
        },
        {
          "indexed": false,
          "internalType": "uint256",
          "name": "amount",
          "type": "uint256"
        }
      ],
      "name": "StreamAllowed",
      "type": "event"
    },
    {
      "anonymous": false,
      "inputs": [
        {
          "indexed": true,
          "internalType": "address",
          "name": "token",
          "type": "address"
        },
        {
          "indexed": true,
          "internalType": "address",
          "name": "streamer",
          "type": "address"
        },
        {
          "indexed": true,
          "internalType": "address",
          "name": "recipient",
          "type": "address"
        },
        {
          "indexed": false,
          "internalType": "string",
          "name": "message",
          "type": "string"
        }
      ],
      "name": "StreamFailure",
      "type": "event"
    },
    {
      "anonymous": false,
      "inputs": [
        {
          "indexed": true,
          "internalType": "address",
          "name": "token",
          "type": "address"
        },
        {
          "indexed": true,
          "internalType": "address",
          "name": "streamer",
          "type": "address"
        },
        {
          "indexed": true,
          "internalType": "address",
          "name": "recipient",
          "type": "address"
        },
        {
          "indexed": false,
          "internalType": "uint256",
          "name": "amount",
          "type": "uint256"
        }
      ],
      "name": "Streamed",
      "type": "event"
    },
    {
      "inputs": [
        {
          "internalType": "address",
          "name": "token",
          "type": "address"
        },
        {
          "internalType": "address",
          "name": "recipient",
          "type": "address"
        },
        {
          "internalType": "uint256",
          "name": "amount",
          "type": "uint256"
        },
        {
          "internalType": "uint256",
          "name": "window",
          "type": "uint256"
        },
        {
          "internalType": "bool",
          "name": "once",
          "type": "bool"
        }
      ],
      "name": "allowStream",
      "outputs": [],
      "stateMutability": "nonpayable",
      "type": "function"
    },
    {
      "inputs": [
        {
          "internalType": "address[]",
          "name": "tokens",
          "type": "address[]"
        },
        {
          "internalType": "address[]",
          "name": "recipients",
          "type": "address[]"
        },
        {
          "internalType": "uint256[]",
          "name": "amounts",
          "type": "uint256[]"
        },
        {
          "internalType": "uint256[]",
          "name": "windows",
          "type": "uint256[]"
        },
        {
          "internalType": "bool[]",
          "name": "onces",
          "type": "bool[]"
        }
      ],
      "name": "batchAllowStream",
      "outputs": [],
      "stateMutability": "nonpayable",
      "type": "function"
    },
    {
      "inputs": [
        {
          "internalType": "address[]",
          "name": "streamers",
          "type": "address[]"
        },
        {
          "internalType": "address[]",
          "name": "tokens",
          "type": "address[]"
        },
        {
          "internalType": "address[]",
          "name": "recipients",
          "type": "address[]"
        }
      ],
      "name": "batchComputeHash",
      "outputs": [
        {
          "internalType": "bytes32[]",
          "name": "",
          "type": "bytes32[]"
        }
      ],
      "stateMutability": "pure",
      "type": "function"
    },
    {
      "inputs": [
        {
          "internalType": "address[]",
          "name": "tokens",
          "type": "address[]"
        },
        {
          "internalType": "address[]",
          "name": "streamers",
          "type": "address[]"
        },
        {
          "internalType": "address[]",
          "name": "recipients",
          "type": "address[]"
        }
      ],
      "name": "batchStream",
      "outputs": [],
      "stateMutability": "nonpayable",
      "type": "function"
    },
    {
      "inputs": [
        {
          "internalType": "address[]",
          "name": "tokens",
          "type": "address[]"
        },
        {
          "internalType": "address[]",
          "name": "streamers",
          "type": "address[]"
        },
        {
          "internalType": "address[]",
          "name": "recipients",
          "type": "address[]"
        }
      ],
      "name": "batchStreamAvailable",
      "outputs": [],
      "stateMutability": "nonpayable",
      "type": "function"
    },
    {
      "inputs": [
        {
          "internalType": "bytes32[]",
          "name": "hashes",
          "type": "bytes32[]"
        }
      ],
      "name": "batchStreamAvailableAllowances",
      "outputs": [],
      "stateMutability": "nonpayable",
      "type": "function"
    },
    {
      "inputs": [
        {
          "internalType": "address[]",
          "name": "tokens",
          "type": "address[]"
        },
        {
          "internalType": "address[]",
          "name": "streamers",
          "type": "address[]"
        },
        {
          "internalType": "address[]",
          "name": "recipients",
          "type": "address[]"
        }
      ],
      "name": "cancelStreams",
      "outputs": [],
      "stateMutability": "nonpayable",
      "type": "function"
    },
    {
      "inputs": [
        {
          "internalType": "address",
          "name": "streamer",
          "type": "address"
        },
        {
          "internalType": "address",
          "name": "token",
          "type": "address"
        },
        {
          "internalType": "address",
          "name": "recipient",
          "type": "address"
        }
      ],
      "name": "computeHash",
      "outputs": [
        {
          "internalType": "bytes32",
          "name": "",
          "type": "bytes32"
        }
      ],
      "stateMutability": "pure",
      "type": "function"
    },
    {
      "inputs": [],
      "name": "fee",
      "outputs": [
        {
          "internalType": "uint256",
          "name": "",
          "type": "uint256"
        }
      ],
      "stateMutability": "view",
      "type": "function"
    },
    {
      "inputs": [],
      "name": "feeAddress",
      "outputs": [
        {
          "internalType": "address payable",
          "name": "",
          "type": "address"
        }
      ],
      "stateMutability": "view",
      "type": "function"
    },
    {
      "inputs": [
        {
          "internalType": "address",
          "name": "token",
          "type": "address"
        },
        {
          "internalType": "address",
          "name": "streamer",
          "type": "address"
        },
        {
          "internalType": "address",
          "name": "recipient",
          "type": "address"
        }
      ],
      "name": "getAvailable",
      "outputs": [
        {
          "internalType": "uint256",
          "name": "",
          "type": "uint256"
        }
      ],
      "stateMutability": "view",
      "type": "function"
    },
    {
      "inputs": [
        {
          "internalType": "bytes32[]",
          "name": "hashes",
          "type": "bytes32[]"
        }
      ],
      "name": "getStreamDetails",
      "outputs": [
        {
          "internalType": "uint256[]",
          "name": "availableAmounts",
          "type": "uint256[]"
        },
        {
          "internalType": "uint8[]",
          "name": "decimals",
          "type": "uint8[]"
        },
        {
          "internalType": "string[]",
          "name": "tokenNames",
          "type": "string[]"
        },
        {
          "internalType": "string[]",
          "name": "tokenSymbols",
          "type": "string[]"
        },
        {
          "components": [
            {
              "internalType": "address",
              "name": "streamer",
              "type": "address"
            },
            {
              "internalType": "address",
              "name": "recipient",
              "type": "address"
            },
            {
              "internalType": "address",
              "name": "token",
              "type": "address"
            },
            {
              "internalType": "uint256",
              "name": "totalStreamed",
              "type": "uint256"
            },
            {
              "internalType": "uint256",
              "name": "outstanding",
              "type": "uint256"
            },
            {
              "internalType": "uint256",
              "name": "allowable",
              "type": "uint256"
            },
            {
              "internalType": "uint256",
              "name": "window",
              "type": "uint256"
            },
            {
              "internalType": "uint256",
              "name": "timestamp",
              "type": "uint256"
            },
            {
              "internalType": "bool",
              "name": "once",
              "type": "bool"
            }
          ],
          "internalType": "struct Stream.StreamDetails[]",
          "name": "details",
          "type": "tuple[]"
        }
      ],
      "stateMutability": "view",
      "type": "function"
    },
    {
      "inputs": [
        {
          "internalType": "bytes32[]",
          "name": "hashes",
          "type": "bytes32[]"
        }
      ],
      "name": "getStreamable",
      "outputs": [
        {
          "internalType": "bool[]",
          "name": "canStream",
          "type": "bool[]"
        },
        {
          "internalType": "uint256[]",
          "name": "balances",
          "type": "uint256[]"
        },
        {
          "internalType": "uint256[]",
          "name": "allowances",
          "type": "uint256[]"
        }
      ],
      "stateMutability": "view",
      "type": "function"
    },
    {
      "inputs": [
        {
          "internalType": "uint256",
          "name": "_fee",
          "type": "uint256"
        },
        {
          "internalType": "address",
          "name": "newFeeAddress",
          "type": "address"
        }
      ],
      "name": "setFee",
      "outputs": [],
      "stateMutability": "nonpayable",
      "type": "function"
    },
    {
      "inputs": [
        {
          "internalType": "address",
          "name": "token",
          "type": "address"
        },
        {
          "internalType": "address",
          "name": "streamer",
          "type": "address"
        },
        {
          "internalType": "address",
          "name": "recipient",
          "type": "address"
        }
      ],
      "name": "stream",
      "outputs": [],
      "stateMutability": "nonpayable",
      "type": "function"
    },
    {
      "inputs": [
        {
          "internalType": "bytes32",
          "name": "",
          "type": "bytes32"
        }
      ],
      "name": "streamDetails",
      "outputs": [
        {
          "internalType": "address",
          "name": "streamer",
          "type": "address"
        },
        {
          "internalType": "address",
          "name": "recipient",
          "type": "address"
        },
        {
          "internalType": "address",
          "name": "token",
          "type": "address"
        },
        {
          "internalType": "uint256",
          "name": "totalStreamed",
          "type": "uint256"
        },
        {
          "internalType": "uint256",
          "name": "outstanding",
          "type": "uint256"
        },
        {
          "internalType": "uint256",
          "name": "allowable",
          "type": "uint256"
        },
        {
          "internalType": "uint256",
          "name": "window",
          "type": "uint256"
        },
        {
          "internalType": "uint256",
          "name": "timestamp",
          "type": "uint256"
        },
        {
          "internalType": "bool",
          "name": "once",
          "type": "bool"
        }
      ],
      "stateMutability": "view",
      "type": "function"
    },
    {
      "inputs": [
        {
          "internalType": "address",
          "name": "",
          "type": "address"
        },
        {
          "internalType": "uint256",
          "name": "",
          "type": "uint256"
        }
      ],
      "name": "streamDetailsByRecipient",
      "outputs": [
        {
          "internalType": "bytes32",
          "name": "",
          "type": "bytes32"
        }
      ],
      "stateMutability": "view",
      "type": "function"
    },
    {
      "inputs": [
        {
          "internalType": "address",
          "name": "",
          "type": "address"
        },
        {
          "internalType": "uint256",
          "name": "",
          "type": "uint256"
        }
      ],
      "name": "streamDetailsByStreamer",
      "outputs": [
        {
          "internalType": "bytes32",
          "name": "",
          "type": "bytes32"
        }
      ],
      "stateMutability": "view",
      "type": "function"
    },
    {
      "inputs": [
        {
          "internalType": "address",
          "name": "recipient",
          "type": "address"
        }
      ],
      "name": "viewRecipientAllowances",
      "outputs": [
        {
          "internalType": "bytes32[]",
          "name": "",
          "type": "bytes32[]"
        }
      ],
      "stateMutability": "view",
      "type": "function"
    },
    {
      "inputs": [
        {
          "internalType": "address",
          "name": "streamer",
          "type": "address"
        }
      ],
      "name": "viewStreamerAllowances",
      "outputs": [
        {
          "internalType": "bytes32[]",
          "name": "",
          "type": "bytes32[]"
        }
      ],
      "stateMutability": "view",
      "type": "function"
    }
  ],
  "bytecode": "0x60806040523480156200001157600080fd5b5060405162004c3f38038062004c3f8339818101604052810190620000379190620000e9565b80600360006101000a81548173ffffffffffffffffffffffffffffffffffffffff021916908373ffffffffffffffffffffffffffffffffffffffff160217905550506200011b565b600080fd5b600073ffffffffffffffffffffffffffffffffffffffff82169050919050565b6000620000b18262000084565b9050919050565b620000c381620000a4565b8114620000cf57600080fd5b50565b600081519050620000e381620000b8565b92915050565b6000602082840312156200010257620001016200007f565b5b60006200011284828501620000d2565b91505092915050565b614b14806200012b6000396000f3fe608060405234801561001057600080fd5b506004361061012b5760003560e01c8063a136572d116100ad578063c098c4b011610071578063c098c4b01461036e578063cb5e174c1461039e578063d4628ec6146103ba578063db0b5b24146103ec578063ddca3f431461041c5761012b565b8063a136572d146102b6578063b3bfd06f146102ea578063b416af7414610306578063b4f2e8b814610336578063b8b39691146103525761012b565b80635f261713116100f45780635f26171314610202578063743a29bd1461021e5780638b614d091461024e578063993080c21461026a5780639cc0d08f146102865761012b565b80624790c11461013057806318fd373e1461016057806338cddec6146101985780634010d972146101b457806341275358146101e4575b600080fd5b61014a60048036038101906101459190612faf565b61043a565b604051610157919061301b565b60405180910390f35b61017a6004803603810190610175919061306c565b610573565b60405161018f999897969594939291906130c3565b60405180910390f35b6101b260048036038101906101ad9190612faf565b61062e565b005b6101ce60048036038101906101c99190613150565b61091f565b6040516101db919061323b565b60405180910390f35b6101ec6109b6565b6040516101f9919061327e565b60405180910390f35b61021c600480360381019061021791906132fe565b6109dc565b005b61023860048036038101906102339190612faf565b610d80565b60405161024591906133c1565b60405180910390f35b6102686004803603810190610263919061352b565b610db6565b005b610284600480360381019061027f9190613637565b611052565b005b6102a0600480360381019061029b919061370a565b6116e3565b6040516102ad91906133c1565b60405180910390f35b6102d060048036038101906102cb91906137a0565b611714565b6040516102e1959493929190613c3c565b60405180910390f35b61030460048036038101906102ff91906132fe565b611cda565b005b610320600480360381019061031b91906132fe565b611dd7565b60405161032d919061323b565b60405180910390f35b610350600480360381019061034b9190613cb2565b611f4e565b005b61036c60048036038101906103679190613d1e565b612098565b005b61038860048036038101906103839190613150565b6124bd565b604051610395919061323b565b60405180910390f35b6103b860048036038101906103b39190613e45565b612554565b005b6103d460048036038101906103cf91906137a0565b6126ab565b6040516103e393929190614011565b60405180910390f35b6104066004803603810190610401919061370a565b612b70565b60405161041391906133c1565b60405180910390f35b610424612ba1565b604051610431919061301b565b60405180910390f35b600080610448848685610d80565b905060008060008381526020019081526020016000209050600073ffffffffffffffffffffffffffffffffffffffff168160000160009054906101000a900473ffffffffffffffffffffffffffffffffffffffff1673ffffffffffffffffffffffffffffffffffffffff16036104f3576040517f08c379a00000000000000000000000000000000000000000000000000000000081526004016104ea906140ba565b60405180910390fd5b6000429050600082600701548261050a9190614109565b905060008360060154828560050154610523919061413d565b61052d91906141ae565b90508360040154811180156105575750600115158460080160009054906101000a900460ff161515145b1561056457836004015490505b80955050505050509392505050565b60006020528060005260406000206000915090508060000160009054906101000a900473ffffffffffffffffffffffffffffffffffffffff16908060010160009054906101000a900473ffffffffffffffffffffffffffffffffffffffff16908060020160009054906101000a900473ffffffffffffffffffffffffffffffffffffffff16908060030154908060040154908060050154908060060154908060070154908060080160009054906101000a900460ff16905089565b600061063b838584610d80565b905060008060008381526020019081526020016000209050600073ffffffffffffffffffffffffffffffffffffffff168160000160009054906101000a900473ffffffffffffffffffffffffffffffffffffffff1673ffffffffffffffffffffffffffffffffffffffff16036106e6576040517f08c379a00000000000000000000000000000000000000000000000000000000081526004016106dd906140ba565b60405180910390fd5b600042905060008260070154826106fd9190614109565b905060008360060154828560050154610716919061413d565b61072091906141ae565b905083600401548111801561074a5750600115158460080160009054906101000a900460ff161515145b1561075757836004015490505b6000811161079a576040517f08c379a00000000000000000000000000000000000000000000000000000000081526004016107919061422b565b60405180910390fd5b8360080160009054906101000a900460ff16156107cd57808460040160008282546107c59190614109565b925050819055505b808460030160008282546107e1919061424b565b9250508190555082846007018190555061081e8787838b73ffffffffffffffffffffffffffffffffffffffff16612ba7909392919063ffffffff16565b600060045411156108995760006103e86004548361083c919061413d565b61084691906141ae565b905061089788600360009054906101000a900473ffffffffffffffffffffffffffffffffffffffff16838c73ffffffffffffffffffffffffffffffffffffffff16612ba7909392919063ffffffff16565b505b8573ffffffffffffffffffffffffffffffffffffffff168773ffffffffffffffffffffffffffffffffffffffff168973ffffffffffffffffffffffffffffffffffffffff167faf22af5691f06aea5afb81f1b3d51a6ecb1847e7ff25422fff392cbf52da23268460405161090d919061301b565b60405180910390a45050505050505050565b6060600260008373ffffffffffffffffffffffffffffffffffffffff1673ffffffffffffffffffffffffffffffffffffffff1681526020019081526020016000208054806020026020016040519081016040528092919081815260200182805480156109aa57602002820191906000526020600020905b815481526020019060010190808311610996575b50505050509050919050565b600360009054906101000a900473ffffffffffffffffffffffffffffffffffffffff1681565b83839050868690501480156109f657508181905084849050145b610a35576040517f08c379a0000000000000000000000000000000000000000000000000000000008152600401610a2c906142cb565b60405180910390fd5b60005b86869050811015610d7757848482818110610a5657610a556142eb565b5b9050602002016020810190610a6b9190613150565b73ffffffffffffffffffffffffffffffffffffffff163373ffffffffffffffffffffffffffffffffffffffff161480610af65750828282818110610ab257610ab16142eb565b5b9050602002016020810190610ac79190613150565b73ffffffffffffffffffffffffffffffffffffffff163373ffffffffffffffffffffffffffffffffffffffff16145b610b35576040517f08c379a0000000000000000000000000000000000000000000000000000000008152600401610b2c9061438c565b60405180910390fd5b6000610bb7868684818110610b4d57610b4c6142eb565b5b9050602002016020810190610b629190613150565b898985818110610b7557610b746142eb565b5b9050602002016020810190610b8a9190613150565b868686818110610b9d57610b9c6142eb565b5b9050602002016020810190610bb29190613150565b610d80565b905060008060008381526020019081526020016000209050600073ffffffffffffffffffffffffffffffffffffffff168160000160009054906101000a900473ffffffffffffffffffffffffffffffffffffffff1673ffffffffffffffffffffffffffffffffffffffff1603610c62576040517f08c379a0000000000000000000000000000000000000000000000000000000008152600401610c59906140ba565b60405180910390fd5b6000816005018190555060008160040181905550848484818110610c8957610c886142eb565b5b9050602002016020810190610c9e9190613150565b73ffffffffffffffffffffffffffffffffffffffff16898985818110610cc757610cc66142eb565b5b9050602002016020810190610cdc9190613150565b73ffffffffffffffffffffffffffffffffffffffff16888886818110610d0557610d046142eb565b5b9050602002016020810190610d1a9190613150565b73ffffffffffffffffffffffffffffffffffffffff167fcf8d64e381fa4c6934a7d60007173d92e3e32d0d11698bbb69f14e04fa2c4a896000604051610d6091906143f1565b60405180910390a450508080600101915050610a38565b50505050505050565b6000838383604051602001610d9793929190614454565b6040516020818303038152906040528051906020012090509392505050565b6000815167ffffffffffffffff811115610dd357610dd26133ed565b5b604051908082528060200260200182016040528015610e015781602001602082028036833780820191505090505b5090506000825167ffffffffffffffff811115610e2157610e206133ed565b5b604051908082528060200260200182016040528015610e4f5781602001602082028036833780820191505090505b5090506000835167ffffffffffffffff811115610e6f57610e6e6133ed565b5b604051908082528060200260200182016040528015610e9d5781602001602082028036833780820191505090505b50905060005b8451811015611040576000806000878481518110610ec457610ec36142eb565b5b6020026020010151815260200190815260200160002090508060020160009054906101000a900473ffffffffffffffffffffffffffffffffffffffff16858381518110610f1457610f136142eb565b5b602002602001019073ffffffffffffffffffffffffffffffffffffffff16908173ffffffffffffffffffffffffffffffffffffffff16815250508060000160009054906101000a900473ffffffffffffffffffffffffffffffffffffffff16848381518110610f8657610f856142eb565b5b602002602001019073ffffffffffffffffffffffffffffffffffffffff16908173ffffffffffffffffffffffffffffffffffffffff16815250508060010160009054906101000a900473ffffffffffffffffffffffffffffffffffffffff16838381518110610ff857610ff76142eb565b5b602002602001019073ffffffffffffffffffffffffffffffffffffffff16908173ffffffffffffffffffffffffffffffffffffffff1681525050508080600101915050610ea3565b5061104c838383611052565b50505050565b81518351148015611064575080518251145b6110a3576040517f08c379a000000000000000000000000000000000000000000000000000000000815260040161109a906142cb565b60405180910390fd5b60005b83518110156116dd5760008482815181106110c4576110c36142eb565b5b6020026020010151905060008483815181106110e3576110e26142eb565b5b602002602001015190506000848481518110611102576111016142eb565b5b602002602001015190506000611119838584610d80565b905060008060008381526020019081526020016000209050600073ffffffffffffffffffffffffffffffffffffffff168160000160009054906101000a900473ffffffffffffffffffffffffffffffffffffffff1673ffffffffffffffffffffffffffffffffffffffff160361120d578273ffffffffffffffffffffffffffffffffffffffff168473ffffffffffffffffffffffffffffffffffffffff168673ffffffffffffffffffffffffffffffffffffffff167f8f8aa0dc1312c50d248cb1d3452303f977e220adb4d4c1772bf13036c4347ffa6040516111fb906140ba565b60405180910390a450505050506116d0565b600042905060008260070154826112249190614109565b90506000836006015482856005015461123d919061413d565b61124791906141ae565b90508360040154811180156112715750600115158460080160009054906101000a900460ff161515145b1561127e57836004015490505b6000810361130d578573ffffffffffffffffffffffffffffffffffffffff168773ffffffffffffffffffffffffffffffffffffffff168973ffffffffffffffffffffffffffffffffffffffff167f8f8aa0dc1312c50d248cb1d3452303f977e220adb4d4c1772bf13036c4347ffa6040516112f89061422b565b60405180910390a450505050505050506116d0565b6000806004541115611337576103e86004548361132a919061413d565b61133491906141ae565b90505b60008183611345919061424b565b905060008a73ffffffffffffffffffffffffffffffffffffffff166370a082318b6040518263ffffffff1660e01b81526004016113829190614491565b602060405180830381865afa15801561139f573d6000803e3d6000fd5b505050506040513d601f19601f820116820180604052508101906113c391906144c1565b905081811015611457578873ffffffffffffffffffffffffffffffffffffffff168a73ffffffffffffffffffffffffffffffffffffffff168c73ffffffffffffffffffffffffffffffffffffffff167f8f8aa0dc1312c50d248cb1d3452303f977e220adb4d4c1772bf13036c4347ffa60405161143f90614560565b60405180910390a450505050505050505050506116d0565b60008b73ffffffffffffffffffffffffffffffffffffffff1663dd62ed3e8c306040518363ffffffff1660e01b8152600401611494929190614580565b602060405180830381865afa1580156114b1573d6000803e3d6000fd5b505050506040513d601f19601f820116820180604052508101906114d591906144c1565b90508281101561156a578973ffffffffffffffffffffffffffffffffffffffff168b73ffffffffffffffffffffffffffffffffffffffff168d73ffffffffffffffffffffffffffffffffffffffff167f8f8aa0dc1312c50d248cb1d3452303f977e220adb4d4c1772bf13036c4347ffa6040516115519061461b565b60405180910390a45050505050505050505050506116d0565b8760080160009054906101000a900460ff161561159d57848860040160008282546115959190614109565b925050819055505b848860030160008282546115b1919061424b565b925050819055508688600701819055506115ee8b8b878f73ffffffffffffffffffffffffffffffffffffffff16612ba7909392919063ffffffff16565b6000841115611647576116468b600360009054906101000a900473ffffffffffffffffffffffffffffffffffffffff16868f73ffffffffffffffffffffffffffffffffffffffff16612ba7909392919063ffffffff16565b5b8973ffffffffffffffffffffffffffffffffffffffff168b73ffffffffffffffffffffffffffffffffffffffff168d73ffffffffffffffffffffffffffffffffffffffff167faf22af5691f06aea5afb81f1b3d51a6ecb1847e7ff25422fff392cbf52da2326886040516116bb919061301b565b60405180910390a45050505050505050505050505b80806001019150506110a6565b50505050565b600260205281600052604060002081815481106116ff57600080fd5b90600052602060002001600091509150505481565b606080606080606060008787905090508067ffffffffffffffff81111561173e5761173d6133ed565b5b60405190808252806020026020018201604052801561177757816020015b611764612ead565b81526020019060019003908161175c5790505b5091508067ffffffffffffffff811115611794576117936133ed565b5b6040519080825280602002602001820160405280156117c25781602001602082028036833780820191505090505b5095508067ffffffffffffffff8111156117df576117de6133ed565b5b60405190808252806020026020018201604052801561180d5781602001602082028036833780820191505090505b5094508067ffffffffffffffff81111561182a576118296133ed565b5b60405190808252806020026020018201604052801561185d57816020015b60608152602001906001900390816118485790505b5093508067ffffffffffffffff81111561187a576118796133ed565b5b6040519080825280602002602001820160405280156118ad57816020015b60608152602001906001900390816118985790505b50925060005b81811015611cce576000808a8a848181106118d1576118d06142eb565b5b905060200201358152602001908152602001600020604051806101200160405290816000820160009054906101000a900473ffffffffffffffffffffffffffffffffffffffff1673ffffffffffffffffffffffffffffffffffffffff1673ffffffffffffffffffffffffffffffffffffffff1681526020016001820160009054906101000a900473ffffffffffffffffffffffffffffffffffffffff1673ffffffffffffffffffffffffffffffffffffffff1673ffffffffffffffffffffffffffffffffffffffff1681526020016002820160009054906101000a900473ffffffffffffffffffffffffffffffffffffffff1673ffffffffffffffffffffffffffffffffffffffff1673ffffffffffffffffffffffffffffffffffffffff16815260200160038201548152602001600482015481526020016005820154815260200160068201548152602001600782015481526020016008820160009054906101000a900460ff161515151581525050838281518110611a5457611a536142eb565b5b6020026020010181905250611ac4838281518110611a7557611a746142eb565b5b602002602001015160400151848381518110611a9457611a936142eb565b5b602002602001015160000151858481518110611ab357611ab26142eb565b5b60200260200101516020015161043a565b878281518110611ad757611ad66142eb565b5b6020026020010181815250506000838281518110611af857611af76142eb565b5b60200260200101516040015190508073ffffffffffffffffffffffffffffffffffffffff1663313ce5676040518163ffffffff1660e01b8152600401602060405180830381865afa158015611b51573d6000803e3d6000fd5b505050506040513d601f19601f82011682018060405250810190611b759190614667565b878381518110611b8857611b876142eb565b5b602002602001019060ff16908160ff16815250508073ffffffffffffffffffffffffffffffffffffffff166306fdde036040518163ffffffff1660e01b8152600401600060405180830381865afa158015611be7573d6000803e3d6000fd5b505050506040513d6000823e3d601f19601f82011682018060405250810190611c10919061473a565b868381518110611c2357611c226142eb565b5b60200260200101819052508073ffffffffffffffffffffffffffffffffffffffff166395d89b416040518163ffffffff1660e01b8152600401600060405180830381865afa158015611c79573d6000803e3d6000fd5b505050506040513d6000823e3d601f19601f82011682018060405250810190611ca2919061473a565b858381518110611cb557611cb46142eb565b5b60200260200101819052505080806001019150506118b3565b50509295509295909350565b8383905086869050148015611cf457508181905084849050145b611d33576040517f08c379a0000000000000000000000000000000000000000000000000000000008152600401611d2a906142cb565b60405180910390fd5b60005b86869050811015611dce57611dc1878783818110611d5757611d566142eb565b5b9050602002016020810190611d6c9190613150565b868684818110611d7f57611d7e6142eb565b5b9050602002016020810190611d949190613150565b858585818110611da757611da66142eb565b5b9050602002016020810190611dbc9190613150565b61062e565b8080600101915050611d36565b50505050505050565b60608484905087879050148015611df357508282905085859050145b611e32576040517f08c379a0000000000000000000000000000000000000000000000000000000008152600401611e29906142cb565b60405180910390fd5b600087879050905060008167ffffffffffffffff811115611e5657611e556133ed565b5b604051908082528060200260200182016040528015611e845781602001602082028036833780820191505090505b50905060005b82811015611f3e57611f128a8a83818110611ea857611ea76142eb565b5b9050602002016020810190611ebd9190613150565b898984818110611ed057611ecf6142eb565b5b9050602002016020810190611ee59190613150565b888885818110611ef857611ef76142eb565b5b9050602002016020810190611f0d9190613150565b610d80565b828281518110611f2557611f246142eb565b5b6020026020010181815250508080600101915050611e8a565b5080925050509695505050505050565b600360009054906101000a900473ffffffffffffffffffffffffffffffffffffffff1673ffffffffffffffffffffffffffffffffffffffff163373ffffffffffffffffffffffffffffffffffffffff1614611fde576040517f08c379a0000000000000000000000000000000000000000000000000000000008152600401611fd5906147cf565b60405180910390fd5b6032821115611fee576032611ff0565b815b600481905550600073ffffffffffffffffffffffffffffffffffffffff168173ffffffffffffffffffffffffffffffffffffffff160361205257600360009054906101000a900473ffffffffffffffffffffffffffffffffffffffff16612054565b805b600360006101000a81548173ffffffffffffffffffffffffffffffffffffffff021916908373ffffffffffffffffffffffffffffffffffffffff1602179055505050565b60006120a5338787610d80565b9050600073ffffffffffffffffffffffffffffffffffffffff1660008083815260200190815260200160002060000160009054906101000a900473ffffffffffffffffffffffffffffffffffffffff1673ffffffffffffffffffffffffffffffffffffffff16036123a3576040518061012001604052803373ffffffffffffffffffffffffffffffffffffffff1681526020018673ffffffffffffffffffffffffffffffffffffffff1681526020018773ffffffffffffffffffffffffffffffffffffffff1681526020016000815260200185815260200185815260200184815260200142815260200183151581525060008083815260200190815260200160002060008201518160000160006101000a81548173ffffffffffffffffffffffffffffffffffffffff021916908373ffffffffffffffffffffffffffffffffffffffff16021790555060208201518160010160006101000a81548173ffffffffffffffffffffffffffffffffffffffff021916908373ffffffffffffffffffffffffffffffffffffffff16021790555060408201518160020160006101000a81548173ffffffffffffffffffffffffffffffffffffffff021916908373ffffffffffffffffffffffffffffffffffffffff160217905550606082015181600301556080820151816004015560a0820151816005015560c0820151816006015560e082015181600701556101008201518160080160006101000a81548160ff021916908315150217905550905050600160003373ffffffffffffffffffffffffffffffffffffffff1673ffffffffffffffffffffffffffffffffffffffff168152602001908152602001600020819080600181540180825580915050600190039060005260206000200160009091909190915055600260008673ffffffffffffffffffffffffffffffffffffffff1673ffffffffffffffffffffffffffffffffffffffff168152602001908152602001600020819080600181540180825580915050600190039060005260206000200160009091909190915055612439565b83600080838152602001908152602001600020600501819055508360008083815260200190815260200160002060040181905550826000808381526020019081526020016000206006018190555042600080838152602001908152602001600020600701819055508160008083815260200190815260200160002060080160006101000a81548160ff0219169083151502179055505b8473ffffffffffffffffffffffffffffffffffffffff168673ffffffffffffffffffffffffffffffffffffffff163373ffffffffffffffffffffffffffffffffffffffff167fcf8d64e381fa4c6934a7d60007173d92e3e32d0d11698bbb69f14e04fa2c4a89876040516124ad919061301b565b60405180910390a4505050505050565b6060600160008373ffffffffffffffffffffffffffffffffffffffff1673ffffffffffffffffffffffffffffffffffffffff16815260200190815260200160002080548060200260200160405190810160405280929190818152602001828054801561254857602002820191906000526020600020905b815481526020019060010190808311612534575b50505050509050919050565b878790508a8a905014801561256e57508585905088889050145b801561257f57508383905086869050145b801561259057508181905084849050145b6125cf576040517f08c379a00000000000000000000000000000000000000000000000000000000081526004016125c6906142cb565b60405180910390fd5b60005b8a8a905081101561269e576126918b8b838181106125f3576125f26142eb565b5b90506020020160208101906126089190613150565b8a8a8481811061261b5761261a6142eb565b5b90506020020160208101906126309190613150565b898985818110612643576126426142eb565b5b9050602002013588888681811061265d5761265c6142eb565b5b90506020020135878787818110612677576126766142eb565b5b905060200201602081019061268c91906147ef565b612098565b80806001019150506125d2565b5050505050505050505050565b606080606060008585905090508067ffffffffffffffff8111156126d2576126d16133ed565b5b6040519080825280602002602001820160405280156127005781602001602082028036833780820191505090505b5093508067ffffffffffffffff81111561271d5761271c6133ed565b5b60405190808252806020026020018201604052801561274b5781602001602082028036833780820191505090505b5092508067ffffffffffffffff811115612768576127676133ed565b5b6040519080825280602002602001820160405280156127965781602001602082028036833780820191505090505b50915060005b81811015612b675760008060008989858181106127bc576127bb6142eb565b5b9050602002013581526020019081526020016000209050600073ffffffffffffffffffffffffffffffffffffffff168160000160009054906101000a900473ffffffffffffffffffffffffffffffffffffffff1673ffffffffffffffffffffffffffffffffffffffff1603612866576040517f08c379a000000000000000000000000000000000000000000000000000000000815260040161285d906140ba565b60405180910390fd5b60006128df8260020160009054906101000a900473ffffffffffffffffffffffffffffffffffffffff168360000160009054906101000a900473ffffffffffffffffffffffffffffffffffffffff168460010160009054906101000a900473ffffffffffffffffffffffffffffffffffffffff1661043a565b90508160020160009054906101000a900473ffffffffffffffffffffffffffffffffffffffff1673ffffffffffffffffffffffffffffffffffffffff166370a082318360000160009054906101000a900473ffffffffffffffffffffffffffffffffffffffff166040518263ffffffff1660e01b81526004016129629190614491565b602060405180830381865afa15801561297f573d6000803e3d6000fd5b505050506040513d601f19601f820116820180604052508101906129a391906144c1565b8684815181106129b6576129b56142eb565b5b6020026020010181815250508160020160009054906101000a900473ffffffffffffffffffffffffffffffffffffffff1673ffffffffffffffffffffffffffffffffffffffff1663dd62ed3e8360000160009054906101000a900473ffffffffffffffffffffffffffffffffffffffff16306040518363ffffffff1660e01b8152600401612a45929190614580565b602060405180830381865afa158015612a62573d6000803e3d6000fd5b505050506040513d601f19601f82011682018060405250810190612a8691906144c1565b858481518110612a9957612a986142eb565b5b602002602001018181525050858381518110612ab857612ab76142eb565b5b60200260200101516103e860045483612ad1919061413d565b612adb91906141ae565b82612ae6919061424b565b11158015612b335750848381518110612b0257612b016142eb565b5b60200260200101516103e860045483612b1b919061413d565b612b2591906141ae565b82612b30919061424b565b11155b878481518110612b4657612b456142eb565b5b6020026020010190151590811515815250505050808060010191505061279c565b50509250925092565b60016020528160005260406000208181548110612b8c57600080fd5b90600052602060002001600091509150505481565b60045481565b612c2a846323b872dd60e01b858585604051602401612bc89392919061481c565b604051602081830303815290604052907bffffffffffffffffffffffffffffffffffffffffffffffffffffffff19166020820180517bffffffffffffffffffffffffffffffffffffffffffffffffffffffff8381831617835250505050612c30565b50505050565b6000612c92826040518060400160405280602081526020017f5361666545524332303a206c6f772d6c6576656c2063616c6c206661696c65648152508573ffffffffffffffffffffffffffffffffffffffff16612cf79092919063ffffffff16565b9050600081511115612cf25780806020019051810190612cb29190614868565b612cf1576040517f08c379a0000000000000000000000000000000000000000000000000000000008152600401612ce890614907565b60405180910390fd5b5b505050565b6060612d068484600085612d0f565b90509392505050565b606082471015612d54576040517f08c379a0000000000000000000000000000000000000000000000000000000008152600401612d4b90614999565b60405180910390fd5b612d5d85612e23565b612d9c576040517f08c379a0000000000000000000000000000000000000000000000000000000008152600401612d9390614a05565b60405180910390fd5b6000808673ffffffffffffffffffffffffffffffffffffffff168587604051612dc59190614a6c565b60006040518083038185875af1925050503d8060008114612e02576040519150601f19603f3d011682016040523d82523d6000602084013e612e07565b606091505b5091509150612e17828286612e46565b92505050949350505050565b6000808273ffffffffffffffffffffffffffffffffffffffff163b119050919050565b60608315612e5657829050612ea6565b600083511115612e695782518084602001fd5b816040517f08c379a0000000000000000000000000000000000000000000000000000000008152600401612e9d9190614abc565b60405180910390fd5b9392505050565b604051806101200160405280600073ffffffffffffffffffffffffffffffffffffffff168152602001600073ffffffffffffffffffffffffffffffffffffffff168152602001600073ffffffffffffffffffffffffffffffffffffffff16815260200160008152602001600081526020016000815260200160008152602001600081526020016000151581525090565b6000604051905090565b600080fd5b600080fd5b600073ffffffffffffffffffffffffffffffffffffffff82169050919050565b6000612f7c82612f51565b9050919050565b612f8c81612f71565b8114612f9757600080fd5b50565b600081359050612fa981612f83565b92915050565b600080600060608486031215612fc857612fc7612f47565b5b6000612fd686828701612f9a565b9350506020612fe786828701612f9a565b9250506040612ff886828701612f9a565b9150509250925092565b6000819050919050565b61301581613002565b82525050565b6000602082019050613030600083018461300c565b92915050565b6000819050919050565b61304981613036565b811461305457600080fd5b50565b60008135905061306681613040565b92915050565b60006020828403121561308257613081612f47565b5b600061309084828501613057565b91505092915050565b6130a281612f71565b82525050565b60008115159050919050565b6130bd816130a8565b82525050565b6000610120820190506130d9600083018c613099565b6130e6602083018b613099565b6130f3604083018a613099565b613100606083018961300c565b61310d608083018861300c565b61311a60a083018761300c565b61312760c083018661300c565b61313460e083018561300c565b6131426101008301846130b4565b9a9950505050505050505050565b60006020828403121561316657613165612f47565b5b600061317484828501612f9a565b91505092915050565b600081519050919050565b600082825260208201905092915050565b6000819050602082019050919050565b6131b281613036565b82525050565b60006131c483836131a9565b60208301905092915050565b6000602082019050919050565b60006131e88261317d565b6131f28185613188565b93506131fd83613199565b8060005b8381101561322e57815161321588826131b8565b9750613220836131d0565b925050600181019050613201565b5085935050505092915050565b6000602082019050818103600083015261325581846131dd565b905092915050565b600061326882612f51565b9050919050565b6132788161325d565b82525050565b6000602082019050613293600083018461326f565b92915050565b600080fd5b600080fd5b600080fd5b60008083601f8401126132be576132bd613299565b5b8235905067ffffffffffffffff8111156132db576132da61329e565b5b6020830191508360208202830111156132f7576132f66132a3565b5b9250929050565b6000806000806000806060878903121561331b5761331a612f47565b5b600087013567ffffffffffffffff81111561333957613338612f4c565b5b61334589828a016132a8565b9650965050602087013567ffffffffffffffff81111561336857613367612f4c565b5b61337489828a016132a8565b9450945050604087013567ffffffffffffffff81111561339757613396612f4c565b5b6133a389828a016132a8565b92509250509295509295509295565b6133bb81613036565b82525050565b60006020820190506133d660008301846133b2565b92915050565b6000601f19601f8301169050919050565b7f4e487b7100000000000000000000000000000000000000000000000000000000600052604160045260246000fd5b613425826133dc565b810181811067ffffffffffffffff82111715613444576134436133ed565b5b80604052505050565b6000613457612f3d565b9050613463828261341c565b919050565b600067ffffffffffffffff821115613483576134826133ed565b5b602082029050602081019050919050565b60006134a76134a284613468565b61344d565b905080838252602082019050602084028301858111156134ca576134c96132a3565b5b835b818110156134f357806134df8882613057565b8452602084019350506020810190506134cc565b5050509392505050565b600082601f83011261351257613511613299565b5b8135613522848260208601613494565b91505092915050565b60006020828403121561354157613540612f47565b5b600082013567ffffffffffffffff81111561355f5761355e612f4c565b5b61356b848285016134fd565b91505092915050565b600067ffffffffffffffff82111561358f5761358e6133ed565b5b602082029050602081019050919050565b60006135b36135ae84613574565b61344d565b905080838252602082019050602084028301858111156135d6576135d56132a3565b5b835b818110156135ff57806135eb8882612f9a565b8452602084019350506020810190506135d8565b5050509392505050565b600082601f83011261361e5761361d613299565b5b813561362e8482602086016135a0565b91505092915050565b6000806000606084860312156136505761364f612f47565b5b600084013567ffffffffffffffff81111561366e5761366d612f4c565b5b61367a86828701613609565b935050602084013567ffffffffffffffff81111561369b5761369a612f4c565b5b6136a786828701613609565b925050604084013567ffffffffffffffff8111156136c8576136c7612f4c565b5b6136d486828701613609565b9150509250925092565b6136e781613002565b81146136f257600080fd5b50565b600081359050613704816136de565b92915050565b6000806040838503121561372157613720612f47565b5b600061372f85828601612f9a565b9250506020613740858286016136f5565b9150509250929050565b60008083601f8401126137605761375f613299565b5b8235905067ffffffffffffffff81111561377d5761377c61329e565b5b602083019150836020820283011115613799576137986132a3565b5b9250929050565b600080602083850312156137b7576137b6612f47565b5b600083013567ffffffffffffffff8111156137d5576137d4612f4c565b5b6137e18582860161374a565b92509250509250929050565b600081519050919050565b600082825260208201905092915050565b6000819050602082019050919050565b61382281613002565b82525050565b60006138348383613819565b60208301905092915050565b6000602082019050919050565b6000613858826137ed565b61386281856137f8565b935061386d83613809565b8060005b8381101561389e5781516138858882613828565b975061389083613840565b925050600181019050613871565b5085935050505092915050565b600081519050919050565b600082825260208201905092915050565b6000819050602082019050919050565b600060ff82169050919050565b6138ed816138d7565b82525050565b60006138ff83836138e4565b60208301905092915050565b6000602082019050919050565b6000613923826138ab565b61392d81856138b6565b9350613938836138c7565b8060005b8381101561396957815161395088826138f3565b975061395b8361390b565b92505060018101905061393c565b5085935050505092915050565b600081519050919050565b600082825260208201905092915050565b6000819050602082019050919050565b600081519050919050565b600082825260208201905092915050565b60005b838110156139dc5780820151818401526020810190506139c1565b60008484015250505050565b60006139f3826139a2565b6139fd81856139ad565b9350613a0d8185602086016139be565b613a16816133dc565b840191505092915050565b6000613a2d83836139e8565b905092915050565b6000602082019050919050565b6000613a4d82613976565b613a578185613981565b935083602082028501613a6985613992565b8060005b85811015613aa55784840389528151613a868582613a21565b9450613a9183613a35565b925060208a01995050600181019050613a6d565b50829750879550505050505092915050565b600081519050919050565b600082825260208201905092915050565b6000819050602082019050919050565b613aec81612f71565b82525050565b613afb816130a8565b82525050565b61012082016000820151613b186000850182613ae3565b506020820151613b2b6020850182613ae3565b506040820151613b3e6040850182613ae3565b506060820151613b516060850182613819565b506080820151613b646080850182613819565b5060a0820151613b7760a0850182613819565b5060c0820151613b8a60c0850182613819565b5060e0820151613b9d60e0850182613819565b50610100820151613bb2610100850182613af2565b50505050565b6000613bc48383613b01565b6101208301905092915050565b6000602082019050919050565b6000613be982613ab7565b613bf38185613ac2565b9350613bfe83613ad3565b8060005b83811015613c2f578151613c168882613bb8565b9750613c2183613bd1565b925050600181019050613c02565b5085935050505092915050565b600060a0820190508181036000830152613c56818861384d565b90508181036020830152613c6a8187613918565b90508181036040830152613c7e8186613a42565b90508181036060830152613c928185613a42565b90508181036080830152613ca68184613bde565b90509695505050505050565b60008060408385031215613cc957613cc8612f47565b5b6000613cd7858286016136f5565b9250506020613ce885828601612f9a565b9150509250929050565b613cfb816130a8565b8114613d0657600080fd5b50565b600081359050613d1881613cf2565b92915050565b600080600080600060a08688031215613d3a57613d39612f47565b5b6000613d4888828901612f9a565b9550506020613d5988828901612f9a565b9450506040613d6a888289016136f5565b9350506060613d7b888289016136f5565b9250506080613d8c88828901613d09565b9150509295509295909350565b60008083601f840112613daf57613dae613299565b5b8235905067ffffffffffffffff811115613dcc57613dcb61329e565b5b602083019150836020820283011115613de857613de76132a3565b5b9250929050565b60008083601f840112613e0557613e04613299565b5b8235905067ffffffffffffffff811115613e2257613e2161329e565b5b602083019150836020820283011115613e3e57613e3d6132a3565b5b9250929050565b60008060008060008060008060008060a08b8d031215613e6857613e67612f47565b5b60008b013567ffffffffffffffff811115613e8657613e85612f4c565b5b613e928d828e016132a8565b9a509a505060208b013567ffffffffffffffff811115613eb557613eb4612f4c565b5b613ec18d828e016132a8565b985098505060408b013567ffffffffffffffff811115613ee457613ee3612f4c565b5b613ef08d828e01613d99565b965096505060608b013567ffffffffffffffff811115613f1357613f12612f4c565b5b613f1f8d828e01613d99565b945094505060808b013567ffffffffffffffff811115613f4257613f41612f4c565b5b613f4e8d828e01613def565b92509250509295989b9194979a5092959850565b600081519050919050565b600082825260208201905092915050565b6000819050602082019050919050565b6000613f9a8383613af2565b60208301905092915050565b6000602082019050919050565b6000613fbe82613f62565b613fc88185613f6d565b9350613fd383613f7e565b8060005b83811015614004578151613feb8882613f8e565b9750613ff683613fa6565b925050600181019050613fd7565b5085935050505092915050565b6000606082019050818103600083015261402b8186613fb3565b9050818103602083015261403f818561384d565b90508181036040830152614053818461384d565b9050949350505050565b600082825260208201905092915050565b7f53747265616d20646f6573206e6f742065786973740000000000000000000000600082015250565b60006140a460158361405d565b91506140af8261406e565b602082019050919050565b600060208201905081810360008301526140d381614097565b9050919050565b7f4e487b7100000000000000000000000000000000000000000000000000000000600052601160045260246000fd5b600061411482613002565b915061411f83613002565b9250828203905081811115614137576141366140da565b5b92915050565b600061414882613002565b915061415383613002565b925082820261416181613002565b91508282048414831517614178576141776140da565b5b5092915050565b7f4e487b7100000000000000000000000000000000000000000000000000000000600052601260045260246000fd5b60006141b982613002565b91506141c483613002565b9250826141d4576141d361417f565b5b828204905092915050565b7f4e6f20616c6c6f7761626c6520616d6f756e7420746f20776974686472617700600082015250565b6000614215601f8361405d565b9150614220826141df565b602082019050919050565b6000602082019050818103600083015261424481614208565b9050919050565b600061425682613002565b915061426183613002565b9250828201905080821115614279576142786140da565b5b92915050565b7f496e70757420617272617973206c656e677468206d69736d6174636800000000600082015250565b60006142b5601c8361405d565b91506142c08261427f565b602082019050919050565b600060208201905081810360008301526142e4816142a8565b9050919050565b7f4e487b7100000000000000000000000000000000000000000000000000000000600052603260045260246000fd5b7f596f7520617265206e6f74207468652073747265616d6572206f72207265636960008201527f7069656e74000000000000000000000000000000000000000000000000000000602082015250565b600061437660258361405d565b91506143818261431a565b604082019050919050565b600060208201905081810360008301526143a581614369565b9050919050565b6000819050919050565b6000819050919050565b60006143db6143d66143d1846143ac565b6143b6565b613002565b9050919050565b6143eb816143c0565b82525050565b600060208201905061440660008301846143e2565b92915050565b60008160601b9050919050565b60006144248261440c565b9050919050565b600061443682614419565b9050919050565b61444e61444982612f71565b61442b565b82525050565b6000614460828661443d565b601482019150614470828561443d565b601482019150614480828461443d565b601482019150819050949350505050565b60006020820190506144a66000830184613099565b92915050565b6000815190506144bb816136de565b92915050565b6000602082840312156144d7576144d6612f47565b5b60006144e5848285016144ac565b91505092915050565b7f496e73756666696369656e742062616c616e636520666f722073747265616d6960008201527f6e67000000000000000000000000000000000000000000000000000000000000602082015250565b600061454a60228361405d565b9150614555826144ee565b604082019050919050565b600060208201905081810360008301526145798161453d565b9050919050565b60006040820190506145956000830185613099565b6145a26020830184613099565b9392505050565b7f496e73756666696369656e7420616c6c6f77616e636520666f7220737472656160008201527f6d696e6700000000000000000000000000000000000000000000000000000000602082015250565b600061460560248361405d565b9150614610826145a9565b604082019050919050565b60006020820190508181036000830152614634816145f8565b9050919050565b614644816138d7565b811461464f57600080fd5b50565b6000815190506146618161463b565b92915050565b60006020828403121561467d5761467c612f47565b5b600061468b84828501614652565b91505092915050565b600080fd5b600067ffffffffffffffff8211156146b4576146b36133ed565b5b6146bd826133dc565b9050602081019050919050565b60006146dd6146d884614699565b61344d565b9050828152602081018484840111156146f9576146f8614694565b5b6147048482856139be565b509392505050565b600082601f83011261472157614720613299565b5b81516147318482602086016146ca565b91505092915050565b6000602082840312156147505761474f612f47565b5b600082015167ffffffffffffffff81111561476e5761476d612f4c565b5b61477a8482850161470c565b91505092915050565b7f596f7520617265206e6f7420746865206f776e65720000000000000000000000600082015250565b60006147b960158361405d565b91506147c482614783565b602082019050919050565b600060208201905081810360008301526147e8816147ac565b9050919050565b60006020828403121561480557614804612f47565b5b600061481384828501613d09565b91505092915050565b60006060820190506148316000830186613099565b61483e6020830185613099565b61484b604083018461300c565b949350505050565b60008151905061486281613cf2565b92915050565b60006020828403121561487e5761487d612f47565b5b600061488c84828501614853565b91505092915050565b7f5361666545524332303a204552433230206f7065726174696f6e20646964206e60008201527f6f74207375636365656400000000000000000000000000000000000000000000602082015250565b60006148f1602a8361405d565b91506148fc82614895565b604082019050919050565b60006020820190508181036000830152614920816148e4565b9050919050565b7f416464726573733a20696e73756666696369656e742062616c616e636520666f60008201527f722063616c6c0000000000000000000000000000000000000000000000000000602082015250565b600061498360268361405d565b915061498e82614927565b604082019050919050565b600060208201905081810360008301526149b281614976565b9050919050565b7f416464726573733a2063616c6c20746f206e6f6e2d636f6e7472616374000000600082015250565b60006149ef601d8361405d565b91506149fa826149b9565b602082019050919050565b60006020820190508181036000830152614a1e816149e2565b9050919050565b600081519050919050565b600081905092915050565b6000614a4682614a25565b614a508185614a30565b9350614a608185602086016139be565b80840191505092915050565b6000614a788284614a3b565b915081905092915050565b6000614a8e826139a2565b614a98818561405d565b9350614aa88185602086016139be565b614ab1816133dc565b840191505092915050565b60006020820190508181036000830152614ad68184614a83565b90509291505056fea2646970667358221220768899336ccf9069cef1914dc9b285b72cfe026a1e902f08ae5dc7ea0f5ab2fa64736f6c63430008180033",
  "linkReferences": {},
  "deployedLinkReferences": {}
}