{
  "_format": "hh-sol-artifact-1",
  "contractName": "Stream",
  "sourceName": "contracts/Stream.sol",
  "abi": [
    {
      "inputs": [
        {
          "internalType": "address payable",
          "name": "feeAddrs",
          "type": "address"
        }
      ],
      "stateMutability": "nonpayable",
      "type": "constructor"
    },
    {
      "anonymous": false,
      "inputs": [
        {
          "indexed": true,
          "internalType": "address",
          "name": "streamer",
          "type": "address"
        },
        {
          "indexed": true,
          "internalType": "address",
          "name": "token",
          "type": "address"
        },
        {
          "indexed": true,
          "internalType": "address",
          "name": "recipient",
          "type": "address"
        },
        {
          "indexed": false,
          "internalType": "uint256",
          "name": "amount",
          "type": "uint256"
        }
      ],
      "name": "StreamAllowed",
      "type": "event"
    },
    {
      "anonymous": false,
      "inputs": [
        {
          "indexed": true,
          "internalType": "address",
          "name": "token",
          "type": "address"
        },
        {
          "indexed": true,
          "internalType": "address",
          "name": "streamer",
          "type": "address"
        },
        {
          "indexed": true,
          "internalType": "address",
          "name": "recipient",
          "type": "address"
        },
        {
          "indexed": false,
          "internalType": "string",
          "name": "message",
          "type": "string"
        }
      ],
      "name": "StreamFailure",
      "type": "event"
    },
    {
      "anonymous": false,
      "inputs": [
        {
          "indexed": true,
          "internalType": "address",
          "name": "token",
          "type": "address"
        },
        {
          "indexed": true,
          "internalType": "address",
          "name": "streamer",
          "type": "address"
        },
        {
          "indexed": true,
          "internalType": "address",
          "name": "recipient",
          "type": "address"
        },
        {
          "indexed": false,
          "internalType": "uint256",
          "name": "amount",
          "type": "uint256"
        }
      ],
      "name": "Streamed",
      "type": "event"
    },
    {
      "inputs": [
        {
          "internalType": "address",
          "name": "token",
          "type": "address"
        },
        {
          "internalType": "address",
          "name": "recipient",
          "type": "address"
        },
        {
          "internalType": "uint256",
          "name": "amount",
          "type": "uint256"
        },
        {
          "internalType": "uint256",
          "name": "window",
          "type": "uint256"
        },
        {
          "internalType": "bool",
          "name": "once",
          "type": "bool"
        }
      ],
      "name": "allowStream",
      "outputs": [],
      "stateMutability": "nonpayable",
      "type": "function"
    },
    {
      "inputs": [
        {
          "internalType": "address[]",
          "name": "tokens",
          "type": "address[]"
        },
        {
          "internalType": "address[]",
          "name": "recipients",
          "type": "address[]"
        },
        {
          "internalType": "uint256[]",
          "name": "amounts",
          "type": "uint256[]"
        },
        {
          "internalType": "uint256[]",
          "name": "windows",
          "type": "uint256[]"
        },
        {
          "internalType": "bool[]",
          "name": "onces",
          "type": "bool[]"
        }
      ],
      "name": "batchAllowStream",
      "outputs": [],
      "stateMutability": "nonpayable",
      "type": "function"
    },
    {
      "inputs": [
        {
          "internalType": "address[]",
          "name": "streamers",
          "type": "address[]"
        },
        {
          "internalType": "address[]",
          "name": "tokens",
          "type": "address[]"
        },
        {
          "internalType": "address[]",
          "name": "recipients",
          "type": "address[]"
        }
      ],
      "name": "batchComputeHash",
      "outputs": [
        {
          "internalType": "bytes32[]",
          "name": "",
          "type": "bytes32[]"
        }
      ],
      "stateMutability": "pure",
      "type": "function"
    },
    {
      "inputs": [
        {
          "internalType": "address[]",
          "name": "tokens",
          "type": "address[]"
        },
        {
          "internalType": "address[]",
          "name": "streamers",
          "type": "address[]"
        },
        {
          "internalType": "address[]",
          "name": "recipients",
          "type": "address[]"
        }
      ],
      "name": "batchStream",
      "outputs": [],
      "stateMutability": "nonpayable",
      "type": "function"
    },
    {
      "inputs": [
        {
          "internalType": "address[]",
          "name": "tokens",
          "type": "address[]"
        },
        {
          "internalType": "address[]",
          "name": "streamers",
          "type": "address[]"
        },
        {
          "internalType": "address[]",
          "name": "recipients",
          "type": "address[]"
        }
      ],
      "name": "batchStreamAvailable",
      "outputs": [],
      "stateMutability": "nonpayable",
      "type": "function"
    },
    {
      "inputs": [
        {
          "internalType": "bytes32[]",
          "name": "hashes",
          "type": "bytes32[]"
        }
      ],
      "name": "batchStreamAvailableAllowances",
      "outputs": [],
      "stateMutability": "nonpayable",
      "type": "function"
    },
    {
      "inputs": [
        {
          "internalType": "address[]",
          "name": "tokens",
          "type": "address[]"
        },
        {
          "internalType": "address[]",
          "name": "streamers",
          "type": "address[]"
        },
        {
          "internalType": "address[]",
          "name": "recipients",
          "type": "address[]"
        }
      ],
      "name": "cancelStreams",
      "outputs": [],
      "stateMutability": "nonpayable",
      "type": "function"
    },
    {
      "inputs": [
        {
          "internalType": "address",
          "name": "streamer",
          "type": "address"
        },
        {
          "internalType": "address",
          "name": "token",
          "type": "address"
        },
        {
          "internalType": "address",
          "name": "recipient",
          "type": "address"
        }
      ],
      "name": "computeHash",
      "outputs": [
        {
          "internalType": "bytes32",
          "name": "",
          "type": "bytes32"
        }
      ],
      "stateMutability": "pure",
      "type": "function"
    },
    {
      "inputs": [],
      "name": "fee",
      "outputs": [
        {
          "internalType": "uint256",
          "name": "",
          "type": "uint256"
        }
      ],
      "stateMutability": "view",
      "type": "function"
    },
    {
      "inputs": [],
      "name": "feeAddress",
      "outputs": [
        {
          "internalType": "address payable",
          "name": "",
          "type": "address"
        }
      ],
      "stateMutability": "view",
      "type": "function"
    },
    {
      "inputs": [
        {
          "internalType": "address",
          "name": "token",
          "type": "address"
        },
        {
          "internalType": "address",
          "name": "streamer",
          "type": "address"
        },
        {
          "internalType": "address",
          "name": "recipient",
          "type": "address"
        }
      ],
      "name": "getAvailable",
      "outputs": [
        {
          "internalType": "uint256",
          "name": "",
          "type": "uint256"
        }
      ],
      "stateMutability": "view",
      "type": "function"
    },
    {
      "inputs": [
        {
          "internalType": "bytes32[]",
          "name": "hashes",
          "type": "bytes32[]"
        }
      ],
      "name": "getStreamDetails",
      "outputs": [
        {
          "internalType": "uint256[]",
          "name": "availableAmounts",
          "type": "uint256[]"
        },
        {
          "internalType": "uint8[]",
          "name": "decimals",
          "type": "uint8[]"
        },
        {
          "internalType": "string[]",
          "name": "tokenNames",
          "type": "string[]"
        },
        {
          "internalType": "string[]",
          "name": "tokenSymbols",
          "type": "string[]"
        },
        {
          "components": [
            {
              "internalType": "address",
              "name": "streamer",
              "type": "address"
            },
            {
              "internalType": "address",
              "name": "recipient",
              "type": "address"
            },
            {
              "internalType": "address",
              "name": "token",
              "type": "address"
            },
            {
              "internalType": "uint256",
              "name": "totalStreamed",
              "type": "uint256"
            },
            {
              "internalType": "uint256",
              "name": "outstanding",
              "type": "uint256"
            },
            {
              "internalType": "uint256",
              "name": "allowable",
              "type": "uint256"
            },
            {
              "internalType": "uint256",
              "name": "window",
              "type": "uint256"
            },
            {
              "internalType": "uint256",
              "name": "timestamp",
              "type": "uint256"
            },
            {
              "internalType": "bool",
              "name": "once",
              "type": "bool"
            }
          ],
          "internalType": "struct Stream.StreamDetails[]",
          "name": "details",
          "type": "tuple[]"
        },
        {
          "internalType": "bool[]",
          "name": "canStream",
          "type": "bool[]"
        }
      ],
      "stateMutability": "view",
      "type": "function"
    },
    {
      "inputs": [
        {
          "internalType": "bytes32[]",
          "name": "hashes",
          "type": "bytes32[]"
        }
      ],
      "name": "getStreamable",
      "outputs": [
        {
          "internalType": "bool[]",
          "name": "canStream",
          "type": "bool[]"
        },
        {
          "internalType": "uint256[]",
          "name": "balances",
          "type": "uint256[]"
        },
        {
          "internalType": "uint256[]",
          "name": "allowances",
          "type": "uint256[]"
        }
      ],
      "stateMutability": "view",
      "type": "function"
    },
    {
      "inputs": [
        {
          "internalType": "uint256",
          "name": "_fee",
          "type": "uint256"
        },
        {
          "internalType": "address",
          "name": "newFeeAddress",
          "type": "address"
        }
      ],
      "name": "setFee",
      "outputs": [],
      "stateMutability": "nonpayable",
      "type": "function"
    },
    {
      "inputs": [
        {
          "internalType": "address",
          "name": "token",
          "type": "address"
        },
        {
          "internalType": "address",
          "name": "streamer",
          "type": "address"
        },
        {
          "internalType": "address",
          "name": "recipient",
          "type": "address"
        }
      ],
      "name": "stream",
      "outputs": [],
      "stateMutability": "nonpayable",
      "type": "function"
    },
    {
      "inputs": [
        {
          "internalType": "bytes32",
          "name": "",
          "type": "bytes32"
        }
      ],
      "name": "streamDetails",
      "outputs": [
        {
          "internalType": "address",
          "name": "streamer",
          "type": "address"
        },
        {
          "internalType": "address",
          "name": "recipient",
          "type": "address"
        },
        {
          "internalType": "address",
          "name": "token",
          "type": "address"
        },
        {
          "internalType": "uint256",
          "name": "totalStreamed",
          "type": "uint256"
        },
        {
          "internalType": "uint256",
          "name": "outstanding",
          "type": "uint256"
        },
        {
          "internalType": "uint256",
          "name": "allowable",
          "type": "uint256"
        },
        {
          "internalType": "uint256",
          "name": "window",
          "type": "uint256"
        },
        {
          "internalType": "uint256",
          "name": "timestamp",
          "type": "uint256"
        },
        {
          "internalType": "bool",
          "name": "once",
          "type": "bool"
        }
      ],
      "stateMutability": "view",
      "type": "function"
    },
    {
      "inputs": [
        {
          "internalType": "address",
          "name": "",
          "type": "address"
        },
        {
          "internalType": "uint256",
          "name": "",
          "type": "uint256"
        }
      ],
      "name": "streamDetailsByRecipient",
      "outputs": [
        {
          "internalType": "bytes32",
          "name": "",
          "type": "bytes32"
        }
      ],
      "stateMutability": "view",
      "type": "function"
    },
    {
      "inputs": [
        {
          "internalType": "address",
          "name": "",
          "type": "address"
        },
        {
          "internalType": "uint256",
          "name": "",
          "type": "uint256"
        }
      ],
      "name": "streamDetailsByStreamer",
      "outputs": [
        {
          "internalType": "bytes32",
          "name": "",
          "type": "bytes32"
        }
      ],
      "stateMutability": "view",
      "type": "function"
    },
    {
      "inputs": [
        {
          "internalType": "address",
          "name": "recipient",
          "type": "address"
        }
      ],
      "name": "viewRecipientAllowances",
      "outputs": [
        {
          "internalType": "bytes32[]",
          "name": "",
          "type": "bytes32[]"
        }
      ],
      "stateMutability": "view",
      "type": "function"
    },
    {
      "inputs": [
        {
          "internalType": "address",
          "name": "recipient",
          "type": "address"
        },
        {
          "internalType": "uint256[]",
          "name": "indexes",
          "type": "uint256[]"
        }
      ],
      "name": "viewRecipientAllowances",
      "outputs": [
        {
          "internalType": "bytes32[]",
          "name": "",
          "type": "bytes32[]"
        }
      ],
      "stateMutability": "view",
      "type": "function"
    },
    {
      "inputs": [
        {
          "internalType": "address",
          "name": "recipient",
          "type": "address"
        }
      ],
      "name": "viewRecipientAllowancesCount",
      "outputs": [
        {
          "internalType": "uint256",
          "name": "",
          "type": "uint256"
        }
      ],
      "stateMutability": "view",
      "type": "function"
    },
    {
      "inputs": [
        {
          "internalType": "address",
          "name": "streamer",
          "type": "address"
        },
        {
          "internalType": "uint256[]",
          "name": "indexes",
          "type": "uint256[]"
        }
      ],
      "name": "viewStreamerAllowances",
      "outputs": [
        {
          "internalType": "bytes32[]",
          "name": "",
          "type": "bytes32[]"
        }
      ],
      "stateMutability": "view",
      "type": "function"
    },
    {
      "inputs": [
        {
          "internalType": "address",
          "name": "streamer",
          "type": "address"
        }
      ],
      "name": "viewStreamerAllowances",
      "outputs": [
        {
          "internalType": "bytes32[]",
          "name": "",
          "type": "bytes32[]"
        }
      ],
      "stateMutability": "view",
      "type": "function"
    },
    {
      "inputs": [
        {
          "internalType": "address",
          "name": "streamer",
          "type": "address"
        }
      ],
      "name": "viewStreamerAllowancesCount",
      "outputs": [
        {
          "internalType": "uint256",
          "name": "",
          "type": "uint256"
        }
      ],
      "stateMutability": "view",
      "type": "function"
    }
  ],
  "bytecode": "0x60806040523480156200001157600080fd5b5060405162006e7238038062006e72833981810160405281019062000037919062000124565b620000536735c2f7f7caebfb3160c01b620000b760201b60201c565b6200006f67b3ade39293cdaf0560c01b620000b760201b60201c565b80600360006101000a81548173ffffffffffffffffffffffffffffffffffffffff021916908373ffffffffffffffffffffffffffffffffffffffff1602179055505062000156565b50565b600080fd5b600073ffffffffffffffffffffffffffffffffffffffff82169050919050565b6000620000ec82620000bf565b9050919050565b620000fe81620000df565b81146200010a57600080fd5b50565b6000815190506200011e81620000f3565b92915050565b6000602082840312156200013d576200013c620000ba565b5b60006200014d848285016200010d565b91505092915050565b616d0c80620001666000396000f3fe608060405234801561001057600080fd5b50600436106101575760003560e01c8063a01ad1b8116100c3578063c098c4b01161007c578063c098c4b01461042b578063cb5e174c1461045b578063d4628ec614610477578063db0b5b24146104a9578063ddca3f43146104d9578063ebf6469a146104f757610157565b8063a01ad1b814610342578063a136572d14610372578063b3bfd06f146103a7578063b416af74146103c3578063b4f2e8b8146103f3578063b8b396911461040f57610157565b80635f261713116101155780635f2617131461025e5780636646e3a71461027a578063743a29bd146102aa5780638b614d09146102da578063993080c2146102f65780639cc0d08f1461031257610157565b80624790c11461015c578063077945821461018c57806318fd373e146101bc57806338cddec6146101f45780634010d972146102105780634127535814610240575b600080fd5b61017660048036038101906101719190615132565b610527565b604051610183919061519e565b60405180910390f35b6101a660048036038101906101a1919061521e565b610785565b6040516101b39190615346565b60405180910390f35b6101d660048036038101906101d19190615394565b610932565b6040516101eb999897969594939291906153eb565b60405180910390f35b61020e60048036038101906102099190615132565b6109ed565b005b61022a60048036038101906102259190615478565b611049565b6040516102379190615346565b60405180910390f35b61024861111c565b60405161025591906154c6565b60405180910390f35b61027860048036038101906102739190615537565b611142565b005b610294600480360381019061028f9190615478565b6116ea565b6040516102a1919061519e565b60405180910390f35b6102c460048036038101906102bf9190615132565b611772565b6040516102d191906155fa565b60405180910390f35b6102f460048036038101906102ef9190615764565b6117e4565b005b610310600480360381019061030b9190615870565b611bc0565b005b61032c60048036038101906103279190615943565b61291c565b60405161033991906155fa565b60405180910390f35b61035c6004803603810190610357919061521e565b61294d565b6040516103699190615346565b60405180910390f35b61038c600480360381019061038791906159d9565b612afa565b60405161039e96959493929190615f24565b60405180910390f35b6103c160048036038101906103bc9190615537565b6135c9565b005b6103dd60048036038101906103d89190615537565b61377a565b6040516103ea9190615346565b60405180910390f35b61040d60048036038101906104089190615faf565b613a09565b005b6104296004803603810190610424919061601b565b613c4e565b005b61044560048036038101906104409190615478565b6141ef565b6040516104529190615346565b60405180910390f35b610475600480360381019061047091906160ec565b6142c2565b005b610491600480360381019061048c91906159d9565b6144cd565b6040516104a093929190616209565b60405180910390f35b6104c360048036038101906104be9190615943565b614b36565b6040516104d091906155fa565b60405180910390f35b6104e1614b67565b6040516104ee919061519e565b60405180910390f35b610511600480360381019061050c9190615478565b614b6d565b60405161051e919061519e565b60405180910390f35b600061053d6703c4361269b5377460c01b614bf5565b610551676abc4ec593d7dbbb60c01b614bf5565b61056567ba1a1cd15786e5d460c01b614bf5565b6000610572848685611772565b9050610588670ecb66b701c8bdde60c01b614bf5565b61059c676d3c7888abac3c5560c01b614bf5565b600080600083815260200190815260200160002090506105c667db142a58ebe8f33660c01b614bf5565b6105da67a4435934639674ca60c01b614bf5565b60004290506105f367a9cd3d9991d2701360c01b614bf5565b610607673bc39b84ec2a4c7a60c01b614bf5565b60008260070154826106199190616284565b905061062f67b8b589f224fa5c9160c01b614bf5565b6106436745872bfaea27ebec60c01b614bf5565b600080846006015411806106675750610666670db85c592beb331a60c01b614bf8565b5b80156106835750610682674c616781ee20117560c01b614bff565b5b61068e5760006106ae565b83600601548285600501546106a391906162b8565b6106ad9190616329565b5b90506106c467915f51a91371c84960c01b614bf5565b6106d867023ae8fc5a42288c60c01b614bf5565b8360040154811180156107005750600115158460080160009054906101000a900460ff161515145b15610739576107196772499a2752f56ba960c01b614bf5565b61072d6758aaeb86a0ff949c60c01b614bf5565b8360040154905061074e565b61074d6725324447a3a2f0b960c01b614bf5565b5b610762672aeb6567be54c7de60c01b614bf5565b61077667421fdef27f15576a60c01b614bf5565b80955050505050509392505050565b606061079b6703767448e7041d0660c01b614bf5565b6107af6761c373cc5d15d41460c01b614bf5565b6107c367f68e812685a7705360c01b614bf5565b60008383905067ffffffffffffffff8111156107e2576107e1615626565b5b6040519080825280602002602001820160405280156108105781602001602082028036833780820191505090505b50905061082767addf311433f9183160c01b614bf5565b61083b6778d4c1b7bbf9057060c01b614bf5565b60005b848490508110156108fe5761085d6730439ae7ce7c774560c01b614bf5565b600160008773ffffffffffffffffffffffffffffffffffffffff1673ffffffffffffffffffffffffffffffffffffffff1681526020019081526020016000208585838181106108af576108ae61635a565b5b90506020020135815481106108c7576108c661635a565b5b90600052602060002001548282815181106108e5576108e461635a565b5b602002602001018181525050808060010191505061083e565b506109136774f78eba50096c5360c01b614bf5565b610927678d58244687c94da860c01b614bf5565b809150509392505050565b60006020528060005260406000206000915090508060000160009054906101000a900473ffffffffffffffffffffffffffffffffffffffff16908060010160009054906101000a900473ffffffffffffffffffffffffffffffffffffffff16908060020160009054906101000a900473ffffffffffffffffffffffffffffffffffffffff16908060030154908060040154908060050154908060060154908060070154908060080160009054906101000a900460ff16905089565b610a0167a6567e986de2a11b60c01b614bf5565b610a156776b79579a83dc40b60c01b614bf5565b610a2967ec6d5329b4e2991660c01b614bf5565b6000610a36838584611772565b9050610a4c67ba2a1ddb788b5dc760c01b614bf5565b610a6067b26b4cd150926a8960c01b614bf5565b60008060008381526020019081526020016000209050610a8a67190d4aaf4602a65460c01b614bf5565b610a9e67ac1a34af048a96f560c01b614bf5565b610ab267b90b872d938b0da760c01b614bf5565b600073ffffffffffffffffffffffffffffffffffffffff168160000160009054906101000a900473ffffffffffffffffffffffffffffffffffffffff1673ffffffffffffffffffffffffffffffffffffffff1603610b45576040517f08c379a0000000000000000000000000000000000000000000000000000000008152600401610b3c906163e6565b60405180910390fd5b610b59673dfc9314d79ec48360c01b614bf5565b610b6d676c931dda9c4f6baa60c01b614bf5565b610b81676c772679fa71a08360c01b614bf5565b6000429050610b9a67ba5f01d7f37945f060c01b614bf5565b610bae67b1433ab8cae8491460c01b614bf5565b6000826007015482610bc09190616284565b9050610bd667255290336388ea0260c01b614bf5565b610bea675fbd10a7d4be83e460c01b614bf5565b60008360060154828560050154610c0191906162b8565b610c0b9190616329565b9050610c216798b7d1e2afe9c63e60c01b614bf5565b610c3567b15a78d3a26fa75a60c01b614bf5565b836004015481118015610c5d5750600115158460080160009054906101000a900460ff161515145b15610c9657610c76674d4716c761873f9e60c01b614bf5565b610c8a672f9f332b38ea58fa60c01b614bf5565b83600401549050610cab565b610caa672e0d0b1a208a14db60c01b614bf5565b5b610cbf67b8ebf47931891b2860c01b614bf5565b610cd36732558c0a0b81374660c01b614bf5565b610ce767246b201af95387b060c01b614bf5565b60008111610d2a576040517f08c379a0000000000000000000000000000000000000000000000000000000008152600401610d2190616452565b60405180910390fd5b610d3e679c1c24a3288dda4960c01b614bf5565b610d52678432c00ad51f077b60c01b614bf5565b610d6667363e89012e150d9460c01b614bf5565b8360080160009054906101000a900460ff1615610dc557610d9167c149c3e9dcc7bdd460c01b614bf5565b610da567a6e7de34962c147c60c01b614bf5565b80846004016000828254610db99190616284565b92505081905550610dda565b610dd9672545dc5146a12d7b60c01b614bf5565b5b610dee67bbf4a21243f302e660c01b614bf5565b80846003016000828254610e029190616472565b92505081905550610e1d674f5548bb63ee7ca760c01b614bf5565b828460070181905550610e3a6792d048dc4c841b1160c01b614bf5565b610e4e67806106a1ba8e56c660c01b614bf5565b610e7b8787838b73ffffffffffffffffffffffffffffffffffffffff16614c0a909392919063ffffffff16565b610e8f67a9f3bc9e53447e3660c01b614bf5565b610ea3671c21d6dbe841e7ff60c01b614bf5565b60006004541115610f8657610ec2671d5f3d557e2dbc3560c01b614bf5565b610ed667bcd4374fedbd553460c01b614bf5565b610eea67611e2c4c47ae306260c01b614bf5565b60006103e860045483610efd91906162b8565b610f079190616329565b9050610f1d6770da54803066e88b60c01b614bf5565b610f3167c26c3218019317d360c01b614bf5565b610f8088600360009054906101000a900473ffffffffffffffffffffffffffffffffffffffff16838c73ffffffffffffffffffffffffffffffffffffffff16614c0a909392919063ffffffff16565b50610f9b565b610f9a678ddf79e8c478e4a060c01b614bf5565b5b610faf675c15aff8f12b2f8d60c01b614bf5565b610fc367e2ccdbb9f48b28d160c01b614bf5565b8573ffffffffffffffffffffffffffffffffffffffff168773ffffffffffffffffffffffffffffffffffffffff168973ffffffffffffffffffffffffffffffffffffffff167faf22af5691f06aea5afb81f1b3d51a6ecb1847e7ff25422fff392cbf52da232684604051611037919061519e565b60405180910390a45050505050505050565b606061105f672f4659abe9190ec460c01b614bf5565b611073677a192ac4fbdc368060c01b614bf5565b61108767696c1aac0a2211c460c01b614bf5565b600260008373ffffffffffffffffffffffffffffffffffffffff1673ffffffffffffffffffffffffffffffffffffffff16815260200190815260200160002080548060200260200160405190810160405280929190818152602001828054801561111057602002820191906000526020600020905b8154815260200190600101908083116110fc575b50505050509050919050565b600360009054906101000a900473ffffffffffffffffffffffffffffffffffffffff1681565b611156679942d27597d1fe5660c01b614bf5565b61116a678839646c215cd2ef60c01b614bf5565b61117e67c78ec4db8ab63f3460c01b614bf5565b61119267aa37ab9541dea17060c01b614bf5565b83839050868690501480156111ac57508181905084849050145b6111eb576040517f08c379a00000000000000000000000000000000000000000000000000000000081526004016111e2906164f2565b60405180910390fd5b6111ff6744869441b25e35f860c01b614bf5565b61121367f20e4e11a05bd6dc60c01b614bf5565b61122767d38ae6746a47007d60c01b614bf5565b60005b868690508110156116e157611249677252296ebe4f875960c01b614bf5565b61125d67a9aec238f5b1728960c01b614bf5565b61127167c34e7b239b08f04f60c01b614bf5565b8484828181106112845761128361635a565b5b90506020020160208101906112999190615478565b73ffffffffffffffffffffffffffffffffffffffff163373ffffffffffffffffffffffffffffffffffffffff161480156112e357506112e2678a494a5bdea56ebc60c01b614bff565b5b8061135c57508282828181106112fc576112fb61635a565b5b90506020020160208101906113119190615478565b73ffffffffffffffffffffffffffffffffffffffff163373ffffffffffffffffffffffffffffffffffffffff1614801561135b575061135a679edefef2238f72fe60c01b614bff565b5b5b61139b576040517f08c379a000000000000000000000000000000000000000000000000000000000815260040161139290616584565b60405180910390fd5b6113af672193d1801d36308460c01b614bf5565b6113c36788592b2dab9288ab60c01b614bf5565b6113d767672beb3f9efc04b460c01b614bf5565b60006114598686848181106113ef576113ee61635a565b5b90506020020160208101906114049190615478565b8989858181106114175761141661635a565b5b905060200201602081019061142c9190615478565b86868681811061143f5761143e61635a565b5b90506020020160208101906114549190615478565b611772565b905061146f67ced0b4b7a5497f2460c01b614bf5565b61148367ea140c36aaa5565060c01b614bf5565b600080600083815260200190815260200160002090506114ad6787f7a75ceaf6f14c60c01b614bf5565b6114c167e8a887ea8ac5893960c01b614bf5565b6114d5672ee57260e2e744bb60c01b614bf5565b600073ffffffffffffffffffffffffffffffffffffffff168160000160009054906101000a900473ffffffffffffffffffffffffffffffffffffffff1673ffffffffffffffffffffffffffffffffffffffff1603611568576040517f08c379a000000000000000000000000000000000000000000000000000000000815260040161155f906163e6565b60405180910390fd5b61157c67dc12d0259baaf07460c01b614bf5565b6115906754e3fb60bb7dac6360c01b614bf5565b600081600501819055506115ae674d948fb3cca2f04960c01b614bf5565b600081600401819055506115cc67ad1d9c4e9ddc3baf60c01b614bf5565b6115e0679803e9dd7eb7d5bc60c01b614bf5565b8484848181106115f3576115f261635a565b5b90506020020160208101906116089190615478565b73ffffffffffffffffffffffffffffffffffffffff168989858181106116315761163061635a565b5b90506020020160208101906116469190615478565b73ffffffffffffffffffffffffffffffffffffffff1688888681811061166f5761166e61635a565b5b90506020020160208101906116849190615478565b73ffffffffffffffffffffffffffffffffffffffff167fcf8d64e381fa4c6934a7d60007173d92e3e32d0d11698bbb69f14e04fa2c4a8960006040516116ca91906165e9565b60405180910390a45050808060010191505061122a565b50505050505050565b600061170067bc7c44423c143f3560c01b614bf5565b611714672caa71131b83046460c01b614bf5565b611728671d8e3989307cc08660c01b614bf5565b600260008373ffffffffffffffffffffffffffffffffffffffff1673ffffffffffffffffffffffffffffffffffffffff168152602001908152602001600020805490509050919050565b600061178867fc09ad44a63e75e060c01b614bf5565b61179c673fcf13944d2ee6e760c01b614bf5565b6117b06785c6a3de31bdba3a60c01b614bf5565b8383836040516020016117c59392919061664c565b6040516020818303038152906040528051906020012090509392505050565b6117f8674be1bf266a58e3a560c01b614bf5565b61180c67e0b7b3fc804e91c060c01b614bf5565b61182067201fa4799597a91a60c01b614bf5565b6000815167ffffffffffffffff81111561183d5761183c615626565b5b60405190808252806020026020018201604052801561186b5781602001602082028036833780820191505090505b5090506118826796fb1e67b0cdf37560c01b614bf5565b61189667a68190dff9a68c2e60c01b614bf5565b6000825167ffffffffffffffff8111156118b3576118b2615626565b5b6040519080825280602002602001820160405280156118e15781602001602082028036833780820191505090505b5090506118f86742ff79b77a1a860760c01b614bf5565b61190c67a3331935f429bc5460c01b614bf5565b6000835167ffffffffffffffff81111561192957611928615626565b5b6040519080825280602002602001820160405280156119575781602001602082028036833780820191505090505b50905061196e671290e87d516e1f9660c01b614bf5565b611982672d4f8617515bc7e860c01b614bf5565b60005b8451811015611b86576119a267820918df51b8e9fa60c01b614bf5565b6119b6677a3d4b93e76b6f7060c01b614bf5565b60008060008784815181106119ce576119cd61635a565b5b6020026020010151815260200190815260200160002090506119fa67178184ece5925d7160c01b614bf5565b8060020160009054906101000a900473ffffffffffffffffffffffffffffffffffffffff16858381518110611a3257611a3161635a565b5b602002602001019073ffffffffffffffffffffffffffffffffffffffff16908173ffffffffffffffffffffffffffffffffffffffff1681525050611a80672afb96f6cf5cb3e960c01b614bf5565b8060000160009054906101000a900473ffffffffffffffffffffffffffffffffffffffff16848381518110611ab857611ab761635a565b5b602002602001019073ffffffffffffffffffffffffffffffffffffffff16908173ffffffffffffffffffffffffffffffffffffffff1681525050611b06675f66b76848de0b7b60c01b614bf5565b8060010160009054906101000a900473ffffffffffffffffffffffffffffffffffffffff16838381518110611b3e57611b3d61635a565b5b602002602001019073ffffffffffffffffffffffffffffffffffffffff16908173ffffffffffffffffffffffffffffffffffffffff1681525050508080600101915050611985565b50611b9b67b4e5d7bd2c44a31f60c01b614bf5565b611baf672f9d1f2b970db0fa60c01b614bf5565b611bba838383611bc0565b50505050565b611bd4670a211278bf0cc07060c01b614bf5565b611be867cab835827afb8c0460c01b614bf5565b611bfc67ddb4d523ade229e260c01b614bf5565b611c1067e7792f612d222e9f60c01b614bf5565b81518351148015611c22575080518251145b611c61576040517f08c379a0000000000000000000000000000000000000000000000000000000008152600401611c58906164f2565b60405180910390fd5b611c756754c2ee299423a0bd60c01b614bf5565b611c8967249a9d6e6164051860c01b614bf5565b611c9d67540a4340b0b663f060c01b614bf5565b60005b835181101561291657611cbd674421de42a8bad87b60c01b614bf5565b611cd16769d74346e266b85760c01b614bf5565b6000848281518110611ce657611ce561635a565b5b60200260200101519050611d0467bf56bf6914b3f98c60c01b614bf5565b611d18671e757175185e4ced60c01b614bf5565b6000848381518110611d2d57611d2c61635a565b5b60200260200101519050611d4b67afdb390f794287e460c01b614bf5565b611d5f67421c2f2057dab49160c01b614bf5565b6000848481518110611d7457611d7361635a565b5b60200260200101519050611d9267c5faf5afb689b0cd60c01b614bf5565b611da667267a467def4b950260c01b614bf5565b6000611db3838584611772565b9050611dc96771adbbc60915b73360c01b614bf5565b611ddd67d6c4b85ddb8a0df560c01b614bf5565b60008060008381526020019081526020016000209050611e0767f7d0c8ae9a74be3560c01b614bf5565b611e1b677b0bad04abbea24a60c01b614bf5565b600073ffffffffffffffffffffffffffffffffffffffff168160000160009054906101000a900473ffffffffffffffffffffffffffffffffffffffff1673ffffffffffffffffffffffffffffffffffffffff1603611f4757611e87673c6ff4c3550cb7b160c01b614bf5565b611e9b6724d5bb63f2725cba60c01b614bf5565b611eaf67b1ae75bda65fe2c160c01b614bf5565b8273ffffffffffffffffffffffffffffffffffffffff168473ffffffffffffffffffffffffffffffffffffffff168673ffffffffffffffffffffffffffffffffffffffff167f8f8aa0dc1312c50d248cb1d3452303f977e220adb4d4c1772bf13036c4347ffa604051611f21906163e6565b60405180910390a4611f3d67dd27a3c2eb22cb4a60c01b614bf5565b5050505050612909565b611f5a66176b5b16a1a00b60c01b614bf5565b611f6e67ad8cd12c94b7215a60c01b614bf5565b611f8267024ad9537f069fd860c01b614bf5565b6000429050611f9b67e2f5dfe4a1644b1d60c01b614bf5565b611faf671826a22cdd6b59a460c01b614bf5565b6000826007015482611fc19190616284565b9050611fd7671330e81c58d66d2960c01b614bf5565b611feb676960a4c3c287d45460c01b614bf5565b6000836006015482856005015461200291906162b8565b61200c9190616329565b905061202267942c91a1d6cd643d60c01b614bf5565b61203667ed455058b230a83860c01b614bf5565b83600401548111801561205e5750600115158460080160009054906101000a900460ff161515145b156120975761207767ec3c3a82422df4b460c01b614bf5565b61208b6732c6b65fbabf4d6b60c01b614bf5565b836004015490506120ac565b6120ab67182fe0b2cb86629860c01b614bf5565b5b6120c067935fa364cc00076f60c01b614bf5565b6120d467d7bbb1e240b7159160c01b614bf5565b600081036121b2576120f067dc1c4df00c78fdce60c01b614bf5565b61210366cf47d0e04e6fa760c01b614bf5565b6121176738114fd140716a1a60c01b614bf5565b8573ffffffffffffffffffffffffffffffffffffffff168773ffffffffffffffffffffffffffffffffffffffff168973ffffffffffffffffffffffffffffffffffffffff167f8f8aa0dc1312c50d248cb1d3452303f977e220adb4d4c1772bf13036c4347ffa60405161218990616452565b60405180910390a46121a5679c93f81eafe66ed260c01b614bf5565b5050505050505050612909565b6121c66761c1708d8826a93660c01b614bf5565b6121da67b52d589a987caef760c01b614bf5565b6121ee678d4d11ff5948592360c01b614bf5565b60006122046795766fbb4aad740160c01b614bf5565b612218678b2ac3516a15215560c01b614bf5565b6000600454111561226d57612237678f4fc7c43dd46d4660c01b614bf5565b61224b67a0006c760ce9d6b360c01b614bf5565b6103e86004548361225c91906162b8565b6122669190616329565b9050612282565b61228167ca9a8b90c7352b4460c01b614bf5565b5b61229667ce53cd52e4a69d1d60c01b614bf5565b6122aa67c5606c5a2035c05160c01b614bf5565b600081836122b89190616472565b90506122ce67548ce47b4f6e258960c01b614bf5565b6122e2673810b4fea53cea8960c01b614bf5565b60008a73ffffffffffffffffffffffffffffffffffffffff166370a082318b6040518263ffffffff1660e01b815260040161231d9190616689565b602060405180830381865afa15801561233a573d6000803e3d6000fd5b505050506040513d601f19601f8201168201806040525081019061235e91906166b9565b90506123746795ea16a2609d20fc60c01b614bf5565b612388678d66113113cce2e560c01b614bf5565b8181101561246a576123a4679281151567726b3060c01b614bf5565b6123b867cd8638ee5f5a8b0860c01b614bf5565b6123cc67f7e00882d748f26760c01b614bf5565b8873ffffffffffffffffffffffffffffffffffffffff168a73ffffffffffffffffffffffffffffffffffffffff168c73ffffffffffffffffffffffffffffffffffffffff167f8f8aa0dc1312c50d248cb1d3452303f977e220adb4d4c1772bf13036c4347ffa60405161243e90616758565b60405180910390a461245a678ff285e40203cf5860c01b614bf5565b5050505050505050505050612909565b61247e678dc0f79ed1cd446060c01b614bf5565b612492674ff0025dac02f93060c01b614bf5565b6124a667b208bff428042cd560c01b614bf5565b60008b73ffffffffffffffffffffffffffffffffffffffff1663dd62ed3e8c306040518363ffffffff1660e01b81526004016124e3929190616778565b602060405180830381865afa158015612500573d6000803e3d6000fd5b505050506040513d601f19601f8201168201806040525081019061252491906166b9565b905061253a67c39263983c47cc1d60c01b614bf5565b61254e679ee8741bc8b4409f60c01b614bf5565b828110156126315761256a67207629be678b060160c01b614bf5565b61257e672e5182f072f9e70e60c01b614bf5565b6125926708f1e261ed1938fa60c01b614bf5565b8973ffffffffffffffffffffffffffffffffffffffff168b73ffffffffffffffffffffffffffffffffffffffff168d73ffffffffffffffffffffffffffffffffffffffff167f8f8aa0dc1312c50d248cb1d3452303f977e220adb4d4c1772bf13036c4347ffa60405161260490616813565b60405180910390a4612620673901a000bc26877c60c01b614bf5565b505050505050505050505050612909565b61264567078aeba143df925260c01b614bf5565b612659676436ca063dbe733560c01b614bf5565b61266d67c2eb265f9f540a8360c01b614bf5565b8760080160009054906101000a900460ff16156126cc5761269867d9f263b08fda423d60c01b614bf5565b6126ac67c6670c524d900dcd60c01b614bf5565b848860040160008282546126c09190616284565b925050819055506126e1565b6126e06758ecda69e285a5e560c01b614bf5565b5b6126f567414bec6e9ab32f4e60c01b614bf5565b848860030160008282546127099190616472565b9250508190555061272467d79e7b6d3234911c60c01b614bf5565b86886007018190555061274167097d056937735f4460c01b614bf5565b612755677d3a88ac1697163b60c01b614bf5565b6127828b8b878f73ffffffffffffffffffffffffffffffffffffffff16614c0a909392919063ffffffff16565b612796674ab18d1f47612f4d60c01b614bf5565b6127aa679f824077ac9c373d60c01b614bf5565b6000841115612843576127c767c57bc93fa1efdf0060c01b614bf5565b6127db6736aa9bd5c532275360c01b614bf5565b6127ef6745c8c8c8167999d460c01b614bf5565b61283e8b600360009054906101000a900473ffffffffffffffffffffffffffffffffffffffff16868f73ffffffffffffffffffffffffffffffffffffffff16614c0a909392919063ffffffff16565b612858565b61285767c2df1f762c24323960c01b614bf5565b5b61286c672e912e861c3259be60c01b614bf5565b612880674a1793b4e6f1510c60c01b614bf5565b8973ffffffffffffffffffffffffffffffffffffffff168b73ffffffffffffffffffffffffffffffffffffffff168d73ffffffffffffffffffffffffffffffffffffffff167faf22af5691f06aea5afb81f1b3d51a6ecb1847e7ff25422fff392cbf52da2326886040516128f4919061519e565b60405180910390a45050505050505050505050505b8080600101915050611ca0565b50505050565b6002602052816000526040600020818154811061293857600080fd5b90600052602060002001600091509150505481565b606061296367371b239dfcb3111760c01b614bf5565b612977676d6d3402c9644c1360c01b614bf5565b61298b670a3ef700e0adfa8760c01b614bf5565b60008383905067ffffffffffffffff8111156129aa576129a9615626565b5b6040519080825280602002602001820160405280156129d85781602001602082028036833780820191505090505b5090506129ef674432d7d1bf72f21d60c01b614bf5565b612a0367febb817e6e2940cc60c01b614bf5565b60005b84849050811015612ac657612a256716165bc3c65b3be760c01b614bf5565b600260008773ffffffffffffffffffffffffffffffffffffffff1673ffffffffffffffffffffffffffffffffffffffff168152602001908152602001600020858583818110612a7757612a7661635a565b5b9050602002013581548110612a8f57612a8e61635a565b5b9060005260206000200154828281518110612aad57612aac61635a565b5b6020026020010181815250508080600101915050612a06565b50612adb675c82d56e1c0135a460c01b614bf5565b612aef6701f8faca0f8fbb9760c01b614bf5565b809150509392505050565b606080606080606080612b1767925bd51655c2f20960c01b614bf5565b612b2b670963916870ca22aa60c01b614bf5565b612b3f67400551525840c9d760c01b614bf5565b6000888890509050612b5b67d53376eb246feb9660c01b614bf5565b8067ffffffffffffffff811115612b7557612b74615626565b5b604051908082528060200260200182016040528015612bae57816020015b612b9b615030565b815260200190600190039081612b935790505b509250612bc56796f5da1440a7c66860c01b614bf5565b8067ffffffffffffffff811115612bdf57612bde615626565b5b604051908082528060200260200182016040528015612c0d5781602001602082028036833780820191505090505b509650612c24673f7fb3b7f9a33de660c01b614bf5565b8067ffffffffffffffff811115612c3e57612c3d615626565b5b604051908082528060200260200182016040528015612c6c5781602001602082028036833780820191505090505b509550612c83678e123fc524b5519260c01b614bf5565b8067ffffffffffffffff811115612c9d57612c9c615626565b5b604051908082528060200260200182016040528015612cd057816020015b6060815260200190600190039081612cbb5790505b509450612ce7671c2618e4dc3b1c8b60c01b614bf5565b8067ffffffffffffffff811115612d0157612d00615626565b5b604051908082528060200260200182016040528015612d3457816020015b6060815260200190600190039081612d1f5790505b509350612d4b6759792f09c122f52360c01b614bf5565b612d5f67b9975a8bc399514860c01b614bf5565b60005b8181101561351157612d7e6794a4a4cde2a77a7f60c01b614bf5565b6000808b8b84818110612d9457612d9361635a565b5b905060200201358152602001908152602001600020604051806101200160405290816000820160009054906101000a900473ffffffffffffffffffffffffffffffffffffffff1673ffffffffffffffffffffffffffffffffffffffff1673ffffffffffffffffffffffffffffffffffffffff1681526020016001820160009054906101000a900473ffffffffffffffffffffffffffffffffffffffff1673ffffffffffffffffffffffffffffffffffffffff1673ffffffffffffffffffffffffffffffffffffffff1681526020016002820160009054906101000a900473ffffffffffffffffffffffffffffffffffffffff1673ffffffffffffffffffffffffffffffffffffffff1673ffffffffffffffffffffffffffffffffffffffff16815260200160038201548152602001600482015481526020016005820154815260200160068201548152602001600782015481526020016008820160009054906101000a900460ff161515151581525050848281518110612f1757612f1661635a565b5b6020026020010181905250612f3667dca7dc54b9e8f65c60c01b614bf5565b612f9b848281518110612f4c57612f4b61635a565b5b602002602001015160400151858381518110612f6b57612f6a61635a565b5b602002602001015160000151868481518110612f8a57612f8961635a565b5b602002602001015160200151610527565b888281518110612fae57612fad61635a565b5b602002602001018181525050612fce6790462c196716751460c01b614bf5565b612fe2678571104e7e70b7cd60c01b614bf5565b600080858381518110612ff857612ff761635a565b5b60200260200101516040015173ffffffffffffffffffffffffffffffffffffffff166040516024016040516020818303038152906040527f313ce567000000000000000000000000000000000000000000000000000000007bffffffffffffffffffffffffffffffffffffffffffffffffffffffff19166020820180517bffffffffffffffffffffffffffffffffffffffffffffffffffffffff83818316178352505050506040516130aa919061687a565b600060405180830381855afa9150503d80600081146130e5576040519150601f19603f3d011682016040523d82523d6000602084013e6130ea565b606091505b5091509150613103672771659086f401d660c01b614bf5565b6020815114806131235750613122677b5a655d45cc22ac60c01b614bf8565b5b801561313f575061313e67452c5df305f7447660c01b614bff565b5b61314a57600061315f565b8080602001905181019061315e91906168bd565b5b8984815181106131725761317161635a565b5b602002602001019060ff16908160ff168152505061319a6777fb3645a62ccce560c01b614bf5565b8583815181106131ad576131ac61635a565b5b60200260200101516040015173ffffffffffffffffffffffffffffffffffffffff166040516024016040516020818303038152906040527f06fdde03000000000000000000000000000000000000000000000000000000007bffffffffffffffffffffffffffffffffffffffffffffffffffffffff19166020820180517bffffffffffffffffffffffffffffffffffffffffffffffffffffffff838183161783525050505060405161325f919061687a565b600060405180830381855afa9150503d806000811461329a576040519150601f19603f3d011682016040523d82523d6000602084013e61329f565b606091505b5080925081935050506132bc670349120613d25cf260c01b614bf5565b6000815111806132dc57506132db6731653cec41639aa760c01b614bf8565b5b80156132f857506132f7679947f5a9ba801f1c60c01b614bff565b5b6133115760405180602001604052806000815250613326565b808060200190518101906133259190616990565b5b8884815181106133395761333861635a565b5b6020026020010181905250613358679049059feb35cdf960c01b614bf5565b85838151811061336b5761336a61635a565b5b60200260200101516040015173ffffffffffffffffffffffffffffffffffffffff166040516024016040516020818303038152906040527f95d89b41000000000000000000000000000000000000000000000000000000007bffffffffffffffffffffffffffffffffffffffffffffffffffffffff19166020820180517bffffffffffffffffffffffffffffffffffffffffffffffffffffffff838183161783525050505060405161341d919061687a565b600060405180830381855afa9150503d8060008114613458576040519150601f19603f3d011682016040523d82523d6000602084013e61345d565b606091505b50809250819350505061347a677240a44653b36e8860c01b614bf5565b60008151118061349a57506134996757cf8c6dc07e449960c01b614bf8565b5b80156134b657506134b567bcd90f25023def0560c01b614bff565b5b6134cf57604051806020016040528060008152506134e4565b808060200190518101906134e39190616990565b5b8784815181106134f7576134f661635a565b5b602002602001018190525050508080600101915050612d62565b506135266791382225c2b1c51960c01b614bf5565b8067ffffffffffffffff8111156135405761353f615626565b5b60405190808252806020026020018201604052801561356e5781602001602082028036833780820191505090505b50915061358567c685f839465285d560c01b614bf5565b61358f89896144cd565b905050809250506135aa67ca58d6b43bf3489160c01b614bf5565b6135be671fb3ec69ae76ea6460c01b614bf5565b509295509295509295565b6135dd67a56cb24f19f218c160c01b614bf5565b6135f167f24d7c325528625560c01b614bf5565b61360567a5ef9f808e8b2be960c01b614bf5565b61361967c3afa579e7e239f760c01b614bf5565b838390508686905014801561363357508181905084849050145b613672576040517f08c379a0000000000000000000000000000000000000000000000000000000008152600401613669906164f2565b60405180910390fd5b61368667a002472f16dbc92860c01b614bf5565b61369a67044a8f1d80fbaf8e60c01b614bf5565b6136ae67ee3de52a3a585cca60c01b614bf5565b60005b86869050811015613771576136d06713b64ca7726102d360c01b614bf5565b6136e4670ec7812e17c6fb8760c01b614bf5565b6137648787838181106136fa576136f961635a565b5b905060200201602081019061370f9190615478565b8686848181106137225761372161635a565b5b90506020020160208101906137379190615478565b85858581811061374a5761374961635a565b5b905060200201602081019061375f9190615478565b6109ed565b80806001019150506136b1565b50505050505050565b606061379067e0994792a805f8cd60c01b614bf5565b6137a4676ea817e08d8b6da060c01b614bf5565b6137b8678760a62548077c1a60c01b614bf5565b6137cc679c585b02ce157da260c01b614bf5565b84849050878790501480156137e657508282905085859050145b613825576040517f08c379a000000000000000000000000000000000000000000000000000000000815260040161381c906164f2565b60405180910390fd5b613839672c449b59e3188e8d60c01b614bf5565b61384d674ed63b3f9d8aaef160c01b614bf5565b613861671d2dbed312d1485260c01b614bf5565b600087879050905061387d670e3c3f534d2d56ea60c01b614bf5565b61389167a30705e0ff78f89360c01b614bf5565b60008167ffffffffffffffff8111156138ad576138ac615626565b5b6040519080825280602002602001820160405280156138db5781602001602082028036833780820191505090505b5090506138f267a0d2694259ba499560c01b614bf5565b61390667d729e0b8206f7af560c01b614bf5565b60005b828110156139d15761392567bc161277e2d12f5b60c01b614bf5565b6139a58a8a8381811061393b5761393a61635a565b5b90506020020160208101906139509190615478565b8989848181106139635761396261635a565b5b90506020020160208101906139789190615478565b88888581811061398b5761398a61635a565b5b90506020020160208101906139a09190615478565b611772565b8282815181106139b8576139b761635a565b5b6020026020010181815250508080600101915050613909565b506139e66778e69f19501cf55760c01b614bf5565b6139fa6772b576fb218da11060c01b614bf5565b80925050509695505050505050565b613a1d6786b75817d63c950260c01b614bf5565b613a3167176578a2e826937c60c01b614bf5565b613a4567b68205c55037ff2c60c01b614bf5565b613a59676cddb393c99ea13260c01b614bf5565b600360009054906101000a900473ffffffffffffffffffffffffffffffffffffffff1673ffffffffffffffffffffffffffffffffffffffff163373ffffffffffffffffffffffffffffffffffffffff1614613ae9576040517f08c379a0000000000000000000000000000000000000000000000000000000008152600401613ae090616a25565b60405180910390fd5b613afd67466b0998f4ece7f660c01b614bf5565b613b11677e361919933defcc60c01b614bf5565b603282111580613b315750613b3067d856dd5ca194dca960c01b614bf8565b5b8015613b4d5750613b4c673074c1875893521760c01b614bff565b5b613b58576032613b5a565b815b600481905550613b7467e373a4642ac2ba3360c01b614bf5565b600073ffffffffffffffffffffffffffffffffffffffff168173ffffffffffffffffffffffffffffffffffffffff16141580613bc05750613bbf672e526f9bfe77058560c01b614bf8565b5b8015613bdc5750613bdb6764fb8191bd5fbfcc60c01b614bff565b5b613c0857600360009054906101000a900473ffffffffffffffffffffffffffffffffffffffff16613c0a565b805b600360006101000a81548173ffffffffffffffffffffffffffffffffffffffff021916908373ffffffffffffffffffffffffffffffffffffffff1602179055505050565b613c62674aaa564661f484e060c01b614bf5565b613c7667bfeafce83b19215960c01b614bf5565b613c8a676c6ded52f4aeb5fd60c01b614bf5565b6000613c97338787611772565b9050613cad67199ee6bc5f42c33960c01b614bf5565b613cc16738f6a57926f06f7460c01b614bf5565b600073ffffffffffffffffffffffffffffffffffffffff1660008083815260200190815260200160002060000160009054906101000a900473ffffffffffffffffffffffffffffffffffffffff1673ffffffffffffffffffffffffffffffffffffffff160361403557613d3e67435b35547d672a0260c01b614bf5565b613d5267277c220dd69ef9ea60c01b614bf5565b6040518061012001604052803373ffffffffffffffffffffffffffffffffffffffff1681526020018673ffffffffffffffffffffffffffffffffffffffff1681526020018773ffffffffffffffffffffffffffffffffffffffff1681526020016000815260200185815260200185815260200184815260200142815260200183151581525060008083815260200190815260200160002060008201518160000160006101000a81548173ffffffffffffffffffffffffffffffffffffffff021916908373ffffffffffffffffffffffffffffffffffffffff16021790555060208201518160010160006101000a81548173ffffffffffffffffffffffffffffffffffffffff021916908373ffffffffffffffffffffffffffffffffffffffff16021790555060408201518160020160006101000a81548173ffffffffffffffffffffffffffffffffffffffff021916908373ffffffffffffffffffffffffffffffffffffffff160217905550606082015181600301556080820151816004015560a0820151816005015560c0820151816006015560e082015181600701556101008201518160080160006101000a81548160ff021916908315150217905550905050613f28674b9945ca6e4f35b360c01b614bf5565b613f3c67fd20e6dffaadb2b360c01b614bf5565b600160003373ffffffffffffffffffffffffffffffffffffffff1673ffffffffffffffffffffffffffffffffffffffff168152602001908152602001600020819080600181540180825580915050600190039060005260206000200160009091909190915055613fb667ef3f26c0d17643f660c01b614bf5565b613fca6794c06907e3ff4eba60c01b614bf5565b600260008673ffffffffffffffffffffffffffffffffffffffff1673ffffffffffffffffffffffffffffffffffffffff168152602001908152602001600020819080600181540180825580915050600190039060005260206000200160009091909190915055614143565b61404967cd7192b7e34760dd60c01b614bf5565b61405d675baaffdf6b9de93860c01b614bf5565b836000808381526020019081526020016000206005018190555061408b67bbaa87eb756c621560c01b614bf5565b83600080838152602001908152602001600020600401819055506140b967a0be2c848ec59c0360c01b614bf5565b82600080838152602001908152602001600020600601819055506140e76755eeb0160c93242760c01b614bf5565b426000808381526020019081526020016000206007018190555061411567a8e74e49fcd7713b60c01b614bf5565b8160008083815260200190815260200160002060080160006101000a81548160ff0219169083151502179055505b6141576759a42c97a4b9fa7c60c01b614bf5565b61416b675c8147af1d1aeccb60c01b614bf5565b8473ffffffffffffffffffffffffffffffffffffffff168673ffffffffffffffffffffffffffffffffffffffff163373ffffffffffffffffffffffffffffffffffffffff167fcf8d64e381fa4c6934a7d60007173d92e3e32d0d11698bbb69f14e04fa2c4a89876040516141df919061519e565b60405180910390a4505050505050565b606061420567c313367335cec7b560c01b614bf5565b614219677d6a2d03355b2a1760c01b614bf5565b61422d67ebaa74144a2bc38460c01b614bf5565b600160008373ffffffffffffffffffffffffffffffffffffffff1673ffffffffffffffffffffffffffffffffffffffff1681526020019081526020016000208054806020026020016040519081016040528092919081815260200182805480156142b657602002820191906000526020600020905b8154815260200190600101908083116142a2575b50505050509050919050565b6142d667231c369d783b6f6160c01b614bf5565b6142ea6786264b7fc045dd0a60c01b614bf5565b6142fe67ff36e2a26ba5b5c460c01b614bf5565b61431267d375bbcc0298b8b160c01b614bf5565b878790508a8a905014801561432c57508585905088889050145b801561433d57508383905086869050145b801561434e57508181905084849050145b61438d576040517f08c379a0000000000000000000000000000000000000000000000000000000008152600401614384906164f2565b60405180910390fd5b6143a167d3b4a0c8e24d0ce060c01b614bf5565b6143b5677411bfa7a731431a60c01b614bf5565b6143c967cb4bf131bfca33bd60c01b614bf5565b60005b8a8a90508110156144c0576143eb678b2e777628e9b9b460c01b614bf5565b6143ff678281b675ce6d124c60c01b614bf5565b6144b38b8b838181106144155761441461635a565b5b905060200201602081019061442a9190615478565b8a8a8481811061443d5761443c61635a565b5b90506020020160208101906144529190615478565b8989858181106144655761446461635a565b5b9050602002013588888681811061447f5761447e61635a565b5b905060200201358787878181106144995761449861635a565b5b90506020020160208101906144ae9190616a45565b613c4e565b80806001019150506143cc565b5050505050505050505050565b60608060606144e6674cc906ae5f69e89a60c01b614bf5565b6144fa678bb6da117ac603b760c01b614bf5565b61450e67cfdeaef16c7cf2e160c01b614bf5565b600085859050905061452a67fcf4e34b377cf5fd60c01b614bf5565b8067ffffffffffffffff81111561454457614543615626565b5b6040519080825280602002602001820160405280156145725781602001602082028036833780820191505090505b5093506145896765925da1367ce1b260c01b614bf5565b8067ffffffffffffffff8111156145a3576145a2615626565b5b6040519080825280602002602001820160405280156145d15781602001602082028036833780820191505090505b5092506145e867e316704a6f50399260c01b614bf5565b8067ffffffffffffffff81111561460257614601615626565b5b6040519080825280602002602001820160405280156146305781602001602082028036833780820191505090505b509150614647672a970a369b565dda60c01b614bf5565b61465b679bb9cb1f82e1a6a460c01b614bf5565b60005b81811015614b055761467a675a58b0463f273d0e60c01b614bf5565b61468e67f63b9ece9a31187060c01b614bf5565b60008060008989858181106146a6576146a561635a565b5b90506020020135815260200190815260200160002090506146d16717aa1f0d83d47dcc60c01b614bf5565b6146e5674afe1876babbdaf560c01b614bf5565b6146f9673f3776108054363460c01b614bf5565b600073ffffffffffffffffffffffffffffffffffffffff168160000160009054906101000a900473ffffffffffffffffffffffffffffffffffffffff1673ffffffffffffffffffffffffffffffffffffffff160361478c576040517f08c379a0000000000000000000000000000000000000000000000000000000008152600401614783906163e6565b60405180910390fd5b6147a0675bd44673e8db661260c01b614bf5565b6147b46754f2702e7531751760c01b614bf5565b6147c86759bebd40b002597b60c01b614bf5565b60006148418260020160009054906101000a900473ffffffffffffffffffffffffffffffffffffffff168360000160009054906101000a900473ffffffffffffffffffffffffffffffffffffffff168460010160009054906101000a900473ffffffffffffffffffffffffffffffffffffffff16610527565b90506148576752a946ccfd06d30560c01b614bf5565b8160020160009054906101000a900473ffffffffffffffffffffffffffffffffffffffff1673ffffffffffffffffffffffffffffffffffffffff166370a082318360000160009054906101000a900473ffffffffffffffffffffffffffffffffffffffff166040518263ffffffff1660e01b81526004016148d89190616689565b602060405180830381865afa1580156148f5573d6000803e3d6000fd5b505050506040513d601f19601f8201168201806040525081019061491991906166b9565b86848151811061492c5761492b61635a565b5b60200260200101818152505061494c6703b92e3c6bcdbb9360c01b614bf5565b8160020160009054906101000a900473ffffffffffffffffffffffffffffffffffffffff1673ffffffffffffffffffffffffffffffffffffffff1663dd62ed3e8360000160009054906101000a900473ffffffffffffffffffffffffffffffffffffffff16306040518363ffffffff1660e01b81526004016149cf929190616778565b602060405180830381865afa1580156149ec573d6000803e3d6000fd5b505050506040513d601f19601f82011682018060405250810190614a1091906166b9565b858481518110614a2357614a2261635a565b5b602002602001018181525050614a43675a4de552190f308a60c01b614bf5565b858381518110614a5657614a5561635a565b5b60200260200101516103e860045483614a6f91906162b8565b614a799190616329565b82614a849190616472565b11158015614ad15750848381518110614aa057614a9f61635a565b5b60200260200101516103e860045483614ab991906162b8565b614ac39190616329565b82614ace9190616472565b11155b878481518110614ae457614ae361635a565b5b6020026020010190151590811515815250505050808060010191505061465e565b50614b1a67ae6e8263c13d136860c01b614bf5565b614b2e679a8644117bad196f60c01b614bf5565b509250925092565b60016020528160005260406000208181548110614b5257600080fd5b90600052602060002001600091509150505481565b60045481565b6000614b83670ffbf320cedbf95e60c01b614bf5565b614b97671eec756a19aaccf060c01b614bf5565b614bab67d92ea1fe804df3bc60c01b614bf5565b600160008373ffffffffffffffffffffffffffffffffffffffff1673ffffffffffffffffffffffffffffffffffffffff168152602001908152602001600020805490509050919050565b50565b6000919050565b600060019050919050565b614c1e67ff730688b9e673da60c01b614ccf565b614c32674e8519ddd63a536f60c01b614ccf565b614c4667819f00ab16aa261f60c01b614ccf565b614cc9846323b872dd60e01b858585604051602401614c6793929190616a72565b604051602081830303815290604052907bffffffffffffffffffffffffffffffffffffffffffffffffffffffff19166020820180517bffffffffffffffffffffffffffffffffffffffffffffffffffffffff8381831617835250505050614cd2565b50505050565b50565b614ce6670603c04521109cb960c01b614ccf565b614cfa67e0438bdbf46f3dc060c01b614ccf565b614d0e67c4ca81ae6ba37c8d60c01b614ccf565b6000614d70826040518060400160405280602081526020017f5361666545524332303a206c6f772d6c6576656c2063616c6c206661696c65648152508573ffffffffffffffffffffffffffffffffffffffff16614e7a9092919063ffffffff16565b9050614d866761685f340fc657cb60c01b614ccf565b614d9a6707e79a25eaff831e60c01b614ccf565b600081511115614e6057614db86722dc24efba5df34060c01b614ccf565b614dcc67922d0fca3355f32960c01b614ccf565b614de06718748795ff1d640060c01b614ccf565b614df467c603dec50528272060c01b614ccf565b80806020019051810190614e089190616abe565b614e47576040517f08c379a0000000000000000000000000000000000000000000000000000000008152600401614e3e90616b5d565b60405180910390fd5b614e5b67c7f1a605d838f0ce60c01b614ccf565b614e75565b614e746752a326123878cc1f60c01b614ccf565b5b505050565b6060614e898484600085614e92565b90509392505050565b606082471015614ed7576040517f08c379a0000000000000000000000000000000000000000000000000000000008152600401614ece90616bef565b60405180910390fd5b614ee085614fa6565b614f1f576040517f08c379a0000000000000000000000000000000000000000000000000000000008152600401614f1690616c5b565b60405180910390fd5b6000808673ffffffffffffffffffffffffffffffffffffffff168587604051614f48919061687a565b60006040518083038185875af1925050503d8060008114614f85576040519150601f19603f3d011682016040523d82523d6000602084013e614f8a565b606091505b5091509150614f9a828286614fc9565b92505050949350505050565b6000808273ffffffffffffffffffffffffffffffffffffffff163b119050919050565b60608315614fd957829050615029565b600083511115614fec5782518084602001fd5b816040517f08c379a00000000000000000000000000000000000000000000000000000000081526004016150209190616cb4565b60405180910390fd5b9392505050565b604051806101200160405280600073ffffffffffffffffffffffffffffffffffffffff168152602001600073ffffffffffffffffffffffffffffffffffffffff168152602001600073ffffffffffffffffffffffffffffffffffffffff16815260200160008152602001600081526020016000815260200160008152602001600081526020016000151581525090565b6000604051905090565b600080fd5b600080fd5b600073ffffffffffffffffffffffffffffffffffffffff82169050919050565b60006150ff826150d4565b9050919050565b61510f816150f4565b811461511a57600080fd5b50565b60008135905061512c81615106565b92915050565b60008060006060848603121561514b5761514a6150ca565b5b60006151598682870161511d565b935050602061516a8682870161511d565b925050604061517b8682870161511d565b9150509250925092565b6000819050919050565b61519881615185565b82525050565b60006020820190506151b3600083018461518f565b92915050565b600080fd5b600080fd5b600080fd5b60008083601f8401126151de576151dd6151b9565b5b8235905067ffffffffffffffff8111156151fb576151fa6151be565b5b602083019150836020820283011115615217576152166151c3565b5b9250929050565b600080600060408486031215615237576152366150ca565b5b60006152458682870161511d565b935050602084013567ffffffffffffffff811115615266576152656150cf565b5b615272868287016151c8565b92509250509250925092565b600081519050919050565b600082825260208201905092915050565b6000819050602082019050919050565b6000819050919050565b6152bd816152aa565b82525050565b60006152cf83836152b4565b60208301905092915050565b6000602082019050919050565b60006152f38261527e565b6152fd8185615289565b93506153088361529a565b8060005b8381101561533957815161532088826152c3565b975061532b836152db565b92505060018101905061530c565b5085935050505092915050565b6000602082019050818103600083015261536081846152e8565b905092915050565b615371816152aa565b811461537c57600080fd5b50565b60008135905061538e81615368565b92915050565b6000602082840312156153aa576153a96150ca565b5b60006153b88482850161537f565b91505092915050565b6153ca816150f4565b82525050565b60008115159050919050565b6153e5816153d0565b82525050565b600061012082019050615401600083018c6153c1565b61540e602083018b6153c1565b61541b604083018a6153c1565b615428606083018961518f565b615435608083018861518f565b61544260a083018761518f565b61544f60c083018661518f565b61545c60e083018561518f565b61546a6101008301846153dc565b9a9950505050505050505050565b60006020828403121561548e5761548d6150ca565b5b600061549c8482850161511d565b91505092915050565b60006154b0826150d4565b9050919050565b6154c0816154a5565b82525050565b60006020820190506154db60008301846154b7565b92915050565b60008083601f8401126154f7576154f66151b9565b5b8235905067ffffffffffffffff811115615514576155136151be565b5b6020830191508360208202830111156155305761552f6151c3565b5b9250929050565b60008060008060008060608789031215615554576155536150ca565b5b600087013567ffffffffffffffff811115615572576155716150cf565b5b61557e89828a016154e1565b9650965050602087013567ffffffffffffffff8111156155a1576155a06150cf565b5b6155ad89828a016154e1565b9450945050604087013567ffffffffffffffff8111156155d0576155cf6150cf565b5b6155dc89828a016154e1565b92509250509295509295509295565b6155f4816152aa565b82525050565b600060208201905061560f60008301846155eb565b92915050565b6000601f19601f8301169050919050565b7f4e487b7100000000000000000000000000000000000000000000000000000000600052604160045260246000fd5b61565e82615615565b810181811067ffffffffffffffff8211171561567d5761567c615626565b5b80604052505050565b60006156906150c0565b905061569c8282615655565b919050565b600067ffffffffffffffff8211156156bc576156bb615626565b5b602082029050602081019050919050565b60006156e06156db846156a1565b615686565b90508083825260208201905060208402830185811115615703576157026151c3565b5b835b8181101561572c5780615718888261537f565b845260208401935050602081019050615705565b5050509392505050565b600082601f83011261574b5761574a6151b9565b5b813561575b8482602086016156cd565b91505092915050565b60006020828403121561577a576157796150ca565b5b600082013567ffffffffffffffff811115615798576157976150cf565b5b6157a484828501615736565b91505092915050565b600067ffffffffffffffff8211156157c8576157c7615626565b5b602082029050602081019050919050565b60006157ec6157e7846157ad565b615686565b9050808382526020820190506020840283018581111561580f5761580e6151c3565b5b835b818110156158385780615824888261511d565b845260208401935050602081019050615811565b5050509392505050565b600082601f830112615857576158566151b9565b5b81356158678482602086016157d9565b91505092915050565b600080600060608486031215615889576158886150ca565b5b600084013567ffffffffffffffff8111156158a7576158a66150cf565b5b6158b386828701615842565b935050602084013567ffffffffffffffff8111156158d4576158d36150cf565b5b6158e086828701615842565b925050604084013567ffffffffffffffff811115615901576159006150cf565b5b61590d86828701615842565b9150509250925092565b61592081615185565b811461592b57600080fd5b50565b60008135905061593d81615917565b92915050565b6000806040838503121561595a576159596150ca565b5b60006159688582860161511d565b92505060206159798582860161592e565b9150509250929050565b60008083601f840112615999576159986151b9565b5b8235905067ffffffffffffffff8111156159b6576159b56151be565b5b6020830191508360208202830111156159d2576159d16151c3565b5b9250929050565b600080602083850312156159f0576159ef6150ca565b5b600083013567ffffffffffffffff811115615a0e57615a0d6150cf565b5b615a1a85828601615983565b92509250509250929050565b600081519050919050565b600082825260208201905092915050565b6000819050602082019050919050565b615a5b81615185565b82525050565b6000615a6d8383615a52565b60208301905092915050565b6000602082019050919050565b6000615a9182615a26565b615a9b8185615a31565b9350615aa683615a42565b8060005b83811015615ad7578151615abe8882615a61565b9750615ac983615a79565b925050600181019050615aaa565b5085935050505092915050565b600081519050919050565b600082825260208201905092915050565b6000819050602082019050919050565b600060ff82169050919050565b615b2681615b10565b82525050565b6000615b388383615b1d565b60208301905092915050565b6000602082019050919050565b6000615b5c82615ae4565b615b668185615aef565b9350615b7183615b00565b8060005b83811015615ba2578151615b898882615b2c565b9750615b9483615b44565b925050600181019050615b75565b5085935050505092915050565b600081519050919050565b600082825260208201905092915050565b6000819050602082019050919050565b600081519050919050565b600082825260208201905092915050565b60005b83811015615c15578082015181840152602081019050615bfa565b60008484015250505050565b6000615c2c82615bdb565b615c368185615be6565b9350615c46818560208601615bf7565b615c4f81615615565b840191505092915050565b6000615c668383615c21565b905092915050565b6000602082019050919050565b6000615c8682615baf565b615c908185615bba565b935083602082028501615ca285615bcb565b8060005b85811015615cde5784840389528151615cbf8582615c5a565b9450615cca83615c6e565b925060208a01995050600181019050615ca6565b50829750879550505050505092915050565b600081519050919050565b600082825260208201905092915050565b6000819050602082019050919050565b615d25816150f4565b82525050565b615d34816153d0565b82525050565b61012082016000820151615d516000850182615d1c565b506020820151615d646020850182615d1c565b506040820151615d776040850182615d1c565b506060820151615d8a6060850182615a52565b506080820151615d9d6080850182615a52565b5060a0820151615db060a0850182615a52565b5060c0820151615dc360c0850182615a52565b5060e0820151615dd660e0850182615a52565b50610100820151615deb610100850182615d2b565b50505050565b6000615dfd8383615d3a565b6101208301905092915050565b6000602082019050919050565b6000615e2282615cf0565b615e2c8185615cfb565b9350615e3783615d0c565b8060005b83811015615e68578151615e4f8882615df1565b9750615e5a83615e0a565b925050600181019050615e3b565b5085935050505092915050565b600081519050919050565b600082825260208201905092915050565b6000819050602082019050919050565b6000615ead8383615d2b565b60208301905092915050565b6000602082019050919050565b6000615ed182615e75565b615edb8185615e80565b9350615ee683615e91565b8060005b83811015615f17578151615efe8882615ea1565b9750615f0983615eb9565b925050600181019050615eea565b5085935050505092915050565b600060c0820190508181036000830152615f3e8189615a86565b90508181036020830152615f528188615b51565b90508181036040830152615f668187615c7b565b90508181036060830152615f7a8186615c7b565b90508181036080830152615f8e8185615e17565b905081810360a0830152615fa28184615ec6565b9050979650505050505050565b60008060408385031215615fc657615fc56150ca565b5b6000615fd48582860161592e565b9250506020615fe58582860161511d565b9150509250929050565b615ff8816153d0565b811461600357600080fd5b50565b60008135905061601581615fef565b92915050565b600080600080600060a08688031215616037576160366150ca565b5b60006160458882890161511d565b95505060206160568882890161511d565b94505060406160678882890161592e565b93505060606160788882890161592e565b925050608061608988828901616006565b9150509295509295909350565b60008083601f8401126160ac576160ab6151b9565b5b8235905067ffffffffffffffff8111156160c9576160c86151be565b5b6020830191508360208202830111156160e5576160e46151c3565b5b9250929050565b60008060008060008060008060008060a08b8d03121561610f5761610e6150ca565b5b60008b013567ffffffffffffffff81111561612d5761612c6150cf565b5b6161398d828e016154e1565b9a509a505060208b013567ffffffffffffffff81111561615c5761615b6150cf565b5b6161688d828e016154e1565b985098505060408b013567ffffffffffffffff81111561618b5761618a6150cf565b5b6161978d828e016151c8565b965096505060608b013567ffffffffffffffff8111156161ba576161b96150cf565b5b6161c68d828e016151c8565b945094505060808b013567ffffffffffffffff8111156161e9576161e86150cf565b5b6161f58d828e01616096565b92509250509295989b9194979a5092959850565b600060608201905081810360008301526162238186615ec6565b905081810360208301526162378185615a86565b9050818103604083015261624b8184615a86565b9050949350505050565b7f4e487b7100000000000000000000000000000000000000000000000000000000600052601160045260246000fd5b600061628f82615185565b915061629a83615185565b92508282039050818111156162b2576162b1616255565b5b92915050565b60006162c382615185565b91506162ce83615185565b92508282026162dc81615185565b915082820484148315176162f3576162f2616255565b5b5092915050565b7f4e487b7100000000000000000000000000000000000000000000000000000000600052601260045260246000fd5b600061633482615185565b915061633f83615185565b92508261634f5761634e6162fa565b5b828204905092915050565b7f4e487b7100000000000000000000000000000000000000000000000000000000600052603260045260246000fd5b600082825260208201905092915050565b7f53747265616d20646f6573206e6f742065786973740000000000000000000000600082015250565b60006163d0601583616389565b91506163db8261639a565b602082019050919050565b600060208201905081810360008301526163ff816163c3565b9050919050565b7f4e6f20616c6c6f7761626c6520616d6f756e7420746f20776974686472617700600082015250565b600061643c601f83616389565b915061644782616406565b602082019050919050565b6000602082019050818103600083015261646b8161642f565b9050919050565b600061647d82615185565b915061648883615185565b92508282019050808211156164a05761649f616255565b5b92915050565b7f496e70757420617272617973206c656e677468206d69736d6174636800000000600082015250565b60006164dc601c83616389565b91506164e7826164a6565b602082019050919050565b6000602082019050818103600083015261650b816164cf565b9050919050565b7f596f7520617265206e6f74207468652073747265616d6572206f72207265636960008201527f7069656e74000000000000000000000000000000000000000000000000000000602082015250565b600061656e602583616389565b915061657982616512565b604082019050919050565b6000602082019050818103600083015261659d81616561565b9050919050565b6000819050919050565b6000819050919050565b60006165d36165ce6165c9846165a4565b6165ae565b615185565b9050919050565b6165e3816165b8565b82525050565b60006020820190506165fe60008301846165da565b92915050565b60008160601b9050919050565b600061661c82616604565b9050919050565b600061662e82616611565b9050919050565b616646616641826150f4565b616623565b82525050565b60006166588286616635565b6014820191506166688285616635565b6014820191506166788284616635565b601482019150819050949350505050565b600060208201905061669e60008301846153c1565b92915050565b6000815190506166b381615917565b92915050565b6000602082840312156166cf576166ce6150ca565b5b60006166dd848285016166a4565b91505092915050565b7f496e73756666696369656e742062616c616e636520666f722073747265616d6960008201527f6e67000000000000000000000000000000000000000000000000000000000000602082015250565b6000616742602283616389565b915061674d826166e6565b604082019050919050565b6000602082019050818103600083015261677181616735565b9050919050565b600060408201905061678d60008301856153c1565b61679a60208301846153c1565b9392505050565b7f496e73756666696369656e7420616c6c6f77616e636520666f7220737472656160008201527f6d696e6700000000000000000000000000000000000000000000000000000000602082015250565b60006167fd602483616389565b9150616808826167a1565b604082019050919050565b6000602082019050818103600083015261682c816167f0565b9050919050565b600081519050919050565b600081905092915050565b600061685482616833565b61685e818561683e565b935061686e818560208601615bf7565b80840191505092915050565b60006168868284616849565b915081905092915050565b61689a81615b10565b81146168a557600080fd5b50565b6000815190506168b781616891565b92915050565b6000602082840312156168d3576168d26150ca565b5b60006168e1848285016168a8565b91505092915050565b600080fd5b600067ffffffffffffffff82111561690a57616909615626565b5b61691382615615565b9050602081019050919050565b600061693361692e846168ef565b615686565b90508281526020810184848401111561694f5761694e6168ea565b5b61695a848285615bf7565b509392505050565b600082601f830112616977576169766151b9565b5b8151616987848260208601616920565b91505092915050565b6000602082840312156169a6576169a56150ca565b5b600082015167ffffffffffffffff8111156169c4576169c36150cf565b5b6169d084828501616962565b91505092915050565b7f596f7520617265206e6f7420746865206f776e65720000000000000000000000600082015250565b6000616a0f601583616389565b9150616a1a826169d9565b602082019050919050565b60006020820190508181036000830152616a3e81616a02565b9050919050565b600060208284031215616a5b57616a5a6150ca565b5b6000616a6984828501616006565b91505092915050565b6000606082019050616a8760008301866153c1565b616a9460208301856153c1565b616aa1604083018461518f565b949350505050565b600081519050616ab881615fef565b92915050565b600060208284031215616ad457616ad36150ca565b5b6000616ae284828501616aa9565b91505092915050565b7f5361666545524332303a204552433230206f7065726174696f6e20646964206e60008201527f6f74207375636365656400000000000000000000000000000000000000000000602082015250565b6000616b47602a83616389565b9150616b5282616aeb565b604082019050919050565b60006020820190508181036000830152616b7681616b3a565b9050919050565b7f416464726573733a20696e73756666696369656e742062616c616e636520666f60008201527f722063616c6c0000000000000000000000000000000000000000000000000000602082015250565b6000616bd9602683616389565b9150616be482616b7d565b604082019050919050565b60006020820190508181036000830152616c0881616bcc565b9050919050565b7f416464726573733a2063616c6c20746f206e6f6e2d636f6e7472616374000000600082015250565b6000616c45601d83616389565b9150616c5082616c0f565b602082019050919050565b60006020820190508181036000830152616c7481616c38565b9050919050565b6000616c8682615bdb565b616c908185616389565b9350616ca0818560208601615bf7565b616ca981615615565b840191505092915050565b60006020820190508181036000830152616cce8184616c7b565b90509291505056fea264697066735822122075f64a65aaeb835f940f0ced06f467ddc7fa4a62a4dc93af0fc23318d124475564736f6c63430008180033",
  "linkReferences": {},
  "deployedLinkReferences": {}
}