{
  "_format": "hh-sol-artifact-1",
  "contractName": "Stream",
  "sourceName": "contracts/Stream.sol",
  "abi": [
    {
      "inputs": [
        {
          "internalType": "address payable",
          "name": "feeAddrs",
          "type": "address"
        }
      ],
      "stateMutability": "nonpayable",
      "type": "constructor"
    },
    {
      "anonymous": false,
      "inputs": [
        {
          "indexed": true,
          "internalType": "address",
          "name": "streamer",
          "type": "address"
        },
        {
          "indexed": true,
          "internalType": "address",
          "name": "token",
          "type": "address"
        },
        {
          "indexed": true,
          "internalType": "address",
          "name": "recipient",
          "type": "address"
        },
        {
          "indexed": false,
          "internalType": "uint256",
          "name": "amount",
          "type": "uint256"
        }
      ],
      "name": "StreamAllowed",
      "type": "event"
    },
    {
      "anonymous": false,
      "inputs": [
        {
          "indexed": true,
          "internalType": "address",
          "name": "token",
          "type": "address"
        },
        {
          "indexed": true,
          "internalType": "address",
          "name": "streamer",
          "type": "address"
        },
        {
          "indexed": true,
          "internalType": "address",
          "name": "recipient",
          "type": "address"
        },
        {
          "indexed": false,
          "internalType": "string",
          "name": "message",
          "type": "string"
        }
      ],
      "name": "StreamFailure",
      "type": "event"
    },
    {
      "anonymous": false,
      "inputs": [
        {
          "indexed": true,
          "internalType": "address",
          "name": "token",
          "type": "address"
        },
        {
          "indexed": true,
          "internalType": "address",
          "name": "streamer",
          "type": "address"
        },
        {
          "indexed": true,
          "internalType": "address",
          "name": "recipient",
          "type": "address"
        },
        {
          "indexed": false,
          "internalType": "uint256",
          "name": "amount",
          "type": "uint256"
        }
      ],
      "name": "Streamed",
      "type": "event"
    },
    {
      "inputs": [
        {
          "internalType": "address",
          "name": "token",
          "type": "address"
        },
        {
          "internalType": "address",
          "name": "recipient",
          "type": "address"
        },
        {
          "internalType": "uint256",
          "name": "amount",
          "type": "uint256"
        },
        {
          "internalType": "uint256",
          "name": "window",
          "type": "uint256"
        },
        {
          "internalType": "bool",
          "name": "once",
          "type": "bool"
        }
      ],
      "name": "allowStream",
      "outputs": [],
      "stateMutability": "nonpayable",
      "type": "function"
    },
    {
      "inputs": [
        {
          "internalType": "address[]",
          "name": "tokens",
          "type": "address[]"
        },
        {
          "internalType": "address[]",
          "name": "recipients",
          "type": "address[]"
        },
        {
          "internalType": "uint256[]",
          "name": "amounts",
          "type": "uint256[]"
        },
        {
          "internalType": "uint256[]",
          "name": "windows",
          "type": "uint256[]"
        },
        {
          "internalType": "bool[]",
          "name": "onces",
          "type": "bool[]"
        }
      ],
      "name": "batchAllowStream",
      "outputs": [],
      "stateMutability": "nonpayable",
      "type": "function"
    },
    {
      "inputs": [
        {
          "internalType": "address[]",
          "name": "streamers",
          "type": "address[]"
        },
        {
          "internalType": "address[]",
          "name": "tokens",
          "type": "address[]"
        },
        {
          "internalType": "address[]",
          "name": "recipients",
          "type": "address[]"
        }
      ],
      "name": "batchComputeHash",
      "outputs": [
        {
          "internalType": "bytes32[]",
          "name": "",
          "type": "bytes32[]"
        }
      ],
      "stateMutability": "pure",
      "type": "function"
    },
    {
      "inputs": [
        {
          "internalType": "address[]",
          "name": "tokens",
          "type": "address[]"
        },
        {
          "internalType": "address[]",
          "name": "streamers",
          "type": "address[]"
        },
        {
          "internalType": "address[]",
          "name": "recipients",
          "type": "address[]"
        }
      ],
      "name": "batchStream",
      "outputs": [],
      "stateMutability": "nonpayable",
      "type": "function"
    },
    {
      "inputs": [
        {
          "internalType": "address[]",
          "name": "tokens",
          "type": "address[]"
        },
        {
          "internalType": "address[]",
          "name": "streamers",
          "type": "address[]"
        },
        {
          "internalType": "address[]",
          "name": "recipients",
          "type": "address[]"
        }
      ],
      "name": "batchStreamAvailable",
      "outputs": [],
      "stateMutability": "nonpayable",
      "type": "function"
    },
    {
      "inputs": [
        {
          "internalType": "bytes32[]",
          "name": "hashes",
          "type": "bytes32[]"
        }
      ],
      "name": "batchStreamAvailableAllowances",
      "outputs": [],
      "stateMutability": "nonpayable",
      "type": "function"
    },
    {
      "inputs": [
        {
          "internalType": "address[]",
          "name": "tokens",
          "type": "address[]"
        },
        {
          "internalType": "address[]",
          "name": "streamers",
          "type": "address[]"
        },
        {
          "internalType": "address[]",
          "name": "recipients",
          "type": "address[]"
        }
      ],
      "name": "cancelStreams",
      "outputs": [],
      "stateMutability": "nonpayable",
      "type": "function"
    },
    {
      "inputs": [
        {
          "internalType": "address",
          "name": "streamer",
          "type": "address"
        },
        {
          "internalType": "address",
          "name": "token",
          "type": "address"
        },
        {
          "internalType": "address",
          "name": "recipient",
          "type": "address"
        }
      ],
      "name": "computeHash",
      "outputs": [
        {
          "internalType": "bytes32",
          "name": "",
          "type": "bytes32"
        }
      ],
      "stateMutability": "pure",
      "type": "function"
    },
    {
      "inputs": [],
      "name": "fee",
      "outputs": [
        {
          "internalType": "uint256",
          "name": "",
          "type": "uint256"
        }
      ],
      "stateMutability": "view",
      "type": "function"
    },
    {
      "inputs": [],
      "name": "feeAddress",
      "outputs": [
        {
          "internalType": "address payable",
          "name": "",
          "type": "address"
        }
      ],
      "stateMutability": "view",
      "type": "function"
    },
    {
      "inputs": [
        {
          "internalType": "address",
          "name": "token",
          "type": "address"
        },
        {
          "internalType": "address",
          "name": "streamer",
          "type": "address"
        },
        {
          "internalType": "address",
          "name": "recipient",
          "type": "address"
        }
      ],
      "name": "getAvailable",
      "outputs": [
        {
          "internalType": "uint256",
          "name": "",
          "type": "uint256"
        }
      ],
      "stateMutability": "view",
      "type": "function"
    },
    {
      "inputs": [
        {
          "internalType": "bytes32[]",
          "name": "hashes",
          "type": "bytes32[]"
        }
      ],
      "name": "getStreamDetails",
      "outputs": [
        {
          "internalType": "uint256[]",
          "name": "availableAmounts",
          "type": "uint256[]"
        },
        {
          "internalType": "uint8[]",
          "name": "decimals",
          "type": "uint8[]"
        },
        {
          "internalType": "string[]",
          "name": "tokenNames",
          "type": "string[]"
        },
        {
          "internalType": "string[]",
          "name": "tokenSymbols",
          "type": "string[]"
        },
        {
          "components": [
            {
              "internalType": "address",
              "name": "streamer",
              "type": "address"
            },
            {
              "internalType": "address",
              "name": "recipient",
              "type": "address"
            },
            {
              "internalType": "address",
              "name": "token",
              "type": "address"
            },
            {
              "internalType": "uint256",
              "name": "totalStreamed",
              "type": "uint256"
            },
            {
              "internalType": "uint256",
              "name": "outstanding",
              "type": "uint256"
            },
            {
              "internalType": "uint256",
              "name": "allowable",
              "type": "uint256"
            },
            {
              "internalType": "uint256",
              "name": "window",
              "type": "uint256"
            },
            {
              "internalType": "uint256",
              "name": "timestamp",
              "type": "uint256"
            },
            {
              "internalType": "bool",
              "name": "once",
              "type": "bool"
            }
          ],
          "internalType": "struct Stream.StreamDetails[]",
          "name": "details",
          "type": "tuple[]"
        }
      ],
      "stateMutability": "view",
      "type": "function"
    },
    {
      "inputs": [
        {
          "internalType": "bytes32[]",
          "name": "hashes",
          "type": "bytes32[]"
        }
      ],
      "name": "getStreamable",
      "outputs": [
        {
          "internalType": "bool[]",
          "name": "canStream",
          "type": "bool[]"
        },
        {
          "internalType": "uint256[]",
          "name": "balances",
          "type": "uint256[]"
        },
        {
          "internalType": "uint256[]",
          "name": "allowances",
          "type": "uint256[]"
        }
      ],
      "stateMutability": "view",
      "type": "function"
    },
    {
      "inputs": [
        {
          "internalType": "uint256",
          "name": "_fee",
          "type": "uint256"
        },
        {
          "internalType": "address",
          "name": "newFeeAddress",
          "type": "address"
        }
      ],
      "name": "setFee",
      "outputs": [],
      "stateMutability": "nonpayable",
      "type": "function"
    },
    {
      "inputs": [
        {
          "internalType": "address",
          "name": "token",
          "type": "address"
        },
        {
          "internalType": "address",
          "name": "streamer",
          "type": "address"
        },
        {
          "internalType": "address",
          "name": "recipient",
          "type": "address"
        }
      ],
      "name": "stream",
      "outputs": [],
      "stateMutability": "nonpayable",
      "type": "function"
    },
    {
      "inputs": [
        {
          "internalType": "bytes32",
          "name": "",
          "type": "bytes32"
        }
      ],
      "name": "streamDetails",
      "outputs": [
        {
          "internalType": "address",
          "name": "streamer",
          "type": "address"
        },
        {
          "internalType": "address",
          "name": "recipient",
          "type": "address"
        },
        {
          "internalType": "address",
          "name": "token",
          "type": "address"
        },
        {
          "internalType": "uint256",
          "name": "totalStreamed",
          "type": "uint256"
        },
        {
          "internalType": "uint256",
          "name": "outstanding",
          "type": "uint256"
        },
        {
          "internalType": "uint256",
          "name": "allowable",
          "type": "uint256"
        },
        {
          "internalType": "uint256",
          "name": "window",
          "type": "uint256"
        },
        {
          "internalType": "uint256",
          "name": "timestamp",
          "type": "uint256"
        },
        {
          "internalType": "bool",
          "name": "once",
          "type": "bool"
        }
      ],
      "stateMutability": "view",
      "type": "function"
    },
    {
      "inputs": [
        {
          "internalType": "address",
          "name": "",
          "type": "address"
        },
        {
          "internalType": "uint256",
          "name": "",
          "type": "uint256"
        }
      ],
      "name": "streamDetailsByRecipient",
      "outputs": [
        {
          "internalType": "bytes32",
          "name": "",
          "type": "bytes32"
        }
      ],
      "stateMutability": "view",
      "type": "function"
    },
    {
      "inputs": [
        {
          "internalType": "address",
          "name": "",
          "type": "address"
        },
        {
          "internalType": "uint256",
          "name": "",
          "type": "uint256"
        }
      ],
      "name": "streamDetailsByStreamer",
      "outputs": [
        {
          "internalType": "bytes32",
          "name": "",
          "type": "bytes32"
        }
      ],
      "stateMutability": "view",
      "type": "function"
    },
    {
      "inputs": [
        {
          "internalType": "address",
          "name": "recipient",
          "type": "address"
        }
      ],
      "name": "viewRecipientAllowances",
      "outputs": [
        {
          "internalType": "bytes32[]",
          "name": "",
          "type": "bytes32[]"
        }
      ],
      "stateMutability": "view",
      "type": "function"
    },
    {
      "inputs": [
        {
          "internalType": "address",
          "name": "streamer",
          "type": "address"
        }
      ],
      "name": "viewStreamerAllowances",
      "outputs": [
        {
          "internalType": "bytes32[]",
          "name": "",
          "type": "bytes32[]"
        }
      ],
      "stateMutability": "view",
      "type": "function"
    }
  ],
  "bytecode": "0x60806040523480156200001157600080fd5b50604051620065b4380380620065b4833981810160405281019062000037919062000124565b6200005367e3e503d3b75f182760c01b620000b760201b60201c565b6200006f677556069805d8a79960c01b620000b760201b60201c565b80600360006101000a81548173ffffffffffffffffffffffffffffffffffffffff021916908373ffffffffffffffffffffffffffffffffffffffff1602179055505062000156565b50565b600080fd5b600073ffffffffffffffffffffffffffffffffffffffff82169050919050565b6000620000ec82620000bf565b9050919050565b620000fe81620000df565b81146200010a57600080fd5b50565b6000815190506200011e81620000f3565b92915050565b6000602082840312156200013d576200013c620000ba565b5b60006200014d848285016200010d565b91505092915050565b61644e80620001666000396000f3fe608060405234801561001057600080fd5b506004361061012b5760003560e01c8063a136572d116100ad578063c098c4b011610071578063c098c4b01461036e578063cb5e174c1461039e578063d4628ec6146103ba578063db0b5b24146103ec578063ddca3f431461041c5761012b565b8063a136572d146102b6578063b3bfd06f146102ea578063b416af7414610306578063b4f2e8b814610336578063b8b39691146103525761012b565b80635f261713116100f45780635f26171314610202578063743a29bd1461021e5780638b614d091461024e578063993080c21461026a5780639cc0d08f146102865761012b565b80624790c11461013057806318fd373e1461016057806338cddec6146101985780634010d972146101b457806341275358146101e4575b600080fd5b61014a600480360381019061014591906148e9565b61043a565b6040516101579190614955565b60405180910390f35b61017a600480360381019061017591906149a6565b610731565b60405161018f999897969594939291906149fd565b60405180910390f35b6101b260048036038101906101ad91906148e9565b6107ec565b005b6101ce60048036038101906101c99190614a8a565b610e48565b6040516101db9190614b75565b60405180910390f35b6101ec610f1b565b6040516101f99190614bb8565b60405180910390f35b61021c60048036038101906102179190614c38565b610f41565b005b610238600480360381019061023391906148e9565b6114e9565b6040516102459190614cfb565b60405180910390f35b61026860048036038101906102639190614e65565b61155b565b005b610284600480360381019061027f9190614f71565b611937565b005b6102a0600480360381019061029b9190615044565b612695565b6040516102ad9190614cfb565b60405180910390f35b6102d060048036038101906102cb91906150da565b6126c6565b6040516102e1959493929190615576565b60405180910390f35b61030460048036038101906102ff9190614c38565b612e08565b005b610320600480360381019061031b9190614c38565b612fb9565b60405161032d9190614b75565b60405180910390f35b610350600480360381019061034b91906155ec565b613248565b005b61036c60048036038101906103679190615658565b61348d565b005b61038860048036038101906103839190614a8a565b613a2e565b6040516103959190614b75565b60405180910390f35b6103b860048036038101906103b3919061577f565b613b01565b005b6103d460048036038101906103cf91906150da565b613d0c565b6040516103e39392919061594b565b60405180910390f35b61040660048036038101906104019190615044565b614375565b6040516104139190614cfb565b60405180910390f35b6104246143a6565b6040516104319190614955565b60405180910390f35b6000610450678ca9ce37be758d9960c01b6143ac565b6104646767baff6278911a3e60c01b6143ac565b61047867fe3892f4f133133460c01b6143ac565b60006104858486856114e9565b905061049b673230e21af296b9b060c01b6143ac565b6104af674d59c1f5aa864e1260c01b6143ac565b600080600083815260200190815260200160002090506104d967741c1e6f090e89f560c01b6143ac565b6104ed671427d91ca823f47c60c01b6143ac565b61050167ce32b3958d56c95660c01b6143ac565b600073ffffffffffffffffffffffffffffffffffffffff168160000160009054906101000a900473ffffffffffffffffffffffffffffffffffffffff1673ffffffffffffffffffffffffffffffffffffffff1603610594576040517f08c379a000000000000000000000000000000000000000000000000000000000815260040161058b906159f4565b60405180910390fd5b6105a867ede22324b500a5e360c01b6143ac565b6105bc670110d0e122b50fe660c01b6143ac565b6105d067bc86fded3bea136c60c01b6143ac565b60004290506105e967c7b6aee7154a7e7a60c01b6143ac565b6105fd67516cac4a5d55d85b60c01b6143ac565b600082600701548261060f9190615a43565b905061062567378f1f6c771fa47960c01b6143ac565b610639673416fb88a042061e60c01b6143ac565b600083600601548285600501546106509190615a77565b61065a9190615ae8565b905061067067729a8da34e615ba760c01b6143ac565b61068467465b4215458cee8860c01b6143ac565b8360040154811180156106ac5750600115158460080160009054906101000a900460ff161515145b156106e5576106c567e87ffbf6a118a7db60c01b6143ac565b6106d967e040a6fd3df0294f60c01b6143ac565b836004015490506106fa565b6106f9671b228625772ae2a160c01b6143ac565b5b61070e670cff64092f8f141160c01b6143ac565b610722677335fd9dd249b48760c01b6143ac565b80955050505050509392505050565b60006020528060005260406000206000915090508060000160009054906101000a900473ffffffffffffffffffffffffffffffffffffffff16908060010160009054906101000a900473ffffffffffffffffffffffffffffffffffffffff16908060020160009054906101000a900473ffffffffffffffffffffffffffffffffffffffff16908060030154908060040154908060050154908060060154908060070154908060080160009054906101000a900460ff16905089565b610800678e38a90f883d3bb260c01b6143ac565b610814677d96705ee46723b060c01b6143ac565b610828673c2e72d5893059f260c01b6143ac565b60006108358385846114e9565b905061084b67c180313c628dd4f760c01b6143ac565b61085f67239fc0376b3fe17160c01b6143ac565b6000806000838152602001908152602001600020905061088967cf3f971f3ade17fb60c01b6143ac565b61089d67f5dc8da1d69489ae60c01b6143ac565b6108b167350c91afb5494bf260c01b6143ac565b600073ffffffffffffffffffffffffffffffffffffffff168160000160009054906101000a900473ffffffffffffffffffffffffffffffffffffffff1673ffffffffffffffffffffffffffffffffffffffff1603610944576040517f08c379a000000000000000000000000000000000000000000000000000000000815260040161093b906159f4565b60405180910390fd5b610958675b87aed036c4d5c360c01b6143ac565b61096c672874c6929898e55460c01b6143ac565b610980672d11d5128901b2b060c01b6143ac565b6000429050610999671023aa6254a7183360c01b6143ac565b6109ad6756d74f5a56ef38e960c01b6143ac565b60008260070154826109bf9190615a43565b90506109d56726304b0ff9b3376560c01b6143ac565b6109e9679bbd838bdae053ea60c01b6143ac565b60008360060154828560050154610a009190615a77565b610a0a9190615ae8565b9050610a206743b1e636548c06ad60c01b6143ac565b610a3467b7a48ec7face8f7b60c01b6143ac565b836004015481118015610a5c5750600115158460080160009054906101000a900460ff161515145b15610a9557610a756719ee84e3ede9809f60c01b6143ac565b610a8967589a1aded1809ac260c01b6143ac565b83600401549050610aaa565b610aa967fe94ff7e50ea315560c01b6143ac565b5b610abe67226dbe09952b38e560c01b6143ac565b610ad26761fe49c21f34a3d760c01b6143ac565b610ae66734bfcac67e6493ea60c01b6143ac565b60008111610b29576040517f08c379a0000000000000000000000000000000000000000000000000000000008152600401610b2090615b65565b60405180910390fd5b610b3d67709112f0872724e860c01b6143ac565b610b5167451b0122f7bb024960c01b6143ac565b610b6567c32d2917eb3e65b860c01b6143ac565b8360080160009054906101000a900460ff1615610bc457610b9067583e673efebcb08a60c01b6143ac565b610ba46772fea0ed376cfbe960c01b6143ac565b80846004016000828254610bb89190615a43565b92505081905550610bd9565b610bd867da6828336fdac71760c01b6143ac565b5b610bed67b8e5032d4a8925af60c01b6143ac565b80846003016000828254610c019190615b85565b92505081905550610c1c678337a5296a3f59b360c01b6143ac565b828460070181905550610c39670b41c625903925ec60c01b6143ac565b610c4d6706421b1a29cc516160c01b6143ac565b610c7a8787838b73ffffffffffffffffffffffffffffffffffffffff166143af909392919063ffffffff16565b610c8e674bb78839df6123c860c01b6143ac565b610ca267698982d19af09d1e60c01b6143ac565b60006004541115610d8557610cc167e5662f50e400879260c01b6143ac565b610cd567f448799611e2fbe760c01b6143ac565b610ce96775e440edd970027e60c01b6143ac565b60006103e860045483610cfc9190615a77565b610d069190615ae8565b9050610d1c677e7c51e332d814ac60c01b6143ac565b610d3067e73d3c95b6f3578060c01b6143ac565b610d7f88600360009054906101000a900473ffffffffffffffffffffffffffffffffffffffff16838c73ffffffffffffffffffffffffffffffffffffffff166143af909392919063ffffffff16565b50610d9a565b610d996797cdae05717a35c360c01b6143ac565b5b610dae67f67090adadbc10a460c01b6143ac565b610dc267a1cf1882e41f8d1f60c01b6143ac565b8573ffffffffffffffffffffffffffffffffffffffff168773ffffffffffffffffffffffffffffffffffffffff168973ffffffffffffffffffffffffffffffffffffffff167faf22af5691f06aea5afb81f1b3d51a6ecb1847e7ff25422fff392cbf52da232684604051610e369190614955565b60405180910390a45050505050505050565b6060610e5e67df1b8edf2c2d664760c01b6143ac565b610e72678818901e03cc4b5f60c01b6143ac565b610e86676e48eb1bfb63879a60c01b6143ac565b600260008373ffffffffffffffffffffffffffffffffffffffff1673ffffffffffffffffffffffffffffffffffffffff168152602001908152602001600020805480602002602001604051908101604052809291908181526020018280548015610f0f57602002820191906000526020600020905b815481526020019060010190808311610efb575b50505050509050919050565b600360009054906101000a900473ffffffffffffffffffffffffffffffffffffffff1681565b610f55675879750cb98f0b7260c01b6143ac565b610f69672e55e7fbebf2891a60c01b6143ac565b610f7d67af4bd1483729fa3460c01b6143ac565b610f9167b341f0255583380660c01b6143ac565b8383905086869050148015610fab57508181905084849050145b610fea576040517f08c379a0000000000000000000000000000000000000000000000000000000008152600401610fe190615c05565b60405180910390fd5b610ffe679bb02fc73755a5e660c01b6143ac565b61101267f2faf0aae710369560c01b6143ac565b6110266780e541a01f98c5ed60c01b6143ac565b60005b868690508110156114e05761104867e19581a1049d489060c01b6143ac565b61105c67a3bd68b526a3227360c01b6143ac565b61107067ba9720859ffcee4860c01b6143ac565b84848281811061108357611082615c25565b5b90506020020160208101906110989190614a8a565b73ffffffffffffffffffffffffffffffffffffffff163373ffffffffffffffffffffffffffffffffffffffff161480156110e257506110e167281ed369a631ac0f60c01b614474565b5b8061115b57508282828181106110fb576110fa615c25565b5b90506020020160208101906111109190614a8a565b73ffffffffffffffffffffffffffffffffffffffff163373ffffffffffffffffffffffffffffffffffffffff1614801561115a575061115967ece4f0be7d396a6160c01b614474565b5b5b61119a576040517f08c379a000000000000000000000000000000000000000000000000000000000815260040161119190615cc6565b60405180910390fd5b6111ae670d08e84f52e18d9960c01b6143ac565b6111c26746bdb3d28186777560c01b6143ac565b6111d6678d62cb9d91827b5560c01b6143ac565b60006112588686848181106111ee576111ed615c25565b5b90506020020160208101906112039190614a8a565b89898581811061121657611215615c25565b5b905060200201602081019061122b9190614a8a565b86868681811061123e5761123d615c25565b5b90506020020160208101906112539190614a8a565b6114e9565b905061126e67530d8bde76a3ffdf60c01b6143ac565b611282671fc7abea672c7ba860c01b6143ac565b600080600083815260200190815260200160002090506112ac670fb0f1c55c33418260c01b6143ac565b6112c0673dd819fcdaa8cd8860c01b6143ac565b6112d46777dfa06febe6e78160c01b6143ac565b600073ffffffffffffffffffffffffffffffffffffffff168160000160009054906101000a900473ffffffffffffffffffffffffffffffffffffffff1673ffffffffffffffffffffffffffffffffffffffff1603611367576040517f08c379a000000000000000000000000000000000000000000000000000000000815260040161135e906159f4565b60405180910390fd5b61137b6731af98135eaae11260c01b6143ac565b61138f67db64950349b0c64f60c01b6143ac565b600081600501819055506113ad67816c391d31d05c7e60c01b6143ac565b600081600401819055506113cb67a0e143a5e00562e760c01b6143ac565b6113df6760f8cff568eee11e60c01b6143ac565b8484848181106113f2576113f1615c25565b5b90506020020160208101906114079190614a8a565b73ffffffffffffffffffffffffffffffffffffffff168989858181106114305761142f615c25565b5b90506020020160208101906114459190614a8a565b73ffffffffffffffffffffffffffffffffffffffff1688888681811061146e5761146d615c25565b5b90506020020160208101906114839190614a8a565b73ffffffffffffffffffffffffffffffffffffffff167fcf8d64e381fa4c6934a7d60007173d92e3e32d0d11698bbb69f14e04fa2c4a8960006040516114c99190615d2b565b60405180910390a450508080600101915050611029565b50505050505050565b60006114ff67f00f335743d2609b60c01b6143ac565b611513676b10510ef067a58d60c01b6143ac565b61152767cd967c1f1bb5bcae60c01b6143ac565b83838360405160200161153c93929190615d8e565b6040516020818303038152906040528051906020012090509392505050565b61156f676d9052648e6b3e1260c01b6143ac565b61158367ff5037a402fff2ee60c01b6143ac565b61159767808c63e566100aed60c01b6143ac565b6000815167ffffffffffffffff8111156115b4576115b3614d27565b5b6040519080825280602002602001820160405280156115e25781602001602082028036833780820191505090505b5090506115f967352259eb67d7d85860c01b6143ac565b61160d67a578a034735e7c0d60c01b6143ac565b6000825167ffffffffffffffff81111561162a57611629614d27565b5b6040519080825280602002602001820160405280156116585781602001602082028036833780820191505090505b50905061166f673435ec2ad50262a660c01b6143ac565b611683676c88ca6c9ba210dd60c01b6143ac565b6000835167ffffffffffffffff8111156116a05761169f614d27565b5b6040519080825280602002602001820160405280156116ce5781602001602082028036833780820191505090505b5090506116e567ce421bf72267abe760c01b6143ac565b6116f9674d3c2949290391ee60c01b6143ac565b60005b84518110156118fd5761171967b33e89e7bf3dc75560c01b6143ac565b61172d673b8303f55ecb270b60c01b6143ac565b600080600087848151811061174557611744615c25565b5b60200260200101518152602001908152602001600020905061177167e5f41eab3e904a8560c01b6143ac565b8060020160009054906101000a900473ffffffffffffffffffffffffffffffffffffffff168583815181106117a9576117a8615c25565b5b602002602001019073ffffffffffffffffffffffffffffffffffffffff16908173ffffffffffffffffffffffffffffffffffffffff16815250506117f7675aa035c2ea023d2b60c01b6143ac565b8060000160009054906101000a900473ffffffffffffffffffffffffffffffffffffffff1684838151811061182f5761182e615c25565b5b602002602001019073ffffffffffffffffffffffffffffffffffffffff16908173ffffffffffffffffffffffffffffffffffffffff168152505061187d67b2361c8761031ce360c01b6143ac565b8060010160009054906101000a900473ffffffffffffffffffffffffffffffffffffffff168383815181106118b5576118b4615c25565b5b602002602001019073ffffffffffffffffffffffffffffffffffffffff16908173ffffffffffffffffffffffffffffffffffffffff16815250505080806001019150506116fc565b506119126741a8fe7202fee6be60c01b6143ac565b61192667edc4f17861dc6a3b60c01b6143ac565b611931838383611937565b50505050565b61194b67fe37e620f29ef52060c01b6143ac565b61195f678853b11b896ccfce60c01b6143ac565b61197367dedae225f172db8660c01b6143ac565b6119876789684d9f0a2c610660c01b6143ac565b81518351148015611999575080518251145b6119d8576040517f08c379a00000000000000000000000000000000000000000000000000000000081526004016119cf90615c05565b60405180910390fd5b6119ec67caab89780950445c60c01b6143ac565b611a0067de2006bff79ea10960c01b6143ac565b611a1467afac027082b4441260c01b6143ac565b60005b835181101561268f57611a346758aa654bf21be93660c01b6143ac565b611a48673a5b853a4ab775d060c01b6143ac565b6000848281518110611a5d57611a5c615c25565b5b60200260200101519050611a7b67c4d370cd811a304560c01b6143ac565b611a8f673d3a9aa26a89330b60c01b6143ac565b6000848381518110611aa457611aa3615c25565b5b60200260200101519050611ac26746ed249c357440de60c01b6143ac565b611ad667fc70b7b589fffa4260c01b6143ac565b6000848481518110611aeb57611aea615c25565b5b60200260200101519050611b0967aa90dc1371bd262c60c01b6143ac565b611b1d67d0b7964f2ceb68df60c01b6143ac565b6000611b2a8385846114e9565b9050611b4067b02f1143308fa4f260c01b6143ac565b611b5467647d495402c2ec8a60c01b6143ac565b60008060008381526020019081526020016000209050611b7e67bcf6abd75b79c13860c01b6143ac565b611b9267c18da59428c5639760c01b6143ac565b600073ffffffffffffffffffffffffffffffffffffffff168160000160009054906101000a900473ffffffffffffffffffffffffffffffffffffffff1673ffffffffffffffffffffffffffffffffffffffff1603611cbe57611bfe67cc2371307d5acfac60c01b6143ac565b611c1267931621f3caed6acf60c01b6143ac565b611c266728e3d4115d7efab460c01b6143ac565b8273ffffffffffffffffffffffffffffffffffffffff168473ffffffffffffffffffffffffffffffffffffffff168673ffffffffffffffffffffffffffffffffffffffff167f8f8aa0dc1312c50d248cb1d3452303f977e220adb4d4c1772bf13036c4347ffa604051611c98906159f4565b60405180910390a4611cb46721658f1f786529a660c01b6143ac565b5050505050612682565b611cd267b8ca80815a92694f60c01b6143ac565b611ce6676975cf36e2c82e7860c01b6143ac565b611cfa6744b0fce0eecc458c60c01b6143ac565b6000429050611d13675e243c34ac218b6c60c01b6143ac565b611d27675edd271b04dbebce60c01b6143ac565b6000826007015482611d399190615a43565b9050611d4f676236168a8d53bf9660c01b6143ac565b611d636753d13adc356f2b5360c01b6143ac565b60008360060154828560050154611d7a9190615a77565b611d849190615ae8565b9050611d9a67ca5d5b98907661f460c01b6143ac565b611dae67064ac98700a9081060c01b6143ac565b836004015481118015611dd65750600115158460080160009054906101000a900460ff161515145b15611e0f57611def6780451dc1d458461860c01b6143ac565b611e0367408a0416afcf388460c01b6143ac565b83600401549050611e24565b611e23677d18990adb18bc8660c01b6143ac565b5b611e3867f4975cd4263db0ae60c01b6143ac565b611e4c67deadde91b1a3e99460c01b6143ac565b60008103611f2b57611e6867a27895202809463b60c01b6143ac565b611e7c67b405089ad801f62660c01b6143ac565b611e9067615267b67e99708160c01b6143ac565b8573ffffffffffffffffffffffffffffffffffffffff168773ffffffffffffffffffffffffffffffffffffffff168973ffffffffffffffffffffffffffffffffffffffff167f8f8aa0dc1312c50d248cb1d3452303f977e220adb4d4c1772bf13036c4347ffa604051611f0290615b65565b60405180910390a4611f1e6775fe2ab7e0df6c6860c01b6143ac565b5050505050505050612682565b611f3f67541116f740696bb560c01b6143ac565b611f53675e7353c9e588a20260c01b6143ac565b611f67673925c26c0daca80260c01b6143ac565b6000611f7d67e76d41ea86ca1b9c60c01b6143ac565b611f91676d52e19c2545f6c660c01b6143ac565b60006004541115611fe657611fb067bd29eece22bd7ee360c01b6143ac565b611fc467d5ca37c8e65ac5a460c01b6143ac565b6103e860045483611fd59190615a77565b611fdf9190615ae8565b9050611ffb565b611ffa6743c3d4c90893d5d560c01b6143ac565b5b61200f6781d1a287e00ddd6c60c01b6143ac565b612023676ca819710ac448a360c01b6143ac565b600081836120319190615b85565b9050612047678c60fc798e6e331960c01b6143ac565b61205b6711227d27cf71807560c01b6143ac565b60008a73ffffffffffffffffffffffffffffffffffffffff166370a082318b6040518263ffffffff1660e01b81526004016120969190615dcb565b602060405180830381865afa1580156120b3573d6000803e3d6000fd5b505050506040513d601f19601f820116820180604052508101906120d79190615dfb565b90506120ed67ee7c811779298c1960c01b6143ac565b61210167c61b061b8c961c4460c01b6143ac565b818110156121e35761211d67b794bedcbda20f7960c01b6143ac565b612131670a341052dbcd313260c01b6143ac565b612145679922265e3bd3031760c01b6143ac565b8873ffffffffffffffffffffffffffffffffffffffff168a73ffffffffffffffffffffffffffffffffffffffff168c73ffffffffffffffffffffffffffffffffffffffff167f8f8aa0dc1312c50d248cb1d3452303f977e220adb4d4c1772bf13036c4347ffa6040516121b790615e9a565b60405180910390a46121d36701958add04ba40cf60c01b6143ac565b5050505050505050505050612682565b6121f767ea5085e46593c27960c01b6143ac565b61220b678afdecf2fc72707760c01b6143ac565b61221f67f95f927d9999f1c060c01b6143ac565b60008b73ffffffffffffffffffffffffffffffffffffffff1663dd62ed3e8c306040518363ffffffff1660e01b815260040161225c929190615eba565b602060405180830381865afa158015612279573d6000803e3d6000fd5b505050506040513d601f19601f8201168201806040525081019061229d9190615dfb565b90506122b3673fe725b9ef4abc8f60c01b6143ac565b6122c767a31e8a725dbd2c3f60c01b6143ac565b828110156123aa576122e3675d01ee0ac7eb91a260c01b6143ac565b6122f7676b557e8f01248f4c60c01b6143ac565b61230b676d3dbc716f63e18d60c01b6143ac565b8973ffffffffffffffffffffffffffffffffffffffff168b73ffffffffffffffffffffffffffffffffffffffff168d73ffffffffffffffffffffffffffffffffffffffff167f8f8aa0dc1312c50d248cb1d3452303f977e220adb4d4c1772bf13036c4347ffa60405161237d90615f55565b60405180910390a46123996717c1270414b2250060c01b6143ac565b505050505050505050505050612682565b6123be6781b096c469a5fe9c60c01b6143ac565b6123d267ccf32b73184cfaa260c01b6143ac565b6123e6671eac6812b7e1354b60c01b6143ac565b8760080160009054906101000a900460ff161561244557612411674d32f7d8389085e060c01b6143ac565b612425672c33c7629b153c5e60c01b6143ac565b848860040160008282546124399190615a43565b9250508190555061245a565b61245967c23a9843a0303af360c01b6143ac565b5b61246e6752041cc3a15729b760c01b6143ac565b848860030160008282546124829190615b85565b9250508190555061249d67a9518c072d8c45da60c01b6143ac565b8688600701819055506124ba679c0c2d577292504360c01b6143ac565b6124ce67bd6b0f4ff920074860c01b6143ac565b6124fb8b8b878f73ffffffffffffffffffffffffffffffffffffffff166143af909392919063ffffffff16565b61250f67c0a126cfbfa5203460c01b6143ac565b6125236791ac1ce39ffea76e60c01b6143ac565b60008411156125bc57612540675d3e9643ba84bd5d60c01b6143ac565b61255467f14ff85552947fb260c01b6143ac565b61256867bca48f4033cfc7cc60c01b6143ac565b6125b78b600360009054906101000a900473ffffffffffffffffffffffffffffffffffffffff16868f73ffffffffffffffffffffffffffffffffffffffff166143af909392919063ffffffff16565b6125d1565b6125d067e6ad28de00ad762260c01b6143ac565b5b6125e56710d4daa14a85b57e60c01b6143ac565b6125f967e8de26349184937c60c01b6143ac565b8973ffffffffffffffffffffffffffffffffffffffff168b73ffffffffffffffffffffffffffffffffffffffff168d73ffffffffffffffffffffffffffffffffffffffff167faf22af5691f06aea5afb81f1b3d51a6ecb1847e7ff25422fff392cbf52da23268860405161266d9190614955565b60405180910390a45050505050505050505050505b8080600101915050611a17565b50505050565b600260205281600052604060002081815481106126b157600080fd5b90600052602060002001600091509150505481565b60608060608060606126e26720012ed2d2820cae60c01b6143ac565b6126f667e2533b1e31b6826360c01b6143ac565b61270a67d7b6d1397ac3cd7e60c01b6143ac565b60008787905090506127266743ab8c685678f29660c01b6143ac565b8067ffffffffffffffff8111156127405761273f614d27565b5b60405190808252806020026020018201604052801561277957816020015b6127666147e7565b81526020019060019003908161275e5790505b5091506127906711ba895fe3787c8e60c01b6143ac565b8067ffffffffffffffff8111156127aa576127a9614d27565b5b6040519080825280602002602001820160405280156127d85781602001602082028036833780820191505090505b5095506127ef675af76ef409a28a2460c01b6143ac565b8067ffffffffffffffff81111561280957612808614d27565b5b6040519080825280602002602001820160405280156128375781602001602082028036833780820191505090505b50945061284e6739cb13098c85b6c860c01b6143ac565b8067ffffffffffffffff81111561286857612867614d27565b5b60405190808252806020026020018201604052801561289b57816020015b60608152602001906001900390816128865790505b5093506128b26753d75069a890eca760c01b6143ac565b8067ffffffffffffffff8111156128cc576128cb614d27565b5b6040519080825280602002602001820160405280156128ff57816020015b60608152602001906001900390816128ea5790505b50925061291667fc1c7d906b734d8160c01b6143ac565b61292a6787e16764e7b0eb3c60c01b6143ac565b60005b81811015612dd457612949673cf21d2b0d7fcd0760c01b6143ac565b6000808a8a8481811061295f5761295e615c25565b5b905060200201358152602001908152602001600020604051806101200160405290816000820160009054906101000a900473ffffffffffffffffffffffffffffffffffffffff1673ffffffffffffffffffffffffffffffffffffffff1673ffffffffffffffffffffffffffffffffffffffff1681526020016001820160009054906101000a900473ffffffffffffffffffffffffffffffffffffffff1673ffffffffffffffffffffffffffffffffffffffff1673ffffffffffffffffffffffffffffffffffffffff1681526020016002820160009054906101000a900473ffffffffffffffffffffffffffffffffffffffff1673ffffffffffffffffffffffffffffffffffffffff1673ffffffffffffffffffffffffffffffffffffffff16815260200160038201548152602001600482015481526020016005820154815260200160068201548152602001600782015481526020016008820160009054906101000a900460ff161515151581525050838281518110612ae257612ae1615c25565b5b6020026020010181905250612b0167224e4d228e94a8c560c01b6143ac565b612b66838281518110612b1757612b16615c25565b5b602002602001015160400151848381518110612b3657612b35615c25565b5b602002602001015160000151858481518110612b5557612b54615c25565b5b60200260200101516020015161043a565b878281518110612b7957612b78615c25565b5b602002602001018181525050612b996738607171715c45dc60c01b6143ac565b612bad670590af7057067f1260c01b6143ac565b6000838281518110612bc257612bc1615c25565b5b6020026020010151604001519050612be4677dac30f78982c3c260c01b6143ac565b8073ffffffffffffffffffffffffffffffffffffffff1663313ce5676040518163ffffffff1660e01b8152600401602060405180830381865afa158015612c2f573d6000803e3d6000fd5b505050506040513d601f19601f82011682018060405250810190612c539190615fa1565b878381518110612c6657612c65615c25565b5b602002602001019060ff16908160ff1681525050612c8e6704888f1ed107753a60c01b6143ac565b8073ffffffffffffffffffffffffffffffffffffffff166306fdde036040518163ffffffff1660e01b8152600401600060405180830381865afa158015612cd9573d6000803e3d6000fd5b505050506040513d6000823e3d601f19601f82011682018060405250810190612d029190616074565b868381518110612d1557612d14615c25565b5b6020026020010181905250612d34675efabc9f3eb6c31860c01b6143ac565b8073ffffffffffffffffffffffffffffffffffffffff166395d89b416040518163ffffffff1660e01b8152600401600060405180830381865afa158015612d7f573d6000803e3d6000fd5b505050506040513d6000823e3d601f19601f82011682018060405250810190612da89190616074565b858381518110612dbb57612dba615c25565b5b602002602001018190525050808060010191505061292d565b50612de967d6fd33c62b7854e060c01b6143ac565b612dfd672a0e4a9eb460c1bf60c01b6143ac565b509295509295909350565b612e1c67258911931487697960c01b6143ac565b612e30679b83302f116665ca60c01b6143ac565b612e4467dfc3e5b94a43fcd760c01b6143ac565b612e5867bd0c46feee331f7160c01b6143ac565b8383905086869050148015612e7257508181905084849050145b612eb1576040517f08c379a0000000000000000000000000000000000000000000000000000000008152600401612ea890615c05565b60405180910390fd5b612ec567b1ea09c10fced51460c01b6143ac565b612ed967ffd874b9913a64b960c01b6143ac565b612eed672fc8d050e64614ff60c01b6143ac565b60005b86869050811015612fb057612f0f678ea5a78215bb005d60c01b6143ac565b612f2367173a12303410b7e260c01b6143ac565b612fa3878783818110612f3957612f38615c25565b5b9050602002016020810190612f4e9190614a8a565b868684818110612f6157612f60615c25565b5b9050602002016020810190612f769190614a8a565b858585818110612f8957612f88615c25565b5b9050602002016020810190612f9e9190614a8a565b6107ec565b8080600101915050612ef0565b50505050505050565b6060612fcf67e8b08ff44f5baa5960c01b6143ac565b612fe3679651bb97b0954b9e60c01b6143ac565b612ff767bb94f246916a07eb60c01b6143ac565b61300b67c7bb4be1a6d2ebd560c01b6143ac565b848490508787905014801561302557508282905085859050145b613064576040517f08c379a000000000000000000000000000000000000000000000000000000000815260040161305b90615c05565b60405180910390fd5b613078678c67f2d35790c2ce60c01b6143ac565b61308c670b1ad907f55acf6460c01b6143ac565b6130a067cbd6c5005b1182ba60c01b6143ac565b60008787905090506130bc67fc031ffedacdee4f60c01b6143ac565b6130d06754f2c3790c021d8060c01b6143ac565b60008167ffffffffffffffff8111156130ec576130eb614d27565b5b60405190808252806020026020018201604052801561311a5781602001602082028036833780820191505090505b5090506131316762d6a339fc0f037360c01b6143ac565b613145670667fbdfdb45edb960c01b6143ac565b60005b8281101561321057613164672bc098345fa9b58260c01b6143ac565b6131e48a8a8381811061317a57613179615c25565b5b905060200201602081019061318f9190614a8a565b8989848181106131a2576131a1615c25565b5b90506020020160208101906131b79190614a8a565b8888858181106131ca576131c9615c25565b5b90506020020160208101906131df9190614a8a565b6114e9565b8282815181106131f7576131f6615c25565b5b6020026020010181815250508080600101915050613148565b50613225670d5a413aaf4d149b60c01b6143ac565b61323967bf012f9a17963b8e60c01b6143ac565b80925050509695505050505050565b61325c67f44c80e53228a78860c01b6143ac565b61327067ee17b5f7b66dd7ac60c01b6143ac565b61328467c96d07489e8700c160c01b6143ac565b613298676bdb406ea3bbcbae60c01b6143ac565b600360009054906101000a900473ffffffffffffffffffffffffffffffffffffffff1673ffffffffffffffffffffffffffffffffffffffff163373ffffffffffffffffffffffffffffffffffffffff1614613328576040517f08c379a000000000000000000000000000000000000000000000000000000000815260040161331f90616109565b60405180910390fd5b61333c678c203b9658cc4a5360c01b6143ac565b61335067eba0d2fd2dd5ebca60c01b6143ac565b603282111580613370575061336f67dabd3e6d8f2fbf6460c01b61447f565b5b801561338c575061338b67bd79e8d9c1d68ba160c01b614474565b5b613397576032613399565b815b6004819055506133b367a87bc3725e67a84c60c01b6143ac565b600073ffffffffffffffffffffffffffffffffffffffff168173ffffffffffffffffffffffffffffffffffffffff161415806133ff57506133fe672ab893d6b21b0fc560c01b61447f565b5b801561341b575061341a67ab17f57bf1b9f6b060c01b614474565b5b61344757600360009054906101000a900473ffffffffffffffffffffffffffffffffffffffff16613449565b805b600360006101000a81548173ffffffffffffffffffffffffffffffffffffffff021916908373ffffffffffffffffffffffffffffffffffffffff1602179055505050565b6134a167743bdb9782f482c260c01b6143ac565b6134b56711771c5815d564c060c01b6143ac565b6134c9672a005925939cb2d160c01b6143ac565b60006134d63387876114e9565b90506134ec67bc3ccbe8722ac18d60c01b6143ac565b61350067758322ffde628a2b60c01b6143ac565b600073ffffffffffffffffffffffffffffffffffffffff1660008083815260200190815260200160002060000160009054906101000a900473ffffffffffffffffffffffffffffffffffffffff1673ffffffffffffffffffffffffffffffffffffffff16036138745761357d67ca67657a4715f7cf60c01b6143ac565b613591673ff3a2b08f3515eb60c01b6143ac565b6040518061012001604052803373ffffffffffffffffffffffffffffffffffffffff1681526020018673ffffffffffffffffffffffffffffffffffffffff1681526020018773ffffffffffffffffffffffffffffffffffffffff1681526020016000815260200185815260200185815260200184815260200142815260200183151581525060008083815260200190815260200160002060008201518160000160006101000a81548173ffffffffffffffffffffffffffffffffffffffff021916908373ffffffffffffffffffffffffffffffffffffffff16021790555060208201518160010160006101000a81548173ffffffffffffffffffffffffffffffffffffffff021916908373ffffffffffffffffffffffffffffffffffffffff16021790555060408201518160020160006101000a81548173ffffffffffffffffffffffffffffffffffffffff021916908373ffffffffffffffffffffffffffffffffffffffff160217905550606082015181600301556080820151816004015560a0820151816005015560c0820151816006015560e082015181600701556101008201518160080160006101000a81548160ff02191690831515021790555090505061376767bd447a46a3d3351f60c01b6143ac565b61377b6716ec807e67b4c24560c01b6143ac565b600160003373ffffffffffffffffffffffffffffffffffffffff1673ffffffffffffffffffffffffffffffffffffffff1681526020019081526020016000208190806001815401808255809150506001900390600052602060002001600090919091909150556137f567d166648ccc0e5b5760c01b6143ac565b61380967021f6c56bcfc72f660c01b6143ac565b600260008673ffffffffffffffffffffffffffffffffffffffff1673ffffffffffffffffffffffffffffffffffffffff168152602001908152602001600020819080600181540180825580915050600190039060005260206000200160009091909190915055613982565b613888677f1973b53f45053060c01b6143ac565b61389c6710c945bc46978deb60c01b6143ac565b83600080838152602001908152602001600020600501819055506138ca678065513626e9e5cb60c01b6143ac565b83600080838152602001908152602001600020600401819055506138f867b89d6a349733c59060c01b6143ac565b826000808381526020019081526020016000206006018190555061392667cd786e3b4d7c0d4260c01b6143ac565b4260008083815260200190815260200160002060070181905550613954676122ba31915b4c5060c01b6143ac565b8160008083815260200190815260200160002060080160006101000a81548160ff0219169083151502179055505b613996672f3f374e81440b9d60c01b6143ac565b6139aa67cb3034e26a9a76d060c01b6143ac565b8473ffffffffffffffffffffffffffffffffffffffff168673ffffffffffffffffffffffffffffffffffffffff163373ffffffffffffffffffffffffffffffffffffffff167fcf8d64e381fa4c6934a7d60007173d92e3e32d0d11698bbb69f14e04fa2c4a8987604051613a1e9190614955565b60405180910390a4505050505050565b6060613a446741b12ed6e3ad686760c01b6143ac565b613a58670b1042073fe25ac960c01b6143ac565b613a6c67f5de148ce76a726260c01b6143ac565b600160008373ffffffffffffffffffffffffffffffffffffffff1673ffffffffffffffffffffffffffffffffffffffff168152602001908152602001600020805480602002602001604051908101604052809291908181526020018280548015613af557602002820191906000526020600020905b815481526020019060010190808311613ae1575b50505050509050919050565b613b1567bd2ac943d129a58e60c01b6143ac565b613b2967d6672720769d288860c01b6143ac565b613b3d676ed32a50caa2275e60c01b6143ac565b613b5167a20c2c7165e4130060c01b6143ac565b878790508a8a9050148015613b6b57508585905088889050145b8015613b7c57508383905086869050145b8015613b8d57508181905084849050145b613bcc576040517f08c379a0000000000000000000000000000000000000000000000000000000008152600401613bc390615c05565b60405180910390fd5b613be067a18cee8a336cf68960c01b6143ac565b613bf467a75fc2d17321e1e160c01b6143ac565b613c08672ac063527dc4d1a560c01b6143ac565b60005b8a8a9050811015613cff57613c2a6751431c369a278fe760c01b6143ac565b613c3e671130528d204001a660c01b6143ac565b613cf28b8b83818110613c5457613c53615c25565b5b9050602002016020810190613c699190614a8a565b8a8a84818110613c7c57613c7b615c25565b5b9050602002016020810190613c919190614a8a565b898985818110613ca457613ca3615c25565b5b90506020020135888886818110613cbe57613cbd615c25565b5b90506020020135878787818110613cd857613cd7615c25565b5b9050602002016020810190613ced9190616129565b61348d565b8080600101915050613c0b565b5050505050505050505050565b6060806060613d25679f59e3509668f67760c01b6143ac565b613d396768339c5043f6f80e60c01b6143ac565b613d4d67419e662030ac4be960c01b6143ac565b6000858590509050613d69675d814221c24247d260c01b6143ac565b8067ffffffffffffffff811115613d8357613d82614d27565b5b604051908082528060200260200182016040528015613db15781602001602082028036833780820191505090505b509350613dc8670fe60153f925799460c01b6143ac565b8067ffffffffffffffff811115613de257613de1614d27565b5b604051908082528060200260200182016040528015613e105781602001602082028036833780820191505090505b509250613e2767e7df349f4ac6269360c01b6143ac565b8067ffffffffffffffff811115613e4157613e40614d27565b5b604051908082528060200260200182016040528015613e6f5781602001602082028036833780820191505090505b509150613e866752ed99975b1564ee60c01b6143ac565b613e9a6793f75bdb1ce3e61560c01b6143ac565b60005b8181101561434457613eb967bf4001c8454f027360c01b6143ac565b613ecd67311fdf709ce2491c60c01b6143ac565b6000806000898985818110613ee557613ee4615c25565b5b9050602002013581526020019081526020016000209050613f10671b9d6118d8dc6be260c01b6143ac565b613f2467f42c1027842475ad60c01b6143ac565b613f3867d86c04f10127260760c01b6143ac565b600073ffffffffffffffffffffffffffffffffffffffff168160000160009054906101000a900473ffffffffffffffffffffffffffffffffffffffff1673ffffffffffffffffffffffffffffffffffffffff1603613fcb576040517f08c379a0000000000000000000000000000000000000000000000000000000008152600401613fc2906159f4565b60405180910390fd5b613fdf67063ba5c1164d998860c01b6143ac565b613ff367883983f28f774dcf60c01b6143ac565b614007672eaa03dfc671603760c01b6143ac565b60006140808260020160009054906101000a900473ffffffffffffffffffffffffffffffffffffffff168360000160009054906101000a900473ffffffffffffffffffffffffffffffffffffffff168460010160009054906101000a900473ffffffffffffffffffffffffffffffffffffffff1661043a565b9050614096675982d4300eb40b6660c01b6143ac565b8160020160009054906101000a900473ffffffffffffffffffffffffffffffffffffffff1673ffffffffffffffffffffffffffffffffffffffff166370a082318360000160009054906101000a900473ffffffffffffffffffffffffffffffffffffffff166040518263ffffffff1660e01b81526004016141179190615dcb565b602060405180830381865afa158015614134573d6000803e3d6000fd5b505050506040513d601f19601f820116820180604052508101906141589190615dfb565b86848151811061416b5761416a615c25565b5b60200260200101818152505061418b67815b5faded2fcbd260c01b6143ac565b8160020160009054906101000a900473ffffffffffffffffffffffffffffffffffffffff1673ffffffffffffffffffffffffffffffffffffffff1663dd62ed3e8360000160009054906101000a900473ffffffffffffffffffffffffffffffffffffffff16306040518363ffffffff1660e01b815260040161420e929190615eba565b602060405180830381865afa15801561422b573d6000803e3d6000fd5b505050506040513d601f19601f8201168201806040525081019061424f9190615dfb565b85848151811061426257614261615c25565b5b60200260200101818152505061428267cf6d8cd168084d3560c01b6143ac565b85838151811061429557614294615c25565b5b60200260200101516103e8600454836142ae9190615a77565b6142b89190615ae8565b826142c39190615b85565b1115801561431057508483815181106142df576142de615c25565b5b60200260200101516103e8600454836142f89190615a77565b6143029190615ae8565b8261430d9190615b85565b11155b87848151811061432357614322615c25565b5b60200260200101901515908115158152505050508080600101915050613e9d565b50614359674df1e43c7d71dfee60c01b6143ac565b61436d67f2ad05b5495cee8e60c01b6143ac565b509250925092565b6001602052816000526040600020818154811061439157600080fd5b90600052602060002001600091509150505481565b60045481565b50565b6143c3673f4c7bef050f206260c01b614486565b6143d76701538fa2649a02ae60c01b614486565b6143eb676a3092747752ec9560c01b614486565b61446e846323b872dd60e01b85858560405160240161440c93929190616156565b604051602081830303815290604052907bffffffffffffffffffffffffffffffffffffffffffffffffffffffff19166020820180517bffffffffffffffffffffffffffffffffffffffffffffffffffffffff8381831617835250505050614489565b50505050565b600060019050919050565b6000919050565b50565b61449d67b9c8f217a7fea4e960c01b614486565b6144b167f3509e3f362f0c8960c01b614486565b6144c5670545f9a781d11ae660c01b614486565b6000614527826040518060400160405280602081526020017f5361666545524332303a206c6f772d6c6576656c2063616c6c206661696c65648152508573ffffffffffffffffffffffffffffffffffffffff166146319092919063ffffffff16565b905061453d6701ae2c88598a447660c01b614486565b61455167c1ebd42418e1077760c01b614486565b6000815111156146175761456f6709903775791727cf60c01b614486565b61458367b93e2aa0548ce6a260c01b614486565b61459767f15b27f70cbfa2ac60c01b614486565b6145ab67c44d2a29810ffcf960c01b614486565b808060200190518101906145bf91906161a2565b6145fe576040517f08c379a00000000000000000000000000000000000000000000000000000000081526004016145f590616241565b60405180910390fd5b614612671c1aff9779d449f160c01b614486565b61462c565b61462b67cfa204b77d58bc2f60c01b614486565b5b505050565b60606146408484600085614649565b90509392505050565b60608247101561468e576040517f08c379a0000000000000000000000000000000000000000000000000000000008152600401614685906162d3565b60405180910390fd5b6146978561475d565b6146d6576040517f08c379a00000000000000000000000000000000000000000000000000000000081526004016146cd9061633f565b60405180910390fd5b6000808673ffffffffffffffffffffffffffffffffffffffff1685876040516146ff91906163a6565b60006040518083038185875af1925050503d806000811461473c576040519150601f19603f3d011682016040523d82523d6000602084013e614741565b606091505b5091509150614751828286614780565b92505050949350505050565b6000808273ffffffffffffffffffffffffffffffffffffffff163b119050919050565b60608315614790578290506147e0565b6000835111156147a35782518084602001fd5b816040517f08c379a00000000000000000000000000000000000000000000000000000000081526004016147d791906163f6565b60405180910390fd5b9392505050565b604051806101200160405280600073ffffffffffffffffffffffffffffffffffffffff168152602001600073ffffffffffffffffffffffffffffffffffffffff168152602001600073ffffffffffffffffffffffffffffffffffffffff16815260200160008152602001600081526020016000815260200160008152602001600081526020016000151581525090565b6000604051905090565b600080fd5b600080fd5b600073ffffffffffffffffffffffffffffffffffffffff82169050919050565b60006148b68261488b565b9050919050565b6148c6816148ab565b81146148d157600080fd5b50565b6000813590506148e3816148bd565b92915050565b60008060006060848603121561490257614901614881565b5b6000614910868287016148d4565b9350506020614921868287016148d4565b9250506040614932868287016148d4565b9150509250925092565b6000819050919050565b61494f8161493c565b82525050565b600060208201905061496a6000830184614946565b92915050565b6000819050919050565b61498381614970565b811461498e57600080fd5b50565b6000813590506149a08161497a565b92915050565b6000602082840312156149bc576149bb614881565b5b60006149ca84828501614991565b91505092915050565b6149dc816148ab565b82525050565b60008115159050919050565b6149f7816149e2565b82525050565b600061012082019050614a13600083018c6149d3565b614a20602083018b6149d3565b614a2d604083018a6149d3565b614a3a6060830189614946565b614a476080830188614946565b614a5460a0830187614946565b614a6160c0830186614946565b614a6e60e0830185614946565b614a7c6101008301846149ee565b9a9950505050505050505050565b600060208284031215614aa057614a9f614881565b5b6000614aae848285016148d4565b91505092915050565b600081519050919050565b600082825260208201905092915050565b6000819050602082019050919050565b614aec81614970565b82525050565b6000614afe8383614ae3565b60208301905092915050565b6000602082019050919050565b6000614b2282614ab7565b614b2c8185614ac2565b9350614b3783614ad3565b8060005b83811015614b68578151614b4f8882614af2565b9750614b5a83614b0a565b925050600181019050614b3b565b5085935050505092915050565b60006020820190508181036000830152614b8f8184614b17565b905092915050565b6000614ba28261488b565b9050919050565b614bb281614b97565b82525050565b6000602082019050614bcd6000830184614ba9565b92915050565b600080fd5b600080fd5b600080fd5b60008083601f840112614bf857614bf7614bd3565b5b8235905067ffffffffffffffff811115614c1557614c14614bd8565b5b602083019150836020820283011115614c3157614c30614bdd565b5b9250929050565b60008060008060008060608789031215614c5557614c54614881565b5b600087013567ffffffffffffffff811115614c7357614c72614886565b5b614c7f89828a01614be2565b9650965050602087013567ffffffffffffffff811115614ca257614ca1614886565b5b614cae89828a01614be2565b9450945050604087013567ffffffffffffffff811115614cd157614cd0614886565b5b614cdd89828a01614be2565b92509250509295509295509295565b614cf581614970565b82525050565b6000602082019050614d106000830184614cec565b92915050565b6000601f19601f8301169050919050565b7f4e487b7100000000000000000000000000000000000000000000000000000000600052604160045260246000fd5b614d5f82614d16565b810181811067ffffffffffffffff82111715614d7e57614d7d614d27565b5b80604052505050565b6000614d91614877565b9050614d9d8282614d56565b919050565b600067ffffffffffffffff821115614dbd57614dbc614d27565b5b602082029050602081019050919050565b6000614de1614ddc84614da2565b614d87565b90508083825260208201905060208402830185811115614e0457614e03614bdd565b5b835b81811015614e2d5780614e198882614991565b845260208401935050602081019050614e06565b5050509392505050565b600082601f830112614e4c57614e4b614bd3565b5b8135614e5c848260208601614dce565b91505092915050565b600060208284031215614e7b57614e7a614881565b5b600082013567ffffffffffffffff811115614e9957614e98614886565b5b614ea584828501614e37565b91505092915050565b600067ffffffffffffffff821115614ec957614ec8614d27565b5b602082029050602081019050919050565b6000614eed614ee884614eae565b614d87565b90508083825260208201905060208402830185811115614f1057614f0f614bdd565b5b835b81811015614f395780614f2588826148d4565b845260208401935050602081019050614f12565b5050509392505050565b600082601f830112614f5857614f57614bd3565b5b8135614f68848260208601614eda565b91505092915050565b600080600060608486031215614f8a57614f89614881565b5b600084013567ffffffffffffffff811115614fa857614fa7614886565b5b614fb486828701614f43565b935050602084013567ffffffffffffffff811115614fd557614fd4614886565b5b614fe186828701614f43565b925050604084013567ffffffffffffffff81111561500257615001614886565b5b61500e86828701614f43565b9150509250925092565b6150218161493c565b811461502c57600080fd5b50565b60008135905061503e81615018565b92915050565b6000806040838503121561505b5761505a614881565b5b6000615069858286016148d4565b925050602061507a8582860161502f565b9150509250929050565b60008083601f84011261509a57615099614bd3565b5b8235905067ffffffffffffffff8111156150b7576150b6614bd8565b5b6020830191508360208202830111156150d3576150d2614bdd565b5b9250929050565b600080602083850312156150f1576150f0614881565b5b600083013567ffffffffffffffff81111561510f5761510e614886565b5b61511b85828601615084565b92509250509250929050565b600081519050919050565b600082825260208201905092915050565b6000819050602082019050919050565b61515c8161493c565b82525050565b600061516e8383615153565b60208301905092915050565b6000602082019050919050565b600061519282615127565b61519c8185615132565b93506151a783615143565b8060005b838110156151d85781516151bf8882615162565b97506151ca8361517a565b9250506001810190506151ab565b5085935050505092915050565b600081519050919050565b600082825260208201905092915050565b6000819050602082019050919050565b600060ff82169050919050565b61522781615211565b82525050565b6000615239838361521e565b60208301905092915050565b6000602082019050919050565b600061525d826151e5565b61526781856151f0565b935061527283615201565b8060005b838110156152a357815161528a888261522d565b975061529583615245565b925050600181019050615276565b5085935050505092915050565b600081519050919050565b600082825260208201905092915050565b6000819050602082019050919050565b600081519050919050565b600082825260208201905092915050565b60005b838110156153165780820151818401526020810190506152fb565b60008484015250505050565b600061532d826152dc565b61533781856152e7565b93506153478185602086016152f8565b61535081614d16565b840191505092915050565b60006153678383615322565b905092915050565b6000602082019050919050565b6000615387826152b0565b61539181856152bb565b9350836020820285016153a3856152cc565b8060005b858110156153df57848403895281516153c0858261535b565b94506153cb8361536f565b925060208a019950506001810190506153a7565b50829750879550505050505092915050565b600081519050919050565b600082825260208201905092915050565b6000819050602082019050919050565b615426816148ab565b82525050565b615435816149e2565b82525050565b61012082016000820151615452600085018261541d565b506020820151615465602085018261541d565b506040820151615478604085018261541d565b50606082015161548b6060850182615153565b50608082015161549e6080850182615153565b5060a08201516154b160a0850182615153565b5060c08201516154c460c0850182615153565b5060e08201516154d760e0850182615153565b506101008201516154ec61010085018261542c565b50505050565b60006154fe838361543b565b6101208301905092915050565b6000602082019050919050565b6000615523826153f1565b61552d81856153fc565b93506155388361540d565b8060005b8381101561556957815161555088826154f2565b975061555b8361550b565b92505060018101905061553c565b5085935050505092915050565b600060a08201905081810360008301526155908188615187565b905081810360208301526155a48187615252565b905081810360408301526155b8818661537c565b905081810360608301526155cc818561537c565b905081810360808301526155e08184615518565b90509695505050505050565b6000806040838503121561560357615602614881565b5b60006156118582860161502f565b9250506020615622858286016148d4565b9150509250929050565b615635816149e2565b811461564057600080fd5b50565b6000813590506156528161562c565b92915050565b600080600080600060a0868803121561567457615673614881565b5b6000615682888289016148d4565b9550506020615693888289016148d4565b94505060406156a48882890161502f565b93505060606156b58882890161502f565b92505060806156c688828901615643565b9150509295509295909350565b60008083601f8401126156e9576156e8614bd3565b5b8235905067ffffffffffffffff81111561570657615705614bd8565b5b60208301915083602082028301111561572257615721614bdd565b5b9250929050565b60008083601f84011261573f5761573e614bd3565b5b8235905067ffffffffffffffff81111561575c5761575b614bd8565b5b60208301915083602082028301111561577857615777614bdd565b5b9250929050565b60008060008060008060008060008060a08b8d0312156157a2576157a1614881565b5b60008b013567ffffffffffffffff8111156157c0576157bf614886565b5b6157cc8d828e01614be2565b9a509a505060208b013567ffffffffffffffff8111156157ef576157ee614886565b5b6157fb8d828e01614be2565b985098505060408b013567ffffffffffffffff81111561581e5761581d614886565b5b61582a8d828e016156d3565b965096505060608b013567ffffffffffffffff81111561584d5761584c614886565b5b6158598d828e016156d3565b945094505060808b013567ffffffffffffffff81111561587c5761587b614886565b5b6158888d828e01615729565b92509250509295989b9194979a5092959850565b600081519050919050565b600082825260208201905092915050565b6000819050602082019050919050565b60006158d4838361542c565b60208301905092915050565b6000602082019050919050565b60006158f88261589c565b61590281856158a7565b935061590d836158b8565b8060005b8381101561593e57815161592588826158c8565b9750615930836158e0565b925050600181019050615911565b5085935050505092915050565b6000606082019050818103600083015261596581866158ed565b905081810360208301526159798185615187565b9050818103604083015261598d8184615187565b9050949350505050565b600082825260208201905092915050565b7f53747265616d20646f6573206e6f742065786973740000000000000000000000600082015250565b60006159de601583615997565b91506159e9826159a8565b602082019050919050565b60006020820190508181036000830152615a0d816159d1565b9050919050565b7f4e487b7100000000000000000000000000000000000000000000000000000000600052601160045260246000fd5b6000615a4e8261493c565b9150615a598361493c565b9250828203905081811115615a7157615a70615a14565b5b92915050565b6000615a828261493c565b9150615a8d8361493c565b9250828202615a9b8161493c565b91508282048414831517615ab257615ab1615a14565b5b5092915050565b7f4e487b7100000000000000000000000000000000000000000000000000000000600052601260045260246000fd5b6000615af38261493c565b9150615afe8361493c565b925082615b0e57615b0d615ab9565b5b828204905092915050565b7f4e6f20616c6c6f7761626c6520616d6f756e7420746f20776974686472617700600082015250565b6000615b4f601f83615997565b9150615b5a82615b19565b602082019050919050565b60006020820190508181036000830152615b7e81615b42565b9050919050565b6000615b908261493c565b9150615b9b8361493c565b9250828201905080821115615bb357615bb2615a14565b5b92915050565b7f496e70757420617272617973206c656e677468206d69736d6174636800000000600082015250565b6000615bef601c83615997565b9150615bfa82615bb9565b602082019050919050565b60006020820190508181036000830152615c1e81615be2565b9050919050565b7f4e487b7100000000000000000000000000000000000000000000000000000000600052603260045260246000fd5b7f596f7520617265206e6f74207468652073747265616d6572206f72207265636960008201527f7069656e74000000000000000000000000000000000000000000000000000000602082015250565b6000615cb0602583615997565b9150615cbb82615c54565b604082019050919050565b60006020820190508181036000830152615cdf81615ca3565b9050919050565b6000819050919050565b6000819050919050565b6000615d15615d10615d0b84615ce6565b615cf0565b61493c565b9050919050565b615d2581615cfa565b82525050565b6000602082019050615d406000830184615d1c565b92915050565b60008160601b9050919050565b6000615d5e82615d46565b9050919050565b6000615d7082615d53565b9050919050565b615d88615d83826148ab565b615d65565b82525050565b6000615d9a8286615d77565b601482019150615daa8285615d77565b601482019150615dba8284615d77565b601482019150819050949350505050565b6000602082019050615de060008301846149d3565b92915050565b600081519050615df581615018565b92915050565b600060208284031215615e1157615e10614881565b5b6000615e1f84828501615de6565b91505092915050565b7f496e73756666696369656e742062616c616e636520666f722073747265616d6960008201527f6e67000000000000000000000000000000000000000000000000000000000000602082015250565b6000615e84602283615997565b9150615e8f82615e28565b604082019050919050565b60006020820190508181036000830152615eb381615e77565b9050919050565b6000604082019050615ecf60008301856149d3565b615edc60208301846149d3565b9392505050565b7f496e73756666696369656e7420616c6c6f77616e636520666f7220737472656160008201527f6d696e6700000000000000000000000000000000000000000000000000000000602082015250565b6000615f3f602483615997565b9150615f4a82615ee3565b604082019050919050565b60006020820190508181036000830152615f6e81615f32565b9050919050565b615f7e81615211565b8114615f8957600080fd5b50565b600081519050615f9b81615f75565b92915050565b600060208284031215615fb757615fb6614881565b5b6000615fc584828501615f8c565b91505092915050565b600080fd5b600067ffffffffffffffff821115615fee57615fed614d27565b5b615ff782614d16565b9050602081019050919050565b600061601761601284615fd3565b614d87565b90508281526020810184848401111561603357616032615fce565b5b61603e8482856152f8565b509392505050565b600082601f83011261605b5761605a614bd3565b5b815161606b848260208601616004565b91505092915050565b60006020828403121561608a57616089614881565b5b600082015167ffffffffffffffff8111156160a8576160a7614886565b5b6160b484828501616046565b91505092915050565b7f596f7520617265206e6f7420746865206f776e65720000000000000000000000600082015250565b60006160f3601583615997565b91506160fe826160bd565b602082019050919050565b60006020820190508181036000830152616122816160e6565b9050919050565b60006020828403121561613f5761613e614881565b5b600061614d84828501615643565b91505092915050565b600060608201905061616b60008301866149d3565b61617860208301856149d3565b6161856040830184614946565b949350505050565b60008151905061619c8161562c565b92915050565b6000602082840312156161b8576161b7614881565b5b60006161c68482850161618d565b91505092915050565b7f5361666545524332303a204552433230206f7065726174696f6e20646964206e60008201527f6f74207375636365656400000000000000000000000000000000000000000000602082015250565b600061622b602a83615997565b9150616236826161cf565b604082019050919050565b6000602082019050818103600083015261625a8161621e565b9050919050565b7f416464726573733a20696e73756666696369656e742062616c616e636520666f60008201527f722063616c6c0000000000000000000000000000000000000000000000000000602082015250565b60006162bd602683615997565b91506162c882616261565b604082019050919050565b600060208201905081810360008301526162ec816162b0565b9050919050565b7f416464726573733a2063616c6c20746f206e6f6e2d636f6e7472616374000000600082015250565b6000616329601d83615997565b9150616334826162f3565b602082019050919050565b600060208201905081810360008301526163588161631c565b9050919050565b600081519050919050565b600081905092915050565b60006163808261635f565b61638a818561636a565b935061639a8185602086016152f8565b80840191505092915050565b60006163b28284616375565b915081905092915050565b60006163c8826152dc565b6163d28185615997565b93506163e28185602086016152f8565b6163eb81614d16565b840191505092915050565b6000602082019050818103600083015261641081846163bd565b90509291505056fea264697066735822122080a27dfdc410defd0fbf1f1b332d0f101646d323728c3b099665802645b7a84364736f6c63430008180033",
  "linkReferences": {},
  "deployedLinkReferences": {}
}