{
  "_format": "hh-sol-artifact-1",
  "contractName": "Stream",
  "sourceName": "contracts/Stream.sol",
  "abi": [
    {
      "inputs": [
        {
          "internalType": "address payable",
          "name": "feeAddrs",
          "type": "address"
        }
      ],
      "stateMutability": "nonpayable",
      "type": "constructor"
    },
    {
      "anonymous": false,
      "inputs": [
        {
          "indexed": true,
          "internalType": "address",
          "name": "streamer",
          "type": "address"
        },
        {
          "indexed": true,
          "internalType": "address",
          "name": "token",
          "type": "address"
        },
        {
          "indexed": true,
          "internalType": "address",
          "name": "recipient",
          "type": "address"
        },
        {
          "indexed": false,
          "internalType": "uint256",
          "name": "amount",
          "type": "uint256"
        }
      ],
      "name": "StreamAllowed",
      "type": "event"
    },
    {
      "anonymous": false,
      "inputs": [
        {
          "indexed": true,
          "internalType": "address",
          "name": "token",
          "type": "address"
        },
        {
          "indexed": true,
          "internalType": "address",
          "name": "streamer",
          "type": "address"
        },
        {
          "indexed": true,
          "internalType": "address",
          "name": "recipient",
          "type": "address"
        },
        {
          "indexed": false,
          "internalType": "string",
          "name": "message",
          "type": "string"
        }
      ],
      "name": "StreamFailure",
      "type": "event"
    },
    {
      "anonymous": false,
      "inputs": [
        {
          "indexed": true,
          "internalType": "address",
          "name": "token",
          "type": "address"
        },
        {
          "indexed": true,
          "internalType": "address",
          "name": "streamer",
          "type": "address"
        },
        {
          "indexed": true,
          "internalType": "address",
          "name": "recipient",
          "type": "address"
        },
        {
          "indexed": false,
          "internalType": "uint256",
          "name": "amount",
          "type": "uint256"
        }
      ],
      "name": "Streamed",
      "type": "event"
    },
    {
      "inputs": [
        {
          "internalType": "address",
          "name": "token",
          "type": "address"
        },
        {
          "internalType": "address",
          "name": "recipient",
          "type": "address"
        },
        {
          "internalType": "uint256",
          "name": "amount",
          "type": "uint256"
        },
        {
          "internalType": "uint256",
          "name": "window",
          "type": "uint256"
        },
        {
          "internalType": "bool",
          "name": "once",
          "type": "bool"
        }
      ],
      "name": "allowStream",
      "outputs": [],
      "stateMutability": "nonpayable",
      "type": "function"
    },
    {
      "inputs": [
        {
          "internalType": "address[]",
          "name": "tokens",
          "type": "address[]"
        },
        {
          "internalType": "address[]",
          "name": "recipients",
          "type": "address[]"
        },
        {
          "internalType": "uint256[]",
          "name": "amounts",
          "type": "uint256[]"
        },
        {
          "internalType": "uint256[]",
          "name": "windows",
          "type": "uint256[]"
        },
        {
          "internalType": "bool[]",
          "name": "onces",
          "type": "bool[]"
        }
      ],
      "name": "batchAllowStream",
      "outputs": [],
      "stateMutability": "nonpayable",
      "type": "function"
    },
    {
      "inputs": [
        {
          "internalType": "address[]",
          "name": "streamers",
          "type": "address[]"
        },
        {
          "internalType": "address[]",
          "name": "tokens",
          "type": "address[]"
        },
        {
          "internalType": "address[]",
          "name": "recipients",
          "type": "address[]"
        }
      ],
      "name": "batchComputeHash",
      "outputs": [
        {
          "internalType": "bytes32[]",
          "name": "",
          "type": "bytes32[]"
        }
      ],
      "stateMutability": "pure",
      "type": "function"
    },
    {
      "inputs": [
        {
          "internalType": "address[]",
          "name": "tokens",
          "type": "address[]"
        },
        {
          "internalType": "address[]",
          "name": "streamers",
          "type": "address[]"
        },
        {
          "internalType": "address[]",
          "name": "recipients",
          "type": "address[]"
        }
      ],
      "name": "batchStream",
      "outputs": [],
      "stateMutability": "nonpayable",
      "type": "function"
    },
    {
      "inputs": [
        {
          "internalType": "address[]",
          "name": "tokens",
          "type": "address[]"
        },
        {
          "internalType": "address[]",
          "name": "streamers",
          "type": "address[]"
        },
        {
          "internalType": "address[]",
          "name": "recipients",
          "type": "address[]"
        }
      ],
      "name": "batchStreamAvailable",
      "outputs": [],
      "stateMutability": "nonpayable",
      "type": "function"
    },
    {
      "inputs": [
        {
          "internalType": "bytes32[]",
          "name": "hashes",
          "type": "bytes32[]"
        }
      ],
      "name": "batchStreamAvailableAllowances",
      "outputs": [],
      "stateMutability": "nonpayable",
      "type": "function"
    },
    {
      "inputs": [
        {
          "internalType": "address[]",
          "name": "tokens",
          "type": "address[]"
        },
        {
          "internalType": "address[]",
          "name": "streamers",
          "type": "address[]"
        },
        {
          "internalType": "address[]",
          "name": "recipients",
          "type": "address[]"
        }
      ],
      "name": "cancelStreams",
      "outputs": [],
      "stateMutability": "nonpayable",
      "type": "function"
    },
    {
      "inputs": [
        {
          "internalType": "address",
          "name": "streamer",
          "type": "address"
        },
        {
          "internalType": "address",
          "name": "token",
          "type": "address"
        },
        {
          "internalType": "address",
          "name": "recipient",
          "type": "address"
        }
      ],
      "name": "computeHash",
      "outputs": [
        {
          "internalType": "bytes32",
          "name": "",
          "type": "bytes32"
        }
      ],
      "stateMutability": "pure",
      "type": "function"
    },
    {
      "inputs": [],
      "name": "fee",
      "outputs": [
        {
          "internalType": "uint256",
          "name": "",
          "type": "uint256"
        }
      ],
      "stateMutability": "view",
      "type": "function"
    },
    {
      "inputs": [],
      "name": "feeAddress",
      "outputs": [
        {
          "internalType": "address payable",
          "name": "",
          "type": "address"
        }
      ],
      "stateMutability": "view",
      "type": "function"
    },
    {
      "inputs": [
        {
          "internalType": "address",
          "name": "token",
          "type": "address"
        },
        {
          "internalType": "address",
          "name": "streamer",
          "type": "address"
        },
        {
          "internalType": "address",
          "name": "recipient",
          "type": "address"
        }
      ],
      "name": "getAvailable",
      "outputs": [
        {
          "internalType": "uint256",
          "name": "",
          "type": "uint256"
        }
      ],
      "stateMutability": "view",
      "type": "function"
    },
    {
      "inputs": [
        {
          "internalType": "bytes32[]",
          "name": "hashes",
          "type": "bytes32[]"
        }
      ],
      "name": "getStreamDetails",
      "outputs": [
        {
          "internalType": "uint256[]",
          "name": "availableAmounts",
          "type": "uint256[]"
        },
        {
          "internalType": "uint8[]",
          "name": "decimals",
          "type": "uint8[]"
        },
        {
          "internalType": "string[]",
          "name": "tokenNames",
          "type": "string[]"
        },
        {
          "internalType": "string[]",
          "name": "tokenSymbols",
          "type": "string[]"
        },
        {
          "components": [
            {
              "internalType": "address",
              "name": "streamer",
              "type": "address"
            },
            {
              "internalType": "address",
              "name": "recipient",
              "type": "address"
            },
            {
              "internalType": "address",
              "name": "token",
              "type": "address"
            },
            {
              "internalType": "uint256",
              "name": "totalStreamed",
              "type": "uint256"
            },
            {
              "internalType": "uint256",
              "name": "outstanding",
              "type": "uint256"
            },
            {
              "internalType": "uint256",
              "name": "allowable",
              "type": "uint256"
            },
            {
              "internalType": "uint256",
              "name": "window",
              "type": "uint256"
            },
            {
              "internalType": "uint256",
              "name": "timestamp",
              "type": "uint256"
            },
            {
              "internalType": "bool",
              "name": "once",
              "type": "bool"
            }
          ],
          "internalType": "struct Stream.StreamDetails[]",
          "name": "details",
          "type": "tuple[]"
        }
      ],
      "stateMutability": "view",
      "type": "function"
    },
    {
      "inputs": [
        {
          "internalType": "bytes32[]",
          "name": "hashes",
          "type": "bytes32[]"
        }
      ],
      "name": "getStreamable",
      "outputs": [
        {
          "internalType": "bool[]",
          "name": "canStream",
          "type": "bool[]"
        },
        {
          "internalType": "uint256[]",
          "name": "balances",
          "type": "uint256[]"
        },
        {
          "internalType": "uint256[]",
          "name": "allowances",
          "type": "uint256[]"
        }
      ],
      "stateMutability": "view",
      "type": "function"
    },
    {
      "inputs": [
        {
          "internalType": "uint256",
          "name": "_fee",
          "type": "uint256"
        },
        {
          "internalType": "address",
          "name": "newFeeAddress",
          "type": "address"
        }
      ],
      "name": "setFee",
      "outputs": [],
      "stateMutability": "nonpayable",
      "type": "function"
    },
    {
      "inputs": [
        {
          "internalType": "address",
          "name": "token",
          "type": "address"
        },
        {
          "internalType": "address",
          "name": "streamer",
          "type": "address"
        },
        {
          "internalType": "address",
          "name": "recipient",
          "type": "address"
        }
      ],
      "name": "stream",
      "outputs": [],
      "stateMutability": "nonpayable",
      "type": "function"
    },
    {
      "inputs": [
        {
          "internalType": "bytes32",
          "name": "",
          "type": "bytes32"
        }
      ],
      "name": "streamDetails",
      "outputs": [
        {
          "internalType": "address",
          "name": "streamer",
          "type": "address"
        },
        {
          "internalType": "address",
          "name": "recipient",
          "type": "address"
        },
        {
          "internalType": "address",
          "name": "token",
          "type": "address"
        },
        {
          "internalType": "uint256",
          "name": "totalStreamed",
          "type": "uint256"
        },
        {
          "internalType": "uint256",
          "name": "outstanding",
          "type": "uint256"
        },
        {
          "internalType": "uint256",
          "name": "allowable",
          "type": "uint256"
        },
        {
          "internalType": "uint256",
          "name": "window",
          "type": "uint256"
        },
        {
          "internalType": "uint256",
          "name": "timestamp",
          "type": "uint256"
        },
        {
          "internalType": "bool",
          "name": "once",
          "type": "bool"
        }
      ],
      "stateMutability": "view",
      "type": "function"
    },
    {
      "inputs": [
        {
          "internalType": "address",
          "name": "",
          "type": "address"
        },
        {
          "internalType": "uint256",
          "name": "",
          "type": "uint256"
        }
      ],
      "name": "streamDetailsByRecipient",
      "outputs": [
        {
          "internalType": "bytes32",
          "name": "",
          "type": "bytes32"
        }
      ],
      "stateMutability": "view",
      "type": "function"
    },
    {
      "inputs": [
        {
          "internalType": "address",
          "name": "",
          "type": "address"
        },
        {
          "internalType": "uint256",
          "name": "",
          "type": "uint256"
        }
      ],
      "name": "streamDetailsByStreamer",
      "outputs": [
        {
          "internalType": "bytes32",
          "name": "",
          "type": "bytes32"
        }
      ],
      "stateMutability": "view",
      "type": "function"
    },
    {
      "inputs": [
        {
          "internalType": "address",
          "name": "recipient",
          "type": "address"
        }
      ],
      "name": "viewRecipientAllowances",
      "outputs": [
        {
          "internalType": "bytes32[]",
          "name": "",
          "type": "bytes32[]"
        }
      ],
      "stateMutability": "view",
      "type": "function"
    },
    {
      "inputs": [
        {
          "internalType": "address",
          "name": "recipient",
          "type": "address"
        },
        {
          "internalType": "uint256[]",
          "name": "indexes",
          "type": "uint256[]"
        }
      ],
      "name": "viewRecipientAllowances",
      "outputs": [
        {
          "internalType": "bytes32[]",
          "name": "",
          "type": "bytes32[]"
        }
      ],
      "stateMutability": "view",
      "type": "function"
    },
    {
      "inputs": [
        {
          "internalType": "address",
          "name": "recipient",
          "type": "address"
        }
      ],
      "name": "viewRecipientAllowancesCount",
      "outputs": [
        {
          "internalType": "uint256",
          "name": "",
          "type": "uint256"
        }
      ],
      "stateMutability": "view",
      "type": "function"
    },
    {
      "inputs": [
        {
          "internalType": "address",
          "name": "streamer",
          "type": "address"
        },
        {
          "internalType": "uint256[]",
          "name": "indexes",
          "type": "uint256[]"
        }
      ],
      "name": "viewStreamerAllowances",
      "outputs": [
        {
          "internalType": "bytes32[]",
          "name": "",
          "type": "bytes32[]"
        }
      ],
      "stateMutability": "view",
      "type": "function"
    },
    {
      "inputs": [
        {
          "internalType": "address",
          "name": "streamer",
          "type": "address"
        }
      ],
      "name": "viewStreamerAllowances",
      "outputs": [
        {
          "internalType": "bytes32[]",
          "name": "",
          "type": "bytes32[]"
        }
      ],
      "stateMutability": "view",
      "type": "function"
    },
    {
      "inputs": [
        {
          "internalType": "address",
          "name": "streamer",
          "type": "address"
        }
      ],
      "name": "viewStreamerAllowancesCount",
      "outputs": [
        {
          "internalType": "uint256",
          "name": "",
          "type": "uint256"
        }
      ],
      "stateMutability": "view",
      "type": "function"
    }
  ],
  "bytecode": "0x60806040523480156200001157600080fd5b50604051620051f8380380620051f88339818101604052810190620000379190620000e9565b80600360006101000a81548173ffffffffffffffffffffffffffffffffffffffff021916908373ffffffffffffffffffffffffffffffffffffffff160217905550506200011b565b600080fd5b600073ffffffffffffffffffffffffffffffffffffffff82169050919050565b6000620000b18262000084565b9050919050565b620000c381620000a4565b8114620000cf57600080fd5b50565b600081519050620000e381620000b8565b92915050565b6000602082840312156200010257620001016200007f565b5b60006200011284828501620000d2565b91505092915050565b6150cd806200012b6000396000f3fe608060405234801561001057600080fd5b50600436106101575760003560e01c8063a01ad1b8116100c3578063c098c4b01161007c578063c098c4b01461042a578063cb5e174c1461045a578063d4628ec614610476578063db0b5b24146104a8578063ddca3f43146104d8578063ebf6469a146104f657610157565b8063a01ad1b814610342578063a136572d14610372578063b3bfd06f146103a6578063b416af74146103c2578063b4f2e8b8146103f2578063b8b396911461040e57610157565b80635f261713116101155780635f2617131461025e5780636646e3a71461027a578063743a29bd146102aa5780638b614d09146102da578063993080c2146102f65780639cc0d08f1461031257610157565b80624790c11461015c578063077945821461018c57806318fd373e146101bc57806338cddec6146101f45780634010d972146102105780634127535814610240575b600080fd5b61017660048036038101906101719190613508565b610526565b6040516101839190613574565b60405180910390f35b6101a660048036038101906101a191906135f4565b6105df565b6040516101b3919061371c565b60405180910390f35b6101d660048036038101906101d1919061376a565b6106ec565b6040516101eb999897969594939291906137c1565b60405180910390f35b61020e60048036038101906102099190613508565b6107a7565b005b61022a6004803603810190610225919061384e565b610a98565b604051610237919061371c565b60405180910390f35b610248610b2f565b604051610255919061389c565b60405180910390f35b6102786004803603810190610273919061390d565b610b55565b005b610294600480360381019061028f919061384e565b610ef9565b6040516102a19190613574565b60405180910390f35b6102c460048036038101906102bf9190613508565b610f45565b6040516102d191906139d0565b60405180910390f35b6102f460048036038101906102ef9190613b3a565b610f7b565b005b610310600480360381019061030b9190613c46565b611217565b005b61032c60048036038101906103279190613d19565b6118a8565b60405161033991906139d0565b60405180910390f35b61035c600480360381019061035791906135f4565b6118d9565b604051610369919061371c565b60405180910390f35b61038c60048036038101906103879190613daf565b6119e6565b60405161039d95949392919061424b565b60405180910390f35b6103c060048036038101906103bb919061390d565b6121e7565b005b6103dc60048036038101906103d7919061390d565b6122e4565b6040516103e9919061371c565b60405180910390f35b61040c600480360381019061040791906142c1565b61245b565b005b6104286004803603810190610423919061432d565b6125a5565b005b610444600480360381019061043f919061384e565b6129ca565b604051610451919061371c565b60405180910390f35b610474600480360381019061046f91906143fe565b612a61565b005b610490600480360381019061048b9190613daf565b612bb8565b60405161049f939291906145ca565b60405180910390f35b6104c260048036038101906104bd9190613d19565b61307d565b6040516104cf91906139d0565b60405180910390f35b6104e06130ae565b6040516104ed9190613574565b60405180910390f35b610510600480360381019061050b919061384e565b6130b4565b60405161051d9190613574565b60405180910390f35b600080610534848685610f45565b905060008060008381526020019081526020016000209050600042905060008260070154826105639190614645565b9050600080846006015411610579576000610599565b836006015482856005015461058e9190614679565b61059891906146ea565b5b90508360040154811180156105c35750600115158460080160009054906101000a900460ff161515145b156105d057836004015490505b80955050505050509392505050565b606060008383905067ffffffffffffffff811115610600576105ff6139fc565b5b60405190808252806020026020018201604052801561062e5781602001602082028036833780820191505090505b50905060005b848490508110156106e057600160008773ffffffffffffffffffffffffffffffffffffffff1673ffffffffffffffffffffffffffffffffffffffff1681526020019081526020016000208585838181106106915761069061471b565b5b90506020020135815481106106a9576106a861471b565b5b90600052602060002001548282815181106106c7576106c661471b565b5b6020026020010181815250508080600101915050610634565b50809150509392505050565b60006020528060005260406000206000915090508060000160009054906101000a900473ffffffffffffffffffffffffffffffffffffffff16908060010160009054906101000a900473ffffffffffffffffffffffffffffffffffffffff16908060020160009054906101000a900473ffffffffffffffffffffffffffffffffffffffff16908060030154908060040154908060050154908060060154908060070154908060080160009054906101000a900460ff16905089565b60006107b4838584610f45565b905060008060008381526020019081526020016000209050600073ffffffffffffffffffffffffffffffffffffffff168160000160009054906101000a900473ffffffffffffffffffffffffffffffffffffffff1673ffffffffffffffffffffffffffffffffffffffff160361085f576040517f08c379a0000000000000000000000000000000000000000000000000000000008152600401610856906147a7565b60405180910390fd5b600042905060008260070154826108769190614645565b90506000836006015482856005015461088f9190614679565b61089991906146ea565b90508360040154811180156108c35750600115158460080160009054906101000a900460ff161515145b156108d057836004015490505b60008111610913576040517f08c379a000000000000000000000000000000000000000000000000000000000815260040161090a90614813565b60405180910390fd5b8360080160009054906101000a900460ff1615610946578084600401600082825461093e9190614645565b925050819055505b8084600301600082825461095a9190614833565b925050819055508284600701819055506109978787838b73ffffffffffffffffffffffffffffffffffffffff16613100909392919063ffffffff16565b60006004541115610a125760006103e8600454836109b59190614679565b6109bf91906146ea565b9050610a1088600360009054906101000a900473ffffffffffffffffffffffffffffffffffffffff16838c73ffffffffffffffffffffffffffffffffffffffff16613100909392919063ffffffff16565b505b8573ffffffffffffffffffffffffffffffffffffffff168773ffffffffffffffffffffffffffffffffffffffff168973ffffffffffffffffffffffffffffffffffffffff167faf22af5691f06aea5afb81f1b3d51a6ecb1847e7ff25422fff392cbf52da232684604051610a869190613574565b60405180910390a45050505050505050565b6060600260008373ffffffffffffffffffffffffffffffffffffffff1673ffffffffffffffffffffffffffffffffffffffff168152602001908152602001600020805480602002602001604051908101604052809291908181526020018280548015610b2357602002820191906000526020600020905b815481526020019060010190808311610b0f575b50505050509050919050565b600360009054906101000a900473ffffffffffffffffffffffffffffffffffffffff1681565b8383905086869050148015610b6f57508181905084849050145b610bae576040517f08c379a0000000000000000000000000000000000000000000000000000000008152600401610ba5906148b3565b60405180910390fd5b60005b86869050811015610ef057848482818110610bcf57610bce61471b565b5b9050602002016020810190610be4919061384e565b73ffffffffffffffffffffffffffffffffffffffff163373ffffffffffffffffffffffffffffffffffffffff161480610c6f5750828282818110610c2b57610c2a61471b565b5b9050602002016020810190610c40919061384e565b73ffffffffffffffffffffffffffffffffffffffff163373ffffffffffffffffffffffffffffffffffffffff16145b610cae576040517f08c379a0000000000000000000000000000000000000000000000000000000008152600401610ca590614945565b60405180910390fd5b6000610d30868684818110610cc657610cc561471b565b5b9050602002016020810190610cdb919061384e565b898985818110610cee57610ced61471b565b5b9050602002016020810190610d03919061384e565b868686818110610d1657610d1561471b565b5b9050602002016020810190610d2b919061384e565b610f45565b905060008060008381526020019081526020016000209050600073ffffffffffffffffffffffffffffffffffffffff168160000160009054906101000a900473ffffffffffffffffffffffffffffffffffffffff1673ffffffffffffffffffffffffffffffffffffffff1603610ddb576040517f08c379a0000000000000000000000000000000000000000000000000000000008152600401610dd2906147a7565b60405180910390fd5b6000816005018190555060008160040181905550848484818110610e0257610e0161471b565b5b9050602002016020810190610e17919061384e565b73ffffffffffffffffffffffffffffffffffffffff16898985818110610e4057610e3f61471b565b5b9050602002016020810190610e55919061384e565b73ffffffffffffffffffffffffffffffffffffffff16888886818110610e7e57610e7d61471b565b5b9050602002016020810190610e93919061384e565b73ffffffffffffffffffffffffffffffffffffffff167fcf8d64e381fa4c6934a7d60007173d92e3e32d0d11698bbb69f14e04fa2c4a896000604051610ed991906149aa565b60405180910390a450508080600101915050610bb1565b50505050505050565b6000600260008373ffffffffffffffffffffffffffffffffffffffff1673ffffffffffffffffffffffffffffffffffffffff168152602001908152602001600020805490509050919050565b6000838383604051602001610f5c93929190614a0d565b6040516020818303038152906040528051906020012090509392505050565b6000815167ffffffffffffffff811115610f9857610f976139fc565b5b604051908082528060200260200182016040528015610fc65781602001602082028036833780820191505090505b5090506000825167ffffffffffffffff811115610fe657610fe56139fc565b5b6040519080825280602002602001820160405280156110145781602001602082028036833780820191505090505b5090506000835167ffffffffffffffff811115611034576110336139fc565b5b6040519080825280602002602001820160405280156110625781602001602082028036833780820191505090505b50905060005b84518110156112055760008060008784815181106110895761108861471b565b5b6020026020010151815260200190815260200160002090508060020160009054906101000a900473ffffffffffffffffffffffffffffffffffffffff168583815181106110d9576110d861471b565b5b602002602001019073ffffffffffffffffffffffffffffffffffffffff16908173ffffffffffffffffffffffffffffffffffffffff16815250508060000160009054906101000a900473ffffffffffffffffffffffffffffffffffffffff1684838151811061114b5761114a61471b565b5b602002602001019073ffffffffffffffffffffffffffffffffffffffff16908173ffffffffffffffffffffffffffffffffffffffff16815250508060010160009054906101000a900473ffffffffffffffffffffffffffffffffffffffff168383815181106111bd576111bc61471b565b5b602002602001019073ffffffffffffffffffffffffffffffffffffffff16908173ffffffffffffffffffffffffffffffffffffffff1681525050508080600101915050611068565b50611211838383611217565b50505050565b81518351148015611229575080518251145b611268576040517f08c379a000000000000000000000000000000000000000000000000000000000815260040161125f906148b3565b60405180910390fd5b60005b83518110156118a25760008482815181106112895761128861471b565b5b6020026020010151905060008483815181106112a8576112a761471b565b5b6020026020010151905060008484815181106112c7576112c661471b565b5b6020026020010151905060006112de838584610f45565b905060008060008381526020019081526020016000209050600073ffffffffffffffffffffffffffffffffffffffff168160000160009054906101000a900473ffffffffffffffffffffffffffffffffffffffff1673ffffffffffffffffffffffffffffffffffffffff16036113d2578273ffffffffffffffffffffffffffffffffffffffff168473ffffffffffffffffffffffffffffffffffffffff168673ffffffffffffffffffffffffffffffffffffffff167f8f8aa0dc1312c50d248cb1d3452303f977e220adb4d4c1772bf13036c4347ffa6040516113c0906147a7565b60405180910390a45050505050611895565b600042905060008260070154826113e99190614645565b9050600083600601548285600501546114029190614679565b61140c91906146ea565b90508360040154811180156114365750600115158460080160009054906101000a900460ff161515145b1561144357836004015490505b600081036114d2578573ffffffffffffffffffffffffffffffffffffffff168773ffffffffffffffffffffffffffffffffffffffff168973ffffffffffffffffffffffffffffffffffffffff167f8f8aa0dc1312c50d248cb1d3452303f977e220adb4d4c1772bf13036c4347ffa6040516114bd90614813565b60405180910390a45050505050505050611895565b60008060045411156114fc576103e8600454836114ef9190614679565b6114f991906146ea565b90505b6000818361150a9190614833565b905060008a73ffffffffffffffffffffffffffffffffffffffff166370a082318b6040518263ffffffff1660e01b81526004016115479190614a4a565b602060405180830381865afa158015611564573d6000803e3d6000fd5b505050506040513d601f19601f820116820180604052508101906115889190614a7a565b90508181101561161c578873ffffffffffffffffffffffffffffffffffffffff168a73ffffffffffffffffffffffffffffffffffffffff168c73ffffffffffffffffffffffffffffffffffffffff167f8f8aa0dc1312c50d248cb1d3452303f977e220adb4d4c1772bf13036c4347ffa60405161160490614b19565b60405180910390a45050505050505050505050611895565b60008b73ffffffffffffffffffffffffffffffffffffffff1663dd62ed3e8c306040518363ffffffff1660e01b8152600401611659929190614b39565b602060405180830381865afa158015611676573d6000803e3d6000fd5b505050506040513d601f19601f8201168201806040525081019061169a9190614a7a565b90508281101561172f578973ffffffffffffffffffffffffffffffffffffffff168b73ffffffffffffffffffffffffffffffffffffffff168d73ffffffffffffffffffffffffffffffffffffffff167f8f8aa0dc1312c50d248cb1d3452303f977e220adb4d4c1772bf13036c4347ffa60405161171690614bd4565b60405180910390a4505050505050505050505050611895565b8760080160009054906101000a900460ff1615611762578488600401600082825461175a9190614645565b925050819055505b848860030160008282546117769190614833565b925050819055508688600701819055506117b38b8b878f73ffffffffffffffffffffffffffffffffffffffff16613100909392919063ffffffff16565b600084111561180c5761180b8b600360009054906101000a900473ffffffffffffffffffffffffffffffffffffffff16868f73ffffffffffffffffffffffffffffffffffffffff16613100909392919063ffffffff16565b5b8973ffffffffffffffffffffffffffffffffffffffff168b73ffffffffffffffffffffffffffffffffffffffff168d73ffffffffffffffffffffffffffffffffffffffff167faf22af5691f06aea5afb81f1b3d51a6ecb1847e7ff25422fff392cbf52da2326886040516118809190613574565b60405180910390a45050505050505050505050505b808060010191505061126b565b50505050565b600260205281600052604060002081815481106118c457600080fd5b90600052602060002001600091509150505481565b606060008383905067ffffffffffffffff8111156118fa576118f96139fc565b5b6040519080825280602002602001820160405280156119285781602001602082028036833780820191505090505b50905060005b848490508110156119da57600260008773ffffffffffffffffffffffffffffffffffffffff1673ffffffffffffffffffffffffffffffffffffffff16815260200190815260200160002085858381811061198b5761198a61471b565b5b90506020020135815481106119a3576119a261471b565b5b90600052602060002001548282815181106119c1576119c061471b565b5b602002602001018181525050808060010191505061192e565b50809150509392505050565b606080606080606060008787905090508067ffffffffffffffff811115611a1057611a0f6139fc565b5b604051908082528060200260200182016040528015611a4957816020015b611a36613406565b815260200190600190039081611a2e5790505b5091508067ffffffffffffffff811115611a6657611a656139fc565b5b604051908082528060200260200182016040528015611a945781602001602082028036833780820191505090505b5095508067ffffffffffffffff811115611ab157611ab06139fc565b5b604051908082528060200260200182016040528015611adf5781602001602082028036833780820191505090505b5094508067ffffffffffffffff811115611afc57611afb6139fc565b5b604051908082528060200260200182016040528015611b2f57816020015b6060815260200190600190039081611b1a5790505b5093508067ffffffffffffffff811115611b4c57611b4b6139fc565b5b604051908082528060200260200182016040528015611b7f57816020015b6060815260200190600190039081611b6a5790505b50925060005b818110156121db576000808a8a84818110611ba357611ba261471b565b5b905060200201358152602001908152602001600020604051806101200160405290816000820160009054906101000a900473ffffffffffffffffffffffffffffffffffffffff1673ffffffffffffffffffffffffffffffffffffffff1673ffffffffffffffffffffffffffffffffffffffff1681526020016001820160009054906101000a900473ffffffffffffffffffffffffffffffffffffffff1673ffffffffffffffffffffffffffffffffffffffff1673ffffffffffffffffffffffffffffffffffffffff1681526020016002820160009054906101000a900473ffffffffffffffffffffffffffffffffffffffff1673ffffffffffffffffffffffffffffffffffffffff1673ffffffffffffffffffffffffffffffffffffffff16815260200160038201548152602001600482015481526020016005820154815260200160068201548152602001600782015481526020016008820160009054906101000a900460ff161515151581525050838281518110611d2657611d2561471b565b5b6020026020010181905250611d96838281518110611d4757611d4661471b565b5b602002602001015160400151848381518110611d6657611d6561471b565b5b602002602001015160000151858481518110611d8557611d8461471b565b5b602002602001015160200151610526565b878281518110611da957611da861471b565b5b602002602001018181525050600080848381518110611dcb57611dca61471b565b5b60200260200101516040015173ffffffffffffffffffffffffffffffffffffffff166040516024016040516020818303038152906040527f313ce567000000000000000000000000000000000000000000000000000000007bffffffffffffffffffffffffffffffffffffffffffffffffffffffff19166020820180517bffffffffffffffffffffffffffffffffffffffffffffffffffffffff8381831617835250505050604051611e7d9190614c3b565b600060405180830381855afa9150503d8060008114611eb8576040519150601f19603f3d011682016040523d82523d6000602084013e611ebd565b606091505b50915091506020815114611ed2576000611ee7565b80806020019051810190611ee69190614c7e565b5b888481518110611efa57611ef961471b565b5b602002602001019060ff16908160ff1681525050848381518110611f2157611f2061471b565b5b60200260200101516040015173ffffffffffffffffffffffffffffffffffffffff166040516024016040516020818303038152906040527f06fdde03000000000000000000000000000000000000000000000000000000007bffffffffffffffffffffffffffffffffffffffffffffffffffffffff19166020820180517bffffffffffffffffffffffffffffffffffffffffffffffffffffffff8381831617835250505050604051611fd39190614c3b565b600060405180830381855afa9150503d806000811461200e576040519150601f19603f3d011682016040523d82523d6000602084013e612013565b606091505b508092508193505050600081511161203a576040518060200160405280600081525061204f565b8080602001905181019061204e9190614d51565b5b8784815181106120625761206161471b565b5b60200260200101819052508483815181106120805761207f61471b565b5b60200260200101516040015173ffffffffffffffffffffffffffffffffffffffff166040516024016040516020818303038152906040527f95d89b41000000000000000000000000000000000000000000000000000000007bffffffffffffffffffffffffffffffffffffffffffffffffffffffff19166020820180517bffffffffffffffffffffffffffffffffffffffffffffffffffffffff83818316178352505050506040516121329190614c3b565b600060405180830381855afa9150503d806000811461216d576040519150601f19603f3d011682016040523d82523d6000602084013e612172565b606091505b508092508193505050600081511161219957604051806020016040528060008152506121ae565b808060200190518101906121ad9190614d51565b5b8684815181106121c1576121c061471b565b5b602002602001018190525050508080600101915050611b85565b50509295509295909350565b838390508686905014801561220157508181905084849050145b612240576040517f08c379a0000000000000000000000000000000000000000000000000000000008152600401612237906148b3565b60405180910390fd5b60005b868690508110156122db576122ce8787838181106122645761226361471b565b5b9050602002016020810190612279919061384e565b86868481811061228c5761228b61471b565b5b90506020020160208101906122a1919061384e565b8585858181106122b4576122b361471b565b5b90506020020160208101906122c9919061384e565b6107a7565b8080600101915050612243565b50505050505050565b6060848490508787905014801561230057508282905085859050145b61233f576040517f08c379a0000000000000000000000000000000000000000000000000000000008152600401612336906148b3565b60405180910390fd5b600087879050905060008167ffffffffffffffff811115612363576123626139fc565b5b6040519080825280602002602001820160405280156123915781602001602082028036833780820191505090505b50905060005b8281101561244b5761241f8a8a838181106123b5576123b461471b565b5b90506020020160208101906123ca919061384e565b8989848181106123dd576123dc61471b565b5b90506020020160208101906123f2919061384e565b8888858181106124055761240461471b565b5b905060200201602081019061241a919061384e565b610f45565b8282815181106124325761243161471b565b5b6020026020010181815250508080600101915050612397565b5080925050509695505050505050565b600360009054906101000a900473ffffffffffffffffffffffffffffffffffffffff1673ffffffffffffffffffffffffffffffffffffffff163373ffffffffffffffffffffffffffffffffffffffff16146124eb576040517f08c379a00000000000000000000000000000000000000000000000000000000081526004016124e290614de6565b60405180910390fd5b60328211156124fb5760326124fd565b815b600481905550600073ffffffffffffffffffffffffffffffffffffffff168173ffffffffffffffffffffffffffffffffffffffff160361255f57600360009054906101000a900473ffffffffffffffffffffffffffffffffffffffff16612561565b805b600360006101000a81548173ffffffffffffffffffffffffffffffffffffffff021916908373ffffffffffffffffffffffffffffffffffffffff1602179055505050565b60006125b2338787610f45565b9050600073ffffffffffffffffffffffffffffffffffffffff1660008083815260200190815260200160002060000160009054906101000a900473ffffffffffffffffffffffffffffffffffffffff1673ffffffffffffffffffffffffffffffffffffffff16036128b0576040518061012001604052803373ffffffffffffffffffffffffffffffffffffffff1681526020018673ffffffffffffffffffffffffffffffffffffffff1681526020018773ffffffffffffffffffffffffffffffffffffffff1681526020016000815260200185815260200185815260200184815260200142815260200183151581525060008083815260200190815260200160002060008201518160000160006101000a81548173ffffffffffffffffffffffffffffffffffffffff021916908373ffffffffffffffffffffffffffffffffffffffff16021790555060208201518160010160006101000a81548173ffffffffffffffffffffffffffffffffffffffff021916908373ffffffffffffffffffffffffffffffffffffffff16021790555060408201518160020160006101000a81548173ffffffffffffffffffffffffffffffffffffffff021916908373ffffffffffffffffffffffffffffffffffffffff160217905550606082015181600301556080820151816004015560a0820151816005015560c0820151816006015560e082015181600701556101008201518160080160006101000a81548160ff021916908315150217905550905050600160003373ffffffffffffffffffffffffffffffffffffffff1673ffffffffffffffffffffffffffffffffffffffff168152602001908152602001600020819080600181540180825580915050600190039060005260206000200160009091909190915055600260008673ffffffffffffffffffffffffffffffffffffffff1673ffffffffffffffffffffffffffffffffffffffff168152602001908152602001600020819080600181540180825580915050600190039060005260206000200160009091909190915055612946565b83600080838152602001908152602001600020600501819055508360008083815260200190815260200160002060040181905550826000808381526020019081526020016000206006018190555042600080838152602001908152602001600020600701819055508160008083815260200190815260200160002060080160006101000a81548160ff0219169083151502179055505b8473ffffffffffffffffffffffffffffffffffffffff168673ffffffffffffffffffffffffffffffffffffffff163373ffffffffffffffffffffffffffffffffffffffff167fcf8d64e381fa4c6934a7d60007173d92e3e32d0d11698bbb69f14e04fa2c4a89876040516129ba9190613574565b60405180910390a4505050505050565b6060600160008373ffffffffffffffffffffffffffffffffffffffff1673ffffffffffffffffffffffffffffffffffffffff168152602001908152602001600020805480602002602001604051908101604052809291908181526020018280548015612a5557602002820191906000526020600020905b815481526020019060010190808311612a41575b50505050509050919050565b878790508a8a9050148015612a7b57508585905088889050145b8015612a8c57508383905086869050145b8015612a9d57508181905084849050145b612adc576040517f08c379a0000000000000000000000000000000000000000000000000000000008152600401612ad3906148b3565b60405180910390fd5b60005b8a8a9050811015612bab57612b9e8b8b83818110612b0057612aff61471b565b5b9050602002016020810190612b15919061384e565b8a8a84818110612b2857612b2761471b565b5b9050602002016020810190612b3d919061384e565b898985818110612b5057612b4f61471b565b5b90506020020135888886818110612b6a57612b6961471b565b5b90506020020135878787818110612b8457612b8361471b565b5b9050602002016020810190612b999190614e06565b6125a5565b8080600101915050612adf565b5050505050505050505050565b606080606060008585905090508067ffffffffffffffff811115612bdf57612bde6139fc565b5b604051908082528060200260200182016040528015612c0d5781602001602082028036833780820191505090505b5093508067ffffffffffffffff811115612c2a57612c296139fc565b5b604051908082528060200260200182016040528015612c585781602001602082028036833780820191505090505b5092508067ffffffffffffffff811115612c7557612c746139fc565b5b604051908082528060200260200182016040528015612ca35781602001602082028036833780820191505090505b50915060005b81811015613074576000806000898985818110612cc957612cc861471b565b5b9050602002013581526020019081526020016000209050600073ffffffffffffffffffffffffffffffffffffffff168160000160009054906101000a900473ffffffffffffffffffffffffffffffffffffffff1673ffffffffffffffffffffffffffffffffffffffff1603612d73576040517f08c379a0000000000000000000000000000000000000000000000000000000008152600401612d6a906147a7565b60405180910390fd5b6000612dec8260020160009054906101000a900473ffffffffffffffffffffffffffffffffffffffff168360000160009054906101000a900473ffffffffffffffffffffffffffffffffffffffff168460010160009054906101000a900473ffffffffffffffffffffffffffffffffffffffff16610526565b90508160020160009054906101000a900473ffffffffffffffffffffffffffffffffffffffff1673ffffffffffffffffffffffffffffffffffffffff166370a082318360000160009054906101000a900473ffffffffffffffffffffffffffffffffffffffff166040518263ffffffff1660e01b8152600401612e6f9190614a4a565b602060405180830381865afa158015612e8c573d6000803e3d6000fd5b505050506040513d601f19601f82011682018060405250810190612eb09190614a7a565b868481518110612ec357612ec261471b565b5b6020026020010181815250508160020160009054906101000a900473ffffffffffffffffffffffffffffffffffffffff1673ffffffffffffffffffffffffffffffffffffffff1663dd62ed3e8360000160009054906101000a900473ffffffffffffffffffffffffffffffffffffffff16306040518363ffffffff1660e01b8152600401612f52929190614b39565b602060405180830381865afa158015612f6f573d6000803e3d6000fd5b505050506040513d601f19601f82011682018060405250810190612f939190614a7a565b858481518110612fa657612fa561471b565b5b602002602001018181525050858381518110612fc557612fc461471b565b5b60200260200101516103e860045483612fde9190614679565b612fe891906146ea565b82612ff39190614833565b11158015613040575084838151811061300f5761300e61471b565b5b60200260200101516103e8600454836130289190614679565b61303291906146ea565b8261303d9190614833565b11155b8784815181106130535761305261471b565b5b60200260200101901515908115158152505050508080600101915050612ca9565b50509250925092565b6001602052816000526040600020818154811061309957600080fd5b90600052602060002001600091509150505481565b60045481565b6000600160008373ffffffffffffffffffffffffffffffffffffffff1673ffffffffffffffffffffffffffffffffffffffff168152602001908152602001600020805490509050919050565b613183846323b872dd60e01b85858560405160240161312193929190614e33565b604051602081830303815290604052907bffffffffffffffffffffffffffffffffffffffffffffffffffffffff19166020820180517bffffffffffffffffffffffffffffffffffffffffffffffffffffffff8381831617835250505050613189565b50505050565b60006131eb826040518060400160405280602081526020017f5361666545524332303a206c6f772d6c6576656c2063616c6c206661696c65648152508573ffffffffffffffffffffffffffffffffffffffff166132509092919063ffffffff16565b905060008151111561324b578080602001905181019061320b9190614e7f565b61324a576040517f08c379a000000000000000000000000000000000000000000000000000000000815260040161324190614f1e565b60405180910390fd5b5b505050565b606061325f8484600085613268565b90509392505050565b6060824710156132ad576040517f08c379a00000000000000000000000000000000000000000000000000000000081526004016132a490614fb0565b60405180910390fd5b6132b68561337c565b6132f5576040517f08c379a00000000000000000000000000000000000000000000000000000000081526004016132ec9061501c565b60405180910390fd5b6000808673ffffffffffffffffffffffffffffffffffffffff16858760405161331e9190614c3b565b60006040518083038185875af1925050503d806000811461335b576040519150601f19603f3d011682016040523d82523d6000602084013e613360565b606091505b509150915061337082828661339f565b92505050949350505050565b6000808273ffffffffffffffffffffffffffffffffffffffff163b119050919050565b606083156133af578290506133ff565b6000835111156133c25782518084602001fd5b816040517f08c379a00000000000000000000000000000000000000000000000000000000081526004016133f69190615075565b60405180910390fd5b9392505050565b604051806101200160405280600073ffffffffffffffffffffffffffffffffffffffff168152602001600073ffffffffffffffffffffffffffffffffffffffff168152602001600073ffffffffffffffffffffffffffffffffffffffff16815260200160008152602001600081526020016000815260200160008152602001600081526020016000151581525090565b6000604051905090565b600080fd5b600080fd5b600073ffffffffffffffffffffffffffffffffffffffff82169050919050565b60006134d5826134aa565b9050919050565b6134e5816134ca565b81146134f057600080fd5b50565b600081359050613502816134dc565b92915050565b600080600060608486031215613521576135206134a0565b5b600061352f868287016134f3565b9350506020613540868287016134f3565b9250506040613551868287016134f3565b9150509250925092565b6000819050919050565b61356e8161355b565b82525050565b60006020820190506135896000830184613565565b92915050565b600080fd5b600080fd5b600080fd5b60008083601f8401126135b4576135b361358f565b5b8235905067ffffffffffffffff8111156135d1576135d0613594565b5b6020830191508360208202830111156135ed576135ec613599565b5b9250929050565b60008060006040848603121561360d5761360c6134a0565b5b600061361b868287016134f3565b935050602084013567ffffffffffffffff81111561363c5761363b6134a5565b5b6136488682870161359e565b92509250509250925092565b600081519050919050565b600082825260208201905092915050565b6000819050602082019050919050565b6000819050919050565b61369381613680565b82525050565b60006136a5838361368a565b60208301905092915050565b6000602082019050919050565b60006136c982613654565b6136d3818561365f565b93506136de83613670565b8060005b8381101561370f5781516136f68882613699565b9750613701836136b1565b9250506001810190506136e2565b5085935050505092915050565b6000602082019050818103600083015261373681846136be565b905092915050565b61374781613680565b811461375257600080fd5b50565b6000813590506137648161373e565b92915050565b6000602082840312156137805761377f6134a0565b5b600061378e84828501613755565b91505092915050565b6137a0816134ca565b82525050565b60008115159050919050565b6137bb816137a6565b82525050565b6000610120820190506137d7600083018c613797565b6137e4602083018b613797565b6137f1604083018a613797565b6137fe6060830189613565565b61380b6080830188613565565b61381860a0830187613565565b61382560c0830186613565565b61383260e0830185613565565b6138406101008301846137b2565b9a9950505050505050505050565b600060208284031215613864576138636134a0565b5b6000613872848285016134f3565b91505092915050565b6000613886826134aa565b9050919050565b6138968161387b565b82525050565b60006020820190506138b1600083018461388d565b92915050565b60008083601f8401126138cd576138cc61358f565b5b8235905067ffffffffffffffff8111156138ea576138e9613594565b5b60208301915083602082028301111561390657613905613599565b5b9250929050565b6000806000806000806060878903121561392a576139296134a0565b5b600087013567ffffffffffffffff811115613948576139476134a5565b5b61395489828a016138b7565b9650965050602087013567ffffffffffffffff811115613977576139766134a5565b5b61398389828a016138b7565b9450945050604087013567ffffffffffffffff8111156139a6576139a56134a5565b5b6139b289828a016138b7565b92509250509295509295509295565b6139ca81613680565b82525050565b60006020820190506139e560008301846139c1565b92915050565b6000601f19601f8301169050919050565b7f4e487b7100000000000000000000000000000000000000000000000000000000600052604160045260246000fd5b613a34826139eb565b810181811067ffffffffffffffff82111715613a5357613a526139fc565b5b80604052505050565b6000613a66613496565b9050613a728282613a2b565b919050565b600067ffffffffffffffff821115613a9257613a916139fc565b5b602082029050602081019050919050565b6000613ab6613ab184613a77565b613a5c565b90508083825260208201905060208402830185811115613ad957613ad8613599565b5b835b81811015613b025780613aee8882613755565b845260208401935050602081019050613adb565b5050509392505050565b600082601f830112613b2157613b2061358f565b5b8135613b31848260208601613aa3565b91505092915050565b600060208284031215613b5057613b4f6134a0565b5b600082013567ffffffffffffffff811115613b6e57613b6d6134a5565b5b613b7a84828501613b0c565b91505092915050565b600067ffffffffffffffff821115613b9e57613b9d6139fc565b5b602082029050602081019050919050565b6000613bc2613bbd84613b83565b613a5c565b90508083825260208201905060208402830185811115613be557613be4613599565b5b835b81811015613c0e5780613bfa88826134f3565b845260208401935050602081019050613be7565b5050509392505050565b600082601f830112613c2d57613c2c61358f565b5b8135613c3d848260208601613baf565b91505092915050565b600080600060608486031215613c5f57613c5e6134a0565b5b600084013567ffffffffffffffff811115613c7d57613c7c6134a5565b5b613c8986828701613c18565b935050602084013567ffffffffffffffff811115613caa57613ca96134a5565b5b613cb686828701613c18565b925050604084013567ffffffffffffffff811115613cd757613cd66134a5565b5b613ce386828701613c18565b9150509250925092565b613cf68161355b565b8114613d0157600080fd5b50565b600081359050613d1381613ced565b92915050565b60008060408385031215613d3057613d2f6134a0565b5b6000613d3e858286016134f3565b9250506020613d4f85828601613d04565b9150509250929050565b60008083601f840112613d6f57613d6e61358f565b5b8235905067ffffffffffffffff811115613d8c57613d8b613594565b5b602083019150836020820283011115613da857613da7613599565b5b9250929050565b60008060208385031215613dc657613dc56134a0565b5b600083013567ffffffffffffffff811115613de457613de36134a5565b5b613df085828601613d59565b92509250509250929050565b600081519050919050565b600082825260208201905092915050565b6000819050602082019050919050565b613e318161355b565b82525050565b6000613e438383613e28565b60208301905092915050565b6000602082019050919050565b6000613e6782613dfc565b613e718185613e07565b9350613e7c83613e18565b8060005b83811015613ead578151613e948882613e37565b9750613e9f83613e4f565b925050600181019050613e80565b5085935050505092915050565b600081519050919050565b600082825260208201905092915050565b6000819050602082019050919050565b600060ff82169050919050565b613efc81613ee6565b82525050565b6000613f0e8383613ef3565b60208301905092915050565b6000602082019050919050565b6000613f3282613eba565b613f3c8185613ec5565b9350613f4783613ed6565b8060005b83811015613f78578151613f5f8882613f02565b9750613f6a83613f1a565b925050600181019050613f4b565b5085935050505092915050565b600081519050919050565b600082825260208201905092915050565b6000819050602082019050919050565b600081519050919050565b600082825260208201905092915050565b60005b83811015613feb578082015181840152602081019050613fd0565b60008484015250505050565b600061400282613fb1565b61400c8185613fbc565b935061401c818560208601613fcd565b614025816139eb565b840191505092915050565b600061403c8383613ff7565b905092915050565b6000602082019050919050565b600061405c82613f85565b6140668185613f90565b93508360208202850161407885613fa1565b8060005b858110156140b457848403895281516140958582614030565b94506140a083614044565b925060208a0199505060018101905061407c565b50829750879550505050505092915050565b600081519050919050565b600082825260208201905092915050565b6000819050602082019050919050565b6140fb816134ca565b82525050565b61410a816137a6565b82525050565b6101208201600082015161412760008501826140f2565b50602082015161413a60208501826140f2565b50604082015161414d60408501826140f2565b5060608201516141606060850182613e28565b5060808201516141736080850182613e28565b5060a082015161418660a0850182613e28565b5060c082015161419960c0850182613e28565b5060e08201516141ac60e0850182613e28565b506101008201516141c1610100850182614101565b50505050565b60006141d38383614110565b6101208301905092915050565b6000602082019050919050565b60006141f8826140c6565b61420281856140d1565b935061420d836140e2565b8060005b8381101561423e57815161422588826141c7565b9750614230836141e0565b925050600181019050614211565b5085935050505092915050565b600060a08201905081810360008301526142658188613e5c565b905081810360208301526142798187613f27565b9050818103604083015261428d8186614051565b905081810360608301526142a18185614051565b905081810360808301526142b581846141ed565b90509695505050505050565b600080604083850312156142d8576142d76134a0565b5b60006142e685828601613d04565b92505060206142f7858286016134f3565b9150509250929050565b61430a816137a6565b811461431557600080fd5b50565b60008135905061432781614301565b92915050565b600080600080600060a08688031215614349576143486134a0565b5b6000614357888289016134f3565b9550506020614368888289016134f3565b945050604061437988828901613d04565b935050606061438a88828901613d04565b925050608061439b88828901614318565b9150509295509295909350565b60008083601f8401126143be576143bd61358f565b5b8235905067ffffffffffffffff8111156143db576143da613594565b5b6020830191508360208202830111156143f7576143f6613599565b5b9250929050565b60008060008060008060008060008060a08b8d031215614421576144206134a0565b5b60008b013567ffffffffffffffff81111561443f5761443e6134a5565b5b61444b8d828e016138b7565b9a509a505060208b013567ffffffffffffffff81111561446e5761446d6134a5565b5b61447a8d828e016138b7565b985098505060408b013567ffffffffffffffff81111561449d5761449c6134a5565b5b6144a98d828e0161359e565b965096505060608b013567ffffffffffffffff8111156144cc576144cb6134a5565b5b6144d88d828e0161359e565b945094505060808b013567ffffffffffffffff8111156144fb576144fa6134a5565b5b6145078d828e016143a8565b92509250509295989b9194979a5092959850565b600081519050919050565b600082825260208201905092915050565b6000819050602082019050919050565b60006145538383614101565b60208301905092915050565b6000602082019050919050565b60006145778261451b565b6145818185614526565b935061458c83614537565b8060005b838110156145bd5781516145a48882614547565b97506145af8361455f565b925050600181019050614590565b5085935050505092915050565b600060608201905081810360008301526145e4818661456c565b905081810360208301526145f88185613e5c565b9050818103604083015261460c8184613e5c565b9050949350505050565b7f4e487b7100000000000000000000000000000000000000000000000000000000600052601160045260246000fd5b60006146508261355b565b915061465b8361355b565b925082820390508181111561467357614672614616565b5b92915050565b60006146848261355b565b915061468f8361355b565b925082820261469d8161355b565b915082820484148315176146b4576146b3614616565b5b5092915050565b7f4e487b7100000000000000000000000000000000000000000000000000000000600052601260045260246000fd5b60006146f58261355b565b91506147008361355b565b9250826147105761470f6146bb565b5b828204905092915050565b7f4e487b7100000000000000000000000000000000000000000000000000000000600052603260045260246000fd5b600082825260208201905092915050565b7f53747265616d20646f6573206e6f742065786973740000000000000000000000600082015250565b600061479160158361474a565b915061479c8261475b565b602082019050919050565b600060208201905081810360008301526147c081614784565b9050919050565b7f4e6f20616c6c6f7761626c6520616d6f756e7420746f20776974686472617700600082015250565b60006147fd601f8361474a565b9150614808826147c7565b602082019050919050565b6000602082019050818103600083015261482c816147f0565b9050919050565b600061483e8261355b565b91506148498361355b565b925082820190508082111561486157614860614616565b5b92915050565b7f496e70757420617272617973206c656e677468206d69736d6174636800000000600082015250565b600061489d601c8361474a565b91506148a882614867565b602082019050919050565b600060208201905081810360008301526148cc81614890565b9050919050565b7f596f7520617265206e6f74207468652073747265616d6572206f72207265636960008201527f7069656e74000000000000000000000000000000000000000000000000000000602082015250565b600061492f60258361474a565b915061493a826148d3565b604082019050919050565b6000602082019050818103600083015261495e81614922565b9050919050565b6000819050919050565b6000819050919050565b600061499461498f61498a84614965565b61496f565b61355b565b9050919050565b6149a481614979565b82525050565b60006020820190506149bf600083018461499b565b92915050565b60008160601b9050919050565b60006149dd826149c5565b9050919050565b60006149ef826149d2565b9050919050565b614a07614a02826134ca565b6149e4565b82525050565b6000614a1982866149f6565b601482019150614a2982856149f6565b601482019150614a3982846149f6565b601482019150819050949350505050565b6000602082019050614a5f6000830184613797565b92915050565b600081519050614a7481613ced565b92915050565b600060208284031215614a9057614a8f6134a0565b5b6000614a9e84828501614a65565b91505092915050565b7f496e73756666696369656e742062616c616e636520666f722073747265616d6960008201527f6e67000000000000000000000000000000000000000000000000000000000000602082015250565b6000614b0360228361474a565b9150614b0e82614aa7565b604082019050919050565b60006020820190508181036000830152614b3281614af6565b9050919050565b6000604082019050614b4e6000830185613797565b614b5b6020830184613797565b9392505050565b7f496e73756666696369656e7420616c6c6f77616e636520666f7220737472656160008201527f6d696e6700000000000000000000000000000000000000000000000000000000602082015250565b6000614bbe60248361474a565b9150614bc982614b62565b604082019050919050565b60006020820190508181036000830152614bed81614bb1565b9050919050565b600081519050919050565b600081905092915050565b6000614c1582614bf4565b614c1f8185614bff565b9350614c2f818560208601613fcd565b80840191505092915050565b6000614c478284614c0a565b915081905092915050565b614c5b81613ee6565b8114614c6657600080fd5b50565b600081519050614c7881614c52565b92915050565b600060208284031215614c9457614c936134a0565b5b6000614ca284828501614c69565b91505092915050565b600080fd5b600067ffffffffffffffff821115614ccb57614cca6139fc565b5b614cd4826139eb565b9050602081019050919050565b6000614cf4614cef84614cb0565b613a5c565b905082815260208101848484011115614d1057614d0f614cab565b5b614d1b848285613fcd565b509392505050565b600082601f830112614d3857614d3761358f565b5b8151614d48848260208601614ce1565b91505092915050565b600060208284031215614d6757614d666134a0565b5b600082015167ffffffffffffffff811115614d8557614d846134a5565b5b614d9184828501614d23565b91505092915050565b7f596f7520617265206e6f7420746865206f776e65720000000000000000000000600082015250565b6000614dd060158361474a565b9150614ddb82614d9a565b602082019050919050565b60006020820190508181036000830152614dff81614dc3565b9050919050565b600060208284031215614e1c57614e1b6134a0565b5b6000614e2a84828501614318565b91505092915050565b6000606082019050614e486000830186613797565b614e556020830185613797565b614e626040830184613565565b949350505050565b600081519050614e7981614301565b92915050565b600060208284031215614e9557614e946134a0565b5b6000614ea384828501614e6a565b91505092915050565b7f5361666545524332303a204552433230206f7065726174696f6e20646964206e60008201527f6f74207375636365656400000000000000000000000000000000000000000000602082015250565b6000614f08602a8361474a565b9150614f1382614eac565b604082019050919050565b60006020820190508181036000830152614f3781614efb565b9050919050565b7f416464726573733a20696e73756666696369656e742062616c616e636520666f60008201527f722063616c6c0000000000000000000000000000000000000000000000000000602082015250565b6000614f9a60268361474a565b9150614fa582614f3e565b604082019050919050565b60006020820190508181036000830152614fc981614f8d565b9050919050565b7f416464726573733a2063616c6c20746f206e6f6e2d636f6e7472616374000000600082015250565b6000615006601d8361474a565b915061501182614fd0565b602082019050919050565b6000602082019050818103600083015261503581614ff9565b9050919050565b600061504782613fb1565b615051818561474a565b9350615061818560208601613fcd565b61506a816139eb565b840191505092915050565b6000602082019050818103600083015261508f818461503c565b90509291505056fea26469706673582212203487d25bb92c5f00e75dfb8b3c408580adde58d5342c8105c7155b39e3f3aeff64736f6c63430008180033",
  "linkReferences": {},
  "deployedLinkReferences": {}
}