{
  "_format": "hh-sol-artifact-1",
  "contractName": "Vault",
  "sourceName": "contracts/Vault.sol",
  "abi": [
    {
      "anonymous": false,
      "inputs": [
        {
          "indexed": false,
          "internalType": "address",
          "name": "nft",
          "type": "address"
        },
        {
          "indexed": false,
          "internalType": "uint256",
          "name": "tokenId",
          "type": "uint256"
        },
        {
          "indexed": true,
          "internalType": "address",
          "name": "depositor",
          "type": "address"
        }
      ],
      "name": "NFTDeposited",
      "type": "event"
    },
    {
      "anonymous": false,
      "inputs": [
        {
          "indexed": false,
          "internalType": "address",
          "name": "token",
          "type": "address"
        },
        {
          "indexed": false,
          "internalType": "uint256",
          "name": "amount",
          "type": "uint256"
        },
        {
          "indexed": true,
          "internalType": "address",
          "name": "depositor",
          "type": "address"
        }
      ],
      "name": "TokenDeposited",
      "type": "event"
    },
    {
      "anonymous": false,
      "inputs": [
        {
          "indexed": false,
          "internalType": "address",
          "name": "token",
          "type": "address"
        },
        {
          "indexed": false,
          "internalType": "uint256",
          "name": "amount",
          "type": "uint256"
        }
      ],
      "name": "TokenWithdrawn",
      "type": "event"
    },
    {
      "anonymous": false,
      "inputs": [
        {
          "indexed": false,
          "internalType": "uint256",
          "name": "txIndex",
          "type": "uint256"
        },
        {
          "indexed": false,
          "internalType": "address",
          "name": "confirmer",
          "type": "address"
        }
      ],
      "name": "TransactionConfirmed",
      "type": "event"
    },
    {
      "anonymous": false,
      "inputs": [
        {
          "indexed": false,
          "internalType": "uint256",
          "name": "txIndex",
          "type": "uint256"
        },
        {
          "indexed": false,
          "internalType": "address",
          "name": "to",
          "type": "address"
        },
        {
          "indexed": false,
          "internalType": "bytes",
          "name": "data",
          "type": "bytes"
        }
      ],
      "name": "TransactionExecuted",
      "type": "event"
    },
    {
      "anonymous": false,
      "inputs": [
        {
          "indexed": false,
          "internalType": "uint256",
          "name": "txIndex",
          "type": "uint256"
        },
        {
          "indexed": false,
          "internalType": "address",
          "name": "to",
          "type": "address"
        },
        {
          "indexed": false,
          "internalType": "bytes",
          "name": "data",
          "type": "bytes"
        },
        {
          "indexed": false,
          "internalType": "uint256",
          "name": "amount",
          "type": "uint256"
        }
      ],
      "name": "TransactionQueued",
      "type": "event"
    },
    {
      "inputs": [
        {
          "internalType": "uint256",
          "name": "",
          "type": "uint256"
        }
      ],
      "name": "assets",
      "outputs": [
        {
          "internalType": "address",
          "name": "",
          "type": "address"
        }
      ],
      "stateMutability": "view",
      "type": "function"
    },
    {
      "inputs": [
        {
          "internalType": "uint256",
          "name": "txIndex",
          "type": "uint256"
        }
      ],
      "name": "cancelTransaction",
      "outputs": [],
      "stateMutability": "nonpayable",
      "type": "function"
    },
    {
      "inputs": [
        {
          "internalType": "uint256",
          "name": "txIndex",
          "type": "uint256"
        }
      ],
      "name": "confirmTransaction",
      "outputs": [],
      "stateMutability": "nonpayable",
      "type": "function"
    },
    {
      "inputs": [
        {
          "internalType": "uint256",
          "name": "",
          "type": "uint256"
        },
        {
          "internalType": "address",
          "name": "",
          "type": "address"
        }
      ],
      "name": "confirmed",
      "outputs": [
        {
          "internalType": "bool",
          "name": "",
          "type": "bool"
        }
      ],
      "stateMutability": "view",
      "type": "function"
    },
    {
      "inputs": [],
      "name": "dailyLimit",
      "outputs": [
        {
          "internalType": "uint256",
          "name": "",
          "type": "uint256"
        }
      ],
      "stateMutability": "view",
      "type": "function"
    },
    {
      "inputs": [
        {
          "internalType": "address",
          "name": "",
          "type": "address"
        }
      ],
      "name": "dailyWithdrawnAmount",
      "outputs": [
        {
          "internalType": "uint256",
          "name": "",
          "type": "uint256"
        }
      ],
      "stateMutability": "view",
      "type": "function"
    },
    {
      "inputs": [],
      "name": "delay",
      "outputs": [
        {
          "internalType": "uint256",
          "name": "",
          "type": "uint256"
        }
      ],
      "stateMutability": "view",
      "type": "function"
    },
    {
      "inputs": [
        {
          "internalType": "address",
          "name": "nft",
          "type": "address"
        },
        {
          "internalType": "uint256",
          "name": "tokenId",
          "type": "uint256"
        }
      ],
      "name": "depositNFT",
      "outputs": [],
      "stateMutability": "nonpayable",
      "type": "function"
    },
    {
      "inputs": [
        {
          "internalType": "address",
          "name": "token",
          "type": "address"
        },
        {
          "internalType": "uint256",
          "name": "amount",
          "type": "uint256"
        }
      ],
      "name": "depositToken",
      "outputs": [],
      "stateMutability": "payable",
      "type": "function"
    },
    {
      "inputs": [],
      "name": "freeze",
      "outputs": [
        {
          "internalType": "uint256",
          "name": "",
          "type": "uint256"
        }
      ],
      "stateMutability": "view",
      "type": "function"
    },
    {
      "inputs": [
        {
          "internalType": "uint256",
          "name": "freezeL",
          "type": "uint256"
        }
      ],
      "name": "freezeLock",
      "outputs": [],
      "stateMutability": "nonpayable",
      "type": "function"
    },
    {
      "inputs": [
        {
          "internalType": "address",
          "name": "to",
          "type": "address"
        },
        {
          "internalType": "address",
          "name": "token",
          "type": "address"
        },
        {
          "internalType": "uint256",
          "name": "amount",
          "type": "uint256"
        }
      ],
      "name": "getLimit",
      "outputs": [
        {
          "internalType": "uint256",
          "name": "",
          "type": "uint256"
        }
      ],
      "stateMutability": "view",
      "type": "function"
    },
    {
      "inputs": [
        {
          "internalType": "address",
          "name": "token",
          "type": "address"
        }
      ],
      "name": "getLimitAmount",
      "outputs": [
        {
          "internalType": "uint256",
          "name": "",
          "type": "uint256"
        }
      ],
      "stateMutability": "view",
      "type": "function"
    },
    {
      "inputs": [
        {
          "internalType": "address",
          "name": "_owner",
          "type": "address"
        },
        {
          "internalType": "string",
          "name": "_name",
          "type": "string"
        },
        {
          "internalType": "address",
          "name": "_recoveryAddress",
          "type": "address"
        },
        {
          "internalType": "address[]",
          "name": "_whitelistedAddresses",
          "type": "address[]"
        },
        {
          "internalType": "uint256",
          "name": "_dailyLimit",
          "type": "uint256"
        },
        {
          "internalType": "uint256",
          "name": "_threshold",
          "type": "uint256"
        },
        {
          "internalType": "uint256",
          "name": "_delay",
          "type": "uint256"
        }
      ],
      "name": "init",
      "outputs": [],
      "stateMutability": "nonpayable",
      "type": "function"
    },
    {
      "inputs": [
        {
          "internalType": "address",
          "name": "",
          "type": "address"
        }
      ],
      "name": "isWhitelisted",
      "outputs": [
        {
          "internalType": "bool",
          "name": "",
          "type": "bool"
        }
      ],
      "stateMutability": "view",
      "type": "function"
    },
    {
      "inputs": [
        {
          "internalType": "address",
          "name": "",
          "type": "address"
        }
      ],
      "name": "lastWithdrawTimestamp",
      "outputs": [
        {
          "internalType": "uint256",
          "name": "",
          "type": "uint256"
        }
      ],
      "stateMutability": "view",
      "type": "function"
    },
    {
      "inputs": [],
      "name": "name",
      "outputs": [
        {
          "internalType": "string",
          "name": "",
          "type": "string"
        }
      ],
      "stateMutability": "view",
      "type": "function"
    },
    {
      "inputs": [
        {
          "internalType": "address",
          "name": "_operator",
          "type": "address"
        },
        {
          "internalType": "address",
          "name": "_from",
          "type": "address"
        },
        {
          "internalType": "uint256",
          "name": "_tokenId",
          "type": "uint256"
        },
        {
          "internalType": "bytes",
          "name": "_data",
          "type": "bytes"
        }
      ],
      "name": "onERC721Received",
      "outputs": [
        {
          "internalType": "bytes4",
          "name": "",
          "type": "bytes4"
        }
      ],
      "stateMutability": "nonpayable",
      "type": "function"
    },
    {
      "inputs": [],
      "name": "owner",
      "outputs": [
        {
          "internalType": "address",
          "name": "",
          "type": "address"
        }
      ],
      "stateMutability": "view",
      "type": "function"
    },
    {
      "inputs": [
        {
          "internalType": "address",
          "name": "to",
          "type": "address"
        },
        {
          "internalType": "bytes",
          "name": "data",
          "type": "bytes"
        },
        {
          "internalType": "uint256",
          "name": "amount",
          "type": "uint256"
        }
      ],
      "name": "queueTransaction",
      "outputs": [],
      "stateMutability": "nonpayable",
      "type": "function"
    },
    {
      "inputs": [
        {
          "internalType": "uint256",
          "name": "",
          "type": "uint256"
        }
      ],
      "name": "queuedTransactions",
      "outputs": [
        {
          "internalType": "address",
          "name": "to",
          "type": "address"
        },
        {
          "internalType": "bytes",
          "name": "data",
          "type": "bytes"
        },
        {
          "internalType": "uint256",
          "name": "timestamp",
          "type": "uint256"
        },
        {
          "internalType": "bool",
          "name": "executed",
          "type": "bool"
        },
        {
          "internalType": "uint256",
          "name": "confirmations",
          "type": "uint256"
        },
        {
          "internalType": "uint256",
          "name": "amount",
          "type": "uint256"
        }
      ],
      "stateMutability": "view",
      "type": "function"
    },
    {
      "inputs": [],
      "name": "queuedTxs",
      "outputs": [
        {
          "internalType": "uint256",
          "name": "",
          "type": "uint256"
        }
      ],
      "stateMutability": "view",
      "type": "function"
    },
    {
      "inputs": [
        {
          "internalType": "address",
          "name": "token",
          "type": "address"
        },
        {
          "internalType": "address",
          "name": "to",
          "type": "address"
        },
        {
          "internalType": "uint256",
          "name": "amount",
          "type": "uint256"
        },
        {
          "internalType": "bytes",
          "name": "data",
          "type": "bytes"
        },
        {
          "internalType": "uint256",
          "name": "freezeL",
          "type": "uint256"
        }
      ],
      "name": "recover",
      "outputs": [],
      "stateMutability": "nonpayable",
      "type": "function"
    },
    {
      "inputs": [],
      "name": "recoveryAddress",
      "outputs": [
        {
          "internalType": "address",
          "name": "",
          "type": "address"
        }
      ],
      "stateMutability": "view",
      "type": "function"
    },
    {
      "inputs": [
        {
          "internalType": "address",
          "name": "token",
          "type": "address"
        },
        {
          "internalType": "uint256",
          "name": "fixedLimit",
          "type": "uint256"
        },
        {
          "internalType": "uint256",
          "name": "percentageLimit",
          "type": "uint256"
        },
        {
          "internalType": "uint256",
          "name": "useBaseLimit",
          "type": "uint256"
        }
      ],
      "name": "setTokenLimit",
      "outputs": [],
      "stateMutability": "nonpayable",
      "type": "function"
    },
    {
      "inputs": [],
      "name": "threshold",
      "outputs": [
        {
          "internalType": "uint256",
          "name": "",
          "type": "uint256"
        }
      ],
      "stateMutability": "view",
      "type": "function"
    },
    {
      "inputs": [
        {
          "internalType": "address",
          "name": "",
          "type": "address"
        }
      ],
      "name": "tokenLimits",
      "outputs": [
        {
          "internalType": "uint256",
          "name": "fixedLimit",
          "type": "uint256"
        },
        {
          "internalType": "uint256",
          "name": "percentageLimit",
          "type": "uint256"
        },
        {
          "internalType": "uint256",
          "name": "useBaseLimit",
          "type": "uint256"
        }
      ],
      "stateMutability": "view",
      "type": "function"
    },
    {
      "inputs": [
        {
          "internalType": "uint256",
          "name": "newDailyLimit",
          "type": "uint256"
        }
      ],
      "name": "updateDailyLimit",
      "outputs": [],
      "stateMutability": "nonpayable",
      "type": "function"
    },
    {
      "inputs": [
        {
          "internalType": "uint256",
          "name": "newDelay",
          "type": "uint256"
        }
      ],
      "name": "updateDelay",
      "outputs": [],
      "stateMutability": "nonpayable",
      "type": "function"
    },
    {
      "inputs": [
        {
          "internalType": "address",
          "name": "newRecoveryAddress",
          "type": "address"
        }
      ],
      "name": "updateRecoveryAddress",
      "outputs": [],
      "stateMutability": "nonpayable",
      "type": "function"
    },
    {
      "inputs": [
        {
          "internalType": "address",
          "name": "newRecoveryAddress",
          "type": "address"
        },
        {
          "internalType": "address[]",
          "name": "newWhitelistedAddresses",
          "type": "address[]"
        },
        {
          "internalType": "uint256",
          "name": "newDailyLimit",
          "type": "uint256"
        },
        {
          "internalType": "uint256",
          "name": "newThreshold",
          "type": "uint256"
        },
        {
          "internalType": "uint256",
          "name": "newDelay",
          "type": "uint256"
        },
        {
          "internalType": "address[]",
          "name": "tokens",
          "type": "address[]"
        },
        {
          "internalType": "uint256[]",
          "name": "fixedLimits",
          "type": "uint256[]"
        },
        {
          "internalType": "uint256[]",
          "name": "percentageLimits",
          "type": "uint256[]"
        },
        {
          "internalType": "uint256[]",
          "name": "useBaseLimits",
          "type": "uint256[]"
        }
      ],
      "name": "updateSettings",
      "outputs": [],
      "stateMutability": "nonpayable",
      "type": "function"
    },
    {
      "inputs": [
        {
          "internalType": "uint256",
          "name": "newThreshold",
          "type": "uint256"
        }
      ],
      "name": "updateThreshold",
      "outputs": [],
      "stateMutability": "nonpayable",
      "type": "function"
    },
    {
      "inputs": [
        {
          "internalType": "address[]",
          "name": "newWhitelistedAddresses",
          "type": "address[]"
        }
      ],
      "name": "updateWhitelistAddresses",
      "outputs": [],
      "stateMutability": "nonpayable",
      "type": "function"
    },
    {
      "inputs": [],
      "name": "version",
      "outputs": [
        {
          "internalType": "uint256",
          "name": "",
          "type": "uint256"
        }
      ],
      "stateMutability": "view",
      "type": "function"
    },
    {
      "inputs": [
        {
          "internalType": "uint256",
          "name": "",
          "type": "uint256"
        }
      ],
      "name": "whitelistedAddresses",
      "outputs": [
        {
          "internalType": "address",
          "name": "",
          "type": "address"
        }
      ],
      "stateMutability": "view",
      "type": "function"
    },
    {
      "inputs": [
        {
          "internalType": "address",
          "name": "to",
          "type": "address"
        },
        {
          "internalType": "address",
          "name": "token",
          "type": "address"
        },
        {
          "internalType": "uint256",
          "name": "amount",
          "type": "uint256"
        }
      ],
      "name": "withdrawToken",
      "outputs": [],
      "stateMutability": "nonpayable",
      "type": "function"
    },
    {
      "stateMutability": "payable",
      "type": "receive"
    }
  ],
  "bytecode": "0x608060405234801561001057600080fd5b5061569180620000216000396000f3fe6080604052600436106102135760003560e01c80636ae5624011610118578063ba4e5c49116100a0578063d63da95c1161006f578063d63da95c146107d6578063d7d7442f146107ff578063da1eac0d14610828578063f11ce42914610865578063f8175d78146108a25761021a565b8063ba4e5c49146106f1578063c01a8c841461072e578063cf35bdd014610757578063d176e93a146107945761021a565b80638790c1de116100e75780638790c1de146105fa5780638c3dc5c1146106375780638c8bfd0e146106605780638da5cb5b1461069d5780639b5b9b18146106c85761021a565b80636ae5624014610540578063710eb26c1461056957806375ca1a011461059457806380a4b461146105d15761021a565b8063417a06981161019b5780635d12069a1161016a5780635d12069a1461046d57806362a5af3b1461049657806364d62353146104c157806367eeba0c146104ea5780636a42b8f8146105155761021a565b8063417a0698146103af57806342cde4e8146103ee57806354fd4d50146104195780635664a47a146104445761021a565b806327492ccf116101e257806327492ccf146102d95780632780fb1d146103025780633380c0d81461032d578063338b5dea146103565780633af32abf146103725761021a565b806301e336671461021f57806306fdde0314610248578063150b7a02146102735780631ae138a5146102b05761021a565b3661021a57005b600080fd5b34801561022b57600080fd5b50610246600480360381019061024191906138fd565b6108cb565b005b34801561025457600080fd5b5061025d610d01565b60405161026a91906139e0565b60405180910390f35b34801561027f57600080fd5b5061029a60048036038101906102959190613b37565b610d8f565b6040516102a79190613bf5565b60405180910390f35b3480156102bc57600080fd5b506102d760048036038101906102d29190613c10565b610da3565b005b3480156102e557600080fd5b5061030060048036038101906102fb9190613e02565b610ed6565b005b34801561030e57600080fd5b50610317611373565b6040516103249190613f67565b60405180910390f35b34801561033957600080fd5b50610354600480360381019061034f9190613f82565b611379565b005b610370600480360381019061036b9190613faf565b61154a565b005b34801561037e57600080fd5b5061039960048036038101906103949190613fef565b6116d9565b6040516103a69190614037565b60405180910390f35b3480156103bb57600080fd5b506103d660048036038101906103d19190613fef565b6116f9565b6040516103e593929190614052565b60405180910390f35b3480156103fa57600080fd5b50610403611723565b6040516104109190613f67565b60405180910390f35b34801561042557600080fd5b5061042e611729565b60405161043b9190613f67565b60405180910390f35b34801561045057600080fd5b5061046b60048036038101906104669190613f82565b61172f565b005b34801561047957600080fd5b50610494600480360381019061048f9190614089565b611944565b005b3480156104a257600080fd5b506104ab611b0c565b6040516104b89190613f67565b60405180910390f35b3480156104cd57600080fd5b506104e860048036038101906104e39190613f82565b611b12565b005b3480156104f657600080fd5b506104ff611b8a565b60405161050c9190613f67565b60405180910390f35b34801561052157600080fd5b5061052a611b90565b6040516105379190613f67565b60405180910390f35b34801561054c57600080fd5b50610567600480360381019061056291906140d2565b611b96565b005b34801561057557600080fd5b5061057e611f12565b60405161058b9190614178565b60405180910390f35b3480156105a057600080fd5b506105bb60048036038101906105b69190613fef565b611f38565b6040516105c89190613f67565b60405180910390f35b3480156105dd57600080fd5b506105f860048036038101906105f39190613fef565b611f50565b005b34801561060657600080fd5b50610621600480360381019061061c9190614193565b612002565b60405161062e9190614037565b60405180910390f35b34801561064357600080fd5b5061065e600480360381019061065991906141d3565b612031565b005b34801561066c57600080fd5b5061068760048036038101906106829190613fef565b61221a565b6040516106949190613f67565b60405180910390f35b3480156106a957600080fd5b506106b2612232565b6040516106bf9190614178565b60405180910390f35b3480156106d457600080fd5b506106ef60048036038101906106ea9190613faf565b612256565b005b3480156106fd57600080fd5b5061071860048036038101906107139190613f82565b612319565b6040516107259190614178565b60405180910390f35b34801561073a57600080fd5b5061075560048036038101906107509190613f82565b612358565b005b34801561076357600080fd5b5061077e60048036038101906107799190613f82565b6127fb565b60405161078b9190614178565b60405180910390f35b3480156107a057600080fd5b506107bb60048036038101906107b69190613f82565b61283a565b6040516107cd96959493929190614297565b60405180910390f35b3480156107e257600080fd5b506107fd60048036038101906107f891906143a0565b61293b565b005b34801561080b57600080fd5b5061082660048036038101906108219190613f82565b612b24565b005b34801561083457600080fd5b5061084f600480360381019061084a9190613fef565b612b9c565b60405161085c9190613f67565b60405180910390f35b34801561087157600080fd5b5061088c600480360381019061088791906138fd565b612d44565b6040516108999190613f67565b60405180910390f35b3480156108ae57600080fd5b506108c960048036038101906108c49190613f82565b613015565b005b60008054906101000a900473ffffffffffffffffffffffffffffffffffffffff1673ffffffffffffffffffffffffffffffffffffffff163373ffffffffffffffffffffffffffffffffffffffff1614610959576040517f08c379a0000000000000000000000000000000000000000000000000000000008152600401610950906144c6565b60405180910390fd5b60008073ffffffffffffffffffffffffffffffffffffffff168373ffffffffffffffffffffffffffffffffffffffff1614610a0d578273ffffffffffffffffffffffffffffffffffffffff166370a08231306040518263ffffffff1660e01b81526004016109c79190614178565b602060405180830381865afa1580156109e4573d6000803e3d6000fd5b505050506040513d601f19601f82011682018060405250810190610a0891906144fb565b610a0f565b475b905081811015610a54576040517f08c379a0000000000000000000000000000000000000000000000000000000008152600401610a4b90614574565b60405180910390fd5b6000600e5414610a99576040517f08c379a0000000000000000000000000000000000000000000000000000000008152600401610a90906145e0565b60405180910390fd5b6000610aa484612b9c565b90506000600a60008673ffffffffffffffffffffffffffffffffffffffff1673ffffffffffffffffffffffffffffffffffffffff1681526020019081526020016000205442610af3919061462f565b9050620151808110610b45576000600960008773ffffffffffffffffffffffffffffffffffffffff1673ffffffffffffffffffffffffffffffffffffffff168152602001908152602001600020819055505b6000600960008773ffffffffffffffffffffffffffffffffffffffff1673ffffffffffffffffffffffffffffffffffffffff16815260200190815260200160002054620151808484610b979190614663565b610ba191906146d4565b84610bac9190614705565b11610bb8576000610c28565b600960008773ffffffffffffffffffffffffffffffffffffffff1673ffffffffffffffffffffffffffffffffffffffff16815260200190815260200160002054620151808484610c089190614663565b610c1291906146d4565b84610c1d9190614705565b610c27919061462f565b5b905082811115610c36578290505b80851115610c4e57610c4986888761308d565b610cf8565b848184610c5b919061462f565b610c659190614705565b600960008873ffffffffffffffffffffffffffffffffffffffff1673ffffffffffffffffffffffffffffffffffffffff1681526020019081526020016000208190555042600a60008873ffffffffffffffffffffffffffffffffffffffff1673ffffffffffffffffffffffffffffffffffffffff16815260200190815260200160002081905550610cf787878761318a565b5b50505050505050565b60018054610d0e90614768565b80601f0160208091040260200160405190810160405280929190818152602001828054610d3a90614768565b8015610d875780601f10610d5c57610100808354040283529160200191610d87565b820191906000526020600020905b815481529060010190602001808311610d6a57829003601f168201915b505050505081565b600063150b7a0260e01b9050949350505050565b3073ffffffffffffffffffffffffffffffffffffffff163373ffffffffffffffffffffffffffffffffffffffff1614610e11576040517f08c379a0000000000000000000000000000000000000000000000000000000008152600401610e089061480b565b60405180910390fd5b6002811115610e55576040517f08c379a0000000000000000000000000000000000000000000000000000000008152600401610e4c90614877565b60405180910390fd5b604051806060016040528084815260200183815260200182815250600b60008673ffffffffffffffffffffffffffffffffffffffff1673ffffffffffffffffffffffffffffffffffffffff16815260200190815260200160002060008201518160000155602082015181600101556040820151816002015590505050505050565b3073ffffffffffffffffffffffffffffffffffffffff163373ffffffffffffffffffffffffffffffffffffffff161480610f5d5750600260009054906101000a900473ffffffffffffffffffffffffffffffffffffffff1673ffffffffffffffffffffffffffffffffffffffff163373ffffffffffffffffffffffffffffffffffffffff16145b610f9c576040517f08c379a0000000000000000000000000000000000000000000000000000000008152600401610f93906148e3565b60405180910390fd5b600073ffffffffffffffffffffffffffffffffffffffff168973ffffffffffffffffffffffffffffffffffffffff16146110125788600260006101000a81548173ffffffffffffffffffffffffffffffffffffffff021916908373ffffffffffffffffffffffffffffffffffffffff1602179055505b6000885111156111745760005b6003805490508110156110cf576000600860006003848154811061104657611045614903565b5b9060005260206000200160009054906101000a900473ffffffffffffffffffffffffffffffffffffffff1673ffffffffffffffffffffffffffffffffffffffff1673ffffffffffffffffffffffffffffffffffffffff16815260200190815260200160002060006101000a81548160ff021916908315150217905550808060010191505061101f565b5060005b885181101561115b576001600860008b84815181106110f5576110f4614903565b5b602002602001015173ffffffffffffffffffffffffffffffffffffffff1673ffffffffffffffffffffffffffffffffffffffff16815260200190815260200160002060006101000a81548160ff02191690831515021790555080806001019150506110d3565b5087600390805190602001906111729291906137ae565b505b6000871461118457866004819055505b6000861461119457856005819055505b600085146111a457846006819055505b60008451111561136857825184511480156111c0575081518451145b80156111cd575080518451145b61120c576040517f08c379a00000000000000000000000000000000000000000000000000000000081526004016112039061497e565b60405180910390fd5b60005b845181101561136657600282828151811061122d5761122c614903565b5b60200260200101511115611276576040517f08c379a000000000000000000000000000000000000000000000000000000000815260040161126d90614877565b60405180910390fd5b604051806060016040528085838151811061129457611293614903565b5b602002602001015181526020018483815181106112b4576112b3614903565b5b602002602001015181526020018383815181106112d4576112d3614903565b5b6020026020010151815250600b60008784815181106112f6576112f5614903565b5b602002602001015173ffffffffffffffffffffffffffffffffffffffff1673ffffffffffffffffffffffffffffffffffffffff168152602001908152602001600020600082015181600001556020820151816001015560408201518160020155905050808060010191505061120f565b505b505050505050505050565b600d5481565b60008054906101000a900473ffffffffffffffffffffffffffffffffffffffff1673ffffffffffffffffffffffffffffffffffffffff163373ffffffffffffffffffffffffffffffffffffffff1614806114205750600260009054906101000a900473ffffffffffffffffffffffffffffffffffffffff1673ffffffffffffffffffffffffffffffffffffffff163373ffffffffffffffffffffffffffffffffffffffff16145b61145f576040517f08c379a0000000000000000000000000000000000000000000000000000000008152600401611456906148e3565b60405180910390fd5b6000600c828154811061147557611474614903565b5b9060005260206000209060060201905060008160020154036114cc576040517f08c379a00000000000000000000000000000000000000000000000000000000081526004016114c3906149ea565b60405180910390fd5b8060030160009054906101000a900460ff161561151e576040517f08c379a000000000000000000000000000000000000000000000000000000000815260040161151590614a56565b60405180910390fd5b60018160030160006101000a81548160ff02191690831515021790555061019481600401819055505050565b600073ffffffffffffffffffffffffffffffffffffffff168273ffffffffffffffffffffffffffffffffffffffff16036115c5578034146115c0576040517f08c379a00000000000000000000000000000000000000000000000000000000081526004016115b790614ac2565b60405180910390fd5b611685565b8173ffffffffffffffffffffffffffffffffffffffff166323b872dd3330846040518463ffffffff1660e01b815260040161160293929190614ae2565b6020604051808303816000875af1158015611621573d6000803e3d6000fd5b505050506040513d601f19601f820116820180604052508101906116459190614b45565b611684576040517f08c379a000000000000000000000000000000000000000000000000000000000815260040161167b90614bbe565b60405180910390fd5b5b3373ffffffffffffffffffffffffffffffffffffffff167fd47f8695679b1495d2b6e58da0fcdfb015b967fbb928aa9aefe25206bd0ba60583836040516116cd929190614bde565b60405180910390a25050565b60086020528060005260406000206000915054906101000a900460ff1681565b600b6020528060005260406000206000915090508060000154908060010154908060020154905083565b60055481565b600f5481565b3073ffffffffffffffffffffffffffffffffffffffff163373ffffffffffffffffffffffffffffffffffffffff1614806117b4575060008054906101000a900473ffffffffffffffffffffffffffffffffffffffff1673ffffffffffffffffffffffffffffffffffffffff163373ffffffffffffffffffffffffffffffffffffffff16145b8061180c5750600260009054906101000a900473ffffffffffffffffffffffffffffffffffffffff1673ffffffffffffffffffffffffffffffffffffffff163373ffffffffffffffffffffffffffffffffffffffff16145b806118605750600860003373ffffffffffffffffffffffffffffffffffffffff1673ffffffffffffffffffffffffffffffffffffffff16815260200190815260200160002060009054906101000a900460ff165b61189f576040517f08c379a000000000000000000000000000000000000000000000000000000000815260040161189690614c9f565b60405180910390fd5b600260009054906101000a900473ffffffffffffffffffffffffffffffffffffffff1673ffffffffffffffffffffffffffffffffffffffff163373ffffffffffffffffffffffffffffffffffffffff161461193a57600e54811015611939576040517f08c379a000000000000000000000000000000000000000000000000000000000815260040161193090614d0b565b60405180910390fd5b5b80600e8190555050565b3073ffffffffffffffffffffffffffffffffffffffff163373ffffffffffffffffffffffffffffffffffffffff16146119b2576040517f08c379a00000000000000000000000000000000000000000000000000000000081526004016119a99061480b565b60405180910390fd5b60005b600380549050811015611a6557600060086000600384815481106119dc576119db614903565b5b9060005260206000200160009054906101000a900473ffffffffffffffffffffffffffffffffffffffff1673ffffffffffffffffffffffffffffffffffffffff1673ffffffffffffffffffffffffffffffffffffffff16815260200190815260200160002060006101000a81548160ff02191690831515021790555080806001019150506119b5565b5060005b8151811015611af157600160086000848481518110611a8b57611a8a614903565b5b602002602001015173ffffffffffffffffffffffffffffffffffffffff1673ffffffffffffffffffffffffffffffffffffffff16815260200190815260200160002060006101000a81548160ff0219169083151502179055508080600101915050611a69565b508060039080519060200190611b089291906137ae565b5050565b600e5481565b3073ffffffffffffffffffffffffffffffffffffffff163373ffffffffffffffffffffffffffffffffffffffff1614611b80576040517f08c379a0000000000000000000000000000000000000000000000000000000008152600401611b779061480b565b60405180910390fd5b8060068190555050565b60045481565b60065481565b600260009054906101000a900473ffffffffffffffffffffffffffffffffffffffff1673ffffffffffffffffffffffffffffffffffffffff163373ffffffffffffffffffffffffffffffffffffffff1614611c26576040517f08c379a0000000000000000000000000000000000000000000000000000000008152600401611c1d90614d77565b60405180910390fd5b600073ffffffffffffffffffffffffffffffffffffffff168573ffffffffffffffffffffffffffffffffffffffff1603611d515782471015611c9d576040517f08c379a0000000000000000000000000000000000000000000000000000000008152600401611c9490614574565b60405180910390fd5b60008473ffffffffffffffffffffffffffffffffffffffff168484604051611cc59190614dd3565b60006040518083038185875af1925050503d8060008114611d02576040519150601f19603f3d011682016040523d82523d6000602084013e611d07565b606091505b5050905080611d4b576040517f08c379a0000000000000000000000000000000000000000000000000000000008152600401611d4290614bbe565b60405180910390fd5b50611ecb565b828573ffffffffffffffffffffffffffffffffffffffff166370a08231306040518263ffffffff1660e01b8152600401611d8b9190614178565b602060405180830381865afa158015611da8573d6000803e3d6000fd5b505050506040513d601f19601f82011682018060405250810190611dcc91906144fb565b1015611e0d576040517f08c379a0000000000000000000000000000000000000000000000000000000008152600401611e0490614574565b60405180910390fd5b8473ffffffffffffffffffffffffffffffffffffffff1663a9059cbb85856040518363ffffffff1660e01b8152600401611e48929190614bde565b6020604051808303816000875af1158015611e67573d6000803e3d6000fd5b505050506040513d601f19601f82011682018060405250810190611e8b9190614b45565b611eca576040517f08c379a0000000000000000000000000000000000000000000000000000000008152600401611ec190614bbe565b60405180910390fd5b5b7fa2bd9fcfcdba69f52bcd9a520846ad4bd685b187483f53efc42d035b2ddebff08584604051611efc929190614bde565b60405180910390a180600e819055505050505050565b600260009054906101000a900473ffffffffffffffffffffffffffffffffffffffff1681565b600a6020528060005260406000206000915090505481565b3073ffffffffffffffffffffffffffffffffffffffff163373ffffffffffffffffffffffffffffffffffffffff1614611fbe576040517f08c379a0000000000000000000000000000000000000000000000000000000008152600401611fb59061480b565b60405180910390fd5b80600260006101000a81548173ffffffffffffffffffffffffffffffffffffffff021916908373ffffffffffffffffffffffffffffffffffffffff16021790555050565b60106020528160005260406000206020528060005260406000206000915091509054906101000a900460ff1681565b60008054906101000a900473ffffffffffffffffffffffffffffffffffffffff1673ffffffffffffffffffffffffffffffffffffffff163373ffffffffffffffffffffffffffffffffffffffff16146120bf576040517f08c379a00000000000000000000000000000000000000000000000000000000081526004016120b6906144c6565b60405180910390fd5b6000600e5414612104576040517f08c379a00000000000000000000000000000000000000000000000000000000081526004016120fb906145e0565b60405180910390fd5b6000600c6001816001815401808255809150500390600052602060002090600602019050838160000160006101000a81548173ffffffffffffffffffffffffffffffffffffffff021916908373ffffffffffffffffffffffffffffffffffffffff1602179055508281600101908161217c9190614f96565b5042816002018190555060008160030160006101000a81548160ff0219169083151502179055508181600501819055506001600d60008282546121bf9190614705565b925050819055507fc243f4be367411622fb5772863ed10b8a7d6941c97f4ef7ab6885e4cf7b5cd326001600c805490506121f9919061462f565b85858560405161220c9493929190615068565b60405180910390a150505050565b60096020528060005260406000206000915090505481565b60008054906101000a900473ffffffffffffffffffffffffffffffffffffffff1681565b8173ffffffffffffffffffffffffffffffffffffffff166342842e0e3330846040518463ffffffff1660e01b815260040161229393929190614ae2565b600060405180830381600087803b1580156122ad57600080fd5b505af11580156122c1573d6000803e3d6000fd5b505050503373ffffffffffffffffffffffffffffffffffffffff167f895deabb3b0da77cb5d42b057ff02ae7f731aa7ec9279822571010fdde66e1a3838360405161230d929190614bde565b60405180910390a25050565b6003818154811061232957600080fd5b906000526020600020016000915054906101000a900473ffffffffffffffffffffffffffffffffffffffff1681565b60008054906101000a900473ffffffffffffffffffffffffffffffffffffffff1673ffffffffffffffffffffffffffffffffffffffff163373ffffffffffffffffffffffffffffffffffffffff1614806123fb5750600860003373ffffffffffffffffffffffffffffffffffffffff1673ffffffffffffffffffffffffffffffffffffffff16815260200190815260200160002060009054906101000a900460ff165b61243a576040517f08c379a0000000000000000000000000000000000000000000000000000000008152600401612431906148e3565b60405180910390fd5b6001600e541115612480576040517f08c379a0000000000000000000000000000000000000000000000000000000008152600401612477906145e0565b60405180910390fd5b6000600c828154811061249657612495614903565b5b9060005260206000209060060201905060008160020154036124ed576040517f08c379a00000000000000000000000000000000000000000000000000000000081526004016124e4906149ea565b60405180910390fd5b8060030160009054906101000a900460ff161561253f576040517f08c379a000000000000000000000000000000000000000000000000000000000815260040161253690614a56565b60405180910390fd5b600860003373ffffffffffffffffffffffffffffffffffffffff1673ffffffffffffffffffffffffffffffffffffffff16815260200190815260200160002060009054906101000a900460ff168015612601575060008054906101000a900473ffffffffffffffffffffffffffffffffffffffff1673ffffffffffffffffffffffffffffffffffffffff163373ffffffffffffffffffffffffffffffffffffffff161480156125ff57504260065482600201546125fc9190614705565b11155b155b1561272a576010600083815260200190815260200160002060003373ffffffffffffffffffffffffffffffffffffffff1673ffffffffffffffffffffffffffffffffffffffff16815260200190815260200160002060009054906101000a900460ff16156126a4576040517f08c379a000000000000000000000000000000000000000000000000000000000815260040161269b90615126565b60405180910390fd5b60018160040160008282546126b99190614705565b9250508190555060016010600084815260200190815260200160002060003373ffffffffffffffffffffffffffffffffffffffff1673ffffffffffffffffffffffffffffffffffffffff16815260200190815260200160002060006101000a81548160ff0219169083151502179055505b60008054906101000a900473ffffffffffffffffffffffffffffffffffffffff1673ffffffffffffffffffffffffffffffffffffffff163373ffffffffffffffffffffffffffffffffffffffff1614801561279657504260065482600201546127939190614705565b11155b156127a75760055481600401819055505b7f15c2f311c9e0f53b50388279894aeff029a3457884a6601e924fca879e12adcc82336040516127d8929190615146565b60405180910390a16005548160040154106127f7576127f682613590565b5b5050565b6007818154811061280b57600080fd5b906000526020600020016000915054906101000a900473ffffffffffffffffffffffffffffffffffffffff1681565b600c818154811061284a57600080fd5b90600052602060002090600602016000915090508060000160009054906101000a900473ffffffffffffffffffffffffffffffffffffffff169080600101805461289390614768565b80601f01602080910402602001604051908101604052809291908181526020018280546128bf90614768565b801561290c5780601f106128e15761010080835404028352916020019161290c565b820191906000526020600020905b8154815290600101906020018083116128ef57829003601f168201915b5050505050908060020154908060030160009054906101000a900460ff16908060040154908060050154905086565b600073ffffffffffffffffffffffffffffffffffffffff1660008054906101000a900473ffffffffffffffffffffffffffffffffffffffff1673ffffffffffffffffffffffffffffffffffffffff16146129ca576040517f08c379a00000000000000000000000000000000000000000000000000000000081526004016129c1906151bb565b60405180910390fd5b866000806101000a81548173ffffffffffffffffffffffffffffffffffffffff021916908373ffffffffffffffffffffffffffffffffffffffff1602179055508560019081612a199190615236565b5084600260006101000a81548173ffffffffffffffffffffffffffffffffffffffff021916908373ffffffffffffffffffffffffffffffffffffffff1602179055508260048190555081600581905550806006819055506001600f8190555060005b8451811015612b0357600160086000878481518110612a9d57612a9c614903565b5b602002602001015173ffffffffffffffffffffffffffffffffffffffff1673ffffffffffffffffffffffffffffffffffffffff16815260200190815260200160002060006101000a81548160ff0219169083151502179055508080600101915050612a7b565b508360039080519060200190612b1a9291906137ae565b5050505050505050565b3073ffffffffffffffffffffffffffffffffffffffff163373ffffffffffffffffffffffffffffffffffffffff1614612b92576040517f08c379a0000000000000000000000000000000000000000000000000000000008152600401612b899061480b565b60405180910390fd5b8060058190555050565b600080600073ffffffffffffffffffffffffffffffffffffffff168373ffffffffffffffffffffffffffffffffffffffff1614612c52578273ffffffffffffffffffffffffffffffffffffffff166370a08231306040518263ffffffff1660e01b8152600401612c0c9190614178565b602060405180830381865afa158015612c29573d6000803e3d6000fd5b505050506040513d601f19601f82011682018060405250810190612c4d91906144fb565b612c54565b475b90506000600b60008573ffffffffffffffffffffffffffffffffffffffff1673ffffffffffffffffffffffffffffffffffffffff1681526020019081526020016000209050600081600001541115612cb457806000015492505050612d3f565b600081600101541115612ce6576064816001015483612cd39190614663565b612cdd91906146d4565b92505050612d3f565b6001816002015403612cfd57600092505050612d3f565b6002816002015403612d20576c0c9f2c9cd04674edea4000000092505050612d3f565b606460045483612d309190614663565b612d3a91906146d4565b925050505b919050565b600080600073ffffffffffffffffffffffffffffffffffffffff168473ffffffffffffffffffffffffffffffffffffffff1614612dfa578373ffffffffffffffffffffffffffffffffffffffff166370a08231306040518263ffffffff1660e01b8152600401612db49190614178565b602060405180830381865afa158015612dd1573d6000803e3d6000fd5b505050506040513d601f19601f82011682018060405250810190612df591906144fb565b612dfc565b475b905082811015612e41576040517f08c379a0000000000000000000000000000000000000000000000000000000008152600401612e3890614574565b60405180910390fd5b6000612e4c85612b9c565b90506000600a60008773ffffffffffffffffffffffffffffffffffffffff1673ffffffffffffffffffffffffffffffffffffffff1681526020019081526020016000205442612e9b919061462f565b90506000600960008873ffffffffffffffffffffffffffffffffffffffff1673ffffffffffffffffffffffffffffffffffffffff168152602001908152602001600020549050620151808210612ef057600090505b6000600960008973ffffffffffffffffffffffffffffffffffffffff1673ffffffffffffffffffffffffffffffffffffffff16815260200190815260200160002054620151808585612f429190614663565b612f4c91906146d4565b85612f579190614705565b11612f63576000612fd3565b600960008973ffffffffffffffffffffffffffffffffffffffff1673ffffffffffffffffffffffffffffffffffffffff16815260200190815260200160002054620151808585612fb39190614663565b612fbd91906146d4565b85612fc89190614705565b612fd2919061462f565b5b905083811115612fe1578390505b8087116130045760008703612ff65780612ff8565b865b9550505050505061300e565b6000955050505050505b9392505050565b3073ffffffffffffffffffffffffffffffffffffffff163373ffffffffffffffffffffffffffffffffffffffff1614613083576040517f08c379a000000000000000000000000000000000000000000000000000000000815260040161307a9061480b565b60405180910390fd5b8060048190555050565b6060600073ffffffffffffffffffffffffffffffffffffffff168473ffffffffffffffffffffffffffffffffffffffff16036130e5576040518060200160405280600081525090506130e0838284612031565b613184565b82826040516024016130f8929190614bde565b6040516020818303038152906040527fa9059cbb000000000000000000000000000000000000000000000000000000007bffffffffffffffffffffffffffffffffffffffffffffffffffffffff19166020820180517bffffffffffffffffffffffffffffffffffffffffffffffffffffffff8381831617835250505050905061318384826000612031565b5b50505050565b600073ffffffffffffffffffffffffffffffffffffffff168273ffffffffffffffffffffffffffffffffffffffff16036132705760008373ffffffffffffffffffffffffffffffffffffffff16826040516131e49061532e565b60006040518083038185875af1925050503d8060008114613221576040519150601f19603f3d011682016040523d82523d6000602084013e613226565b606091505b505090508061326a576040517f08c379a000000000000000000000000000000000000000000000000000000000815260040161326190614bbe565b60405180910390fd5b5061332e565b8173ffffffffffffffffffffffffffffffffffffffff1663a9059cbb84836040518363ffffffff1660e01b81526004016132ab929190614bde565b6020604051808303816000875af11580156132ca573d6000803e3d6000fd5b505050506040513d601f19601f820116820180604052508101906132ee9190614b45565b61332d576040517f08c379a000000000000000000000000000000000000000000000000000000000815260040161332490614bbe565b60405180910390fd5b5b7fa2bd9fcfcdba69f52bcd9a520846ad4bd685b187483f53efc42d035b2ddebff0828260405161335f929190614bde565b60405180910390a16000600c6001816001815401808255809150500390600052602060002090600602019050600073ffffffffffffffffffffffffffffffffffffffff168373ffffffffffffffffffffffffffffffffffffffff16036133c557836133c7565b825b8160000160006101000a81548173ffffffffffffffffffffffffffffffffffffffff021916908373ffffffffffffffffffffffffffffffffffffffff160217905550838260405160240161341c929190614bde565b6040516020818303038152906040527fa9059cbb000000000000000000000000000000000000000000000000000000007bffffffffffffffffffffffffffffffffffffffffffffffffffffffff19166020820180517bffffffffffffffffffffffffffffffffffffffffffffffffffffffff83818316178352505050508160010190816134a99190614f96565b5042816002018190555060018160030160006101000a81548160ff0219169083151502179055508181600501819055506001600d60008282546134ec9190614705565b925050819055507fc243f4be367411622fb5772863ed10b8a7d6941c97f4ef7ab6885e4cf7b5cd326001600c80549050613526919061462f565b856000604051613538939291906153a1565b60405180910390a17f518df7417ea3ad72d40e6f8bd20a6344a813b8b5e5cc0638f8cbd1487107c3396001600c80549050613573919061462f565b856040516135829291906153eb565b60405180910390a150505050565b6000600c82815481106135a6576135a5614903565b5b90600052602060002090600602019050600554816004015410156135ff576040517f08c379a00000000000000000000000000000000000000000000000000000000081526004016135f690615473565b60405180910390fd5b8060030160009054906101000a900460ff1615613651576040517f08c379a000000000000000000000000000000000000000000000000000000000815260040161364890614a56565b60405180910390fd5b60018160030160006101000a81548160ff02191690831515021790555060008160000160009054906101000a900473ffffffffffffffffffffffffffffffffffffffff1673ffffffffffffffffffffffffffffffffffffffff168260050154836001016040516136c19190615516565b60006040518083038185875af1925050503d80600081146136fe576040519150601f19603f3d011682016040523d82523d6000602084013e613703565b606091505b5050905080613747576040517f08c379a000000000000000000000000000000000000000000000000000000000815260040161373e90615579565b60405180910390fd5b7f518df7417ea3ad72d40e6f8bd20a6344a813b8b5e5cc0638f8cbd1487107c339838360000160009054906101000a900473ffffffffffffffffffffffffffffffffffffffff16846001016040516137a19392919061561d565b60405180910390a1505050565b828054828255906000526020600020908101928215613827579160200282015b828111156138265782518260006101000a81548173ffffffffffffffffffffffffffffffffffffffff021916908373ffffffffffffffffffffffffffffffffffffffff160217905550916020019190600101906137ce565b5b5090506138349190613838565b5090565b5b80821115613851576000816000905550600101613839565b5090565b6000604051905090565b600080fd5b600080fd5b600073ffffffffffffffffffffffffffffffffffffffff82169050919050565b600061389482613869565b9050919050565b6138a481613889565b81146138af57600080fd5b50565b6000813590506138c18161389b565b92915050565b6000819050919050565b6138da816138c7565b81146138e557600080fd5b50565b6000813590506138f7816138d1565b92915050565b6000806000606084860312156139165761391561385f565b5b6000613924868287016138b2565b9350506020613935868287016138b2565b9250506040613946868287016138e8565b9150509250925092565b600081519050919050565b600082825260208201905092915050565b60005b8381101561398a57808201518184015260208101905061396f565b60008484015250505050565b6000601f19601f8301169050919050565b60006139b282613950565b6139bc818561395b565b93506139cc81856020860161396c565b6139d581613996565b840191505092915050565b600060208201905081810360008301526139fa81846139a7565b905092915050565b600080fd5b600080fd5b7f4e487b7100000000000000000000000000000000000000000000000000000000600052604160045260246000fd5b613a4482613996565b810181811067ffffffffffffffff82111715613a6357613a62613a0c565b5b80604052505050565b6000613a76613855565b9050613a828282613a3b565b919050565b600067ffffffffffffffff821115613aa257613aa1613a0c565b5b613aab82613996565b9050602081019050919050565b82818337600083830152505050565b6000613ada613ad584613a87565b613a6c565b905082815260208101848484011115613af657613af5613a07565b5b613b01848285613ab8565b509392505050565b600082601f830112613b1e57613b1d613a02565b5b8135613b2e848260208601613ac7565b91505092915050565b60008060008060808587031215613b5157613b5061385f565b5b6000613b5f878288016138b2565b9450506020613b70878288016138b2565b9350506040613b81878288016138e8565b925050606085013567ffffffffffffffff811115613ba257613ba1613864565b5b613bae87828801613b09565b91505092959194509250565b60007fffffffff0000000000000000000000000000000000000000000000000000000082169050919050565b613bef81613bba565b82525050565b6000602082019050613c0a6000830184613be6565b92915050565b60008060008060808587031215613c2a57613c2961385f565b5b6000613c38878288016138b2565b9450506020613c49878288016138e8565b9350506040613c5a878288016138e8565b9250506060613c6b878288016138e8565b91505092959194509250565b600067ffffffffffffffff821115613c9257613c91613a0c565b5b602082029050602081019050919050565b600080fd5b6000613cbb613cb684613c77565b613a6c565b90508083825260208201905060208402830185811115613cde57613cdd613ca3565b5b835b81811015613d075780613cf388826138b2565b845260208401935050602081019050613ce0565b5050509392505050565b600082601f830112613d2657613d25613a02565b5b8135613d36848260208601613ca8565b91505092915050565b600067ffffffffffffffff821115613d5a57613d59613a0c565b5b602082029050602081019050919050565b6000613d7e613d7984613d3f565b613a6c565b90508083825260208201905060208402830185811115613da157613da0613ca3565b5b835b81811015613dca5780613db688826138e8565b845260208401935050602081019050613da3565b5050509392505050565b600082601f830112613de957613de8613a02565b5b8135613df9848260208601613d6b565b91505092915050565b60008060008060008060008060006101208a8c031215613e2557613e2461385f565b5b6000613e338c828d016138b2565b99505060208a013567ffffffffffffffff811115613e5457613e53613864565b5b613e608c828d01613d11565b9850506040613e718c828d016138e8565b9750506060613e828c828d016138e8565b9650506080613e938c828d016138e8565b95505060a08a013567ffffffffffffffff811115613eb457613eb3613864565b5b613ec08c828d01613d11565b94505060c08a013567ffffffffffffffff811115613ee157613ee0613864565b5b613eed8c828d01613dd4565b93505060e08a013567ffffffffffffffff811115613f0e57613f0d613864565b5b613f1a8c828d01613dd4565b9250506101008a013567ffffffffffffffff811115613f3c57613f3b613864565b5b613f488c828d01613dd4565b9150509295985092959850929598565b613f61816138c7565b82525050565b6000602082019050613f7c6000830184613f58565b92915050565b600060208284031215613f9857613f9761385f565b5b6000613fa6848285016138e8565b91505092915050565b60008060408385031215613fc657613fc561385f565b5b6000613fd4858286016138b2565b9250506020613fe5858286016138e8565b9150509250929050565b6000602082840312156140055761400461385f565b5b6000614013848285016138b2565b91505092915050565b60008115159050919050565b6140318161401c565b82525050565b600060208201905061404c6000830184614028565b92915050565b60006060820190506140676000830186613f58565b6140746020830185613f58565b6140816040830184613f58565b949350505050565b60006020828403121561409f5761409e61385f565b5b600082013567ffffffffffffffff8111156140bd576140bc613864565b5b6140c984828501613d11565b91505092915050565b600080600080600060a086880312156140ee576140ed61385f565b5b60006140fc888289016138b2565b955050602061410d888289016138b2565b945050604061411e888289016138e8565b935050606086013567ffffffffffffffff81111561413f5761413e613864565b5b61414b88828901613b09565b925050608061415c888289016138e8565b9150509295509295909350565b61417281613889565b82525050565b600060208201905061418d6000830184614169565b92915050565b600080604083850312156141aa576141a961385f565b5b60006141b8858286016138e8565b92505060206141c9858286016138b2565b9150509250929050565b6000806000606084860312156141ec576141eb61385f565b5b60006141fa868287016138b2565b935050602084013567ffffffffffffffff81111561421b5761421a613864565b5b61422786828701613b09565b9250506040614238868287016138e8565b9150509250925092565b600081519050919050565b600082825260208201905092915050565b600061426982614242565b614273818561424d565b935061428381856020860161396c565b61428c81613996565b840191505092915050565b600060c0820190506142ac6000830189614169565b81810360208301526142be818861425e565b90506142cd6040830187613f58565b6142da6060830186614028565b6142e76080830185613f58565b6142f460a0830184613f58565b979650505050505050565b600067ffffffffffffffff82111561431a57614319613a0c565b5b61432382613996565b9050602081019050919050565b600061434361433e846142ff565b613a6c565b90508281526020810184848401111561435f5761435e613a07565b5b61436a848285613ab8565b509392505050565b600082601f83011261438757614386613a02565b5b8135614397848260208601614330565b91505092915050565b600080600080600080600060e0888a0312156143bf576143be61385f565b5b60006143cd8a828b016138b2565b975050602088013567ffffffffffffffff8111156143ee576143ed613864565b5b6143fa8a828b01614372565b965050604061440b8a828b016138b2565b955050606088013567ffffffffffffffff81111561442c5761442b613864565b5b6144388a828b01613d11565b94505060806144498a828b016138e8565b93505060a061445a8a828b016138e8565b92505060c061446b8a828b016138e8565b91505092959891949750929550565b7f4e6f7420746865206f776e657200000000000000000000000000000000000000600082015250565b60006144b0600d8361395b565b91506144bb8261447a565b602082019050919050565b600060208201905081810360008301526144df816144a3565b9050919050565b6000815190506144f5816138d1565b92915050565b6000602082840312156145115761451061385f565b5b600061451f848285016144e6565b91505092915050565b7f496e73756666696369656e742062616c616e6365000000000000000000000000600082015250565b600061455e60148361395b565b915061456982614528565b602082019050919050565b6000602082019050818103600083015261458d81614551565b9050919050565b7f467265657a652069732061637469766500000000000000000000000000000000600082015250565b60006145ca60108361395b565b91506145d582614594565b602082019050919050565b600060208201905081810360008301526145f9816145bd565b9050919050565b7f4e487b7100000000000000000000000000000000000000000000000000000000600052601160045260246000fd5b600061463a826138c7565b9150614645836138c7565b925082820390508181111561465d5761465c614600565b5b92915050565b600061466e826138c7565b9150614679836138c7565b9250828202614687816138c7565b9150828204841483151761469e5761469d614600565b5b5092915050565b7f4e487b7100000000000000000000000000000000000000000000000000000000600052601260045260246000fd5b60006146df826138c7565b91506146ea836138c7565b9250826146fa576146f96146a5565b5b828204905092915050565b6000614710826138c7565b915061471b836138c7565b925082820190508082111561473357614732614600565b5b92915050565b7f4e487b7100000000000000000000000000000000000000000000000000000000600052602260045260246000fd5b6000600282049050600182168061478057607f821691505b60208210810361479357614792614739565b5b50919050565b7f43616e206f6e6c792062652063616c6c656420627920636f6e7472616374206960008201527f7473656c66000000000000000000000000000000000000000000000000000000602082015250565b60006147f560258361395b565b915061480082614799565b604082019050919050565b60006020820190508181036000830152614824816147e8565b9050919050565b7f496e76616c696420757365426173654c696d69742076616c7565000000000000600082015250565b6000614861601a8361395b565b915061486c8261482b565b602082019050919050565b6000602082019050818103600083015261489081614854565b9050919050565b7f4e6f7420617574686f72697a6564000000000000000000000000000000000000600082015250565b60006148cd600e8361395b565b91506148d882614897565b602082019050919050565b600060208201905081810360008301526148fc816148c0565b9050919050565b7f4e487b7100000000000000000000000000000000000000000000000000000000600052603260045260246000fd5b7f496e70757420617272617973206c656e677468206d69736d6174636800000000600082015250565b6000614968601c8361395b565b915061497382614932565b602082019050919050565b600060208201905081810360008301526149978161495b565b9050919050565b7f5472616e73616374696f6e206e6f7420666f756e640000000000000000000000600082015250565b60006149d460158361395b565b91506149df8261499e565b602082019050919050565b60006020820190508181036000830152614a03816149c7565b9050919050565b7f5472616e73616374696f6e20616c726561647920657865637574656400000000600082015250565b6000614a40601c8361395b565b9150614a4b82614a0a565b602082019050919050565b60006020820190508181036000830152614a6f81614a33565b9050919050565b7f496e636f72726563742045544820616d6f756e74000000000000000000000000600082015250565b6000614aac60148361395b565b9150614ab782614a76565b602082019050919050565b60006020820190508181036000830152614adb81614a9f565b9050919050565b6000606082019050614af76000830186614169565b614b046020830185614169565b614b116040830184613f58565b949350505050565b614b228161401c565b8114614b2d57600080fd5b50565b600081519050614b3f81614b19565b92915050565b600060208284031215614b5b57614b5a61385f565b5b6000614b6984828501614b30565b91505092915050565b7f5472616e73666572206661696c65640000000000000000000000000000000000600082015250565b6000614ba8600f8361395b565b9150614bb382614b72565b602082019050919050565b60006020820190508181036000830152614bd781614b9b565b9050919050565b6000604082019050614bf36000830185614169565b614c006020830184613f58565b9392505050565b7f43616e206f6e6c792062652063616c6c656420627920636f6e7472616374206960008201527f7473656c662c206f776e65722c207265636f766572792061646472657373206f60208201527f722077686974656c697374656420616464726573736573000000000000000000604082015250565b6000614c8960578361395b565b9150614c9482614c07565b606082019050919050565b60006020820190508181036000830152614cb881614c7c565b9050919050565b7f43616e6e6f7420756e667265657a650000000000000000000000000000000000600082015250565b6000614cf5600f8361395b565b9150614d0082614cbf565b602082019050919050565b60006020820190508181036000830152614d2481614ce8565b9050919050565b7f4e6f7420746865207265636f7665727920616464726573730000000000000000600082015250565b6000614d6160188361395b565b9150614d6c82614d2b565b602082019050919050565b60006020820190508181036000830152614d9081614d54565b9050919050565b600081905092915050565b6000614dad82614242565b614db78185614d97565b9350614dc781856020860161396c565b80840191505092915050565b6000614ddf8284614da2565b915081905092915050565b60008190508160005260206000209050919050565b60006020601f8301049050919050565b600082821b905092915050565b600060088302614e4c7fffffffffffffffffffffffffffffffffffffffffffffffffffffffffffffffff82614e0f565b614e568683614e0f565b95508019841693508086168417925050509392505050565b6000819050919050565b6000614e93614e8e614e89846138c7565b614e6e565b6138c7565b9050919050565b6000819050919050565b614ead83614e78565b614ec1614eb982614e9a565b848454614e1c565b825550505050565b600090565b614ed6614ec9565b614ee1818484614ea4565b505050565b5b81811015614f0557614efa600082614ece565b600181019050614ee7565b5050565b601f821115614f4a57614f1b81614dea565b614f2484614dff565b81016020851015614f33578190505b614f47614f3f85614dff565b830182614ee6565b50505b505050565b600082821c905092915050565b6000614f6d60001984600802614f4f565b1980831691505092915050565b6000614f868383614f5c565b9150826002028217905092915050565b614f9f82614242565b67ffffffffffffffff811115614fb857614fb7613a0c565b5b614fc28254614768565b614fcd828285614f09565b600060209050601f8311600181146150005760008415614fee578287015190505b614ff88582614f7a565b865550615060565b601f19841661500e86614dea565b60005b8281101561503657848901518255600182019150602085019450602081019050615011565b86831015615053578489015161504f601f891682614f5c565b8355505b6001600288020188555050505b505050505050565b600060808201905061507d6000830187613f58565b61508a6020830186614169565b818103604083015261509c818561425e565b90506150ab6060830184613f58565b95945050505050565b7f5472616e73616374696f6e20616c726561647920636f6e6669726d656420627960008201527f2074686973206164647265737300000000000000000000000000000000000000602082015250565b6000615110602d8361395b565b915061511b826150b4565b604082019050919050565b6000602082019050818103600083015261513f81615103565b9050919050565b600060408201905061515b6000830185613f58565b6151686020830184614169565b9392505050565b7f416c726561647920696e697469616c697a656400000000000000000000000000600082015250565b60006151a560138361395b565b91506151b08261516f565b602082019050919050565b600060208201905081810360008301526151d481615198565b9050919050565b60008190508160005260206000209050919050565b601f82111561523157615202816151db565b61520b84614dff565b8101602085101561521a578190505b61522e61522685614dff565b830182614ee6565b50505b505050565b61523f82613950565b67ffffffffffffffff81111561525857615257613a0c565b5b6152628254614768565b61526d8282856151f0565b600060209050601f8311600181146152a0576000841561528e578287015190505b6152988582614f7a565b865550615300565b601f1984166152ae866151db565b60005b828110156152d6578489015182556001820191506020850194506020810190506152b1565b868310156152f357848901516152ef601f891682614f5c565b8355505b6001600288020188555050505b505050505050565b50565b6000615318600083614d97565b915061532382615308565b600082019050919050565b60006153398261530b565b9150819050919050565b600061535060008361424d565b915061535b82615308565b600082019050919050565b6000819050919050565b600061538b61538661538184615366565b614e6e565b6138c7565b9050919050565b61539b81615370565b82525050565b60006080820190506153b66000830186613f58565b6153c36020830185614169565b81810360408301526153d481615343565b90506153e36060830184615392565b949350505050565b60006060820190506154006000830185613f58565b61540d6020830184614169565b818103604083015261541e81615343565b90509392505050565b7f4e6f7420656e6f75676820636f6e6669726d6174696f6e730000000000000000600082015250565b600061545d60188361395b565b915061546882615427565b602082019050919050565b6000602082019050818103600083015261548c81615450565b9050919050565b600081546154a081614768565b6154aa8186614d97565b945060018216600081146154c557600181146154da5761550d565b60ff198316865281151582028601935061550d565b6154e385614dea565b60005b83811015615505578154818901526001820191506020810190506154e6565b838801955050505b50505092915050565b60006155228284615493565b915081905092915050565b7f5472616e73616374696f6e20657865637574696f6e206661696c656400000000600082015250565b6000615563601c8361395b565b915061556e8261552d565b602082019050919050565b6000602082019050818103600083015261559281615556565b9050919050565b600081546155a681614768565b6155b0818661424d565b945060018216600081146155cb57600181146155e157615614565b60ff198316865281151560200286019350615614565b6155ea85614dea565b60005b8381101561560c578154818901526001820191506020810190506155ed565b808801955050505b50505092915050565b60006060820190506156326000830186613f58565b61563f6020830185614169565b81810360408301526156518184615599565b905094935050505056fea26469706673582212209f0a6f94cb9d3e427b34895aa2f6c99f13c9f1aa7ba7c1f1cdd325430dbca6a664736f6c63430008180033",
  "linkReferences": {},
  "deployedLinkReferences": {}
}