{
  "_format": "hh-sol-artifact-1",
  "contractName": "Vault2",
  "sourceName": "contracts/Vault.sol",
  "abi": [
    {
      "anonymous": false,
      "inputs": [
        {
          "indexed": false,
          "internalType": "address",
          "name": "nft",
          "type": "address"
        },
        {
          "indexed": false,
          "internalType": "uint256",
          "name": "tokenId",
          "type": "uint256"
        },
        {
          "indexed": true,
          "internalType": "address",
          "name": "depositor",
          "type": "address"
        }
      ],
      "name": "NFTDeposited",
      "type": "event"
    },
    {
      "anonymous": false,
      "inputs": [
        {
          "indexed": false,
          "internalType": "address",
          "name": "token",
          "type": "address"
        },
        {
          "indexed": false,
          "internalType": "uint256",
          "name": "amount",
          "type": "uint256"
        },
        {
          "indexed": true,
          "internalType": "address",
          "name": "depositor",
          "type": "address"
        }
      ],
      "name": "TokenDeposited",
      "type": "event"
    },
    {
      "anonymous": false,
      "inputs": [
        {
          "indexed": false,
          "internalType": "address",
          "name": "token",
          "type": "address"
        },
        {
          "indexed": false,
          "internalType": "uint256",
          "name": "amount",
          "type": "uint256"
        }
      ],
      "name": "TokenWithdrawn",
      "type": "event"
    },
    {
      "anonymous": false,
      "inputs": [
        {
          "indexed": false,
          "internalType": "uint256",
          "name": "txIndex",
          "type": "uint256"
        },
        {
          "indexed": false,
          "internalType": "address",
          "name": "confirmer",
          "type": "address"
        }
      ],
      "name": "TransactionConfirmed",
      "type": "event"
    },
    {
      "anonymous": false,
      "inputs": [
        {
          "indexed": false,
          "internalType": "uint256",
          "name": "txIndex",
          "type": "uint256"
        },
        {
          "indexed": false,
          "internalType": "address",
          "name": "to",
          "type": "address"
        },
        {
          "indexed": false,
          "internalType": "bytes",
          "name": "data",
          "type": "bytes"
        }
      ],
      "name": "TransactionExecuted",
      "type": "event"
    },
    {
      "anonymous": false,
      "inputs": [
        {
          "indexed": false,
          "internalType": "uint256",
          "name": "txIndex",
          "type": "uint256"
        },
        {
          "indexed": false,
          "internalType": "address",
          "name": "to",
          "type": "address"
        },
        {
          "indexed": false,
          "internalType": "bytes",
          "name": "data",
          "type": "bytes"
        },
        {
          "indexed": false,
          "internalType": "uint256",
          "name": "amount",
          "type": "uint256"
        }
      ],
      "name": "TransactionQueued",
      "type": "event"
    },
    {
      "inputs": [
        {
          "internalType": "uint256",
          "name": "",
          "type": "uint256"
        }
      ],
      "name": "assets",
      "outputs": [
        {
          "internalType": "address",
          "name": "",
          "type": "address"
        }
      ],
      "stateMutability": "view",
      "type": "function"
    },
    {
      "inputs": [
        {
          "internalType": "uint256",
          "name": "txIndex",
          "type": "uint256"
        }
      ],
      "name": "cancelTransaction",
      "outputs": [],
      "stateMutability": "nonpayable",
      "type": "function"
    },
    {
      "inputs": [
        {
          "internalType": "uint256",
          "name": "txIndex",
          "type": "uint256"
        }
      ],
      "name": "confirmTransaction",
      "outputs": [],
      "stateMutability": "nonpayable",
      "type": "function"
    },
    {
      "inputs": [
        {
          "internalType": "uint256",
          "name": "",
          "type": "uint256"
        },
        {
          "internalType": "address",
          "name": "",
          "type": "address"
        }
      ],
      "name": "confirmed",
      "outputs": [
        {
          "internalType": "bool",
          "name": "",
          "type": "bool"
        }
      ],
      "stateMutability": "view",
      "type": "function"
    },
    {
      "inputs": [],
      "name": "dailyLimit",
      "outputs": [
        {
          "internalType": "uint256",
          "name": "",
          "type": "uint256"
        }
      ],
      "stateMutability": "view",
      "type": "function"
    },
    {
      "inputs": [
        {
          "internalType": "address",
          "name": "",
          "type": "address"
        }
      ],
      "name": "dailyWithdrawnAmount",
      "outputs": [
        {
          "internalType": "uint256",
          "name": "",
          "type": "uint256"
        }
      ],
      "stateMutability": "view",
      "type": "function"
    },
    {
      "inputs": [],
      "name": "delay",
      "outputs": [
        {
          "internalType": "uint256",
          "name": "",
          "type": "uint256"
        }
      ],
      "stateMutability": "view",
      "type": "function"
    },
    {
      "inputs": [
        {
          "internalType": "address",
          "name": "nft",
          "type": "address"
        },
        {
          "internalType": "uint256",
          "name": "tokenId",
          "type": "uint256"
        }
      ],
      "name": "depositNFT",
      "outputs": [],
      "stateMutability": "nonpayable",
      "type": "function"
    },
    {
      "inputs": [
        {
          "internalType": "address",
          "name": "token",
          "type": "address"
        },
        {
          "internalType": "uint256",
          "name": "amount",
          "type": "uint256"
        }
      ],
      "name": "depositToken",
      "outputs": [],
      "stateMutability": "payable",
      "type": "function"
    },
    {
      "inputs": [],
      "name": "freeze",
      "outputs": [
        {
          "internalType": "uint256",
          "name": "",
          "type": "uint256"
        }
      ],
      "stateMutability": "view",
      "type": "function"
    },
    {
      "inputs": [
        {
          "internalType": "uint256",
          "name": "freezeL",
          "type": "uint256"
        }
      ],
      "name": "freezeLock",
      "outputs": [],
      "stateMutability": "nonpayable",
      "type": "function"
    },
    {
      "inputs": [
        {
          "internalType": "address",
          "name": "to",
          "type": "address"
        },
        {
          "internalType": "address",
          "name": "token",
          "type": "address"
        },
        {
          "internalType": "uint256",
          "name": "amount",
          "type": "uint256"
        }
      ],
      "name": "getLimit",
      "outputs": [
        {
          "internalType": "uint256",
          "name": "",
          "type": "uint256"
        }
      ],
      "stateMutability": "view",
      "type": "function"
    },
    {
      "inputs": [
        {
          "internalType": "address",
          "name": "token",
          "type": "address"
        }
      ],
      "name": "getLimitAmount",
      "outputs": [
        {
          "internalType": "uint256",
          "name": "",
          "type": "uint256"
        }
      ],
      "stateMutability": "view",
      "type": "function"
    },
    {
      "inputs": [
        {
          "internalType": "address",
          "name": "_owner",
          "type": "address"
        },
        {
          "internalType": "string",
          "name": "_name",
          "type": "string"
        },
        {
          "internalType": "address",
          "name": "_recoveryAddress",
          "type": "address"
        },
        {
          "internalType": "address[]",
          "name": "_whitelistedAddresses",
          "type": "address[]"
        },
        {
          "internalType": "uint256",
          "name": "_dailyLimit",
          "type": "uint256"
        },
        {
          "internalType": "uint256",
          "name": "_threshold",
          "type": "uint256"
        },
        {
          "internalType": "uint256",
          "name": "_delay",
          "type": "uint256"
        }
      ],
      "name": "init",
      "outputs": [],
      "stateMutability": "nonpayable",
      "type": "function"
    },
    {
      "inputs": [
        {
          "internalType": "address",
          "name": "",
          "type": "address"
        }
      ],
      "name": "isWhitelisted",
      "outputs": [
        {
          "internalType": "bool",
          "name": "",
          "type": "bool"
        }
      ],
      "stateMutability": "view",
      "type": "function"
    },
    {
      "inputs": [
        {
          "internalType": "address",
          "name": "",
          "type": "address"
        }
      ],
      "name": "lastWithdrawTimestamp",
      "outputs": [
        {
          "internalType": "uint256",
          "name": "",
          "type": "uint256"
        }
      ],
      "stateMutability": "view",
      "type": "function"
    },
    {
      "inputs": [],
      "name": "name",
      "outputs": [
        {
          "internalType": "string",
          "name": "",
          "type": "string"
        }
      ],
      "stateMutability": "view",
      "type": "function"
    },
    {
      "inputs": [
        {
          "internalType": "address",
          "name": "_operator",
          "type": "address"
        },
        {
          "internalType": "address",
          "name": "_from",
          "type": "address"
        },
        {
          "internalType": "uint256",
          "name": "_tokenId",
          "type": "uint256"
        },
        {
          "internalType": "bytes",
          "name": "_data",
          "type": "bytes"
        }
      ],
      "name": "onERC721Received",
      "outputs": [
        {
          "internalType": "bytes4",
          "name": "",
          "type": "bytes4"
        }
      ],
      "stateMutability": "nonpayable",
      "type": "function"
    },
    {
      "inputs": [],
      "name": "owner",
      "outputs": [
        {
          "internalType": "address",
          "name": "",
          "type": "address"
        }
      ],
      "stateMutability": "view",
      "type": "function"
    },
    {
      "inputs": [
        {
          "internalType": "address",
          "name": "to",
          "type": "address"
        },
        {
          "internalType": "bytes",
          "name": "data",
          "type": "bytes"
        },
        {
          "internalType": "uint256",
          "name": "amount",
          "type": "uint256"
        }
      ],
      "name": "queueTransaction",
      "outputs": [],
      "stateMutability": "nonpayable",
      "type": "function"
    },
    {
      "inputs": [
        {
          "internalType": "uint256",
          "name": "",
          "type": "uint256"
        }
      ],
      "name": "queuedTransactions",
      "outputs": [
        {
          "internalType": "address",
          "name": "to",
          "type": "address"
        },
        {
          "internalType": "bytes",
          "name": "data",
          "type": "bytes"
        },
        {
          "internalType": "uint256",
          "name": "timestamp",
          "type": "uint256"
        },
        {
          "internalType": "bool",
          "name": "executed",
          "type": "bool"
        },
        {
          "internalType": "uint256",
          "name": "confirmations",
          "type": "uint256"
        },
        {
          "internalType": "uint256",
          "name": "amount",
          "type": "uint256"
        }
      ],
      "stateMutability": "view",
      "type": "function"
    },
    {
      "inputs": [],
      "name": "queuedTxs",
      "outputs": [
        {
          "internalType": "uint256",
          "name": "",
          "type": "uint256"
        }
      ],
      "stateMutability": "view",
      "type": "function"
    },
    {
      "inputs": [
        {
          "internalType": "address",
          "name": "token",
          "type": "address"
        },
        {
          "internalType": "address",
          "name": "to",
          "type": "address"
        },
        {
          "internalType": "uint256",
          "name": "amount",
          "type": "uint256"
        },
        {
          "internalType": "bytes",
          "name": "data",
          "type": "bytes"
        },
        {
          "internalType": "uint256",
          "name": "freezeL",
          "type": "uint256"
        }
      ],
      "name": "recover",
      "outputs": [],
      "stateMutability": "nonpayable",
      "type": "function"
    },
    {
      "inputs": [],
      "name": "recoveryAddress",
      "outputs": [
        {
          "internalType": "address",
          "name": "",
          "type": "address"
        }
      ],
      "stateMutability": "view",
      "type": "function"
    },
    {
      "inputs": [
        {
          "internalType": "address",
          "name": "token",
          "type": "address"
        },
        {
          "internalType": "uint256",
          "name": "fixedLimit",
          "type": "uint256"
        },
        {
          "internalType": "uint256",
          "name": "percentageLimit",
          "type": "uint256"
        },
        {
          "internalType": "uint256",
          "name": "useBaseLimit",
          "type": "uint256"
        }
      ],
      "name": "setTokenLimit",
      "outputs": [],
      "stateMutability": "nonpayable",
      "type": "function"
    },
    {
      "inputs": [],
      "name": "threshold",
      "outputs": [
        {
          "internalType": "uint256",
          "name": "",
          "type": "uint256"
        }
      ],
      "stateMutability": "view",
      "type": "function"
    },
    {
      "inputs": [
        {
          "internalType": "address",
          "name": "",
          "type": "address"
        }
      ],
      "name": "tokenLimits",
      "outputs": [
        {
          "internalType": "uint256",
          "name": "fixedLimit",
          "type": "uint256"
        },
        {
          "internalType": "uint256",
          "name": "percentageLimit",
          "type": "uint256"
        },
        {
          "internalType": "uint256",
          "name": "useBaseLimit",
          "type": "uint256"
        }
      ],
      "stateMutability": "view",
      "type": "function"
    },
    {
      "inputs": [
        {
          "internalType": "uint256",
          "name": "newDailyLimit",
          "type": "uint256"
        }
      ],
      "name": "updateDailyLimit",
      "outputs": [],
      "stateMutability": "nonpayable",
      "type": "function"
    },
    {
      "inputs": [
        {
          "internalType": "uint256",
          "name": "newDelay",
          "type": "uint256"
        }
      ],
      "name": "updateDelay",
      "outputs": [],
      "stateMutability": "nonpayable",
      "type": "function"
    },
    {
      "inputs": [
        {
          "internalType": "address",
          "name": "newRecoveryAddress",
          "type": "address"
        }
      ],
      "name": "updateRecoveryAddress",
      "outputs": [],
      "stateMutability": "nonpayable",
      "type": "function"
    },
    {
      "inputs": [
        {
          "internalType": "address",
          "name": "newRecoveryAddress",
          "type": "address"
        },
        {
          "internalType": "address[]",
          "name": "newWhitelistedAddresses",
          "type": "address[]"
        },
        {
          "internalType": "uint256",
          "name": "newDailyLimit",
          "type": "uint256"
        },
        {
          "internalType": "uint256",
          "name": "newThreshold",
          "type": "uint256"
        },
        {
          "internalType": "uint256",
          "name": "newDelay",
          "type": "uint256"
        },
        {
          "internalType": "address[]",
          "name": "tokens",
          "type": "address[]"
        },
        {
          "internalType": "uint256[]",
          "name": "fixedLimits",
          "type": "uint256[]"
        },
        {
          "internalType": "uint256[]",
          "name": "percentageLimits",
          "type": "uint256[]"
        },
        {
          "internalType": "uint256[]",
          "name": "useBaseLimits",
          "type": "uint256[]"
        }
      ],
      "name": "updateSettings",
      "outputs": [],
      "stateMutability": "nonpayable",
      "type": "function"
    },
    {
      "inputs": [
        {
          "internalType": "uint256",
          "name": "newThreshold",
          "type": "uint256"
        }
      ],
      "name": "updateThreshold",
      "outputs": [],
      "stateMutability": "nonpayable",
      "type": "function"
    },
    {
      "inputs": [
        {
          "internalType": "address[]",
          "name": "newWhitelistedAddresses",
          "type": "address[]"
        }
      ],
      "name": "updateWhitelistAddresses",
      "outputs": [],
      "stateMutability": "nonpayable",
      "type": "function"
    },
    {
      "inputs": [],
      "name": "version",
      "outputs": [
        {
          "internalType": "uint256",
          "name": "",
          "type": "uint256"
        }
      ],
      "stateMutability": "view",
      "type": "function"
    },
    {
      "inputs": [
        {
          "internalType": "uint256",
          "name": "",
          "type": "uint256"
        }
      ],
      "name": "whitelistedAddresses",
      "outputs": [
        {
          "internalType": "address",
          "name": "",
          "type": "address"
        }
      ],
      "stateMutability": "view",
      "type": "function"
    },
    {
      "inputs": [
        {
          "internalType": "address",
          "name": "to",
          "type": "address"
        },
        {
          "internalType": "address",
          "name": "token",
          "type": "address"
        },
        {
          "internalType": "uint256",
          "name": "amount",
          "type": "uint256"
        }
      ],
      "name": "withdrawToken",
      "outputs": [],
      "stateMutability": "nonpayable",
      "type": "function"
    },
    {
      "stateMutability": "payable",
      "type": "receive"
    }
  ],
  "bytecode": "0x608060405234801561001057600080fd5b50617ba680620000216000396000f3fe6080604052600436106102135760003560e01c80636ae5624011610118578063ba4e5c49116100a0578063d63da95c1161006f578063d63da95c146107d6578063d7d7442f146107ff578063da1eac0d14610828578063f11ce42914610865578063f8175d78146108a25761021a565b8063ba4e5c49146106f1578063c01a8c841461072e578063cf35bdd014610757578063d176e93a146107945761021a565b80638790c1de116100e75780638790c1de146105fa5780638c3dc5c1146106375780638c8bfd0e146106605780638da5cb5b1461069d5780639b5b9b18146106c85761021a565b80636ae5624014610540578063710eb26c1461056957806375ca1a011461059457806380a4b461146105d15761021a565b8063417a06981161019b5780635d12069a1161016a5780635d12069a1461046d57806362a5af3b1461049657806364d62353146104c157806367eeba0c146104ea5780636a42b8f8146105155761021a565b8063417a0698146103af57806342cde4e8146103ee57806354fd4d50146104195780635664a47a146104445761021a565b806327492ccf116101e257806327492ccf146102d95780632780fb1d146103025780633380c0d81461032d578063338b5dea146103565780633af32abf146103725761021a565b806301e336671461021f57806306fdde0314610248578063150b7a02146102735780631ae138a5146102b05761021a565b3661021a57005b600080fd5b34801561022b57600080fd5b5061024660048036038101906102419190615e12565b6108cb565b005b34801561025457600080fd5b5061025d6110fd565b60405161026a9190615ef5565b60405180910390f35b34801561027f57600080fd5b5061029a6004803603810190610295919061604c565b61118b565b6040516102a7919061610a565b60405180910390f35b3480156102bc57600080fd5b506102d760048036038101906102d29190616125565b6111db565b005b3480156102e557600080fd5b5061030060048036038101906102fb9190616317565b6113d6565b005b34801561030e57600080fd5b50610317611cc5565b604051610324919061647c565b60405180910390f35b34801561033957600080fd5b50610354600480360381019061034f9190616497565b611ccb565b005b610370600480360381019061036b91906164c4565b612028565b005b34801561037e57600080fd5b5061039960048036038101906103949190616504565b6122e3565b6040516103a6919061654c565b60405180910390f35b3480156103bb57600080fd5b506103d660048036038101906103d19190616504565b612303565b6040516103e593929190616567565b60405180910390f35b3480156103fa57600080fd5b5061040361232d565b604051610410919061647c565b60405180910390f35b34801561042557600080fd5b5061042e612333565b60405161043b919061647c565b60405180910390f35b34801561045057600080fd5b5061046b60048036038101906104669190616497565b612339565b005b34801561047957600080fd5b50610494600480360381019061048f919061659e565b612713565b005b3480156104a257600080fd5b506104ab6129cb565b6040516104b8919061647c565b60405180910390f35b3480156104cd57600080fd5b506104e860048036038101906104e39190616497565b6129d1565b005b3480156104f657600080fd5b506104ff612ac1565b60405161050c919061647c565b60405180910390f35b34801561052157600080fd5b5061052a612ac7565b604051610537919061647c565b60405180910390f35b34801561054c57600080fd5b50610567600480360381019061056291906165e7565b612acd565b005b34801561057557600080fd5b5061057e6130f1565b60405161058b919061668d565b60405180910390f35b3480156105a057600080fd5b506105bb60048036038101906105b69190616504565b613117565b6040516105c8919061647c565b60405180910390f35b3480156105dd57600080fd5b506105f860048036038101906105f39190616504565b61312f565b005b34801561060657600080fd5b50610621600480360381019061061c91906166a8565b613259565b60405161062e919061654c565b60405180910390f35b34801561064357600080fd5b5061065e600480360381019061065991906166e8565b613288565b005b34801561066c57600080fd5b5061068760048036038101906106829190616504565b61363d565b604051610694919061647c565b60405180910390f35b3480156106a957600080fd5b506106b2613655565b6040516106bf919061668d565b60405180910390f35b3480156106d457600080fd5b506106ef60048036038101906106ea91906164c4565b613679565b005b3480156106fd57600080fd5b5061071860048036038101906107139190616497565b6137a0565b604051610725919061668d565b60405180910390f35b34801561073a57600080fd5b5061075560048036038101906107509190616497565b6137df565b005b34801561076357600080fd5b5061077e60048036038101906107799190616497565b614011565b60405161078b919061668d565b60405180910390f35b3480156107a057600080fd5b506107bb60048036038101906107b69190616497565b614050565b6040516107cd969594939291906167ac565b60405180910390f35b3480156107e257600080fd5b506107fd60048036038101906107f891906168b5565b614151565b005b34801561080b57600080fd5b5061082660048036038101906108219190616497565b61447a565b005b34801561083457600080fd5b5061084f600480360381019061084a9190616504565b61456a565b60405161085c919061647c565b60405180910390f35b34801561087157600080fd5b5061088c60048036038101906108879190615e12565b614979565b604051610899919061647c565b60405180910390f35b3480156108ae57600080fd5b506108c960048036038101906108c49190616497565b614f8e565b005b6108df67a31f78a5f012971260c01b61507d565b6108f367ef17462257636b3c60c01b61507d565b61090767d5f28af33c128c0c60c01b61507d565b61091b67fe1603e5636a88c960c01b61507d565b61092f67bf4642d2c642705f60c01b61507d565b60008054906101000a900473ffffffffffffffffffffffffffffffffffffffff1673ffffffffffffffffffffffffffffffffffffffff163373ffffffffffffffffffffffffffffffffffffffff16146109bd576040517f08c379a00000000000000000000000000000000000000000000000000000000081526004016109b4906169db565b60405180910390fd5b6109d167f1a19a3c683f79c660c01b61507d565b6109e567ac7e3a018a6b62a860c01b61507d565b6109f967935f5ee4e812c80560c01b61507d565b610a0d6761a73d4e87efec8960c01b61507d565b610a2167536a6a094084e99f60c01b61507d565b610a35671ceb3df86780577c60c01b61507d565b60008073ffffffffffffffffffffffffffffffffffffffff168373ffffffffffffffffffffffffffffffffffffffff161480610a815750610a8067024b133f482c2de460c01b615080565b5b8015610a9d5750610a9c67eecaf0aab381bd4960c01b615087565b5b610b20578273ffffffffffffffffffffffffffffffffffffffff166370a08231306040518263ffffffff1660e01b8152600401610ada919061668d565b602060405180830381865afa158015610af7573d6000803e3d6000fd5b505050506040513d601f19601f82011682018060405250810190610b1b9190616a10565b610b22565b475b9050610b3867bb28d4a2c40af2d560c01b61507d565b610b4c678011bd75cf25b49d60c01b61507d565b610b6067ea37577d0bdddc2060c01b61507d565b81811015610ba3576040517f08c379a0000000000000000000000000000000000000000000000000000000008152600401610b9a90616a89565b60405180910390fd5b610bb767070199cbb8e266a860c01b61507d565b610bcb679242514f8159cec460c01b61507d565b610bdf677ec892ed6ed9d40d60c01b61507d565b610bf367158b96cb4f73caf760c01b61507d565b6000600e5414610c38576040517f08c379a0000000000000000000000000000000000000000000000000000000008152600401610c2f90616af5565b60405180910390fd5b610c4c67b13a7d6c8e394f6b60c01b61507d565b610c6067b773cec8686c411a60c01b61507d565b610c74677c41ffb7f3a280fd60c01b61507d565b6000610c7f8461456a565b9050610c95676aad7a8cf2fa087f60c01b61507d565b610ca96703a197a95534630560c01b61507d565b6000600a60008673ffffffffffffffffffffffffffffffffffffffff1673ffffffffffffffffffffffffffffffffffffffff1681526020019081526020016000205442610cf69190616b44565b9050610d0c67f5174d0185e01ea460c01b61507d565b610d2067bef1553e46e6969360c01b61507d565b620151808110610d9c57610d3e675ea101b46b5de00c60c01b61507d565b610d5267d967725556a54ade60c01b61507d565b6000600960008773ffffffffffffffffffffffffffffffffffffffff1673ffffffffffffffffffffffffffffffffffffffff16815260200190815260200160002081905550610db1565b610db06774935ca7331fc84d60c01b61507d565b5b610dc567539e956ad19517da60c01b61507d565b610dd967bb98e7a38261286f60c01b61507d565b6000600960008773ffffffffffffffffffffffffffffffffffffffff1673ffffffffffffffffffffffffffffffffffffffff16815260200190815260200160002054620151808484610e2b9190616b78565b610e359190616be9565b84610e409190616c1a565b1180610e5c5750610e5b67a463a00e62c6f20960c01b615080565b5b8015610e785750610e7767904bf7e0878ba20e60c01b615087565b5b610e83576000610ef3565b600960008773ffffffffffffffffffffffffffffffffffffffff1673ffffffffffffffffffffffffffffffffffffffff16815260200190815260200160002054620151808484610ed39190616b78565b610edd9190616be9565b84610ee89190616c1a565b610ef29190616b44565b5b9050610f0967b9fdf402e21912b660c01b61507d565b610f1d67491a1b9f817267dd60c01b61507d565b82811115610f5557610f39672394a40fdc42a4d460c01b61507d565b610f4d672ea8fc679b8f6c9d60c01b61507d565b829050610f6a565b610f69674c9e7d1e6113c82060c01b61507d565b5b610f7e67fa21a264d2e36b2d60c01b61507d565b610f9267d5f6ce7f894a642260c01b61507d565b80851115610fe657610fae674d28804f03ef597860c01b61507d565b610fc267aefcf9691027845b60c01b61507d565b610fd667a4dcf9cebe19d64b60c01b61507d565b610fe1868887615092565b6110f4565b610ffa675b9203ea8df8a41e60c01b61507d565b61100e67ec74677e77d0776c60c01b61507d565b84818461101b9190616b44565b6110259190616c1a565b600960008873ffffffffffffffffffffffffffffffffffffffff1673ffffffffffffffffffffffffffffffffffffffff1681526020019081526020016000208190555061107c67bb48b18f6af040ad60c01b61507d565b42600a60008873ffffffffffffffffffffffffffffffffffffffff1673ffffffffffffffffffffffffffffffffffffffff168152602001908152602001600020819055506110d4671e64915821e963b060c01b61507d565b6110e867b38b6db30670c38d60c01b61507d565b6110f3878787615293565b5b50505050505050565b6001805461110a90616c7d565b80601f016020809104026020016040519081016040528092919081815260200182805461113690616c7d565b80156111835780601f1061115857610100808354040283529160200191611183565b820191906000526020600020905b81548152906001019060200180831161116657829003601f168201915b505050505081565b60006111a167e39fc1de6e504cbc60c01b61507d565b6111b5679f5d49f63cbd924860c01b61507d565b6111c9673025213419505dba60c01b61507d565b63150b7a0260e01b9050949350505050565b6111ef67095764c8bb85861160c01b61507d565b611203676d66250992e7e39d60c01b61507d565b61121767b2e84bd08f3debe760c01b61507d565b61122b67d8930b72a944d67f60c01b61507d565b3073ffffffffffffffffffffffffffffffffffffffff163373ffffffffffffffffffffffffffffffffffffffff1614611299576040517f08c379a000000000000000000000000000000000000000000000000000000000815260040161129090616d20565b60405180910390fd5b6112ad67363ca49fe671371260c01b61507d565b6112c16771ab01194734764260c01b61507d565b6112d567e92c4c92e6fe1b0160c01b61507d565b6112e96770173c510debf97f60c01b61507d565b600281111561132d576040517f08c379a000000000000000000000000000000000000000000000000000000000815260040161132490616d8c565b60405180910390fd5b6113416798afec3c3a0245a860c01b61507d565b61135567dbdec7355b79c75a60c01b61507d565b604051806060016040528084815260200183815260200182815250600b60008673ffffffffffffffffffffffffffffffffffffffff1673ffffffffffffffffffffffffffffffffffffffff16815260200190815260200160002060008201518160000155602082015181600101556040820151816002015590505050505050565b6113ea67335db11377de822a60c01b61507d565b6113fe6775b6be2fbc140f3860c01b61507d565b6114126770e226ee81527e0360c01b61507d565b61142667e05708aeaa627f4860c01b61507d565b3073ffffffffffffffffffffffffffffffffffffffff163373ffffffffffffffffffffffffffffffffffffffff161480156114715750611470671a86bf1e6d32fa6460c01b615087565b5b806114e55750600260009054906101000a900473ffffffffffffffffffffffffffffffffffffffff1673ffffffffffffffffffffffffffffffffffffffff163373ffffffffffffffffffffffffffffffffffffffff161480156114e457506114e367baaab565f76a3f8d60c01b615087565b5b5b611524576040517f08c379a000000000000000000000000000000000000000000000000000000000815260040161151b90616df8565b60405180910390fd5b6115386714edcfd3624fc7cc60c01b61507d565b61154c6743ec86a40359e98d60c01b61507d565b61156067f115df1dd7d656c960c01b61507d565b600073ffffffffffffffffffffffffffffffffffffffff168973ffffffffffffffffffffffffffffffffffffffff1614611602576115a8679717c0207c16964a60c01b61507d565b6115bc67498191df82fcce6060c01b61507d565b88600260006101000a81548173ffffffffffffffffffffffffffffffffffffffff021916908373ffffffffffffffffffffffffffffffffffffffff160217905550611617565b61161667f41b6c92d535e26160c01b61507d565b5b61162b673f24f2e8e6d68d0d60c01b61507d565b61163f67b888b57c9fa7168e60c01b61507d565b6000885111156118455761165d67cb6cb37c25817fe560c01b61507d565b611671670e067b7f5a31518c60c01b61507d565b611685677d710a05f1cf73b460c01b61507d565b60005b60038054905081101561174c576116a9672a4467ca9570dbd660c01b61507d565b600060086000600384815481106116c3576116c2616e18565b5b9060005260206000200160009054906101000a900473ffffffffffffffffffffffffffffffffffffffff1673ffffffffffffffffffffffffffffffffffffffff1673ffffffffffffffffffffffffffffffffffffffff16815260200190815260200160002060006101000a81548160ff0219169083151502179055508080600101915050611688565b50611761679ffdec482eee9b9760c01b61507d565b61177567de64f98305afc01760c01b61507d565b60005b88518110156118145761179567f14fe59f1a54556660c01b61507d565b6001600860008b84815181106117ae576117ad616e18565b5b602002602001015173ffffffffffffffffffffffffffffffffffffffff1673ffffffffffffffffffffffffffffffffffffffff16815260200190815260200160002060006101000a81548160ff0219169083151502179055508080600101915050611778565b50611829676d494726fb9ffae160c01b61507d565b876003908051906020019061183f929190615cc3565b5061185a565b611859677157526b4a4760f060c01b61507d565b5b61186e670b847c79eda60d2860c01b61507d565b611882677c00c9313ac022a660c01b61507d565b600087146118be5761189e679f70dcf11e72315460c01b61507d565b6118b2675ee7bcc8c3e8790e60c01b61507d565b866004819055506118d3565b6118d267901bf72919b22e6a60c01b61507d565b5b6118e7678268f31f76ba055860c01b61507d565b6118fb67aa7adba253fd44a860c01b61507d565b600086146119375761191767ee5349ac054b0a5560c01b61507d565b61192b6731bb48fd60cce61360c01b61507d565b8560058190555061194c565b61194b67b9ed513f058bff6760c01b61507d565b5b61196067b334cba131eb014a60c01b61507d565b61197467efc1fafb221261ed60c01b61507d565b600085146119b05761199067ba4a4d8c188b2fd960c01b61507d565b6119a46768640ac2ffc5f27c60c01b61507d565b846006819055506119c5565b6119c467f88bda61920564e360c01b61507d565b5b6119d967f76225fe43c25e9360c01b61507d565b6119ed67b9e3bf8aacdf4a0860c01b61507d565b600084511115611ca557611a0b6733e38059ba63e1bc60c01b61507d565b611a1f67135e433425abd47360c01b61507d565b611a3367cde5cec2f2911a4b60c01b61507d565b611a476734ee1c24c320f25360c01b61507d565b82518451148015611a59575081518451145b8015611a66575080518451145b611aa5576040517f08c379a0000000000000000000000000000000000000000000000000000000008152600401611a9c90616e93565b60405180910390fd5b611ab9671a1309b4afac363660c01b61507d565b611acd670e6fdeb5f443b1bb60c01b61507d565b611ae167030b3bd769a1465c60c01b61507d565b60005b8451811015611c9f57611b01679e20d9f2e9ae5f2260c01b61507d565b611b15672b3904919c2b516d60c01b61507d565b611b29677865f9b9b2136f6260c01b61507d565b6002828281518110611b3e57611b3d616e18565b5b60200260200101511115611b87576040517f08c379a0000000000000000000000000000000000000000000000000000000008152600401611b7e90616d8c565b60405180910390fd5b611b9b67c4f7a51f1d6c075560c01b61507d565b611baf67de2606f85fceda7b60c01b61507d565b6040518060600160405280858381518110611bcd57611bcc616e18565b5b60200260200101518152602001848381518110611bed57611bec616e18565b5b60200260200101518152602001838381518110611c0d57611c0c616e18565b5b6020026020010151815250600b6000878481518110611c2f57611c2e616e18565b5b602002602001015173ffffffffffffffffffffffffffffffffffffffff1673ffffffffffffffffffffffffffffffffffffffff1681526020019081526020016000206000820151816000015560208201518160010155604082015181600201559050508080600101915050611ae4565b50611cba565b611cb9677ba52d3130a4978d60c01b61507d565b5b505050505050505050565b600d5481565b611cdf675ad9d45247c54cfb60c01b61507d565b611cf367cf32d7b78fad7e2760c01b61507d565b611d0767643513d94ceaf8ee60c01b61507d565b611d1b676d9dc00f9ded225a60c01b61507d565b60008054906101000a900473ffffffffffffffffffffffffffffffffffffffff1673ffffffffffffffffffffffffffffffffffffffff163373ffffffffffffffffffffffffffffffffffffffff16148015611d865750611d85679fa60b124db17a9c60c01b615087565b5b80611dfa5750600260009054906101000a900473ffffffffffffffffffffffffffffffffffffffff1673ffffffffffffffffffffffffffffffffffffffff163373ffffffffffffffffffffffffffffffffffffffff16148015611df95750611df86792ef9165657973ae60c01b615087565b5b5b611e39576040517f08c379a0000000000000000000000000000000000000000000000000000000008152600401611e3090616df8565b60405180910390fd5b611e4d674f22da5a64ebcb1560c01b61507d565b611e6167d8582b92b1f6075f60c01b61507d565b611e756735a5e31f714b2d8360c01b61507d565b6000600c8281548110611e8b57611e8a616e18565b5b90600052602060002090600602019050611eaf678cd052851feaeeeb60c01b61507d565b611ec36756d574a76a821d9260c01b61507d565b611ed767f63dc84faecc39e360c01b61507d565b6000816002015403611f1e576040517f08c379a0000000000000000000000000000000000000000000000000000000008152600401611f1590616eff565b60405180910390fd5b611f3267ff7ffbf02716bd8860c01b61507d565b611f46675524f74b77e14ed060c01b61507d565b611f5a67500608cc0af2010a60c01b61507d565b611f6e676567a355d2cf7b6860c01b61507d565b8060030160009054906101000a900460ff1615611fc0576040517f08c379a0000000000000000000000000000000000000000000000000000000008152600401611fb790616f6b565b60405180910390fd5b611fd46706272b83db36723f60c01b61507d565b611fe8677ec1815878f2b6e460c01b61507d565b60018160030160006101000a81548160ff02191690831515021790555061201967e9d315825b91afa960c01b61507d565b61019481600401819055505050565b61203c679d839c5bad89c8a260c01b61507d565b612050674407af47185ab95460c01b61507d565b612064675dc50cc4cd6e894160c01b61507d565b600073ffffffffffffffffffffffffffffffffffffffff168273ffffffffffffffffffffffffffffffffffffffff1603612143576120ac67b891785f800e293560c01b61507d565b6120c0672f6cca8d616caea060c01b61507d565b6120d4671a1e454d54e27a6360c01b61507d565b6120e86738369606041b9ec660c01b61507d565b80341461212a576040517f08c379a000000000000000000000000000000000000000000000000000000000815260040161212190616fd7565b60405180910390fd5b61213e670fd20908ef057c8060c01b61507d565b612267565b6121576756efdb3b071d833b60c01b61507d565b61216b670bf643c04f7ae85060c01b61507d565b61217f6798465a4a52bbdbd360c01b61507d565b6121936795ffc0ee07affd9060c01b61507d565b8173ffffffffffffffffffffffffffffffffffffffff166323b872dd3330846040518463ffffffff1660e01b81526004016121d093929190616ff7565b6020604051808303816000875af11580156121ef573d6000803e3d6000fd5b505050506040513d601f19601f82011682018060405250810190612213919061705a565b612252576040517f08c379a0000000000000000000000000000000000000000000000000000000008152600401612249906170d3565b60405180910390fd5b612266675eedb33d2649ad3f60c01b61507d565b5b61227b67c5b98b8a368d08c360c01b61507d565b61228f67ede88d22724de94e60c01b61507d565b3373ffffffffffffffffffffffffffffffffffffffff167fd47f8695679b1495d2b6e58da0fcdfb015b967fbb928aa9aefe25206bd0ba60583836040516122d79291906170f3565b60405180910390a25050565b60086020528060005260406000206000915054906101000a900460ff1681565b600b6020528060005260406000206000915090508060000154908060010154908060020154905083565b60055481565b600f5481565b61234d670bd79ca5ec38993f60c01b61507d565b6123616721554a7c94db627d60c01b61507d565b61237567d29078a049a9ebba60c01b61507d565b612389679eb500b48d817be660c01b61507d565b3073ffffffffffffffffffffffffffffffffffffffff163373ffffffffffffffffffffffffffffffffffffffff161480156123d457506123d367366176f56aac67c060c01b615087565b5b80612462575060008054906101000a900473ffffffffffffffffffffffffffffffffffffffff1673ffffffffffffffffffffffffffffffffffffffff163373ffffffffffffffffffffffffffffffffffffffff1614801561244557506124446725d417b1e38a627260c01b615087565b5b80156124615750612460675a27188e02f05fec60c01b615087565b5b5b806124f25750600260009054906101000a900473ffffffffffffffffffffffffffffffffffffffff1673ffffffffffffffffffffffffffffffffffffffff163373ffffffffffffffffffffffffffffffffffffffff161480156124d557506124d467797a2589e18caedb60c01b615087565b5b80156124f157506124f0672f81cc6e4261200f60c01b615087565b5b5b806125625750600860003373ffffffffffffffffffffffffffffffffffffffff1673ffffffffffffffffffffffffffffffffffffffff16815260200190815260200160002060009054906101000a900460ff168015612561575061256067ae75a9bff45e126560c01b615087565b5b5b6125a1576040517f08c379a0000000000000000000000000000000000000000000000000000000008152600401612598906171b4565b60405180910390fd5b6125b567e3296fae321a1d2a60c01b61507d565b6125c9670b2d4a7c2851b77f60c01b61507d565b6125dd6768fe8973fce9278c60c01b61507d565b600260009054906101000a900473ffffffffffffffffffffffffffffffffffffffff1673ffffffffffffffffffffffffffffffffffffffff163373ffffffffffffffffffffffffffffffffffffffff16146126e057612646677ee69efb91f6da0b60c01b61507d565b61265a6721e9389bbeced6b060c01b61507d565b61266e67710b7346ba90833360c01b61507d565b612682677573f342d108238a60c01b61507d565b600e548110156126c7576040517f08c379a00000000000000000000000000000000000000000000000000000000081526004016126be90617220565b60405180910390fd5b6126db67304302e8c701802d60c01b61507d565b6126f5565b6126f467dc2f7fc71728c21c60c01b61507d565b5b612709671d19833bc994429660c01b61507d565b80600e8190555050565b61272767365149cba7fe259e60c01b61507d565b61273b67a617b2765e276f3c60c01b61507d565b61274f679ff075233780358b60c01b61507d565b61276367c4d40c7e70e98b9560c01b61507d565b3073ffffffffffffffffffffffffffffffffffffffff163373ffffffffffffffffffffffffffffffffffffffff16146127d1576040517f08c379a00000000000000000000000000000000000000000000000000000000081526004016127c890616d20565b60405180910390fd5b6127e567945365f2e627ac0660c01b61507d565b6127f9670bacaf0ac009dfd560c01b61507d565b61280d67b9264bab8a884e9860c01b61507d565b60005b6003805490508110156128d45761283167428bd3cf5feceaa760c01b61507d565b6000600860006003848154811061284b5761284a616e18565b5b9060005260206000200160009054906101000a900473ffffffffffffffffffffffffffffffffffffffff1673ffffffffffffffffffffffffffffffffffffffff1673ffffffffffffffffffffffffffffffffffffffff16815260200190815260200160002060006101000a81548160ff0219169083151502179055508080600101915050612810565b506128e9677c23edb349b7684960c01b61507d565b6128fd6748e9cea3e66730ed60c01b61507d565b60005b815181101561299c5761291d67f18d519b425ffc9e60c01b61507d565b60016008600084848151811061293657612935616e18565b5b602002602001015173ffffffffffffffffffffffffffffffffffffffff1673ffffffffffffffffffffffffffffffffffffffff16815260200190815260200160002060006101000a81548160ff0219169083151502179055508080600101915050612900565b506129b167ec1f6ff800d44f8e60c01b61507d565b80600390805190602001906129c7929190615cc3565b5050565b600e5481565b6129e56749412d5db0667a7660c01b61507d565b6129f9672d5fc88367fb2e6260c01b61507d565b612a0d674b603cd612b3d81a60c01b61507d565b612a2167ce84fce769eeaed860c01b61507d565b3073ffffffffffffffffffffffffffffffffffffffff163373ffffffffffffffffffffffffffffffffffffffff1614612a8f576040517f08c379a0000000000000000000000000000000000000000000000000000000008152600401612a8690616d20565b60405180910390fd5b612aa3679ad686bedffc8c3860c01b61507d565b612ab7675bb85d49ef6ba59160c01b61507d565b8060068190555050565b60045481565b60065481565b612ae167279ff09e55a0dc6e60c01b61507d565b612af5674af1c8f5dddf605c60c01b61507d565b612b09679c319b3bc7e834a160c01b61507d565b612b1d675cc3459268b46a9e60c01b61507d565b612b3167ca5ecc9f69eb389460c01b61507d565b600260009054906101000a900473ffffffffffffffffffffffffffffffffffffffff1673ffffffffffffffffffffffffffffffffffffffff163373ffffffffffffffffffffffffffffffffffffffff1614612bc1576040517f08c379a0000000000000000000000000000000000000000000000000000000008152600401612bb89061728c565b60405180910390fd5b612bd5675c85ea74d6b5735860c01b61507d565b612be9670928928fe0bb4d9f60c01b61507d565b612bfd6792fadb34a6f7af1160c01b61507d565b612c1167fe447adbd9ca22e260c01b61507d565b612c256791b952f3dea6aed260c01b61507d565b612c396717b454d5d0735b2e60c01b61507d565b600073ffffffffffffffffffffffffffffffffffffffff168573ffffffffffffffffffffffffffffffffffffffff1603612e4057612c8167eac9591ba019608960c01b61507d565b612c9567dd914b5577ab36a860c01b61507d565b612ca967b63fa02735b0072260c01b61507d565b612cbd67e7e225c65989126360c01b61507d565b82471015612d00576040517f08c379a0000000000000000000000000000000000000000000000000000000008152600401612cf790616a89565b60405180910390fd5b612d1467a48119d730090cc360c01b61507d565b612d28674b24d8a92c38db2660c01b61507d565b612d3c6740ab4f27e2323d3060c01b61507d565b60008473ffffffffffffffffffffffffffffffffffffffff168484604051612d6491906172e8565b60006040518083038185875af1925050503d8060008114612da1576040519150601f19603f3d011682016040523d82523d6000602084013e612da6565b606091505b50509050612dbe67572a175f5df89ba460c01b61507d565b612dd267fe6163ded4f8be7a60c01b61507d565b612de667acc3ca14ca89bb7960c01b61507d565b80612e26576040517f08c379a0000000000000000000000000000000000000000000000000000000008152600401612e1d906170d3565b60405180910390fd5b612e3a6757ca5d74deeaf9ee60c01b61507d565b5061306e565b612e5467cb6e2a84f5c44cdd60c01b61507d565b612e6867d283c35093339c9060c01b61507d565b612e7c67ff543c19bf45c42160c01b61507d565b612e9067c0337383db28375460c01b61507d565b828573ffffffffffffffffffffffffffffffffffffffff166370a08231306040518263ffffffff1660e01b8152600401612eca919061668d565b602060405180830381865afa158015612ee7573d6000803e3d6000fd5b505050506040513d601f19601f82011682018060405250810190612f0b9190616a10565b1015612f4c576040517f08c379a0000000000000000000000000000000000000000000000000000000008152600401612f4390616a89565b60405180910390fd5b612f60674d20c2c5e99b226a60c01b61507d565b612f7467bd45699901ad4cd960c01b61507d565b612f8867c4359e816fbe81a560c01b61507d565b612f9c6713f8137c746ab9f560c01b61507d565b8473ffffffffffffffffffffffffffffffffffffffff1663a9059cbb85856040518363ffffffff1660e01b8152600401612fd79291906170f3565b6020604051808303816000875af1158015612ff6573d6000803e3d6000fd5b505050506040513d601f19601f8201168201806040525081019061301a919061705a565b613059576040517f08c379a0000000000000000000000000000000000000000000000000000000008152600401613050906170d3565b60405180910390fd5b61306d678e55bbebe7143d8760c01b61507d565b5b61308267c9c5dfe176c9b5ed60c01b61507d565b61309667347681b455170e2560c01b61507d565b7fa2bd9fcfcdba69f52bcd9a520846ad4bd685b187483f53efc42d035b2ddebff085846040516130c79291906170f3565b60405180910390a16130e3677da019c143227d0460c01b61507d565b80600e819055505050505050565b600260009054906101000a900473ffffffffffffffffffffffffffffffffffffffff1681565b600a6020528060005260406000206000915090505481565b613143674abe6a0715555a3e60c01b61507d565b61315767efc3e0942de7666760c01b61507d565b61316b6786c53903d4f4b4f360c01b61507d565b61317f679eccb54783ee5b5960c01b61507d565b3073ffffffffffffffffffffffffffffffffffffffff163373ffffffffffffffffffffffffffffffffffffffff16146131ed576040517f08c379a00000000000000000000000000000000000000000000000000000000081526004016131e490616d20565b60405180910390fd5b61320167903455000510e11060c01b61507d565b61321567b5cf93bf98f10a7060c01b61507d565b80600260006101000a81548173ffffffffffffffffffffffffffffffffffffffff021916908373ffffffffffffffffffffffffffffffffffffffff16021790555050565b60106020528160005260406000206020528060005260406000206000915091509054906101000a900460ff1681565b61329c675f2ba1fca5fa62a060c01b61507d565b6132b067ef17462257636b3c60c01b61507d565b6132c467d5f28af33c128c0c60c01b61507d565b6132d867fe1603e5636a88c960c01b61507d565b6132ec67bf4642d2c642705f60c01b61507d565b60008054906101000a900473ffffffffffffffffffffffffffffffffffffffff1673ffffffffffffffffffffffffffffffffffffffff163373ffffffffffffffffffffffffffffffffffffffff161461337a576040517f08c379a0000000000000000000000000000000000000000000000000000000008152600401613371906169db565b60405180910390fd5b61338e67f1a19a3c683f79c660c01b61507d565b6133a267ac7e3a018a6b62a860c01b61507d565b6133b66779fe799116fe29ed60c01b61507d565b6133ca67473344f44ff8a6fa60c01b61507d565b6133de674b00e8383762738f60c01b61507d565b6133f267ada76cfe1b2b44a160c01b61507d565b6134066712a04c65536dfd6b60c01b61507d565b6000600e541461344b576040517f08c379a000000000000000000000000000000000000000000000000000000000815260040161344290616af5565b60405180910390fd5b61345f67ee38bd65b549b24260c01b61507d565b61347367030d38172996847d60c01b61507d565b6134876741e3c2b1d62c282d60c01b61507d565b6000600c60018160018154018082558091505003906000526020600020906006020190506134bf67bbe5b11a45ed688e60c01b61507d565b838160000160006101000a81548173ffffffffffffffffffffffffffffffffffffffff021916908373ffffffffffffffffffffffffffffffffffffffff160217905550613516679dcbff2479e098bc60c01b61507d565b8281600101908161352791906174ab565b5061353c67034038e2a0e308a760c01b61507d565b428160020181905550613559670ec274e147966a7660c01b61507d565b60008160030160006101000a81548160ff02191690831515021790555061358a677902634fed86bb7960c01b61507d565b8181600501819055506135a7674f8b11f8a060179460c01b61507d565b6001600d60008282546135ba9190616c1a565b925050819055506135d567b9f77a548ba15b5860c01b61507d565b6135e9679d17f5d448481ded60c01b61507d565b7fc243f4be367411622fb5772863ed10b8a7d6941c97f4ef7ab6885e4cf7b5cd326001600c8054905061361c9190616b44565b85858560405161362f949392919061757d565b60405180910390a150505050565b60096020528060005260406000206000915090505481565b60008054906101000a900473ffffffffffffffffffffffffffffffffffffffff1681565b61368d67f26bacecac7d058a60c01b61507d565b6136a1678525e08963267faa60c01b61507d565b6136b56735044a30b905bad960c01b61507d565b8173ffffffffffffffffffffffffffffffffffffffff166342842e0e3330846040518463ffffffff1660e01b81526004016136f293929190616ff7565b600060405180830381600087803b15801561370c57600080fd5b505af1158015613720573d6000803e3d6000fd5b5050505061373867f55a90c75d096c1e60c01b61507d565b61374c672090ef6a13c6578860c01b61507d565b3373ffffffffffffffffffffffffffffffffffffffff167f895deabb3b0da77cb5d42b057ff02ae7f731aa7ec9279822571010fdde66e1a383836040516137949291906170f3565b60405180910390a25050565b600381815481106137b057600080fd5b906000526020600020016000915054906101000a900473ffffffffffffffffffffffffffffffffffffffff1681565b6137f367fd661cbdd95e0f7e60c01b61507d565b61380767126f7edc13e2289b60c01b61507d565b61381b675b201685cb0e67bb60c01b61507d565b61382f67382111ec7ef00e7e60c01b61507d565b60008054906101000a900473ffffffffffffffffffffffffffffffffffffffff1673ffffffffffffffffffffffffffffffffffffffff163373ffffffffffffffffffffffffffffffffffffffff1614801561389a575061389967e5597efad3d6267960c01b615087565b5b8061390a5750600860003373ffffffffffffffffffffffffffffffffffffffff1673ffffffffffffffffffffffffffffffffffffffff16815260200190815260200160002060009054906101000a900460ff168015613909575061390867295c96969613e80660c01b615087565b5b5b613949576040517f08c379a000000000000000000000000000000000000000000000000000000000815260040161394090616df8565b60405180910390fd5b61395d67d8cab5b4e2d597d560c01b61507d565b61397167eeaf5b605b4deb3a60c01b61507d565b613985679d303fc38a55545360c01b61507d565b6139996732be643c8609062860c01b61507d565b6001600e5411156139df576040517f08c379a00000000000000000000000000000000000000000000000000000000081526004016139d690616af5565b60405180910390fd5b6139f3679ffe52d2eb06a10e60c01b61507d565b613a0767d020c7763bb2375e60c01b61507d565b613a1b6733d31041d27894d260c01b61507d565b6000600c8281548110613a3157613a30616e18565b5b90600052602060002090600602019050613a55676cdb9f4b0107428d60c01b61507d565b613a6967814b3a44c6c9521560c01b61507d565b613a7d67e0f5195fae3cd83f60c01b61507d565b6000816002015403613ac4576040517f08c379a0000000000000000000000000000000000000000000000000000000008152600401613abb90616eff565b60405180910390fd5b613ad867f8c893731b2ce19860c01b61507d565b613aec6754a9f97990e194e860c01b61507d565b613b0067723ecbd5dbe657ef60c01b61507d565b613b14671552804a5e7bf33d60c01b61507d565b8060030160009054906101000a900460ff1615613b66576040517f08c379a0000000000000000000000000000000000000000000000000000000008152600401613b5d90616f6b565b60405180910390fd5b613b7a67113b4392dccaae1c60c01b61507d565b613b8e67f9d073677edf400c60c01b61507d565b613ba26722abddff97158b9d60c01b61507d565b600860003373ffffffffffffffffffffffffffffffffffffffff1673ffffffffffffffffffffffffffffffffffffffff16815260200190815260200160002060009054906101000a900460ff168015613c64575060008054906101000a900473ffffffffffffffffffffffffffffffffffffffff1673ffffffffffffffffffffffffffffffffffffffff163373ffffffffffffffffffffffffffffffffffffffff16148015613c625750426006548260020154613c5f9190616c1a565b11155b155b15613e1d57613c7d678c2649e93b9c1e9460c01b61507d565b613c91674d4c719085fd74bf60c01b61507d565b613ca567e2a4d6ec3db48bc060c01b61507d565b613cb967c65cfc8f2f2f41fd60c01b61507d565b6010600083815260200190815260200160002060003373ffffffffffffffffffffffffffffffffffffffff1673ffffffffffffffffffffffffffffffffffffffff16815260200190815260200160002060009054906101000a900460ff1615613d57576040517f08c379a0000000000000000000000000000000000000000000000000000000008152600401613d4e9061763b565b60405180910390fd5b613d6b674e6f8f19b281aa2a60c01b61507d565b613d7f67c78492a0317fe4a060c01b61507d565b6001816004016000828254613d949190616c1a565b92505081905550613daf6709545af4ecbe4e1360c01b61507d565b60016010600084815260200190815260200160002060003373ffffffffffffffffffffffffffffffffffffffff1673ffffffffffffffffffffffffffffffffffffffff16815260200190815260200160002060006101000a81548160ff021916908315150217905550613e32565b613e3167b132de962c35155160c01b61507d565b5b613e4667f775d4f4135a6c5b60c01b61507d565b613e5a67f645bc1ee10c67f560c01b61507d565b60008054906101000a900473ffffffffffffffffffffffffffffffffffffffff1673ffffffffffffffffffffffffffffffffffffffff163373ffffffffffffffffffffffffffffffffffffffff16148015613ec65750426006548260020154613ec39190616c1a565b11155b15613f0357613edf6764799875e02afb1260c01b61507d565b613ef367f1ea70d04c24efc460c01b61507d565b6005548160040181905550613f18565b613f1767c4e7081309a73b2560c01b61507d565b5b613f2c670cab48a2b005541e60c01b61507d565b613f406745a6d9e35bd7902160c01b61507d565b7f15c2f311c9e0f53b50388279894aeff029a3457884a6601e924fca879e12adcc8233604051613f7192919061765b565b60405180910390a1613f8d674bc44ede6eaffa6860c01b61507d565b613fa167148bf0962364657c60c01b61507d565b600554816004015410613ff857613fc267a80edc131198601660c01b61507d565b613fd667bc41b1d84e11ad2d60c01b61507d565b613fea674bc2c8c67faf823360c01b61507d565b613ff382615915565b61400d565b61400c67748d2b67f10c5f1860c01b61507d565b5b5050565b6007818154811061402157600080fd5b906000526020600020016000915054906101000a900473ffffffffffffffffffffffffffffffffffffffff1681565b600c818154811061406057600080fd5b90600052602060002090600602016000915090508060000160009054906101000a900473ffffffffffffffffffffffffffffffffffffffff16908060010180546140a990616c7d565b80601f01602080910402602001604051908101604052809291908181526020018280546140d590616c7d565b80156141225780601f106140f757610100808354040283529160200191614122565b820191906000526020600020905b81548152906001019060200180831161410557829003601f168201915b5050505050908060020154908060030160009054906101000a900460ff16908060040154908060050154905086565b61416567981d84eb9b4109a360c01b61507d565b61417967c7ba13eca375005960c01b61507d565b61418d670e43b44bdb7b868560c01b61507d565b6141a167c9d2bd335587a73460c01b61507d565b600073ffffffffffffffffffffffffffffffffffffffff1660008054906101000a900473ffffffffffffffffffffffffffffffffffffffff1673ffffffffffffffffffffffffffffffffffffffff1614614230576040517f08c379a0000000000000000000000000000000000000000000000000000000008152600401614227906176d0565b60405180910390fd5b6142446766a95ab2d0b48ecb60c01b61507d565b61425867e7935afa9dea050560c01b61507d565b866000806101000a81548173ffffffffffffffffffffffffffffffffffffffff021916908373ffffffffffffffffffffffffffffffffffffffff1602179055506142ac67976686bea012012c60c01b61507d565b85600190816142bb919061774b565b506142d0673b98f6d3e4898bb860c01b61507d565b84600260006101000a81548173ffffffffffffffffffffffffffffffffffffffff021916908373ffffffffffffffffffffffffffffffffffffffff160217905550614325670f357ed24a92c87960c01b61507d565b82600481905550614340678499e030242d3f3e60c01b61507d565b8160058190555061435b67e4d4cd5c423424ff60c01b61507d565b8060068190555061437667af42eb6732c4e74a60c01b61507d565b6001600f81905550614392675393ad0216a631cc60c01b61507d565b6143a667f415d4e43ff0649060c01b61507d565b60005b8451811015614445576143c6672b0776f51be7e19b60c01b61507d565b6001600860008784815181106143df576143de616e18565b5b602002602001015173ffffffffffffffffffffffffffffffffffffffff1673ffffffffffffffffffffffffffffffffffffffff16815260200190815260200160002060006101000a81548160ff02191690831515021790555080806001019150506143a9565b5061445a67f4ddd5d318ff371260c01b61507d565b8360039080519060200190614470929190615cc3565b5050505050505050565b61448e67b79e5a6936b5b66460c01b61507d565b6144a2675776afa26083b5de60c01b61507d565b6144b667c36b4974c828232560c01b61507d565b6144ca674ff1acc93f94debe60c01b61507d565b3073ffffffffffffffffffffffffffffffffffffffff163373ffffffffffffffffffffffffffffffffffffffff1614614538576040517f08c379a000000000000000000000000000000000000000000000000000000000815260040161452f90616d20565b60405180910390fd5b61454c673dece6a007495c9c60c01b61507d565b61456067aab495c5541dc36160c01b61507d565b8060058190555050565b600061458067301907c4e65706e060c01b61507d565b6145946782eabf5a96d2298560c01b61507d565b6145a867290c5a30bb52723560c01b61507d565b60008073ffffffffffffffffffffffffffffffffffffffff168373ffffffffffffffffffffffffffffffffffffffff1614806145f457506145f3672933f7e63b658a5e60c01b615080565b5b8015614610575061460f67fda761165cf250c260c01b615087565b5b614693578273ffffffffffffffffffffffffffffffffffffffff166370a08231306040518263ffffffff1660e01b815260040161464d919061668d565b602060405180830381865afa15801561466a573d6000803e3d6000fd5b505050506040513d601f19601f8201168201806040525081019061468e9190616a10565b614695565b475b90506146ab67aa8c2e0a748e82ab60c01b61507d565b6146bf6731d59c6fbbba606b60c01b61507d565b6000600b60008573ffffffffffffffffffffffffffffffffffffffff1673ffffffffffffffffffffffffffffffffffffffff1681526020019081526020016000209050614716679a28985d2892094d60c01b61507d565b61472a67c8b7562db7d39bd760c01b61507d565b6000816000015411156147815761474b678cb218f0e7afd11b60c01b61507d565b61475f67e341ded02bbffcc360c01b61507d565b61477367e6bd6aa5e4c9e25d60c01b61507d565b806000015492505050614974565b61479567668e9176b84faecb60c01b61507d565b6147a967bbe0737c5d44147960c01b61507d565b600081600101541115614817576147ca67db5f4ac85bee6db260c01b61507d565b6147de67d0df0ffc5a7f8dac60c01b61507d565b6147f267838568d7ac800af960c01b61507d565b60648160010154836148049190616b78565b61480e9190616be9565b92505050614974565b61482b671f27cae45aedcb2460c01b61507d565b61483f6743e5abcc07828d0160c01b61507d565b60018160020154036148925761485f6708c1a416987c74fc60c01b61507d565b61487367e514185ec31a90a060c01b61507d565b61488767c1968c9f890686b060c01b61507d565b600092505050614974565b6148a667133d96153a482cca60c01b61507d565b6148ba676fa06e6df9b4a05860c01b61507d565b6002816002015403614919576148da67137e45709eae697160c01b61507d565b6148ee673e0a061cf4789c3e60c01b61507d565b614902677f3575c88e04051560c01b61507d565b6c0c9f2c9cd04674edea4000000092505050614974565b61492d672e13c8f93831653760c01b61507d565b6149416768de98ab65638db860c01b61507d565b61495567af895fc8767722d260c01b61507d565b6064600454836149659190616b78565b61496f9190616be9565b925050505b919050565b600061498f678669e91224779e2560c01b61507d565b6149a367b725516bec79eadb60c01b61507d565b6149b7671a25b34b8f2f437560c01b61507d565b60008073ffffffffffffffffffffffffffffffffffffffff168473ffffffffffffffffffffffffffffffffffffffff161480614a035750614a0267bd92539f5ba3771d60c01b615080565b5b8015614a1f5750614a1e67c7a0f00b2fa6518660c01b615087565b5b614aa2578373ffffffffffffffffffffffffffffffffffffffff166370a08231306040518263ffffffff1660e01b8152600401614a5c919061668d565b602060405180830381865afa158015614a79573d6000803e3d6000fd5b505050506040513d601f19601f82011682018060405250810190614a9d9190616a10565b614aa4565b475b9050614aba677ab7d4fe48e0364c60c01b61507d565b614ace679c9bd018ab91f10660c01b61507d565b614ae267f66bcbc11c75676260c01b61507d565b82811015614b25576040517f08c379a0000000000000000000000000000000000000000000000000000000008152600401614b1c90616a89565b60405180910390fd5b614b39675f6aee068e4c146060c01b61507d565b614b4d67838454df92a4624460c01b61507d565b614b61672a3387e6561e380c60c01b61507d565b6000614b6c8561456a565b9050614b8267cc1a995648a0216660c01b61507d565b614b966706bac9ce9829d92360c01b61507d565b6000600a60008773ffffffffffffffffffffffffffffffffffffffff1673ffffffffffffffffffffffffffffffffffffffff1681526020019081526020016000205442614be39190616b44565b9050614bf9678ac9b57ea7f6ce6960c01b61507d565b614c0d67eac9ca745692651360c01b61507d565b6000600960008873ffffffffffffffffffffffffffffffffffffffff1673ffffffffffffffffffffffffffffffffffffffff168152602001908152602001600020549050614c6567ca2a35b547aa00de60c01b61507d565b614c7967ef432ebe940df92360c01b61507d565b620151808210614cb457614c9767294f794cbb2571e260c01b61507d565b614cab67796e938d6711b60060c01b61507d565b60009050614cc9565b614cc867cb146b38553b2bf960c01b61507d565b5b614cdd671fde2938a9790f8060c01b61507d565b614cf1672cc15ffbf8f0c81a60c01b61507d565b6000600960008973ffffffffffffffffffffffffffffffffffffffff1673ffffffffffffffffffffffffffffffffffffffff16815260200190815260200160002054620151808585614d439190616b78565b614d4d9190616be9565b85614d589190616c1a565b1180614d745750614d7367f86ae9ab4e96aad760c01b615080565b5b8015614d905750614d8f671fb836fa14671f2360c01b615087565b5b614d9b576000614e0b565b600960008973ffffffffffffffffffffffffffffffffffffffff1673ffffffffffffffffffffffffffffffffffffffff16815260200190815260200160002054620151808585614deb9190616b78565b614df59190616be9565b85614e009190616c1a565b614e0a9190616b44565b5b9050614e2167648a04f9ad9afe2360c01b61507d565b614e3567e7c791a79fb96a2f60c01b61507d565b83811115614e6d57614e516743e37359b3e57f6060c01b61507d565b614e6567aa3f434c311fe1cb60c01b61507d565b839050614e82565b614e8167ed1852ebbecfafcb60c01b61507d565b5b614e966759ef19f049377c3c60c01b61507d565b614eaa6756107dee21f387d660c01b61507d565b808711614f4157614ec56756dd5260c6e8576e60c01b61507d565b614ed96754e53f13054f740460c01b61507d565b614eed67f0d6f95dc32b8b3460c01b61507d565b600087141580614f0d5750614f0c67aed10d1a8b83002660c01b615080565b5b8015614f295750614f28676efa0c78ee94811160c01b615087565b5b614f335780614f35565b865b95505050505050614f87565b614f556793850ad5839d323960c01b61507d565b614f6967da68f9e76596182760c01b61507d565b614f7d678fb27465ab50392860c01b61507d565b6000955050505050505b9392505050565b614fa2670cd04a6c59fcec5660c01b61507d565b614fb6679638e9001e2b5e8e60c01b61507d565b614fca671e96c9886f3ddc6c60c01b61507d565b614fdd66df888524ca22e560c01b61507d565b3073ffffffffffffffffffffffffffffffffffffffff163373ffffffffffffffffffffffffffffffffffffffff161461504b576040517f08c379a000000000000000000000000000000000000000000000000000000000815260040161504290616d20565b60405180910390fd5b61505f676910f1f32683fc0660c01b61507d565b615073674ad70df18b447eb060c01b61507d565b8060048190555050565b50565b6000919050565b600060019050919050565b6150a66775a67f9ecdf854b160c01b61507d565b6150ba671364be90bb97586160c01b61507d565b6150ce679b8ae5ff7027638060c01b61507d565b60606150e467d83f12e9fb0c82dd60c01b61507d565b6150f8670fd4b72b99ac8fa160c01b61507d565b600073ffffffffffffffffffffffffffffffffffffffff168473ffffffffffffffffffffffffffffffffffffffff160361519e5761514067665635363a568ee660c01b61507d565b61515467ebe610c54717400e60c01b61507d565b60405180602001604052806000815250905061517a67fea350d612d8856060c01b61507d565b61518e6734d999bcfab08d4760c01b61507d565b615199838284613288565b61528d565b6151b2671877c84170195d1460c01b61507d565b6151c667e507e940c85926e460c01b61507d565b82826040516024016151d99291906170f3565b6040516020818303038152906040527fa9059cbb000000000000000000000000000000000000000000000000000000007bffffffffffffffffffffffffffffffffffffffffffffffffffffffff19166020820180517bffffffffffffffffffffffffffffffffffffffffffffffffffffffff8381831617835250505050905061526c67b612c5416014301860c01b61507d565b615280670efd38f4d552e72d60c01b61507d565b61528c84826000613288565b5b50505050565b6152a767721e3ac645f5b2bc60c01b61507d565b6152bb670ffae7994150ee6f60c01b61507d565b6152cf678f320ebb673fdb9060c01b61507d565b600073ffffffffffffffffffffffffffffffffffffffff168273ffffffffffffffffffffffffffffffffffffffff160361544157615317675b628a6da87e4ac760c01b61507d565b61532b67fe78a37d622c176b60c01b61507d565b61533f679db47c88070197bb60c01b61507d565b60008373ffffffffffffffffffffffffffffffffffffffff168260405161536590617843565b60006040518083038185875af1925050503d80600081146153a2576040519150601f19603f3d011682016040523d82523d6000602084013e6153a7565b606091505b505090506153bf67c957f0806242af7660c01b61507d565b6153d367aff70ce4aeec8c4660c01b61507d565b6153e767f413d083084953a760c01b61507d565b80615427576040517f08c379a000000000000000000000000000000000000000000000000000000000815260040161541e906170d3565b60405180910390fd5b61543b676e1431f146cfb29660c01b61507d565b50615563565b61545567d162e82ed018c66a60c01b61507d565b61546967ad8fee1b14cf5af560c01b61507d565b61547d67e84f47375a6b183660c01b61507d565b615491675ddcc5b8894e000260c01b61507d565b8173ffffffffffffffffffffffffffffffffffffffff1663a9059cbb84836040518363ffffffff1660e01b81526004016154cc9291906170f3565b6020604051808303816000875af11580156154eb573d6000803e3d6000fd5b505050506040513d601f19601f8201168201806040525081019061550f919061705a565b61554e576040517f08c379a0000000000000000000000000000000000000000000000000000000008152600401615545906170d3565b60405180910390fd5b615562674f8a20a8b84fc59d60c01b61507d565b5b615577671177ed700875bf4d60c01b61507d565b61558b67a02c0ec63fda2e5860c01b61507d565b7fa2bd9fcfcdba69f52bcd9a520846ad4bd685b187483f53efc42d035b2ddebff082826040516155bc9291906170f3565b60405180910390a16155d867f432a4ba9239544960c01b61507d565b6155ec67544b5be283295b5c60c01b61507d565b6000600c6001816001815401808255809150500390600052602060002090600602019050615624673f295a2f91b0ab9460c01b61507d565b600073ffffffffffffffffffffffffffffffffffffffff168373ffffffffffffffffffffffffffffffffffffffff16141580615670575061566f673d3bf9156add306260c01b615080565b5b801561568c575061568b67d2d2cd96bb83ec6460c01b615087565b5b6156965783615698565b825b8160000160006101000a81548173ffffffffffffffffffffffffffffffffffffffff021916908373ffffffffffffffffffffffffffffffffffffffff1602179055506156ee679401e19ff38607fb60c01b61507d565b83826040516024016157019291906170f3565b6040516020818303038152906040527fa9059cbb000000000000000000000000000000000000000000000000000000007bffffffffffffffffffffffffffffffffffffffffffffffffffffffff19166020820180517bffffffffffffffffffffffffffffffffffffffffffffffffffffffff838183161783525050505081600101908161578e91906174ab565b506157a367e7cfe909984a056160c01b61507d565b4281600201819055506157c067ae5b8802573701ec60c01b61507d565b60018160030160006101000a81548160ff0219169083151502179055506157f167ac8b793a33022b2760c01b61507d565b81816005018190555061580e6783e3174366373e4f60c01b61507d565b6001600d60008282546158219190616c1a565b9250508190555061583c67f0a509bbd260924060c01b61507d565b61585067fb66514811168c9d60c01b61507d565b7fc243f4be367411622fb5772863ed10b8a7d6941c97f4ef7ab6885e4cf7b5cd326001600c805490506158839190616b44565b856000604051615895939291906178b6565b60405180910390a16158b1671b7141d91475a42460c01b61507d565b6158c5678b2fce6fdb93088f60c01b61507d565b7f518df7417ea3ad72d40e6f8bd20a6344a813b8b5e5cc0638f8cbd1487107c3396001600c805490506158f89190616b44565b85604051615907929190617900565b60405180910390a150505050565b6159296705150baf0c06defd60c01b61507d565b61593d679ed7fc7d6165b16760c01b61507d565b61595167ff2ce6052b35acda60c01b61507d565b6000600c828154811061596757615966616e18565b5b9060005260206000209060060201905061598b67e1b4ade602a0315160c01b61507d565b61599f67c78af43c711470c760c01b61507d565b6159b367d2bb14c396714b9160c01b61507d565b600554816004015410156159fc576040517f08c379a00000000000000000000000000000000000000000000000000000000081526004016159f390617988565b60405180910390fd5b615a1067aada71bd8c40700f60c01b61507d565b615a2467491ae9a0526f1e0e60c01b61507d565b615a38676611f68ba215889e60c01b61507d565b615a4c6735607e913306752d60c01b61507d565b8060030160009054906101000a900460ff1615615a9e576040517f08c379a0000000000000000000000000000000000000000000000000000000008152600401615a9590616f6b565b60405180910390fd5b615ab267954bd2a6edfab1ea60c01b61507d565b615ac6676c06678b5ab5a03360c01b61507d565b60018160030160006101000a81548160ff021916908315150217905550615af7671810bfff958a838e60c01b61507d565b615b0b679438aa1a33a57dc260c01b61507d565b60008160000160009054906101000a900473ffffffffffffffffffffffffffffffffffffffff1673ffffffffffffffffffffffffffffffffffffffff16826005015483600101604051615b5e9190617a2b565b60006040518083038185875af1925050503d8060008114615b9b576040519150601f19603f3d011682016040523d82523d6000602084013e615ba0565b606091505b50509050615bb8672017ae74f3a4294f60c01b61507d565b615bcc6766a7ced4a17c08cc60c01b61507d565b615be067f40fa795a5db3d4d60c01b61507d565b80615c20576040517f08c379a0000000000000000000000000000000000000000000000000000000008152600401615c1790617a8e565b60405180910390fd5b615c34673a9efd88e95a41c960c01b61507d565b615c48674a04fa8d157feb4d60c01b61507d565b615c5c67701db478307ed02460c01b61507d565b7f518df7417ea3ad72d40e6f8bd20a6344a813b8b5e5cc0638f8cbd1487107c339838360000160009054906101000a900473ffffffffffffffffffffffffffffffffffffffff1684600101604051615cb693929190617b32565b60405180910390a1505050565b828054828255906000526020600020908101928215615d3c579160200282015b82811115615d3b5782518260006101000a81548173ffffffffffffffffffffffffffffffffffffffff021916908373ffffffffffffffffffffffffffffffffffffffff16021790555091602001919060010190615ce3565b5b509050615d499190615d4d565b5090565b5b80821115615d66576000816000905550600101615d4e565b5090565b6000604051905090565b600080fd5b600080fd5b600073ffffffffffffffffffffffffffffffffffffffff82169050919050565b6000615da982615d7e565b9050919050565b615db981615d9e565b8114615dc457600080fd5b50565b600081359050615dd681615db0565b92915050565b6000819050919050565b615def81615ddc565b8114615dfa57600080fd5b50565b600081359050615e0c81615de6565b92915050565b600080600060608486031215615e2b57615e2a615d74565b5b6000615e3986828701615dc7565b9350506020615e4a86828701615dc7565b9250506040615e5b86828701615dfd565b9150509250925092565b600081519050919050565b600082825260208201905092915050565b60005b83811015615e9f578082015181840152602081019050615e84565b60008484015250505050565b6000601f19601f8301169050919050565b6000615ec782615e65565b615ed18185615e70565b9350615ee1818560208601615e81565b615eea81615eab565b840191505092915050565b60006020820190508181036000830152615f0f8184615ebc565b905092915050565b600080fd5b600080fd5b7f4e487b7100000000000000000000000000000000000000000000000000000000600052604160045260246000fd5b615f5982615eab565b810181811067ffffffffffffffff82111715615f7857615f77615f21565b5b80604052505050565b6000615f8b615d6a565b9050615f978282615f50565b919050565b600067ffffffffffffffff821115615fb757615fb6615f21565b5b615fc082615eab565b9050602081019050919050565b82818337600083830152505050565b6000615fef615fea84615f9c565b615f81565b90508281526020810184848401111561600b5761600a615f1c565b5b616016848285615fcd565b509392505050565b600082601f83011261603357616032615f17565b5b8135616043848260208601615fdc565b91505092915050565b6000806000806080858703121561606657616065615d74565b5b600061607487828801615dc7565b945050602061608587828801615dc7565b935050604061609687828801615dfd565b925050606085013567ffffffffffffffff8111156160b7576160b6615d79565b5b6160c38782880161601e565b91505092959194509250565b60007fffffffff0000000000000000000000000000000000000000000000000000000082169050919050565b616104816160cf565b82525050565b600060208201905061611f60008301846160fb565b92915050565b6000806000806080858703121561613f5761613e615d74565b5b600061614d87828801615dc7565b945050602061615e87828801615dfd565b935050604061616f87828801615dfd565b925050606061618087828801615dfd565b91505092959194509250565b600067ffffffffffffffff8211156161a7576161a6615f21565b5b602082029050602081019050919050565b600080fd5b60006161d06161cb8461618c565b615f81565b905080838252602082019050602084028301858111156161f3576161f26161b8565b5b835b8181101561621c57806162088882615dc7565b8452602084019350506020810190506161f5565b5050509392505050565b600082601f83011261623b5761623a615f17565b5b813561624b8482602086016161bd565b91505092915050565b600067ffffffffffffffff82111561626f5761626e615f21565b5b602082029050602081019050919050565b600061629361628e84616254565b615f81565b905080838252602082019050602084028301858111156162b6576162b56161b8565b5b835b818110156162df57806162cb8882615dfd565b8452602084019350506020810190506162b8565b5050509392505050565b600082601f8301126162fe576162fd615f17565b5b813561630e848260208601616280565b91505092915050565b60008060008060008060008060006101208a8c03121561633a57616339615d74565b5b60006163488c828d01615dc7565b99505060208a013567ffffffffffffffff81111561636957616368615d79565b5b6163758c828d01616226565b98505060406163868c828d01615dfd565b97505060606163978c828d01615dfd565b96505060806163a88c828d01615dfd565b95505060a08a013567ffffffffffffffff8111156163c9576163c8615d79565b5b6163d58c828d01616226565b94505060c08a013567ffffffffffffffff8111156163f6576163f5615d79565b5b6164028c828d016162e9565b93505060e08a013567ffffffffffffffff81111561642357616422615d79565b5b61642f8c828d016162e9565b9250506101008a013567ffffffffffffffff81111561645157616450615d79565b5b61645d8c828d016162e9565b9150509295985092959850929598565b61647681615ddc565b82525050565b6000602082019050616491600083018461646d565b92915050565b6000602082840312156164ad576164ac615d74565b5b60006164bb84828501615dfd565b91505092915050565b600080604083850312156164db576164da615d74565b5b60006164e985828601615dc7565b92505060206164fa85828601615dfd565b9150509250929050565b60006020828403121561651a57616519615d74565b5b600061652884828501615dc7565b91505092915050565b60008115159050919050565b61654681616531565b82525050565b6000602082019050616561600083018461653d565b92915050565b600060608201905061657c600083018661646d565b616589602083018561646d565b616596604083018461646d565b949350505050565b6000602082840312156165b4576165b3615d74565b5b600082013567ffffffffffffffff8111156165d2576165d1615d79565b5b6165de84828501616226565b91505092915050565b600080600080600060a0868803121561660357616602615d74565b5b600061661188828901615dc7565b955050602061662288828901615dc7565b945050604061663388828901615dfd565b935050606086013567ffffffffffffffff81111561665457616653615d79565b5b6166608882890161601e565b925050608061667188828901615dfd565b9150509295509295909350565b61668781615d9e565b82525050565b60006020820190506166a2600083018461667e565b92915050565b600080604083850312156166bf576166be615d74565b5b60006166cd85828601615dfd565b92505060206166de85828601615dc7565b9150509250929050565b60008060006060848603121561670157616700615d74565b5b600061670f86828701615dc7565b935050602084013567ffffffffffffffff8111156167305761672f615d79565b5b61673c8682870161601e565b925050604061674d86828701615dfd565b9150509250925092565b600081519050919050565b600082825260208201905092915050565b600061677e82616757565b6167888185616762565b9350616798818560208601615e81565b6167a181615eab565b840191505092915050565b600060c0820190506167c1600083018961667e565b81810360208301526167d38188616773565b90506167e2604083018761646d565b6167ef606083018661653d565b6167fc608083018561646d565b61680960a083018461646d565b979650505050505050565b600067ffffffffffffffff82111561682f5761682e615f21565b5b61683882615eab565b9050602081019050919050565b600061685861685384616814565b615f81565b90508281526020810184848401111561687457616873615f1c565b5b61687f848285615fcd565b509392505050565b600082601f83011261689c5761689b615f17565b5b81356168ac848260208601616845565b91505092915050565b600080600080600080600060e0888a0312156168d4576168d3615d74565b5b60006168e28a828b01615dc7565b975050602088013567ffffffffffffffff81111561690357616902615d79565b5b61690f8a828b01616887565b96505060406169208a828b01615dc7565b955050606088013567ffffffffffffffff81111561694157616940615d79565b5b61694d8a828b01616226565b945050608061695e8a828b01615dfd565b93505060a061696f8a828b01615dfd565b92505060c06169808a828b01615dfd565b91505092959891949750929550565b7f4e6f7420746865206f776e657200000000000000000000000000000000000000600082015250565b60006169c5600d83615e70565b91506169d08261698f565b602082019050919050565b600060208201905081810360008301526169f4816169b8565b9050919050565b600081519050616a0a81615de6565b92915050565b600060208284031215616a2657616a25615d74565b5b6000616a34848285016169fb565b91505092915050565b7f496e73756666696369656e742062616c616e6365000000000000000000000000600082015250565b6000616a73601483615e70565b9150616a7e82616a3d565b602082019050919050565b60006020820190508181036000830152616aa281616a66565b9050919050565b7f467265657a652069732061637469766500000000000000000000000000000000600082015250565b6000616adf601083615e70565b9150616aea82616aa9565b602082019050919050565b60006020820190508181036000830152616b0e81616ad2565b9050919050565b7f4e487b7100000000000000000000000000000000000000000000000000000000600052601160045260246000fd5b6000616b4f82615ddc565b9150616b5a83615ddc565b9250828203905081811115616b7257616b71616b15565b5b92915050565b6000616b8382615ddc565b9150616b8e83615ddc565b9250828202616b9c81615ddc565b91508282048414831517616bb357616bb2616b15565b5b5092915050565b7f4e487b7100000000000000000000000000000000000000000000000000000000600052601260045260246000fd5b6000616bf482615ddc565b9150616bff83615ddc565b925082616c0f57616c0e616bba565b5b828204905092915050565b6000616c2582615ddc565b9150616c3083615ddc565b9250828201905080821115616c4857616c47616b15565b5b92915050565b7f4e487b7100000000000000000000000000000000000000000000000000000000600052602260045260246000fd5b60006002820490506001821680616c9557607f821691505b602082108103616ca857616ca7616c4e565b5b50919050565b7f43616e206f6e6c792062652063616c6c656420627920636f6e7472616374206960008201527f7473656c66000000000000000000000000000000000000000000000000000000602082015250565b6000616d0a602583615e70565b9150616d1582616cae565b604082019050919050565b60006020820190508181036000830152616d3981616cfd565b9050919050565b7f496e76616c696420757365426173654c696d69742076616c7565000000000000600082015250565b6000616d76601a83615e70565b9150616d8182616d40565b602082019050919050565b60006020820190508181036000830152616da581616d69565b9050919050565b7f4e6f7420617574686f72697a6564000000000000000000000000000000000000600082015250565b6000616de2600e83615e70565b9150616ded82616dac565b602082019050919050565b60006020820190508181036000830152616e1181616dd5565b9050919050565b7f4e487b7100000000000000000000000000000000000000000000000000000000600052603260045260246000fd5b7f496e70757420617272617973206c656e677468206d69736d6174636800000000600082015250565b6000616e7d601c83615e70565b9150616e8882616e47565b602082019050919050565b60006020820190508181036000830152616eac81616e70565b9050919050565b7f5472616e73616374696f6e206e6f7420666f756e640000000000000000000000600082015250565b6000616ee9601583615e70565b9150616ef482616eb3565b602082019050919050565b60006020820190508181036000830152616f1881616edc565b9050919050565b7f5472616e73616374696f6e20616c726561647920657865637574656400000000600082015250565b6000616f55601c83615e70565b9150616f6082616f1f565b602082019050919050565b60006020820190508181036000830152616f8481616f48565b9050919050565b7f496e636f72726563742045544820616d6f756e74000000000000000000000000600082015250565b6000616fc1601483615e70565b9150616fcc82616f8b565b602082019050919050565b60006020820190508181036000830152616ff081616fb4565b9050919050565b600060608201905061700c600083018661667e565b617019602083018561667e565b617026604083018461646d565b949350505050565b61703781616531565b811461704257600080fd5b50565b6000815190506170548161702e565b92915050565b6000602082840312156170705761706f615d74565b5b600061707e84828501617045565b91505092915050565b7f5472616e73666572206661696c65640000000000000000000000000000000000600082015250565b60006170bd600f83615e70565b91506170c882617087565b602082019050919050565b600060208201905081810360008301526170ec816170b0565b9050919050565b6000604082019050617108600083018561667e565b617115602083018461646d565b9392505050565b7f43616e206f6e6c792062652063616c6c656420627920636f6e7472616374206960008201527f7473656c662c206f776e65722c207265636f766572792061646472657373206f60208201527f722077686974656c697374656420616464726573736573000000000000000000604082015250565b600061719e605783615e70565b91506171a98261711c565b606082019050919050565b600060208201905081810360008301526171cd81617191565b9050919050565b7f43616e6e6f7420756e667265657a650000000000000000000000000000000000600082015250565b600061720a600f83615e70565b9150617215826171d4565b602082019050919050565b60006020820190508181036000830152617239816171fd565b9050919050565b7f4e6f7420746865207265636f7665727920616464726573730000000000000000600082015250565b6000617276601883615e70565b915061728182617240565b602082019050919050565b600060208201905081810360008301526172a581617269565b9050919050565b600081905092915050565b60006172c282616757565b6172cc81856172ac565b93506172dc818560208601615e81565b80840191505092915050565b60006172f482846172b7565b915081905092915050565b60008190508160005260206000209050919050565b60006020601f8301049050919050565b600082821b905092915050565b6000600883026173617fffffffffffffffffffffffffffffffffffffffffffffffffffffffffffffffff82617324565b61736b8683617324565b95508019841693508086168417925050509392505050565b6000819050919050565b60006173a86173a361739e84615ddc565b617383565b615ddc565b9050919050565b6000819050919050565b6173c28361738d565b6173d66173ce826173af565b848454617331565b825550505050565b600090565b6173eb6173de565b6173f68184846173b9565b505050565b5b8181101561741a5761740f6000826173e3565b6001810190506173fc565b5050565b601f82111561745f57617430816172ff565b61743984617314565b81016020851015617448578190505b61745c61745485617314565b8301826173fb565b50505b505050565b600082821c905092915050565b600061748260001984600802617464565b1980831691505092915050565b600061749b8383617471565b9150826002028217905092915050565b6174b482616757565b67ffffffffffffffff8111156174cd576174cc615f21565b5b6174d78254616c7d565b6174e282828561741e565b600060209050601f8311600181146175155760008415617503578287015190505b61750d858261748f565b865550617575565b601f198416617523866172ff565b60005b8281101561754b57848901518255600182019150602085019450602081019050617526565b868310156175685784890151617564601f891682617471565b8355505b6001600288020188555050505b505050505050565b6000608082019050617592600083018761646d565b61759f602083018661667e565b81810360408301526175b18185616773565b90506175c0606083018461646d565b95945050505050565b7f5472616e73616374696f6e20616c726561647920636f6e6669726d656420627960008201527f2074686973206164647265737300000000000000000000000000000000000000602082015250565b6000617625602d83615e70565b9150617630826175c9565b604082019050919050565b6000602082019050818103600083015261765481617618565b9050919050565b6000604082019050617670600083018561646d565b61767d602083018461667e565b9392505050565b7f416c726561647920696e697469616c697a656400000000000000000000000000600082015250565b60006176ba601383615e70565b91506176c582617684565b602082019050919050565b600060208201905081810360008301526176e9816176ad565b9050919050565b60008190508160005260206000209050919050565b601f82111561774657617717816176f0565b61772084617314565b8101602085101561772f578190505b61774361773b85617314565b8301826173fb565b50505b505050565b61775482615e65565b67ffffffffffffffff81111561776d5761776c615f21565b5b6177778254616c7d565b617782828285617705565b600060209050601f8311600181146177b557600084156177a3578287015190505b6177ad858261748f565b865550617815565b601f1984166177c3866176f0565b60005b828110156177eb578489015182556001820191506020850194506020810190506177c6565b868310156178085784890151617804601f891682617471565b8355505b6001600288020188555050505b505050505050565b50565b600061782d6000836172ac565b91506178388261781d565b600082019050919050565b600061784e82617820565b9150819050919050565b6000617865600083616762565b91506178708261781d565b600082019050919050565b6000819050919050565b60006178a061789b6178968461787b565b617383565b615ddc565b9050919050565b6178b081617885565b82525050565b60006080820190506178cb600083018661646d565b6178d8602083018561667e565b81810360408301526178e981617858565b90506178f860608301846178a7565b949350505050565b6000606082019050617915600083018561646d565b617922602083018461667e565b818103604083015261793381617858565b90509392505050565b7f4e6f7420656e6f75676820636f6e6669726d6174696f6e730000000000000000600082015250565b6000617972601883615e70565b915061797d8261793c565b602082019050919050565b600060208201905081810360008301526179a181617965565b9050919050565b600081546179b581616c7d565b6179bf81866172ac565b945060018216600081146179da57600181146179ef57617a22565b60ff1983168652811515820286019350617a22565b6179f8856172ff565b60005b83811015617a1a578154818901526001820191506020810190506179fb565b838801955050505b50505092915050565b6000617a3782846179a8565b915081905092915050565b7f5472616e73616374696f6e20657865637574696f6e206661696c656400000000600082015250565b6000617a78601c83615e70565b9150617a8382617a42565b602082019050919050565b60006020820190508181036000830152617aa781617a6b565b9050919050565b60008154617abb81616c7d565b617ac58186616762565b94506001821660008114617ae05760018114617af657617b29565b60ff198316865281151560200286019350617b29565b617aff856172ff565b60005b83811015617b2157815481890152600182019150602081019050617b02565b808801955050505b50505092915050565b6000606082019050617b47600083018661646d565b617b54602083018561667e565b8181036040830152617b668184617aae565b905094935050505056fea26469706673582212207c866e369404dc0dc27afaa8d6cdb83aabcac4bba6feef84c161017cd298355364736f6c63430008180033",
  "linkReferences": {},
  "deployedLinkReferences": {}
}