{
  "_format": "hh-sol-artifact-1",
  "contractName": "VaultFactory2",
  "sourceName": "contracts/Vault.sol",
  "abi": [
    {
      "inputs": [
        {
          "internalType": "address",
          "name": "_vaultImplementation",
          "type": "address"
        }
      ],
      "stateMutability": "nonpayable",
      "type": "constructor"
    },
    {
      "anonymous": false,
      "inputs": [
        {
          "indexed": false,
          "internalType": "address",
          "name": "vaultAddress",
          "type": "address"
        },
        {
          "indexed": true,
          "internalType": "address",
          "name": "owner",
          "type": "address"
        },
        {
          "indexed": false,
          "internalType": "string",
          "name": "name",
          "type": "string"
        },
        {
          "indexed": false,
          "internalType": "address",
          "name": "recoveryAddress",
          "type": "address"
        }
      ],
      "name": "VaultCreated",
      "type": "event"
    },
    {
      "inputs": [
        {
          "internalType": "string",
          "name": "_name",
          "type": "string"
        },
        {
          "internalType": "address",
          "name": "_recoveryAddress",
          "type": "address"
        },
        {
          "internalType": "address[]",
          "name": "_whitelistedAddresses",
          "type": "address[]"
        },
        {
          "internalType": "uint256",
          "name": "_dailyLimit",
          "type": "uint256"
        },
        {
          "internalType": "uint256",
          "name": "_threshold",
          "type": "uint256"
        },
        {
          "internalType": "uint256",
          "name": "_delay",
          "type": "uint256"
        }
      ],
      "name": "createVault",
      "outputs": [
        {
          "internalType": "address",
          "name": "",
          "type": "address"
        }
      ],
      "stateMutability": "nonpayable",
      "type": "function"
    },
    {
      "inputs": [
        {
          "internalType": "address",
          "name": "_owner",
          "type": "address"
        }
      ],
      "name": "getVaultsByOwner",
      "outputs": [
        {
          "internalType": "address[]",
          "name": "",
          "type": "address[]"
        }
      ],
      "stateMutability": "view",
      "type": "function"
    },
    {
      "inputs": [],
      "name": "owner",
      "outputs": [
        {
          "internalType": "address",
          "name": "",
          "type": "address"
        }
      ],
      "stateMutability": "view",
      "type": "function"
    },
    {
      "inputs": [
        {
          "internalType": "address",
          "name": "",
          "type": "address"
        },
        {
          "internalType": "uint256",
          "name": "",
          "type": "uint256"
        }
      ],
      "name": "ownerToVaults",
      "outputs": [
        {
          "internalType": "address",
          "name": "",
          "type": "address"
        }
      ],
      "stateMutability": "view",
      "type": "function"
    },
    {
      "inputs": [],
      "name": "totalVaults",
      "outputs": [
        {
          "internalType": "uint256",
          "name": "",
          "type": "uint256"
        }
      ],
      "stateMutability": "view",
      "type": "function"
    },
    {
      "inputs": [
        {
          "internalType": "address",
          "name": "_vaultImplementation",
          "type": "address"
        }
      ],
      "name": "updateVaultImplementation",
      "outputs": [],
      "stateMutability": "nonpayable",
      "type": "function"
    },
    {
      "inputs": [],
      "name": "vaultImplementation",
      "outputs": [
        {
          "internalType": "address",
          "name": "",
          "type": "address"
        }
      ],
      "stateMutability": "view",
      "type": "function"
    },
    {
      "inputs": [
        {
          "internalType": "string",
          "name": "",
          "type": "string"
        }
      ],
      "name": "vaultNames",
      "outputs": [
        {
          "internalType": "address",
          "name": "",
          "type": "address"
        }
      ],
      "stateMutability": "view",
      "type": "function"
    }
  ],
  "bytecode": "0x60806040523480156200001157600080fd5b50604051620016d3380380620016d3833981810160405281019062000037919062000129565b336000806101000a81548173ffffffffffffffffffffffffffffffffffffffff021916908373ffffffffffffffffffffffffffffffffffffffff16021790555080600260006101000a81548173ffffffffffffffffffffffffffffffffffffffff021916908373ffffffffffffffffffffffffffffffffffffffff160217905550506200015b565b600080fd5b600073ffffffffffffffffffffffffffffffffffffffff82169050919050565b6000620000f182620000c4565b9050919050565b6200010381620000e4565b81146200010f57600080fd5b50565b6000815190506200012381620000f8565b92915050565b600060208284031215620001425762000141620000bf565b5b6000620001528482850162000112565b91505092915050565b611568806200016b6000396000f3fe60806040523480156200001157600080fd5b5060043610620000945760003560e01c80638d65402311620000635780638d654023146200015b5780638da5cb5b146200017d578063ac818711146200019f578063bba48a9014620001d55762000094565b80630c5bc6a9146200009957806310195f9514620000cf578063174ef86a14620001055780632cf08fd11462000125575b600080fd5b620000b76004803603810190620000b19190620008cb565b620001f7565b604051620000c6919062000923565b60405180910390f35b620000ed6004803603810190620000e7919062000b7d565b62000246565b604051620000fc919062000923565b60405180910390f35b6200012360048036038101906200011d919062000c57565b620005cc565b005b6200014360048036038101906200013d919062000c89565b620006a1565b60405162000152919062000923565b60405180910390f35b62000165620006ea565b60405162000174919062000ceb565b60405180910390f35b62000187620006f0565b60405162000196919062000923565b60405180910390f35b620001bd6004803603810190620001b7919062000c57565b62000714565b604051620001cc919062000dd6565b60405180910390f35b620001df620007e3565b604051620001ee919062000923565b60405180910390f35b600460205281600052604060002081815481106200021457600080fd5b906000526020600020016000915091509054906101000a900473ffffffffffffffffffffffffffffffffffffffff1681565b60008073ffffffffffffffffffffffffffffffffffffffff1660038860405162000271919062000e73565b908152602001604051809103902060009054906101000a900473ffffffffffffffffffffffffffffffffffffffff1673ffffffffffffffffffffffffffffffffffffffff1614620002f9576040517f08c379a0000000000000000000000000000000000000000000000000000000008152600401620002f09062000eed565b60405180910390fd5b600033600460003373ffffffffffffffffffffffffffffffffffffffff1673ffffffffffffffffffffffffffffffffffffffff168152602001908152602001600020805490506040516020016200035292919062000f84565b604051602081830303815290604052805190602001209050600081600260009054906101000a900473ffffffffffffffffffffffffffffffffffffffff166040516200039e9062000809565b620003aa919062000923565b8190604051809103906000f5905080158015620003cb573d6000803e3d6000fd5b50905060008190508073ffffffffffffffffffffffffffffffffffffffff1663d63da95c338c8c8c8c8c8c6040518863ffffffff1660e01b81526004016200041a979695949392919062000ff5565b600060405180830381600087803b1580156200043557600080fd5b505af11580156200044a573d6000803e3d6000fd5b505050508060038b60405162000461919062000e73565b908152602001604051809103902060006101000a81548173ffffffffffffffffffffffffffffffffffffffff021916908373ffffffffffffffffffffffffffffffffffffffff160217905550600460003373ffffffffffffffffffffffffffffffffffffffff1673ffffffffffffffffffffffffffffffffffffffff168152602001908152602001600020819080600181540180825580915050600190039060005260206000200160009091909190916101000a81548173ffffffffffffffffffffffffffffffffffffffff021916908373ffffffffffffffffffffffffffffffffffffffff1602179055506001806000828254620005619190620010af565b925050819055503373ffffffffffffffffffffffffffffffffffffffff167f86c9dd70a6de5b89643ead0c76a7d9c215afd05c87f64d8eaff050b89c341bb3828c8c604051620005b493929190620010ea565b60405180910390a28093505050509695505050505050565b60008054906101000a900473ffffffffffffffffffffffffffffffffffffffff1673ffffffffffffffffffffffffffffffffffffffff163373ffffffffffffffffffffffffffffffffffffffff16146200065d576040517f08c379a000000000000000000000000000000000000000000000000000000000815260040162000654906200117e565b60405180910390fd5b80600260006101000a81548173ffffffffffffffffffffffffffffffffffffffff021916908373ffffffffffffffffffffffffffffffffffffffff16021790555050565b6003818051602081018201805184825260208301602085012081835280955050505050506000915054906101000a900473ffffffffffffffffffffffffffffffffffffffff1681565b60015481565b60008054906101000a900473ffffffffffffffffffffffffffffffffffffffff1681565b6060600460008373ffffffffffffffffffffffffffffffffffffffff1673ffffffffffffffffffffffffffffffffffffffff168152602001908152602001600020805480602002602001604051908101604052809291908181526020018280548015620007d757602002820191906000526020600020905b8160009054906101000a900473ffffffffffffffffffffffffffffffffffffffff1673ffffffffffffffffffffffffffffffffffffffff16815260200190600101908083116200078c575b50505050509050919050565b600260009054906101000a900473ffffffffffffffffffffffffffffffffffffffff1681565b61039280620011a183390190565b6000604051905090565b600080fd5b600080fd5b600073ffffffffffffffffffffffffffffffffffffffff82169050919050565b600062000858826200082b565b9050919050565b6200086a816200084b565b81146200087657600080fd5b50565b6000813590506200088a816200085f565b92915050565b6000819050919050565b620008a58162000890565b8114620008b157600080fd5b50565b600081359050620008c5816200089a565b92915050565b60008060408385031215620008e557620008e462000821565b5b6000620008f58582860162000879565b92505060206200090885828601620008b4565b9150509250929050565b6200091d816200084b565b82525050565b60006020820190506200093a600083018462000912565b92915050565b600080fd5b600080fd5b6000601f19601f8301169050919050565b7f4e487b7100000000000000000000000000000000000000000000000000000000600052604160045260246000fd5b62000995826200094a565b810181811067ffffffffffffffff82111715620009b757620009b66200095b565b5b80604052505050565b6000620009cc62000817565b9050620009da82826200098a565b919050565b600067ffffffffffffffff821115620009fd57620009fc6200095b565b5b62000a08826200094a565b9050602081019050919050565b82818337600083830152505050565b600062000a3b62000a3584620009df565b620009c0565b90508281526020810184848401111562000a5a5762000a5962000945565b5b62000a6784828562000a15565b509392505050565b600082601f83011262000a875762000a8662000940565b5b813562000a9984826020860162000a24565b91505092915050565b600067ffffffffffffffff82111562000ac05762000abf6200095b565b5b602082029050602081019050919050565b600080fd5b600062000aed62000ae78462000aa2565b620009c0565b9050808382526020820190506020840283018581111562000b135762000b1262000ad1565b5b835b8181101562000b40578062000b2b888262000879565b84526020840193505060208101905062000b15565b5050509392505050565b600082601f83011262000b625762000b6162000940565b5b813562000b7484826020860162000ad6565b91505092915050565b60008060008060008060c0878903121562000b9d5762000b9c62000821565b5b600087013567ffffffffffffffff81111562000bbe5762000bbd62000826565b5b62000bcc89828a0162000a6f565b965050602062000bdf89828a0162000879565b955050604087013567ffffffffffffffff81111562000c035762000c0262000826565b5b62000c1189828a0162000b4a565b945050606062000c2489828a01620008b4565b935050608062000c3789828a01620008b4565b92505060a062000c4a89828a01620008b4565b9150509295509295509295565b60006020828403121562000c705762000c6f62000821565b5b600062000c808482850162000879565b91505092915050565b60006020828403121562000ca25762000ca162000821565b5b600082013567ffffffffffffffff81111562000cc35762000cc262000826565b5b62000cd18482850162000a6f565b91505092915050565b62000ce58162000890565b82525050565b600060208201905062000d02600083018462000cda565b92915050565b600081519050919050565b600082825260208201905092915050565b6000819050602082019050919050565b62000d3f816200084b565b82525050565b600062000d53838362000d34565b60208301905092915050565b6000602082019050919050565b600062000d798262000d08565b62000d85818562000d13565b935062000d928362000d24565b8060005b8381101562000dc957815162000dad888262000d45565b975062000dba8362000d5f565b92505060018101905062000d96565b5085935050505092915050565b6000602082019050818103600083015262000df2818462000d6c565b905092915050565b600081519050919050565b600081905092915050565b60005b8381101562000e3057808201518184015260208101905062000e13565b60008484015250505050565b600062000e498262000dfa565b62000e55818562000e05565b935062000e6781856020860162000e10565b80840191505092915050565b600062000e81828462000e3c565b915081905092915050565b600082825260208201905092915050565b7f5661756c74206e616d6520616c72656164792065786973747300000000000000600082015250565b600062000ed560198362000e8c565b915062000ee28262000e9d565b602082019050919050565b6000602082019050818103600083015262000f088162000ec6565b9050919050565b60008160601b9050919050565b600062000f298262000f0f565b9050919050565b600062000f3d8262000f1c565b9050919050565b62000f5962000f53826200084b565b62000f30565b82525050565b6000819050919050565b62000f7e62000f788262000890565b62000f5f565b82525050565b600062000f92828562000f44565b60148201915062000fa4828462000f69565b6020820191508190509392505050565b600062000fc18262000dfa565b62000fcd818562000e8c565b935062000fdf81856020860162000e10565b62000fea816200094a565b840191505092915050565b600060e0820190506200100c600083018a62000912565b818103602083015262001020818962000fb4565b905062001031604083018862000912565b818103606083015262001045818762000d6c565b905062001056608083018662000cda565b6200106560a083018562000cda565b6200107460c083018462000cda565b98975050505050505050565b7f4e487b7100000000000000000000000000000000000000000000000000000000600052601160045260246000fd5b6000620010bc8262000890565b9150620010c98362000890565b9250828201905080821115620010e457620010e362001080565b5b92915050565b600060608201905062001101600083018662000912565b818103602083015262001115818562000fb4565b905062001126604083018462000912565b949350505050565b7f4e6f7420746865206f776e657200000000000000000000000000000000000000600082015250565b600062001166600d8362000e8c565b915062001173826200112e565b602082019050919050565b60006020820190508181036000830152620011998162001157565b905091905056fe60a060405234801561001057600080fd5b506040516103923803806103928339818101604052810190610032919061013e565b600073ffffffffffffffffffffffffffffffffffffffff168173ffffffffffffffffffffffffffffffffffffffff16036100a1576040517f08c379a0000000000000000000000000000000000000000000000000000000008152600401610098906101c8565b60405180910390fd5b8073ffffffffffffffffffffffffffffffffffffffff1660808173ffffffffffffffffffffffffffffffffffffffff1681525050506101e8565b600080fd5b600073ffffffffffffffffffffffffffffffffffffffff82169050919050565b600061010b826100e0565b9050919050565b61011b81610100565b811461012657600080fd5b50565b60008151905061013881610112565b92915050565b600060208284031215610154576101536100db565b5b600061016284828501610129565b91505092915050565b600082825260208201905092915050565b7f496e76616c696420696d706c656d656e746174696f6e20616464726573730000600082015250565b60006101b2601e8361016b565b91506101bd8261017c565b602082019050919050565b600060208201905081810360008301526101e1816101a5565b9050919050565b60805161018461020e60003960008181602c015281816057015260d001526101846000f3fe6080604052600436106100225760003560e01c80635c60da1b1461007d57610052565b36610052576100507f00000000000000000000000000000000000000000000000000000000000000006100a8565b005b61007b7f00000000000000000000000000000000000000000000000000000000000000006100a8565b005b34801561008957600080fd5b506100926100ce565b60405161009f9190610133565b60405180910390f35b3660008037600080366000845af43d6000803e80600081146100c9573d6000f35b3d6000fd5b7f000000000000000000000000000000000000000000000000000000000000000081565b600073ffffffffffffffffffffffffffffffffffffffff82169050919050565b600061011d826100f2565b9050919050565b61012d81610112565b82525050565b60006020820190506101486000830184610124565b9291505056fea2646970667358221220b5ecb539ad681c7998c1ba8ea711eaa49674163da0d8411937016ce84886592064736f6c63430008180033a264697066735822122062dc6e749781edefac15ac88592a5ba519be8f13573a802da28e00e547813c0e64736f6c63430008180033",
  "linkReferences": {},
  "deployedLinkReferences": {}
}