{
  "_format": "hh-sol-artifact-1",
  "contractName": "VaultFactory2",
  "sourceName": "contracts/Vault.sol",
  "abi": [
    {
      "inputs": [
        {
          "internalType": "address",
          "name": "_vaultImplementation",
          "type": "address"
        }
      ],
      "stateMutability": "nonpayable",
      "type": "constructor"
    },
    {
      "anonymous": false,
      "inputs": [
        {
          "indexed": false,
          "internalType": "address",
          "name": "vaultAddress",
          "type": "address"
        },
        {
          "indexed": true,
          "internalType": "address",
          "name": "owner",
          "type": "address"
        },
        {
          "indexed": false,
          "internalType": "string",
          "name": "name",
          "type": "string"
        },
        {
          "indexed": false,
          "internalType": "address",
          "name": "recoveryAddress",
          "type": "address"
        }
      ],
      "name": "VaultCreated",
      "type": "event"
    },
    {
      "inputs": [
        {
          "internalType": "string",
          "name": "_name",
          "type": "string"
        },
        {
          "internalType": "address",
          "name": "_recoveryAddress",
          "type": "address"
        },
        {
          "internalType": "address[]",
          "name": "_whitelistedAddresses",
          "type": "address[]"
        },
        {
          "internalType": "uint256",
          "name": "_dailyLimit",
          "type": "uint256"
        },
        {
          "internalType": "uint256",
          "name": "_threshold",
          "type": "uint256"
        },
        {
          "internalType": "uint256",
          "name": "_delay",
          "type": "uint256"
        }
      ],
      "name": "createVault",
      "outputs": [
        {
          "internalType": "address",
          "name": "",
          "type": "address"
        }
      ],
      "stateMutability": "nonpayable",
      "type": "function"
    },
    {
      "inputs": [
        {
          "internalType": "address",
          "name": "_owner",
          "type": "address"
        }
      ],
      "name": "getVaultsByOwner",
      "outputs": [
        {
          "internalType": "address[]",
          "name": "",
          "type": "address[]"
        }
      ],
      "stateMutability": "view",
      "type": "function"
    },
    {
      "inputs": [],
      "name": "owner",
      "outputs": [
        {
          "internalType": "address",
          "name": "",
          "type": "address"
        }
      ],
      "stateMutability": "view",
      "type": "function"
    },
    {
      "inputs": [
        {
          "internalType": "address",
          "name": "",
          "type": "address"
        },
        {
          "internalType": "uint256",
          "name": "",
          "type": "uint256"
        }
      ],
      "name": "ownerToVaults",
      "outputs": [
        {
          "internalType": "address",
          "name": "",
          "type": "address"
        }
      ],
      "stateMutability": "view",
      "type": "function"
    },
    {
      "inputs": [],
      "name": "totalVaults",
      "outputs": [
        {
          "internalType": "uint256",
          "name": "",
          "type": "uint256"
        }
      ],
      "stateMutability": "view",
      "type": "function"
    },
    {
      "inputs": [
        {
          "internalType": "address",
          "name": "_vaultImplementation",
          "type": "address"
        }
      ],
      "name": "updateVaultImplementation",
      "outputs": [],
      "stateMutability": "nonpayable",
      "type": "function"
    },
    {
      "inputs": [],
      "name": "vaultImplementation",
      "outputs": [
        {
          "internalType": "address",
          "name": "",
          "type": "address"
        }
      ],
      "stateMutability": "view",
      "type": "function"
    },
    {
      "inputs": [
        {
          "internalType": "string",
          "name": "",
          "type": "string"
        }
      ],
      "name": "vaultNames",
      "outputs": [
        {
          "internalType": "address",
          "name": "",
          "type": "address"
        }
      ],
      "stateMutability": "view",
      "type": "function"
    }
  ],
  "bytecode": "0x60806040523480156200001157600080fd5b5060405162001b3538038062001b35833981810160405281019062000037919062000180565b6200005367ff774a27b1ef6cf560c01b6200011360201b60201c565b6200006f67fe728af321fd908a60c01b6200011360201b60201c565b336000806101000a81548173ffffffffffffffffffffffffffffffffffffffff021916908373ffffffffffffffffffffffffffffffffffffffff160217905550620000cb6788dc2aded4e4d25760c01b6200011360201b60201c565b80600260006101000a81548173ffffffffffffffffffffffffffffffffffffffff021916908373ffffffffffffffffffffffffffffffffffffffff16021790555050620001b2565b50565b600080fd5b600073ffffffffffffffffffffffffffffffffffffffff82169050919050565b600062000148826200011b565b9050919050565b6200015a816200013b565b81146200016657600080fd5b50565b6000815190506200017a816200014f565b92915050565b60006020828403121562000199576200019862000116565b5b6000620001a98482850162000169565b91505092915050565b61197380620001c26000396000f3fe60806040523480156200001157600080fd5b5060043610620000945760003560e01c80638d65402311620000635780638d654023146200015b5780638da5cb5b146200017d578063ac818711146200019f578063bba48a9014620001d55762000094565b80630c5bc6a9146200009957806310195f9514620000cf578063174ef86a14620001055780632cf08fd11462000125575b600080fd5b620000b76004803603810190620000b1919062000bbb565b620001f7565b604051620000c6919062000c13565b60405180910390f35b620000ed6004803603810190620000e7919062000e6d565b62000246565b604051620000fc919062000c13565b60405180910390f35b6200012360048036038101906200011d919062000f47565b6200079b565b005b6200014360048036038101906200013d919062000f79565b6200094c565b60405162000152919062000c13565b60405180910390f35b6200016562000995565b60405162000174919062000fdb565b60405180910390f35b620001876200099b565b60405162000196919062000c13565b60405180910390f35b620001bd6004803603810190620001b7919062000f47565b620009bf565b604051620001cc9190620010c6565b60405180910390f35b620001df62000ad0565b604051620001ee919062000c13565b60405180910390f35b600460205281600052604060002081815481106200021457600080fd5b906000526020600020016000915091509054906101000a900473ffffffffffffffffffffffffffffffffffffffff1681565b60006200025e67759671dc90fc265660c01b62000af6565b620002746720ffdf9a8352399f60c01b62000af6565b6200028a67ef88d308d5203cab60c01b62000af6565b620002a067e574b68bf161ecfb60c01b62000af6565b600073ffffffffffffffffffffffffffffffffffffffff16600388604051620002ca919062001163565b908152602001604051809103902060009054906101000a900473ffffffffffffffffffffffffffffffffffffffff1673ffffffffffffffffffffffffffffffffffffffff161462000352576040517f08c379a00000000000000000000000000000000000000000000000000000000081526004016200034990620011dd565b60405180910390fd5b6200036867082a68213554e7c660c01b62000af6565b6200037e670e33dc6442a8698460c01b62000af6565b62000394679c762905a78d22ee60c01b62000af6565b600033600460003373ffffffffffffffffffffffffffffffffffffffff1673ffffffffffffffffffffffffffffffffffffffff16815260200190815260200160002080549050604051602001620003ed92919062001274565b6040516020818303038152906040528051906020012090506200041b6768739b2438f6e55060c01b62000af6565b62000431674af51f4fc071224160c01b62000af6565b600081600260009054906101000a900473ffffffffffffffffffffffffffffffffffffffff16604051620004659062000af9565b62000471919062000c13565b8190604051809103906000f590508015801562000492573d6000803e3d6000fd5b509050620004ab67867c6cacc64e52fa60c01b62000af6565b620004c167ecc5496dba6e997060c01b62000af6565b6000819050620004dc67c67c931ae742bffb60c01b62000af6565b620004f267b18579e6bc83ec8f60c01b62000af6565b8073ffffffffffffffffffffffffffffffffffffffff1663d63da95c338c8c8c8c8c8c6040518863ffffffff1660e01b8152600401620005399796959493929190620012e5565b600060405180830381600087803b1580156200055457600080fd5b505af115801562000569573d6000803e3d6000fd5b5050505062000583672257c43bd0800e2760c01b62000af6565b8060038b60405162000596919062001163565b908152602001604051809103902060006101000a81548173ffffffffffffffffffffffffffffffffffffffff021916908373ffffffffffffffffffffffffffffffffffffffff160217905550620005f8676cb5e553dd7751ab60c01b62000af6565b6200060e67a99dcc59a14d60f260c01b62000af6565b600460003373ffffffffffffffffffffffffffffffffffffffff1673ffffffffffffffffffffffffffffffffffffffff168152602001908152602001600020819080600181540180825580915050600190039060005260206000200160009091909190916101000a81548173ffffffffffffffffffffffffffffffffffffffff021916908373ffffffffffffffffffffffffffffffffffffffff160217905550620006c467fd2fa1f042bb7bc360c01b62000af6565b6001806000828254620006d891906200139f565b92505081905550620006f567bb34d077cb32e47660c01b62000af6565b6200070b670bc02251bd78ba2160c01b62000af6565b3373ffffffffffffffffffffffffffffffffffffffff167f86c9dd70a6de5b89643ead0c76a7d9c215afd05c87f64d8eaff050b89c341bb3828c8c6040516200075793929190620013da565b60405180910390a2620007756779b043370aebf18960c01b62000af6565b6200078b677cf48536b34ec85460c01b62000af6565b8093505050509695505050505050565b620007b16774c94171c9b8c4b660c01b62000af6565b620007c7678670e4685e2fa35060c01b62000af6565b620007dd6729cd43c6821451d660c01b62000af6565b620007f367b107bf821f46d1f960c01b62000af6565b620008096785b58f3f5b5927c560c01b62000af6565b60008054906101000a900473ffffffffffffffffffffffffffffffffffffffff1673ffffffffffffffffffffffffffffffffffffffff163373ffffffffffffffffffffffffffffffffffffffff16146200089a576040517f08c379a000000000000000000000000000000000000000000000000000000000815260040162000891906200146e565b60405180910390fd5b620008b067e0599b99c6eb001460c01b62000af6565b620008c6674ab0657483af5bdf60c01b62000af6565b620008dc6756b3d402f12c53e160c01b62000af6565b620008f267f568f1e247a22a3e60c01b62000af6565b6200090867f70ad44c5d8d870a60c01b62000af6565b80600260006101000a81548173ffffffffffffffffffffffffffffffffffffffff021916908373ffffffffffffffffffffffffffffffffffffffff16021790555050565b6003818051602081018201805184825260208301602085012081835280955050505050506000915054906101000a900473ffffffffffffffffffffffffffffffffffffffff1681565b60015481565b60008054906101000a900473ffffffffffffffffffffffffffffffffffffffff1681565b6060620009d767e920fa33b06f6b1160c01b62000af6565b620009ed6795e63555b927042f60c01b62000af6565b62000a0367efabbccaf3eea0fd60c01b62000af6565b600460008373ffffffffffffffffffffffffffffffffffffffff1673ffffffffffffffffffffffffffffffffffffffff16815260200190815260200160002080548060200260200160405190810160405280929190818152602001828054801562000ac457602002820191906000526020600020905b8160009054906101000a900473ffffffffffffffffffffffffffffffffffffffff1673ffffffffffffffffffffffffffffffffffffffff168152602001906001019080831162000a79575b50505050509050919050565b600260009054906101000a900473ffffffffffffffffffffffffffffffffffffffff1681565b50565b6104ad806200149183390190565b6000604051905090565b600080fd5b600080fd5b600073ffffffffffffffffffffffffffffffffffffffff82169050919050565b600062000b488262000b1b565b9050919050565b62000b5a8162000b3b565b811462000b6657600080fd5b50565b60008135905062000b7a8162000b4f565b92915050565b6000819050919050565b62000b958162000b80565b811462000ba157600080fd5b50565b60008135905062000bb58162000b8a565b92915050565b6000806040838503121562000bd55762000bd462000b11565b5b600062000be58582860162000b69565b925050602062000bf88582860162000ba4565b9150509250929050565b62000c0d8162000b3b565b82525050565b600060208201905062000c2a600083018462000c02565b92915050565b600080fd5b600080fd5b6000601f19601f8301169050919050565b7f4e487b7100000000000000000000000000000000000000000000000000000000600052604160045260246000fd5b62000c858262000c3a565b810181811067ffffffffffffffff8211171562000ca75762000ca662000c4b565b5b80604052505050565b600062000cbc62000b07565b905062000cca828262000c7a565b919050565b600067ffffffffffffffff82111562000ced5762000cec62000c4b565b5b62000cf88262000c3a565b9050602081019050919050565b82818337600083830152505050565b600062000d2b62000d258462000ccf565b62000cb0565b90508281526020810184848401111562000d4a5762000d4962000c35565b5b62000d5784828562000d05565b509392505050565b600082601f83011262000d775762000d7662000c30565b5b813562000d8984826020860162000d14565b91505092915050565b600067ffffffffffffffff82111562000db05762000daf62000c4b565b5b602082029050602081019050919050565b600080fd5b600062000ddd62000dd78462000d92565b62000cb0565b9050808382526020820190506020840283018581111562000e035762000e0262000dc1565b5b835b8181101562000e30578062000e1b888262000b69565b84526020840193505060208101905062000e05565b5050509392505050565b600082601f83011262000e525762000e5162000c30565b5b813562000e6484826020860162000dc6565b91505092915050565b60008060008060008060c0878903121562000e8d5762000e8c62000b11565b5b600087013567ffffffffffffffff81111562000eae5762000ead62000b16565b5b62000ebc89828a0162000d5f565b965050602062000ecf89828a0162000b69565b955050604087013567ffffffffffffffff81111562000ef35762000ef262000b16565b5b62000f0189828a0162000e3a565b945050606062000f1489828a0162000ba4565b935050608062000f2789828a0162000ba4565b92505060a062000f3a89828a0162000ba4565b9150509295509295509295565b60006020828403121562000f605762000f5f62000b11565b5b600062000f708482850162000b69565b91505092915050565b60006020828403121562000f925762000f9162000b11565b5b600082013567ffffffffffffffff81111562000fb35762000fb262000b16565b5b62000fc18482850162000d5f565b91505092915050565b62000fd58162000b80565b82525050565b600060208201905062000ff2600083018462000fca565b92915050565b600081519050919050565b600082825260208201905092915050565b6000819050602082019050919050565b6200102f8162000b3b565b82525050565b600062001043838362001024565b60208301905092915050565b6000602082019050919050565b6000620010698262000ff8565b62001075818562001003565b9350620010828362001014565b8060005b83811015620010b95781516200109d888262001035565b9750620010aa836200104f565b92505060018101905062001086565b5085935050505092915050565b60006020820190508181036000830152620010e281846200105c565b905092915050565b600081519050919050565b600081905092915050565b60005b838110156200112057808201518184015260208101905062001103565b60008484015250505050565b60006200113982620010ea565b620011458185620010f5565b93506200115781856020860162001100565b80840191505092915050565b60006200117182846200112c565b915081905092915050565b600082825260208201905092915050565b7f5661756c74206e616d6520616c72656164792065786973747300000000000000600082015250565b6000620011c56019836200117c565b9150620011d2826200118d565b602082019050919050565b60006020820190508181036000830152620011f881620011b6565b9050919050565b60008160601b9050919050565b60006200121982620011ff565b9050919050565b60006200122d826200120c565b9050919050565b62001249620012438262000b3b565b62001220565b82525050565b6000819050919050565b6200126e620012688262000b80565b6200124f565b82525050565b600062001282828562001234565b60148201915062001294828462001259565b6020820191508190509392505050565b6000620012b182620010ea565b620012bd81856200117c565b9350620012cf81856020860162001100565b620012da8162000c3a565b840191505092915050565b600060e082019050620012fc600083018a62000c02565b8181036020830152620013108189620012a4565b905062001321604083018862000c02565b81810360608301526200133581876200105c565b905062001346608083018662000fca565b6200135560a083018562000fca565b6200136460c083018462000fca565b98975050505050505050565b7f4e487b7100000000000000000000000000000000000000000000000000000000600052601160045260246000fd5b6000620013ac8262000b80565b9150620013b98362000b80565b9250828201905080821115620013d457620013d362001370565b5b92915050565b6000606082019050620013f1600083018662000c02565b8181036020830152620014058185620012a4565b905062001416604083018462000c02565b949350505050565b7f4e6f7420746865206f776e657200000000000000000000000000000000000000600082015250565b600062001456600d836200117c565b915062001463826200141e565b602082019050919050565b60006020820190508181036000830152620014898162001447565b905091905056fe60a060405234801561001057600080fd5b506040516104ad3803806104ad833981810160405281019061003291906101dd565b61004c6758a61ed1ff33263960c01b61017760201b60201c565b61006667f75cbd3c73a7950360c01b61017760201b60201c565b61008067fc3083d2d16361f860c01b61017760201b60201c565b61009a67485e6d1fc8c8222d60c01b61017760201b60201c565b600073ffffffffffffffffffffffffffffffffffffffff168173ffffffffffffffffffffffffffffffffffffffff1603610109576040517f08c379a000000000000000000000000000000000000000000000000000000000815260040161010090610267565b60405180910390fd5b61012367e86c83c8cc9a0b1860c01b61017760201b60201c565b61013d676a6007f8af3998d960c01b61017760201b60201c565b8073ffffffffffffffffffffffffffffffffffffffff1660808173ffffffffffffffffffffffffffffffffffffffff168152505050610287565b50565b600080fd5b600073ffffffffffffffffffffffffffffffffffffffff82169050919050565b60006101aa8261017f565b9050919050565b6101ba8161019f565b81146101c557600080fd5b50565b6000815190506101d7816101b1565b92915050565b6000602082840312156101f3576101f261017a565b5b6000610201848285016101c8565b91505092915050565b600082825260208201905092915050565b7f496e76616c696420696d706c656d656e746174696f6e20616464726573730000600082015250565b6000610251601e8361020a565b915061025c8261021b565b602082019050919050565b6000602082019050818103600083015261028081610244565b9050919050565b6080516101ff6102ae6000396000818160400152818160a7015261014b01526101ff6000f3fe6080604052600436106100225760003560e01c80635c60da1b146100cd57610066565b366100665761003b67d1b9d99192a4012860c01b6100f8565b6100647f00000000000000000000000000000000000000000000000000000000000000006100fb565b005b61007a67b94e2f5a22a0387460c01b6100f8565b61008e6792719994518725b860c01b6100f8565b6100a267af12f16643892cfd60c01b6100f8565b6100cb7f00000000000000000000000000000000000000000000000000000000000000006100fb565b005b3480156100d957600080fd5b506100e2610149565b6040516100ef91906101ae565b60405180910390f35b50565b61010f6779b4c765c903045160c01b6100f8565b610123674bf9e279609257fa60c01b6100f8565b3660008037600080366000845af43d6000803e8060008114610144573d6000f35b3d6000fd5b7f000000000000000000000000000000000000000000000000000000000000000081565b600073ffffffffffffffffffffffffffffffffffffffff82169050919050565b60006101988261016d565b9050919050565b6101a88161018d565b82525050565b60006020820190506101c3600083018461019f565b9291505056fea26469706673582212206cf9221279f36b3e62de85d946a9a5a1978ddbd622215388cc1a4badf53c0dc464736f6c63430008180033a26469706673582212209cf246b38819e1fbe84ff92f850a12b100e914ea6e35e4f960fb4fb501c8595564736f6c63430008180033",
  "linkReferences": {},
  "deployedLinkReferences": {}
}