{
  "_format": "hh-sol-artifact-1",
  "contractName": "IOUMint",
  "sourceName": "contracts/IOU.sol",
  "abi": [
    {
      "inputs": [
        {
          "internalType": "address",
          "name": "_loanImplementation",
          "type": "address"
        }
      ],
      "stateMutability": "nonpayable",
      "type": "constructor"
    },
    {
      "anonymous": false,
      "inputs": [
        {
          "indexed": true,
          "internalType": "address",
          "name": "loanAddress",
          "type": "address"
        },
        {
          "indexed": true,
          "internalType": "address",
          "name": "loanToken",
          "type": "address"
        },
        {
          "indexed": true,
          "internalType": "address",
          "name": "borrower",
          "type": "address"
        },
        {
          "indexed": false,
          "internalType": "uint256",
          "name": "loanGoal",
          "type": "uint256"
        }
      ],
      "name": "LoanDeployed",
      "type": "event"
    },
    {
      "inputs": [
        {
          "internalType": "address",
          "name": "",
          "type": "address"
        }
      ],
      "name": "IOU",
      "outputs": [
        {
          "internalType": "bool",
          "name": "",
          "type": "bool"
        }
      ],
      "stateMutability": "view",
      "type": "function"
    },
    {
      "inputs": [
        {
          "internalType": "uint256",
          "name": "",
          "type": "uint256"
        }
      ],
      "name": "allLoans",
      "outputs": [
        {
          "internalType": "address",
          "name": "",
          "type": "address"
        }
      ],
      "stateMutability": "view",
      "type": "function"
    },
    {
      "inputs": [
        {
          "internalType": "address",
          "name": "_loanToken",
          "type": "address"
        },
        {
          "internalType": "address",
          "name": "_borrower",
          "type": "address"
        },
        {
          "internalType": "uint256",
          "name": "_loanGoal",
          "type": "uint256"
        },
        {
          "internalType": "uint256",
          "name": "_annualInterestRate",
          "type": "uint256"
        },
        {
          "internalType": "uint256",
          "name": "_platformFeeRate",
          "type": "uint256"
        },
        {
          "internalType": "address",
          "name": "_feeAddress",
          "type": "address"
        },
        {
          "internalType": "string",
          "name": "_name",
          "type": "string"
        },
        {
          "internalType": "string",
          "name": "_symbol",
          "type": "string"
        },
        {
          "internalType": "bool",
          "name": "_flexible",
          "type": "bool"
        }
      ],
      "name": "deployLoan",
      "outputs": [
        {
          "internalType": "address",
          "name": "loanAddress",
          "type": "address"
        }
      ],
      "stateMutability": "nonpayable",
      "type": "function"
    },
    {
      "inputs": [],
      "name": "getAllLoans",
      "outputs": [
        {
          "internalType": "address[]",
          "name": "",
          "type": "address[]"
        }
      ],
      "stateMutability": "view",
      "type": "function"
    },
    {
      "inputs": [
        {
          "internalType": "uint256[]",
          "name": "ids",
          "type": "uint256[]"
        }
      ],
      "name": "getLoans",
      "outputs": [
        {
          "internalType": "address[]",
          "name": "",
          "type": "address[]"
        }
      ],
      "stateMutability": "view",
      "type": "function"
    },
    {
      "inputs": [
        {
          "internalType": "address[]",
          "name": "loanAddrs",
          "type": "address[]"
        },
        {
          "internalType": "address",
          "name": "user",
          "type": "address"
        }
      ],
      "name": "getSpotInfo",
      "outputs": [
        {
          "components": [
            {
              "internalType": "address",
              "name": "loanAddress",
              "type": "address"
            },
            {
              "internalType": "address",
              "name": "borrower",
              "type": "address"
            },
            {
              "internalType": "uint256",
              "name": "loanGoal",
              "type": "uint256"
            },
            {
              "internalType": "uint256",
              "name": "totalFunded",
              "type": "uint256"
            },
            {
              "internalType": "uint256",
              "name": "totalDrawnDown",
              "type": "uint256"
            },
            {
              "internalType": "uint256",
              "name": "accruedInterest",
              "type": "uint256"
            },
            {
              "internalType": "uint256",
              "name": "annualInterestRate",
              "type": "uint256"
            },
            {
              "internalType": "uint256",
              "name": "platformFeeRate",
              "type": "uint256"
            },
            {
              "internalType": "address",
              "name": "feeAddress",
              "type": "address"
            },
            {
              "internalType": "uint256",
              "name": "totalSupply",
              "type": "uint256"
            },
            {
              "internalType": "string",
              "name": "iouName",
              "type": "string"
            },
            {
              "internalType": "string",
              "name": "iouSymbol",
              "type": "string"
            },
            {
              "internalType": "address",
              "name": "underlying",
              "type": "address"
            },
            {
              "internalType": "string",
              "name": "underlyingName",
              "type": "string"
            },
            {
              "internalType": "string",
              "name": "underlyingSymbol",
              "type": "string"
            },
            {
              "internalType": "uint8",
              "name": "underlyingDecimals",
              "type": "uint8"
            },
            {
              "internalType": "uint256",
              "name": "updatedInterest",
              "type": "uint256"
            },
            {
              "internalType": "uint256",
              "name": "updatedTotalOwed",
              "type": "uint256"
            },
            {
              "internalType": "uint256",
              "name": "myIOUs",
              "type": "uint256"
            },
            {
              "internalType": "uint256",
              "name": "repayments",
              "type": "uint256"
            },
            {
              "internalType": "uint256",
              "name": "interestrepayments",
              "type": "uint256"
            },
            {
              "internalType": "uint256",
              "name": "interestClaimable",
              "type": "uint256"
            },
            {
              "internalType": "uint256",
              "name": "tokensUnderlying",
              "type": "uint256"
            },
            {
              "internalType": "uint256",
              "name": "totalRedeemed",
              "type": "uint256"
            },
            {
              "internalType": "bool",
              "name": "flexible",
              "type": "bool"
            }
          ],
          "internalType": "struct IOUMint.LoanDetails[]",
          "name": "detailsArray",
          "type": "tuple[]"
        }
      ],
      "stateMutability": "view",
      "type": "function"
    },
    {
      "inputs": [
        {
          "internalType": "address",
          "name": "user",
          "type": "address"
        }
      ],
      "name": "getUserIOUs",
      "outputs": [
        {
          "internalType": "address[]",
          "name": "",
          "type": "address[]"
        }
      ],
      "stateMutability": "view",
      "type": "function"
    },
    {
      "inputs": [
        {
          "internalType": "address",
          "name": "user",
          "type": "address"
        }
      ],
      "name": "getUserLoans",
      "outputs": [
        {
          "internalType": "address[]",
          "name": "",
          "type": "address[]"
        }
      ],
      "stateMutability": "view",
      "type": "function"
    },
    {
      "inputs": [],
      "name": "loanImplementation",
      "outputs": [
        {
          "internalType": "address",
          "name": "",
          "type": "address"
        }
      ],
      "stateMutability": "view",
      "type": "function"
    },
    {
      "inputs": [
        {
          "internalType": "address",
          "name": "user",
          "type": "address"
        }
      ],
      "name": "newLoan",
      "outputs": [],
      "stateMutability": "nonpayable",
      "type": "function"
    },
    {
      "inputs": [
        {
          "internalType": "address",
          "name": "",
          "type": "address"
        },
        {
          "internalType": "uint256",
          "name": "",
          "type": "uint256"
        }
      ],
      "name": "userIOUs",
      "outputs": [
        {
          "internalType": "address",
          "name": "",
          "type": "address"
        }
      ],
      "stateMutability": "view",
      "type": "function"
    },
    {
      "inputs": [
        {
          "internalType": "address",
          "name": "",
          "type": "address"
        },
        {
          "internalType": "uint256",
          "name": "",
          "type": "uint256"
        }
      ],
      "name": "userLoans",
      "outputs": [
        {
          "internalType": "address",
          "name": "",
          "type": "address"
        }
      ],
      "stateMutability": "view",
      "type": "function"
    }
  ],
  "bytecode": "0x60806040523480156200001157600080fd5b5060405162003294380380620032948339818101604052810190620000379190620000e9565b80600460006101000a81548173ffffffffffffffffffffffffffffffffffffffff021916908373ffffffffffffffffffffffffffffffffffffffff160217905550506200011b565b600080fd5b600073ffffffffffffffffffffffffffffffffffffffff82169050919050565b6000620000b18262000084565b9050919050565b620000c381620000a4565b8114620000cf57600080fd5b50565b600081519050620000e381620000b8565b92915050565b6000602082840312156200010257620001016200007f565b5b60006200011284828501620000d2565b91505092915050565b613169806200012b6000396000f3fe60806040523480156200001157600080fd5b5060043610620000c45760003560e01c8063893cfe13116200007b578063893cfe13146200020d578063a5bfd16a146200022d578063b9ae34df146200024f578063d8bad5bd1462000285578063da7f9d9014620002bb578063dc724b1b14620002f157620000c4565b806302bf321f14620000c957806314e97fe814620000ff5780631638711b14620001355780631b8a3548146200016b578063435c63f914620001a1578063781c493014620001d7575b600080fd5b620000e76004803603810190620000e1919062001d68565b62000313565b604051620000f6919062001e68565b60405180910390f35b6200011d600480360381019062000117919062001ec7565b620003e2565b6040516200012c919062001f1f565b60405180910390f35b6200015360048036038101906200014d9190620020db565b62000431565b60405162000162919062001f1f565b60405180910390f35b620001896004803603810190620001839190620021f8565b6200076e565b60405162000198919062001f1f565b60405180910390f35b620001bf6004803603810190620001b9919062002305565b620007ae565b604051620001ce919062002760565b60405180910390f35b620001f56004803603810190620001ef919062001d68565b620016d1565b60405162000204919062002795565b60405180910390f35b6200022b600480360381019062000225919062001d68565b620016f1565b005b62000237620018cc565b60405162000246919062001e68565b60405180910390f35b6200026d600480360381019062000267919062002888565b6200195c565b6040516200027c919062001e68565b60405180910390f35b620002a360048036038101906200029d919062001ec7565b62001a84565b604051620002b2919062001f1f565b60405180910390f35b620002d96004803603810190620002d3919062001d68565b62001ad3565b604051620002e8919062001e68565b60405180910390f35b620002fb62001ba2565b6040516200030a919062001f1f565b60405180910390f35b6060600260008373ffffffffffffffffffffffffffffffffffffffff1673ffffffffffffffffffffffffffffffffffffffff168152602001908152602001600020805480602002602001604051908101604052809291908181526020018280548015620003d657602002820191906000526020600020905b8160009054906101000a900473ffffffffffffffffffffffffffffffffffffffff1673ffffffffffffffffffffffffffffffffffffffff16815260200190600101908083116200038b575b50505050509050919050565b60016020528160005260406000208181548110620003ff57600080fd5b906000526020600020016000915091509054906101000a900473ffffffffffffffffffffffffffffffffffffffff1681565b60008873ffffffffffffffffffffffffffffffffffffffff163373ffffffffffffffffffffffffffffffffffffffff1614620004a4576040517f08c379a00000000000000000000000000000000000000000000000000000000081526004016200049b906200293a565b60405180910390fd5b6000600460009054906101000a900473ffffffffffffffffffffffffffffffffffffffff16604051620004d79062001bc8565b620004e3919062001f1f565b604051809103906000f08015801562000500573d6000803e3d6000fd5b5090508091508173ffffffffffffffffffffffffffffffffffffffff16635cc3a9d98c8c8c8c8c8c8c8c308d6040518b63ffffffff1660e01b8152600401620005539a99989796959493929190620029ae565b600060405180830381600087803b1580156200056e57600080fd5b505af115801562000583573d6000803e3d6000fd5b505050506000829080600181540180825580915050600190039060005260206000200160009091909190916101000a81548173ffffffffffffffffffffffffffffffffffffffff021916908373ffffffffffffffffffffffffffffffffffffffff1602179055506001600360008473ffffffffffffffffffffffffffffffffffffffff1673ffffffffffffffffffffffffffffffffffffffff16815260200190815260200160002060006101000a81548160ff021916908315150217905550600160008b73ffffffffffffffffffffffffffffffffffffffff1673ffffffffffffffffffffffffffffffffffffffff168152602001908152602001600020829080600181540180825580915050600190039060005260206000200160009091909190916101000a81548173ffffffffffffffffffffffffffffffffffffffff021916908373ffffffffffffffffffffffffffffffffffffffff1602179055508973ffffffffffffffffffffffffffffffffffffffff168b73ffffffffffffffffffffffffffffffffffffffff168373ffffffffffffffffffffffffffffffffffffffff167fb3eecbbcfd724979151565162801c93185c4836bcb9f0b2c09b8634e565b0c468c60405162000758919062002a6c565b60405180910390a4509998505050505050505050565b600081815481106200077f57600080fd5b906000526020600020016000915054906101000a900473ffffffffffffffffffffffffffffffffffffffff1681565b60606000835190508067ffffffffffffffff811115620007d357620007d262001f57565b5b6040519080825280602002602001820160405280156200081057816020015b620007fc62001bd6565b815260200190600190039081620007f25790505b50915060005b81811015620016c957600085828151811062000837576200083662002a89565b5b6020026020010151905060008190506200085062001bd6565b82816000019073ffffffffffffffffffffffffffffffffffffffff16908173ffffffffffffffffffffffffffffffffffffffff16815250508173ffffffffffffffffffffffffffffffffffffffff16637df1f1b96040518163ffffffff1660e01b8152600401602060405180830381865afa158015620008d4573d6000803e3d6000fd5b505050506040513d601f19601f82011682018060405250810190620008fa919062002acf565b816020019073ffffffffffffffffffffffffffffffffffffffff16908173ffffffffffffffffffffffffffffffffffffffff16815250508173ffffffffffffffffffffffffffffffffffffffff16636f0a7f716040518163ffffffff1660e01b8152600401602060405180830381865afa1580156200097d573d6000803e3d6000fd5b505050506040513d601f19601f82011682018060405250810190620009a3919062002b18565b8160400181815250508173ffffffffffffffffffffffffffffffffffffffff1663ad044f496040518163ffffffff1660e01b8152600401602060405180830381865afa158015620009f8573d6000803e3d6000fd5b505050506040513d601f19601f8201168201806040525081019062000a1e919062002b18565b8160600181815250508173ffffffffffffffffffffffffffffffffffffffff1663fe3699c66040518163ffffffff1660e01b8152600401602060405180830381865afa15801562000a73573d6000803e3d6000fd5b505050506040513d601f19601f8201168201806040525081019062000a99919062002b18565b8160800181815250508173ffffffffffffffffffffffffffffffffffffffff166345fe329f6040518163ffffffff1660e01b8152600401602060405180830381865afa15801562000aee573d6000803e3d6000fd5b505050506040513d601f19601f8201168201806040525081019062000b14919062002b18565b8160a00181815250508173ffffffffffffffffffffffffffffffffffffffff16631a9703da6040518163ffffffff1660e01b8152600401602060405180830381865afa15801562000b69573d6000803e3d6000fd5b505050506040513d601f19601f8201168201806040525081019062000b8f919062002b18565b8160c00181815250508173ffffffffffffffffffffffffffffffffffffffff1663eeca08f06040518163ffffffff1660e01b8152600401602060405180830381865afa15801562000be4573d6000803e3d6000fd5b505050506040513d601f19601f8201168201806040525081019062000c0a919062002b18565b8160e00181815250508173ffffffffffffffffffffffffffffffffffffffff1663412753586040518163ffffffff1660e01b8152600401602060405180830381865afa15801562000c5f573d6000803e3d6000fd5b505050506040513d601f19601f8201168201806040525081019062000c85919062002acf565b81610100019073ffffffffffffffffffffffffffffffffffffffff16908173ffffffffffffffffffffffffffffffffffffffff16815250508173ffffffffffffffffffffffffffffffffffffffff166318160ddd6040518163ffffffff1660e01b8152600401602060405180830381865afa15801562000d09573d6000803e3d6000fd5b505050506040513d601f19601f8201168201806040525081019062000d2f919062002b18565b816101200181815250508173ffffffffffffffffffffffffffffffffffffffff1663f35dad406040518163ffffffff1660e01b8152600401602060405180830381865afa15801562000d85573d6000803e3d6000fd5b505050506040513d601f19601f8201168201806040525081019062000dab919062002b18565b816102e00181815250508173ffffffffffffffffffffffffffffffffffffffff16633ce427d26040518163ffffffff1660e01b8152600401602060405180830381865afa15801562000e01573d6000803e3d6000fd5b505050506040513d601f19601f8201168201806040525081019062000e27919062002b61565b816103000190151590811515815250508173ffffffffffffffffffffffffffffffffffffffff166306fdde036040518163ffffffff1660e01b8152600401600060405180830381865afa15801562000e83573d6000803e3d6000fd5b505050506040513d6000823e3d601f19601f8201168201806040525081019062000eae919062002c11565b8161014001819052508173ffffffffffffffffffffffffffffffffffffffff166395d89b416040518163ffffffff1660e01b8152600401600060405180830381865afa15801562000f03573d6000803e3d6000fd5b505050506040513d6000823e3d601f19601f8201168201806040525081019062000f2e919062002c11565b8161016001819052508273ffffffffffffffffffffffffffffffffffffffff166370a08231886040518263ffffffff1660e01b815260040162000f72919062001f1f565b602060405180830381865afa15801562000f90573d6000803e3d6000fd5b505050506040513d601f19601f8201168201806040525081019062000fb6919062002b18565b8161024001818152505060008273ffffffffffffffffffffffffffffffffffffffff166306d378176040518163ffffffff1660e01b8152600401602060405180830381865afa1580156200100e573d6000803e3d6000fd5b505050506040513d601f19601f8201168201806040525081019062001034919062002acf565b90508082610180019073ffffffffffffffffffffffffffffffffffffffff16908173ffffffffffffffffffffffffffffffffffffffff1681525050600073ffffffffffffffffffffffffffffffffffffffff168173ffffffffffffffffffffffffffffffffffffffff16036200113c576040518060400160405280600781526020017f556e6b6e6f776e00000000000000000000000000000000000000000000000000815250826101a001819052506040518060400160405280600781526020017f554e4b4e4f574e00000000000000000000000000000000000000000000000000815250826101c001819052506012826101e0019060ff16908160ff1681525050620013f1565b8073ffffffffffffffffffffffffffffffffffffffff166306fdde036040518163ffffffff1660e01b8152600401600060405180830381865afa925050508015620011ac57506040513d6000823e3d601f19601f82011682018060405250810190620011a9919062002c11565b60015b620011f6576040518060400160405280600781526020017f556e6b6e6f776e00000000000000000000000000000000000000000000000000815250826101a0018190525062001202565b80836101a00181905250505b8073ffffffffffffffffffffffffffffffffffffffff166370a08231896040518263ffffffff1660e01b81526004016200123d919062001f1f565b602060405180830381865afa1580156200125b573d6000803e3d6000fd5b505050506040513d601f19601f8201168201806040525081019062001281919062002b18565b826102c00181815250508073ffffffffffffffffffffffffffffffffffffffff166395d89b416040518163ffffffff1660e01b8152600401600060405180830381865afa925050508015620012fb57506040513d6000823e3d601f19601f82011682018060405250810190620012f8919062002c11565b60015b62001345576040518060400160405280600781526020017f554e4b4e4f574e00000000000000000000000000000000000000000000000000815250826101c0018190525062001351565b80836101c00181905250505b8073ffffffffffffffffffffffffffffffffffffffff1663313ce5676040518163ffffffff1660e01b8152600401602060405180830381865afa925050508015620013bc57506040513d601f19601f82011682018060405250810190620013b9919062002c93565b60015b620013db576012826101e0019060ff16908160ff1681525050620013f0565b80836101e0019060ff16908160ff1681525050505b5b8273ffffffffffffffffffffffffffffffffffffffff16637a6aa88c6040518163ffffffff1660e01b8152600401602060405180830381865afa1580156200143d573d6000803e3d6000fd5b505050506040513d601f19601f8201168201806040525081019062001463919062002b18565b826102000181815250508273ffffffffffffffffffffffffffffffffffffffff1663e7fa9f7d6040518163ffffffff1660e01b8152600401602060405180830381865afa158015620014b9573d6000803e3d6000fd5b505050506040513d601f19601f82011682018060405250810190620014df919062002b18565b8261022001818152505060008373ffffffffffffffffffffffffffffffffffffffff16632786d8e56040518163ffffffff1660e01b8152600401602060405180830381865afa15801562001537573d6000803e3d6000fd5b505050506040513d601f19601f820116820180604052508101906200155d919062002b18565b905060008473ffffffffffffffffffffffffffffffffffffffff1663cd9f24aa6040518163ffffffff1660e01b8152600401602060405180830381865afa158015620015ad573d6000803e3d6000fd5b505050506040513d601f19601f82011682018060405250810190620015d3919062002b18565b9050818461026001818152505080821015620015f157600062001600565b8082620015ff919062002cf4565b5b846102800181815250508473ffffffffffffffffffffffffffffffffffffffff1663aa7aee0c8b6040518263ffffffff1660e01b815260040162001645919062001f1f565b602060405180830381865afa15801562001663573d6000803e3d6000fd5b505050506040513d601f19601f8201168201806040525081019062001689919062002b18565b846102a001818152505083898881518110620016aa57620016a962002a89565b5b6020026020010181905250505050505050808060010191505062000816565b505092915050565b60036020528060005260406000206000915054906101000a900460ff1681565b6000339050600360008273ffffffffffffffffffffffffffffffffffffffff1673ffffffffffffffffffffffffffffffffffffffff16815260200190815260200160002060009054906101000a900460ff1662001785576040517f08c379a00000000000000000000000000000000000000000000000000000000081526004016200177c9062002d7f565b60405180910390fd5b6000600260008473ffffffffffffffffffffffffffffffffffffffff1673ffffffffffffffffffffffffffffffffffffffff168152602001908152602001600020905060005b818054905081101562001863578273ffffffffffffffffffffffffffffffffffffffff1682828154811062001805576200180462002a89565b5b9060005260206000200160009054906101000a900473ffffffffffffffffffffffffffffffffffffffff1673ffffffffffffffffffffffffffffffffffffffff16036200185557505050620018c9565b8080600101915050620017cb565b5080829080600181540180825580915050600190039060005260206000200160009091909190916101000a81548173ffffffffffffffffffffffffffffffffffffffff021916908373ffffffffffffffffffffffffffffffffffffffff16021790555050505b50565b606060008054806020026020016040519081016040528092919081815260200182805480156200195257602002820191906000526020600020905b8160009054906101000a900473ffffffffffffffffffffffffffffffffffffffff1673ffffffffffffffffffffffffffffffffffffffff168152602001906001019080831162001907575b5050505050905090565b60606000825167ffffffffffffffff8111156200197e576200197d62001f57565b5b604051908082528060200260200182016040528015620019ad5781602001602082028036833780820191505090505b50905060005b835181101562001a7a576000848281518110620019d557620019d462002a89565b5b602002602001015181548110620019f157620019f062002a89565b5b9060005260206000200160009054906101000a900473ffffffffffffffffffffffffffffffffffffffff1682828151811062001a325762001a3162002a89565b5b602002602001019073ffffffffffffffffffffffffffffffffffffffff16908173ffffffffffffffffffffffffffffffffffffffff16815250508080600101915050620019b3565b5080915050919050565b6002602052816000526040600020818154811062001aa157600080fd5b906000526020600020016000915091509054906101000a900473ffffffffffffffffffffffffffffffffffffffff1681565b6060600160008373ffffffffffffffffffffffffffffffffffffffff1673ffffffffffffffffffffffffffffffffffffffff16815260200190815260200160002080548060200260200160405190810160405280929190818152602001828054801562001b9657602002820191906000526020600020905b8160009054906101000a900473ffffffffffffffffffffffffffffffffffffffff1673ffffffffffffffffffffffffffffffffffffffff168152602001906001019080831162001b4b575b50505050509050919050565b600460009054906101000a900473ffffffffffffffffffffffffffffffffffffffff1681565b6103928062002da283390190565b604051806103200160405280600073ffffffffffffffffffffffffffffffffffffffff168152602001600073ffffffffffffffffffffffffffffffffffffffff168152602001600081526020016000815260200160008152602001600081526020016000815260200160008152602001600073ffffffffffffffffffffffffffffffffffffffff168152602001600081526020016060815260200160608152602001600073ffffffffffffffffffffffffffffffffffffffff1681526020016060815260200160608152602001600060ff16815260200160008152602001600081526020016000815260200160008152602001600081526020016000815260200160008152602001600081526020016000151581525090565b6000604051905090565b600080fd5b600080fd5b600073ffffffffffffffffffffffffffffffffffffffff82169050919050565b600062001d308262001d03565b9050919050565b62001d428162001d23565b811462001d4e57600080fd5b50565b60008135905062001d628162001d37565b92915050565b60006020828403121562001d815762001d8062001cf9565b5b600062001d918482850162001d51565b91505092915050565b600081519050919050565b600082825260208201905092915050565b6000819050602082019050919050565b62001dd18162001d23565b82525050565b600062001de5838362001dc6565b60208301905092915050565b6000602082019050919050565b600062001e0b8262001d9a565b62001e17818562001da5565b935062001e248362001db6565b8060005b8381101562001e5b57815162001e3f888262001dd7565b975062001e4c8362001df1565b92505060018101905062001e28565b5085935050505092915050565b6000602082019050818103600083015262001e84818462001dfe565b905092915050565b6000819050919050565b62001ea18162001e8c565b811462001ead57600080fd5b50565b60008135905062001ec18162001e96565b92915050565b6000806040838503121562001ee15762001ee062001cf9565b5b600062001ef18582860162001d51565b925050602062001f048582860162001eb0565b9150509250929050565b62001f198162001d23565b82525050565b600060208201905062001f36600083018462001f0e565b92915050565b600080fd5b600080fd5b6000601f19601f8301169050919050565b7f4e487b7100000000000000000000000000000000000000000000000000000000600052604160045260246000fd5b62001f918262001f46565b810181811067ffffffffffffffff8211171562001fb35762001fb262001f57565b5b80604052505050565b600062001fc862001cef565b905062001fd6828262001f86565b919050565b600067ffffffffffffffff82111562001ff95762001ff862001f57565b5b620020048262001f46565b9050602081019050919050565b82818337600083830152505050565b600062002037620020318462001fdb565b62001fbc565b90508281526020810184848401111562002056576200205562001f41565b5b6200206384828562002011565b509392505050565b600082601f83011262002083576200208262001f3c565b5b81356200209584826020860162002020565b91505092915050565b60008115159050919050565b620020b5816200209e565b8114620020c157600080fd5b50565b600081359050620020d581620020aa565b92915050565b60008060008060008060008060006101208a8c03121562002101576200210062001cf9565b5b6000620021118c828d0162001d51565b9950506020620021248c828d0162001d51565b9850506040620021378c828d0162001eb0565b97505060606200214a8c828d0162001eb0565b96505060806200215d8c828d0162001eb0565b95505060a0620021708c828d0162001d51565b94505060c08a013567ffffffffffffffff81111562002194576200219362001cfe565b5b620021a28c828d016200206b565b93505060e08a013567ffffffffffffffff811115620021c657620021c562001cfe565b5b620021d48c828d016200206b565b925050610100620021e88c828d01620020c4565b9150509295985092959850929598565b60006020828403121562002211576200221062001cf9565b5b6000620022218482850162001eb0565b91505092915050565b600067ffffffffffffffff82111562002248576200224762001f57565b5b602082029050602081019050919050565b600080fd5b6000620022756200226f846200222a565b62001fbc565b905080838252602082019050602084028301858111156200229b576200229a62002259565b5b835b81811015620022c85780620022b3888262001d51565b8452602084019350506020810190506200229d565b5050509392505050565b600082601f830112620022ea57620022e962001f3c565b5b8135620022fc8482602086016200225e565b91505092915050565b600080604083850312156200231f576200231e62001cf9565b5b600083013567ffffffffffffffff81111562002340576200233f62001cfe565b5b6200234e85828601620022d2565b9250506020620023618582860162001d51565b9150509250929050565b600081519050919050565b600082825260208201905092915050565b6000819050602082019050919050565b620023a28162001e8c565b82525050565b600081519050919050565b600082825260208201905092915050565b60005b83811015620023e4578082015181840152602081019050620023c7565b60008484015250505050565b6000620023fd82620023a8565b620024098185620023b3565b93506200241b818560208601620023c4565b620024268162001f46565b840191505092915050565b600060ff82169050919050565b620024498162002431565b82525050565b6200245a816200209e565b82525050565b6000610320830160008301516200247b600086018262001dc6565b50602083015162002490602086018262001dc6565b506040830151620024a5604086018262002397565b506060830151620024ba606086018262002397565b506080830151620024cf608086018262002397565b5060a0830151620024e460a086018262002397565b5060c0830151620024f960c086018262002397565b5060e08301516200250e60e086018262002397565b506101008301516200252561010086018262001dc6565b506101208301516200253c61012086018262002397565b50610140830151848203610140860152620025588282620023f0565b915050610160830151848203610160860152620025768282620023f0565b9150506101808301516200258f61018086018262001dc6565b506101a08301518482036101a0860152620025ab8282620023f0565b9150506101c08301518482036101c0860152620025c98282620023f0565b9150506101e0830151620025e26101e08601826200243e565b50610200830151620025f961020086018262002397565b506102208301516200261061022086018262002397565b506102408301516200262761024086018262002397565b506102608301516200263e61026086018262002397565b506102808301516200265561028086018262002397565b506102a08301516200266c6102a086018262002397565b506102c0830151620026836102c086018262002397565b506102e08301516200269a6102e086018262002397565b50610300830151620026b16103008601826200244f565b508091505092915050565b6000620026ca838362002460565b905092915050565b6000602082019050919050565b6000620026ec826200236b565b620026f8818562002376565b9350836020820285016200270c8562002387565b8060005b858110156200274e57848403895281516200272c8582620026bc565b94506200273983620026d2565b925060208a0199505060018101905062002710565b50829750879550505050505092915050565b600060208201905081810360008301526200277c8184620026df565b905092915050565b6200278f816200209e565b82525050565b6000602082019050620027ac600083018462002784565b92915050565b600067ffffffffffffffff821115620027d057620027cf62001f57565b5b602082029050602081019050919050565b6000620027f8620027f284620027b2565b62001fbc565b905080838252602082019050602084028301858111156200281e576200281d62002259565b5b835b818110156200284b578062002836888262001eb0565b84526020840193505060208101905062002820565b5050509392505050565b600082601f8301126200286d576200286c62001f3c565b5b81356200287f848260208601620027e1565b91505092915050565b600060208284031215620028a157620028a062001cf9565b5b600082013567ffffffffffffffff811115620028c257620028c162001cfe565b5b620028d08482850162002855565b91505092915050565b600082825260208201905092915050565b7f4f6e6c7920626f72726f7765722063616e206465706c6f790000000000000000600082015250565b600062002922601883620028d9565b91506200292f82620028ea565b602082019050919050565b60006020820190508181036000830152620029558162002913565b9050919050565b620029678162001e8c565b82525050565b60006200297a82620023a8565b620029868185620028d9565b935062002998818560208601620023c4565b620029a38162001f46565b840191505092915050565b600061014082019050620029c6600083018d62001f0e565b620029d5602083018c62001f0e565b620029e4604083018b6200295c565b620029f3606083018a6200295c565b62002a0260808301896200295c565b62002a1160a083018862001f0e565b81810360c083015262002a2581876200296d565b905081810360e083015262002a3b81866200296d565b905062002a4d61010083018562001f0e565b62002a5d61012083018462002784565b9b9a5050505050505050505050565b600060208201905062002a8360008301846200295c565b92915050565b7f4e487b7100000000000000000000000000000000000000000000000000000000600052603260045260246000fd5b60008151905062002ac98162001d37565b92915050565b60006020828403121562002ae85762002ae762001cf9565b5b600062002af88482850162002ab8565b91505092915050565b60008151905062002b128162001e96565b92915050565b60006020828403121562002b315762002b3062001cf9565b5b600062002b418482850162002b01565b91505092915050565b60008151905062002b5b81620020aa565b92915050565b60006020828403121562002b7a5762002b7962001cf9565b5b600062002b8a8482850162002b4a565b91505092915050565b600062002baa62002ba48462001fdb565b62001fbc565b90508281526020810184848401111562002bc95762002bc862001f41565b5b62002bd6848285620023c4565b509392505050565b600082601f83011262002bf65762002bf562001f3c565b5b815162002c0884826020860162002b93565b91505092915050565b60006020828403121562002c2a5762002c2962001cf9565b5b600082015167ffffffffffffffff81111562002c4b5762002c4a62001cfe565b5b62002c598482850162002bde565b91505092915050565b62002c6d8162002431565b811462002c7957600080fd5b50565b60008151905062002c8d8162002c62565b92915050565b60006020828403121562002cac5762002cab62001cf9565b5b600062002cbc8482850162002c7c565b91505092915050565b7f4e487b7100000000000000000000000000000000000000000000000000000000600052601160045260246000fd5b600062002d018262001e8c565b915062002d0e8362001e8c565b925082820390508181111562002d295762002d2862002cc5565b5b92915050565b7f4e6f7420612076616c696420494f550000000000000000000000000000000000600082015250565b600062002d67600f83620028d9565b915062002d748262002d2f565b602082019050919050565b6000602082019050818103600083015262002d9a8162002d58565b905091905056fe60a060405234801561001057600080fd5b506040516103923803806103928339818101604052810190610032919061013e565b600073ffffffffffffffffffffffffffffffffffffffff168173ffffffffffffffffffffffffffffffffffffffff16036100a1576040517f08c379a0000000000000000000000000000000000000000000000000000000008152600401610098906101c8565b60405180910390fd5b8073ffffffffffffffffffffffffffffffffffffffff1660808173ffffffffffffffffffffffffffffffffffffffff1681525050506101e8565b600080fd5b600073ffffffffffffffffffffffffffffffffffffffff82169050919050565b600061010b826100e0565b9050919050565b61011b81610100565b811461012657600080fd5b50565b60008151905061013881610112565b92915050565b600060208284031215610154576101536100db565b5b600061016284828501610129565b91505092915050565b600082825260208201905092915050565b7f496e76616c696420696d706c656d656e746174696f6e20616464726573730000600082015250565b60006101b2601e8361016b565b91506101bd8261017c565b602082019050919050565b600060208201905081810360008301526101e1816101a5565b9050919050565b60805161018461020e60003960008181602c015281816057015260d001526101846000f3fe6080604052600436106100225760003560e01c80635c60da1b1461007d57610052565b36610052576100507f00000000000000000000000000000000000000000000000000000000000000006100a8565b005b61007b7f00000000000000000000000000000000000000000000000000000000000000006100a8565b005b34801561008957600080fd5b506100926100ce565b60405161009f9190610133565b60405180910390f35b3660008037600080366000845af43d6000803e80600081146100c9573d6000f35b3d6000fd5b7f000000000000000000000000000000000000000000000000000000000000000081565b600073ffffffffffffffffffffffffffffffffffffffff82169050919050565b600061011d826100f2565b9050919050565b61012d81610112565b82525050565b60006020820190506101486000830184610124565b9291505056fea2646970667358221220670ab1ee4bf9d84be7c962073d37d0c349e57a31291ad75eec312619cdd6b31e64736f6c63430008180033a264697066735822122094eac22617716b4f45ab4fadfa7c835847a7e50b9db754a790fa19a9cefbbe0264736f6c63430008180033",
  "linkReferences": {},
  "deployedLinkReferences": {}
}