{
  "_format": "hh-sol-artifact-1",
  "contractName": "IOUMint",
  "sourceName": "contracts/IOU.sol",
  "abi": [
    {
      "inputs": [
        {
          "internalType": "address",
          "name": "_loanImplementation",
          "type": "address"
        }
      ],
      "stateMutability": "nonpayable",
      "type": "constructor"
    },
    {
      "anonymous": false,
      "inputs": [
        {
          "indexed": true,
          "internalType": "address",
          "name": "loanAddress",
          "type": "address"
        },
        {
          "indexed": true,
          "internalType": "address",
          "name": "loanToken",
          "type": "address"
        },
        {
          "indexed": true,
          "internalType": "address",
          "name": "borrower",
          "type": "address"
        },
        {
          "indexed": false,
          "internalType": "uint256",
          "name": "loanGoal",
          "type": "uint256"
        }
      ],
      "name": "LoanDeployed",
      "type": "event"
    },
    {
      "inputs": [
        {
          "internalType": "address",
          "name": "",
          "type": "address"
        }
      ],
      "name": "IOU",
      "outputs": [
        {
          "internalType": "bool",
          "name": "",
          "type": "bool"
        }
      ],
      "stateMutability": "view",
      "type": "function"
    },
    {
      "inputs": [
        {
          "internalType": "uint256",
          "name": "",
          "type": "uint256"
        }
      ],
      "name": "allLoans",
      "outputs": [
        {
          "internalType": "address",
          "name": "",
          "type": "address"
        }
      ],
      "stateMutability": "view",
      "type": "function"
    },
    {
      "inputs": [
        {
          "internalType": "address",
          "name": "_loanToken",
          "type": "address"
        },
        {
          "internalType": "address",
          "name": "_borrower",
          "type": "address"
        },
        {
          "internalType": "uint256",
          "name": "_loanGoal",
          "type": "uint256"
        },
        {
          "internalType": "uint256",
          "name": "_annualInterestRate",
          "type": "uint256"
        },
        {
          "internalType": "uint256",
          "name": "_platformFeeRate",
          "type": "uint256"
        },
        {
          "internalType": "address",
          "name": "_feeAddress",
          "type": "address"
        },
        {
          "internalType": "string",
          "name": "_name",
          "type": "string"
        },
        {
          "internalType": "string",
          "name": "_symbol",
          "type": "string"
        },
        {
          "internalType": "bool",
          "name": "_flexible",
          "type": "bool"
        }
      ],
      "name": "deployLoan",
      "outputs": [
        {
          "internalType": "address",
          "name": "loanAddress",
          "type": "address"
        }
      ],
      "stateMutability": "nonpayable",
      "type": "function"
    },
    {
      "inputs": [],
      "name": "getAllLoans",
      "outputs": [
        {
          "internalType": "address[]",
          "name": "",
          "type": "address[]"
        }
      ],
      "stateMutability": "view",
      "type": "function"
    },
    {
      "inputs": [
        {
          "internalType": "uint256[]",
          "name": "ids",
          "type": "uint256[]"
        }
      ],
      "name": "getLoans",
      "outputs": [
        {
          "internalType": "address[]",
          "name": "",
          "type": "address[]"
        }
      ],
      "stateMutability": "view",
      "type": "function"
    },
    {
      "inputs": [
        {
          "internalType": "address[]",
          "name": "loanAddrs",
          "type": "address[]"
        },
        {
          "internalType": "address",
          "name": "user",
          "type": "address"
        }
      ],
      "name": "getSpotInfo",
      "outputs": [
        {
          "components": [
            {
              "internalType": "address",
              "name": "loanAddress",
              "type": "address"
            },
            {
              "internalType": "address",
              "name": "borrower",
              "type": "address"
            },
            {
              "internalType": "uint256",
              "name": "loanGoal",
              "type": "uint256"
            },
            {
              "internalType": "uint256",
              "name": "totalFunded",
              "type": "uint256"
            },
            {
              "internalType": "uint256",
              "name": "totalDrawnDown",
              "type": "uint256"
            },
            {
              "internalType": "uint256",
              "name": "accruedInterest",
              "type": "uint256"
            },
            {
              "internalType": "uint256",
              "name": "annualInterestRate",
              "type": "uint256"
            },
            {
              "internalType": "uint256",
              "name": "platformFeeRate",
              "type": "uint256"
            },
            {
              "internalType": "address",
              "name": "feeAddress",
              "type": "address"
            },
            {
              "internalType": "uint256",
              "name": "totalSupply",
              "type": "uint256"
            },
            {
              "internalType": "string",
              "name": "iouName",
              "type": "string"
            },
            {
              "internalType": "string",
              "name": "iouSymbol",
              "type": "string"
            },
            {
              "internalType": "address",
              "name": "underlying",
              "type": "address"
            },
            {
              "internalType": "string",
              "name": "underlyingName",
              "type": "string"
            },
            {
              "internalType": "string",
              "name": "underlyingSymbol",
              "type": "string"
            },
            {
              "internalType": "uint8",
              "name": "underlyingDecimals",
              "type": "uint8"
            },
            {
              "internalType": "uint256",
              "name": "updatedInterest",
              "type": "uint256"
            },
            {
              "internalType": "uint256",
              "name": "updatedTotalOwed",
              "type": "uint256"
            },
            {
              "internalType": "uint256",
              "name": "myIOUs",
              "type": "uint256"
            },
            {
              "internalType": "uint256",
              "name": "repayments",
              "type": "uint256"
            },
            {
              "internalType": "uint256",
              "name": "interestrepayments",
              "type": "uint256"
            },
            {
              "internalType": "uint256",
              "name": "interestClaimable",
              "type": "uint256"
            },
            {
              "internalType": "uint256",
              "name": "tokensUnderlying",
              "type": "uint256"
            },
            {
              "internalType": "uint256",
              "name": "totalRedeemed",
              "type": "uint256"
            },
            {
              "internalType": "bool",
              "name": "flexible",
              "type": "bool"
            }
          ],
          "internalType": "struct IOUMint.LoanDetails[]",
          "name": "detailsArray",
          "type": "tuple[]"
        }
      ],
      "stateMutability": "view",
      "type": "function"
    },
    {
      "inputs": [
        {
          "internalType": "address",
          "name": "user",
          "type": "address"
        }
      ],
      "name": "getUserIOUs",
      "outputs": [
        {
          "internalType": "address[]",
          "name": "",
          "type": "address[]"
        }
      ],
      "stateMutability": "view",
      "type": "function"
    },
    {
      "inputs": [
        {
          "internalType": "address",
          "name": "user",
          "type": "address"
        }
      ],
      "name": "getUserLoans",
      "outputs": [
        {
          "internalType": "address[]",
          "name": "",
          "type": "address[]"
        }
      ],
      "stateMutability": "view",
      "type": "function"
    },
    {
      "inputs": [],
      "name": "loanImplementation",
      "outputs": [
        {
          "internalType": "address",
          "name": "",
          "type": "address"
        }
      ],
      "stateMutability": "view",
      "type": "function"
    },
    {
      "inputs": [
        {
          "internalType": "address",
          "name": "user",
          "type": "address"
        }
      ],
      "name": "newLoan",
      "outputs": [],
      "stateMutability": "nonpayable",
      "type": "function"
    },
    {
      "inputs": [
        {
          "internalType": "address",
          "name": "",
          "type": "address"
        },
        {
          "internalType": "uint256",
          "name": "",
          "type": "uint256"
        }
      ],
      "name": "userIOUs",
      "outputs": [
        {
          "internalType": "address",
          "name": "",
          "type": "address"
        }
      ],
      "stateMutability": "view",
      "type": "function"
    },
    {
      "inputs": [
        {
          "internalType": "address",
          "name": "",
          "type": "address"
        },
        {
          "internalType": "uint256",
          "name": "",
          "type": "uint256"
        }
      ],
      "name": "userLoans",
      "outputs": [
        {
          "internalType": "address",
          "name": "",
          "type": "address"
        }
      ],
      "stateMutability": "view",
      "type": "function"
    }
  ],
  "bytecode": "0x60806040523480156200001157600080fd5b5060405162003df238038062003df2833981810160405281019062000037919062000124565b6200005367d4540c021cd5ff7760c01b620000b760201b60201c565b6200006f6783d2647f5d427f1760c01b620000b760201b60201c565b80600460006101000a81548173ffffffffffffffffffffffffffffffffffffffff021916908373ffffffffffffffffffffffffffffffffffffffff1602179055505062000156565b50565b600080fd5b600073ffffffffffffffffffffffffffffffffffffffff82169050919050565b6000620000ec82620000bf565b9050919050565b620000fe81620000df565b81146200010a57600080fd5b50565b6000815190506200011e81620000f3565b92915050565b6000602082840312156200013d576200013c620000ba565b5b60006200014d848285016200010d565b91505092915050565b613c8c80620001666000396000f3fe60806040523480156200001157600080fd5b5060043610620000c45760003560e01c8063893cfe13116200007b578063893cfe13146200020d578063a5bfd16a146200022d578063b9ae34df146200024f578063d8bad5bd1462000285578063da7f9d9014620002bb578063dc724b1b14620002f157620000c4565b806302bf321f14620000c957806314e97fe814620000ff5780631638711b14620001355780631b8a3548146200016b578063435c63f914620001a1578063781c493014620001d7575b600080fd5b620000e76004803603810190620000e1919062002770565b62000313565b604051620000f6919062002870565b60405180910390f35b6200011d6004803603810190620001179190620028cf565b62000424565b6040516200012c919062002927565b60405180910390f35b6200015360048036038101906200014d919062002ae3565b62000473565b60405162000162919062002927565b60405180910390f35b62000189600480360381019062000183919062002c00565b62000926565b60405162000198919062002927565b60405180910390f35b620001bf6004803603810190620001b9919062002d0d565b62000966565b604051620001ce919062003168565b60405180910390f35b620001f56004803603810190620001ef919062002770565b62001dee565b6040516200020491906200319d565b60405180910390f35b6200022b600480360381019062000225919062002770565b62001e0e565b005b620002376200218b565b60405162000246919062002870565b60405180910390f35b6200026d600480360381019062000267919062003290565b6200225d565b6040516200027c919062002870565b60405180910390f35b620002a360048036038101906200029d9190620028cf565b62002435565b604051620002b2919062002927565b60405180910390f35b620002d96004803603810190620002d3919062002770565b62002484565b604051620002e8919062002870565b60405180910390f35b620002fb62002595565b6040516200030a919062002927565b60405180910390f35b60606200032b67e170adc152b08c1560c01b620025bb565b6200034167cbc8d88d4273a7c460c01b620025bb565b62000357678f7fb48d5d7c967b60c01b620025bb565b600260008373ffffffffffffffffffffffffffffffffffffffff1673ffffffffffffffffffffffffffffffffffffffff1681526020019081526020016000208054806020026020016040519081016040528092919081815260200182805480156200041857602002820191906000526020600020905b8160009054906101000a900473ffffffffffffffffffffffffffffffffffffffff1673ffffffffffffffffffffffffffffffffffffffff1681526020019060010190808311620003cd575b50505050509050919050565b600160205281600052604060002081815481106200044157600080fd5b906000526020600020016000915091509054906101000a900473ffffffffffffffffffffffffffffffffffffffff1681565b60006200048b67e6d18fd02b59f91160c01b620025bb565b620004a1674826d72419a5a12860c01b620025bb565b620004b76782ac74a56074165860c01b620025bb565b620004cd67c521149b202e943c60c01b620025bb565b8873ffffffffffffffffffffffffffffffffffffffff163373ffffffffffffffffffffffffffffffffffffffff16146200053e576040517f08c379a0000000000000000000000000000000000000000000000000000000008152600401620005359062003342565b60405180910390fd5b62000554677f7f5c295a5046db60c01b620025bb565b6200056a67e45ddfc1010b050760c01b620025bb565b62000580671ec5e6db321d2f7960c01b620025bb565b6000600460009054906101000a900473ffffffffffffffffffffffffffffffffffffffff16604051620005b390620025d0565b620005bf919062002927565b604051809103906000f080158015620005dc573d6000803e3d6000fd5b509050620005f5678429984396d13c2660c01b620025bb565b8091506200060e6709bdb5d345b3e85e60c01b620025bb565b620006246702c57a57af6e76e760c01b620025bb565b8173ffffffffffffffffffffffffffffffffffffffff16635cc3a9d98c8c8c8c8c8c8c8c308d6040518b63ffffffff1660e01b8152600401620006719a99989796959493929190620033b6565b600060405180830381600087803b1580156200068c57600080fd5b505af1158015620006a1573d6000803e3d6000fd5b50505050620006bb67d4c0ffff0fe2693b60c01b620025bb565b620006d167c1ccfaaf410daca660c01b620025bb565b6000829080600181540180825580915050600190039060005260206000200160009091909190916101000a81548173ffffffffffffffffffffffffffffffffffffffff021916908373ffffffffffffffffffffffffffffffffffffffff1602179055506200074a671d6999e728ec7ee160c01b620025bb565b6001600360008473ffffffffffffffffffffffffffffffffffffffff1673ffffffffffffffffffffffffffffffffffffffff16815260200190815260200160002060006101000a81548160ff021916908315150217905550620007b8671df1c6ee5e536f2160c01b620025bb565b620007ce67d876ff1a9182a7c260c01b620025bb565b600160008b73ffffffffffffffffffffffffffffffffffffffff1673ffffffffffffffffffffffffffffffffffffffff168152602001908152602001600020829080600181540180825580915050600190039060005260206000200160009091909190916101000a81548173ffffffffffffffffffffffffffffffffffffffff021916908373ffffffffffffffffffffffffffffffffffffffff16021790555062000884679111ab11ee00441e60c01b620025bb565b6200089a6743918e9fe4887f0960c01b620025bb565b8973ffffffffffffffffffffffffffffffffffffffff168b73ffffffffffffffffffffffffffffffffffffffff168373ffffffffffffffffffffffffffffffffffffffff167fb3eecbbcfd724979151565162801c93185c4836bcb9f0b2c09b8634e565b0c468c60405162000910919062003474565b60405180910390a4509998505050505050505050565b600081815481106200093757600080fd5b906000526020600020016000915054906101000a900473ffffffffffffffffffffffffffffffffffffffff1681565b60606200097e676b5a080991ab411860c01b620025bb565b6200099467027b36823efc14b460c01b620025bb565b620009aa67b0ed3cb692e4a56960c01b620025bb565b600083519050620009c667416cb5b5cbe2c48a60c01b620025bb565b8067ffffffffffffffff811115620009e357620009e26200295f565b5b60405190808252806020026020018201604052801562000a2057816020015b62000a0c620025de565b81526020019060019003908162000a025790505b50915062000a39670e792fa9cd530dc360c01b620025bb565b62000a4f67b9bd6754ddc026ad60c01b620025bb565b60005b8181101562001de65762000a716759c6d5fae655f00360c01b620025bb565b62000a8767277113a83984444960c01b620025bb565b600085828151811062000a9f5762000a9e62003491565b5b6020026020010151905062000abf670d87e9af2940d47260c01b620025bb565b62000ad56780f2c8000508667860c01b620025bb565b600081905062000af067ea132b8e529c3e3060c01b620025bb565b62000b0667868315fed54f3b2960c01b620025bb565b62000b10620025de565b62000b2667f8b29c52af4f4ef260c01b620025bb565b82816000019073ffffffffffffffffffffffffffffffffffffffff16908173ffffffffffffffffffffffffffffffffffffffff168152505062000b74673db0d6e39262616360c01b620025bb565b8173ffffffffffffffffffffffffffffffffffffffff16637df1f1b96040518163ffffffff1660e01b8152600401602060405180830381865afa15801562000bc0573d6000803e3d6000fd5b505050506040513d601f19601f8201168201806040525081019062000be69190620034d7565b816020019073ffffffffffffffffffffffffffffffffffffffff16908173ffffffffffffffffffffffffffffffffffffffff168152505062000c336786619d356d1502f660c01b620025bb565b8173ffffffffffffffffffffffffffffffffffffffff16636f0a7f716040518163ffffffff1660e01b8152600401602060405180830381865afa15801562000c7f573d6000803e3d6000fd5b505050506040513d601f19601f8201168201806040525081019062000ca5919062003520565b81604001818152505062000cc467bdde70c61a2e88a760c01b620025bb565b8173ffffffffffffffffffffffffffffffffffffffff1663ad044f496040518163ffffffff1660e01b8152600401602060405180830381865afa15801562000d10573d6000803e3d6000fd5b505050506040513d601f19601f8201168201806040525081019062000d36919062003520565b81606001818152505062000d55671aae13a4cfec9d9260c01b620025bb565b8173ffffffffffffffffffffffffffffffffffffffff1663fe3699c66040518163ffffffff1660e01b8152600401602060405180830381865afa15801562000da1573d6000803e3d6000fd5b505050506040513d601f19601f8201168201806040525081019062000dc7919062003520565b81608001818152505062000de66710f7e432a6a5ac8060c01b620025bb565b8173ffffffffffffffffffffffffffffffffffffffff166345fe329f6040518163ffffffff1660e01b8152600401602060405180830381865afa15801562000e32573d6000803e3d6000fd5b505050506040513d601f19601f8201168201806040525081019062000e58919062003520565b8160a001818152505062000e77675341b81c0054057c60c01b620025bb565b8173ffffffffffffffffffffffffffffffffffffffff16631a9703da6040518163ffffffff1660e01b8152600401602060405180830381865afa15801562000ec3573d6000803e3d6000fd5b505050506040513d601f19601f8201168201806040525081019062000ee9919062003520565b8160c001818152505062000f0867bf8561a12974da6260c01b620025bb565b8173ffffffffffffffffffffffffffffffffffffffff1663eeca08f06040518163ffffffff1660e01b8152600401602060405180830381865afa15801562000f54573d6000803e3d6000fd5b505050506040513d601f19601f8201168201806040525081019062000f7a919062003520565b8160e001818152505062000f99679339d8a9d6920b3c60c01b620025bb565b8173ffffffffffffffffffffffffffffffffffffffff1663412753586040518163ffffffff1660e01b8152600401602060405180830381865afa15801562000fe5573d6000803e3d6000fd5b505050506040513d601f19601f820116820180604052508101906200100b9190620034d7565b81610100019073ffffffffffffffffffffffffffffffffffffffff16908173ffffffffffffffffffffffffffffffffffffffff16815250506200105967c6f8ecc26677f88560c01b620025bb565b8173ffffffffffffffffffffffffffffffffffffffff166318160ddd6040518163ffffffff1660e01b8152600401602060405180830381865afa158015620010a5573d6000803e3d6000fd5b505050506040513d601f19601f82011682018060405250810190620010cb919062003520565b81610120018181525050620010eb678717859457e798f860c01b620025bb565b8173ffffffffffffffffffffffffffffffffffffffff1663f35dad406040518163ffffffff1660e01b8152600401602060405180830381865afa15801562001137573d6000803e3d6000fd5b505050506040513d601f19601f820116820180604052508101906200115d919062003520565b816102e00181815250506200117d67a0411b2bb222905f60c01b620025bb565b8173ffffffffffffffffffffffffffffffffffffffff16633ce427d26040518163ffffffff1660e01b8152600401602060405180830381865afa158015620011c9573d6000803e3d6000fd5b505050506040513d601f19601f82011682018060405250810190620011ef919062003569565b8161030001901515908115158152505062001215675860e7c2e583897860c01b620025bb565b8173ffffffffffffffffffffffffffffffffffffffff166306fdde036040518163ffffffff1660e01b8152600401600060405180830381865afa15801562001261573d6000803e3d6000fd5b505050506040513d6000823e3d601f19601f820116820180604052508101906200128c919062003619565b816101400181905250620012ab675c2fbb241c586a4b60c01b620025bb565b8173ffffffffffffffffffffffffffffffffffffffff166395d89b416040518163ffffffff1660e01b8152600401600060405180830381865afa158015620012f7573d6000803e3d6000fd5b505050506040513d6000823e3d601f19601f8201168201806040525081019062001322919062003619565b81610160018190525062001341677dc1e43818e1d20c60c01b620025bb565b8273ffffffffffffffffffffffffffffffffffffffff166370a08231886040518263ffffffff1660e01b81526004016200137c919062002927565b602060405180830381865afa1580156200139a573d6000803e3d6000fd5b505050506040513d601f19601f82011682018060405250810190620013c0919062003520565b81610240018181525050620013e067c7288591e0f3e01560c01b620025bb565b620013f667ab3cd5e6e2b0137c60c01b620025bb565b60008273ffffffffffffffffffffffffffffffffffffffff166306d378176040518163ffffffff1660e01b8152600401602060405180830381865afa15801562001444573d6000803e3d6000fd5b505050506040513d601f19601f820116820180604052508101906200146a9190620034d7565b905062001482678951b162856d47cc60c01b620025bb565b8082610180019073ffffffffffffffffffffffffffffffffffffffff16908173ffffffffffffffffffffffffffffffffffffffff1681525050620014d1671d63f5cc9efb0f9d60c01b620025bb565b620014e767a23fa72b48d8379560c01b620025bb565b600073ffffffffffffffffffffffffffffffffffffffff168173ffffffffffffffffffffffffffffffffffffffff16036200160c576200153267d828cec7ab2d295760c01b620025bb565b62001548672a0cf7d61cc0022c60c01b620025bb565b6040518060400160405280600781526020017f556e6b6e6f776e00000000000000000000000000000000000000000000000000815250826101a001819052506200159d67336216f4b22f6f7960c01b620025bb565b6040518060400160405280600781526020017f554e4b4e4f574e00000000000000000000000000000000000000000000000000815250826101c00181905250620015f267e0b1f0c0830ed68a60c01b620025bb565b6012826101e0019060ff16908160ff1681525050620019f5565b6200162267a669e7b3fc89b95f60c01b620025bb565b62001638673131ccbba7f012d360c01b620025bb565b6200164e67ed80b91e2d35cbd160c01b620025bb565b8073ffffffffffffffffffffffffffffffffffffffff166306fdde036040518163ffffffff1660e01b8152600401600060405180830381865afa925050508015620016be57506040513d6000823e3d601f19601f82011682018060405250810190620016bb919062003619565b60015b6200171e57620016d967670efb6be047aa0760c01b620025bb565b6040518060400160405280600781526020017f556e6b6e6f776e00000000000000000000000000000000000000000000000000815250826101a0018190525062001740565b620017346744e5f7d4d4a0e88860c01b620025bb565b80836101a00181905250505b62001756679ed3d0780a27654b60c01b620025bb565b8073ffffffffffffffffffffffffffffffffffffffff166370a08231896040518263ffffffff1660e01b815260040162001791919062002927565b602060405180830381865afa158015620017af573d6000803e3d6000fd5b505050506040513d601f19601f82011682018060405250810190620017d5919062003520565b826102c0018181525050620017f567e28926add3ccc07a60c01b620025bb565b6200180b67c253a9462d7afba660c01b620025bb565b8073ffffffffffffffffffffffffffffffffffffffff166395d89b416040518163ffffffff1660e01b8152600401600060405180830381865afa9250505080156200187b57506040513d6000823e3d601f19601f8201168201806040525081019062001878919062003619565b60015b620018db5762001896675c8bd79b9aeb1ba060c01b620025bb565b6040518060400160405280600781526020017f554e4b4e4f574e00000000000000000000000000000000000000000000000000815250826101c00181905250620018fd565b620018f167ec148677c1474e4b60c01b620025bb565b80836101c00181905250505b620019136740d473726460482560c01b620025bb565b6200192967b2716175a4c95f7760c01b620025bb565b8073ffffffffffffffffffffffffffffffffffffffff1663313ce5676040518163ffffffff1660e01b8152600401602060405180830381865afa9250505080156200199457506040513d601f19601f820116820180604052508101906200199191906200369b565b60015b620019c957620019af6752337122eb4310fc60c01b620025bb565b6012826101e0019060ff16908160ff1681525050620019f4565b620019df67732a754ce4e4d64d60c01b620025bb565b80836101e0019060ff16908160ff1681525050505b5b62001a0b678c89c497e488d54160c01b620025bb565b8273ffffffffffffffffffffffffffffffffffffffff16637a6aa88c6040518163ffffffff1660e01b8152600401602060405180830381865afa15801562001a57573d6000803e3d6000fd5b505050506040513d601f19601f8201168201806040525081019062001a7d919062003520565b8261020001818152505062001a9d67aafd5b62a487262a60c01b620025bb565b8273ffffffffffffffffffffffffffffffffffffffff1663e7fa9f7d6040518163ffffffff1660e01b8152600401602060405180830381865afa15801562001ae9573d6000803e3d6000fd5b505050506040513d601f19601f8201168201806040525081019062001b0f919062003520565b8261022001818152505062001b2f67f978a2ab154c54ce60c01b620025bb565b62001b456729f3ed9a9c0a8a1360c01b620025bb565b60008373ffffffffffffffffffffffffffffffffffffffff16632786d8e56040518163ffffffff1660e01b8152600401602060405180830381865afa15801562001b93573d6000803e3d6000fd5b505050506040513d601f19601f8201168201806040525081019062001bb9919062003520565b905062001bd167227e9325cc05c7a760c01b620025bb565b62001be767e7972555131bb87560c01b620025bb565b60008473ffffffffffffffffffffffffffffffffffffffff1663cd9f24aa6040518163ffffffff1660e01b8152600401602060405180830381865afa15801562001c35573d6000803e3d6000fd5b505050506040513d601f19601f8201168201806040525081019062001c5b919062003520565b905062001c73676932deb23758eacc60c01b620025bb565b818461026001818152505062001c9467b8170221651760d160c01b620025bb565b808210158062001cb6575062001cb5670c77dbd437f7e9f160c01b620025be565b5b801562001cd5575062001cd4673a764ea7d8ecaa0560c01b620025c5565b5b62001ce257600062001cf1565b808262001cf09190620036fc565b5b8461028001818152505062001d11672e5b4566ed2a2c3a60c01b620025bb565b8473ffffffffffffffffffffffffffffffffffffffff1663aa7aee0c8b6040518263ffffffff1660e01b815260040162001d4c919062002927565b602060405180830381865afa15801562001d6a573d6000803e3d6000fd5b505050506040513d601f19601f8201168201806040525081019062001d90919062003520565b846102a001818152505062001db067db183934ac0551fe60c01b620025bb565b8389888151811062001dc75762001dc662003491565b5b6020026020010181905250505050505050808060010191505062000a52565b505092915050565b60036020528060005260406000206000915054906101000a900460ff1681565b62001e2467c7780e1b78cb56a460c01b620025bb565b62001e3a67d205d417e274ff0a60c01b620025bb565b62001e50673813066425330c4360c01b620025bb565b600033905062001e6b67478fa9f6ee88100860c01b620025bb565b62001e81679526e75c41a9a82760c01b620025bb565b62001e976717183027074c8c0c60c01b620025bb565b600360008273ffffffffffffffffffffffffffffffffffffffff1673ffffffffffffffffffffffffffffffffffffffff16815260200190815260200160002060009054906101000a900460ff1662001f26576040517f08c379a000000000000000000000000000000000000000000000000000000000815260040162001f1d9062003787565b60405180910390fd5b62001f3c675578013db81e6aab60c01b620025bb565b62001f5267030014a690a7a0e060c01b620025bb565b62001f6867097d70e198c1a85560c01b620025bb565b6000600260008473ffffffffffffffffffffffffffffffffffffffff1673ffffffffffffffffffffffffffffffffffffffff168152602001908152602001600020905062001fc1670c17f9f57e6b663860c01b620025bb565b62001fd767bd3a71879b454e3960c01b620025bb565b60005b8180549050811015620020f65762001ffd67bcd524c636e545eb60c01b620025bb565b6200201367f4672d2c6b7f92f360c01b620025bb565b8273ffffffffffffffffffffffffffffffffffffffff1682828154811062002040576200203f62003491565b5b9060005260206000200160009054906101000a900473ffffffffffffffffffffffffffffffffffffffff1673ffffffffffffffffffffffffffffffffffffffff1603620020d2576200209d67f1a42e346ea9d28b60c01b620025bb565b620020b36791ac737350a6e5c860c01b620025bb565b620020c967969d40cb5891eb4b60c01b620025bb565b50505062002188565b620020e8673def48423ae0d0df60c01b620025bb565b808060010191505062001fda565b506200210d67671c0f4c288b0bb660c01b620025bb565b6200212367d186021034a5738f60c01b620025bb565b80829080600181540180825580915050600190039060005260206000200160009091909190916101000a81548173ffffffffffffffffffffffffffffffffffffffff021916908373ffffffffffffffffffffffffffffffffffffffff16021790555050505b50565b6060620021a367c67d9d60dc6b586f60c01b620025bb565b620021b9675091fb790f08b2e060c01b620025bb565b620021cf67bd00d23d80f7ddd160c01b620025bb565b60008054806020026020016040519081016040528092919081815260200182805480156200225357602002820191906000526020600020905b8160009054906101000a900473ffffffffffffffffffffffffffffffffffffffff1673ffffffffffffffffffffffffffffffffffffffff168152602001906001019080831162002208575b5050505050905090565b6060620022756790a273d6160078c460c01b620025bb565b6200228b67e581a8552ae4f02360c01b620025bb565b620022a167f8fcb6ca71c95a4660c01b620025bb565b6000825167ffffffffffffffff811115620022c157620022c06200295f565b5b604051908082528060200260200182016040528015620022f05781602001602082028036833780820191505090505b50905062002309679d164fe2a9dd778460c01b620025bb565b6200231f67f5c4d31af978499a60c01b620025bb565b60005b8351811015620023ff57620023426738bfc77dcdb14c3060c01b620025bb565b60008482815181106200235a576200235962003491565b5b60200260200101518154811062002376576200237562003491565b5b9060005260206000200160009054906101000a900473ffffffffffffffffffffffffffffffffffffffff16828281518110620023b757620023b662003491565b5b602002602001019073ffffffffffffffffffffffffffffffffffffffff16908173ffffffffffffffffffffffffffffffffffffffff1681525050808060010191505062002322565b50620024166721dd027ae403509d60c01b620025bb565b6200242c67bb91bd4ea587c60f60c01b620025bb565b80915050919050565b600260205281600052604060002081815481106200245257600080fd5b906000526020600020016000915091509054906101000a900473ffffffffffffffffffffffffffffffffffffffff1681565b60606200249c67eb0bf75143d9d7e860c01b620025bb565b620024b2673de21747b049998c60c01b620025bb565b620024c8677d220b5618d2779c60c01b620025bb565b600160008373ffffffffffffffffffffffffffffffffffffffff1673ffffffffffffffffffffffffffffffffffffffff1681526020019081526020016000208054806020026020016040519081016040528092919081815260200182805480156200258957602002820191906000526020600020905b8160009054906101000a900473ffffffffffffffffffffffffffffffffffffffff1673ffffffffffffffffffffffffffffffffffffffff16815260200190600101908083116200253e575b50505050509050919050565b600460009054906101000a900473ffffffffffffffffffffffffffffffffffffffff1681565b50565b6000919050565b600060019050919050565b6104ad80620037aa83390190565b604051806103200160405280600073ffffffffffffffffffffffffffffffffffffffff168152602001600073ffffffffffffffffffffffffffffffffffffffff168152602001600081526020016000815260200160008152602001600081526020016000815260200160008152602001600073ffffffffffffffffffffffffffffffffffffffff168152602001600081526020016060815260200160608152602001600073ffffffffffffffffffffffffffffffffffffffff1681526020016060815260200160608152602001600060ff16815260200160008152602001600081526020016000815260200160008152602001600081526020016000815260200160008152602001600081526020016000151581525090565b6000604051905090565b600080fd5b600080fd5b600073ffffffffffffffffffffffffffffffffffffffff82169050919050565b600062002738826200270b565b9050919050565b6200274a816200272b565b81146200275657600080fd5b50565b6000813590506200276a816200273f565b92915050565b60006020828403121562002789576200278862002701565b5b6000620027998482850162002759565b91505092915050565b600081519050919050565b600082825260208201905092915050565b6000819050602082019050919050565b620027d9816200272b565b82525050565b6000620027ed8383620027ce565b60208301905092915050565b6000602082019050919050565b60006200281382620027a2565b6200281f8185620027ad565b93506200282c83620027be565b8060005b8381101562002863578151620028478882620027df565b97506200285483620027f9565b92505060018101905062002830565b5085935050505092915050565b600060208201905081810360008301526200288c818462002806565b905092915050565b6000819050919050565b620028a98162002894565b8114620028b557600080fd5b50565b600081359050620028c9816200289e565b92915050565b60008060408385031215620028e957620028e862002701565b5b6000620028f98582860162002759565b92505060206200290c85828601620028b8565b9150509250929050565b62002921816200272b565b82525050565b60006020820190506200293e600083018462002916565b92915050565b600080fd5b600080fd5b6000601f19601f8301169050919050565b7f4e487b7100000000000000000000000000000000000000000000000000000000600052604160045260246000fd5b62002999826200294e565b810181811067ffffffffffffffff82111715620029bb57620029ba6200295f565b5b80604052505050565b6000620029d0620026f7565b9050620029de82826200298e565b919050565b600067ffffffffffffffff82111562002a015762002a006200295f565b5b62002a0c826200294e565b9050602081019050919050565b82818337600083830152505050565b600062002a3f62002a3984620029e3565b620029c4565b90508281526020810184848401111562002a5e5762002a5d62002949565b5b62002a6b84828562002a19565b509392505050565b600082601f83011262002a8b5762002a8a62002944565b5b813562002a9d84826020860162002a28565b91505092915050565b60008115159050919050565b62002abd8162002aa6565b811462002ac957600080fd5b50565b60008135905062002add8162002ab2565b92915050565b60008060008060008060008060006101208a8c03121562002b095762002b0862002701565b5b600062002b198c828d0162002759565b995050602062002b2c8c828d0162002759565b985050604062002b3f8c828d01620028b8565b975050606062002b528c828d01620028b8565b965050608062002b658c828d01620028b8565b95505060a062002b788c828d0162002759565b94505060c08a013567ffffffffffffffff81111562002b9c5762002b9b62002706565b5b62002baa8c828d0162002a73565b93505060e08a013567ffffffffffffffff81111562002bce5762002bcd62002706565b5b62002bdc8c828d0162002a73565b92505061010062002bf08c828d0162002acc565b9150509295985092959850929598565b60006020828403121562002c195762002c1862002701565b5b600062002c2984828501620028b8565b91505092915050565b600067ffffffffffffffff82111562002c505762002c4f6200295f565b5b602082029050602081019050919050565b600080fd5b600062002c7d62002c778462002c32565b620029c4565b9050808382526020820190506020840283018581111562002ca35762002ca262002c61565b5b835b8181101562002cd0578062002cbb888262002759565b84526020840193505060208101905062002ca5565b5050509392505050565b600082601f83011262002cf25762002cf162002944565b5b813562002d0484826020860162002c66565b91505092915050565b6000806040838503121562002d275762002d2662002701565b5b600083013567ffffffffffffffff81111562002d485762002d4762002706565b5b62002d568582860162002cda565b925050602062002d698582860162002759565b9150509250929050565b600081519050919050565b600082825260208201905092915050565b6000819050602082019050919050565b62002daa8162002894565b82525050565b600081519050919050565b600082825260208201905092915050565b60005b8381101562002dec57808201518184015260208101905062002dcf565b60008484015250505050565b600062002e058262002db0565b62002e11818562002dbb565b935062002e2381856020860162002dcc565b62002e2e816200294e565b840191505092915050565b600060ff82169050919050565b62002e518162002e39565b82525050565b62002e628162002aa6565b82525050565b60006103208301600083015162002e836000860182620027ce565b50602083015162002e986020860182620027ce565b50604083015162002ead604086018262002d9f565b50606083015162002ec2606086018262002d9f565b50608083015162002ed7608086018262002d9f565b5060a083015162002eec60a086018262002d9f565b5060c083015162002f0160c086018262002d9f565b5060e083015162002f1660e086018262002d9f565b5061010083015162002f2d610100860182620027ce565b5061012083015162002f4461012086018262002d9f565b5061014083015184820361014086015262002f60828262002df8565b91505061016083015184820361016086015262002f7e828262002df8565b91505061018083015162002f97610180860182620027ce565b506101a08301518482036101a086015262002fb3828262002df8565b9150506101c08301518482036101c086015262002fd1828262002df8565b9150506101e083015162002fea6101e086018262002e46565b506102008301516200300161020086018262002d9f565b506102208301516200301861022086018262002d9f565b506102408301516200302f61024086018262002d9f565b506102608301516200304661026086018262002d9f565b506102808301516200305d61028086018262002d9f565b506102a0830151620030746102a086018262002d9f565b506102c08301516200308b6102c086018262002d9f565b506102e0830151620030a26102e086018262002d9f565b50610300830151620030b961030086018262002e57565b508091505092915050565b6000620030d2838362002e68565b905092915050565b6000602082019050919050565b6000620030f48262002d73565b62003100818562002d7e565b935083602082028501620031148562002d8f565b8060005b85811015620031565784840389528151620031348582620030c4565b94506200314183620030da565b925060208a0199505060018101905062003118565b50829750879550505050505092915050565b60006020820190508181036000830152620031848184620030e7565b905092915050565b620031978162002aa6565b82525050565b6000602082019050620031b460008301846200318c565b92915050565b600067ffffffffffffffff821115620031d857620031d76200295f565b5b602082029050602081019050919050565b600062003200620031fa84620031ba565b620029c4565b9050808382526020820190506020840283018581111562003226576200322562002c61565b5b835b818110156200325357806200323e8882620028b8565b84526020840193505060208101905062003228565b5050509392505050565b600082601f83011262003275576200327462002944565b5b813562003287848260208601620031e9565b91505092915050565b600060208284031215620032a957620032a862002701565b5b600082013567ffffffffffffffff811115620032ca57620032c962002706565b5b620032d8848285016200325d565b91505092915050565b600082825260208201905092915050565b7f4f6e6c7920626f72726f7765722063616e206465706c6f790000000000000000600082015250565b60006200332a601883620032e1565b91506200333782620032f2565b602082019050919050565b600060208201905081810360008301526200335d816200331b565b9050919050565b6200336f8162002894565b82525050565b6000620033828262002db0565b6200338e8185620032e1565b9350620033a081856020860162002dcc565b620033ab816200294e565b840191505092915050565b600061014082019050620033ce600083018d62002916565b620033dd602083018c62002916565b620033ec604083018b62003364565b620033fb606083018a62003364565b6200340a608083018962003364565b6200341960a083018862002916565b81810360c08301526200342d818762003375565b905081810360e083015262003443818662003375565b90506200345561010083018562002916565b620034656101208301846200318c565b9b9a5050505050505050505050565b60006020820190506200348b600083018462003364565b92915050565b7f4e487b7100000000000000000000000000000000000000000000000000000000600052603260045260246000fd5b600081519050620034d1816200273f565b92915050565b600060208284031215620034f057620034ef62002701565b5b60006200350084828501620034c0565b91505092915050565b6000815190506200351a816200289e565b92915050565b60006020828403121562003539576200353862002701565b5b6000620035498482850162003509565b91505092915050565b600081519050620035638162002ab2565b92915050565b60006020828403121562003582576200358162002701565b5b6000620035928482850162003552565b91505092915050565b6000620035b2620035ac84620029e3565b620029c4565b905082815260208101848484011115620035d157620035d062002949565b5b620035de84828562002dcc565b509392505050565b600082601f830112620035fe57620035fd62002944565b5b8151620036108482602086016200359b565b91505092915050565b60006020828403121562003632576200363162002701565b5b600082015167ffffffffffffffff81111562003653576200365262002706565b5b6200366184828501620035e6565b91505092915050565b620036758162002e39565b81146200368157600080fd5b50565b60008151905062003695816200366a565b92915050565b600060208284031215620036b457620036b362002701565b5b6000620036c48482850162003684565b91505092915050565b7f4e487b7100000000000000000000000000000000000000000000000000000000600052601160045260246000fd5b6000620037098262002894565b9150620037168362002894565b9250828203905081811115620037315762003730620036cd565b5b92915050565b7f4e6f7420612076616c696420494f550000000000000000000000000000000000600082015250565b60006200376f600f83620032e1565b91506200377c8262003737565b602082019050919050565b60006020820190508181036000830152620037a28162003760565b905091905056fe60a060405234801561001057600080fd5b506040516104ad3803806104ad833981810160405281019061003291906101dd565b61004c67541d8a446d8a848360c01b61017760201b60201c565b610066674ebcad231772109a60c01b61017760201b60201c565b6100806714700b559d36abaf60c01b61017760201b60201c565b61009a673327962229424a8c60c01b61017760201b60201c565b600073ffffffffffffffffffffffffffffffffffffffff168173ffffffffffffffffffffffffffffffffffffffff1603610109576040517f08c379a000000000000000000000000000000000000000000000000000000000815260040161010090610267565b60405180910390fd5b61012367c14d5d6bd58da2c560c01b61017760201b60201c565b61013d67c4894c0423f0bea560c01b61017760201b60201c565b8073ffffffffffffffffffffffffffffffffffffffff1660808173ffffffffffffffffffffffffffffffffffffffff168152505050610287565b50565b600080fd5b600073ffffffffffffffffffffffffffffffffffffffff82169050919050565b60006101aa8261017f565b9050919050565b6101ba8161019f565b81146101c557600080fd5b50565b6000815190506101d7816101b1565b92915050565b6000602082840312156101f3576101f261017a565b5b6000610201848285016101c8565b91505092915050565b600082825260208201905092915050565b7f496e76616c696420696d706c656d656e746174696f6e20616464726573730000600082015250565b6000610251601e8361020a565b915061025c8261021b565b602082019050919050565b6000602082019050818103600083015261028081610244565b9050919050565b6080516101ff6102ae6000396000818160400152818160a7015261014b01526101ff6000f3fe6080604052600436106100225760003560e01c80635c60da1b146100cd57610066565b366100665761003b67ae249bfe6b70228c60c01b6100f8565b6100647f00000000000000000000000000000000000000000000000000000000000000006100fb565b005b61007a67184b6784b6f4b68060c01b6100f8565b61008e67920e476503d24d6960c01b6100f8565b6100a267fbe7e8ab58083c2760c01b6100f8565b6100cb7f00000000000000000000000000000000000000000000000000000000000000006100fb565b005b3480156100d957600080fd5b506100e2610149565b6040516100ef91906101ae565b60405180910390f35b50565b61010f676c5a3dc12e3c9b2860c01b6100f8565b61012367df9e8fc2f9e79c0860c01b6100f8565b3660008037600080366000845af43d6000803e8060008114610144573d6000f35b3d6000fd5b7f000000000000000000000000000000000000000000000000000000000000000081565b600073ffffffffffffffffffffffffffffffffffffffff82169050919050565b60006101988261016d565b9050919050565b6101a88161018d565b82525050565b60006020820190506101c3600083018461019f565b9291505056fea2646970667358221220096ebc423af3db9471237bf830dff456f589584e559146e06f877b796a4264a664736f6c63430008180033a26469706673582212205267063bb655de7d42862607b3b89682e112e8be2722b14630b2a6be27063df864736f6c63430008180033",
  "linkReferences": {},
  "deployedLinkReferences": {}
}