{
  "_format": "hh-sol-artifact-1",
  "contractName": "SpotIOULoan",
  "sourceName": "contracts/IOU.sol",
  "abi": [
    {
      "inputs": [],
      "stateMutability": "nonpayable",
      "type": "constructor"
    },
    {
      "anonymous": false,
      "inputs": [
        {
          "indexed": true,
          "internalType": "address",
          "name": "owner",
          "type": "address"
        },
        {
          "indexed": true,
          "internalType": "address",
          "name": "spender",
          "type": "address"
        },
        {
          "indexed": false,
          "internalType": "uint256",
          "name": "value",
          "type": "uint256"
        }
      ],
      "name": "Approval",
      "type": "event"
    },
    {
      "anonymous": false,
      "inputs": [
        {
          "indexed": true,
          "internalType": "address",
          "name": "from",
          "type": "address"
        },
        {
          "indexed": true,
          "internalType": "address",
          "name": "to",
          "type": "address"
        },
        {
          "indexed": false,
          "internalType": "uint256",
          "name": "value",
          "type": "uint256"
        }
      ],
      "name": "Transfer",
      "type": "event"
    },
    {
      "inputs": [],
      "name": "IOUMint",
      "outputs": [
        {
          "internalType": "address",
          "name": "",
          "type": "address"
        }
      ],
      "stateMutability": "view",
      "type": "function"
    },
    {
      "inputs": [],
      "name": "_totalPrincipalRepaid",
      "outputs": [
        {
          "internalType": "uint256",
          "name": "",
          "type": "uint256"
        }
      ],
      "stateMutability": "view",
      "type": "function"
    },
    {
      "inputs": [],
      "name": "_totalRepayments",
      "outputs": [
        {
          "internalType": "uint256",
          "name": "",
          "type": "uint256"
        }
      ],
      "stateMutability": "view",
      "type": "function"
    },
    {
      "inputs": [],
      "name": "accruedInterest",
      "outputs": [
        {
          "internalType": "uint256",
          "name": "",
          "type": "uint256"
        }
      ],
      "stateMutability": "view",
      "type": "function"
    },
    {
      "inputs": [
        {
          "internalType": "address",
          "name": "owner",
          "type": "address"
        },
        {
          "internalType": "address",
          "name": "spender",
          "type": "address"
        }
      ],
      "name": "allowance",
      "outputs": [
        {
          "internalType": "uint256",
          "name": "",
          "type": "uint256"
        }
      ],
      "stateMutability": "view",
      "type": "function"
    },
    {
      "inputs": [],
      "name": "annualInterestRate",
      "outputs": [
        {
          "internalType": "uint256",
          "name": "",
          "type": "uint256"
        }
      ],
      "stateMutability": "view",
      "type": "function"
    },
    {
      "inputs": [
        {
          "internalType": "address",
          "name": "spender",
          "type": "address"
        },
        {
          "internalType": "uint256",
          "name": "amount",
          "type": "uint256"
        }
      ],
      "name": "approve",
      "outputs": [
        {
          "internalType": "bool",
          "name": "",
          "type": "bool"
        }
      ],
      "stateMutability": "nonpayable",
      "type": "function"
    },
    {
      "inputs": [
        {
          "internalType": "address",
          "name": "account",
          "type": "address"
        }
      ],
      "name": "balanceOf",
      "outputs": [
        {
          "internalType": "uint256",
          "name": "",
          "type": "uint256"
        }
      ],
      "stateMutability": "view",
      "type": "function"
    },
    {
      "inputs": [],
      "name": "borrower",
      "outputs": [
        {
          "internalType": "address",
          "name": "",
          "type": "address"
        }
      ],
      "stateMutability": "view",
      "type": "function"
    },
    {
      "inputs": [
        {
          "internalType": "address",
          "name": "user",
          "type": "address"
        }
      ],
      "name": "claimInterest",
      "outputs": [],
      "stateMutability": "nonpayable",
      "type": "function"
    },
    {
      "inputs": [],
      "name": "dec",
      "outputs": [
        {
          "internalType": "uint256",
          "name": "",
          "type": "uint256"
        }
      ],
      "stateMutability": "view",
      "type": "function"
    },
    {
      "inputs": [],
      "name": "decimals",
      "outputs": [
        {
          "internalType": "uint8",
          "name": "",
          "type": "uint8"
        }
      ],
      "stateMutability": "view",
      "type": "function"
    },
    {
      "inputs": [
        {
          "internalType": "address",
          "name": "spender",
          "type": "address"
        },
        {
          "internalType": "uint256",
          "name": "subtractedValue",
          "type": "uint256"
        }
      ],
      "name": "decreaseAllowance",
      "outputs": [
        {
          "internalType": "bool",
          "name": "",
          "type": "bool"
        }
      ],
      "stateMutability": "nonpayable",
      "type": "function"
    },
    {
      "inputs": [
        {
          "internalType": "uint256",
          "name": "amount",
          "type": "uint256"
        }
      ],
      "name": "drawDown",
      "outputs": [],
      "stateMutability": "nonpayable",
      "type": "function"
    },
    {
      "inputs": [
        {
          "internalType": "uint256",
          "name": "amount",
          "type": "uint256"
        }
      ],
      "name": "drop",
      "outputs": [],
      "stateMutability": "nonpayable",
      "type": "function"
    },
    {
      "inputs": [],
      "name": "feeAddress",
      "outputs": [
        {
          "internalType": "address",
          "name": "",
          "type": "address"
        }
      ],
      "stateMutability": "view",
      "type": "function"
    },
    {
      "inputs": [],
      "name": "flexible",
      "outputs": [
        {
          "internalType": "bool",
          "name": "",
          "type": "bool"
        }
      ],
      "stateMutability": "view",
      "type": "function"
    },
    {
      "inputs": [
        {
          "internalType": "uint256",
          "name": "amount",
          "type": "uint256"
        }
      ],
      "name": "fundLoan",
      "outputs": [],
      "stateMutability": "nonpayable",
      "type": "function"
    },
    {
      "inputs": [
        {
          "internalType": "address",
          "name": "spender",
          "type": "address"
        },
        {
          "internalType": "uint256",
          "name": "addedValue",
          "type": "uint256"
        }
      ],
      "name": "increaseAllowance",
      "outputs": [
        {
          "internalType": "bool",
          "name": "",
          "type": "bool"
        }
      ],
      "stateMutability": "nonpayable",
      "type": "function"
    },
    {
      "inputs": [
        {
          "internalType": "address",
          "name": "user",
          "type": "address"
        }
      ],
      "name": "interestClaimable",
      "outputs": [
        {
          "internalType": "uint256",
          "name": "",
          "type": "uint256"
        }
      ],
      "stateMutability": "view",
      "type": "function"
    },
    {
      "inputs": [],
      "name": "interestrepayments",
      "outputs": [
        {
          "internalType": "uint256",
          "name": "",
          "type": "uint256"
        }
      ],
      "stateMutability": "view",
      "type": "function"
    },
    {
      "inputs": [],
      "name": "lastAccrualTimestamp",
      "outputs": [
        {
          "internalType": "uint256",
          "name": "",
          "type": "uint256"
        }
      ],
      "stateMutability": "view",
      "type": "function"
    },
    {
      "inputs": [
        {
          "internalType": "address",
          "name": "",
          "type": "address"
        }
      ],
      "name": "lastInterestIndex",
      "outputs": [
        {
          "internalType": "uint256",
          "name": "",
          "type": "uint256"
        }
      ],
      "stateMutability": "view",
      "type": "function"
    },
    {
      "inputs": [],
      "name": "loanGoal",
      "outputs": [
        {
          "internalType": "uint256",
          "name": "",
          "type": "uint256"
        }
      ],
      "stateMutability": "view",
      "type": "function"
    },
    {
      "inputs": [],
      "name": "loanToken",
      "outputs": [
        {
          "internalType": "contract IERC20",
          "name": "",
          "type": "address"
        }
      ],
      "stateMutability": "view",
      "type": "function"
    },
    {
      "inputs": [],
      "name": "name",
      "outputs": [
        {
          "internalType": "string",
          "name": "",
          "type": "string"
        }
      ],
      "stateMutability": "view",
      "type": "function"
    },
    {
      "inputs": [],
      "name": "platformFeeRate",
      "outputs": [
        {
          "internalType": "uint256",
          "name": "",
          "type": "uint256"
        }
      ],
      "stateMutability": "view",
      "type": "function"
    },
    {
      "inputs": [
        {
          "internalType": "uint256",
          "name": "iouAmount",
          "type": "uint256"
        }
      ],
      "name": "redeemIOUs",
      "outputs": [],
      "stateMutability": "nonpayable",
      "type": "function"
    },
    {
      "inputs": [
        {
          "internalType": "uint256",
          "name": "amount",
          "type": "uint256"
        }
      ],
      "name": "repayLoan",
      "outputs": [],
      "stateMutability": "nonpayable",
      "type": "function"
    },
    {
      "inputs": [],
      "name": "repayments",
      "outputs": [
        {
          "internalType": "uint256",
          "name": "",
          "type": "uint256"
        }
      ],
      "stateMutability": "view",
      "type": "function"
    },
    {
      "inputs": [
        {
          "internalType": "address",
          "name": "_loanToken",
          "type": "address"
        },
        {
          "internalType": "address",
          "name": "_borrower",
          "type": "address"
        },
        {
          "internalType": "uint256",
          "name": "_loanGoal",
          "type": "uint256"
        },
        {
          "internalType": "uint256",
          "name": "_annualInterestRate",
          "type": "uint256"
        },
        {
          "internalType": "uint256",
          "name": "_platformFeeRate",
          "type": "uint256"
        },
        {
          "internalType": "address",
          "name": "_feeAddress",
          "type": "address"
        },
        {
          "internalType": "string",
          "name": "name_",
          "type": "string"
        },
        {
          "internalType": "string",
          "name": "symbol_",
          "type": "string"
        },
        {
          "internalType": "address",
          "name": "_IOUMint",
          "type": "address"
        },
        {
          "internalType": "bool",
          "name": "_flexible",
          "type": "bool"
        }
      ],
      "name": "setup",
      "outputs": [],
      "stateMutability": "nonpayable",
      "type": "function"
    },
    {
      "inputs": [],
      "name": "symbol",
      "outputs": [
        {
          "internalType": "string",
          "name": "",
          "type": "string"
        }
      ],
      "stateMutability": "view",
      "type": "function"
    },
    {
      "inputs": [],
      "name": "totalDrawnDown",
      "outputs": [
        {
          "internalType": "uint256",
          "name": "",
          "type": "uint256"
        }
      ],
      "stateMutability": "view",
      "type": "function"
    },
    {
      "inputs": [],
      "name": "totalFunded",
      "outputs": [
        {
          "internalType": "uint256",
          "name": "",
          "type": "uint256"
        }
      ],
      "stateMutability": "view",
      "type": "function"
    },
    {
      "inputs": [],
      "name": "totalOwed",
      "outputs": [
        {
          "internalType": "uint256",
          "name": "",
          "type": "uint256"
        }
      ],
      "stateMutability": "view",
      "type": "function"
    },
    {
      "inputs": [],
      "name": "totalRedeemed",
      "outputs": [
        {
          "internalType": "uint256",
          "name": "",
          "type": "uint256"
        }
      ],
      "stateMutability": "view",
      "type": "function"
    },
    {
      "inputs": [],
      "name": "totalSupply",
      "outputs": [
        {
          "internalType": "uint256",
          "name": "",
          "type": "uint256"
        }
      ],
      "stateMutability": "view",
      "type": "function"
    },
    {
      "inputs": [
        {
          "internalType": "address",
          "name": "to",
          "type": "address"
        },
        {
          "internalType": "uint256",
          "name": "amount",
          "type": "uint256"
        }
      ],
      "name": "transfer",
      "outputs": [
        {
          "internalType": "bool",
          "name": "",
          "type": "bool"
        }
      ],
      "stateMutability": "nonpayable",
      "type": "function"
    },
    {
      "inputs": [
        {
          "internalType": "address",
          "name": "from",
          "type": "address"
        },
        {
          "internalType": "address",
          "name": "to",
          "type": "address"
        },
        {
          "internalType": "uint256",
          "name": "amount",
          "type": "uint256"
        }
      ],
      "name": "transferFrom",
      "outputs": [
        {
          "internalType": "bool",
          "name": "",
          "type": "bool"
        }
      ],
      "stateMutability": "nonpayable",
      "type": "function"
    },
    {
      "inputs": [
        {
          "internalType": "uint256",
          "name": "amount",
          "type": "uint256"
        }
      ],
      "name": "unfundLoan",
      "outputs": [],
      "stateMutability": "nonpayable",
      "type": "function"
    },
    {
      "inputs": [
        {
          "internalType": "uint256",
          "name": "newGoal",
          "type": "uint256"
        }
      ],
      "name": "updateGoal",
      "outputs": [],
      "stateMutability": "nonpayable",
      "type": "function"
    },
    {
      "inputs": [],
      "name": "viewAccruedInterest",
      "outputs": [
        {
          "internalType": "uint256",
          "name": "",
          "type": "uint256"
        }
      ],
      "stateMutability": "view",
      "type": "function"
    }
  ],
  "bytecode": "0x60806040523480156200001157600080fd5b506040518060400160405280600881526020017f53706f7420494f550000000000000000000000000000000000000000000000008152506040518060400160405280600381526020017f494f55000000000000000000000000000000000000000000000000000000000081525081600390816200008f919062000343565b508060049081620000a1919062000343565b505050620000c067ff233902da0c5a1d60c01b620000c660201b60201c565b6200042a565b50565b600081519050919050565b7f4e487b7100000000000000000000000000000000000000000000000000000000600052604160045260246000fd5b7f4e487b7100000000000000000000000000000000000000000000000000000000600052602260045260246000fd5b600060028204905060018216806200014b57607f821691505b60208210810362000161576200016062000103565b5b50919050565b60008190508160005260206000209050919050565b60006020601f8301049050919050565b600082821b905092915050565b600060088302620001cb7fffffffffffffffffffffffffffffffffffffffffffffffffffffffffffffffff826200018c565b620001d786836200018c565b95508019841693508086168417925050509392505050565b6000819050919050565b6000819050919050565b6000620002246200021e6200021884620001ef565b620001f9565b620001ef565b9050919050565b6000819050919050565b620002408362000203565b620002586200024f826200022b565b84845462000199565b825550505050565b600090565b6200026f62000260565b6200027c81848462000235565b505050565b5b81811015620002a4576200029860008262000265565b60018101905062000282565b5050565b601f821115620002f357620002bd8162000167565b620002c8846200017c565b81016020851015620002d8578190505b620002f0620002e7856200017c565b83018262000281565b50505b505050565b600082821c905092915050565b60006200031860001984600802620002f8565b1980831691505092915050565b600062000333838362000305565b9150826002028217905092915050565b6200034e82620000c9565b67ffffffffffffffff8111156200036a5762000369620000d4565b5b62000376825462000132565b62000383828285620002a8565b600060209050601f831160018114620003bb5760008415620003a6578287015190505b620003b2858262000325565b86555062000422565b601f198416620003cb8662000167565b60005b82811015620003f557848901518255600182019150602085019450602081019050620003ce565b8683101562000415578489015162000411601f89168262000305565b8355505b6001600288020188555050505b505050505050565b61644c806200043a6000396000f3fe608060405234801561001057600080fd5b506004361061025e5760003560e01c80637a6aa88c11610146578063ad044f49116100c3578063cd9f24aa11610087578063cd9f24aa14610719578063dd62ed3e14610737578063e7fa9f7d14610767578063eeca08f014610785578063f35dad40146107a3578063fe3699c6146107c15761025e565b8063ad044f4914610673578063b3bcfa8214610691578063b43dcb01146106af578063c0789dcb146106df578063ca01115e146106fd5761025e565b806395d89b411161010a57806395d89b41146105a9578063a457c2d7146105c7578063a9059cbb146105f7578063aa7aee0c14610627578063ab7b1c89146106575761025e565b80637a6aa88c146105175780637df1f1b9146105355780637e24cf9514610553578063846b909a1461057157806388d742c21461058d5761025e565b8063316fb7c4116101df57806345fe329f116101a357806345fe329f146104535780635cc3a9d914610471578063634fb7f51461048d57806367c79f81146104ab5780636f0a7f71146104c957806370a08231146104e75761025e565b8063316fb7c4146103af57806339509351146103cb5780633ce427d2146103fb5780634127535814610419578063415c65a0146104375761025e565b80631a9703da116102265780631a9703da14610309578063211d9a531461032757806323b872dd146103435780632786d8e514610373578063313ce567146103915761025e565b8063038f5ed61461026357806306d378171461027f57806306fdde031461029d578063095ea7b3146102bb57806318160ddd146102eb575b600080fd5b61027d6004803603810190610278919061488c565b6107df565b005b610287610bce565b6040516102949190614938565b60405180910390f35b6102a5610bf4565b6040516102b291906149e3565b60405180910390f35b6102d560048036038101906102d09190614a43565b610cc2565b6040516102e29190614a9e565b60405180910390f35b6102f3610ce5565b6040516103009190614ac8565b60405180910390f35b610311610cef565b60405161031e9190614ac8565b60405180910390f35b610341600480360381019061033c919061488c565b610cf5565b005b61035d60048036038101906103589190614ae3565b610e75565b60405161036a9190614a9e565b60405180910390f35b61037b610ea4565b6040516103889190614ac8565b60405180910390f35b610399610ef7565b6040516103a69190614b52565b60405180910390f35b6103c960048036038101906103c4919061488c565b610f00565b005b6103e560048036038101906103e09190614a43565b6111c1565b6040516103f29190614a9e565b60405180910390f35b6104036111f8565b6040516104109190614a9e565b60405180910390f35b61042161120b565b60405161042e9190614b7c565b60405180910390f35b610451600480360381019061044c919061488c565b611231565b005b61045b6116fb565b6040516104689190614ac8565b60405180910390f35b61048b60048036038101906104869190614cf8565b611701565b005b610495611d93565b6040516104a29190614b7c565b60405180910390f35b6104b3611db9565b6040516104c09190614ac8565b60405180910390f35b6104d1611dbf565b6040516104de9190614ac8565b60405180910390f35b61050160048036038101906104fc9190614e0f565b611dc5565b60405161050e9190614ac8565b60405180910390f35b61051f611e0d565b60405161052c9190614ac8565b60405180910390f35b61053d612055565b60405161054a9190614b7c565b60405180910390f35b61055b61207b565b6040516105689190614ac8565b60405180910390f35b61058b6004803603810190610586919061488c565b612081565b005b6105a760048036038101906105a29190614e0f565b612421565b005b6105b161259c565b6040516105be91906149e3565b60405180910390f35b6105e160048036038101906105dc9190614a43565b61266a565b6040516105ee9190614a9e565b60405180910390f35b610611600480360381019061060c9190614a43565b6126e1565b60405161061e9190614a9e565b60405180910390f35b610641600480360381019061063c9190614e0f565b612704565b60405161064e9190614ac8565b60405180910390f35b610671600480360381019061066c919061488c565b6128a2565b005b61067b61312b565b6040516106889190614ac8565b60405180910390f35b610699613131565b6040516106a69190614ac8565b60405180910390f35b6106c960048036038101906106c49190614e0f565b613137565b6040516106d69190614ac8565b60405180910390f35b6106e761314f565b6040516106f49190614ac8565b60405180910390f35b6107176004803603810190610712919061488c565b613155565b005b610721613429565b60405161072e9190614ac8565b60405180910390f35b610751600480360381019061074c9190614e3c565b6134ec565b60405161075e9190614ac8565b60405180910390f35b61076f613573565b60405161077c9190614ac8565b60405180910390f35b61078d61373a565b60405161079a9190614ac8565b60405180910390f35b6107ab613740565b6040516107b89190614ac8565b60405180910390f35b6107c9613746565b6040516107d69190614ac8565b60405180910390f35b6107f3673e523fb3be4d76a360c01b61374c565b61080767db17d87be6c0391260c01b61374c565b61081b6764ae3cc66e61500d60c01b61374c565b61082f674c35992dfa6f0d2f60c01b61374c565b610843674402467b77c8066e60c01b61374c565b600660009054906101000a900473ffffffffffffffffffffffffffffffffffffffff1673ffffffffffffffffffffffffffffffffffffffff163373ffffffffffffffffffffffffffffffffffffffff16146108d3576040517f08c379a00000000000000000000000000000000000000000000000000000000081526004016108ca90614ec8565b60405180910390fd5b6108e767eb23e86f43e5f83460c01b61374c565b6108fb67149a571b0652eca060c01b61374c565b61090f67e48e96209e4df65e60c01b61374c565b61092367487ac24cc21a2e6460c01b61374c565b61093767cb21539e84a449fa60c01b61374c565b61094b67896a03559527d6ff60c01b61374c565b600060095460085461095d9190614f17565b905061097367168e5b332a79fa0860c01b61374c565b61098767553143a7763384d960c01b61374c565b61099b678e7fa723a82bef1760c01b61374c565b600081116109de576040517f08c379a00000000000000000000000000000000000000000000000000000000081526004016109d590614f97565b60405180910390fd5b6109f2677f267e6a434fe25e60c01b61374c565b610a0667b1bb709c3144d6a760c01b61374c565b610a1a67b5ba3af7c22b132360c01b61374c565b600080831480610a3a5750610a3967ab9d43a9a35d14e260c01b61374f565b5b8015610a565750610a55671b4efc15f008aa8f60c01b613756565b5b610a6e57818311610a675782610a69565b815b610a70565b815b9050610a866782d17a53d19f205060c01b61374c565b610a9a67f051e8fc74f5efee60c01b61374c565b610aae6755e8aced4d720ea260c01b61374c565b60008111610af1576040517f08c379a0000000000000000000000000000000000000000000000000000000008152600401610ae890615003565b60405180910390fd5b610b05673e74896c419d055e60c01b61374c565b610b19671e72af7786d923b960c01b61374c565b8060096000828254610b2b9190615023565b92505081905550610b4667365bdee9a46401c260c01b61374c565b610b5a67210babbc31e630a660c01b61374c565b610bc9600660009054906101000a900473ffffffffffffffffffffffffffffffffffffffff1682600560009054906101000a900473ffffffffffffffffffffffffffffffffffffffff1673ffffffffffffffffffffffffffffffffffffffff166137619092919063ffffffff16565b505050565b600560009054906101000a900473ffffffffffffffffffffffffffffffffffffffff1681565b6060610c0a67ff43ba9c23e8980860c01b61374c565b610c1e67ace80fcf8a1adf7b60c01b61374c565b610c3267ff9fb2e22a2ddbfb60c01b61374c565b60168054610c3f90615086565b80601f0160208091040260200160405190810160405280929190818152602001828054610c6b90615086565b8015610cb85780601f10610c8d57610100808354040283529160200191610cb8565b820191906000526020600020905b815481529060010190602001808311610c9b57829003601f168201915b5050505050905090565b600080610ccd6137e7565b9050610cda8185856137ef565b600191505092915050565b6000600254905090565b600a5481565b610d0967f98439afa021123e60c01b61374c565b610d1d675609c5b76c528e4a60c01b61374c565b610d3167f0ac4504a2bd6f1760c01b61374c565b610d456750ec5a77373e899f60c01b61374c565b60008111610d88576040517f08c379a0000000000000000000000000000000000000000000000000000000008152600401610d7f90615103565b60405180910390fd5b610d9c673d450b1e8c760fc660c01b61374c565b610db0677c84188c7ef3f3ae60c01b61374c565b6014546012610dbf9190614f17565b600a610dcb9190615256565b81610dd691906152d0565b60096000828254610de79190614f17565b92505081905550610e0267ca901995e55a85ba60c01b61374c565b6014546012610e119190614f17565b600a610e1d9190615256565b81610e2891906152d0565b60086000828254610e399190614f17565b92505081905550610e5467d98f2ac8d59a759260c01b61374c565b610e68678860bda84763ac5660c01b61374c565b610e7233826139b8565b50565b600080610e806137e7565b9050610e8d858285613b8e565b610e98858585613c1a565b60019150509392505050565b6000610eba677f63bfbc8de6199860c01b61374c565b610ece67e598e7e6df1a213860c01b61374c565b610ee267e1a1ad1fd0a4658b60c01b61374c565b601054600f54610ef29190615023565b905090565b60006012905090565b610f14674cbf1977a79e940160c01b61374c565b610f2867db17d87be6c0391260c01b61374c565b610f3c6764ae3cc66e61500d60c01b61374c565b610f50674c35992dfa6f0d2f60c01b61374c565b610f64674402467b77c8066e60c01b61374c565b600660009054906101000a900473ffffffffffffffffffffffffffffffffffffffff1673ffffffffffffffffffffffffffffffffffffffff163373ffffffffffffffffffffffffffffffffffffffff1614610ff4576040517f08c379a0000000000000000000000000000000000000000000000000000000008152600401610feb90614ec8565b60405180910390fd5b61100867eb23e86f43e5f83460c01b61374c565b61101c67149a571b0652eca060c01b61374c565b6110306711429c9be1f32ab060c01b61374c565b611044671c8434da9036f30260c01b61374c565b61105867f9a84bd1b8d9ac3160c01b61374c565b61106c671b244c1110ce61ab60c01b61374c565b601560009054906101000a900460ff1661118e5761109467011357bb21e3b08960c01b61374c565b6110a867232e6178e809b35a60c01b61374c565b6110bc670f9fe63b4fe15ca060c01b61374c565b60006008541115611174576110db67cb0d9e94cee653fc60c01b61374c565b6110ef67433f1f94dd352e5960c01b61374c565b61110367c9978ec5ffee465b60c01b61374c565b61111767589a8c64a75e0d7460c01b61374c565b600754811061115b576040517f08c379a000000000000000000000000000000000000000000000000000000000815260040161115290615373565b60405180910390fd5b61116f67fe7df74d63d55cd360c01b61374c565b611189565b61118867921af3548179224160c01b61374c565b5b6111a3565b6111a2679283092faf26a6d060c01b61374c565b5b6111b76701bf0b22acbb646660c01b61374c565b8060078190555050565b6000806111cc6137e7565b90506111ed8185856111de85896134ec565b6111e89190615023565b6137ef565b600191505092915050565b601560009054906101000a900460ff1681565b600c60009054906101000a900473ffffffffffffffffffffffffffffffffffffffff1681565b61124567b2995d724ff4182660c01b61374c565b61125967df0c5b521876d06060c01b61374c565b61126d679602155aa69f982e60c01b61374c565b61128167a7769639c5c479a060c01b61374c565b600081116112c4576040517f08c379a00000000000000000000000000000000000000000000000000000000081526004016112bb906153df565b60405180910390fd5b6112d8679a6854c585ad412760c01b61374c565b6112ec67b3a371c2d79a07cc60c01b61374c565b611300676b4a99e12a9c0e5f60c01b61374c565b61131467c7c1977f8deed0ab60c01b61374c565b8061131e33611dc5565b101561135f576040517f08c379a00000000000000000000000000000000000000000000000000000000081526004016113569061544b565b60405180910390fd5b611373675a20d331d7f4842a60c01b61374c565b61138767d3516841b3cd82ea60c01b61374c565b61139b6736b567a2ac70c65060c01b61374c565b60006113b16793a21d7000704b2360c01b61374c565b6113c5676fe46804c306b00e60c01b61374c565b601560009054906101000a900460ff1615611449576113ee67bab5411704c7dd2760c01b61374c565b61140267303b73f545e61b8860c01b61374c565b6114166790d5115f2f13b41760c01b61374c565b61144460145460126114289190614f17565b600a6114349190615256565b8361143f91906152d0565b613155565b6116f7565b61145d676e978b88cfae478e60c01b61374c565b6114716793e9baddbe6384b960c01b61374c565b61148567f1ec4196a034c99c60c01b61374c565b6000600f5490506114a0675c25dd7b9487eba760c01b61374c565b601154816114ae9190614f17565b91506114c467d2f48df27f01f0a060c01b61374c565b6114d8670a0e0379d659ef2860c01b61374c565b6114ec67f7a19f85629beb1860c01b61374c565b6000821161152f576040517f08c379a0000000000000000000000000000000000000000000000000000000008152600401611526906154b7565b60405180910390fd5b6115436798afebec3b197a7660c01b61374c565b611557678d14383f86a9860060c01b61374c565b61156b67bc0a022e997210e760c01b61374c565b6000611575610ce5565b838561158191906154d7565b61158b91906152d0565b90506115a167f9de0d2fd2bd554360c01b61374c565b6115b56717fac2147674a24160c01b61374c565b6115c967984fbb968458ecb860c01b61374c565b6000811161160c576040517f08c379a000000000000000000000000000000000000000000000000000000000815260040161160390615565565b60405180910390fd5b6116206711509eeaa8754be060c01b61374c565b61163467f83e51eea4af5f9d60c01b61374c565b611648675fa0e4a33e9b1de560c01b61374c565b61165233856139b8565b61166667e35fa34b73240b7b60c01b61374c565b61167a67c8b50814952b6cd660c01b61374c565b6116c73382600560009054906101000a900473ffffffffffffffffffffffffffffffffffffffff1673ffffffffffffffffffffffffffffffffffffffff166137619092919063ffffffff16565b6116db67beedb1889b8f375060c01b61374c565b80601160008282546116ed9190615023565b9250508190555050505b5050565b600e5481565b61171567f4fb137abf677c5260c01b61374c565b6117296741253690cd55fae760c01b61374c565b61173d67349d77922adc4a0a60c01b61374c565b61175167eac9787400883fbf60c01b61374c565b600073ffffffffffffffffffffffffffffffffffffffff16600560009054906101000a900473ffffffffffffffffffffffffffffffffffffffff1673ffffffffffffffffffffffffffffffffffffffff16146117e2576040517f08c379a00000000000000000000000000000000000000000000000000000000081526004016117d9906155d1565b60405180910390fd5b6117f667585e77d88a68acfe60c01b61374c565b61180a67e8fb11d0611c327560c01b61374c565b61181e67fe4e92c9f722517060c01b61374c565b61183267b75089c8896ef2a660c01b61374c565b600073ffffffffffffffffffffffffffffffffffffffff168a73ffffffffffffffffffffffffffffffffffffffff16036118a1576040517f08c379a00000000000000000000000000000000000000000000000000000000081526004016118989061563d565b60405180910390fd5b6118b567437f551dfe4e391460c01b61374c565b6118c967176570ea1f81864b60c01b61374c565b6118dd67fbf6fc7b7b61a5ac60c01b61374c565b6118f1678319c86cb52d70b960c01b61374c565b600073ffffffffffffffffffffffffffffffffffffffff168973ffffffffffffffffffffffffffffffffffffffff1603611960576040517f08c379a0000000000000000000000000000000000000000000000000000000008152600401611957906156a9565b60405180910390fd5b61197467171de5cea8e7666c60c01b61374c565b61198867bb0aef339bddd83260c01b61374c565b61199c67f90fe6fdcca1bf6860c01b61374c565b6119b06766a10bab46b73d9460c01b61374c565b600088116119f3576040517f08c379a00000000000000000000000000000000000000000000000000000000081526004016119ea90615715565b60405180910390fd5b611a0767e50dcc240dab535460c01b61374c565b611a1b67def729c86d78ffb660c01b61374c565b611a2f676dfb9e784a8a8bd360c01b61374c565b611a436740a4c9a8c96f4cf160c01b61374c565b600073ffffffffffffffffffffffffffffffffffffffff168573ffffffffffffffffffffffffffffffffffffffff1603611ab2576040517f08c379a0000000000000000000000000000000000000000000000000000000008152600401611aa990615781565b60405180910390fd5b611ac66731a31179b9da144660c01b61374c565b611ada67e739036e97e8bec460c01b61374c565b88600660006101000a81548173ffffffffffffffffffffffffffffffffffffffff021916908373ffffffffffffffffffffffffffffffffffffffff160217905550611b2e66c75d0011b8c60560c01b61374c565b87600781905550611b4967dfd71f099f899b1e60c01b61374c565b86600a81905550611b64679801e4c137e6d77160c01b61374c565b85600b81905550611b7f67f9d64522c263316c60c01b61374c565b84600c60006101000a81548173ffffffffffffffffffffffffffffffffffffffff021916908373ffffffffffffffffffffffffffffffffffffffff160217905550611bd467a1ff9524ad43e1e560c01b61374c565b81601360006101000a81548173ffffffffffffffffffffffffffffffffffffffff021916908373ffffffffffffffffffffffffffffffffffffffff160217905550611c296716593028342f397e60c01b61374c565b42600d81905550611c446721e391813b5f3cc560c01b61374c565b89600560006101000a81548173ffffffffffffffffffffffffffffffffffffffff021916908373ffffffffffffffffffffffffffffffffffffffff160217905550611c9967e5af14f692321a5760c01b61374c565b8973ffffffffffffffffffffffffffffffffffffffff1663313ce5676040518163ffffffff1660e01b8152600401602060405180830381865afa158015611ce4573d6000803e3d6000fd5b505050506040513d601f19601f82011682018060405250810190611d0891906157cd565b60ff16601481905550611d25676099cbc25ec52b1c60c01b61374c565b8360169081611d34919061599c565b50611d49679fc45d1b2138941860c01b61374c565b8260179081611d58919061599c565b50611d6d67fb5b0b231508be8a60c01b61374c565b80601560006101000a81548160ff02191690831515021790555050505050505050505050565b601360009054906101000a900473ffffffffffffffffffffffffffffffffffffffff1681565b60105481565b60075481565b60008060008373ffffffffffffffffffffffffffffffffffffffff1673ffffffffffffffffffffffffffffffffffffffff168152602001908152602001600020549050919050565b6000611e2367cee334df9176885260c01b61374c565b611e376767bcc105e4256b8b60c01b61374c565b611e4b6770e3a8c1a242bc2c60c01b61374c565b6000600d5442611e5b9190614f17565b9050611e71671ae3a297691ab3a060c01b61374c565b611e8567ba906ffc63a6e4d360c01b61374c565b60008103611ed457611ea1670ed406273ec7bc9660c01b61374c565b611eb567126f4842badfa80860c01b61374c565b611ec967baa4abe98e49dab960c01b61374c565b600e54915050612052565b611ee867307589486dbc4e6460c01b61374c565b611efc678f803881e1576e5560c01b61374c565b611f10675b1df9218a560f4460c01b61374c565b6000611f26673df7e468d95300b860c01b61374c565b611f3a678ec78fe5c3a058ca60c01b61374c565b601560009054906101000a900460ff1615611f8157611f63672ba2989330dd714a60c01b61374c565b611f77675c8780d7e862832460c01b61374c565b6009549050611fc1565b611f9567525edf851dbe1cc860c01b61374c565b611fa9676c0564ae23a683c460c01b61374c565b611fb1613429565b600954611fbe9190614f17565b90505b611fd56787565bfec4606b2060c01b61374c565b611fe967cf77c16a9d6ceefd60c01b61374c565b600064496cebb80083600a548461200091906154d7565b61200a91906154d7565b61201491906152d0565b905061202a679f7d12b069e1e74a60c01b61374c565b61203e672e8029e0e7f5ff3760c01b61374c565b80600e5461204c9190615023565b93505050505b90565b600660009054906101000a900473ffffffffffffffffffffffffffffffffffffffff1681565b600f5481565b612095678fe0d0255eeb6a7760c01b61374c565b6120a9677160e0dd2d0b461360c01b61374c565b6120bd67f7068b2e0a2caa6b60c01b61374c565b6120d1674f8a7ce714d08f6360c01b61374c565b60008111612114576040517f08c379a000000000000000000000000000000000000000000000000000000000815260040161210b90615aba565b60405180910390fd5b6121286799192724bedf067360c01b61374c565b61213c67cb16883632827a7160c01b61374c565b61215067510efeb764ca9a6160c01b61374c565b612164675a45a9f2adee8b8f60c01b61374c565b600754600854106121aa576040517f08c379a00000000000000000000000000000000000000000000000000000000081526004016121a190615b26565b60405180910390fd5b6121be67b51b4c786cbd784760c01b61374c565b6121d26727c7923c68798d8360c01b61374c565b6121e667738398b9f081075960c01b61374c565b60006008546007546121f89190614f17565b905061220e6790f997d9370ba71160c01b61374c565b612222675d636395927937f260c01b61374c565b600081831180612242575061224167c2299e007a4a187f60c01b61374f565b5b801561225e575061225d67b01b2275c68d605d60c01b613756565b5b612268578261226a565b815b905061228067aa982cdf0a52ff0860c01b61374c565b612294676ade6a8607ec640560c01b61374c565b6122e3333083600560009054906101000a900473ffffffffffffffffffffffffffffffffffffffff1673ffffffffffffffffffffffffffffffffffffffff16613e99909392919063ffffffff16565b6122f767a5a48394bd4bfa1760c01b61374c565b61230b67dce491bf9199cbe760c01b61374c565b61233a33601454601261231e9190614f17565b600a61232a9190615256565b8361233591906154d7565b613f22565b61234e679ca4ad6ca8877b1260c01b61374c565b80600860008282546123609190615023565b9250508190555061237b679c3e879b517c6c3760c01b61374c565b61238f673bf020d7d017a5ed60c01b61374c565b601360009054906101000a900473ffffffffffffffffffffffffffffffffffffffff1673ffffffffffffffffffffffffffffffffffffffff1663893cfe13336040518263ffffffff1660e01b81526004016123ea9190614b7c565b600060405180830381600087803b15801561240457600080fd5b505af1158015612418573d6000803e3d6000fd5b50505050505050565b61243567d85e2a09aae37e6460c01b61374c565b61244967be25feb7ae37388660c01b61374c565b61245d6730967588fd6e046960c01b61374c565b600061246882612704565b905061247e679315dbcf947e074360c01b61374c565b6124926743c8b20ce107f87160c01b61374c565b6000811115612529576124af678aedb64838a07de060c01b61374c565b6124c367b03cfc713be5eb4960c01b61374c565b6124d767191cb805031b32a560c01b61374c565b6125248282600560009054906101000a900473ffffffffffffffffffffffffffffffffffffffff1673ffffffffffffffffffffffffffffffffffffffff166137619092919063ffffffff16565b61253e565b61253d67bc388677c906722a60c01b61374c565b5b61255267eea71449e84c29e160c01b61374c565b601054601260008473ffffffffffffffffffffffffffffffffffffffff1673ffffffffffffffffffffffffffffffffffffffff168152602001908152602001600020819055505050565b60606125b267e6b9653c7636806860c01b61374c565b6125c667823cd4b2b3932e7160c01b61374c565b6125da675a9bd9744722723260c01b61374c565b601780546125e790615086565b80601f016020809104026020016040519081016040528092919081815260200182805461261390615086565b80156126605780601f1061263557610100808354040283529160200191612660565b820191906000526020600020905b81548152906001019060200180831161264357829003601f168201915b5050505050905090565b6000806126756137e7565b9050600061268382866134ec565b9050838110156126c8576040517f08c379a00000000000000000000000000000000000000000000000000000000081526004016126bf90615bb8565b60405180910390fd5b6126d582868684036137ef565b60019250505092915050565b6000806126ec6137e7565b90506126f9818585613c1a565b600191505092915050565b600061271a67be3efb10d95a511560c01b61374c565b61272e675e382ffc1e13d44a60c01b61374c565b61274267aeb0029fd0213e7a60c01b61374c565b600061274c610ce5565b905061276267e8328883fb57298160c01b61374c565b61277667222eca2b5e941daf60c01b61374c565b600081036127c45761279267d374547b274196dc60c01b61374c565b6127a66783bfde9f30e0a2f260c01b61374c565b6127ba67074625725f7fdafd60c01b61374c565b600091505061289d565b6127d86751b12dcbac1394c160c01b61374c565b6127ec6728e9a9292f1c4e6d60c01b61374c565b612800671a95bda9a5f44ec660c01b61374c565b60008161280c85611dc5565b601260008773ffffffffffffffffffffffffffffffffffffffff1673ffffffffffffffffffffffffffffffffffffffff168152602001908152602001600020546010546128599190614f17565b61286391906154d7565b61286d91906152d0565b9050612883677b83086b02b3118060c01b61374c565b612897673bbee85d5dd12b0760c01b61374c565b80925050505b919050565b6128b667bb706990a34cb45360c01b61374c565b6128ca6745ad9b4990d8838360c01b61374c565b6128de6730c5bd3d7d26660760c01b61374c565b6128f267e220d5338a5f3d4060c01b61374c565b60008111612935576040517f08c379a000000000000000000000000000000000000000000000000000000000815260040161292c90615c24565b60405180910390fd5b61294967af680b3229a7c10a60c01b61374c565b61295d67cdb75ec0e2b887c460c01b61374c565b61297167fc87005754b43f4360c01b61374c565b6000612987677c29b7b7d3b3f2a660c01b61374c565b61299b67148d725bd6d8131960c01b61374c565b6000600b5411156129f0576129ba67853f0e9079f721c460c01b61374c565b6129ce67fc69d92ac4ff75bd60c01b61374c565b612710600b54836129df91906154d7565b6129e991906152d0565b9050612a05565b612a0467358eeb11d4d6eb0e60c01b61374c565b5b612a1967cfffd7302c39127760c01b61374c565b612a2d67d9d9dc918ff5fb5660c01b61374c565b612a35614081565b612a4967cad122f8d25c039160c01b61374c565b612a5d672d577e9ec564e33660c01b61374c565b612aac333084600560009054906101000a900473ffffffffffffffffffffffffffffffffffffffff1673ffffffffffffffffffffffffffffffffffffffff16613e99909392919063ffffffff16565b612ac0679b05edf36ad5f78b60c01b61374c565b612ad467109519ae950c02f360c01b61374c565b6000811115612b8d57612af16755c08d08a402916f60c01b61374c565b612b05678dd12d12c877ae0660c01b61374c565b612b1967e9c6031204256b5860c01b61374c565b612b88600c60009054906101000a900473ffffffffffffffffffffffffffffffffffffffff1682600560009054906101000a900473ffffffffffffffffffffffffffffffffffffffff1673ffffffffffffffffffffffffffffffffffffffff166137619092919063ffffffff16565b612ba2565b612ba1672744fb6538be6ee760c01b61374c565b5b612bb667927b868d224e095e60c01b61374c565b612bca67e1b28e73b5fd0a9d60c01b61374c565b60008183612bd89190614f17565b9050612bee675a3a7a62fd369b5860c01b61374c565b612c0267a65a2dad4a9c3d5260c01b61374c565b6000612c1867bc661a93b2d0657b60c01b61374c565b612c2c67b00cfb52145ec5b560c01b61374c565b6000612c4267121ed1383632b0c660c01b61374c565b612c5667fa585140ad482eaa60c01b61374c565b6000600e541115612d0757612c75674a4836535ece16e060c01b61374c565b612c8967ac8acd1e9c9a56cb60c01b61374c565b600e54831180612ca95750612ca867b80f07d14e1c3e4660c01b61374f565b5b8015612cc55750612cc467fa76c00097f9c0a060c01b613756565b5b612ccf5782612cd3565b600e545b9150612ce96762ae18970761baa760c01b61374c565b81600e6000828254612cfb9190614f17565b92505081905550612d1c565b612d1b678b58c9eb99434e2860c01b61374c565b5b612d3067030de4cdf266ae9e60c01b61374c565b612d4467ca7fb1ca9e4cbf4260c01b61374c565b81831115612fc057612d6067fb0be2fbf292507460c01b61374c565b612d746707cd1bf0772ebd9e60c01b61374c565b8183612d809190614f17565b9050612d9667dccfba06169495ac60c01b61374c565b612daa67b71fbd7c7a8a1e7d60c01b61374c565b601560009054906101000a900460ff1615612ec257612dd367fd66eb8345c9015d60c01b61374c565b612de767789cee7acf58a4ab60c01b61374c565b612dfb67af8a9f8780ab4c6260c01b61374c565b60006009549050612e15666fd76d5976c5b060c01b61374c565b612e296725193a3169c1c61c60c01b61374c565b80821115612e6157612e4567b17989da3d7ad8f760c01b61374c565b612e59671f6fe06159051f9a60c01b61374c565b809150612e76565b612e7567dbc9db795dcb427c60c01b61374c565b5b81600f6000828254612e889190615023565b92505081905550612ea367c86864176ae52d6e60c01b61374c565b8160096000828254612eb59190614f17565b9250508190555050612fbb565b612ed667c4dae853a331f86660c01b61374c565b612eea6734681cb722d72e0d60c01b61374c565b612efe67192eb4fb824667bf60c01b61374c565b6000612f08613429565b600954612f159190614f17565b9050612f2b67c5f4d568d1ba1ce360c01b61374c565b612f3f671bbb779f4902972860c01b61374c565b80821115612f7757612f5b6766fe61e23a9619a360c01b61374c565b612f6f6708e47c589273471c60c01b61374c565b809150612f8c565b612f8b67c89c00537082923860c01b61374c565b5b612fa067c81aa4446cbf8a9060c01b61374c565b81600f6000828254612fb29190615023565b92505081905550505b612fd5565b612fd4675a2e08ab470f857560c01b61374c565b5b612fe9677c99b4f9677f93cf60c01b61374c565b612ffd672e753084ad55156260c01b61374c565b600081838661300c9190615023565b6130169190615023565b905061302c672bbc614bc0b3fd8160c01b61374c565b61304067cb929f4d47602fe060c01b61374c565b808611156130e15761305c671bc28213a070a29f60c01b61374c565b613070677a1522b4ac0733dd60c01b61374c565b61308467445b55ce8917368d60c01b61374c565b6130dc3382886130949190614f17565b600560009054906101000a900473ffffffffffffffffffffffffffffffffffffffff1673ffffffffffffffffffffffffffffffffffffffff166137619092919063ffffffff16565b6130f6565b6130f567321556984e680bb960c01b61374c565b5b61310a67beae472e0cb64bca60c01b61374c565b826010600082825461311c9190615023565b92505081905550505050505050565b60085481565b60145481565b60126020528060005260406000206000915090505481565b600d5481565b61316967d469610b7cfb919a60c01b61374c565b61317d676b423f818b867b5e60c01b61374c565b6131916797e6b57de7ad398c60c01b61374c565b6131a567110ca715017e668e60c01b61374c565b600081116131e8576040517f08c379a00000000000000000000000000000000000000000000000000000000081526004016131df90615103565b60405180910390fd5b6131fc6778032b73f7b303b060c01b61374c565b61321067d0567157bce104b460c01b61374c565b6132246799c9d30fe6eac89f60c01b61374c565b61322c614081565b613240677869deda60d1cafd60c01b61374c565b61325467bffd1d36e567e77a60c01b61374c565b61325d33612421565b6132716726d36844a5fb66c160c01b61374c565b613285679fea92dbb795db9e60c01b61374c565b60006009546008546132979190614f17565b90506132ad672a5e435e0c2ecc0c60c01b61374c565b6132c1671199ad5a9cdd7f3260c01b61374c565b6132d567d9670b436a82bf1160c01b61374c565b81811015613318576040517f08c379a000000000000000000000000000000000000000000000000000000000815260040161330f90615c90565b60405180910390fd5b61332c670b9309c49117e5e160c01b61374c565b613340670f25381df9925e6860c01b61374c565b613354676d1911a3a40a6a4860c01b61374c565b6133833360145460126133679190614f17565b600a6133739190615256565b8461337e91906154d7565b6139b8565b61339767101e9b828e5938d960c01b61374c565b81600860008282546133a99190614f17565b925050819055506133c46786710b9e44509cb460c01b61374c565b6133d8671afc3ff692a40fce60c01b61374c565b6134253383600560009054906101000a900473ffffffffffffffffffffffffffffffffffffffff1673ffffffffffffffffffffffffffffffffffffffff166137619092919063ffffffff16565b5050565b600061343f6763417f1359d53eb560c01b61374c565b613453677d4994be202adbec60c01b61374c565b61346767f238b1cd07d36b0460c01b61374c565b601560009054906101000a900460ff16156134bb5761349067dccedd9661b85e2760c01b61374c565b6134a467f7ab8fe79a0c71b860c01b61374c565b6009546008546134b49190614f17565b90506134e9565b6134cf67b170fcf845da1a2c60c01b61374c565b6134e36760dd241ea372ec0c60c01b61374c565b600f5490505b90565b6000600160008473ffffffffffffffffffffffffffffffffffffffff1673ffffffffffffffffffffffffffffffffffffffff16815260200190815260200160002060008373ffffffffffffffffffffffffffffffffffffffff1673ffffffffffffffffffffffffffffffffffffffff16815260200190815260200160002054905092915050565b6000613589672bf858f078eb244860c01b61374c565b61359d67461f8ceda79b1f4360c01b61374c565b6135b1675d9527c7dec09cd560c01b61374c565b6000600d54426135c19190614f17565b90506135d767faf0102250ca79c360c01b61374c565b6135eb67dc89f2ceaa6b399260c01b61374c565b60006136016719bb03f1286fac6260c01b61374c565b6136156765b88691787b39a260c01b61374c565b601560009054906101000a900460ff161561365c5761363e670ad98a40e3ff628a60c01b61374c565b6136526701fc655b54b2192160c01b61374c565b600954905061369c565b61367067efea38914e325adc60c01b61374c565b613684675d350c9a294f8bf060c01b61374c565b61368c613429565b6009546136999190614f17565b90505b6136b06794cc478023bfe6c860c01b61374c565b6136c46715d3022d246e151a60c01b61374c565b600064496cebb80083600a54846136db91906154d7565b6136e591906154d7565b6136ef91906152d0565b90506137056747c543e2f9539c4660c01b61374c565b61371967e9a12e777d79e8ed60c01b61374c565b80600e54836137289190615023565b6137329190615023565b935050505090565b600b5481565b60115481565b60095481565b50565b6000919050565b600060019050919050565b6137e28363a9059cbb60e01b8484604051602401613780929190615cb0565b604051602081830303815290604052907bffffffffffffffffffffffffffffffffffffffffffffffffffffffff19166020820180517bffffffffffffffffffffffffffffffffffffffffffffffffffffffff83818316178352505050506143f9565b505050565b600033905090565b600073ffffffffffffffffffffffffffffffffffffffff168373ffffffffffffffffffffffffffffffffffffffff160361385e576040517f08c379a000000000000000000000000000000000000000000000000000000000815260040161385590615d4b565b60405180910390fd5b600073ffffffffffffffffffffffffffffffffffffffff168273ffffffffffffffffffffffffffffffffffffffff16036138cd576040517f08c379a00000000000000000000000000000000000000000000000000000000081526004016138c490615ddd565b60405180910390fd5b80600160008573ffffffffffffffffffffffffffffffffffffffff1673ffffffffffffffffffffffffffffffffffffffff16815260200190815260200160002060008473ffffffffffffffffffffffffffffffffffffffff1673ffffffffffffffffffffffffffffffffffffffff168152602001908152602001600020819055508173ffffffffffffffffffffffffffffffffffffffff168373ffffffffffffffffffffffffffffffffffffffff167f8c5be1e5ebec7d5bd14f71427d1e84f3dd0314c0f7b2291e5b200ac8c7c3b925836040516139ab9190614ac8565b60405180910390a3505050565b600073ffffffffffffffffffffffffffffffffffffffff168273ffffffffffffffffffffffffffffffffffffffff1603613a27576040517f08c379a0000000000000000000000000000000000000000000000000000000008152600401613a1e90615e6f565b60405180910390fd5b613a33826000836144c0565b60008060008473ffffffffffffffffffffffffffffffffffffffff1673ffffffffffffffffffffffffffffffffffffffff16815260200190815260200160002054905081811015613ab9576040517f08c379a0000000000000000000000000000000000000000000000000000000008152600401613ab090615f01565b60405180910390fd5b8181036000808573ffffffffffffffffffffffffffffffffffffffff1673ffffffffffffffffffffffffffffffffffffffff168152602001908152602001600020819055508160026000828254613b109190614f17565b92505081905550600073ffffffffffffffffffffffffffffffffffffffff168373ffffffffffffffffffffffffffffffffffffffff167fddf252ad1be2c89b69c2b068fc378daa952ba7f163c4a11628f55a4df523b3ef84604051613b759190614ac8565b60405180910390a3613b8983600084614682565b505050565b6000613b9a84846134ec565b90507fffffffffffffffffffffffffffffffffffffffffffffffffffffffffffffffff8114613c145781811015613c06576040517f08c379a0000000000000000000000000000000000000000000000000000000008152600401613bfd90615f6d565b60405180910390fd5b613c1384848484036137ef565b5b50505050565b600073ffffffffffffffffffffffffffffffffffffffff168373ffffffffffffffffffffffffffffffffffffffff1603613c89576040517f08c379a0000000000000000000000000000000000000000000000000000000008152600401613c8090615fff565b60405180910390fd5b600073ffffffffffffffffffffffffffffffffffffffff168273ffffffffffffffffffffffffffffffffffffffff1603613cf8576040517f08c379a0000000000000000000000000000000000000000000000000000000008152600401613cef90616091565b60405180910390fd5b613d038383836144c0565b60008060008573ffffffffffffffffffffffffffffffffffffffff1673ffffffffffffffffffffffffffffffffffffffff16815260200190815260200160002054905081811015613d89576040517f08c379a0000000000000000000000000000000000000000000000000000000008152600401613d8090616123565b60405180910390fd5b8181036000808673ffffffffffffffffffffffffffffffffffffffff1673ffffffffffffffffffffffffffffffffffffffff16815260200190815260200160002081905550816000808573ffffffffffffffffffffffffffffffffffffffff1673ffffffffffffffffffffffffffffffffffffffff1681526020019081526020016000206000828254613e1c9190615023565b925050819055508273ffffffffffffffffffffffffffffffffffffffff168473ffffffffffffffffffffffffffffffffffffffff167fddf252ad1be2c89b69c2b068fc378daa952ba7f163c4a11628f55a4df523b3ef84604051613e809190614ac8565b60405180910390a3613e93848484614682565b50505050565b613f1c846323b872dd60e01b858585604051602401613eba93929190616143565b604051602081830303815290604052907bffffffffffffffffffffffffffffffffffffffffffffffffffffffff19166020820180517bffffffffffffffffffffffffffffffffffffffffffffffffffffffff83818316178352505050506143f9565b50505050565b600073ffffffffffffffffffffffffffffffffffffffff168273ffffffffffffffffffffffffffffffffffffffff1603613f91576040517f08c379a0000000000000000000000000000000000000000000000000000000008152600401613f88906161c6565b60405180910390fd5b613f9d600083836144c0565b8060026000828254613faf9190615023565b92505081905550806000808473ffffffffffffffffffffffffffffffffffffffff1673ffffffffffffffffffffffffffffffffffffffff16815260200190815260200160002060008282546140049190615023565b925050819055508173ffffffffffffffffffffffffffffffffffffffff16600073ffffffffffffffffffffffffffffffffffffffff167fddf252ad1be2c89b69c2b068fc378daa952ba7f163c4a11628f55a4df523b3ef836040516140699190614ac8565b60405180910390a361407d60008383614682565b5050565b61409567dcd8ccdf94dd9a4b60c01b61374c565b6140a9675e069b43a5646ff260c01b61374c565b6140bd67f654f128d5c2ec1060c01b61374c565b600d544211614107576140da67941ff210bcfccf8e60c01b61374c565b6140ee67261dc7ee1910d93560c01b61374c565b614102676b3066daaf91830c60c01b61374c565b6143f7565b61411b67fd7c9f6c5ff41c1960c01b61374c565b61412f67bf760ea3f4fad64e60c01b61374c565b614143670ab3bc728e9a608860c01b61374c565b6000600d54426141539190614f17565b905061416967febabfc64e58d35160c01b61374c565b61417d673eb84367f642da4160c01b61374c565b600081036141c75761419967a440e0541654c2e260c01b61374c565b6141ad67c5e0b7b76094a36260c01b61374c565b6141c167d1814b95f1f43fa760c01b61374c565b506143f7565b6141db67d77641c347bde16260c01b61374c565b6141ef67912f390e65252a2060c01b61374c565b6142036749eca13e55c9e9f960c01b61374c565b600061421967af50f1c8d613064660c01b61374c565b61422d672733ec61e057ea8c60c01b61374c565b601560009054906101000a900460ff161561427457614256677ae19e1ab1c313d260c01b61374c565b61426a6793636269d224c2d560c01b61374c565b60095490506142b4565b614288678366f7b8a84aed5960c01b61374c565b61429c67b8301e3d2337342260c01b61374c565b6142a4613429565b6009546142b19190614f17565b90505b6142c8674389f3506a88af8d60c01b61374c565b6142dc67dd21ac4b99b62cc860c01b61374c565b60008103614342576142f867ac26fe8e77a3090a60c01b61374c565b61430c67446b85617fc81ca260c01b61374c565b42600d8190555061432767b2fc7cb7ca76ca1960c01b61374c565b61433b6764391866fc09355c60c01b61374c565b50506143f7565b614356670db5664872458b5260c01b61374c565b61436a6798e8b54c20b4030b60c01b61374c565b61437e674d517f72be20c53460c01b61374c565b600064496cebb80083600a548461439591906154d7565b61439f91906154d7565b6143a991906152d0565b90506143bf679d60869de501bdbb60c01b61374c565b80600e60008282546143d19190615023565b925050819055506143ec67d06c199c5d8e11b660c01b61374c565b42600d819055505050505b565b600061445b826040518060400160405280602081526020017f5361666545524332303a206c6f772d6c6576656c2063616c6c206661696c65648152508573ffffffffffffffffffffffffffffffffffffffff166146879092919063ffffffff16565b90506000815111156144bb578080602001905181019061447b91906161fb565b6144ba576040517f08c379a00000000000000000000000000000000000000000000000000000000081526004016144b19061629a565b60405180910390fd5b5b505050565b6144d467e506dfc2b7784af860c01b61374c565b6144e867bb6b9c6f826dc41760c01b61374c565b6144fc673a968de9b08e9df560c01b61374c565b600073ffffffffffffffffffffffffffffffffffffffff168373ffffffffffffffffffffffffffffffffffffffff161461457a576145446780c6a601b03c539760c01b61374c565b614558673c2417dc6f9b5ebc60c01b61374c565b61456c67a3ccf8c3bd69cc1260c01b61374c565b61457583612421565b61458f565b61458e67758ef892128da83560c01b61374c565b5b6145a3673799c03e73594d4260c01b61374c565b6145b767843f2146fb45a59860c01b61374c565b600073ffffffffffffffffffffffffffffffffffffffff168273ffffffffffffffffffffffffffffffffffffffff1614614635576145ff67d5e203dca69e636760c01b61374c565b61461367379d9d35519873f860c01b61374c565b61462767833e9886c3ef5bc160c01b61374c565b61463082612421565b61464a565b61464967ec43aaca06c97b4b60c01b61374c565b5b61465e6775022d22199c68c960c01b61374c565b61467267dfaa76ceac58a67b60c01b61374c565b61467d83838361469f565b505050565b505050565b606061469684846000856146a4565b90509392505050565b505050565b6060824710156146e9576040517f08c379a00000000000000000000000000000000000000000000000000000000081526004016146e09061632c565b60405180910390fd5b6146f2856147b8565b614731576040517f08c379a000000000000000000000000000000000000000000000000000000000815260040161472890616398565b60405180910390fd5b6000808673ffffffffffffffffffffffffffffffffffffffff16858760405161475a91906163ff565b60006040518083038185875af1925050503d8060008114614797576040519150601f19603f3d011682016040523d82523d6000602084013e61479c565b606091505b50915091506147ac8282866147db565b92505050949350505050565b6000808273ffffffffffffffffffffffffffffffffffffffff163b119050919050565b606083156147eb5782905061483b565b6000835111156147fe5782518084602001fd5b816040517f08c379a000000000000000000000000000000000000000000000000000000000815260040161483291906149e3565b60405180910390fd5b9392505050565b6000604051905090565b600080fd5b600080fd5b6000819050919050565b61486981614856565b811461487457600080fd5b50565b60008135905061488681614860565b92915050565b6000602082840312156148a2576148a161484c565b5b60006148b084828501614877565b91505092915050565b600073ffffffffffffffffffffffffffffffffffffffff82169050919050565b6000819050919050565b60006148fe6148f96148f4846148b9565b6148d9565b6148b9565b9050919050565b6000614910826148e3565b9050919050565b600061492282614905565b9050919050565b61493281614917565b82525050565b600060208201905061494d6000830184614929565b92915050565b600081519050919050565b600082825260208201905092915050565b60005b8381101561498d578082015181840152602081019050614972565b60008484015250505050565b6000601f19601f8301169050919050565b60006149b582614953565b6149bf818561495e565b93506149cf81856020860161496f565b6149d881614999565b840191505092915050565b600060208201905081810360008301526149fd81846149aa565b905092915050565b6000614a10826148b9565b9050919050565b614a2081614a05565b8114614a2b57600080fd5b50565b600081359050614a3d81614a17565b92915050565b60008060408385031215614a5a57614a5961484c565b5b6000614a6885828601614a2e565b9250506020614a7985828601614877565b9150509250929050565b60008115159050919050565b614a9881614a83565b82525050565b6000602082019050614ab36000830184614a8f565b92915050565b614ac281614856565b82525050565b6000602082019050614add6000830184614ab9565b92915050565b600080600060608486031215614afc57614afb61484c565b5b6000614b0a86828701614a2e565b9350506020614b1b86828701614a2e565b9250506040614b2c86828701614877565b9150509250925092565b600060ff82169050919050565b614b4c81614b36565b82525050565b6000602082019050614b676000830184614b43565b92915050565b614b7681614a05565b82525050565b6000602082019050614b916000830184614b6d565b92915050565b600080fd5b600080fd5b7f4e487b7100000000000000000000000000000000000000000000000000000000600052604160045260246000fd5b614bd982614999565b810181811067ffffffffffffffff82111715614bf857614bf7614ba1565b5b80604052505050565b6000614c0b614842565b9050614c178282614bd0565b919050565b600067ffffffffffffffff821115614c3757614c36614ba1565b5b614c4082614999565b9050602081019050919050565b82818337600083830152505050565b6000614c6f614c6a84614c1c565b614c01565b905082815260208101848484011115614c8b57614c8a614b9c565b5b614c96848285614c4d565b509392505050565b600082601f830112614cb357614cb2614b97565b5b8135614cc3848260208601614c5c565b91505092915050565b614cd581614a83565b8114614ce057600080fd5b50565b600081359050614cf281614ccc565b92915050565b6000806000806000806000806000806101408b8d031215614d1c57614d1b61484c565b5b6000614d2a8d828e01614a2e565b9a50506020614d3b8d828e01614a2e565b9950506040614d4c8d828e01614877565b9850506060614d5d8d828e01614877565b9750506080614d6e8d828e01614877565b96505060a0614d7f8d828e01614a2e565b95505060c08b013567ffffffffffffffff811115614da057614d9f614851565b5b614dac8d828e01614c9e565b94505060e08b013567ffffffffffffffff811115614dcd57614dcc614851565b5b614dd98d828e01614c9e565b935050610100614deb8d828e01614a2e565b925050610120614dfd8d828e01614ce3565b9150509295989b9194979a5092959850565b600060208284031215614e2557614e2461484c565b5b6000614e3384828501614a2e565b91505092915050565b60008060408385031215614e5357614e5261484c565b5b6000614e6185828601614a2e565b9250506020614e7285828601614a2e565b9150509250929050565b7f4e6f7420626f72726f7765720000000000000000000000000000000000000000600082015250565b6000614eb2600c8361495e565b9150614ebd82614e7c565b602082019050919050565b60006020820190508181036000830152614ee181614ea5565b9050919050565b7f4e487b7100000000000000000000000000000000000000000000000000000000600052601160045260246000fd5b6000614f2282614856565b9150614f2d83614856565b9250828203905081811115614f4557614f44614ee8565b5b92915050565b7f4e6f20617661696c61626c652066756e64730000000000000000000000000000600082015250565b6000614f8160128361495e565b9150614f8c82614f4b565b602082019050919050565b60006020820190508181036000830152614fb081614f74565b9050919050565b7f44726177206d757374206265203e203000000000000000000000000000000000600082015250565b6000614fed60108361495e565b9150614ff882614fb7565b602082019050919050565b6000602082019050818103600083015261501c81614fe0565b9050919050565b600061502e82614856565b915061503983614856565b925082820190508082111561505157615050614ee8565b5b92915050565b7f4e487b7100000000000000000000000000000000000000000000000000000000600052602260045260246000fd5b6000600282049050600182168061509e57607f821691505b6020821081036150b1576150b0615057565b5b50919050565b7f5a65726f20756e66756e64000000000000000000000000000000000000000000600082015250565b60006150ed600b8361495e565b91506150f8826150b7565b602082019050919050565b6000602082019050818103600083015261511c816150e0565b9050919050565b60008160011c9050919050565b6000808291508390505b600185111561517a5780860481111561515657615155614ee8565b5b60018516156151655780820291505b808102905061517385615123565b945061513a565b94509492505050565b600082615193576001905061524f565b816151a1576000905061524f565b81600181146151b757600281146151c1576151f0565b600191505061524f565b60ff8411156151d3576151d2614ee8565b5b8360020a9150848211156151ea576151e9614ee8565b5b5061524f565b5060208310610133831016604e8410600b84101617156152255782820a9050838111156152205761521f614ee8565b5b61524f565b6152328484846001615130565b9250905081840481111561524957615248614ee8565b5b81810290505b9392505050565b600061526182614856565b915061526c83614856565b92506152997fffffffffffffffffffffffffffffffffffffffffffffffffffffffffffffffff8484615183565b905092915050565b7f4e487b7100000000000000000000000000000000000000000000000000000000600052601260045260246000fd5b60006152db82614856565b91506152e683614856565b9250826152f6576152f56152a1565b5b828204905092915050565b7f43616e6e6f7420696e63726561736520676f616c2061667465722066756e646960008201527f6e67000000000000000000000000000000000000000000000000000000000000602082015250565b600061535d60228361495e565b915061536882615301565b604082019050919050565b6000602082019050818103600083015261538c81615350565b9050919050565b7f5a65726f2072656465656d000000000000000000000000000000000000000000600082015250565b60006153c9600b8361495e565b91506153d482615393565b602082019050919050565b600060208201905081810360008301526153f8816153bc565b9050919050565b7f496e73756666696369656e7420494f5573000000000000000000000000000000600082015250565b600061543560118361495e565b9150615440826153ff565b602082019050919050565b6000602082019050818103600083015261546481615428565b9050919050565b7f4e6f207072696e636970616c20746f2072656465656d00000000000000000000600082015250565b60006154a160168361495e565b91506154ac8261546b565b602082019050919050565b600060208201905081810360008301526154d081615494565b9050919050565b60006154e282614856565b91506154ed83614856565b92508282026154fb81614856565b9150828204841483151761551257615511614ee8565b5b5092915050565b7f436c61696d61626c652069732030000000000000000000000000000000000000600082015250565b600061554f600e8361495e565b915061555a82615519565b602082019050919050565b6000602082019050818103600083015261557e81615542565b9050919050565b7f416c726561647920736574757000000000000000000000000000000000000000600082015250565b60006155bb600d8361495e565b91506155c682615585565b602082019050919050565b600060208201905081810360008301526155ea816155ae565b9050919050565b7f5a65726f206c6f616e546f6b656e000000000000000000000000000000000000600082015250565b6000615627600e8361495e565b9150615632826155f1565b602082019050919050565b600060208201905081810360008301526156568161561a565b9050919050565b7f5a65726f20626f72726f77657200000000000000000000000000000000000000600082015250565b6000615693600d8361495e565b915061569e8261565d565b602082019050919050565b600060208201905081810360008301526156c281615686565b9050919050565b7f4c6f616e20676f616c206d757374206265203e20300000000000000000000000600082015250565b60006156ff60158361495e565b915061570a826156c9565b602082019050919050565b6000602082019050818103600083015261572e816156f2565b9050919050565b7f5a65726f20666565206164647265737300000000000000000000000000000000600082015250565b600061576b60108361495e565b915061577682615735565b602082019050919050565b6000602082019050818103600083015261579a8161575e565b9050919050565b6157aa81614b36565b81146157b557600080fd5b50565b6000815190506157c7816157a1565b92915050565b6000602082840312156157e3576157e261484c565b5b60006157f1848285016157b8565b91505092915050565b60008190508160005260206000209050919050565b60006020601f8301049050919050565b600082821b905092915050565b60006008830261585c7fffffffffffffffffffffffffffffffffffffffffffffffffffffffffffffffff8261581f565b615866868361581f565b95508019841693508086168417925050509392505050565b600061589961589461588f84614856565b6148d9565b614856565b9050919050565b6000819050919050565b6158b38361587e565b6158c76158bf826158a0565b84845461582c565b825550505050565b600090565b6158dc6158cf565b6158e78184846158aa565b505050565b5b8181101561590b576159006000826158d4565b6001810190506158ed565b5050565b601f82111561595057615921816157fa565b61592a8461580f565b81016020851015615939578190505b61594d6159458561580f565b8301826158ec565b50505b505050565b600082821c905092915050565b600061597360001984600802615955565b1980831691505092915050565b600061598c8383615962565b9150826002028217905092915050565b6159a582614953565b67ffffffffffffffff8111156159be576159bd614ba1565b5b6159c88254615086565b6159d382828561590f565b600060209050601f831160018114615a0657600084156159f4578287015190505b6159fe8582615980565b865550615a66565b601f198416615a14866157fa565b60005b82811015615a3c57848901518255600182019150602085019450602081019050615a17565b86831015615a595784890151615a55601f891682615962565b8355505b6001600288020188555050505b505050505050565b7f5a65726f2066756e64696e670000000000000000000000000000000000000000600082015250565b6000615aa4600c8361495e565b9150615aaf82615a6e565b602082019050919050565b60006020820190508181036000830152615ad381615a97565b9050919050565b7f4c6f616e2066756c6c792066756e646564000000000000000000000000000000600082015250565b6000615b1060118361495e565b9150615b1b82615ada565b602082019050919050565b60006020820190508181036000830152615b3f81615b03565b9050919050565b7f45524332303a2064656372656173656420616c6c6f77616e63652062656c6f7760008201527f207a65726f000000000000000000000000000000000000000000000000000000602082015250565b6000615ba260258361495e565b9150615bad82615b46565b604082019050919050565b60006020820190508181036000830152615bd181615b95565b9050919050565b7f5265706179206d757374206265203e2030000000000000000000000000000000600082015250565b6000615c0e60118361495e565b9150615c1982615bd8565b602082019050919050565b60006020820190508181036000830152615c3d81615c01565b9050919050565b7f43616e6e6f7420756e66756e64206d6f7265207468616e20756e647261776e00600082015250565b6000615c7a601f8361495e565b9150615c8582615c44565b602082019050919050565b60006020820190508181036000830152615ca981615c6d565b9050919050565b6000604082019050615cc56000830185614b6d565b615cd26020830184614ab9565b9392505050565b7f45524332303a20617070726f76652066726f6d20746865207a65726f2061646460008201527f7265737300000000000000000000000000000000000000000000000000000000602082015250565b6000615d3560248361495e565b9150615d4082615cd9565b604082019050919050565b60006020820190508181036000830152615d6481615d28565b9050919050565b7f45524332303a20617070726f766520746f20746865207a65726f20616464726560008201527f7373000000000000000000000000000000000000000000000000000000000000602082015250565b6000615dc760228361495e565b9150615dd282615d6b565b604082019050919050565b60006020820190508181036000830152615df681615dba565b9050919050565b7f45524332303a206275726e2066726f6d20746865207a65726f2061646472657360008201527f7300000000000000000000000000000000000000000000000000000000000000602082015250565b6000615e5960218361495e565b9150615e6482615dfd565b604082019050919050565b60006020820190508181036000830152615e8881615e4c565b9050919050565b7f45524332303a206275726e20616d6f756e7420657863656564732062616c616e60008201527f6365000000000000000000000000000000000000000000000000000000000000602082015250565b6000615eeb60228361495e565b9150615ef682615e8f565b604082019050919050565b60006020820190508181036000830152615f1a81615ede565b9050919050565b7f45524332303a20696e73756666696369656e7420616c6c6f77616e6365000000600082015250565b6000615f57601d8361495e565b9150615f6282615f21565b602082019050919050565b60006020820190508181036000830152615f8681615f4a565b9050919050565b7f45524332303a207472616e736665722066726f6d20746865207a65726f20616460008201527f6472657373000000000000000000000000000000000000000000000000000000602082015250565b6000615fe960258361495e565b9150615ff482615f8d565b604082019050919050565b6000602082019050818103600083015261601881615fdc565b9050919050565b7f45524332303a207472616e7366657220746f20746865207a65726f206164647260008201527f6573730000000000000000000000000000000000000000000000000000000000602082015250565b600061607b60238361495e565b91506160868261601f565b604082019050919050565b600060208201905081810360008301526160aa8161606e565b9050919050565b7f45524332303a207472616e7366657220616d6f756e742065786365656473206260008201527f616c616e63650000000000000000000000000000000000000000000000000000602082015250565b600061610d60268361495e565b9150616118826160b1565b604082019050919050565b6000602082019050818103600083015261613c81616100565b9050919050565b60006060820190506161586000830186614b6d565b6161656020830185614b6d565b6161726040830184614ab9565b949350505050565b7f45524332303a206d696e7420746f20746865207a65726f206164647265737300600082015250565b60006161b0601f8361495e565b91506161bb8261617a565b602082019050919050565b600060208201905081810360008301526161df816161a3565b9050919050565b6000815190506161f581614ccc565b92915050565b6000602082840312156162115761621061484c565b5b600061621f848285016161e6565b91505092915050565b7f5361666545524332303a204552433230206f7065726174696f6e20646964206e60008201527f6f74207375636365656400000000000000000000000000000000000000000000602082015250565b6000616284602a8361495e565b915061628f82616228565b604082019050919050565b600060208201905081810360008301526162b381616277565b9050919050565b7f416464726573733a20696e73756666696369656e742062616c616e636520666f60008201527f722063616c6c0000000000000000000000000000000000000000000000000000602082015250565b600061631660268361495e565b9150616321826162ba565b604082019050919050565b6000602082019050818103600083015261634581616309565b9050919050565b7f416464726573733a2063616c6c20746f206e6f6e2d636f6e7472616374000000600082015250565b6000616382601d8361495e565b915061638d8261634c565b602082019050919050565b600060208201905081810360008301526163b181616375565b9050919050565b600081519050919050565b600081905092915050565b60006163d9826163b8565b6163e381856163c3565b93506163f381856020860161496f565b80840191505092915050565b600061640b82846163ce565b91508190509291505056fea26469706673582212201de9e53ac56cf4fcec41f43ef9126ccad7607fa98f79551b702363d71f93ccb864736f6c63430008180033",
  "linkReferences": {},
  "deployedLinkReferences": {}
}