{
  "_format": "hh-sol-artifact-1",
  "contractName": "SpotIOULoan",
  "sourceName": "contracts/IOU.sol",
  "abi": [
    {
      "inputs": [],
      "stateMutability": "nonpayable",
      "type": "constructor"
    },
    {
      "anonymous": false,
      "inputs": [
        {
          "indexed": true,
          "internalType": "address",
          "name": "owner",
          "type": "address"
        },
        {
          "indexed": true,
          "internalType": "address",
          "name": "spender",
          "type": "address"
        },
        {
          "indexed": false,
          "internalType": "uint256",
          "name": "value",
          "type": "uint256"
        }
      ],
      "name": "Approval",
      "type": "event"
    },
    {
      "anonymous": false,
      "inputs": [
        {
          "indexed": true,
          "internalType": "address",
          "name": "from",
          "type": "address"
        },
        {
          "indexed": true,
          "internalType": "address",
          "name": "to",
          "type": "address"
        },
        {
          "indexed": false,
          "internalType": "uint256",
          "name": "value",
          "type": "uint256"
        }
      ],
      "name": "Transfer",
      "type": "event"
    },
    {
      "inputs": [],
      "name": "IOUMint",
      "outputs": [
        {
          "internalType": "address",
          "name": "",
          "type": "address"
        }
      ],
      "stateMutability": "view",
      "type": "function"
    },
    {
      "inputs": [],
      "name": "_totalPrincipalRepaid",
      "outputs": [
        {
          "internalType": "uint256",
          "name": "",
          "type": "uint256"
        }
      ],
      "stateMutability": "view",
      "type": "function"
    },
    {
      "inputs": [],
      "name": "_totalRepayments",
      "outputs": [
        {
          "internalType": "uint256",
          "name": "",
          "type": "uint256"
        }
      ],
      "stateMutability": "view",
      "type": "function"
    },
    {
      "inputs": [],
      "name": "accruedInterest",
      "outputs": [
        {
          "internalType": "uint256",
          "name": "",
          "type": "uint256"
        }
      ],
      "stateMutability": "view",
      "type": "function"
    },
    {
      "inputs": [
        {
          "internalType": "address",
          "name": "owner",
          "type": "address"
        },
        {
          "internalType": "address",
          "name": "spender",
          "type": "address"
        }
      ],
      "name": "allowance",
      "outputs": [
        {
          "internalType": "uint256",
          "name": "",
          "type": "uint256"
        }
      ],
      "stateMutability": "view",
      "type": "function"
    },
    {
      "inputs": [],
      "name": "annualInterestRate",
      "outputs": [
        {
          "internalType": "uint256",
          "name": "",
          "type": "uint256"
        }
      ],
      "stateMutability": "view",
      "type": "function"
    },
    {
      "inputs": [
        {
          "internalType": "address",
          "name": "spender",
          "type": "address"
        },
        {
          "internalType": "uint256",
          "name": "amount",
          "type": "uint256"
        }
      ],
      "name": "approve",
      "outputs": [
        {
          "internalType": "bool",
          "name": "",
          "type": "bool"
        }
      ],
      "stateMutability": "nonpayable",
      "type": "function"
    },
    {
      "inputs": [
        {
          "internalType": "address",
          "name": "account",
          "type": "address"
        }
      ],
      "name": "balanceOf",
      "outputs": [
        {
          "internalType": "uint256",
          "name": "",
          "type": "uint256"
        }
      ],
      "stateMutability": "view",
      "type": "function"
    },
    {
      "inputs": [],
      "name": "borrower",
      "outputs": [
        {
          "internalType": "address",
          "name": "",
          "type": "address"
        }
      ],
      "stateMutability": "view",
      "type": "function"
    },
    {
      "inputs": [
        {
          "internalType": "address",
          "name": "user",
          "type": "address"
        }
      ],
      "name": "claimInterest",
      "outputs": [],
      "stateMutability": "nonpayable",
      "type": "function"
    },
    {
      "inputs": [],
      "name": "dec",
      "outputs": [
        {
          "internalType": "uint256",
          "name": "",
          "type": "uint256"
        }
      ],
      "stateMutability": "view",
      "type": "function"
    },
    {
      "inputs": [],
      "name": "decimals",
      "outputs": [
        {
          "internalType": "uint8",
          "name": "",
          "type": "uint8"
        }
      ],
      "stateMutability": "view",
      "type": "function"
    },
    {
      "inputs": [
        {
          "internalType": "address",
          "name": "spender",
          "type": "address"
        },
        {
          "internalType": "uint256",
          "name": "subtractedValue",
          "type": "uint256"
        }
      ],
      "name": "decreaseAllowance",
      "outputs": [
        {
          "internalType": "bool",
          "name": "",
          "type": "bool"
        }
      ],
      "stateMutability": "nonpayable",
      "type": "function"
    },
    {
      "inputs": [
        {
          "internalType": "uint256",
          "name": "amount",
          "type": "uint256"
        }
      ],
      "name": "drawDown",
      "outputs": [],
      "stateMutability": "nonpayable",
      "type": "function"
    },
    {
      "inputs": [
        {
          "internalType": "uint256",
          "name": "amount",
          "type": "uint256"
        }
      ],
      "name": "drop",
      "outputs": [],
      "stateMutability": "nonpayable",
      "type": "function"
    },
    {
      "inputs": [],
      "name": "feeAddress",
      "outputs": [
        {
          "internalType": "address",
          "name": "",
          "type": "address"
        }
      ],
      "stateMutability": "view",
      "type": "function"
    },
    {
      "inputs": [],
      "name": "flexible",
      "outputs": [
        {
          "internalType": "bool",
          "name": "",
          "type": "bool"
        }
      ],
      "stateMutability": "view",
      "type": "function"
    },
    {
      "inputs": [
        {
          "internalType": "uint256",
          "name": "amount",
          "type": "uint256"
        }
      ],
      "name": "fundLoan",
      "outputs": [],
      "stateMutability": "nonpayable",
      "type": "function"
    },
    {
      "inputs": [
        {
          "internalType": "address",
          "name": "spender",
          "type": "address"
        },
        {
          "internalType": "uint256",
          "name": "addedValue",
          "type": "uint256"
        }
      ],
      "name": "increaseAllowance",
      "outputs": [
        {
          "internalType": "bool",
          "name": "",
          "type": "bool"
        }
      ],
      "stateMutability": "nonpayable",
      "type": "function"
    },
    {
      "inputs": [
        {
          "internalType": "address",
          "name": "user",
          "type": "address"
        }
      ],
      "name": "interestClaimable",
      "outputs": [
        {
          "internalType": "uint256",
          "name": "",
          "type": "uint256"
        }
      ],
      "stateMutability": "view",
      "type": "function"
    },
    {
      "inputs": [],
      "name": "interestrepayments",
      "outputs": [
        {
          "internalType": "uint256",
          "name": "",
          "type": "uint256"
        }
      ],
      "stateMutability": "view",
      "type": "function"
    },
    {
      "inputs": [],
      "name": "lastAccrualTimestamp",
      "outputs": [
        {
          "internalType": "uint256",
          "name": "",
          "type": "uint256"
        }
      ],
      "stateMutability": "view",
      "type": "function"
    },
    {
      "inputs": [
        {
          "internalType": "address",
          "name": "",
          "type": "address"
        }
      ],
      "name": "lastInterestIndex",
      "outputs": [
        {
          "internalType": "uint256",
          "name": "",
          "type": "uint256"
        }
      ],
      "stateMutability": "view",
      "type": "function"
    },
    {
      "inputs": [],
      "name": "loanGoal",
      "outputs": [
        {
          "internalType": "uint256",
          "name": "",
          "type": "uint256"
        }
      ],
      "stateMutability": "view",
      "type": "function"
    },
    {
      "inputs": [],
      "name": "loanToken",
      "outputs": [
        {
          "internalType": "contract IERC20",
          "name": "",
          "type": "address"
        }
      ],
      "stateMutability": "view",
      "type": "function"
    },
    {
      "inputs": [],
      "name": "name",
      "outputs": [
        {
          "internalType": "string",
          "name": "",
          "type": "string"
        }
      ],
      "stateMutability": "view",
      "type": "function"
    },
    {
      "inputs": [],
      "name": "platformFeeRate",
      "outputs": [
        {
          "internalType": "uint256",
          "name": "",
          "type": "uint256"
        }
      ],
      "stateMutability": "view",
      "type": "function"
    },
    {
      "inputs": [
        {
          "internalType": "uint256",
          "name": "iouAmount",
          "type": "uint256"
        }
      ],
      "name": "redeemIOUs",
      "outputs": [],
      "stateMutability": "nonpayable",
      "type": "function"
    },
    {
      "inputs": [
        {
          "internalType": "uint256",
          "name": "amount",
          "type": "uint256"
        }
      ],
      "name": "repayLoan",
      "outputs": [],
      "stateMutability": "nonpayable",
      "type": "function"
    },
    {
      "inputs": [],
      "name": "repayments",
      "outputs": [
        {
          "internalType": "uint256",
          "name": "",
          "type": "uint256"
        }
      ],
      "stateMutability": "view",
      "type": "function"
    },
    {
      "inputs": [
        {
          "internalType": "address",
          "name": "_loanToken",
          "type": "address"
        },
        {
          "internalType": "address",
          "name": "_borrower",
          "type": "address"
        },
        {
          "internalType": "uint256",
          "name": "_loanGoal",
          "type": "uint256"
        },
        {
          "internalType": "uint256",
          "name": "_annualInterestRate",
          "type": "uint256"
        },
        {
          "internalType": "uint256",
          "name": "_platformFeeRate",
          "type": "uint256"
        },
        {
          "internalType": "address",
          "name": "_feeAddress",
          "type": "address"
        },
        {
          "internalType": "string",
          "name": "name_",
          "type": "string"
        },
        {
          "internalType": "string",
          "name": "symbol_",
          "type": "string"
        },
        {
          "internalType": "address",
          "name": "_IOUMint",
          "type": "address"
        },
        {
          "internalType": "bool",
          "name": "_flexible",
          "type": "bool"
        }
      ],
      "name": "setup",
      "outputs": [],
      "stateMutability": "nonpayable",
      "type": "function"
    },
    {
      "inputs": [],
      "name": "symbol",
      "outputs": [
        {
          "internalType": "string",
          "name": "",
          "type": "string"
        }
      ],
      "stateMutability": "view",
      "type": "function"
    },
    {
      "inputs": [],
      "name": "totalDrawnDown",
      "outputs": [
        {
          "internalType": "uint256",
          "name": "",
          "type": "uint256"
        }
      ],
      "stateMutability": "view",
      "type": "function"
    },
    {
      "inputs": [],
      "name": "totalFunded",
      "outputs": [
        {
          "internalType": "uint256",
          "name": "",
          "type": "uint256"
        }
      ],
      "stateMutability": "view",
      "type": "function"
    },
    {
      "inputs": [],
      "name": "totalOwed",
      "outputs": [
        {
          "internalType": "uint256",
          "name": "",
          "type": "uint256"
        }
      ],
      "stateMutability": "view",
      "type": "function"
    },
    {
      "inputs": [],
      "name": "totalRedeemed",
      "outputs": [
        {
          "internalType": "uint256",
          "name": "",
          "type": "uint256"
        }
      ],
      "stateMutability": "view",
      "type": "function"
    },
    {
      "inputs": [],
      "name": "totalSupply",
      "outputs": [
        {
          "internalType": "uint256",
          "name": "",
          "type": "uint256"
        }
      ],
      "stateMutability": "view",
      "type": "function"
    },
    {
      "inputs": [
        {
          "internalType": "address",
          "name": "to",
          "type": "address"
        },
        {
          "internalType": "uint256",
          "name": "amount",
          "type": "uint256"
        }
      ],
      "name": "transfer",
      "outputs": [
        {
          "internalType": "bool",
          "name": "",
          "type": "bool"
        }
      ],
      "stateMutability": "nonpayable",
      "type": "function"
    },
    {
      "inputs": [
        {
          "internalType": "address",
          "name": "from",
          "type": "address"
        },
        {
          "internalType": "address",
          "name": "to",
          "type": "address"
        },
        {
          "internalType": "uint256",
          "name": "amount",
          "type": "uint256"
        }
      ],
      "name": "transferFrom",
      "outputs": [
        {
          "internalType": "bool",
          "name": "",
          "type": "bool"
        }
      ],
      "stateMutability": "nonpayable",
      "type": "function"
    },
    {
      "inputs": [
        {
          "internalType": "uint256",
          "name": "amount",
          "type": "uint256"
        }
      ],
      "name": "unfundLoan",
      "outputs": [],
      "stateMutability": "nonpayable",
      "type": "function"
    },
    {
      "inputs": [
        {
          "internalType": "uint256",
          "name": "newGoal",
          "type": "uint256"
        }
      ],
      "name": "updateGoal",
      "outputs": [],
      "stateMutability": "nonpayable",
      "type": "function"
    },
    {
      "inputs": [],
      "name": "viewAccruedInterest",
      "outputs": [
        {
          "internalType": "uint256",
          "name": "",
          "type": "uint256"
        }
      ],
      "stateMutability": "view",
      "type": "function"
    }
  ],
  "bytecode": "0x60806040523480156200001157600080fd5b506040518060400160405280600881526020017f53706f7420494f550000000000000000000000000000000000000000000000008152506040518060400160405280600381526020017f494f55000000000000000000000000000000000000000000000000000000000081525081600390816200008f919062000324565b508060049081620000a1919062000324565b5050506200040b565b600081519050919050565b7f4e487b7100000000000000000000000000000000000000000000000000000000600052604160045260246000fd5b7f4e487b7100000000000000000000000000000000000000000000000000000000600052602260045260246000fd5b600060028204905060018216806200012c57607f821691505b602082108103620001425762000141620000e4565b5b50919050565b60008190508160005260206000209050919050565b60006020601f8301049050919050565b600082821b905092915050565b600060088302620001ac7fffffffffffffffffffffffffffffffffffffffffffffffffffffffffffffffff826200016d565b620001b886836200016d565b95508019841693508086168417925050509392505050565b6000819050919050565b6000819050919050565b600062000205620001ff620001f984620001d0565b620001da565b620001d0565b9050919050565b6000819050919050565b6200022183620001e4565b6200023962000230826200020c565b8484546200017a565b825550505050565b600090565b6200025062000241565b6200025d81848462000216565b505050565b5b8181101562000285576200027960008262000246565b60018101905062000263565b5050565b601f821115620002d4576200029e8162000148565b620002a9846200015d565b81016020851015620002b9578190505b620002d1620002c8856200015d565b83018262000262565b50505b505050565b600082821c905092915050565b6000620002f960001984600802620002d9565b1980831691505092915050565b6000620003148383620002e6565b9150826002028217905092915050565b6200032f82620000aa565b67ffffffffffffffff8111156200034b576200034a620000b5565b5b62000357825462000113565b6200036482828562000289565b600060209050601f8311600181146200039c576000841562000387578287015190505b62000393858262000306565b86555062000403565b601f198416620003ac8662000148565b60005b82811015620003d657848901518255600182019150602085019450602081019050620003af565b86831015620003f65784890151620003f2601f891682620002e6565b8355505b6001600288020188555050505b505050505050565b614793806200041b6000396000f3fe608060405234801561001057600080fd5b506004361061025e5760003560e01c80637a6aa88c11610146578063ad044f49116100c3578063cd9f24aa11610087578063cd9f24aa14610719578063dd62ed3e14610737578063e7fa9f7d14610767578063eeca08f014610785578063f35dad40146107a3578063fe3699c6146107c15761025e565b8063ad044f4914610673578063b3bcfa8214610691578063b43dcb01146106af578063c0789dcb146106df578063ca01115e146106fd5761025e565b806395d89b411161010a57806395d89b41146105a9578063a457c2d7146105c7578063a9059cbb146105f7578063aa7aee0c14610627578063ab7b1c89146106575761025e565b80637a6aa88c146105175780637df1f1b9146105355780637e24cf9514610553578063846b909a1461057157806388d742c21461058d5761025e565b8063316fb7c4116101df57806345fe329f116101a357806345fe329f146104535780635cc3a9d914610471578063634fb7f51461048d57806367c79f81146104ab5780636f0a7f71146104c957806370a08231146104e75761025e565b8063316fb7c4146103af57806339509351146103cb5780633ce427d2146103fb5780634127535814610419578063415c65a0146104375761025e565b80631a9703da116102265780631a9703da14610309578063211d9a531461032757806323b872dd146103435780632786d8e514610373578063313ce567146103915761025e565b8063038f5ed61461026357806306d378171461027f57806306fdde031461029d578063095ea7b3146102bb57806318160ddd146102eb575b600080fd5b61027d60048036038101906102789190612bd3565b6107df565b005b6102876109b7565b6040516102949190612c7f565b60405180910390f35b6102a56109dd565b6040516102b29190612d2a565b60405180910390f35b6102d560048036038101906102d09190612d8a565b610a6f565b6040516102e29190612de5565b60405180910390f35b6102f3610a92565b6040516103009190612e0f565b60405180910390f35b610311610a9c565b60405161031e9190612e0f565b60405180910390f35b610341600480360381019061033c9190612bd3565b610aa2565b005b61035d60048036038101906103589190612e2a565b610b6e565b60405161036a9190612de5565b60405180910390f35b61037b610b9d565b6040516103889190612e0f565b60405180910390f35b610399610bb4565b6040516103a69190612e99565b60405180910390f35b6103c960048036038101906103c49190612bd3565b610bbd565b005b6103e560048036038101906103e09190612d8a565b610cbc565b6040516103f29190612de5565b60405180910390f35b610403610cf3565b6040516104109190612de5565b60405180910390f35b610421610d06565b60405161042e9190612ec3565b60405180910390f35b610451600480360381019061044c9190612bd3565b610d2c565b005b61045b610f3a565b6040516104689190612e0f565b60405180910390f35b61048b6004803603810190610486919061303f565b610f40565b005b61049561133f565b6040516104a29190612ec3565b60405180910390f35b6104b3611365565b6040516104c09190612e0f565b60405180910390f35b6104d161136b565b6040516104de9190612e0f565b60405180910390f35b61050160048036038101906104fc9190613156565b611371565b60405161050e9190612e0f565b60405180910390f35b61051f6113b9565b60405161052c9190612e0f565b60405180910390f35b61053d61145c565b60405161054a9190612ec3565b60405180910390f35b61055b611482565b6040516105689190612e0f565b60405180910390f35b61058b60048036038101906105869190612bd3565b611488565b005b6105a760048036038101906105a29190613156565b611661565b005b6105b161170f565b6040516105be9190612d2a565b60405180910390f35b6105e160048036038101906105dc9190612d8a565b6117a1565b6040516105ee9190612de5565b60405180910390f35b610611600480360381019061060c9190612d8a565b611818565b60405161061e9190612de5565b60405180910390f35b610641600480360381019061063c9190613156565b61183b565b60405161064e9190612e0f565b60405180910390f35b610671600480360381019061066c9190612bd3565b6118d4565b005b61067b611bb2565b6040516106889190612e0f565b60405180910390f35b610699611bb8565b6040516106a69190612e0f565b60405180910390f35b6106c960048036038101906106c49190613156565b611bbe565b6040516106d69190612e0f565b60405180910390f35b6106e7611bd6565b6040516106f49190612e0f565b60405180910390f35b61071760048036038101906107129190612bd3565b611bdc565b005b610721611d20565b60405161072e9190612e0f565b60405180910390f35b610751600480360381019061074c9190613183565b611d57565b60405161075e9190612e0f565b60405180910390f35b61076f611dde565b60405161077c9190612e0f565b60405180910390f35b61078d611e78565b60405161079a9190612e0f565b60405180910390f35b6107ab611e7e565b6040516107b89190612e0f565b60405180910390f35b6107c9611e84565b6040516107d69190612e0f565b60405180910390f35b600660009054906101000a900473ffffffffffffffffffffffffffffffffffffffff1673ffffffffffffffffffffffffffffffffffffffff163373ffffffffffffffffffffffffffffffffffffffff161461086f576040517f08c379a00000000000000000000000000000000000000000000000000000000081526004016108669061320f565b60405180910390fd5b6000600954600854610881919061325e565b9050600081116108c6576040517f08c379a00000000000000000000000000000000000000000000000000000000081526004016108bd906132de565b60405180910390fd5b60008083146108e3578183116108dc57826108de565b815b6108e5565b815b90506000811161092a576040517f08c379a00000000000000000000000000000000000000000000000000000000081526004016109219061334a565b60405180910390fd5b806009600082825461093c919061336a565b925050819055506109b2600660009054906101000a900473ffffffffffffffffffffffffffffffffffffffff1682600560009054906101000a900473ffffffffffffffffffffffffffffffffffffffff1673ffffffffffffffffffffffffffffffffffffffff16611e8a9092919063ffffffff16565b505050565b600560009054906101000a900473ffffffffffffffffffffffffffffffffffffffff1681565b6060601680546109ec906133cd565b80601f0160208091040260200160405190810160405280929190818152602001828054610a18906133cd565b8015610a655780601f10610a3a57610100808354040283529160200191610a65565b820191906000526020600020905b815481529060010190602001808311610a4857829003601f168201915b5050505050905090565b600080610a7a611f10565b9050610a87818585611f18565b600191505092915050565b6000600254905090565b600a5481565b60008111610ae5576040517f08c379a0000000000000000000000000000000000000000000000000000000008152600401610adc9061344a565b60405180910390fd5b6014546012610af4919061325e565b600a610b00919061359d565b81610b0b9190613617565b60096000828254610b1c919061325e565b925050819055506014546012610b32919061325e565b600a610b3e919061359d565b81610b499190613617565b60086000828254610b5a919061325e565b92505081905550610b6b33826120e1565b50565b600080610b79611f10565b9050610b868582856122b7565b610b91858585612343565b60019150509392505050565b6000601054600f54610baf919061336a565b905090565b60006012905090565b600660009054906101000a900473ffffffffffffffffffffffffffffffffffffffff1673ffffffffffffffffffffffffffffffffffffffff163373ffffffffffffffffffffffffffffffffffffffff1614610c4d576040517f08c379a0000000000000000000000000000000000000000000000000000000008152600401610c449061320f565b60405180910390fd5b601560009054906101000a900460ff16610cb25760006008541115610cb1576007548110610cb0576040517f08c379a0000000000000000000000000000000000000000000000000000000008152600401610ca7906136ba565b60405180910390fd5b5b5b8060078190555050565b600080610cc7611f10565b9050610ce8818585610cd98589611d57565b610ce3919061336a565b611f18565b600191505092915050565b601560009054906101000a900460ff1681565b600c60009054906101000a900473ffffffffffffffffffffffffffffffffffffffff1681565b60008111610d6f576040517f08c379a0000000000000000000000000000000000000000000000000000000008152600401610d6690613726565b60405180910390fd5b80610d7933611371565b1015610dba576040517f08c379a0000000000000000000000000000000000000000000000000000000008152600401610db190613792565b60405180910390fd5b6000601560009054906101000a900460ff1615610e0457610dff6014546012610de3919061325e565b600a610def919061359d565b83610dfa9190613617565b611bdc565b610f36565b6000600f54905060115481610e19919061325e565b915060008211610e5e576040517f08c379a0000000000000000000000000000000000000000000000000000000008152600401610e55906137fe565b60405180910390fd5b6000610e68610a92565b8385610e74919061381e565b610e7e9190613617565b905060008111610ec3576040517f08c379a0000000000000000000000000000000000000000000000000000000008152600401610eba906138ac565b60405180910390fd5b610ecd33856120e1565b610f1a3382600560009054906101000a900473ffffffffffffffffffffffffffffffffffffffff1673ffffffffffffffffffffffffffffffffffffffff16611e8a9092919063ffffffff16565b8060116000828254610f2c919061336a565b9250508190555050505b5050565b600e5481565b600073ffffffffffffffffffffffffffffffffffffffff16600560009054906101000a900473ffffffffffffffffffffffffffffffffffffffff1673ffffffffffffffffffffffffffffffffffffffff1614610fd1576040517f08c379a0000000000000000000000000000000000000000000000000000000008152600401610fc890613918565b60405180910390fd5b600073ffffffffffffffffffffffffffffffffffffffff168a73ffffffffffffffffffffffffffffffffffffffff1603611040576040517f08c379a000000000000000000000000000000000000000000000000000000000815260040161103790613984565b60405180910390fd5b600073ffffffffffffffffffffffffffffffffffffffff168973ffffffffffffffffffffffffffffffffffffffff16036110af576040517f08c379a00000000000000000000000000000000000000000000000000000000081526004016110a6906139f0565b60405180910390fd5b600088116110f2576040517f08c379a00000000000000000000000000000000000000000000000000000000081526004016110e990613a5c565b60405180910390fd5b600073ffffffffffffffffffffffffffffffffffffffff168573ffffffffffffffffffffffffffffffffffffffff1603611161576040517f08c379a000000000000000000000000000000000000000000000000000000000815260040161115890613ac8565b60405180910390fd5b88600660006101000a81548173ffffffffffffffffffffffffffffffffffffffff021916908373ffffffffffffffffffffffffffffffffffffffff1602179055508760078190555086600a8190555085600b8190555084600c60006101000a81548173ffffffffffffffffffffffffffffffffffffffff021916908373ffffffffffffffffffffffffffffffffffffffff16021790555081601360006101000a81548173ffffffffffffffffffffffffffffffffffffffff021916908373ffffffffffffffffffffffffffffffffffffffff16021790555042600d8190555089600560006101000a81548173ffffffffffffffffffffffffffffffffffffffff021916908373ffffffffffffffffffffffffffffffffffffffff1602179055508973ffffffffffffffffffffffffffffffffffffffff1663313ce5676040518163ffffffff1660e01b8152600401602060405180830381865afa1580156112cc573d6000803e3d6000fd5b505050506040513d601f19601f820116820180604052508101906112f09190613b14565b60ff1660148190555083601690816113089190613ce3565b5082601790816113189190613ce3565b5080601560006101000a81548160ff02191690831515021790555050505050505050505050565b601360009054906101000a900473ffffffffffffffffffffffffffffffffffffffff1681565b60105481565b60075481565b60008060008373ffffffffffffffffffffffffffffffffffffffff1673ffffffffffffffffffffffffffffffffffffffff168152602001908152602001600020549050919050565b600080600d54426113ca919061325e565b9050600081036113df57600e54915050611459565b6000601560009054906101000a900460ff1615611400576009549050611418565b611408611d20565b600954611415919061325e565b90505b600064496cebb80083600a548461142f919061381e565b611439919061381e565b6114439190613617565b905080600e54611453919061336a565b93505050505b90565b600660009054906101000a900473ffffffffffffffffffffffffffffffffffffffff1681565b600f5481565b600081116114cb576040517f08c379a00000000000000000000000000000000000000000000000000000000081526004016114c290613e01565b60405180910390fd5b60075460085410611511576040517f08c379a000000000000000000000000000000000000000000000000000000000815260040161150890613e6d565b60405180910390fd5b6000600854600754611523919061325e565b905060008183116115345782611536565b815b9050611587333083600560009054906101000a900473ffffffffffffffffffffffffffffffffffffffff1673ffffffffffffffffffffffffffffffffffffffff166125c2909392919063ffffffff16565b6115b633601454601261159a919061325e565b600a6115a6919061359d565b836115b1919061381e565b61264b565b80600860008282546115c8919061336a565b92505081905550601360009054906101000a900473ffffffffffffffffffffffffffffffffffffffff1673ffffffffffffffffffffffffffffffffffffffff1663893cfe13336040518263ffffffff1660e01b815260040161162a9190612ec3565b600060405180830381600087803b15801561164457600080fd5b505af1158015611658573d6000803e3d6000fd5b50505050505050565b600061166c8261183b565b905060008111156116c5576116c48282600560009054906101000a900473ffffffffffffffffffffffffffffffffffffffff1673ffffffffffffffffffffffffffffffffffffffff16611e8a9092919063ffffffff16565b5b601054601260008473ffffffffffffffffffffffffffffffffffffffff1673ffffffffffffffffffffffffffffffffffffffff168152602001908152602001600020819055505050565b60606017805461171e906133cd565b80601f016020809104026020016040519081016040528092919081815260200182805461174a906133cd565b80156117975780601f1061176c57610100808354040283529160200191611797565b820191906000526020600020905b81548152906001019060200180831161177a57829003601f168201915b5050505050905090565b6000806117ac611f10565b905060006117ba8286611d57565b9050838110156117ff576040517f08c379a00000000000000000000000000000000000000000000000000000000081526004016117f690613eff565b60405180910390fd5b61180c8286868403611f18565b60019250505092915050565b600080611823611f10565b9050611830818585612343565b600191505092915050565b600080611846610a92565b90506000810361185a5760009150506118cf565b60008161186685611371565b601260008773ffffffffffffffffffffffffffffffffffffffff1673ffffffffffffffffffffffffffffffffffffffff168152602001908152602001600020546010546118b3919061325e565b6118bd919061381e565b6118c79190613617565b905080925050505b919050565b60008111611917576040517f08c379a000000000000000000000000000000000000000000000000000000000815260040161190e90613f6b565b60405180910390fd5b600080600b54111561194157612710600b5483611934919061381e565b61193e9190613617565b90505b6119496127aa565b611998333084600560009054906101000a900473ffffffffffffffffffffffffffffffffffffffff1673ffffffffffffffffffffffffffffffffffffffff166125c2909392919063ffffffff16565b6000811115611a1157611a10600c60009054906101000a900473ffffffffffffffffffffffffffffffffffffffff1682600560009054906101000a900473ffffffffffffffffffffffffffffffffffffffff1673ffffffffffffffffffffffffffffffffffffffff16611e8a9092919063ffffffff16565b5b60008183611a1f919061325e565b90506000806000600e541115611a5e57600e548311611a3e5782611a42565b600e545b915081600e6000828254611a56919061325e565b925050819055505b81831115611b15578183611a72919061325e565b9050601560009054906101000a900460ff1615611ad4576000600954905080821115611a9c578091505b81600f6000828254611aae919061336a565b925050819055508160096000828254611ac7919061325e565b9250508190555050611b14565b6000611ade611d20565b600954611aeb919061325e565b905080821115611af9578091505b81600f6000828254611b0b919061336a565b92505081905550505b5b6000818386611b24919061336a565b611b2e919061336a565b905080861115611b9157611b90338288611b48919061325e565b600560009054906101000a900473ffffffffffffffffffffffffffffffffffffffff1673ffffffffffffffffffffffffffffffffffffffff16611e8a9092919063ffffffff16565b5b8260106000828254611ba3919061336a565b92505081905550505050505050565b60085481565b60145481565b60126020528060005260406000206000915090505481565b600d5481565b60008111611c1f576040517f08c379a0000000000000000000000000000000000000000000000000000000008152600401611c169061344a565b60405180910390fd5b611c276127aa565b611c3033611661565b6000600954600854611c42919061325e565b905081811015611c87576040517f08c379a0000000000000000000000000000000000000000000000000000000008152600401611c7e90613fd7565b60405180910390fd5b611cb6336014546012611c9a919061325e565b600a611ca6919061359d565b84611cb1919061381e565b6120e1565b8160086000828254611cc8919061325e565b92505081905550611d1c3383600560009054906101000a900473ffffffffffffffffffffffffffffffffffffffff1673ffffffffffffffffffffffffffffffffffffffff16611e8a9092919063ffffffff16565b5050565b6000601560009054906101000a900460ff1615611d4e57600954600854611d47919061325e565b9050611d54565b600f5490505b90565b6000600160008473ffffffffffffffffffffffffffffffffffffffff1673ffffffffffffffffffffffffffffffffffffffff16815260200190815260200160002060008373ffffffffffffffffffffffffffffffffffffffff1673ffffffffffffffffffffffffffffffffffffffff16815260200190815260200160002054905092915050565b600080600d5442611def919061325e565b90506000601560009054906101000a900460ff1615611e12576009549050611e2a565b611e1a611d20565b600954611e27919061325e565b90505b600064496cebb80083600a5484611e41919061381e565b611e4b919061381e565b611e559190613617565b905080600e5483611e66919061336a565b611e70919061336a565b935050505090565b600b5481565b60115481565b60095481565b611f0b8363a9059cbb60e01b8484604051602401611ea9929190613ff7565b604051602081830303815290604052907bffffffffffffffffffffffffffffffffffffffffffffffffffffffff19166020820180517bffffffffffffffffffffffffffffffffffffffffffffffffffffffff8381831617835250505050612876565b505050565b600033905090565b600073ffffffffffffffffffffffffffffffffffffffff168373ffffffffffffffffffffffffffffffffffffffff1603611f87576040517f08c379a0000000000000000000000000000000000000000000000000000000008152600401611f7e90614092565b60405180910390fd5b600073ffffffffffffffffffffffffffffffffffffffff168273ffffffffffffffffffffffffffffffffffffffff1603611ff6576040517f08c379a0000000000000000000000000000000000000000000000000000000008152600401611fed90614124565b60405180910390fd5b80600160008573ffffffffffffffffffffffffffffffffffffffff1673ffffffffffffffffffffffffffffffffffffffff16815260200190815260200160002060008473ffffffffffffffffffffffffffffffffffffffff1673ffffffffffffffffffffffffffffffffffffffff168152602001908152602001600020819055508173ffffffffffffffffffffffffffffffffffffffff168373ffffffffffffffffffffffffffffffffffffffff167f8c5be1e5ebec7d5bd14f71427d1e84f3dd0314c0f7b2291e5b200ac8c7c3b925836040516120d49190612e0f565b60405180910390a3505050565b600073ffffffffffffffffffffffffffffffffffffffff168273ffffffffffffffffffffffffffffffffffffffff1603612150576040517f08c379a0000000000000000000000000000000000000000000000000000000008152600401612147906141b6565b60405180910390fd5b61215c8260008361293d565b60008060008473ffffffffffffffffffffffffffffffffffffffff1673ffffffffffffffffffffffffffffffffffffffff168152602001908152602001600020549050818110156121e2576040517f08c379a00000000000000000000000000000000000000000000000000000000081526004016121d990614248565b60405180910390fd5b8181036000808573ffffffffffffffffffffffffffffffffffffffff1673ffffffffffffffffffffffffffffffffffffffff168152602001908152602001600020819055508160026000828254612239919061325e565b92505081905550600073ffffffffffffffffffffffffffffffffffffffff168373ffffffffffffffffffffffffffffffffffffffff167fddf252ad1be2c89b69c2b068fc378daa952ba7f163c4a11628f55a4df523b3ef8460405161229e9190612e0f565b60405180910390a36122b2836000846129c9565b505050565b60006122c38484611d57565b90507fffffffffffffffffffffffffffffffffffffffffffffffffffffffffffffffff811461233d578181101561232f576040517f08c379a0000000000000000000000000000000000000000000000000000000008152600401612326906142b4565b60405180910390fd5b61233c8484848403611f18565b5b50505050565b600073ffffffffffffffffffffffffffffffffffffffff168373ffffffffffffffffffffffffffffffffffffffff16036123b2576040517f08c379a00000000000000000000000000000000000000000000000000000000081526004016123a990614346565b60405180910390fd5b600073ffffffffffffffffffffffffffffffffffffffff168273ffffffffffffffffffffffffffffffffffffffff1603612421576040517f08c379a0000000000000000000000000000000000000000000000000000000008152600401612418906143d8565b60405180910390fd5b61242c83838361293d565b60008060008573ffffffffffffffffffffffffffffffffffffffff1673ffffffffffffffffffffffffffffffffffffffff168152602001908152602001600020549050818110156124b2576040517f08c379a00000000000000000000000000000000000000000000000000000000081526004016124a99061446a565b60405180910390fd5b8181036000808673ffffffffffffffffffffffffffffffffffffffff1673ffffffffffffffffffffffffffffffffffffffff16815260200190815260200160002081905550816000808573ffffffffffffffffffffffffffffffffffffffff1673ffffffffffffffffffffffffffffffffffffffff1681526020019081526020016000206000828254612545919061336a565b925050819055508273ffffffffffffffffffffffffffffffffffffffff168473ffffffffffffffffffffffffffffffffffffffff167fddf252ad1be2c89b69c2b068fc378daa952ba7f163c4a11628f55a4df523b3ef846040516125a99190612e0f565b60405180910390a36125bc8484846129c9565b50505050565b612645846323b872dd60e01b8585856040516024016125e39392919061448a565b604051602081830303815290604052907bffffffffffffffffffffffffffffffffffffffffffffffffffffffff19166020820180517bffffffffffffffffffffffffffffffffffffffffffffffffffffffff8381831617835250505050612876565b50505050565b600073ffffffffffffffffffffffffffffffffffffffff168273ffffffffffffffffffffffffffffffffffffffff16036126ba576040517f08c379a00000000000000000000000000000000000000000000000000000000081526004016126b19061450d565b60405180910390fd5b6126c66000838361293d565b80600260008282546126d8919061336a565b92505081905550806000808473ffffffffffffffffffffffffffffffffffffffff1673ffffffffffffffffffffffffffffffffffffffff168152602001908152602001600020600082825461272d919061336a565b925050819055508173ffffffffffffffffffffffffffffffffffffffff16600073ffffffffffffffffffffffffffffffffffffffff167fddf252ad1be2c89b69c2b068fc378daa952ba7f163c4a11628f55a4df523b3ef836040516127929190612e0f565b60405180910390a36127a6600083836129c9565b5050565b600d54421115612874576000600d54426127c4919061325e565b9050600081036127d45750612874565b6000601560009054906101000a900460ff16156127f557600954905061280d565b6127fd611d20565b60095461280a919061325e565b90505b600081036128235742600d819055505050612874565b600064496cebb80083600a548461283a919061381e565b612844919061381e565b61284e9190613617565b905080600e6000828254612862919061336a565b9250508190555042600d819055505050505b565b60006128d8826040518060400160405280602081526020017f5361666545524332303a206c6f772d6c6576656c2063616c6c206661696c65648152508573ffffffffffffffffffffffffffffffffffffffff166129ce9092919063ffffffff16565b905060008151111561293857808060200190518101906128f89190614542565b612937576040517f08c379a000000000000000000000000000000000000000000000000000000000815260040161292e906145e1565b60405180910390fd5b5b505050565b600073ffffffffffffffffffffffffffffffffffffffff168373ffffffffffffffffffffffffffffffffffffffff161461297b5761297a83611661565b5b600073ffffffffffffffffffffffffffffffffffffffff168273ffffffffffffffffffffffffffffffffffffffff16146129b9576129b882611661565b5b6129c48383836129e6565b505050565b505050565b60606129dd84846000856129eb565b90509392505050565b505050565b606082471015612a30576040517f08c379a0000000000000000000000000000000000000000000000000000000008152600401612a2790614673565b60405180910390fd5b612a3985612aff565b612a78576040517f08c379a0000000000000000000000000000000000000000000000000000000008152600401612a6f906146df565b60405180910390fd5b6000808673ffffffffffffffffffffffffffffffffffffffff168587604051612aa19190614746565b60006040518083038185875af1925050503d8060008114612ade576040519150601f19603f3d011682016040523d82523d6000602084013e612ae3565b606091505b5091509150612af3828286612b22565b92505050949350505050565b6000808273ffffffffffffffffffffffffffffffffffffffff163b119050919050565b60608315612b3257829050612b82565b600083511115612b455782518084602001fd5b816040517f08c379a0000000000000000000000000000000000000000000000000000000008152600401612b799190612d2a565b60405180910390fd5b9392505050565b6000604051905090565b600080fd5b600080fd5b6000819050919050565b612bb081612b9d565b8114612bbb57600080fd5b50565b600081359050612bcd81612ba7565b92915050565b600060208284031215612be957612be8612b93565b5b6000612bf784828501612bbe565b91505092915050565b600073ffffffffffffffffffffffffffffffffffffffff82169050919050565b6000819050919050565b6000612c45612c40612c3b84612c00565b612c20565b612c00565b9050919050565b6000612c5782612c2a565b9050919050565b6000612c6982612c4c565b9050919050565b612c7981612c5e565b82525050565b6000602082019050612c946000830184612c70565b92915050565b600081519050919050565b600082825260208201905092915050565b60005b83811015612cd4578082015181840152602081019050612cb9565b60008484015250505050565b6000601f19601f8301169050919050565b6000612cfc82612c9a565b612d068185612ca5565b9350612d16818560208601612cb6565b612d1f81612ce0565b840191505092915050565b60006020820190508181036000830152612d448184612cf1565b905092915050565b6000612d5782612c00565b9050919050565b612d6781612d4c565b8114612d7257600080fd5b50565b600081359050612d8481612d5e565b92915050565b60008060408385031215612da157612da0612b93565b5b6000612daf85828601612d75565b9250506020612dc085828601612bbe565b9150509250929050565b60008115159050919050565b612ddf81612dca565b82525050565b6000602082019050612dfa6000830184612dd6565b92915050565b612e0981612b9d565b82525050565b6000602082019050612e246000830184612e00565b92915050565b600080600060608486031215612e4357612e42612b93565b5b6000612e5186828701612d75565b9350506020612e6286828701612d75565b9250506040612e7386828701612bbe565b9150509250925092565b600060ff82169050919050565b612e9381612e7d565b82525050565b6000602082019050612eae6000830184612e8a565b92915050565b612ebd81612d4c565b82525050565b6000602082019050612ed86000830184612eb4565b92915050565b600080fd5b600080fd5b7f4e487b7100000000000000000000000000000000000000000000000000000000600052604160045260246000fd5b612f2082612ce0565b810181811067ffffffffffffffff82111715612f3f57612f3e612ee8565b5b80604052505050565b6000612f52612b89565b9050612f5e8282612f17565b919050565b600067ffffffffffffffff821115612f7e57612f7d612ee8565b5b612f8782612ce0565b9050602081019050919050565b82818337600083830152505050565b6000612fb6612fb184612f63565b612f48565b905082815260208101848484011115612fd257612fd1612ee3565b5b612fdd848285612f94565b509392505050565b600082601f830112612ffa57612ff9612ede565b5b813561300a848260208601612fa3565b91505092915050565b61301c81612dca565b811461302757600080fd5b50565b60008135905061303981613013565b92915050565b6000806000806000806000806000806101408b8d03121561306357613062612b93565b5b60006130718d828e01612d75565b9a505060206130828d828e01612d75565b99505060406130938d828e01612bbe565b98505060606130a48d828e01612bbe565b97505060806130b58d828e01612bbe565b96505060a06130c68d828e01612d75565b95505060c08b013567ffffffffffffffff8111156130e7576130e6612b98565b5b6130f38d828e01612fe5565b94505060e08b013567ffffffffffffffff81111561311457613113612b98565b5b6131208d828e01612fe5565b9350506101006131328d828e01612d75565b9250506101206131448d828e0161302a565b9150509295989b9194979a5092959850565b60006020828403121561316c5761316b612b93565b5b600061317a84828501612d75565b91505092915050565b6000806040838503121561319a57613199612b93565b5b60006131a885828601612d75565b92505060206131b985828601612d75565b9150509250929050565b7f4e6f7420626f72726f7765720000000000000000000000000000000000000000600082015250565b60006131f9600c83612ca5565b9150613204826131c3565b602082019050919050565b60006020820190508181036000830152613228816131ec565b9050919050565b7f4e487b7100000000000000000000000000000000000000000000000000000000600052601160045260246000fd5b600061326982612b9d565b915061327483612b9d565b925082820390508181111561328c5761328b61322f565b5b92915050565b7f4e6f20617661696c61626c652066756e64730000000000000000000000000000600082015250565b60006132c8601283612ca5565b91506132d382613292565b602082019050919050565b600060208201905081810360008301526132f7816132bb565b9050919050565b7f44726177206d757374206265203e203000000000000000000000000000000000600082015250565b6000613334601083612ca5565b915061333f826132fe565b602082019050919050565b6000602082019050818103600083015261336381613327565b9050919050565b600061337582612b9d565b915061338083612b9d565b92508282019050808211156133985761339761322f565b5b92915050565b7f4e487b7100000000000000000000000000000000000000000000000000000000600052602260045260246000fd5b600060028204905060018216806133e557607f821691505b6020821081036133f8576133f761339e565b5b50919050565b7f5a65726f20756e66756e64000000000000000000000000000000000000000000600082015250565b6000613434600b83612ca5565b915061343f826133fe565b602082019050919050565b6000602082019050818103600083015261346381613427565b9050919050565b60008160011c9050919050565b6000808291508390505b60018511156134c15780860481111561349d5761349c61322f565b5b60018516156134ac5780820291505b80810290506134ba8561346a565b9450613481565b94509492505050565b6000826134da5760019050613596565b816134e85760009050613596565b81600181146134fe576002811461350857613537565b6001915050613596565b60ff84111561351a5761351961322f565b5b8360020a9150848211156135315761353061322f565b5b50613596565b5060208310610133831016604e8410600b841016171561356c5782820a9050838111156135675761356661322f565b5b613596565b6135798484846001613477565b925090508184048111156135905761358f61322f565b5b81810290505b9392505050565b60006135a882612b9d565b91506135b383612b9d565b92506135e07fffffffffffffffffffffffffffffffffffffffffffffffffffffffffffffffff84846134ca565b905092915050565b7f4e487b7100000000000000000000000000000000000000000000000000000000600052601260045260246000fd5b600061362282612b9d565b915061362d83612b9d565b92508261363d5761363c6135e8565b5b828204905092915050565b7f43616e6e6f7420696e63726561736520676f616c2061667465722066756e646960008201527f6e67000000000000000000000000000000000000000000000000000000000000602082015250565b60006136a4602283612ca5565b91506136af82613648565b604082019050919050565b600060208201905081810360008301526136d381613697565b9050919050565b7f5a65726f2072656465656d000000000000000000000000000000000000000000600082015250565b6000613710600b83612ca5565b915061371b826136da565b602082019050919050565b6000602082019050818103600083015261373f81613703565b9050919050565b7f496e73756666696369656e7420494f5573000000000000000000000000000000600082015250565b600061377c601183612ca5565b915061378782613746565b602082019050919050565b600060208201905081810360008301526137ab8161376f565b9050919050565b7f4e6f207072696e636970616c20746f2072656465656d00000000000000000000600082015250565b60006137e8601683612ca5565b91506137f3826137b2565b602082019050919050565b60006020820190508181036000830152613817816137db565b9050919050565b600061382982612b9d565b915061383483612b9d565b925082820261384281612b9d565b915082820484148315176138595761385861322f565b5b5092915050565b7f436c61696d61626c652069732030000000000000000000000000000000000000600082015250565b6000613896600e83612ca5565b91506138a182613860565b602082019050919050565b600060208201905081810360008301526138c581613889565b9050919050565b7f416c726561647920736574757000000000000000000000000000000000000000600082015250565b6000613902600d83612ca5565b915061390d826138cc565b602082019050919050565b60006020820190508181036000830152613931816138f5565b9050919050565b7f5a65726f206c6f616e546f6b656e000000000000000000000000000000000000600082015250565b600061396e600e83612ca5565b915061397982613938565b602082019050919050565b6000602082019050818103600083015261399d81613961565b9050919050565b7f5a65726f20626f72726f77657200000000000000000000000000000000000000600082015250565b60006139da600d83612ca5565b91506139e5826139a4565b602082019050919050565b60006020820190508181036000830152613a09816139cd565b9050919050565b7f4c6f616e20676f616c206d757374206265203e20300000000000000000000000600082015250565b6000613a46601583612ca5565b9150613a5182613a10565b602082019050919050565b60006020820190508181036000830152613a7581613a39565b9050919050565b7f5a65726f20666565206164647265737300000000000000000000000000000000600082015250565b6000613ab2601083612ca5565b9150613abd82613a7c565b602082019050919050565b60006020820190508181036000830152613ae181613aa5565b9050919050565b613af181612e7d565b8114613afc57600080fd5b50565b600081519050613b0e81613ae8565b92915050565b600060208284031215613b2a57613b29612b93565b5b6000613b3884828501613aff565b91505092915050565b60008190508160005260206000209050919050565b60006020601f8301049050919050565b600082821b905092915050565b600060088302613ba37fffffffffffffffffffffffffffffffffffffffffffffffffffffffffffffffff82613b66565b613bad8683613b66565b95508019841693508086168417925050509392505050565b6000613be0613bdb613bd684612b9d565b612c20565b612b9d565b9050919050565b6000819050919050565b613bfa83613bc5565b613c0e613c0682613be7565b848454613b73565b825550505050565b600090565b613c23613c16565b613c2e818484613bf1565b505050565b5b81811015613c5257613c47600082613c1b565b600181019050613c34565b5050565b601f821115613c9757613c6881613b41565b613c7184613b56565b81016020851015613c80578190505b613c94613c8c85613b56565b830182613c33565b50505b505050565b600082821c905092915050565b6000613cba60001984600802613c9c565b1980831691505092915050565b6000613cd38383613ca9565b9150826002028217905092915050565b613cec82612c9a565b67ffffffffffffffff811115613d0557613d04612ee8565b5b613d0f82546133cd565b613d1a828285613c56565b600060209050601f831160018114613d4d5760008415613d3b578287015190505b613d458582613cc7565b865550613dad565b601f198416613d5b86613b41565b60005b82811015613d8357848901518255600182019150602085019450602081019050613d5e565b86831015613da05784890151613d9c601f891682613ca9565b8355505b6001600288020188555050505b505050505050565b7f5a65726f2066756e64696e670000000000000000000000000000000000000000600082015250565b6000613deb600c83612ca5565b9150613df682613db5565b602082019050919050565b60006020820190508181036000830152613e1a81613dde565b9050919050565b7f4c6f616e2066756c6c792066756e646564000000000000000000000000000000600082015250565b6000613e57601183612ca5565b9150613e6282613e21565b602082019050919050565b60006020820190508181036000830152613e8681613e4a565b9050919050565b7f45524332303a2064656372656173656420616c6c6f77616e63652062656c6f7760008201527f207a65726f000000000000000000000000000000000000000000000000000000602082015250565b6000613ee9602583612ca5565b9150613ef482613e8d565b604082019050919050565b60006020820190508181036000830152613f1881613edc565b9050919050565b7f5265706179206d757374206265203e2030000000000000000000000000000000600082015250565b6000613f55601183612ca5565b9150613f6082613f1f565b602082019050919050565b60006020820190508181036000830152613f8481613f48565b9050919050565b7f43616e6e6f7420756e66756e64206d6f7265207468616e20756e647261776e00600082015250565b6000613fc1601f83612ca5565b9150613fcc82613f8b565b602082019050919050565b60006020820190508181036000830152613ff081613fb4565b9050919050565b600060408201905061400c6000830185612eb4565b6140196020830184612e00565b9392505050565b7f45524332303a20617070726f76652066726f6d20746865207a65726f2061646460008201527f7265737300000000000000000000000000000000000000000000000000000000602082015250565b600061407c602483612ca5565b915061408782614020565b604082019050919050565b600060208201905081810360008301526140ab8161406f565b9050919050565b7f45524332303a20617070726f766520746f20746865207a65726f20616464726560008201527f7373000000000000000000000000000000000000000000000000000000000000602082015250565b600061410e602283612ca5565b9150614119826140b2565b604082019050919050565b6000602082019050818103600083015261413d81614101565b9050919050565b7f45524332303a206275726e2066726f6d20746865207a65726f2061646472657360008201527f7300000000000000000000000000000000000000000000000000000000000000602082015250565b60006141a0602183612ca5565b91506141ab82614144565b604082019050919050565b600060208201905081810360008301526141cf81614193565b9050919050565b7f45524332303a206275726e20616d6f756e7420657863656564732062616c616e60008201527f6365000000000000000000000000000000000000000000000000000000000000602082015250565b6000614232602283612ca5565b915061423d826141d6565b604082019050919050565b6000602082019050818103600083015261426181614225565b9050919050565b7f45524332303a20696e73756666696369656e7420616c6c6f77616e6365000000600082015250565b600061429e601d83612ca5565b91506142a982614268565b602082019050919050565b600060208201905081810360008301526142cd81614291565b9050919050565b7f45524332303a207472616e736665722066726f6d20746865207a65726f20616460008201527f6472657373000000000000000000000000000000000000000000000000000000602082015250565b6000614330602583612ca5565b915061433b826142d4565b604082019050919050565b6000602082019050818103600083015261435f81614323565b9050919050565b7f45524332303a207472616e7366657220746f20746865207a65726f206164647260008201527f6573730000000000000000000000000000000000000000000000000000000000602082015250565b60006143c2602383612ca5565b91506143cd82614366565b604082019050919050565b600060208201905081810360008301526143f1816143b5565b9050919050565b7f45524332303a207472616e7366657220616d6f756e742065786365656473206260008201527f616c616e63650000000000000000000000000000000000000000000000000000602082015250565b6000614454602683612ca5565b915061445f826143f8565b604082019050919050565b6000602082019050818103600083015261448381614447565b9050919050565b600060608201905061449f6000830186612eb4565b6144ac6020830185612eb4565b6144b96040830184612e00565b949350505050565b7f45524332303a206d696e7420746f20746865207a65726f206164647265737300600082015250565b60006144f7601f83612ca5565b9150614502826144c1565b602082019050919050565b60006020820190508181036000830152614526816144ea565b9050919050565b60008151905061453c81613013565b92915050565b60006020828403121561455857614557612b93565b5b60006145668482850161452d565b91505092915050565b7f5361666545524332303a204552433230206f7065726174696f6e20646964206e60008201527f6f74207375636365656400000000000000000000000000000000000000000000602082015250565b60006145cb602a83612ca5565b91506145d68261456f565b604082019050919050565b600060208201905081810360008301526145fa816145be565b9050919050565b7f416464726573733a20696e73756666696369656e742062616c616e636520666f60008201527f722063616c6c0000000000000000000000000000000000000000000000000000602082015250565b600061465d602683612ca5565b915061466882614601565b604082019050919050565b6000602082019050818103600083015261468c81614650565b9050919050565b7f416464726573733a2063616c6c20746f206e6f6e2d636f6e7472616374000000600082015250565b60006146c9601d83612ca5565b91506146d482614693565b602082019050919050565b600060208201905081810360008301526146f8816146bc565b9050919050565b600081519050919050565b600081905092915050565b6000614720826146ff565b61472a818561470a565b935061473a818560208601612cb6565b80840191505092915050565b60006147528284614715565b91508190509291505056fea264697066735822122052bf99b74db3bf8d8d1b7f99f9276eb62dba8866e83915af66300a3ecf3957b664736f6c63430008180033",
  "linkReferences": {},
  "deployedLinkReferences": {}
}