{
  "_format": "hh-sol-artifact-1",
  "contractName": "Spot",
  "sourceName": "contracts/Spot.sol",
  "abi": [
    {
      "inputs": [
        {
          "internalType": "address payable",
          "name": "feeAddrs",
          "type": "address"
        }
      ],
      "stateMutability": "nonpayable",
      "type": "constructor"
    },
    {
      "inputs": [],
      "name": "AmountIsZero",
      "type": "error"
    },
    {
      "inputs": [],
      "name": "FeeAddressIsZero",
      "type": "error"
    },
    {
      "inputs": [],
      "name": "FriendZero",
      "type": "error"
    },
    {
      "inputs": [],
      "name": "LenderZero",
      "type": "error"
    },
    {
      "inputs": [],
      "name": "NotEnoughAllowableAmount",
      "type": "error"
    },
    {
      "inputs": [],
      "name": "NotFeeAddress",
      "type": "error"
    },
    {
      "inputs": [],
      "name": "NotFriend",
      "type": "error"
    },
    {
      "inputs": [],
      "name": "TokenNotZero",
      "type": "error"
    },
    {
      "anonymous": false,
      "inputs": [
        {
          "indexed": true,
          "internalType": "address",
          "name": "lender",
          "type": "address"
        },
        {
          "indexed": true,
          "internalType": "address",
          "name": "token",
          "type": "address"
        },
        {
          "indexed": true,
          "internalType": "address",
          "name": "friend",
          "type": "address"
        },
        {
          "indexed": false,
          "internalType": "uint256",
          "name": "amount",
          "type": "uint256"
        }
      ],
      "name": "BorrowAllowed",
      "type": "event"
    },
    {
      "anonymous": false,
      "inputs": [
        {
          "indexed": true,
          "internalType": "address",
          "name": "token",
          "type": "address"
        },
        {
          "indexed": true,
          "internalType": "address",
          "name": "lender",
          "type": "address"
        },
        {
          "indexed": true,
          "internalType": "address",
          "name": "borrower",
          "type": "address"
        },
        {
          "indexed": false,
          "internalType": "uint256",
          "name": "amount",
          "type": "uint256"
        }
      ],
      "name": "Borrowed",
      "type": "event"
    },
    {
      "anonymous": false,
      "inputs": [
        {
          "indexed": false,
          "internalType": "uint256",
          "name": "oldFee",
          "type": "uint256"
        },
        {
          "indexed": false,
          "internalType": "uint256",
          "name": "newFee",
          "type": "uint256"
        }
      ],
      "name": "NewFee",
      "type": "event"
    },
    {
      "anonymous": false,
      "inputs": [
        {
          "indexed": true,
          "internalType": "address",
          "name": "oldFeeAddress",
          "type": "address"
        },
        {
          "indexed": true,
          "internalType": "address",
          "name": "newFeeAddress",
          "type": "address"
        }
      ],
      "name": "NewFeeAddress",
      "type": "event"
    },
    {
      "anonymous": false,
      "inputs": [
        {
          "indexed": true,
          "internalType": "address",
          "name": "token",
          "type": "address"
        },
        {
          "indexed": true,
          "internalType": "address",
          "name": "lender",
          "type": "address"
        },
        {
          "indexed": true,
          "internalType": "address",
          "name": "borrower",
          "type": "address"
        },
        {
          "indexed": false,
          "internalType": "uint256",
          "name": "amount",
          "type": "uint256"
        }
      ],
      "name": "Repaid",
      "type": "event"
    },
    {
      "inputs": [
        {
          "internalType": "address",
          "name": "token",
          "type": "address"
        },
        {
          "internalType": "address",
          "name": "friend",
          "type": "address"
        },
        {
          "internalType": "uint256",
          "name": "amount",
          "type": "uint256"
        }
      ],
      "name": "allowBorrow",
      "outputs": [],
      "stateMutability": "nonpayable",
      "type": "function"
    },
    {
      "inputs": [
        {
          "internalType": "address",
          "name": "token",
          "type": "address"
        },
        {
          "internalType": "address",
          "name": "lender",
          "type": "address"
        },
        {
          "internalType": "uint256",
          "name": "amount",
          "type": "uint256"
        }
      ],
      "name": "borrow",
      "outputs": [],
      "stateMutability": "nonpayable",
      "type": "function"
    },
    {
      "inputs": [
        {
          "internalType": "bytes32",
          "name": "",
          "type": "bytes32"
        }
      ],
      "name": "borrowDetails",
      "outputs": [
        {
          "internalType": "address",
          "name": "lender",
          "type": "address"
        },
        {
          "internalType": "address",
          "name": "friend",
          "type": "address"
        },
        {
          "internalType": "address",
          "name": "token",
          "type": "address"
        },
        {
          "internalType": "uint256",
          "name": "totalBorrowed",
          "type": "uint256"
        },
        {
          "internalType": "uint256",
          "name": "outstanding",
          "type": "uint256"
        },
        {
          "internalType": "uint256",
          "name": "allowable",
          "type": "uint256"
        }
      ],
      "stateMutability": "view",
      "type": "function"
    },
    {
      "inputs": [
        {
          "internalType": "address",
          "name": "",
          "type": "address"
        },
        {
          "internalType": "uint256",
          "name": "",
          "type": "uint256"
        }
      ],
      "name": "borrowDetailsByFriend",
      "outputs": [
        {
          "internalType": "bytes32",
          "name": "",
          "type": "bytes32"
        }
      ],
      "stateMutability": "view",
      "type": "function"
    },
    {
      "inputs": [
        {
          "internalType": "address",
          "name": "",
          "type": "address"
        },
        {
          "internalType": "uint256",
          "name": "",
          "type": "uint256"
        }
      ],
      "name": "borrowDetailsByLender",
      "outputs": [
        {
          "internalType": "bytes32",
          "name": "",
          "type": "bytes32"
        }
      ],
      "stateMutability": "view",
      "type": "function"
    },
    {
      "inputs": [
        {
          "internalType": "address",
          "name": "lender",
          "type": "address"
        },
        {
          "internalType": "address",
          "name": "token",
          "type": "address"
        },
        {
          "internalType": "address",
          "name": "friend",
          "type": "address"
        }
      ],
      "name": "computeHash",
      "outputs": [
        {
          "internalType": "bytes32",
          "name": "",
          "type": "bytes32"
        }
      ],
      "stateMutability": "pure",
      "type": "function"
    },
    {
      "inputs": [],
      "name": "fee",
      "outputs": [
        {
          "internalType": "uint256",
          "name": "",
          "type": "uint256"
        }
      ],
      "stateMutability": "view",
      "type": "function"
    },
    {
      "inputs": [],
      "name": "feeAddress",
      "outputs": [
        {
          "internalType": "address payable",
          "name": "",
          "type": "address"
        }
      ],
      "stateMutability": "view",
      "type": "function"
    },
    {
      "inputs": [
        {
          "internalType": "address",
          "name": "token",
          "type": "address"
        },
        {
          "internalType": "address",
          "name": "lender",
          "type": "address"
        },
        {
          "internalType": "uint256",
          "name": "amount",
          "type": "uint256"
        }
      ],
      "name": "repay",
      "outputs": [],
      "stateMutability": "nonpayable",
      "type": "function"
    },
    {
      "inputs": [
        {
          "internalType": "uint256",
          "name": "newFee",
          "type": "uint256"
        }
      ],
      "name": "setFee",
      "outputs": [],
      "stateMutability": "nonpayable",
      "type": "function"
    },
    {
      "inputs": [
        {
          "internalType": "address",
          "name": "newFeeAddress",
          "type": "address"
        }
      ],
      "name": "setFeeAddress",
      "outputs": [],
      "stateMutability": "nonpayable",
      "type": "function"
    },
    {
      "inputs": [
        {
          "internalType": "address",
          "name": "friend",
          "type": "address"
        }
      ],
      "name": "viewFriendAllowances",
      "outputs": [
        {
          "internalType": "bytes32[]",
          "name": "",
          "type": "bytes32[]"
        }
      ],
      "stateMutability": "view",
      "type": "function"
    },
    {
      "inputs": [
        {
          "internalType": "address",
          "name": "lender",
          "type": "address"
        }
      ],
      "name": "viewLenderAllowances",
      "outputs": [
        {
          "internalType": "bytes32[]",
          "name": "",
          "type": "bytes32[]"
        }
      ],
      "stateMutability": "view",
      "type": "function"
    }
  ],
  "bytecode": "0x60806040523480156200001157600080fd5b5060405162002c6838038062002c68833981810160405281019062000037919062000124565b62000053672f58e898690c039860c01b620000b760201b60201c565b6200006f6707f45fd499e06c1060c01b620000b760201b60201c565b80600360006101000a81548173ffffffffffffffffffffffffffffffffffffffff021916908373ffffffffffffffffffffffffffffffffffffffff1602179055505062000156565b50565b600080fd5b600073ffffffffffffffffffffffffffffffffffffffff82169050919050565b6000620000ec82620000bf565b9050919050565b620000fe81620000df565b81146200010a57600080fd5b50565b6000815190506200011e81620000f3565b92915050565b6000602082840312156200013d576200013c620000ba565b5b60006200014d848285016200010d565b91505092915050565b612b0280620001666000396000f3fe608060405234801561001057600080fd5b50600436106100cf5760003560e01c80635224372c1161008c5780638705fcd4116100665780638705fcd41461023b578063c3f8730114610257578063d97c4b5f14610287578063ddca3f43146102a3576100cf565b80635224372c146101d357806369fe0e2d146101ef578063743a29bd1461020b576100cf565b8063110fbd5d146100d45780631da649cf14610104578063223c828b14610120578063382dff91146101505780633e4e08761461018057806341275358146101b5575b600080fd5b6100ee60048036038101906100e991906121f0565b6102c1565b6040516100fb91906122e5565b60405180910390f35b61011e6004803603810190610119919061233d565b610394565b005b61013a60048036038101906101359190612390565b610bcd565b60405161014791906123df565b60405180910390f35b61016a600480360381019061016591906121f0565b610bfe565b60405161017791906122e5565b60405180910390f35b61019a60048036038101906101959190612426565b610cd1565b6040516101ac96959493929190612471565b60405180910390f35b6101bd610d6d565b6040516101ca91906124f3565b60405180910390f35b6101ed60048036038101906101e8919061233d565b610d93565b005b6102096004803603810190610204919061250e565b6112c2565b005b6102256004803603810190610220919061253b565b6114b7565b60405161023291906123df565b60405180910390f35b610255600480360381019061025091906121f0565b611529565b005b610271600480360381019061026c9190612390565b61181c565b60405161027e91906123df565b60405180910390f35b6102a1600480360381019061029c919061233d565b61184d565b005b6102ab611e6c565b6040516102b8919061258e565b60405180910390f35b60606102d7679ff590428a85a81360c01b611e72565b6102eb67c359c8ffc3b5560060c01b611e72565b6102ff672bcec38052d9250f60c01b611e72565b600260008373ffffffffffffffffffffffffffffffffffffffff1673ffffffffffffffffffffffffffffffffffffffff16815260200190815260200160002080548060200260200160405190810160405280929190818152602001828054801561038857602002820191906000526020600020905b815481526020019060010190808311610374575b50505050509050919050565b6103a867ee69778da817c8eb60c01b611e72565b6103bc6737c9b4a89e1bd29360c01b611e72565b6103d067e60e3422a720a4d460c01b611e72565b600073ffffffffffffffffffffffffffffffffffffffff168373ffffffffffffffffffffffffffffffffffffffff160361045e57610418671fb3b5e9531fca2d60c01b611e72565b61042c67f60a853f738ceab760c01b611e72565b6040517f2a90944900000000000000000000000000000000000000000000000000000000815260040160405180910390fd5b610472673c943a5186e2a9eb60c01b611e72565b61048667a4f1202b90f18b1760c01b611e72565b61049a6737c4fb4e7993babc60c01b611e72565b600073ffffffffffffffffffffffffffffffffffffffff168273ffffffffffffffffffffffffffffffffffffffff1603610528576104e2673fa45e2f17a6e45660c01b611e72565b6104f667db6ddbd45f1ad56f60c01b611e72565b6040517f6e8e4a0a00000000000000000000000000000000000000000000000000000000815260040160405180910390fd5b61053c67d7994a5e00b2379860c01b611e72565b61055067af8c791b38e54e7060c01b611e72565b61056467fb13512c9285674b60c01b611e72565b600081036105c55761057f6650da939a770ca860c01b611e72565b61059367f177428d7f9c276d60c01b611e72565b6040517f43ad20fc00000000000000000000000000000000000000000000000000000000815260040160405180910390fd5b6105d967412ba25b04c25db360c01b611e72565b6105ed677d27d4edb821cf5060c01b611e72565b610601679be3d76e277aa5fc60c01b611e72565b600061060e8385336114b7565b905061062467ca1ab6fad3493cba60c01b611e72565b61063867c78c012de356e8f860c01b611e72565b60006004540361078e5761065667c4696e17d4a7de4060c01b611e72565b61066a6752018d7a85e0285260c01b611e72565b61067e675812e18e8bbdf4c760c01b611e72565b8160008083815260200190815260200160002060040154116106df576106ae67bfd465308ef9eb3e60c01b611e72565b6106c267ca5ffbf5bb9ca29560c01b611e72565b6000808281526020019081526020016000206004015491506106f4565b6106f367bf7f27825623190160c01b611e72565b5b61070867ec70334420efec6e60c01b611e72565b61071c67ed7ad11bfe89d38760c01b611e72565b6107493384848773ffffffffffffffffffffffffffffffffffffffff16611e75909392919063ffffffff16565b61075d6762885b5c9d1fd12a60c01b611e72565b81600080838152602001908152602001600020600401600082825461078291906125d8565b92505081905550610b23565b6107a166081d0a43a5e1f260c01b611e72565b6107b567653aef47d8ecd1aa60c01b611e72565b6107c967df68ca2d80c3b64860c01b611e72565b816103e8600454600080858152602001908152602001600020600401546107f0919061260c565b6107fa919061267d565b6000808481526020019081526020016000206004015461081a91906126ae565b1161099d57610833674f0d0cc6a2d0e99860c01b611e72565b6108476785d4940a7d3acdd160c01b611e72565b61085b679c771621db23c70060c01b611e72565b61089d3384600080858152602001908152602001600020600401548773ffffffffffffffffffffffffffffffffffffffff16611e75909392919063ffffffff16565b6108b1670d4307036dfbe0a460c01b611e72565b6108c567bab624f3f3f9c8ca60c01b611e72565b61094333600360009054906101000a900473ffffffffffffffffffffffffffffffffffffffff166103e860045460008087815260200190815260200160002060040154610912919061260c565b61091c919061267d565b8773ffffffffffffffffffffffffffffffffffffffff16611e75909392919063ffffffff16565b61095767ab9117c0acdeb76b60c01b611e72565b60008082815260200190815260200160002060040154600080838152602001908152602001600020600401600082825461099191906125d8565b92505081905550610b22565b6109b167a53d26e533ccd0bb60c01b611e72565b6109c567a6e7803b7b5266b260c01b611e72565b6109d967b2a1f5752812c27560c01b611e72565b610a2b33846103e8600454866109ef919061260c565b6109f9919061267d565b85610a0491906125d8565b8773ffffffffffffffffffffffffffffffffffffffff16611e75909392919063ffffffff16565b610a3f6796209aa4cecd697960c01b611e72565b610a5367db4e4db58a817f5560c01b611e72565b610abc33600360009054906101000a900473ffffffffffffffffffffffffffffffffffffffff166103e860045486610a8b919061260c565b610a95919061267d565b8773ffffffffffffffffffffffffffffffffffffffff16611e75909392919063ffffffff16565b610ad067c42b8d09ecfeb68160c01b611e72565b6103e860045483610ae1919061260c565b610aeb919061267d565b82610af691906125d8565b6000808381526020019081526020016000206004016000828254610b1a91906125d8565b925050819055505b5b610b3767835f7c8f4a16a36860c01b611e72565b610b4b67d888cf583e5cf0b160c01b611e72565b3373ffffffffffffffffffffffffffffffffffffffff168373ffffffffffffffffffffffffffffffffffffffff168573ffffffffffffffffffffffffffffffffffffffff167f861660e9b7ead7183d53fe928b5638c7b57a7bcf16a89d7fdb04db65ce3ad6d585604051610bbf919061258e565b60405180910390a450505050565b60016020528160005260406000208181548110610be957600080fd5b90600052602060002001600091509150505481565b6060610c14673e0a247ea183730360c01b611e72565b610c2867bd1f64d5850beb7860c01b611e72565b610c3c67d3ab378cc2f61f7660c01b611e72565b600160008373ffffffffffffffffffffffffffffffffffffffff1673ffffffffffffffffffffffffffffffffffffffff168152602001908152602001600020805480602002602001604051908101604052809291908181526020018280548015610cc557602002820191906000526020600020905b815481526020019060010190808311610cb1575b50505050509050919050565b60006020528060005260406000206000915090508060000160009054906101000a900473ffffffffffffffffffffffffffffffffffffffff16908060010160009054906101000a900473ffffffffffffffffffffffffffffffffffffffff16908060020160009054906101000a900473ffffffffffffffffffffffffffffffffffffffff16908060030154908060040154908060050154905086565b600360009054906101000a900473ffffffffffffffffffffffffffffffffffffffff1681565b610da76788a31f9051bcec7e60c01b611e72565b610dbb677bb488c67e5ac92560c01b611e72565b610dcf679121180689a99a6660c01b611e72565b600073ffffffffffffffffffffffffffffffffffffffff168373ffffffffffffffffffffffffffffffffffffffff1603610e5d57610e176784870318db561faf60c01b611e72565b610e2b67612edac1202768ba60c01b611e72565b6040517f2a90944900000000000000000000000000000000000000000000000000000000815260040160405180910390fd5b610e716730004fcebfcad6c960c01b611e72565b610e8567a7e8a3032c8db16660c01b611e72565b610e9967847db66579daf1bd60c01b611e72565b600073ffffffffffffffffffffffffffffffffffffffff168273ffffffffffffffffffffffffffffffffffffffff1603610f2757610ee16701bcd6334e1130c760c01b611e72565b610ef567671a53fd883daca260c01b611e72565b6040517f6e8e4a0a00000000000000000000000000000000000000000000000000000000815260040160405180910390fd5b610f3b67f109a1f08a3236b660c01b611e72565b610f4f67a76fa10726c4e21660c01b611e72565b610f63671f6c49ebdea482ce60c01b611e72565b6000610f708385336114b7565b9050610f8667f212bfe275d8980f60c01b611e72565b610f9a67a3535f5347c2077860c01b611e72565b816000808381526020019081526020016000206004015460008084815260200190815260200160002060050154610fd191906125d8565b101561103157610feb67eb12a99576a2f7ba60c01b611e72565b610fff67c584773b05ebe41b60c01b611e72565b6040517f42cac7d400000000000000000000000000000000000000000000000000000000815260040160405180910390fd5b61104567cc14ca4cba18a61960c01b611e72565b61105967b700b5ef438f220860c01b611e72565b61106d67e8b99db32586831960c01b611e72565b3373ffffffffffffffffffffffffffffffffffffffff1660008083815260200190815260200160002060010160009054906101000a900473ffffffffffffffffffffffffffffffffffffffff1673ffffffffffffffffffffffffffffffffffffffff161461112f576110e967e6dc3fc31cb72ee060c01b611e72565b6110fd6704c72b2e428beb6660c01b611e72565b6040517f38d85a7d00000000000000000000000000000000000000000000000000000000815260040160405180910390fd5b61114367530f326f3b1168ab60c01b611e72565b61115767d0afef0a37f406a760c01b611e72565b81600080838152602001908152602001600020600301600082825461117c91906126ae565b9250508190555061119767aa4e4a647be7666360c01b611e72565b8160008083815260200190815260200160002060040160008282546111bc91906126ae565b925050819055506111d76761eb45d941e9219f60c01b611e72565b6111eb67c32c2caff757a43460c01b611e72565b6112188333848773ffffffffffffffffffffffffffffffffffffffff16611e75909392919063ffffffff16565b61122c672b23f2cc05feda2160c01b611e72565b61124067314960fcff78fe0460c01b611e72565b3373ffffffffffffffffffffffffffffffffffffffff168373ffffffffffffffffffffffffffffffffffffffff168573ffffffffffffffffffffffffffffffffffffffff167f9c9260125f1a087d9e46ee3dc78f1a4af18c5e00714012d9a35250d49391c4fe856040516112b4919061258e565b60405180910390a450505050565b6112d66717b020578749ca3560c01b611e72565b6112ea670aa8ec53487238a760c01b611e72565b6112fe677787b9c2139998f760c01b611e72565b600360009054906101000a900473ffffffffffffffffffffffffffffffffffffffff1673ffffffffffffffffffffffffffffffffffffffff163373ffffffffffffffffffffffffffffffffffffffff16146113ad57611367673df135f0330cc52560c01b611e72565b61137b675712843226c5984260c01b611e72565b6040517fa6be9ee800000000000000000000000000000000000000000000000000000000815260040160405180910390fd5b6113c16774b429b8263b1f9d60c01b611e72565b6113d567363e94cc7223f2d860c01b611e72565b6113e967ea13caffc8cc870160c01b611e72565b6000600454905061140467c3d0a85374000a2160c01b611e72565b6032821115806114245750611423679a230d1251282bbd60c01b611efe565b5b8015611440575061143f6715d82db9657c828760c01b611f05565b5b61144b57603261144d565b815b6004819055506114676780098488a70f7d4260c01b611e72565b61147a662a611a2a71861060c01b611e72565b7fbe12859b636aed607d5230b2cc2711f68d70e51060e6cca1f575ef5d2fcc95d181836040516114ab9291906126e2565b60405180910390a15050565b60006114cd677e7bf01dd082ffdc60c01b611e72565b6114e1674d83a36578d6da7f60c01b611e72565b6114f56701140811af83bc0460c01b611e72565b83838360405160200161150a93929190612753565b6040516020818303038152906040528051906020012090509392505050565b61153d676562bde233bd832560c01b611e72565b61155167b3b7e8e9aeacc0a160c01b611e72565b61156567083a3fa60fb15db160c01b611e72565b600360009054906101000a900473ffffffffffffffffffffffffffffffffffffffff1673ffffffffffffffffffffffffffffffffffffffff163373ffffffffffffffffffffffffffffffffffffffff1614611614576115ce67cdcf377f449dce6a60c01b611e72565b6115e2676b03c81d7341733e60c01b611e72565b6040517fa6be9ee800000000000000000000000000000000000000000000000000000000815260040160405180910390fd5b611628673609f3185d7be4a260c01b611e72565b61163c67d39dd4a76652253960c01b611e72565b61165067c97b889c5ff8df3c60c01b611e72565b600073ffffffffffffffffffffffffffffffffffffffff168173ffffffffffffffffffffffffffffffffffffffff16036116de57611698670ccafbf7ce0240bd60c01b611e72565b6116ac67486c56c43603a43b60c01b611e72565b6040517f9f9ef88e00000000000000000000000000000000000000000000000000000000815260040160405180910390fd5b6116f2677b6b9061d5f06e6660c01b611e72565b61170667e7a2a7e6c219e07860c01b611e72565b61171a676398f4702cc8c14f60c01b611e72565b6000600360009054906101000a900473ffffffffffffffffffffffffffffffffffffffff169050611755676ef78dd48231398060c01b611e72565b81600360006101000a81548173ffffffffffffffffffffffffffffffffffffffff021916908373ffffffffffffffffffffffffffffffffffffffff1602179055506117aa67cf053b70b34c1d2260c01b611e72565b6117be67c48a77c93f39305d60c01b611e72565b8173ffffffffffffffffffffffffffffffffffffffff168173ffffffffffffffffffffffffffffffffffffffff167f5b3e7979ee413f5f083621fd7b80786689964383e38958cf6272951c89f3a2dd60405160405180910390a35050565b6002602052816000526040600020818154811061183857600080fd5b90600052602060002001600091509150505481565b611861676eb3d90f6c05835e60c01b611e72565b611875670b3ac71b26acf16460c01b611e72565b61188967b7ac6626ee4e0aa960c01b611e72565b600073ffffffffffffffffffffffffffffffffffffffff168373ffffffffffffffffffffffffffffffffffffffff1603611917576118d167021132670ee3337160c01b611e72565b6118e5677b21c935111f0e1760c01b611e72565b6040517f2a90944900000000000000000000000000000000000000000000000000000000815260040160405180910390fd5b61192b67b8bc8650bc9b1b4760c01b611e72565b61193f6701dc3e4875edcd3d60c01b611e72565b61195367dc6cd707c970011d60c01b611e72565b600073ffffffffffffffffffffffffffffffffffffffff168273ffffffffffffffffffffffffffffffffffffffff16036119e15761199b67ee0d4010d25a325460c01b611e72565b6119af6769b0ef7d847ccc2860c01b611e72565b6040517f63e3230600000000000000000000000000000000000000000000000000000000815260040160405180910390fd5b6119f567d5afc4445be7d10760c01b611e72565b611a096767202708645d1d3060c01b611e72565b611a1d67ba532f02b9e2537060c01b611e72565b6000611a2a3385856114b7565b9050611a406780f69ea2afcc5b0c60c01b611e72565b611a5467e0644410b1a66f3f60c01b611e72565b600073ffffffffffffffffffffffffffffffffffffffff1660008083815260200190815260200160002060000160009054906101000a900473ffffffffffffffffffffffffffffffffffffffff1673ffffffffffffffffffffffffffffffffffffffff1603611d7f57611ad167fb01abf9873d711960c01b611e72565b611ae5678bbc8b0706f2cd1060c01b611e72565b6040518060c001604052803373ffffffffffffffffffffffffffffffffffffffff1681526020018473ffffffffffffffffffffffffffffffffffffffff1681526020018573ffffffffffffffffffffffffffffffffffffffff16815260200160008152602001600081526020018381525060008083815260200190815260200160002060008201518160000160006101000a81548173ffffffffffffffffffffffffffffffffffffffff021916908373ffffffffffffffffffffffffffffffffffffffff16021790555060208201518160010160006101000a81548173ffffffffffffffffffffffffffffffffffffffff021916908373ffffffffffffffffffffffffffffffffffffffff16021790555060408201518160020160006101000a81548173ffffffffffffffffffffffffffffffffffffffff021916908373ffffffffffffffffffffffffffffffffffffffff160217905550606082015181600301556080820151816004015560a08201518160050155905050611c72676ddafab7626d2d8160c01b611e72565b611c8667b1cc52e941963ffc60c01b611e72565b600160003373ffffffffffffffffffffffffffffffffffffffff1673ffffffffffffffffffffffffffffffffffffffff168152602001908152602001600020819080600181540180825580915050600190039060005260206000200160009091909190915055611d0067b2afd9ad0d22766260c01b611e72565b611d1467726200e25618200a60c01b611e72565b600260008473ffffffffffffffffffffffffffffffffffffffff1673ffffffffffffffffffffffffffffffffffffffff168152602001908152602001600020819080600181540180825580915050600190039060005260206000200160009091909190915055611dc2565b611d9367234b2c463800fff260c01b611e72565b611da7675d478d9878b96e5b60c01b611e72565b81600080838152602001908152602001600020600501819055505b611dd6675e12d1e86e5096fa60c01b611e72565b611dea670a61ce0e9173cb4e60c01b611e72565b8273ffffffffffffffffffffffffffffffffffffffff168473ffffffffffffffffffffffffffffffffffffffff163373ffffffffffffffffffffffffffffffffffffffff167fb610df2b7253bc83331eda5575add89051a9d24db1ab0ad610b2a636788bb9bd85604051611e5e919061258e565b60405180910390a450505050565b60045481565b50565b611ef8846323b872dd60e01b858585604051602401611e9693929190612790565b604051602081830303815290604052907bffffffffffffffffffffffffffffffffffffffffffffffffffffffff19166020820180517bffffffffffffffffffffffffffffffffffffffffffffffffffffffff8381831617835250505050611f10565b50505050565b6000919050565b600060019050919050565b6000611f72826040518060400160405280602081526020017f5361666545524332303a206c6f772d6c6576656c2063616c6c206661696c65648152508573ffffffffffffffffffffffffffffffffffffffff16611fd79092919063ffffffff16565b9050600081511115611fd25780806020019051810190611f9291906127ff565b611fd1576040517f08c379a0000000000000000000000000000000000000000000000000000000008152600401611fc8906128af565b60405180910390fd5b5b505050565b6060611fe68484600085611fef565b90509392505050565b606082471015612034576040517f08c379a000000000000000000000000000000000000000000000000000000000815260040161202b90612941565b60405180910390fd5b61203d85612103565b61207c576040517f08c379a0000000000000000000000000000000000000000000000000000000008152600401612073906129ad565b60405180910390fd5b6000808673ffffffffffffffffffffffffffffffffffffffff1685876040516120a59190612a3e565b60006040518083038185875af1925050503d80600081146120e2576040519150601f19603f3d011682016040523d82523d6000602084013e6120e7565b606091505b50915091506120f7828286612126565b92505050949350505050565b6000808273ffffffffffffffffffffffffffffffffffffffff163b119050919050565b6060831561213657829050612186565b6000835111156121495782518084602001fd5b816040517f08c379a000000000000000000000000000000000000000000000000000000000815260040161217d9190612aaa565b60405180910390fd5b9392505050565b600080fd5b600073ffffffffffffffffffffffffffffffffffffffff82169050919050565b60006121bd82612192565b9050919050565b6121cd816121b2565b81146121d857600080fd5b50565b6000813590506121ea816121c4565b92915050565b6000602082840312156122065761220561218d565b5b6000612214848285016121db565b91505092915050565b600081519050919050565b600082825260208201905092915050565b6000819050602082019050919050565b6000819050919050565b61225c81612249565b82525050565b600061226e8383612253565b60208301905092915050565b6000602082019050919050565b60006122928261221d565b61229c8185612228565b93506122a783612239565b8060005b838110156122d85781516122bf8882612262565b97506122ca8361227a565b9250506001810190506122ab565b5085935050505092915050565b600060208201905081810360008301526122ff8184612287565b905092915050565b6000819050919050565b61231a81612307565b811461232557600080fd5b50565b60008135905061233781612311565b92915050565b6000806000606084860312156123565761235561218d565b5b6000612364868287016121db565b9350506020612375868287016121db565b925050604061238686828701612328565b9150509250925092565b600080604083850312156123a7576123a661218d565b5b60006123b5858286016121db565b92505060206123c685828601612328565b9150509250929050565b6123d981612249565b82525050565b60006020820190506123f460008301846123d0565b92915050565b61240381612249565b811461240e57600080fd5b50565b600081359050612420816123fa565b92915050565b60006020828403121561243c5761243b61218d565b5b600061244a84828501612411565b91505092915050565b61245c816121b2565b82525050565b61246b81612307565b82525050565b600060c0820190506124866000830189612453565b6124936020830188612453565b6124a06040830187612453565b6124ad6060830186612462565b6124ba6080830185612462565b6124c760a0830184612462565b979650505050505050565b60006124dd82612192565b9050919050565b6124ed816124d2565b82525050565b600060208201905061250860008301846124e4565b92915050565b6000602082840312156125245761252361218d565b5b600061253284828501612328565b91505092915050565b6000806000606084860312156125545761255361218d565b5b6000612562868287016121db565b9350506020612573868287016121db565b9250506040612584868287016121db565b9150509250925092565b60006020820190506125a36000830184612462565b92915050565b7f4e487b7100000000000000000000000000000000000000000000000000000000600052601160045260246000fd5b60006125e382612307565b91506125ee83612307565b9250828203905081811115612606576126056125a9565b5b92915050565b600061261782612307565b915061262283612307565b925082820261263081612307565b91508282048414831517612647576126466125a9565b5b5092915050565b7f4e487b7100000000000000000000000000000000000000000000000000000000600052601260045260246000fd5b600061268882612307565b915061269383612307565b9250826126a3576126a261264e565b5b828204905092915050565b60006126b982612307565b91506126c483612307565b92508282019050808211156126dc576126db6125a9565b5b92915050565b60006040820190506126f76000830185612462565b6127046020830184612462565b9392505050565b60008160601b9050919050565b60006127238261270b565b9050919050565b600061273582612718565b9050919050565b61274d612748826121b2565b61272a565b82525050565b600061275f828661273c565b60148201915061276f828561273c565b60148201915061277f828461273c565b601482019150819050949350505050565b60006060820190506127a56000830186612453565b6127b26020830185612453565b6127bf6040830184612462565b949350505050565b60008115159050919050565b6127dc816127c7565b81146127e757600080fd5b50565b6000815190506127f9816127d3565b92915050565b6000602082840312156128155761281461218d565b5b6000612823848285016127ea565b91505092915050565b600082825260208201905092915050565b7f5361666545524332303a204552433230206f7065726174696f6e20646964206e60008201527f6f74207375636365656400000000000000000000000000000000000000000000602082015250565b6000612899602a8361282c565b91506128a48261283d565b604082019050919050565b600060208201905081810360008301526128c88161288c565b9050919050565b7f416464726573733a20696e73756666696369656e742062616c616e636520666f60008201527f722063616c6c0000000000000000000000000000000000000000000000000000602082015250565b600061292b60268361282c565b9150612936826128cf565b604082019050919050565b6000602082019050818103600083015261295a8161291e565b9050919050565b7f416464726573733a2063616c6c20746f206e6f6e2d636f6e7472616374000000600082015250565b6000612997601d8361282c565b91506129a282612961565b602082019050919050565b600060208201905081810360008301526129c68161298a565b9050919050565b600081519050919050565b600081905092915050565b60005b83811015612a015780820151818401526020810190506129e6565b60008484015250505050565b6000612a18826129cd565b612a2281856129d8565b9350612a328185602086016129e3565b80840191505092915050565b6000612a4a8284612a0d565b915081905092915050565b600081519050919050565b6000601f19601f8301169050919050565b6000612a7c82612a55565b612a86818561282c565b9350612a968185602086016129e3565b612a9f81612a60565b840191505092915050565b60006020820190508181036000830152612ac48184612a71565b90509291505056fea2646970667358221220ed843547f5b5fc5726e09106b7ba6f40249989c591e12a9cdeddc7722eb5c26e64736f6c63430008180033",
  "linkReferences": {},
  "deployedLinkReferences": {}
}