{
  "_format": "hh-sol-artifact-1",
  "contractName": "Spot",
  "sourceName": "contracts/Spot.sol",
  "abi": [
    {
      "inputs": [
        {
          "internalType": "address payable",
          "name": "feeAddrs",
          "type": "address"
        }
      ],
      "stateMutability": "nonpayable",
      "type": "constructor"
    },
    {
      "inputs": [],
      "name": "AmountIsZero",
      "type": "error"
    },
    {
      "inputs": [],
      "name": "FeeAddressIsZero",
      "type": "error"
    },
    {
      "inputs": [],
      "name": "FriendZero",
      "type": "error"
    },
    {
      "inputs": [],
      "name": "LenderZero",
      "type": "error"
    },
    {
      "inputs": [],
      "name": "NotEnoughAllowableAmount",
      "type": "error"
    },
    {
      "inputs": [],
      "name": "NotFeeAddress",
      "type": "error"
    },
    {
      "inputs": [],
      "name": "NotFriend",
      "type": "error"
    },
    {
      "inputs": [],
      "name": "TokenNotZero",
      "type": "error"
    },
    {
      "anonymous": false,
      "inputs": [
        {
          "indexed": true,
          "internalType": "address",
          "name": "lender",
          "type": "address"
        },
        {
          "indexed": true,
          "internalType": "address",
          "name": "token",
          "type": "address"
        },
        {
          "indexed": true,
          "internalType": "address",
          "name": "friend",
          "type": "address"
        },
        {
          "indexed": false,
          "internalType": "uint256",
          "name": "amount",
          "type": "uint256"
        }
      ],
      "name": "BorrowAllowed",
      "type": "event"
    },
    {
      "anonymous": false,
      "inputs": [
        {
          "indexed": true,
          "internalType": "address",
          "name": "token",
          "type": "address"
        },
        {
          "indexed": true,
          "internalType": "address",
          "name": "lender",
          "type": "address"
        },
        {
          "indexed": true,
          "internalType": "address",
          "name": "borrower",
          "type": "address"
        },
        {
          "indexed": false,
          "internalType": "uint256",
          "name": "amount",
          "type": "uint256"
        }
      ],
      "name": "Borrowed",
      "type": "event"
    },
    {
      "anonymous": false,
      "inputs": [
        {
          "indexed": false,
          "internalType": "uint256",
          "name": "oldFee",
          "type": "uint256"
        },
        {
          "indexed": false,
          "internalType": "uint256",
          "name": "newFee",
          "type": "uint256"
        }
      ],
      "name": "NewFee",
      "type": "event"
    },
    {
      "anonymous": false,
      "inputs": [
        {
          "indexed": true,
          "internalType": "address",
          "name": "oldFeeAddress",
          "type": "address"
        },
        {
          "indexed": true,
          "internalType": "address",
          "name": "newFeeAddress",
          "type": "address"
        }
      ],
      "name": "NewFeeAddress",
      "type": "event"
    },
    {
      "anonymous": false,
      "inputs": [
        {
          "indexed": true,
          "internalType": "address",
          "name": "token",
          "type": "address"
        },
        {
          "indexed": true,
          "internalType": "address",
          "name": "lender",
          "type": "address"
        },
        {
          "indexed": true,
          "internalType": "address",
          "name": "borrower",
          "type": "address"
        },
        {
          "indexed": false,
          "internalType": "uint256",
          "name": "amount",
          "type": "uint256"
        }
      ],
      "name": "Repaid",
      "type": "event"
    },
    {
      "inputs": [
        {
          "internalType": "address",
          "name": "token",
          "type": "address"
        },
        {
          "internalType": "address",
          "name": "friend",
          "type": "address"
        },
        {
          "internalType": "uint256",
          "name": "amount",
          "type": "uint256"
        }
      ],
      "name": "allowBorrow",
      "outputs": [],
      "stateMutability": "nonpayable",
      "type": "function"
    },
    {
      "inputs": [
        {
          "internalType": "address",
          "name": "token",
          "type": "address"
        },
        {
          "internalType": "address",
          "name": "lender",
          "type": "address"
        },
        {
          "internalType": "uint256",
          "name": "amount",
          "type": "uint256"
        }
      ],
      "name": "borrow",
      "outputs": [],
      "stateMutability": "nonpayable",
      "type": "function"
    },
    {
      "inputs": [
        {
          "internalType": "bytes32",
          "name": "",
          "type": "bytes32"
        }
      ],
      "name": "borrowDetails",
      "outputs": [
        {
          "internalType": "address",
          "name": "lender",
          "type": "address"
        },
        {
          "internalType": "address",
          "name": "friend",
          "type": "address"
        },
        {
          "internalType": "address",
          "name": "token",
          "type": "address"
        },
        {
          "internalType": "uint256",
          "name": "totalBorrowed",
          "type": "uint256"
        },
        {
          "internalType": "uint256",
          "name": "outstanding",
          "type": "uint256"
        },
        {
          "internalType": "uint256",
          "name": "allowable",
          "type": "uint256"
        }
      ],
      "stateMutability": "view",
      "type": "function"
    },
    {
      "inputs": [
        {
          "internalType": "address",
          "name": "",
          "type": "address"
        },
        {
          "internalType": "uint256",
          "name": "",
          "type": "uint256"
        }
      ],
      "name": "borrowDetailsByFriend",
      "outputs": [
        {
          "internalType": "bytes32",
          "name": "",
          "type": "bytes32"
        }
      ],
      "stateMutability": "view",
      "type": "function"
    },
    {
      "inputs": [
        {
          "internalType": "address",
          "name": "",
          "type": "address"
        },
        {
          "internalType": "uint256",
          "name": "",
          "type": "uint256"
        }
      ],
      "name": "borrowDetailsByLender",
      "outputs": [
        {
          "internalType": "bytes32",
          "name": "",
          "type": "bytes32"
        }
      ],
      "stateMutability": "view",
      "type": "function"
    },
    {
      "inputs": [
        {
          "internalType": "address",
          "name": "lender",
          "type": "address"
        },
        {
          "internalType": "address",
          "name": "token",
          "type": "address"
        },
        {
          "internalType": "address",
          "name": "friend",
          "type": "address"
        }
      ],
      "name": "computeHash",
      "outputs": [
        {
          "internalType": "bytes32",
          "name": "",
          "type": "bytes32"
        }
      ],
      "stateMutability": "pure",
      "type": "function"
    },
    {
      "inputs": [],
      "name": "fee",
      "outputs": [
        {
          "internalType": "uint256",
          "name": "",
          "type": "uint256"
        }
      ],
      "stateMutability": "view",
      "type": "function"
    },
    {
      "inputs": [],
      "name": "feeAddress",
      "outputs": [
        {
          "internalType": "address payable",
          "name": "",
          "type": "address"
        }
      ],
      "stateMutability": "view",
      "type": "function"
    },
    {
      "inputs": [
        {
          "internalType": "address",
          "name": "token",
          "type": "address"
        },
        {
          "internalType": "address",
          "name": "lender",
          "type": "address"
        },
        {
          "internalType": "uint256",
          "name": "amount",
          "type": "uint256"
        }
      ],
      "name": "repay",
      "outputs": [],
      "stateMutability": "nonpayable",
      "type": "function"
    },
    {
      "inputs": [
        {
          "internalType": "uint256",
          "name": "newFee",
          "type": "uint256"
        }
      ],
      "name": "setFee",
      "outputs": [],
      "stateMutability": "nonpayable",
      "type": "function"
    },
    {
      "inputs": [
        {
          "internalType": "address",
          "name": "newFeeAddress",
          "type": "address"
        }
      ],
      "name": "setFeeAddress",
      "outputs": [],
      "stateMutability": "nonpayable",
      "type": "function"
    },
    {
      "inputs": [
        {
          "internalType": "address",
          "name": "friend",
          "type": "address"
        }
      ],
      "name": "viewFriendAllowances",
      "outputs": [
        {
          "internalType": "bytes32[]",
          "name": "",
          "type": "bytes32[]"
        }
      ],
      "stateMutability": "view",
      "type": "function"
    },
    {
      "inputs": [
        {
          "internalType": "address",
          "name": "lender",
          "type": "address"
        }
      ],
      "name": "viewLenderAllowances",
      "outputs": [
        {
          "internalType": "bytes32[]",
          "name": "",
          "type": "bytes32[]"
        }
      ],
      "stateMutability": "view",
      "type": "function"
    }
  ],
  "bytecode": "0x60806040523480156200001157600080fd5b506040516200213f3803806200213f8339818101604052810190620000379190620000e9565b80600360006101000a81548173ffffffffffffffffffffffffffffffffffffffff021916908373ffffffffffffffffffffffffffffffffffffffff160217905550506200011b565b600080fd5b600073ffffffffffffffffffffffffffffffffffffffff82169050919050565b6000620000b18262000084565b9050919050565b620000c381620000a4565b8114620000cf57600080fd5b50565b600081519050620000e381620000b8565b92915050565b6000602082840312156200010257620001016200007f565b5b60006200011284828501620000d2565b91505092915050565b612014806200012b6000396000f3fe608060405234801561001057600080fd5b50600436106100cf5760003560e01c80635224372c1161008c5780638705fcd4116100665780638705fcd41461023b578063c3f8730114610257578063d97c4b5f14610287578063ddca3f43146102a3576100cf565b80635224372c146101d357806369fe0e2d146101ef578063743a29bd1461020b576100cf565b8063110fbd5d146100d45780631da649cf14610104578063223c828b14610120578063382dff91146101505780633e4e08761461018057806341275358146101b5575b600080fd5b6100ee60048036038101906100e99190611702565b6102c1565b6040516100fb91906117f7565b60405180910390f35b61011e6004803603810190610119919061184f565b610358565b005b61013a600480360381019061013591906118a2565b6107f6565b60405161014791906118f1565b60405180910390f35b61016a60048036038101906101659190611702565b610827565b60405161017791906117f7565b60405180910390f35b61019a60048036038101906101959190611938565b6108be565b6040516101ac96959493929190611983565b60405180910390f35b6101bd61095a565b6040516101ca9190611a05565b60405180910390f35b6101ed60048036038101906101e8919061184f565b610980565b005b61020960048036038101906102049190611a20565b610c6b565b005b61022560048036038101906102209190611a4d565b610d4e565b60405161023291906118f1565b60405180910390f35b61025560048036038101906102509190611702565b610d84565b005b610271600480360381019061026c91906118a2565b610f37565b60405161027e91906118f1565b60405180910390f35b6102a1600480360381019061029c919061184f565b610f68565b005b6102ab611393565b6040516102b89190611aa0565b60405180910390f35b6060600260008373ffffffffffffffffffffffffffffffffffffffff1673ffffffffffffffffffffffffffffffffffffffff16815260200190815260200160002080548060200260200160405190810160405280929190818152602001828054801561034c57602002820191906000526020600020905b815481526020019060010190808311610338575b50505050509050919050565b600073ffffffffffffffffffffffffffffffffffffffff168373ffffffffffffffffffffffffffffffffffffffff16036103be576040517f2a90944900000000000000000000000000000000000000000000000000000000815260040160405180910390fd5b600073ffffffffffffffffffffffffffffffffffffffff168273ffffffffffffffffffffffffffffffffffffffff1603610424576040517f6e8e4a0a00000000000000000000000000000000000000000000000000000000815260040160405180910390fd5b6000810361045e576040517f43ad20fc00000000000000000000000000000000000000000000000000000000815260040160405180910390fd5b600061046b838533610d4e565b905060006004540361050a578160008083815260200190815260200160002060040154116104ac576000808281526020019081526020016000206004015491505b6104d93384848773ffffffffffffffffffffffffffffffffffffffff16611399909392919063ffffffff16565b8160008083815260200190815260200160002060040160008282546104fe9190611aea565b92505081905550610774565b816103e8600454600080858152602001908152602001600020600401546105319190611b1e565b61053b9190611b8f565b6000808481526020019081526020016000206004015461055b9190611bc0565b11610666576105a23384600080858152602001908152602001600020600401548773ffffffffffffffffffffffffffffffffffffffff16611399909392919063ffffffff16565b61062033600360009054906101000a900473ffffffffffffffffffffffffffffffffffffffff166103e8600454600080878152602001908152602001600020600401546105ef9190611b1e565b6105f99190611b8f565b8773ffffffffffffffffffffffffffffffffffffffff16611399909392919063ffffffff16565b60008082815260200190815260200160002060040154600080838152602001908152602001600020600401600082825461065a9190611aea565b92505081905550610773565b6106b833846103e86004548661067c9190611b1e565b6106869190611b8f565b856106919190611aea565b8773ffffffffffffffffffffffffffffffffffffffff16611399909392919063ffffffff16565b61072133600360009054906101000a900473ffffffffffffffffffffffffffffffffffffffff166103e8600454866106f09190611b1e565b6106fa9190611b8f565b8773ffffffffffffffffffffffffffffffffffffffff16611399909392919063ffffffff16565b6103e8600454836107329190611b1e565b61073c9190611b8f565b826107479190611aea565b600080838152602001908152602001600020600401600082825461076b9190611aea565b925050819055505b5b3373ffffffffffffffffffffffffffffffffffffffff168373ffffffffffffffffffffffffffffffffffffffff168573ffffffffffffffffffffffffffffffffffffffff167f861660e9b7ead7183d53fe928b5638c7b57a7bcf16a89d7fdb04db65ce3ad6d5856040516107e89190611aa0565b60405180910390a450505050565b6001602052816000526040600020818154811061081257600080fd5b90600052602060002001600091509150505481565b6060600160008373ffffffffffffffffffffffffffffffffffffffff1673ffffffffffffffffffffffffffffffffffffffff1681526020019081526020016000208054806020026020016040519081016040528092919081815260200182805480156108b257602002820191906000526020600020905b81548152602001906001019080831161089e575b50505050509050919050565b60006020528060005260406000206000915090508060000160009054906101000a900473ffffffffffffffffffffffffffffffffffffffff16908060010160009054906101000a900473ffffffffffffffffffffffffffffffffffffffff16908060020160009054906101000a900473ffffffffffffffffffffffffffffffffffffffff16908060030154908060040154908060050154905086565b600360009054906101000a900473ffffffffffffffffffffffffffffffffffffffff1681565b600073ffffffffffffffffffffffffffffffffffffffff168373ffffffffffffffffffffffffffffffffffffffff16036109e6576040517f2a90944900000000000000000000000000000000000000000000000000000000815260040160405180910390fd5b600073ffffffffffffffffffffffffffffffffffffffff168273ffffffffffffffffffffffffffffffffffffffff1603610a4c576040517f6e8e4a0a00000000000000000000000000000000000000000000000000000000815260040160405180910390fd5b6000610a59838533610d4e565b9050816000808381526020019081526020016000206004015460008084815260200190815260200160002060050154610a929190611aea565b1015610aca576040517f42cac7d400000000000000000000000000000000000000000000000000000000815260040160405180910390fd5b3373ffffffffffffffffffffffffffffffffffffffff1660008083815260200190815260200160002060010160009054906101000a900473ffffffffffffffffffffffffffffffffffffffff1673ffffffffffffffffffffffffffffffffffffffff1614610b64576040517f38d85a7d00000000000000000000000000000000000000000000000000000000815260040160405180910390fd5b816000808381526020019081526020016000206003016000828254610b899190611bc0565b92505081905550816000808381526020019081526020016000206004016000828254610bb59190611bc0565b92505081905550610be98333848773ffffffffffffffffffffffffffffffffffffffff16611399909392919063ffffffff16565b3373ffffffffffffffffffffffffffffffffffffffff168373ffffffffffffffffffffffffffffffffffffffff168573ffffffffffffffffffffffffffffffffffffffff167f9c9260125f1a087d9e46ee3dc78f1a4af18c5e00714012d9a35250d49391c4fe85604051610c5d9190611aa0565b60405180910390a450505050565b600360009054906101000a900473ffffffffffffffffffffffffffffffffffffffff1673ffffffffffffffffffffffffffffffffffffffff163373ffffffffffffffffffffffffffffffffffffffff1614610cf2576040517fa6be9ee800000000000000000000000000000000000000000000000000000000815260040160405180910390fd5b600060045490506032821115610d09576032610d0b565b815b6004819055507fbe12859b636aed607d5230b2cc2711f68d70e51060e6cca1f575ef5d2fcc95d18183604051610d42929190611bf4565b60405180910390a15050565b6000838383604051602001610d6593929190611c65565b6040516020818303038152906040528051906020012090509392505050565b600360009054906101000a900473ffffffffffffffffffffffffffffffffffffffff1673ffffffffffffffffffffffffffffffffffffffff163373ffffffffffffffffffffffffffffffffffffffff1614610e0b576040517fa6be9ee800000000000000000000000000000000000000000000000000000000815260040160405180910390fd5b600073ffffffffffffffffffffffffffffffffffffffff168173ffffffffffffffffffffffffffffffffffffffff1603610e71576040517f9f9ef88e00000000000000000000000000000000000000000000000000000000815260040160405180910390fd5b6000600360009054906101000a900473ffffffffffffffffffffffffffffffffffffffff16905081600360006101000a81548173ffffffffffffffffffffffffffffffffffffffff021916908373ffffffffffffffffffffffffffffffffffffffff1602179055508173ffffffffffffffffffffffffffffffffffffffff168173ffffffffffffffffffffffffffffffffffffffff167f5b3e7979ee413f5f083621fd7b80786689964383e38958cf6272951c89f3a2dd60405160405180910390a35050565b60026020528160005260406000208181548110610f5357600080fd5b90600052602060002001600091509150505481565b600073ffffffffffffffffffffffffffffffffffffffff168373ffffffffffffffffffffffffffffffffffffffff1603610fce576040517f2a90944900000000000000000000000000000000000000000000000000000000815260040160405180910390fd5b600073ffffffffffffffffffffffffffffffffffffffff168273ffffffffffffffffffffffffffffffffffffffff1603611034576040517f63e3230600000000000000000000000000000000000000000000000000000000815260040160405180910390fd5b6000611041338585610d4e565b9050600073ffffffffffffffffffffffffffffffffffffffff1660008083815260200190815260200160002060000160009054906101000a900473ffffffffffffffffffffffffffffffffffffffff1673ffffffffffffffffffffffffffffffffffffffff16036112f6576040518060c001604052803373ffffffffffffffffffffffffffffffffffffffff1681526020018473ffffffffffffffffffffffffffffffffffffffff1681526020018573ffffffffffffffffffffffffffffffffffffffff16815260200160008152602001600081526020018381525060008083815260200190815260200160002060008201518160000160006101000a81548173ffffffffffffffffffffffffffffffffffffffff021916908373ffffffffffffffffffffffffffffffffffffffff16021790555060208201518160010160006101000a81548173ffffffffffffffffffffffffffffffffffffffff021916908373ffffffffffffffffffffffffffffffffffffffff16021790555060408201518160020160006101000a81548173ffffffffffffffffffffffffffffffffffffffff021916908373ffffffffffffffffffffffffffffffffffffffff160217905550606082015181600301556080820151816004015560a08201518160050155905050600160003373ffffffffffffffffffffffffffffffffffffffff1673ffffffffffffffffffffffffffffffffffffffff168152602001908152602001600020819080600181540180825580915050600190039060005260206000200160009091909190915055600260008473ffffffffffffffffffffffffffffffffffffffff1673ffffffffffffffffffffffffffffffffffffffff168152602001908152602001600020819080600181540180825580915050600190039060005260206000200160009091909190915055611311565b81600080838152602001908152602001600020600501819055505b8273ffffffffffffffffffffffffffffffffffffffff168473ffffffffffffffffffffffffffffffffffffffff163373ffffffffffffffffffffffffffffffffffffffff167fb610df2b7253bc83331eda5575add89051a9d24db1ab0ad610b2a636788bb9bd856040516113859190611aa0565b60405180910390a450505050565b60045481565b61141c846323b872dd60e01b8585856040516024016113ba93929190611ca2565b604051602081830303815290604052907bffffffffffffffffffffffffffffffffffffffffffffffffffffffff19166020820180517bffffffffffffffffffffffffffffffffffffffffffffffffffffffff8381831617835250505050611422565b50505050565b6000611484826040518060400160405280602081526020017f5361666545524332303a206c6f772d6c6576656c2063616c6c206661696c65648152508573ffffffffffffffffffffffffffffffffffffffff166114e99092919063ffffffff16565b90506000815111156114e457808060200190518101906114a49190611d11565b6114e3576040517f08c379a00000000000000000000000000000000000000000000000000000000081526004016114da90611dc1565b60405180910390fd5b5b505050565b60606114f88484600085611501565b90509392505050565b606082471015611546576040517f08c379a000000000000000000000000000000000000000000000000000000000815260040161153d90611e53565b60405180910390fd5b61154f85611615565b61158e576040517f08c379a000000000000000000000000000000000000000000000000000000000815260040161158590611ebf565b60405180910390fd5b6000808673ffffffffffffffffffffffffffffffffffffffff1685876040516115b79190611f50565b60006040518083038185875af1925050503d80600081146115f4576040519150601f19603f3d011682016040523d82523d6000602084013e6115f9565b606091505b5091509150611609828286611638565b92505050949350505050565b6000808273ffffffffffffffffffffffffffffffffffffffff163b119050919050565b6060831561164857829050611698565b60008351111561165b5782518084602001fd5b816040517f08c379a000000000000000000000000000000000000000000000000000000000815260040161168f9190611fbc565b60405180910390fd5b9392505050565b600080fd5b600073ffffffffffffffffffffffffffffffffffffffff82169050919050565b60006116cf826116a4565b9050919050565b6116df816116c4565b81146116ea57600080fd5b50565b6000813590506116fc816116d6565b92915050565b6000602082840312156117185761171761169f565b5b6000611726848285016116ed565b91505092915050565b600081519050919050565b600082825260208201905092915050565b6000819050602082019050919050565b6000819050919050565b61176e8161175b565b82525050565b60006117808383611765565b60208301905092915050565b6000602082019050919050565b60006117a48261172f565b6117ae818561173a565b93506117b98361174b565b8060005b838110156117ea5781516117d18882611774565b97506117dc8361178c565b9250506001810190506117bd565b5085935050505092915050565b600060208201905081810360008301526118118184611799565b905092915050565b6000819050919050565b61182c81611819565b811461183757600080fd5b50565b60008135905061184981611823565b92915050565b6000806000606084860312156118685761186761169f565b5b6000611876868287016116ed565b9350506020611887868287016116ed565b92505060406118988682870161183a565b9150509250925092565b600080604083850312156118b9576118b861169f565b5b60006118c7858286016116ed565b92505060206118d88582860161183a565b9150509250929050565b6118eb8161175b565b82525050565b600060208201905061190660008301846118e2565b92915050565b6119158161175b565b811461192057600080fd5b50565b6000813590506119328161190c565b92915050565b60006020828403121561194e5761194d61169f565b5b600061195c84828501611923565b91505092915050565b61196e816116c4565b82525050565b61197d81611819565b82525050565b600060c0820190506119986000830189611965565b6119a56020830188611965565b6119b26040830187611965565b6119bf6060830186611974565b6119cc6080830185611974565b6119d960a0830184611974565b979650505050505050565b60006119ef826116a4565b9050919050565b6119ff816119e4565b82525050565b6000602082019050611a1a60008301846119f6565b92915050565b600060208284031215611a3657611a3561169f565b5b6000611a448482850161183a565b91505092915050565b600080600060608486031215611a6657611a6561169f565b5b6000611a74868287016116ed565b9350506020611a85868287016116ed565b9250506040611a96868287016116ed565b9150509250925092565b6000602082019050611ab56000830184611974565b92915050565b7f4e487b7100000000000000000000000000000000000000000000000000000000600052601160045260246000fd5b6000611af582611819565b9150611b0083611819565b9250828203905081811115611b1857611b17611abb565b5b92915050565b6000611b2982611819565b9150611b3483611819565b9250828202611b4281611819565b91508282048414831517611b5957611b58611abb565b5b5092915050565b7f4e487b7100000000000000000000000000000000000000000000000000000000600052601260045260246000fd5b6000611b9a82611819565b9150611ba583611819565b925082611bb557611bb4611b60565b5b828204905092915050565b6000611bcb82611819565b9150611bd683611819565b9250828201905080821115611bee57611bed611abb565b5b92915050565b6000604082019050611c096000830185611974565b611c166020830184611974565b9392505050565b60008160601b9050919050565b6000611c3582611c1d565b9050919050565b6000611c4782611c2a565b9050919050565b611c5f611c5a826116c4565b611c3c565b82525050565b6000611c718286611c4e565b601482019150611c818285611c4e565b601482019150611c918284611c4e565b601482019150819050949350505050565b6000606082019050611cb76000830186611965565b611cc46020830185611965565b611cd16040830184611974565b949350505050565b60008115159050919050565b611cee81611cd9565b8114611cf957600080fd5b50565b600081519050611d0b81611ce5565b92915050565b600060208284031215611d2757611d2661169f565b5b6000611d3584828501611cfc565b91505092915050565b600082825260208201905092915050565b7f5361666545524332303a204552433230206f7065726174696f6e20646964206e60008201527f6f74207375636365656400000000000000000000000000000000000000000000602082015250565b6000611dab602a83611d3e565b9150611db682611d4f565b604082019050919050565b60006020820190508181036000830152611dda81611d9e565b9050919050565b7f416464726573733a20696e73756666696369656e742062616c616e636520666f60008201527f722063616c6c0000000000000000000000000000000000000000000000000000602082015250565b6000611e3d602683611d3e565b9150611e4882611de1565b604082019050919050565b60006020820190508181036000830152611e6c81611e30565b9050919050565b7f416464726573733a2063616c6c20746f206e6f6e2d636f6e7472616374000000600082015250565b6000611ea9601d83611d3e565b9150611eb482611e73565b602082019050919050565b60006020820190508181036000830152611ed881611e9c565b9050919050565b600081519050919050565b600081905092915050565b60005b83811015611f13578082015181840152602081019050611ef8565b60008484015250505050565b6000611f2a82611edf565b611f348185611eea565b9350611f44818560208601611ef5565b80840191505092915050565b6000611f5c8284611f1f565b915081905092915050565b600081519050919050565b6000601f19601f8301169050919050565b6000611f8e82611f67565b611f988185611d3e565b9350611fa8818560208601611ef5565b611fb181611f72565b840191505092915050565b60006020820190508181036000830152611fd68184611f83565b90509291505056fea2646970667358221220a2aabeec71c7cf8bd043021aba56cd4b907b86acb35cdcf256a5c72d4e85bf3b64736f6c63430008180033",
  "linkReferences": {},
  "deployedLinkReferences": {}
}