{
  "_format": "hh-sol-artifact-1",
  "contractName": "Spot",
  "sourceName": "contracts/Spot.sol",
  "abi": [
    {
      "inputs": [
        {
          "internalType": "address payable",
          "name": "feeAddrs",
          "type": "address"
        }
      ],
      "stateMutability": "nonpayable",
      "type": "constructor"
    },
    {
      "inputs": [],
      "name": "AmountIsZero",
      "type": "error"
    },
    {
      "inputs": [],
      "name": "FeeAddressIsZero",
      "type": "error"
    },
    {
      "inputs": [],
      "name": "FriendZero",
      "type": "error"
    },
    {
      "inputs": [],
      "name": "LenderZero",
      "type": "error"
    },
    {
      "inputs": [],
      "name": "NotEnoughAllowableAmount",
      "type": "error"
    },
    {
      "inputs": [],
      "name": "NotFeeAddress",
      "type": "error"
    },
    {
      "inputs": [],
      "name": "NotFriend",
      "type": "error"
    },
    {
      "inputs": [],
      "name": "TokenNotZero",
      "type": "error"
    },
    {
      "anonymous": false,
      "inputs": [
        {
          "indexed": true,
          "internalType": "address",
          "name": "lender",
          "type": "address"
        },
        {
          "indexed": true,
          "internalType": "address",
          "name": "token",
          "type": "address"
        },
        {
          "indexed": true,
          "internalType": "address",
          "name": "friend",
          "type": "address"
        },
        {
          "indexed": false,
          "internalType": "uint256",
          "name": "amount",
          "type": "uint256"
        },
        {
          "indexed": false,
          "internalType": "uint256",
          "name": "interestRate",
          "type": "uint256"
        }
      ],
      "name": "BorrowAllowed",
      "type": "event"
    },
    {
      "anonymous": false,
      "inputs": [
        {
          "indexed": true,
          "internalType": "address",
          "name": "token",
          "type": "address"
        },
        {
          "indexed": true,
          "internalType": "address",
          "name": "lender",
          "type": "address"
        },
        {
          "indexed": true,
          "internalType": "address",
          "name": "borrower",
          "type": "address"
        },
        {
          "indexed": false,
          "internalType": "uint256",
          "name": "amount",
          "type": "uint256"
        }
      ],
      "name": "Borrowed",
      "type": "event"
    },
    {
      "anonymous": false,
      "inputs": [
        {
          "indexed": false,
          "internalType": "uint256",
          "name": "oldFee",
          "type": "uint256"
        },
        {
          "indexed": false,
          "internalType": "uint256",
          "name": "newFee",
          "type": "uint256"
        }
      ],
      "name": "NewFee",
      "type": "event"
    },
    {
      "anonymous": false,
      "inputs": [
        {
          "indexed": true,
          "internalType": "address",
          "name": "oldFeeAddress",
          "type": "address"
        },
        {
          "indexed": true,
          "internalType": "address",
          "name": "newFeeAddress",
          "type": "address"
        }
      ],
      "name": "NewFeeAddress",
      "type": "event"
    },
    {
      "anonymous": false,
      "inputs": [
        {
          "indexed": true,
          "internalType": "address",
          "name": "token",
          "type": "address"
        },
        {
          "indexed": true,
          "internalType": "address",
          "name": "lender",
          "type": "address"
        },
        {
          "indexed": true,
          "internalType": "address",
          "name": "borrower",
          "type": "address"
        },
        {
          "indexed": false,
          "internalType": "uint256",
          "name": "amount",
          "type": "uint256"
        }
      ],
      "name": "Repaid",
      "type": "event"
    },
    {
      "inputs": [
        {
          "internalType": "address",
          "name": "token",
          "type": "address"
        },
        {
          "internalType": "address",
          "name": "friend",
          "type": "address"
        },
        {
          "internalType": "uint256",
          "name": "amount",
          "type": "uint256"
        },
        {
          "internalType": "uint256",
          "name": "interestRate",
          "type": "uint256"
        }
      ],
      "name": "allowBorrow",
      "outputs": [],
      "stateMutability": "nonpayable",
      "type": "function"
    },
    {
      "inputs": [
        {
          "internalType": "address",
          "name": "token",
          "type": "address"
        },
        {
          "internalType": "address",
          "name": "lender",
          "type": "address"
        },
        {
          "internalType": "uint256",
          "name": "amount",
          "type": "uint256"
        }
      ],
      "name": "borrow",
      "outputs": [],
      "stateMutability": "nonpayable",
      "type": "function"
    },
    {
      "inputs": [
        {
          "internalType": "bytes32",
          "name": "",
          "type": "bytes32"
        }
      ],
      "name": "borrowDetails",
      "outputs": [
        {
          "internalType": "address",
          "name": "lender",
          "type": "address"
        },
        {
          "internalType": "address",
          "name": "friend",
          "type": "address"
        },
        {
          "internalType": "address",
          "name": "token",
          "type": "address"
        },
        {
          "internalType": "uint256",
          "name": "totalBorrowed",
          "type": "uint256"
        },
        {
          "internalType": "uint256",
          "name": "outstanding",
          "type": "uint256"
        },
        {
          "internalType": "uint256",
          "name": "allowable",
          "type": "uint256"
        },
        {
          "internalType": "uint256",
          "name": "interestRate",
          "type": "uint256"
        },
        {
          "internalType": "uint256",
          "name": "lastAccrualTimestamp",
          "type": "uint256"
        },
        {
          "internalType": "uint256",
          "name": "interestAccrued",
          "type": "uint256"
        }
      ],
      "stateMutability": "view",
      "type": "function"
    },
    {
      "inputs": [
        {
          "internalType": "address",
          "name": "",
          "type": "address"
        },
        {
          "internalType": "uint256",
          "name": "",
          "type": "uint256"
        }
      ],
      "name": "borrowDetailsByFriend",
      "outputs": [
        {
          "internalType": "bytes32",
          "name": "",
          "type": "bytes32"
        }
      ],
      "stateMutability": "view",
      "type": "function"
    },
    {
      "inputs": [
        {
          "internalType": "address",
          "name": "",
          "type": "address"
        },
        {
          "internalType": "uint256",
          "name": "",
          "type": "uint256"
        }
      ],
      "name": "borrowDetailsByLender",
      "outputs": [
        {
          "internalType": "bytes32",
          "name": "",
          "type": "bytes32"
        }
      ],
      "stateMutability": "view",
      "type": "function"
    },
    {
      "inputs": [
        {
          "internalType": "address",
          "name": "lender",
          "type": "address"
        },
        {
          "internalType": "address",
          "name": "token",
          "type": "address"
        },
        {
          "internalType": "address",
          "name": "friend",
          "type": "address"
        }
      ],
      "name": "computeHash",
      "outputs": [
        {
          "internalType": "bytes32",
          "name": "",
          "type": "bytes32"
        }
      ],
      "stateMutability": "pure",
      "type": "function"
    },
    {
      "inputs": [],
      "name": "fee",
      "outputs": [
        {
          "internalType": "uint256",
          "name": "",
          "type": "uint256"
        }
      ],
      "stateMutability": "view",
      "type": "function"
    },
    {
      "inputs": [],
      "name": "feeAddress",
      "outputs": [
        {
          "internalType": "address payable",
          "name": "",
          "type": "address"
        }
      ],
      "stateMutability": "view",
      "type": "function"
    },
    {
      "inputs": [
        {
          "internalType": "bytes32[]",
          "name": "hashes",
          "type": "bytes32[]"
        }
      ],
      "name": "getSpotInfo",
      "outputs": [
        {
          "components": [
            {
              "internalType": "address",
              "name": "lender",
              "type": "address"
            },
            {
              "internalType": "address",
              "name": "friend",
              "type": "address"
            },
            {
              "internalType": "address",
              "name": "token",
              "type": "address"
            },
            {
              "internalType": "uint256",
              "name": "totalBorrowed",
              "type": "uint256"
            },
            {
              "internalType": "uint256",
              "name": "outstanding",
              "type": "uint256"
            },
            {
              "internalType": "uint256",
              "name": "allowable",
              "type": "uint256"
            },
            {
              "internalType": "uint256",
              "name": "interestRate",
              "type": "uint256"
            },
            {
              "internalType": "uint256",
              "name": "lastAccrualTimestamp",
              "type": "uint256"
            },
            {
              "internalType": "uint256",
              "name": "interestAccrued",
              "type": "uint256"
            }
          ],
          "internalType": "struct Spot.BorrowDetails[]",
          "name": "detailsArray",
          "type": "tuple[]"
        },
        {
          "internalType": "uint256[]",
          "name": "updatedInterest",
          "type": "uint256[]"
        },
        {
          "internalType": "uint256[]",
          "name": "updatedTotalOwed",
          "type": "uint256[]"
        },
        {
          "internalType": "uint256[]",
          "name": "decimalsArr",
          "type": "uint256[]"
        },
        {
          "internalType": "string[]",
          "name": "names",
          "type": "string[]"
        },
        {
          "internalType": "string[]",
          "name": "symbols",
          "type": "string[]"
        }
      ],
      "stateMutability": "view",
      "type": "function"
    },
    {
      "inputs": [
        {
          "internalType": "address",
          "name": "token",
          "type": "address"
        },
        {
          "internalType": "address",
          "name": "lender",
          "type": "address"
        },
        {
          "internalType": "uint256",
          "name": "amount",
          "type": "uint256"
        }
      ],
      "name": "repay",
      "outputs": [],
      "stateMutability": "nonpayable",
      "type": "function"
    },
    {
      "inputs": [
        {
          "internalType": "uint256",
          "name": "newFee",
          "type": "uint256"
        }
      ],
      "name": "setFee",
      "outputs": [],
      "stateMutability": "nonpayable",
      "type": "function"
    },
    {
      "inputs": [
        {
          "internalType": "address",
          "name": "newFeeAddress",
          "type": "address"
        }
      ],
      "name": "setFeeAddress",
      "outputs": [],
      "stateMutability": "nonpayable",
      "type": "function"
    },
    {
      "inputs": [
        {
          "internalType": "address",
          "name": "friend",
          "type": "address"
        }
      ],
      "name": "viewFriendAllowances",
      "outputs": [
        {
          "internalType": "bytes32[]",
          "name": "",
          "type": "bytes32[]"
        }
      ],
      "stateMutability": "view",
      "type": "function"
    },
    {
      "inputs": [
        {
          "internalType": "address",
          "name": "lender",
          "type": "address"
        }
      ],
      "name": "viewLenderAllowances",
      "outputs": [
        {
          "internalType": "bytes32[]",
          "name": "",
          "type": "bytes32[]"
        }
      ],
      "stateMutability": "view",
      "type": "function"
    }
  ],
  "bytecode": "0x60806040523480156200001157600080fd5b506040516200482c3803806200482c833981810160405281019062000037919062000124565b6200005367144bbe45fa11a91760c01b620000b760201b60201c565b6200006f677eb12fbd3ebff58260c01b620000b760201b60201c565b80600360006101000a81548173ffffffffffffffffffffffffffffffffffffffff021916908373ffffffffffffffffffffffffffffffffffffffff1602179055505062000156565b50565b600080fd5b600073ffffffffffffffffffffffffffffffffffffffff82169050919050565b6000620000ec82620000bf565b9050919050565b620000fe81620000df565b81146200010a57600080fd5b50565b6000815190506200011e81620000f3565b92915050565b6000602082840312156200013d576200013c620000ba565b5b60006200014d848285016200010d565b91505092915050565b6146c680620001666000396000f3fe608060405234801561001057600080fd5b50600436106100ea5760003560e01c806369fe0e2d1161008c5780638705fcd4116100665780638705fcd414610275578063c3f8730114610291578063ddca3f43146102c1578063ec0e28d4146102df576100ea565b806369fe0e2d1461020d5780637429db0914610229578063743a29bd14610245576100ea565b8063382dff91116100c8578063382dff911461016b5780633e4e08761461019b57806341275358146101d35780635224372c146101f1576100ea565b8063110fbd5d146100ef5780631da649cf1461011f578063223c828b1461013b575b600080fd5b61010960048036038101906101049190613641565b610314565b6040516101169190613736565b60405180910390f35b6101396004803603810190610134919061378e565b6103e7565b005b610155600480360381019061015091906137e1565b610e95565b6040516101629190613830565b60405180910390f35b61018560048036038101906101809190613641565b610ec6565b6040516101929190613736565b60405180910390f35b6101b560048036038101906101b09190613877565b610f99565b6040516101ca999897969594939291906138c2565b60405180910390f35b6101db611047565b6040516101e89190613970565b60405180910390f35b61020b6004803603810190610206919061378e565b61106d565b005b6102276004803603810190610222919061398b565b611622565b005b610243600480360381019061023e91906139b8565b61181a565b005b61025f600480360381019061025a9190613a1f565b611ea8565b60405161026c9190613830565b60405180910390f35b61028f600480360381019061028a9190613641565b611f1a565b005b6102ab60048036038101906102a691906137e1565b61220d565b6040516102b89190613830565b60405180910390f35b6102c961223e565b6040516102d69190613a72565b60405180910390f35b6102f960048036038101906102f49190613be6565b612244565b60405161030b96959493929190613fa4565b60405180910390f35b606061032a67b41d09bd138aea7c60c01b612e97565b61033e676d289b5297c9359b60c01b612e97565b61035267daa58a80dfca1b2c60c01b612e97565b600260008373ffffffffffffffffffffffffffffffffffffffff1673ffffffffffffffffffffffffffffffffffffffff1681526020019081526020016000208054806020026020016040519081016040528092919081815260200182805480156103db57602002820191906000526020600020905b8154815260200190600101908083116103c7575b50505050509050919050565b6103fb678fac2a36dba5656360c01b612e97565b61040f677050cfbda4a965ef60c01b612e97565b61042367dbc15631e23d8cb960c01b612e97565b600073ffffffffffffffffffffffffffffffffffffffff168373ffffffffffffffffffffffffffffffffffffffff160361049d5761046b6791b48458ea64376460c01b612e97565b6040517f2a90944900000000000000000000000000000000000000000000000000000000815260040160405180910390fd5b6104b167b335add50b27e97d60c01b612e97565b6104c5675f33200a7e7bfe0d60c01b612e97565b6104d967c74d8eb38135b31a60c01b612e97565b600073ffffffffffffffffffffffffffffffffffffffff168273ffffffffffffffffffffffffffffffffffffffff16036105535761052167a3b82817db9c494860c01b612e97565b6040517f6e8e4a0a00000000000000000000000000000000000000000000000000000000815260040160405180910390fd5b610567671cfe759090f9320960c01b612e97565b61057b67f36e96b97df75d8f60c01b612e97565b61058f672f4d7bd5d1f8665760c01b612e97565b600081036105dd576105ab67daea7944d1a348b860c01b612e97565b6040517f43ad20fc00000000000000000000000000000000000000000000000000000000815260040160405180910390fd5b6105f167a6284e88ab2d945d60c01b612e97565b610605672f5383bc5fe39a2960c01b612e97565b61061967b2995172581fc27060c01b612e97565b6000610626838533611ea8565b905061063c6703e39e9441f30a3460c01b612e97565b610650672652178508c5de1d60c01b612e97565b6000806000838152602001908152602001600020905061067a67e0c27688cc2fecbb60c01b612e97565b61068e67a478e247531861c660c01b612e97565b61069782612e9a565b6106ab67cfb2092c5f3640b860c01b612e97565b6106bf671c83c2b1a6fb234560c01b612e97565b6000816004015490506106dc67ea0a3fa4d3b5d08b60c01b612e97565b6106f067b498b884f093ac8260c01b612e97565b60008260080154905061070d676c7bb7408fd25b8660c01b612e97565b61072167cf0c2567d79c5e8760c01b612e97565b6000610737676779a099155ea6fe60c01b612e97565b61074b67b58aefcc191430ce60c01b612e97565b600060045411156107a05761076a672ff47622a11bc36460c01b612e97565b61077e67e3581300ad74e68c60c01b612e97565b6103e86004548761078f919061405e565b61079991906140cf565b90506107b5565b6107b46782fba429fe438f3660c01b612e97565b5b6107c9672cd44ee7634e6c6b60c01b612e97565b6107dd67bca16f7f9197090f60c01b612e97565b85811115610815576107f9675c34f3128c1f703360c01b612e97565b61080d671a40a4527d9b4cf560c01b612e97565b85905061082a565b6108296773f884686cfdde5260c01b612e97565b5b61083e674a46a77c2da631d860c01b612e97565b61085267832341cba77b572a60c01b612e97565b60008111156108eb5761086f6792b8e6e3787824c560c01b612e97565b6108836735c2f6dd65582e6460c01b612e97565b610897670624495dc9964b9460c01b612e97565b6108e633600360009054906101000a900473ffffffffffffffffffffffffffffffffffffffff16838b73ffffffffffffffffffffffffffffffffffffffff16613229909392919063ffffffff16565b610900565b6108ff674989c3ff5d69991a60c01b612e97565b5b6109146751e02ba5cedac8a460c01b612e97565b61092867606d8acae4cb11a460c01b612e97565b600081876109369190614100565b905061094c67aa53b6919c14ea5c60c01b612e97565b6109606708f975d2defaa33c60c01b612e97565b60008103610a535761097c678b156163c2187d2060c01b612e97565b6109906798e43d8b234e316060c01b612e97565b6109a467d946f48657e6139360c01b612e97565b3373ffffffffffffffffffffffffffffffffffffffff168873ffffffffffffffffffffffffffffffffffffffff168a73ffffffffffffffffffffffffffffffffffffffff167f861660e9b7ead7183d53fe928b5638c7b57a7bcf16a89d7fdb04db65ce3ad6d58a604051610a189190613a72565b60405180910390a4610a3467a20e9b6c8473a6d460c01b612e97565b610a486754679db153c84d9760c01b612e97565b505050505050610e90565b610a6767423853f03c8d054360c01b612e97565b610a7b6710ed44a3eaa1733d60c01b612e97565b610a8f67a466942ea9a90d1660c01b612e97565b600083821180610aaf5750610aae6725036eb913534a5760c01b6132b2565b5b8015610acb5750610aca67a515658b3a4c288b60c01b6132b9565b5b610ad55781610ad7565b835b9050610aed67c4ee3dcfaf36700960c01b612e97565b610b01677e16c181940b6ff460c01b612e97565b6000610b1767b2ebe13b8c0f3c2e60c01b612e97565b610b2b67075ca7f244e50b8060c01b612e97565b82821015610be357610b47670840c5ae12bb06e960c01b612e97565b610b5b67f835fab39eb229b460c01b612e97565b8183610b679190614100565b9050610b7d676c014741bc45fedf60c01b612e97565b610b9167821de825dfd3caf660c01b612e97565b85811115610bc957610bad67fea44f5bd1b459d560c01b612e97565b610bc1675396bb9370b2490d60c01b612e97565b859050610bde565b610bdd679af926151037447e60c01b612e97565b5b610bf8565b610bf767384e1ab4901dea3c60c01b612e97565b5b610c0c677d8c01f6f17a344660c01b612e97565b610c2067315e2137718b179460c01b612e97565b60008183610c2e9190614134565b9050610c4467dba6a5ef56bd2ea360c01b612e97565b610c586751360854247ffb1360c01b612e97565b6000811115610ccf57610c7567b497f935f9135ab560c01b612e97565b610c8967ca38252ae8c8067860c01b612e97565b610c9d670d1289a3b53606d560c01b612e97565b610cca338c838f73ffffffffffffffffffffffffffffffffffffffff16613229909392919063ffffffff16565b610ce4565b610ce36740f4cd6e07e22bf860c01b612e97565b5b610cf8675a38de8e2e23dfd760c01b612e97565b8286610d049190614100565b8860080181905550610d2067f12f06eb9fd5f9ec60c01b612e97565b8187610d2c9190614100565b8860040181905550610d4867e46cb28856a9bfc660c01b612e97565b610d5c67f7574ebc61adedcb60c01b612e97565b60008860080154148015610d74575060008860040154145b15610db057610d8d67ccafbea02a92f6cb60c01b612e97565b610da167a78387a63444658d60c01b612e97565b60008860070181905550610de2565b610dc467994fc07fa04b2e1f60c01b612e97565b610dd86724cf2004a28dd56e60c01b612e97565b4288600701819055505b610df6671a8b3602eac4fab360c01b612e97565b610e0a67e007af060729116060c01b612e97565b3373ffffffffffffffffffffffffffffffffffffffff168b73ffffffffffffffffffffffffffffffffffffffff168d73ffffffffffffffffffffffffffffffffffffffff167f861660e9b7ead7183d53fe928b5638c7b57a7bcf16a89d7fdb04db65ce3ad6d58d604051610e7e9190613a72565b60405180910390a45050505050505050505b505050565b60016020528160005260406000208181548110610eb157600080fd5b90600052602060002001600091509150505481565b6060610edc6746f3210e37665bf460c01b612e97565b610ef0673e4578548bc1622060c01b612e97565b610f04677b79fba98c815cf660c01b612e97565b600160008373ffffffffffffffffffffffffffffffffffffffff1673ffffffffffffffffffffffffffffffffffffffff168152602001908152602001600020805480602002602001604051908101604052809291908181526020018280548015610f8d57602002820191906000526020600020905b815481526020019060010190808311610f79575b50505050509050919050565b60006020528060005260406000206000915090508060000160009054906101000a900473ffffffffffffffffffffffffffffffffffffffff16908060010160009054906101000a900473ffffffffffffffffffffffffffffffffffffffff16908060020160009054906101000a900473ffffffffffffffffffffffffffffffffffffffff16908060030154908060040154908060050154908060060154908060070154908060080154905089565b600360009054906101000a900473ffffffffffffffffffffffffffffffffffffffff1681565b61108167c7fd200f847fcf6a60c01b612e97565b61109567cfb1a71db5eb831860c01b612e97565b6110a96749aa136d15ce38b960c01b612e97565b600073ffffffffffffffffffffffffffffffffffffffff168373ffffffffffffffffffffffffffffffffffffffff1603611123576110f16752da0f2b0f3aa88b60c01b612e97565b6040517f2a90944900000000000000000000000000000000000000000000000000000000815260040160405180910390fd5b611137673291a4e8212efc3e60c01b612e97565b61114b675991b910936e41e460c01b612e97565b61115f67692d84d809b89c7c60c01b612e97565b600073ffffffffffffffffffffffffffffffffffffffff168273ffffffffffffffffffffffffffffffffffffffff16036111d9576111a7674c9f382e07f9eb1b60c01b612e97565b6040517f6e8e4a0a00000000000000000000000000000000000000000000000000000000815260040160405180910390fd5b6111ed679995e7f71ec23c6e60c01b612e97565b61120167de98a1478fe300e560c01b612e97565b61121567981e909c8c023b6760c01b612e97565b600081036112635761123167a40f167ac251566860c01b612e97565b6040517f43ad20fc00000000000000000000000000000000000000000000000000000000815260040160405180910390fd5b61127767ce2d1be4a641b78060c01b612e97565b61128b675e34944305bb5f2660c01b612e97565b61129f6752d8e0c119ccded360c01b612e97565b60006112ac838533611ea8565b90506112c267980247f61953d15660c01b612e97565b6112d667c82f3a76ab38d5f460c01b612e97565b60008060008381526020019081526020016000209050611300677154f09c9215ece960c01b612e97565b611314670d67bdc968be1b1f60c01b612e97565b3373ffffffffffffffffffffffffffffffffffffffff168160010160009054906101000a900473ffffffffffffffffffffffffffffffffffffffff1673ffffffffffffffffffffffffffffffffffffffff16146113b15761137f676812d910c4ca652460c01b612e97565b6040517f38d85a7d00000000000000000000000000000000000000000000000000000000815260040160405180910390fd5b6113c5676e19d04eefc482e660c01b612e97565b6113d96723a8ec19e1fa7b8660c01b612e97565b6113ed6726aa195418c90f8860c01b612e97565b6113f682612e9a565b61140a6747a02d1fc48c462e60c01b612e97565b61141e677672a3cff10a071460c01b612e97565b82816004015461142e9190614134565b816005015410156114935761144d67920984e7867d560d60c01b612e97565b611461672926845dce03b46860c01b612e97565b6040517f42cac7d400000000000000000000000000000000000000000000000000000000815260040160405180910390fd5b6114a767bf692461e4b65c0260c01b612e97565b6114bb67ab1946f4ce3fa5e760c01b612e97565b828160030160008282546114cf9190614134565b925050819055506114ea67a601b785f52ab56b60c01b612e97565b828160040160008282546114fe9190614134565b9250508190555061151967e1a8556d60f9a5a860c01b612e97565b4281600701819055506115366703736d89767a82aa60c01b612e97565b61154a67ca64b79eebcb011960c01b612e97565b6115778433858873ffffffffffffffffffffffffffffffffffffffff16613229909392919063ffffffff16565b61158b678795fb2b4ff70ffa60c01b612e97565b61159f673d9e4f183ffd278260c01b612e97565b3373ffffffffffffffffffffffffffffffffffffffff168473ffffffffffffffffffffffffffffffffffffffff168673ffffffffffffffffffffffffffffffffffffffff167f9c9260125f1a087d9e46ee3dc78f1a4af18c5e00714012d9a35250d49391c4fe866040516116139190613a72565b60405180910390a45050505050565b611636675251cbbc823f648f60c01b612e97565b61164a6762ec10ea5baef7be60c01b612e97565b61165e67a4b7d7c4c13cc0d760c01b612e97565b600360009054906101000a900473ffffffffffffffffffffffffffffffffffffffff1673ffffffffffffffffffffffffffffffffffffffff163373ffffffffffffffffffffffffffffffffffffffff161461170d576116c76770cd0df63d19d7c360c01b612e97565b6116db67af9f873ff2759e6560c01b612e97565b6040517fa6be9ee800000000000000000000000000000000000000000000000000000000815260040160405180910390fd5b61172167b0c725cf80790cfc60c01b612e97565b6117356736edc161ff1242b360c01b612e97565b61174967544bfcf27d3e40e160c01b612e97565b6000600454905061176467d43094d8bcc9d0c260c01b612e97565b6032821115806117845750611783676989b0fb7918297460c01b6132b2565b5b80156117a0575061179f67408d6af06b4bac9f60c01b6132b9565b5b6117ab5760326117ad565b815b6004819055506117c767bc9c8e655bc641b560c01b612e97565b6117db67a9978f783cc1525c60c01b612e97565b7fbe12859b636aed607d5230b2cc2711f68d70e51060e6cca1f575ef5d2fcc95d18160045460405161180e929190614168565b60405180910390a15050565b61182e67ebef51e7e601274160c01b612e97565b61184267534e6f17dddec18260c01b612e97565b611856675dcaef33dd33febc60c01b612e97565b600073ffffffffffffffffffffffffffffffffffffffff168473ffffffffffffffffffffffffffffffffffffffff16036118d05761189e679924e99ec343570260c01b612e97565b6040517f2a90944900000000000000000000000000000000000000000000000000000000815260040160405180910390fd5b6118e467b82d627ef19192be60c01b612e97565b6118f867904c64aa71acf2dd60c01b612e97565b61190c6782caca5697735f1e60c01b612e97565b600073ffffffffffffffffffffffffffffffffffffffff168373ffffffffffffffffffffffffffffffffffffffff16036119865761195467896a8fb5f06c3f2160c01b612e97565b6040517f63e3230600000000000000000000000000000000000000000000000000000000815260040160405180910390fd5b61199a67f11bc38234178cec60c01b612e97565b6119ae674272835eb9305a6e60c01b612e97565b6119c26705959966002abfac60c01b612e97565b60006119cf338686611ea8565b90506119e56755a8bc29047c3e4d60c01b612e97565b6119f967b7c14ee84a3f9eb960c01b612e97565b60008060008381526020019081526020016000209050611a236765db52519ac4c1f460c01b612e97565b611a37671541f44036edf70160c01b612e97565b600073ffffffffffffffffffffffffffffffffffffffff168160000160009054906101000a900473ffffffffffffffffffffffffffffffffffffffff1673ffffffffffffffffffffffffffffffffffffffff1603611d7a57611aa3678c4a2ceae95c47dd60c01b612e97565b611ab767421a8993c3fe5d5c60c01b612e97565b338160000160006101000a81548173ffffffffffffffffffffffffffffffffffffffff021916908373ffffffffffffffffffffffffffffffffffffffff160217905550611b0e671da6ad2797fe299560c01b612e97565b848160010160006101000a81548173ffffffffffffffffffffffffffffffffffffffff021916908373ffffffffffffffffffffffffffffffffffffffff160217905550611b6567ee23463a93e6492660c01b612e97565b858160020160006101000a81548173ffffffffffffffffffffffffffffffffffffffff021916908373ffffffffffffffffffffffffffffffffffffffff160217905550611bbc67c81a03e6d6cf03c060c01b612e97565b60008160030181905550611bda67f106a30f2952b73760c01b612e97565b60008160040181905550611bf8671b3cefb5b0fbbc1860c01b612e97565b838160050181905550611c1567e44f376ae412644460c01b612e97565b828160060181905550611c32675bab91a4542d06e160c01b612e97565b428160070181905550611c4f6781c8c260885e86bf60c01b612e97565b60008160080181905550611c6d67a64b2a9a277233af60c01b612e97565b611c81678999aa53b4812bb060c01b612e97565b600160003373ffffffffffffffffffffffffffffffffffffffff1673ffffffffffffffffffffffffffffffffffffffff168152602001908152602001600020829080600181540180825580915050600190039060005260206000200160009091909190915055611cfb67770cbf02a387422160c01b612e97565b611d0f67e77c746895945a0860c01b612e97565b600260008673ffffffffffffffffffffffffffffffffffffffff1673ffffffffffffffffffffffffffffffffffffffff168152602001908152602001600020829080600181540180825580915050600190039060005260206000200160009091909190915055611dfa565b611d8e67af5949a5d530237760c01b612e97565b611da2671d80b694884d2e6860c01b612e97565b611db66738fb26b2f61b9cf860c01b612e97565b611dbf82612e9a565b611dd3670c00866311affd0360c01b612e97565b838160050181905550611df067e5dc537bde9eb24060c01b612e97565b8281600601819055505b611e0e675e289adcc8a9b46a60c01b612e97565b611e2267526281b6936c3abe60c01b612e97565b8473ffffffffffffffffffffffffffffffffffffffff168673ffffffffffffffffffffffffffffffffffffffff163373ffffffffffffffffffffffffffffffffffffffff167ff90c4c927cc472cf90b3c92912db816f7281791383647b04981776fcd51684b88787604051611e98929190614168565b60405180910390a4505050505050565b6000611ebe67bff5f8996a73587660c01b612e97565b611ed267aa6af98ea081b4ba60c01b612e97565b611ee667ccb4a001a3f3cbfe60c01b612e97565b838383604051602001611efb939291906141d9565b6040516020818303038152906040528051906020012090509392505050565b611f2e67086405e647358f1060c01b612e97565b611f4267ae3baac3892cc74e60c01b612e97565b611f56673a3ba5a40b3e191f60c01b612e97565b600360009054906101000a900473ffffffffffffffffffffffffffffffffffffffff1673ffffffffffffffffffffffffffffffffffffffff163373ffffffffffffffffffffffffffffffffffffffff161461200557611fbf67241803440397f65860c01b612e97565b611fd3671c1db36a6a89e7ee60c01b612e97565b6040517fa6be9ee800000000000000000000000000000000000000000000000000000000815260040160405180910390fd5b612019670a8e3c3b28ec889d60c01b612e97565b61202d67035600e9ac9a798360c01b612e97565b612041670a5c4dd4f566ba7f60c01b612e97565b600073ffffffffffffffffffffffffffffffffffffffff168173ffffffffffffffffffffffffffffffffffffffff16036120cf5761208967fb15e482be06e81960c01b612e97565b61209d67b59f9e060d90a1d760c01b612e97565b6040517f9f9ef88e00000000000000000000000000000000000000000000000000000000815260040160405180910390fd5b6120e367ce890e687478bc7d60c01b612e97565b6120f767444596b44727432060c01b612e97565b61210b67d60ba7699c78f68160c01b612e97565b6000600360009054906101000a900473ffffffffffffffffffffffffffffffffffffffff169050612146677aa4cea6bac3df6660c01b612e97565b81600360006101000a81548173ffffffffffffffffffffffffffffffffffffffff021916908373ffffffffffffffffffffffffffffffffffffffff16021790555061219b6743e0822fa033f0c460c01b612e97565b6121af6749f51c6e8406e73260c01b612e97565b8173ffffffffffffffffffffffffffffffffffffffff168173ffffffffffffffffffffffffffffffffffffffff167f5b3e7979ee413f5f083621fd7b80786689964383e38958cf6272951c89f3a2dd60405160405180910390a35050565b6002602052816000526040600020818154811061222957600080fd5b90600052602060002001600091509150505481565b60045481565b6060806060806060806122616703f74a1c123ebb5b60c01b612e97565b61227567efda631ad00109cd60c01b612e97565b61228967f89ad97815e8497360c01b612e97565b6000875190506122a3673f3b999f8643acd660c01b612e97565b8067ffffffffffffffff8111156122bd576122bc613aa3565b5b6040519080825280602002602001820160405280156122f657816020015b6122e3613541565b8152602001906001900390816122db5790505b50965061230d676c2c42a884261c6e60c01b612e97565b8067ffffffffffffffff81111561232757612326613aa3565b5b6040519080825280602002602001820160405280156123555781602001602082028036833780820191505090505b50955061236c6797d56dee14b577a760c01b612e97565b8067ffffffffffffffff81111561238657612385613aa3565b5b6040519080825280602002602001820160405280156123b45781602001602082028036833780820191505090505b5094506123cb670a8b7c5676370b8860c01b612e97565b8067ffffffffffffffff8111156123e5576123e4613aa3565b5b6040519080825280602002602001820160405280156124135781602001602082028036833780820191505090505b50935061242a676295d670888679bb60c01b612e97565b8067ffffffffffffffff81111561244457612443613aa3565b5b60405190808252806020026020018201604052801561247757816020015b60608152602001906001900390816124625790505b50925061248e67d77428fd94c0ee4d60c01b612e97565b8067ffffffffffffffff8111156124a8576124a7613aa3565b5b6040519080825280602002602001820160405280156124db57816020015b60608152602001906001900390816124c65790505b5091506124f2677e4544e70696c9ba60c01b612e97565b61250667caeb4b89c036c2be60c01b612e97565b60005b81811015612e8c5761252567793fc516567294be60c01b612e97565b612539672e6cee6fd525942760c01b612e97565b600089828151811061254e5761254d614216565b5b6020026020010151905061256c67ec1ed336968ffa0460c01b612e97565b612580679a62a2296dbed1a660c01b612e97565b6000806000838152602001908152602001600020604051806101200160405290816000820160009054906101000a900473ffffffffffffffffffffffffffffffffffffffff1673ffffffffffffffffffffffffffffffffffffffff1673ffffffffffffffffffffffffffffffffffffffff1681526020016001820160009054906101000a900473ffffffffffffffffffffffffffffffffffffffff1673ffffffffffffffffffffffffffffffffffffffff1673ffffffffffffffffffffffffffffffffffffffff1681526020016002820160009054906101000a900473ffffffffffffffffffffffffffffffffffffffff1673ffffffffffffffffffffffffffffffffffffffff1673ffffffffffffffffffffffffffffffffffffffff168152602001600382015481526020016004820154815260200160058201548152602001600682015481526020016007820154815260200160088201548152505090506126f467121f2a76eebb991b60c01b612e97565b808a848151811061270857612707614216565b5b602002602001018190525061272767573934ef4686a63b60c01b612e97565b61273b67cced6f52aed3d33e60c01b612e97565b600073ffffffffffffffffffffffffffffffffffffffff16816000015173ffffffffffffffffffffffffffffffffffffffff160361291157612787672439b2f4d4c21fba60c01b612e97565b61279b6717f5b9ddcb41f01e60c01b612e97565b60008984815181106127b0576127af614216565b5b6020026020010181815250506127d0678ce6e201602a63cf60c01b612e97565b60008884815181106127e5576127e4614216565b5b60200260200101818152505061280567a87d6e95fbefbba960c01b612e97565b601287848151811061281a57612819614216565b5b60200260200101818152505061283a675ec9aa1e938e5baa60c01b612e97565b6040518060400160405280600781526020017f556e6b6e6f776e0000000000000000000000000000000000000000000000000081525086848151811061288357612882614216565b5b60200260200101819052506128a2673a9a02607989961d60c01b612e97565b6040518060400160405280600781526020017f554e4b4e4f574e000000000000000000000000000000000000000000000000008152508584815181106128eb576128ea614216565b5b602002602001018190525061290a67e720e109f41cafe960c01b612e97565b5050612e7f565b61292567fd851e91bb71226a60c01b612e97565b61293967d3d10f6596f4a13960c01b612e97565b61294d67997227021d28959860c01b612e97565b6000612963670ff576973d1d3cd660c01b612e97565b612977675b1ddae21f52a4f460c01b612e97565b60008260e0015114158015612990575060008260800151115b15612a3c576129a967c1a7927ccd36699260c01b612e97565b6129bd673fb15a5d457d0fac60c01b612e97565b6129d1671da3b7df92476dbc60c01b612e97565b60008260e00151426129e39190614100565b90506129f967a223a90e11d0c78260c01b612e97565b6103e86301e13380612a0b919061405e565b818460c001518560800151612a20919061405e565b612a2a919061405e565b612a3491906140cf565b915050612a51565b612a50674fc360de6a707cf760c01b612e97565b5b612a65676d90b80a44714cff60c01b612e97565b80826101000151612a769190614134565b8a8581518110612a8957612a88614216565b5b602002602001018181525050612aa9678e699110524dca7060c01b612e97565b898481518110612abc57612abb614216565b5b60200260200101518260800151612ad39190614134565b898581518110612ae657612ae5614216565b5b602002602001018181525050612b0667fee06a87c2658d6460c01b612e97565b612b1a67620afb0c2637337960c01b612e97565b816040015173ffffffffffffffffffffffffffffffffffffffff1663313ce5676040518163ffffffff1660e01b8152600401602060405180830381865afa925050508015612b8657506040513d601f19601f82011682018060405250810190612b83919061427e565b60015b612bc457612b9e675689eb0ddc69634e60c01b612e97565b6012888581518110612bb357612bb2614216565b5b602002602001018181525050612bfd565b612bd8671bd79708a97de21b60c01b612e97565b8060ff16898681518110612bef57612bee614216565b5b602002602001018181525050505b612c11670e3496217cb0dd6460c01b612e97565b612c2567dfee7a2509bb8e4760c01b612e97565b816040015173ffffffffffffffffffffffffffffffffffffffff166306fdde036040518163ffffffff1660e01b8152600401600060405180830381865afa925050508015612c9657506040513d6000823e3d601f19601f82011682018060405250810190612c939190614351565b60015b612d0757612cae67e41331167b7ba81060c01b612e97565b6040518060400160405280600781526020017f556e6b6e6f776e00000000000000000000000000000000000000000000000000815250878581518110612cf757612cf6614216565b5b6020026020010181905250612d3c565b612d1b676f9139e0e9b611e360c01b612e97565b80888681518110612d2f57612d2e614216565b5b6020026020010181905250505b612d5067aa6d1af8339722d860c01b612e97565b612d6467755e7915efece5e360c01b612e97565b816040015173ffffffffffffffffffffffffffffffffffffffff166395d89b416040518163ffffffff1660e01b8152600401600060405180830381865afa925050508015612dd557506040513d6000823e3d601f19601f82011682018060405250810190612dd29190614351565b60015b612e4657612ded67095c87fe5860919b60c01b612e97565b6040518060400160405280600781526020017f554e4b4e4f574e00000000000000000000000000000000000000000000000000815250868581518110612e3657612e35614216565b5b6020026020010181905250612e7b565b612e5a67fc9564a0cbe02cc760c01b612e97565b80878681518110612e6e57612e6d614216565b5b6020026020010181905250505b5050505b8080600101915050612509565b505091939550919395565b50565b612eae674e8ea12b326e81f160c01b612e97565b612ec2678232aa7be78f6d6560c01b612e97565b612ed66787b6f3697335332e60c01b612e97565b60008060008381526020019081526020016000209050612f0067e26798d3bd84476f60c01b612e97565b612f1467b3c5baf59ab3f27e60c01b612e97565b60008160070154148015612f385750612f37676746a0a12a10543d60c01b6132b9565b5b80612f63575060008160040154148015612f625750612f6167e91cc51ad7fd5e5f60c01b6132b9565b5b5b1561303957612f7c67c44a4363820f129a60c01b612e97565b612f9067708d325f15e9a18b60c01b612e97565b612fa467489ac62a671d8d0860c01b612e97565b60008160040154118015612fbc575060008160070154145b15612ff657612fd5677b33e39f00297e8f60c01b612e97565b612fe866c8f1d67b22037f60c01b612e97565b42816007018190555061300b565b61300a67b2598ecc422cea7c60c01b612e97565b5b61301f6743639f756f55d32e60c01b612e97565b61303367d6cdea1ab202684160c01b612e97565b50613226565b61304d67309879472132a04360c01b612e97565b613061676a57b07b7c661ded60c01b612e97565b61307567b13c9b94812ba36260c01b612e97565b60008160070154426130879190614100565b905061309d674e42f11dd83177b860c01b612e97565b6130b16734670af2b703968f60c01b612e97565b600081036130fc576130cd679388d4739dd5cb8d60c01b612e97565b6130e1679d02eaba5c492c9060c01b612e97565b6130f56720978e0a9cd77d2b60c01b612e97565b5050613226565b6131106740216681920ca50860c01b612e97565b6131246710d22facea6d65f560c01b612e97565b613138675a687606be31674760c01b612e97565b60006103e86301e1338061314c919061405e565b8284600601548560040154613161919061405e565b61316b919061405e565b61317591906140cf565b905061318b6723c6097c3a4cd7b360c01b612e97565b61319f67e4fa5c37fbfd540260c01b612e97565b60008111156131f0576131bc67892f12bf5a68aec160c01b612e97565b6131d067f55bc51f7579d91b60c01b612e97565b808360080160008282546131e49190614134565b92505081905550613205565b613204678df2ff618d86709160c01b612e97565b5b6132196747245776f81f3cd460c01b612e97565b4283600701819055505050505b50565b6132ac846323b872dd60e01b85858560405160240161324a9392919061439a565b604051602081830303815290604052907bffffffffffffffffffffffffffffffffffffffffffffffffffffffff19166020820180517bffffffffffffffffffffffffffffffffffffffffffffffffffffffff83818316178352505050506132c4565b50505050565b6000919050565b600060019050919050565b6000613326826040518060400160405280602081526020017f5361666545524332303a206c6f772d6c6576656c2063616c6c206661696c65648152508573ffffffffffffffffffffffffffffffffffffffff1661338b9092919063ffffffff16565b905060008151111561338657808060200190518101906133469190614409565b613385576040517f08c379a000000000000000000000000000000000000000000000000000000000815260040161337c906144b9565b60405180910390fd5b5b505050565b606061339a84846000856133a3565b90509392505050565b6060824710156133e8576040517f08c379a00000000000000000000000000000000000000000000000000000000081526004016133df9061454b565b60405180910390fd5b6133f1856134b7565b613430576040517f08c379a0000000000000000000000000000000000000000000000000000000008152600401613427906145b7565b60405180910390fd5b6000808673ffffffffffffffffffffffffffffffffffffffff168587604051613459919061461e565b60006040518083038185875af1925050503d8060008114613496576040519150601f19603f3d011682016040523d82523d6000602084013e61349b565b606091505b50915091506134ab8282866134da565b92505050949350505050565b6000808273ffffffffffffffffffffffffffffffffffffffff163b119050919050565b606083156134ea5782905061353a565b6000835111156134fd5782518084602001fd5b816040517f08c379a0000000000000000000000000000000000000000000000000000000008152600401613531919061466e565b60405180910390fd5b9392505050565b604051806101200160405280600073ffffffffffffffffffffffffffffffffffffffff168152602001600073ffffffffffffffffffffffffffffffffffffffff168152602001600073ffffffffffffffffffffffffffffffffffffffff1681526020016000815260200160008152602001600081526020016000815260200160008152602001600081525090565b6000604051905090565b600080fd5b600080fd5b600073ffffffffffffffffffffffffffffffffffffffff82169050919050565b600061360e826135e3565b9050919050565b61361e81613603565b811461362957600080fd5b50565b60008135905061363b81613615565b92915050565b600060208284031215613657576136566135d9565b5b60006136658482850161362c565b91505092915050565b600081519050919050565b600082825260208201905092915050565b6000819050602082019050919050565b6000819050919050565b6136ad8161369a565b82525050565b60006136bf83836136a4565b60208301905092915050565b6000602082019050919050565b60006136e38261366e565b6136ed8185613679565b93506136f88361368a565b8060005b8381101561372957815161371088826136b3565b975061371b836136cb565b9250506001810190506136fc565b5085935050505092915050565b6000602082019050818103600083015261375081846136d8565b905092915050565b6000819050919050565b61376b81613758565b811461377657600080fd5b50565b60008135905061378881613762565b92915050565b6000806000606084860312156137a7576137a66135d9565b5b60006137b58682870161362c565b93505060206137c68682870161362c565b92505060406137d786828701613779565b9150509250925092565b600080604083850312156137f8576137f76135d9565b5b60006138068582860161362c565b925050602061381785828601613779565b9150509250929050565b61382a8161369a565b82525050565b60006020820190506138456000830184613821565b92915050565b6138548161369a565b811461385f57600080fd5b50565b6000813590506138718161384b565b92915050565b60006020828403121561388d5761388c6135d9565b5b600061389b84828501613862565b91505092915050565b6138ad81613603565b82525050565b6138bc81613758565b82525050565b6000610120820190506138d8600083018c6138a4565b6138e5602083018b6138a4565b6138f2604083018a6138a4565b6138ff60608301896138b3565b61390c60808301886138b3565b61391960a08301876138b3565b61392660c08301866138b3565b61393360e08301856138b3565b6139416101008301846138b3565b9a9950505050505050505050565b600061395a826135e3565b9050919050565b61396a8161394f565b82525050565b60006020820190506139856000830184613961565b92915050565b6000602082840312156139a1576139a06135d9565b5b60006139af84828501613779565b91505092915050565b600080600080608085870312156139d2576139d16135d9565b5b60006139e08782880161362c565b94505060206139f18782880161362c565b9350506040613a0287828801613779565b9250506060613a1387828801613779565b91505092959194509250565b600080600060608486031215613a3857613a376135d9565b5b6000613a468682870161362c565b9350506020613a578682870161362c565b9250506040613a688682870161362c565b9150509250925092565b6000602082019050613a8760008301846138b3565b92915050565b600080fd5b6000601f19601f8301169050919050565b7f4e487b7100000000000000000000000000000000000000000000000000000000600052604160045260246000fd5b613adb82613a92565b810181811067ffffffffffffffff82111715613afa57613af9613aa3565b5b80604052505050565b6000613b0d6135cf565b9050613b198282613ad2565b919050565b600067ffffffffffffffff821115613b3957613b38613aa3565b5b602082029050602081019050919050565b600080fd5b6000613b62613b5d84613b1e565b613b03565b90508083825260208201905060208402830185811115613b8557613b84613b4a565b5b835b81811015613bae5780613b9a8882613862565b845260208401935050602081019050613b87565b5050509392505050565b600082601f830112613bcd57613bcc613a8d565b5b8135613bdd848260208601613b4f565b91505092915050565b600060208284031215613bfc57613bfb6135d9565b5b600082013567ffffffffffffffff811115613c1a57613c196135de565b5b613c2684828501613bb8565b91505092915050565b600081519050919050565b600082825260208201905092915050565b6000819050602082019050919050565b613c6481613603565b82525050565b613c7381613758565b82525050565b61012082016000820151613c906000850182613c5b565b506020820151613ca36020850182613c5b565b506040820151613cb66040850182613c5b565b506060820151613cc96060850182613c6a565b506080820151613cdc6080850182613c6a565b5060a0820151613cef60a0850182613c6a565b5060c0820151613d0260c0850182613c6a565b5060e0820151613d1560e0850182613c6a565b50610100820151613d2a610100850182613c6a565b50505050565b6000613d3c8383613c79565b6101208301905092915050565b6000602082019050919050565b6000613d6182613c2f565b613d6b8185613c3a565b9350613d7683613c4b565b8060005b83811015613da7578151613d8e8882613d30565b9750613d9983613d49565b925050600181019050613d7a565b5085935050505092915050565b600081519050919050565b600082825260208201905092915050565b6000819050602082019050919050565b6000613dec8383613c6a565b60208301905092915050565b6000602082019050919050565b6000613e1082613db4565b613e1a8185613dbf565b9350613e2583613dd0565b8060005b83811015613e56578151613e3d8882613de0565b9750613e4883613df8565b925050600181019050613e29565b5085935050505092915050565b600081519050919050565b600082825260208201905092915050565b6000819050602082019050919050565b600081519050919050565b600082825260208201905092915050565b60005b83811015613ec9578082015181840152602081019050613eae565b60008484015250505050565b6000613ee082613e8f565b613eea8185613e9a565b9350613efa818560208601613eab565b613f0381613a92565b840191505092915050565b6000613f1a8383613ed5565b905092915050565b6000602082019050919050565b6000613f3a82613e63565b613f448185613e6e565b935083602082028501613f5685613e7f565b8060005b85811015613f925784840389528151613f738582613f0e565b9450613f7e83613f22565b925060208a01995050600181019050613f5a565b50829750879550505050505092915050565b600060c0820190508181036000830152613fbe8189613d56565b90508181036020830152613fd28188613e05565b90508181036040830152613fe68187613e05565b90508181036060830152613ffa8186613e05565b9050818103608083015261400e8185613f2f565b905081810360a08301526140228184613f2f565b9050979650505050505050565b7f4e487b7100000000000000000000000000000000000000000000000000000000600052601160045260246000fd5b600061406982613758565b915061407483613758565b925082820261408281613758565b915082820484148315176140995761409861402f565b5b5092915050565b7f4e487b7100000000000000000000000000000000000000000000000000000000600052601260045260246000fd5b60006140da82613758565b91506140e583613758565b9250826140f5576140f46140a0565b5b828204905092915050565b600061410b82613758565b915061411683613758565b925082820390508181111561412e5761412d61402f565b5b92915050565b600061413f82613758565b915061414a83613758565b92508282019050808211156141625761416161402f565b5b92915050565b600060408201905061417d60008301856138b3565b61418a60208301846138b3565b9392505050565b60008160601b9050919050565b60006141a982614191565b9050919050565b60006141bb8261419e565b9050919050565b6141d36141ce82613603565b6141b0565b82525050565b60006141e582866141c2565b6014820191506141f582856141c2565b60148201915061420582846141c2565b601482019150819050949350505050565b7f4e487b7100000000000000000000000000000000000000000000000000000000600052603260045260246000fd5b600060ff82169050919050565b61425b81614245565b811461426657600080fd5b50565b60008151905061427881614252565b92915050565b600060208284031215614294576142936135d9565b5b60006142a284828501614269565b91505092915050565b600080fd5b600067ffffffffffffffff8211156142cb576142ca613aa3565b5b6142d482613a92565b9050602081019050919050565b60006142f46142ef846142b0565b613b03565b9050828152602081018484840111156143105761430f6142ab565b5b61431b848285613eab565b509392505050565b600082601f83011261433857614337613a8d565b5b81516143488482602086016142e1565b91505092915050565b600060208284031215614367576143666135d9565b5b600082015167ffffffffffffffff811115614385576143846135de565b5b61439184828501614323565b91505092915050565b60006060820190506143af60008301866138a4565b6143bc60208301856138a4565b6143c960408301846138b3565b949350505050565b60008115159050919050565b6143e6816143d1565b81146143f157600080fd5b50565b600081519050614403816143dd565b92915050565b60006020828403121561441f5761441e6135d9565b5b600061442d848285016143f4565b91505092915050565b600082825260208201905092915050565b7f5361666545524332303a204552433230206f7065726174696f6e20646964206e60008201527f6f74207375636365656400000000000000000000000000000000000000000000602082015250565b60006144a3602a83614436565b91506144ae82614447565b604082019050919050565b600060208201905081810360008301526144d281614496565b9050919050565b7f416464726573733a20696e73756666696369656e742062616c616e636520666f60008201527f722063616c6c0000000000000000000000000000000000000000000000000000602082015250565b6000614535602683614436565b9150614540826144d9565b604082019050919050565b6000602082019050818103600083015261456481614528565b9050919050565b7f416464726573733a2063616c6c20746f206e6f6e2d636f6e7472616374000000600082015250565b60006145a1601d83614436565b91506145ac8261456b565b602082019050919050565b600060208201905081810360008301526145d081614594565b9050919050565b600081519050919050565b600081905092915050565b60006145f8826145d7565b61460281856145e2565b9350614612818560208601613eab565b80840191505092915050565b600061462a82846145ed565b915081905092915050565b600061464082613e8f565b61464a8185614436565b935061465a818560208601613eab565b61466381613a92565b840191505092915050565b600060208201905081810360008301526146888184614635565b90509291505056fea264697066735822122089467c2b302cb82de4554e2eaec00f464fea8478aab776c94e620baab5e4095764736f6c63430008180033",
  "linkReferences": {},
  "deployedLinkReferences": {}
}