{
  "_format": "hh-sol-artifact-1",
  "contractName": "Spot",
  "sourceName": "contracts/Spot.sol",
  "abi": [
    {
      "inputs": [
        {
          "internalType": "address payable",
          "name": "feeAddrs",
          "type": "address"
        }
      ],
      "stateMutability": "nonpayable",
      "type": "constructor"
    },
    {
      "inputs": [],
      "name": "AmountIsZero",
      "type": "error"
    },
    {
      "inputs": [],
      "name": "FeeAddressIsZero",
      "type": "error"
    },
    {
      "inputs": [],
      "name": "FriendZero",
      "type": "error"
    },
    {
      "inputs": [],
      "name": "LenderZero",
      "type": "error"
    },
    {
      "inputs": [],
      "name": "NotEnoughAllowableAmount",
      "type": "error"
    },
    {
      "inputs": [],
      "name": "NotFeeAddress",
      "type": "error"
    },
    {
      "inputs": [],
      "name": "NotFriend",
      "type": "error"
    },
    {
      "inputs": [],
      "name": "TokenNotZero",
      "type": "error"
    },
    {
      "anonymous": false,
      "inputs": [
        {
          "indexed": true,
          "internalType": "address",
          "name": "lender",
          "type": "address"
        },
        {
          "indexed": true,
          "internalType": "address",
          "name": "token",
          "type": "address"
        },
        {
          "indexed": true,
          "internalType": "address",
          "name": "friend",
          "type": "address"
        },
        {
          "indexed": false,
          "internalType": "uint256",
          "name": "amount",
          "type": "uint256"
        },
        {
          "indexed": false,
          "internalType": "uint256",
          "name": "interestRate",
          "type": "uint256"
        }
      ],
      "name": "BorrowAllowed",
      "type": "event"
    },
    {
      "anonymous": false,
      "inputs": [
        {
          "indexed": true,
          "internalType": "address",
          "name": "token",
          "type": "address"
        },
        {
          "indexed": true,
          "internalType": "address",
          "name": "lender",
          "type": "address"
        },
        {
          "indexed": true,
          "internalType": "address",
          "name": "borrower",
          "type": "address"
        },
        {
          "indexed": false,
          "internalType": "uint256",
          "name": "amount",
          "type": "uint256"
        }
      ],
      "name": "Borrowed",
      "type": "event"
    },
    {
      "anonymous": false,
      "inputs": [
        {
          "indexed": false,
          "internalType": "uint256",
          "name": "oldFee",
          "type": "uint256"
        },
        {
          "indexed": false,
          "internalType": "uint256",
          "name": "newFee",
          "type": "uint256"
        }
      ],
      "name": "NewFee",
      "type": "event"
    },
    {
      "anonymous": false,
      "inputs": [
        {
          "indexed": true,
          "internalType": "address",
          "name": "oldFeeAddress",
          "type": "address"
        },
        {
          "indexed": true,
          "internalType": "address",
          "name": "newFeeAddress",
          "type": "address"
        }
      ],
      "name": "NewFeeAddress",
      "type": "event"
    },
    {
      "anonymous": false,
      "inputs": [
        {
          "indexed": true,
          "internalType": "address",
          "name": "token",
          "type": "address"
        },
        {
          "indexed": true,
          "internalType": "address",
          "name": "lender",
          "type": "address"
        },
        {
          "indexed": true,
          "internalType": "address",
          "name": "borrower",
          "type": "address"
        },
        {
          "indexed": false,
          "internalType": "uint256",
          "name": "amount",
          "type": "uint256"
        }
      ],
      "name": "Repaid",
      "type": "event"
    },
    {
      "inputs": [
        {
          "internalType": "address",
          "name": "token",
          "type": "address"
        },
        {
          "internalType": "address",
          "name": "friend",
          "type": "address"
        },
        {
          "internalType": "uint256",
          "name": "amount",
          "type": "uint256"
        },
        {
          "internalType": "uint256",
          "name": "interestRate",
          "type": "uint256"
        }
      ],
      "name": "allowBorrow",
      "outputs": [],
      "stateMutability": "nonpayable",
      "type": "function"
    },
    {
      "inputs": [
        {
          "internalType": "address",
          "name": "token",
          "type": "address"
        },
        {
          "internalType": "address",
          "name": "lender",
          "type": "address"
        },
        {
          "internalType": "uint256",
          "name": "amount",
          "type": "uint256"
        }
      ],
      "name": "borrow",
      "outputs": [],
      "stateMutability": "nonpayable",
      "type": "function"
    },
    {
      "inputs": [
        {
          "internalType": "bytes32",
          "name": "",
          "type": "bytes32"
        }
      ],
      "name": "borrowDetails",
      "outputs": [
        {
          "internalType": "address",
          "name": "lender",
          "type": "address"
        },
        {
          "internalType": "address",
          "name": "friend",
          "type": "address"
        },
        {
          "internalType": "address",
          "name": "token",
          "type": "address"
        },
        {
          "internalType": "uint256",
          "name": "totalBorrowed",
          "type": "uint256"
        },
        {
          "internalType": "uint256",
          "name": "outstanding",
          "type": "uint256"
        },
        {
          "internalType": "uint256",
          "name": "allowable",
          "type": "uint256"
        },
        {
          "internalType": "uint256",
          "name": "interestRate",
          "type": "uint256"
        },
        {
          "internalType": "uint256",
          "name": "lastAccrualTimestamp",
          "type": "uint256"
        },
        {
          "internalType": "uint256",
          "name": "interestAccrued",
          "type": "uint256"
        }
      ],
      "stateMutability": "view",
      "type": "function"
    },
    {
      "inputs": [
        {
          "internalType": "address",
          "name": "",
          "type": "address"
        },
        {
          "internalType": "uint256",
          "name": "",
          "type": "uint256"
        }
      ],
      "name": "borrowDetailsByFriend",
      "outputs": [
        {
          "internalType": "bytes32",
          "name": "",
          "type": "bytes32"
        }
      ],
      "stateMutability": "view",
      "type": "function"
    },
    {
      "inputs": [
        {
          "internalType": "address",
          "name": "",
          "type": "address"
        },
        {
          "internalType": "uint256",
          "name": "",
          "type": "uint256"
        }
      ],
      "name": "borrowDetailsByLender",
      "outputs": [
        {
          "internalType": "bytes32",
          "name": "",
          "type": "bytes32"
        }
      ],
      "stateMutability": "view",
      "type": "function"
    },
    {
      "inputs": [
        {
          "internalType": "address",
          "name": "lender",
          "type": "address"
        },
        {
          "internalType": "address",
          "name": "token",
          "type": "address"
        },
        {
          "internalType": "address",
          "name": "friend",
          "type": "address"
        }
      ],
      "name": "computeHash",
      "outputs": [
        {
          "internalType": "bytes32",
          "name": "",
          "type": "bytes32"
        }
      ],
      "stateMutability": "pure",
      "type": "function"
    },
    {
      "inputs": [],
      "name": "fee",
      "outputs": [
        {
          "internalType": "uint256",
          "name": "",
          "type": "uint256"
        }
      ],
      "stateMutability": "view",
      "type": "function"
    },
    {
      "inputs": [],
      "name": "feeAddress",
      "outputs": [
        {
          "internalType": "address payable",
          "name": "",
          "type": "address"
        }
      ],
      "stateMutability": "view",
      "type": "function"
    },
    {
      "inputs": [
        {
          "internalType": "bytes32[]",
          "name": "hashes",
          "type": "bytes32[]"
        }
      ],
      "name": "getSpotInfo",
      "outputs": [
        {
          "components": [
            {
              "internalType": "address",
              "name": "lender",
              "type": "address"
            },
            {
              "internalType": "address",
              "name": "friend",
              "type": "address"
            },
            {
              "internalType": "address",
              "name": "token",
              "type": "address"
            },
            {
              "internalType": "uint256",
              "name": "totalBorrowed",
              "type": "uint256"
            },
            {
              "internalType": "uint256",
              "name": "outstanding",
              "type": "uint256"
            },
            {
              "internalType": "uint256",
              "name": "allowable",
              "type": "uint256"
            },
            {
              "internalType": "uint256",
              "name": "interestRate",
              "type": "uint256"
            },
            {
              "internalType": "uint256",
              "name": "lastAccrualTimestamp",
              "type": "uint256"
            },
            {
              "internalType": "uint256",
              "name": "interestAccrued",
              "type": "uint256"
            }
          ],
          "internalType": "struct Spot.BorrowDetails[]",
          "name": "detailsArray",
          "type": "tuple[]"
        },
        {
          "internalType": "uint256[]",
          "name": "updatedInterest",
          "type": "uint256[]"
        },
        {
          "internalType": "uint256[]",
          "name": "updatedTotalOwed",
          "type": "uint256[]"
        },
        {
          "internalType": "uint256[]",
          "name": "decimalsArr",
          "type": "uint256[]"
        },
        {
          "internalType": "string[]",
          "name": "names",
          "type": "string[]"
        },
        {
          "internalType": "string[]",
          "name": "symbols",
          "type": "string[]"
        }
      ],
      "stateMutability": "view",
      "type": "function"
    },
    {
      "inputs": [
        {
          "internalType": "address",
          "name": "token",
          "type": "address"
        },
        {
          "internalType": "address",
          "name": "lender",
          "type": "address"
        },
        {
          "internalType": "uint256",
          "name": "amount",
          "type": "uint256"
        }
      ],
      "name": "repay",
      "outputs": [],
      "stateMutability": "nonpayable",
      "type": "function"
    },
    {
      "inputs": [
        {
          "internalType": "uint256",
          "name": "newFee",
          "type": "uint256"
        }
      ],
      "name": "setFee",
      "outputs": [],
      "stateMutability": "nonpayable",
      "type": "function"
    },
    {
      "inputs": [
        {
          "internalType": "address",
          "name": "newFeeAddress",
          "type": "address"
        }
      ],
      "name": "setFeeAddress",
      "outputs": [],
      "stateMutability": "nonpayable",
      "type": "function"
    },
    {
      "inputs": [
        {
          "internalType": "address",
          "name": "friend",
          "type": "address"
        }
      ],
      "name": "viewFriendAllowances",
      "outputs": [
        {
          "internalType": "bytes32[]",
          "name": "",
          "type": "bytes32[]"
        }
      ],
      "stateMutability": "view",
      "type": "function"
    },
    {
      "inputs": [
        {
          "internalType": "address",
          "name": "lender",
          "type": "address"
        }
      ],
      "name": "viewLenderAllowances",
      "outputs": [
        {
          "internalType": "bytes32[]",
          "name": "",
          "type": "bytes32[]"
        }
      ],
      "stateMutability": "view",
      "type": "function"
    }
  ],
  "bytecode": "0x60806040523480156200001157600080fd5b5060405162003204380380620032048339818101604052810190620000379190620000e9565b80600360006101000a81548173ffffffffffffffffffffffffffffffffffffffff021916908373ffffffffffffffffffffffffffffffffffffffff160217905550506200011b565b600080fd5b600073ffffffffffffffffffffffffffffffffffffffff82169050919050565b6000620000b18262000084565b9050919050565b620000c381620000a4565b8114620000cf57600080fd5b50565b600081519050620000e381620000b8565b92915050565b6000602082840312156200010257620001016200007f565b5b60006200011284828501620000d2565b91505092915050565b6130d9806200012b6000396000f3fe608060405234801561001057600080fd5b50600436106100ea5760003560e01c806369fe0e2d1161008c5780638705fcd4116100665780638705fcd414610275578063c3f8730114610291578063ddca3f43146102c1578063ec0e28d4146102df576100ea565b806369fe0e2d1461020d5780637429db0914610229578063743a29bd14610245576100ea565b8063382dff91116100c8578063382dff911461016b5780633e4e08761461019b57806341275358146101d35780635224372c146101f1576100ea565b8063110fbd5d146100ef5780631da649cf1461011f578063223c828b1461013b575b600080fd5b61010960048036038101906101049190612054565b610314565b6040516101169190612149565b60405180910390f35b610139600480360381019061013491906121a1565b6103ab565b005b610155600480360381019061015091906121f4565b610787565b6040516101629190612243565b60405180910390f35b61018560048036038101906101809190612054565b6107b8565b6040516101929190612149565b60405180910390f35b6101b560048036038101906101b0919061228a565b61084f565b6040516101ca999897969594939291906122d5565b60405180910390f35b6101db6108fd565b6040516101e89190612383565b60405180910390f35b61020b600480360381019061020691906121a1565b610923565b005b6102276004803603810190610222919061239e565b610c1c565b005b610243600480360381019061023e91906123cb565b610d01565b005b61025f600480360381019061025a9190612432565b6110bf565b60405161026c9190612243565b60405180910390f35b61028f600480360381019061028a9190612054565b6110f5565b005b6102ab60048036038101906102a691906121f4565b6112a8565b6040516102b89190612243565b60405180910390f35b6102c96112d9565b6040516102d69190612485565b60405180910390f35b6102f960048036038101906102f491906125f9565b6112df565b60405161030b969594939291906129b7565b60405180910390f35b6060600260008373ffffffffffffffffffffffffffffffffffffffff1673ffffffffffffffffffffffffffffffffffffffff16815260200190815260200160002080548060200260200160405190810160405280929190818152602001828054801561039f57602002820191906000526020600020905b81548152602001906001019080831161038b575b50505050509050919050565b600073ffffffffffffffffffffffffffffffffffffffff168373ffffffffffffffffffffffffffffffffffffffff1603610411576040517f2a90944900000000000000000000000000000000000000000000000000000000815260040160405180910390fd5b600073ffffffffffffffffffffffffffffffffffffffff168273ffffffffffffffffffffffffffffffffffffffff1603610477576040517f6e8e4a0a00000000000000000000000000000000000000000000000000000000815260040160405180910390fd5b600081036104b1576040517f43ad20fc00000000000000000000000000000000000000000000000000000000815260040160405180910390fd5b60006104be8385336110bf565b9050600080600083815260200190815260200160002090506104df82611b58565b600081600401549050600082600801549050600080600454111561051b576103e86004548761050e9190612a71565b6105189190612ae2565b90505b85811115610527578590505b60008111156105805761057f33600360009054906101000a900473ffffffffffffffffffffffffffffffffffffffff16838b73ffffffffffffffffffffffffffffffffffffffff16611c4e909392919063ffffffff16565b5b6000818761058e9190612b13565b90506000810361061f573373ffffffffffffffffffffffffffffffffffffffff168873ffffffffffffffffffffffffffffffffffffffff168a73ffffffffffffffffffffffffffffffffffffffff167f861660e9b7ead7183d53fe928b5638c7b57a7bcf16a89d7fdb04db65ce3ad6d58a60405161060c9190612485565b60405180910390a4505050505050610782565b600083821161062e5781610630565b835b90506000828210156106575781836106489190612b13565b905085811115610656578590505b5b600081836106659190612b47565b9050600081111561069e5761069d338c838f73ffffffffffffffffffffffffffffffffffffffff16611c4e909392919063ffffffff16565b5b82866106aa9190612b13565b886008018190555081876106be9190612b13565b8860040181905550600088600801541480156106de575060008860040154145b156106f257600088600701819055506106fc565b4288600701819055505b3373ffffffffffffffffffffffffffffffffffffffff168b73ffffffffffffffffffffffffffffffffffffffff168d73ffffffffffffffffffffffffffffffffffffffff167f861660e9b7ead7183d53fe928b5638c7b57a7bcf16a89d7fdb04db65ce3ad6d58d6040516107709190612485565b60405180910390a45050505050505050505b505050565b600160205281600052604060002081815481106107a357600080fd5b90600052602060002001600091509150505481565b6060600160008373ffffffffffffffffffffffffffffffffffffffff1673ffffffffffffffffffffffffffffffffffffffff16815260200190815260200160002080548060200260200160405190810160405280929190818152602001828054801561084357602002820191906000526020600020905b81548152602001906001019080831161082f575b50505050509050919050565b60006020528060005260406000206000915090508060000160009054906101000a900473ffffffffffffffffffffffffffffffffffffffff16908060010160009054906101000a900473ffffffffffffffffffffffffffffffffffffffff16908060020160009054906101000a900473ffffffffffffffffffffffffffffffffffffffff16908060030154908060040154908060050154908060060154908060070154908060080154905089565b600360009054906101000a900473ffffffffffffffffffffffffffffffffffffffff1681565b600073ffffffffffffffffffffffffffffffffffffffff168373ffffffffffffffffffffffffffffffffffffffff1603610989576040517f2a90944900000000000000000000000000000000000000000000000000000000815260040160405180910390fd5b600073ffffffffffffffffffffffffffffffffffffffff168273ffffffffffffffffffffffffffffffffffffffff16036109ef576040517f6e8e4a0a00000000000000000000000000000000000000000000000000000000815260040160405180910390fd5b60008103610a29576040517f43ad20fc00000000000000000000000000000000000000000000000000000000815260040160405180910390fd5b6000610a368385336110bf565b9050600080600083815260200190815260200160002090503373ffffffffffffffffffffffffffffffffffffffff168160010160009054906101000a900473ffffffffffffffffffffffffffffffffffffffff1673ffffffffffffffffffffffffffffffffffffffff1614610ad7576040517f38d85a7d00000000000000000000000000000000000000000000000000000000815260040160405180910390fd5b610ae082611b58565b828160040154610af09190612b47565b81600501541015610b2d576040517f42cac7d400000000000000000000000000000000000000000000000000000000815260040160405180910390fd5b82816003016000828254610b419190612b47565b9250508190555082816004016000828254610b5c9190612b47565b92505081905550428160070181905550610b998433858873ffffffffffffffffffffffffffffffffffffffff16611c4e909392919063ffffffff16565b3373ffffffffffffffffffffffffffffffffffffffff168473ffffffffffffffffffffffffffffffffffffffff168673ffffffffffffffffffffffffffffffffffffffff167f9c9260125f1a087d9e46ee3dc78f1a4af18c5e00714012d9a35250d49391c4fe86604051610c0d9190612485565b60405180910390a45050505050565b600360009054906101000a900473ffffffffffffffffffffffffffffffffffffffff1673ffffffffffffffffffffffffffffffffffffffff163373ffffffffffffffffffffffffffffffffffffffff1614610ca3576040517fa6be9ee800000000000000000000000000000000000000000000000000000000815260040160405180910390fd5b600060045490506032821115610cba576032610cbc565b815b6004819055507fbe12859b636aed607d5230b2cc2711f68d70e51060e6cca1f575ef5d2fcc95d181600454604051610cf5929190612b7b565b60405180910390a15050565b600073ffffffffffffffffffffffffffffffffffffffff168473ffffffffffffffffffffffffffffffffffffffff1603610d67576040517f2a90944900000000000000000000000000000000000000000000000000000000815260040160405180910390fd5b600073ffffffffffffffffffffffffffffffffffffffff168373ffffffffffffffffffffffffffffffffffffffff1603610dcd576040517f63e3230600000000000000000000000000000000000000000000000000000000815260040160405180910390fd5b6000610dda3386866110bf565b905060008060008381526020019081526020016000209050600073ffffffffffffffffffffffffffffffffffffffff168160000160009054906101000a900473ffffffffffffffffffffffffffffffffffffffff1673ffffffffffffffffffffffffffffffffffffffff160361101d57338160000160006101000a81548173ffffffffffffffffffffffffffffffffffffffff021916908373ffffffffffffffffffffffffffffffffffffffff160217905550848160010160006101000a81548173ffffffffffffffffffffffffffffffffffffffff021916908373ffffffffffffffffffffffffffffffffffffffff160217905550858160020160006101000a81548173ffffffffffffffffffffffffffffffffffffffff021916908373ffffffffffffffffffffffffffffffffffffffff160217905550600081600301819055506000816004018190555083816005018190555082816006018190555042816007018190555060008160080181905550600160003373ffffffffffffffffffffffffffffffffffffffff1673ffffffffffffffffffffffffffffffffffffffff168152602001908152602001600020829080600181540180825580915050600190039060005260206000200160009091909190915055600260008673ffffffffffffffffffffffffffffffffffffffff1673ffffffffffffffffffffffffffffffffffffffff168152602001908152602001600020829080600181540180825580915050600190039060005260206000200160009091909190915055611039565b61102682611b58565b8381600501819055508281600601819055505b8473ffffffffffffffffffffffffffffffffffffffff168673ffffffffffffffffffffffffffffffffffffffff163373ffffffffffffffffffffffffffffffffffffffff167ff90c4c927cc472cf90b3c92912db816f7281791383647b04981776fcd51684b887876040516110af929190612b7b565b60405180910390a4505050505050565b60008383836040516020016110d693929190612bec565b6040516020818303038152906040528051906020012090509392505050565b600360009054906101000a900473ffffffffffffffffffffffffffffffffffffffff1673ffffffffffffffffffffffffffffffffffffffff163373ffffffffffffffffffffffffffffffffffffffff161461117c576040517fa6be9ee800000000000000000000000000000000000000000000000000000000815260040160405180910390fd5b600073ffffffffffffffffffffffffffffffffffffffff168173ffffffffffffffffffffffffffffffffffffffff16036111e2576040517f9f9ef88e00000000000000000000000000000000000000000000000000000000815260040160405180910390fd5b6000600360009054906101000a900473ffffffffffffffffffffffffffffffffffffffff16905081600360006101000a81548173ffffffffffffffffffffffffffffffffffffffff021916908373ffffffffffffffffffffffffffffffffffffffff1602179055508173ffffffffffffffffffffffffffffffffffffffff168173ffffffffffffffffffffffffffffffffffffffff167f5b3e7979ee413f5f083621fd7b80786689964383e38958cf6272951c89f3a2dd60405160405180910390a35050565b600260205281600052604060002081815481106112c457600080fd5b90600052602060002001600091509150505481565b60045481565b6060806060806060806000875190508067ffffffffffffffff811115611308576113076124b6565b5b60405190808252806020026020018201604052801561134157816020015b61132e611f54565b8152602001906001900390816113265790505b5096508067ffffffffffffffff81111561135e5761135d6124b6565b5b60405190808252806020026020018201604052801561138c5781602001602082028036833780820191505090505b5095508067ffffffffffffffff8111156113a9576113a86124b6565b5b6040519080825280602002602001820160405280156113d75781602001602082028036833780820191505090505b5094508067ffffffffffffffff8111156113f4576113f36124b6565b5b6040519080825280602002602001820160405280156114225781602001602082028036833780820191505090505b5093508067ffffffffffffffff81111561143f5761143e6124b6565b5b60405190808252806020026020018201604052801561147257816020015b606081526020019060019003908161145d5790505b5092508067ffffffffffffffff81111561148f5761148e6124b6565b5b6040519080825280602002602001820160405280156114c257816020015b60608152602001906001900390816114ad5790505b50915060005b81811015611b4d5760008982815181106114e5576114e4612c29565b5b602002602001015190506000806000838152602001908152602001600020604051806101200160405290816000820160009054906101000a900473ffffffffffffffffffffffffffffffffffffffff1673ffffffffffffffffffffffffffffffffffffffff1673ffffffffffffffffffffffffffffffffffffffff1681526020016001820160009054906101000a900473ffffffffffffffffffffffffffffffffffffffff1673ffffffffffffffffffffffffffffffffffffffff1673ffffffffffffffffffffffffffffffffffffffff1681526020016002820160009054906101000a900473ffffffffffffffffffffffffffffffffffffffff1673ffffffffffffffffffffffffffffffffffffffff1673ffffffffffffffffffffffffffffffffffffffff16815260200160038201548152602001600482015481526020016005820154815260200160068201548152602001600782015481526020016008820154815250509050808a848151811061166357611662612c29565b5b6020026020010181905250600073ffffffffffffffffffffffffffffffffffffffff16816000015173ffffffffffffffffffffffffffffffffffffffff16036117b85760008984815181106116bb576116ba612c29565b5b60200260200101818152505060008884815181106116dc576116db612c29565b5b60200260200101818152505060128784815181106116fd576116fc612c29565b5b6020026020010181815250506040518060400160405280600781526020017f556e6b6e6f776e0000000000000000000000000000000000000000000000000081525086848151811061175257611751612c29565b5b60200260200101819052506040518060400160405280600781526020017f554e4b4e4f574e000000000000000000000000000000000000000000000000008152508584815181106117a6576117a5612c29565b5b60200260200101819052505050611b40565b6000808260e00151141580156117d2575060008260800151115b1561182a5760008260e00151426117e99190612b13565b90506103e86301e133806117fd9190612a71565b818460c0015185608001516118129190612a71565b61181c9190612a71565b6118269190612ae2565b9150505b8082610100015161183b9190612b47565b8a858151811061184e5761184d612c29565b5b60200260200101818152505089848151811061186d5761186c612c29565b5b602002602001015182608001516118849190612b47565b89858151811061189757611896612c29565b5b602002602001018181525050816040015173ffffffffffffffffffffffffffffffffffffffff1663313ce5676040518163ffffffff1660e01b8152600401602060405180830381865afa92505050801561190f57506040513d601f19601f8201168201806040525081019061190c9190612c91565b60015b61193957601288858151811061192857611927612c29565b5b60200260200101818152505061195e565b8060ff168986815181106119505761194f612c29565b5b602002602001018181525050505b816040015173ffffffffffffffffffffffffffffffffffffffff166306fdde036040518163ffffffff1660e01b8152600401600060405180830381865afa9250505080156119cf57506040513d6000823e3d601f19601f820116820180604052508101906119cc9190612d64565b60015b611a2c576040518060400160405280600781526020017f556e6b6e6f776e00000000000000000000000000000000000000000000000000815250878581518110611a1c57611a1b612c29565b5b6020026020010181905250611a4d565b80888681518110611a4057611a3f612c29565b5b6020026020010181905250505b816040015173ffffffffffffffffffffffffffffffffffffffff166395d89b416040518163ffffffff1660e01b8152600401600060405180830381865afa925050508015611abe57506040513d6000823e3d601f19601f82011682018060405250810190611abb9190612d64565b60015b611b1b576040518060400160405280600781526020017f554e4b4e4f574e00000000000000000000000000000000000000000000000000815250868581518110611b0b57611b0a612c29565b5b6020026020010181905250611b3c565b80878681518110611b2f57611b2e612c29565b5b6020026020010181905250505b5050505b80806001019150506114c8565b505091939550919395565b60008060008381526020019081526020016000209050600081600701541480611b85575060008160040154145b15611bb75760008160040154118015611ba2575060008160070154145b15611bb1574281600701819055505b50611c4b565b6000816007015442611bc99190612b13565b905060008103611bda575050611c4b565b60006103e86301e13380611bee9190612a71565b8284600601548560040154611c039190612a71565b611c0d9190612a71565b611c179190612ae2565b90506000811115611c3e5780836008016000828254611c369190612b47565b925050819055505b4283600701819055505050505b50565b611cd1846323b872dd60e01b858585604051602401611c6f93929190612dad565b604051602081830303815290604052907bffffffffffffffffffffffffffffffffffffffffffffffffffffffff19166020820180517bffffffffffffffffffffffffffffffffffffffffffffffffffffffff8381831617835250505050611cd7565b50505050565b6000611d39826040518060400160405280602081526020017f5361666545524332303a206c6f772d6c6576656c2063616c6c206661696c65648152508573ffffffffffffffffffffffffffffffffffffffff16611d9e9092919063ffffffff16565b9050600081511115611d995780806020019051810190611d599190612e1c565b611d98576040517f08c379a0000000000000000000000000000000000000000000000000000000008152600401611d8f90612ecc565b60405180910390fd5b5b505050565b6060611dad8484600085611db6565b90509392505050565b606082471015611dfb576040517f08c379a0000000000000000000000000000000000000000000000000000000008152600401611df290612f5e565b60405180910390fd5b611e0485611eca565b611e43576040517f08c379a0000000000000000000000000000000000000000000000000000000008152600401611e3a90612fca565b60405180910390fd5b6000808673ffffffffffffffffffffffffffffffffffffffff168587604051611e6c9190613031565b60006040518083038185875af1925050503d8060008114611ea9576040519150601f19603f3d011682016040523d82523d6000602084013e611eae565b606091505b5091509150611ebe828286611eed565b92505050949350505050565b6000808273ffffffffffffffffffffffffffffffffffffffff163b119050919050565b60608315611efd57829050611f4d565b600083511115611f105782518084602001fd5b816040517f08c379a0000000000000000000000000000000000000000000000000000000008152600401611f449190613081565b60405180910390fd5b9392505050565b604051806101200160405280600073ffffffffffffffffffffffffffffffffffffffff168152602001600073ffffffffffffffffffffffffffffffffffffffff168152602001600073ffffffffffffffffffffffffffffffffffffffff1681526020016000815260200160008152602001600081526020016000815260200160008152602001600081525090565b6000604051905090565b600080fd5b600080fd5b600073ffffffffffffffffffffffffffffffffffffffff82169050919050565b600061202182611ff6565b9050919050565b61203181612016565b811461203c57600080fd5b50565b60008135905061204e81612028565b92915050565b60006020828403121561206a57612069611fec565b5b60006120788482850161203f565b91505092915050565b600081519050919050565b600082825260208201905092915050565b6000819050602082019050919050565b6000819050919050565b6120c0816120ad565b82525050565b60006120d283836120b7565b60208301905092915050565b6000602082019050919050565b60006120f682612081565b612100818561208c565b935061210b8361209d565b8060005b8381101561213c57815161212388826120c6565b975061212e836120de565b92505060018101905061210f565b5085935050505092915050565b6000602082019050818103600083015261216381846120eb565b905092915050565b6000819050919050565b61217e8161216b565b811461218957600080fd5b50565b60008135905061219b81612175565b92915050565b6000806000606084860312156121ba576121b9611fec565b5b60006121c88682870161203f565b93505060206121d98682870161203f565b92505060406121ea8682870161218c565b9150509250925092565b6000806040838503121561220b5761220a611fec565b5b60006122198582860161203f565b925050602061222a8582860161218c565b9150509250929050565b61223d816120ad565b82525050565b60006020820190506122586000830184612234565b92915050565b612267816120ad565b811461227257600080fd5b50565b6000813590506122848161225e565b92915050565b6000602082840312156122a05761229f611fec565b5b60006122ae84828501612275565b91505092915050565b6122c081612016565b82525050565b6122cf8161216b565b82525050565b6000610120820190506122eb600083018c6122b7565b6122f8602083018b6122b7565b612305604083018a6122b7565b61231260608301896122c6565b61231f60808301886122c6565b61232c60a08301876122c6565b61233960c08301866122c6565b61234660e08301856122c6565b6123546101008301846122c6565b9a9950505050505050505050565b600061236d82611ff6565b9050919050565b61237d81612362565b82525050565b60006020820190506123986000830184612374565b92915050565b6000602082840312156123b4576123b3611fec565b5b60006123c28482850161218c565b91505092915050565b600080600080608085870312156123e5576123e4611fec565b5b60006123f38782880161203f565b94505060206124048782880161203f565b93505060406124158782880161218c565b92505060606124268782880161218c565b91505092959194509250565b60008060006060848603121561244b5761244a611fec565b5b60006124598682870161203f565b935050602061246a8682870161203f565b925050604061247b8682870161203f565b9150509250925092565b600060208201905061249a60008301846122c6565b92915050565b600080fd5b6000601f19601f8301169050919050565b7f4e487b7100000000000000000000000000000000000000000000000000000000600052604160045260246000fd5b6124ee826124a5565b810181811067ffffffffffffffff8211171561250d5761250c6124b6565b5b80604052505050565b6000612520611fe2565b905061252c82826124e5565b919050565b600067ffffffffffffffff82111561254c5761254b6124b6565b5b602082029050602081019050919050565b600080fd5b600061257561257084612531565b612516565b905080838252602082019050602084028301858111156125985761259761255d565b5b835b818110156125c157806125ad8882612275565b84526020840193505060208101905061259a565b5050509392505050565b600082601f8301126125e0576125df6124a0565b5b81356125f0848260208601612562565b91505092915050565b60006020828403121561260f5761260e611fec565b5b600082013567ffffffffffffffff81111561262d5761262c611ff1565b5b612639848285016125cb565b91505092915050565b600081519050919050565b600082825260208201905092915050565b6000819050602082019050919050565b61267781612016565b82525050565b6126868161216b565b82525050565b610120820160008201516126a3600085018261266e565b5060208201516126b6602085018261266e565b5060408201516126c9604085018261266e565b5060608201516126dc606085018261267d565b5060808201516126ef608085018261267d565b5060a082015161270260a085018261267d565b5060c082015161271560c085018261267d565b5060e082015161272860e085018261267d565b5061010082015161273d61010085018261267d565b50505050565b600061274f838361268c565b6101208301905092915050565b6000602082019050919050565b600061277482612642565b61277e818561264d565b93506127898361265e565b8060005b838110156127ba5781516127a18882612743565b97506127ac8361275c565b92505060018101905061278d565b5085935050505092915050565b600081519050919050565b600082825260208201905092915050565b6000819050602082019050919050565b60006127ff838361267d565b60208301905092915050565b6000602082019050919050565b6000612823826127c7565b61282d81856127d2565b9350612838836127e3565b8060005b8381101561286957815161285088826127f3565b975061285b8361280b565b92505060018101905061283c565b5085935050505092915050565b600081519050919050565b600082825260208201905092915050565b6000819050602082019050919050565b600081519050919050565b600082825260208201905092915050565b60005b838110156128dc5780820151818401526020810190506128c1565b60008484015250505050565b60006128f3826128a2565b6128fd81856128ad565b935061290d8185602086016128be565b612916816124a5565b840191505092915050565b600061292d83836128e8565b905092915050565b6000602082019050919050565b600061294d82612876565b6129578185612881565b93508360208202850161296985612892565b8060005b858110156129a557848403895281516129868582612921565b945061299183612935565b925060208a0199505060018101905061296d565b50829750879550505050505092915050565b600060c08201905081810360008301526129d18189612769565b905081810360208301526129e58188612818565b905081810360408301526129f98187612818565b90508181036060830152612a0d8186612818565b90508181036080830152612a218185612942565b905081810360a0830152612a358184612942565b9050979650505050505050565b7f4e487b7100000000000000000000000000000000000000000000000000000000600052601160045260246000fd5b6000612a7c8261216b565b9150612a878361216b565b9250828202612a958161216b565b91508282048414831517612aac57612aab612a42565b5b5092915050565b7f4e487b7100000000000000000000000000000000000000000000000000000000600052601260045260246000fd5b6000612aed8261216b565b9150612af88361216b565b925082612b0857612b07612ab3565b5b828204905092915050565b6000612b1e8261216b565b9150612b298361216b565b9250828203905081811115612b4157612b40612a42565b5b92915050565b6000612b528261216b565b9150612b5d8361216b565b9250828201905080821115612b7557612b74612a42565b5b92915050565b6000604082019050612b9060008301856122c6565b612b9d60208301846122c6565b9392505050565b60008160601b9050919050565b6000612bbc82612ba4565b9050919050565b6000612bce82612bb1565b9050919050565b612be6612be182612016565b612bc3565b82525050565b6000612bf88286612bd5565b601482019150612c088285612bd5565b601482019150612c188284612bd5565b601482019150819050949350505050565b7f4e487b7100000000000000000000000000000000000000000000000000000000600052603260045260246000fd5b600060ff82169050919050565b612c6e81612c58565b8114612c7957600080fd5b50565b600081519050612c8b81612c65565b92915050565b600060208284031215612ca757612ca6611fec565b5b6000612cb584828501612c7c565b91505092915050565b600080fd5b600067ffffffffffffffff821115612cde57612cdd6124b6565b5b612ce7826124a5565b9050602081019050919050565b6000612d07612d0284612cc3565b612516565b905082815260208101848484011115612d2357612d22612cbe565b5b612d2e8482856128be565b509392505050565b600082601f830112612d4b57612d4a6124a0565b5b8151612d5b848260208601612cf4565b91505092915050565b600060208284031215612d7a57612d79611fec565b5b600082015167ffffffffffffffff811115612d9857612d97611ff1565b5b612da484828501612d36565b91505092915050565b6000606082019050612dc260008301866122b7565b612dcf60208301856122b7565b612ddc60408301846122c6565b949350505050565b60008115159050919050565b612df981612de4565b8114612e0457600080fd5b50565b600081519050612e1681612df0565b92915050565b600060208284031215612e3257612e31611fec565b5b6000612e4084828501612e07565b91505092915050565b600082825260208201905092915050565b7f5361666545524332303a204552433230206f7065726174696f6e20646964206e60008201527f6f74207375636365656400000000000000000000000000000000000000000000602082015250565b6000612eb6602a83612e49565b9150612ec182612e5a565b604082019050919050565b60006020820190508181036000830152612ee581612ea9565b9050919050565b7f416464726573733a20696e73756666696369656e742062616c616e636520666f60008201527f722063616c6c0000000000000000000000000000000000000000000000000000602082015250565b6000612f48602683612e49565b9150612f5382612eec565b604082019050919050565b60006020820190508181036000830152612f7781612f3b565b9050919050565b7f416464726573733a2063616c6c20746f206e6f6e2d636f6e7472616374000000600082015250565b6000612fb4601d83612e49565b9150612fbf82612f7e565b602082019050919050565b60006020820190508181036000830152612fe381612fa7565b9050919050565b600081519050919050565b600081905092915050565b600061300b82612fea565b6130158185612ff5565b93506130258185602086016128be565b80840191505092915050565b600061303d8284613000565b915081905092915050565b6000613053826128a2565b61305d8185612e49565b935061306d8185602086016128be565b613076816124a5565b840191505092915050565b6000602082019050818103600083015261309b8184613048565b90509291505056fea264697066735822122000494eb2801a3d7048e015a082d0268f76fd409b5699d61176abd63bd5e83adc64736f6c63430008180033",
  "linkReferences": {},
  "deployedLinkReferences": {}
}