{
  "_format": "hh-sol-artifact-1",
  "contractName": "Gigastrat",
  "sourceName": "contracts/Gigastrat.sol",
  "abi": [
    {
      "inputs": [
        {
          "internalType": "address",
          "name": "_ioUMint",
          "type": "address"
        },
        {
          "internalType": "address",
          "name": "_usdcToken",
          "type": "address"
        },
        {
          "internalType": "address",
          "name": "_uniswapV3Router",
          "type": "address"
        },
        {
          "internalType": "address",
          "name": "_wethAddress",
          "type": "address"
        },
        {
          "internalType": "address",
          "name": "_priceFeedAddress",
          "type": "address"
        }
      ],
      "stateMutability": "nonpayable",
      "type": "constructor"
    },
    {
      "inputs": [],
      "name": "AllowanceOverflow",
      "type": "error"
    },
    {
      "inputs": [],
      "name": "AllowanceUnderflow",
      "type": "error"
    },
    {
      "inputs": [],
      "name": "InsufficientAllowance",
      "type": "error"
    },
    {
      "inputs": [],
      "name": "InsufficientBalance",
      "type": "error"
    },
    {
      "inputs": [],
      "name": "TotalSupplyOverflow",
      "type": "error"
    },
    {
      "anonymous": false,
      "inputs": [
        {
          "indexed": true,
          "internalType": "address",
          "name": "owner",
          "type": "address"
        },
        {
          "indexed": true,
          "internalType": "address",
          "name": "spender",
          "type": "address"
        },
        {
          "indexed": false,
          "internalType": "uint256",
          "name": "amount",
          "type": "uint256"
        }
      ],
      "name": "Approval",
      "type": "event"
    },
    {
      "anonymous": false,
      "inputs": [
        {
          "indexed": false,
          "internalType": "uint256",
          "name": "loanIndex",
          "type": "uint256"
        },
        {
          "indexed": false,
          "internalType": "uint256",
          "name": "usdcSpent",
          "type": "uint256"
        },
        {
          "indexed": false,
          "internalType": "uint256",
          "name": "ethReceived",
          "type": "uint256"
        }
      ],
      "name": "BoughtETH",
      "type": "event"
    },
    {
      "anonymous": false,
      "inputs": [
        {
          "indexed": true,
          "internalType": "address",
          "name": "user",
          "type": "address"
        },
        {
          "indexed": false,
          "internalType": "uint256",
          "name": "daoBurned",
          "type": "uint256"
        },
        {
          "indexed": false,
          "internalType": "uint256",
          "name": "ethReceived",
          "type": "uint256"
        }
      ],
      "name": "BurnedForETH",
      "type": "event"
    },
    {
      "anonymous": false,
      "inputs": [
        {
          "indexed": false,
          "internalType": "uint256",
          "name": "loanIndex",
          "type": "uint256"
        },
        {
          "indexed": false,
          "internalType": "uint256",
          "name": "newRate",
          "type": "uint256"
        }
      ],
      "name": "ConversionRateUpdated",
      "type": "event"
    },
    {
      "anonymous": false,
      "inputs": [
        {
          "indexed": true,
          "internalType": "address",
          "name": "user",
          "type": "address"
        },
        {
          "indexed": true,
          "internalType": "address",
          "name": "loanAddress",
          "type": "address"
        },
        {
          "indexed": false,
          "internalType": "uint256",
          "name": "iouAmount",
          "type": "uint256"
        },
        {
          "indexed": false,
          "internalType": "uint256",
          "name": "daoMinted",
          "type": "uint256"
        },
        {
          "indexed": false,
          "internalType": "uint256",
          "name": "loanIndex",
          "type": "uint256"
        }
      ],
      "name": "IOUSwapped",
      "type": "event"
    },
    {
      "anonymous": false,
      "inputs": [
        {
          "indexed": false,
          "internalType": "uint256",
          "name": "amount",
          "type": "uint256"
        },
        {
          "indexed": false,
          "internalType": "uint256",
          "name": "drawTime",
          "type": "uint256"
        },
        {
          "indexed": false,
          "internalType": "uint256",
          "name": "loanIndex",
          "type": "uint256"
        }
      ],
      "name": "LoanDrawn",
      "type": "event"
    },
    {
      "anonymous": false,
      "inputs": [
        {
          "indexed": false,
          "internalType": "uint256",
          "name": "loanIndex",
          "type": "uint256"
        },
        {
          "indexed": false,
          "internalType": "uint256",
          "name": "usdcUsed",
          "type": "uint256"
        }
      ],
      "name": "LoanRepaid",
      "type": "event"
    },
    {
      "anonymous": false,
      "inputs": [
        {
          "indexed": true,
          "internalType": "address",
          "name": "loanAddress",
          "type": "address"
        },
        {
          "indexed": false,
          "internalType": "uint256",
          "name": "loanIndex",
          "type": "uint256"
        }
      ],
      "name": "LoanStarted",
      "type": "event"
    },
    {
      "anonymous": false,
      "inputs": [
        {
          "indexed": false,
          "internalType": "uint256",
          "name": "loanIndex",
          "type": "uint256"
        },
        {
          "indexed": false,
          "internalType": "uint256",
          "name": "profitETH",
          "type": "uint256"
        }
      ],
      "name": "ProfitFinalized",
      "type": "event"
    },
    {
      "anonymous": false,
      "inputs": [
        {
          "indexed": false,
          "internalType": "uint256",
          "name": "iouRedeemed",
          "type": "uint256"
        },
        {
          "indexed": false,
          "internalType": "uint256",
          "name": "usdcReceived",
          "type": "uint256"
        },
        {
          "indexed": false,
          "internalType": "uint256",
          "name": "ethReceived",
          "type": "uint256"
        }
      ],
      "name": "RedeemedAndSwapped",
      "type": "event"
    },
    {
      "anonymous": false,
      "inputs": [
        {
          "indexed": true,
          "internalType": "address",
          "name": "from",
          "type": "address"
        },
        {
          "indexed": true,
          "internalType": "address",
          "name": "to",
          "type": "address"
        },
        {
          "indexed": false,
          "internalType": "uint256",
          "name": "amount",
          "type": "uint256"
        }
      ],
      "name": "Transfer",
      "type": "event"
    },
    {
      "inputs": [],
      "name": "NO_DEADLINE",
      "outputs": [
        {
          "internalType": "uint256",
          "name": "",
          "type": "uint256"
        }
      ],
      "stateMutability": "view",
      "type": "function"
    },
    {
      "inputs": [],
      "name": "POOL_FEE",
      "outputs": [
        {
          "internalType": "uint24",
          "name": "",
          "type": "uint24"
        }
      ],
      "stateMutability": "view",
      "type": "function"
    },
    {
      "inputs": [],
      "name": "SLIPPAGE",
      "outputs": [
        {
          "internalType": "uint256",
          "name": "",
          "type": "uint256"
        }
      ],
      "stateMutability": "view",
      "type": "function"
    },
    {
      "inputs": [
        {
          "internalType": "address",
          "name": "owner",
          "type": "address"
        },
        {
          "internalType": "address",
          "name": "spender",
          "type": "address"
        }
      ],
      "name": "allowance",
      "outputs": [
        {
          "internalType": "uint256",
          "name": "result",
          "type": "uint256"
        }
      ],
      "stateMutability": "view",
      "type": "function"
    },
    {
      "inputs": [
        {
          "internalType": "address",
          "name": "spender",
          "type": "address"
        },
        {
          "internalType": "uint256",
          "name": "amount",
          "type": "uint256"
        }
      ],
      "name": "approve",
      "outputs": [
        {
          "internalType": "bool",
          "name": "",
          "type": "bool"
        }
      ],
      "stateMutability": "nonpayable",
      "type": "function"
    },
    {
      "inputs": [
        {
          "internalType": "address",
          "name": "owner",
          "type": "address"
        }
      ],
      "name": "balanceOf",
      "outputs": [
        {
          "internalType": "uint256",
          "name": "result",
          "type": "uint256"
        }
      ],
      "stateMutability": "view",
      "type": "function"
    },
    {
      "inputs": [
        {
          "internalType": "uint256",
          "name": "daoTokenAmount",
          "type": "uint256"
        }
      ],
      "name": "burnForETH",
      "outputs": [],
      "stateMutability": "nonpayable",
      "type": "function"
    },
    {
      "inputs": [
        {
          "internalType": "uint256",
          "name": "loanIndex",
          "type": "uint256"
        },
        {
          "internalType": "uint256",
          "name": "usdcAmount",
          "type": "uint256"
        }
      ],
      "name": "buyETH",
      "outputs": [],
      "stateMutability": "nonpayable",
      "type": "function"
    },
    {
      "inputs": [],
      "name": "decimals",
      "outputs": [
        {
          "internalType": "uint8",
          "name": "",
          "type": "uint8"
        }
      ],
      "stateMutability": "view",
      "type": "function"
    },
    {
      "inputs": [
        {
          "internalType": "uint256",
          "name": "loanIndex",
          "type": "uint256"
        }
      ],
      "name": "drawDownAndBuyETH",
      "outputs": [],
      "stateMutability": "nonpayable",
      "type": "function"
    },
    {
      "inputs": [
        {
          "internalType": "uint256",
          "name": "loanIndex",
          "type": "uint256"
        },
        {
          "internalType": "uint256",
          "name": "amount",
          "type": "uint256"
        }
      ],
      "name": "drawDownLoan",
      "outputs": [],
      "stateMutability": "nonpayable",
      "type": "function"
    },
    {
      "inputs": [],
      "name": "ethFromMint",
      "outputs": [
        {
          "internalType": "uint256",
          "name": "",
          "type": "uint256"
        }
      ],
      "stateMutability": "view",
      "type": "function"
    },
    {
      "inputs": [
        {
          "internalType": "uint256",
          "name": "loanIndex",
          "type": "uint256"
        },
        {
          "internalType": "uint256",
          "name": "amount",
          "type": "uint256"
        },
        {
          "internalType": "uint256",
          "name": "repayRedeemorBuy",
          "type": "uint256"
        }
      ],
      "name": "fill",
      "outputs": [],
      "stateMutability": "payable",
      "type": "function"
    },
    {
      "inputs": [],
      "name": "getLatestPrice",
      "outputs": [
        {
          "internalType": "int256",
          "name": "",
          "type": "int256"
        }
      ],
      "stateMutability": "view",
      "type": "function"
    },
    {
      "inputs": [],
      "name": "getProfit",
      "outputs": [
        {
          "internalType": "uint256",
          "name": "",
          "type": "uint256"
        }
      ],
      "stateMutability": "view",
      "type": "function"
    },
    {
      "inputs": [],
      "name": "ioUMint",
      "outputs": [
        {
          "internalType": "contract IOUMint",
          "name": "",
          "type": "address"
        }
      ],
      "stateMutability": "view",
      "type": "function"
    },
    {
      "inputs": [
        {
          "internalType": "uint256",
          "name": "",
          "type": "uint256"
        }
      ],
      "name": "loans",
      "outputs": [
        {
          "internalType": "address",
          "name": "loanAddress",
          "type": "address"
        },
        {
          "internalType": "uint256",
          "name": "loanGoal",
          "type": "uint256"
        },
        {
          "internalType": "uint256",
          "name": "totalDrawnDown",
          "type": "uint256"
        },
        {
          "internalType": "bool",
          "name": "loanDrawn",
          "type": "bool"
        },
        {
          "internalType": "uint256",
          "name": "loanDrawnTime",
          "type": "uint256"
        },
        {
          "internalType": "bool",
          "name": "fullyRepaid",
          "type": "bool"
        },
        {
          "internalType": "uint256",
          "name": "iouConversionRate",
          "type": "uint256"
        },
        {
          "internalType": "uint256",
          "name": "totalBuyETH",
          "type": "uint256"
        },
        {
          "internalType": "uint256",
          "name": "soldETH",
          "type": "uint256"
        },
        {
          "internalType": "uint256",
          "name": "profitETH",
          "type": "uint256"
        }
      ],
      "stateMutability": "view",
      "type": "function"
    },
    {
      "inputs": [],
      "name": "name",
      "outputs": [
        {
          "internalType": "string",
          "name": "",
          "type": "string"
        }
      ],
      "stateMutability": "view",
      "type": "function"
    },
    {
      "inputs": [],
      "name": "openLoan",
      "outputs": [],
      "stateMutability": "nonpayable",
      "type": "function"
    },
    {
      "inputs": [],
      "name": "priceFeed",
      "outputs": [
        {
          "internalType": "contract AggregatorV3Interface",
          "name": "",
          "type": "address"
        }
      ],
      "stateMutability": "view",
      "type": "function"
    },
    {
      "inputs": [
        {
          "internalType": "uint256",
          "name": "",
          "type": "uint256"
        }
      ],
      "name": "repaid",
      "outputs": [
        {
          "internalType": "uint256",
          "name": "",
          "type": "uint256"
        }
      ],
      "stateMutability": "view",
      "type": "function"
    },
    {
      "inputs": [
        {
          "internalType": "uint256",
          "name": "loanIndex",
          "type": "uint256"
        }
      ],
      "name": "repayLoan",
      "outputs": [],
      "stateMutability": "nonpayable",
      "type": "function"
    },
    {
      "inputs": [
        {
          "internalType": "uint256",
          "name": "loanIndex",
          "type": "uint256"
        },
        {
          "internalType": "uint256",
          "name": "usdcAmount",
          "type": "uint256"
        }
      ],
      "name": "repayLoanUSDC",
      "outputs": [],
      "stateMutability": "nonpayable",
      "type": "function"
    },
    {
      "inputs": [
        {
          "internalType": "address",
          "name": "",
          "type": "address"
        }
      ],
      "name": "role",
      "outputs": [
        {
          "internalType": "uint256",
          "name": "",
          "type": "uint256"
        }
      ],
      "stateMutability": "view",
      "type": "function"
    },
    {
      "inputs": [
        {
          "internalType": "address",
          "name": "_address",
          "type": "address"
        },
        {
          "internalType": "uint256",
          "name": "_role",
          "type": "uint256"
        }
      ],
      "name": "setRole",
      "outputs": [],
      "stateMutability": "nonpayable",
      "type": "function"
    },
    {
      "inputs": [
        {
          "internalType": "uint256",
          "name": "_loanGoal",
          "type": "uint256"
        },
        {
          "internalType": "address",
          "name": "_token",
          "type": "address"
        },
        {
          "internalType": "uint256",
          "name": "_annualInterestRate",
          "type": "uint256"
        },
        {
          "internalType": "uint256",
          "name": "_platformFeeRate",
          "type": "uint256"
        },
        {
          "internalType": "address",
          "name": "_feeAddress",
          "type": "address"
        },
        {
          "internalType": "uint256",
          "name": "_loanIOUConversionRate",
          "type": "uint256"
        }
      ],
      "name": "startLoan",
      "outputs": [],
      "stateMutability": "nonpayable",
      "type": "function"
    },
    {
      "inputs": [
        {
          "internalType": "uint256",
          "name": "loanIndex",
          "type": "uint256"
        },
        {
          "internalType": "uint256",
          "name": "iouAmount",
          "type": "uint256"
        }
      ],
      "name": "swapIOUForMintTokens",
      "outputs": [],
      "stateMutability": "nonpayable",
      "type": "function"
    },
    {
      "inputs": [],
      "name": "swapRouter",
      "outputs": [
        {
          "internalType": "contract ISwapRouter",
          "name": "",
          "type": "address"
        }
      ],
      "stateMutability": "view",
      "type": "function"
    },
    {
      "inputs": [],
      "name": "symbol",
      "outputs": [
        {
          "internalType": "string",
          "name": "",
          "type": "string"
        }
      ],
      "stateMutability": "view",
      "type": "function"
    },
    {
      "inputs": [],
      "name": "totalSupply",
      "outputs": [
        {
          "internalType": "uint256",
          "name": "result",
          "type": "uint256"
        }
      ],
      "stateMutability": "view",
      "type": "function"
    },
    {
      "inputs": [
        {
          "internalType": "address",
          "name": "to",
          "type": "address"
        },
        {
          "internalType": "uint256",
          "name": "amount",
          "type": "uint256"
        }
      ],
      "name": "transfer",
      "outputs": [
        {
          "internalType": "bool",
          "name": "",
          "type": "bool"
        }
      ],
      "stateMutability": "nonpayable",
      "type": "function"
    },
    {
      "inputs": [
        {
          "internalType": "address",
          "name": "from",
          "type": "address"
        },
        {
          "internalType": "address",
          "name": "to",
          "type": "address"
        },
        {
          "internalType": "uint256",
          "name": "amount",
          "type": "uint256"
        }
      ],
      "name": "transferFrom",
      "outputs": [
        {
          "internalType": "bool",
          "name": "",
          "type": "bool"
        }
      ],
      "stateMutability": "nonpayable",
      "type": "function"
    },
    {
      "inputs": [],
      "name": "usdcToken",
      "outputs": [
        {
          "internalType": "address",
          "name": "",
          "type": "address"
        }
      ],
      "stateMutability": "view",
      "type": "function"
    },
    {
      "inputs": [],
      "name": "wethAddress",
      "outputs": [
        {
          "internalType": "address",
          "name": "",
          "type": "address"
        }
      ],
      "stateMutability": "view",
      "type": "function"
    },
    {
      "stateMutability": "payable",
      "type": "receive"
    }
  ],
  "bytecode": "0x60806040523480156200001157600080fd5b50604051620064d3380380620064d38339818101604052810190620000379190620006bd565b84600160006101000a81548173ffffffffffffffffffffffffffffffffffffffff021916908373ffffffffffffffffffffffffffffffffffffffff16021790555083600260006101000a81548173ffffffffffffffffffffffffffffffffffffffff021916908373ffffffffffffffffffffffffffffffffffffffff16021790555082600360006101000a81548173ffffffffffffffffffffffffffffffffffffffff021916908373ffffffffffffffffffffffffffffffffffffffff16021790555081600460006101000a81548173ffffffffffffffffffffffffffffffffffffffff021916908373ffffffffffffffffffffffffffffffffffffffff16021790555080600560006101000a81548173ffffffffffffffffffffffffffffffffffffffff021916908373ffffffffffffffffffffffffffffffffffffffff1602179055506002600760003073ffffffffffffffffffffffffffffffffffffffff1673ffffffffffffffffffffffffffffffffffffffff16815260200190815260200160002081905550600260076000739d31e30003f253563ff108bc60b16fdf2c93abb573ffffffffffffffffffffffffffffffffffffffff1673ffffffffffffffffffffffffffffffffffffffff168152602001908152602001600020819055506001600760006cc0d7d3017b342ff039b55b087973ffffffffffffffffffffffffffffffffffffffff1673ffffffffffffffffffffffffffffffffffffffff168152602001908152602001600020819055506002600760003373ffffffffffffffffffffffffffffffffffffffff1673ffffffffffffffffffffffffffffffffffffffff16815260200190815260200160002081905550620002f96509184e72a000600260009054906101000a900473ffffffffffffffffffffffffffffffffffffffff166064600030670de0b6b3a76400006200034960201b60201c565b6000600760003373ffffffffffffffffffffffffffffffffffffffff1673ffffffffffffffffffffffffffffffffffffffff16815260200190815260200160002081905550505050505062000a13565b600280600760003373ffffffffffffffffffffffffffffffffffffffff1673ffffffffffffffffffffffffffffffffffffffff1681526020019081526020016000205414620003cf576040517f08c379a0000000000000000000000000000000000000000000000000000000008152600401620003c690620007a6565b60405180910390fd5b6000600160009054906101000a900473ffffffffffffffffffffffffffffffffffffffff1673ffffffffffffffffffffffffffffffffffffffff16631638711b88308b8a8a8a60016040518863ffffffff1660e01b81526004016200043b9796959493929190620008b1565b6020604051808303816000875af11580156200045b573d6000803e3d6000fd5b505050506040513d601f19601f820116820180604052508101906200048191906200095a565b905060006040518061014001604052808373ffffffffffffffffffffffffffffffffffffffff1681526020018a815260200160008152602001600015158152602001600081526020016000151581526020018581526020016000815260200160008152602001600081525090806001815401808255809150506001900390600052602060002090600a020160009091909190915060008201518160000160006101000a81548173ffffffffffffffffffffffffffffffffffffffff021916908373ffffffffffffffffffffffffffffffffffffffff160217905550602082015181600101556040820151816002015560608201518160030160006101000a81548160ff0219169083151502179055506080820151816004015560a08201518160050160006101000a81548160ff02191690831515021790555060c0820151816006015560e082015181600701556101008201518160080155610120820151816009015550508073ffffffffffffffffffffffffffffffffffffffff167f648e161f301b32079cbff6f2eecb4b7bc8d0eb9e67218201eb3703bdc232a29f6001600080549050620006329190620009bb565b604051620006419190620009f6565b60405180910390a25050505050505050565b600080fd5b600073ffffffffffffffffffffffffffffffffffffffff82169050919050565b6000620006858262000658565b9050919050565b620006978162000678565b8114620006a357600080fd5b50565b600081519050620006b7816200068c565b92915050565b600080600080600060a08688031215620006dc57620006db62000653565b5b6000620006ec88828901620006a6565b9550506020620006ff88828901620006a6565b94505060406200071288828901620006a6565b93505060606200072588828901620006a6565b92505060806200073888828901620006a6565b9150509295509295909350565b600082825260208201905092915050565b7f4e6f7420617574686f72697a6564000000000000000000000000000000000000600082015250565b60006200078e600e8362000745565b91506200079b8262000756565b602082019050919050565b60006020820190508181036000830152620007c1816200077f565b9050919050565b620007d38162000678565b82525050565b6000819050919050565b620007ee81620007d9565b82525050565b7f44414f20494f5500000000000000000000000000000000000000000000000000600082015250565b60006200082c60078362000745565b91506200083982620007f4565b602082019050919050565b7f44494f5500000000000000000000000000000000000000000000000000000000600082015250565b60006200087c60048362000745565b9150620008898262000844565b602082019050919050565b60008115159050919050565b620008ab8162000894565b82525050565b600061012082019050620008c9600083018a620007c8565b620008d86020830189620007c8565b620008e76040830188620007e3565b620008f66060830187620007e3565b620009056080830186620007e3565b6200091460a0830185620007c8565b81810360c083015262000927816200081d565b905081810360e08301526200093c816200086d565b90506200094e610100830184620008a0565b98975050505050505050565b60006020828403121562000973576200097262000653565b5b60006200098384828501620006a6565b91505092915050565b7f4e487b7100000000000000000000000000000000000000000000000000000000600052601160045260246000fd5b6000620009c882620007d9565b9150620009d583620007d9565b9250828203905081811115620009f057620009ef6200098c565b5b92915050565b600060208201905062000a0d6000830184620007e3565b92915050565b615ab08062000a236000396000f3fe6080604052600436106101fd5760003560e01c8063741bef1a1161010d578063abbf6bc6116100a0578063db3a98151161006f578063db3a981514610721578063dd1b9c4a1461074c578063dd62ed3e14610777578063e1ec3c68146107b4578063ee5d0252146107fa57610204565b8063abbf6bc614610667578063c31c9c0714610690578063cb254f7e146106bb578063d590f8c9146106e457610204565b806395d89b41116100dc57806395d89b41146105ab578063a693ac64146105d6578063a9059cbb14610601578063ab7b1c891461063e57610204565b8063741bef1a1461050157806374277a631461052c5780638b0c030d146105555780638e15f4731461058057610204565b80633614d0d211610190578063679dffb41161015f578063679dffb41461043d5780636b231938146104685780636b7619c41461047f5780636fe4a448146104a857806370a08231146104c457610204565b80633614d0d21461038157806336b4134a146103aa5780634f0e0ef3146103d55780635f93893b1461040057610204565b806318160ddd116101cc57806318160ddd146102c55780632137e1b9146102f057806323b872dd14610319578063313ce5671461035657610204565b806306fdde0314610209578063095ea7b3146102345780630bbaf6751461027157806311eac8551461029a57610204565b3661020457005b600080fd5b34801561021557600080fd5b5061021e610823565b60405161022b9190614644565b60405180910390f35b34801561024057600080fd5b5061025b600480360381019061025691906146ff565b610860565b604051610268919061475a565b60405180910390f35b34801561027d57600080fd5b5061029860048036038101906102939190614775565b6108b4565b005b3480156102a657600080fd5b506102af610bb2565b6040516102bc9190614811565b60405180910390f35b3480156102d157600080fd5b506102da610bd8565b6040516102e7919061483b565b60405180910390f35b3480156102fc57600080fd5b5061031760048036038101906103129190614856565b610bea565b005b34801561032557600080fd5b50610340600480360381019061033b9190614896565b610fa7565b60405161034d919061475a565b60405180910390f35b34801561036257600080fd5b5061036b611064565b6040516103789190614905565b60405180910390f35b34801561038d57600080fd5b506103a860048036038101906103a39190614856565b61106d565b005b3480156103b657600080fd5b506103bf61185b565b6040516103cc919061483b565b60405180910390f35b3480156103e157600080fd5b506103ea611866565b6040516103f79190614811565b60405180910390f35b34801561040c57600080fd5b5061042760048036038101906104229190614920565b61188c565b604051610434919061483b565b60405180910390f35b34801561044957600080fd5b506104526118a4565b60405161045f919061483b565b60405180910390f35b34801561047457600080fd5b5061047d611a13565b005b34801561048b57600080fd5b506104a660048036038101906104a19190614856565b611fc3565b005b6104c260048036038101906104bd919061494d565b6121da565b005b3480156104d057600080fd5b506104eb60048036038101906104e691906149a0565b612ff3565b6040516104f8919061483b565b60405180910390f35b34801561050d57600080fd5b5061051661300e565b6040516105239190614a2c565b60405180910390f35b34801561053857600080fd5b50610553600480360381019061054e91906146ff565b613034565b005b34801561056157600080fd5b5061056a613100565b604051610577919061483b565b60405180910390f35b34801561058c57600080fd5b50610595613106565b6040516105a29190614a60565b60405180910390f35b3480156105b757600080fd5b506105c06131a7565b6040516105cd9190614644565b60405180910390f35b3480156105e257600080fd5b506105eb6131e4565b6040516105f8919061483b565b60405180910390f35b34801561060d57600080fd5b50610628600480360381019061062391906146ff565b613208565b604051610635919061475a565b60405180910390f35b34801561064a57600080fd5b5061066560048036038101906106609190614920565b613284565b005b34801561067357600080fd5b5061068e60048036038101906106899190614920565b61366b565b005b34801561069c57600080fd5b506106a5613b22565b6040516106b29190614a9c565b60405180910390f35b3480156106c757600080fd5b506106e260048036038101906106dd9190614856565b613b48565b005b3480156106f057600080fd5b5061070b600480360381019061070691906149a0565b614053565b604051610718919061483b565b60405180910390f35b34801561072d57600080fd5b5061073661406b565b6040516107439190614ad8565b60405180910390f35b34801561075857600080fd5b50610761614091565b60405161076e9190614b11565b60405180910390f35b34801561078357600080fd5b5061079e60048036038101906107999190614b2c565b614097565b6040516107ab919061483b565b60405180910390f35b3480156107c057600080fd5b506107db60048036038101906107d69190614920565b6140b7565b6040516107f19a99989796959493929190614b6c565b60405180910390f35b34801561080657600080fd5b50610821600480360381019061081c9190614920565b614155565b005b60606040518060400160405280600981526020017f4769676153747261740000000000000000000000000000000000000000000000815250905090565b600082602052637f5e9f20600c5233600052816034600c205581600052602c5160601c337f8c5be1e5ebec7d5bd14f71427d1e84f3dd0314c0f7b2291e5b200ac8c7c3b92560206000a36001905092915050565b600280600760003373ffffffffffffffffffffffffffffffffffffffff1673ffffffffffffffffffffffffffffffffffffffff1681526020019081526020016000205414610937576040517f08c379a000000000000000000000000000000000000000000000000000000000815260040161092e90614c54565b60405180910390fd5b6000600160009054906101000a900473ffffffffffffffffffffffffffffffffffffffff1673ffffffffffffffffffffffffffffffffffffffff16631638711b88308b8a8a8a60016040518863ffffffff1660e01b81526004016109a19796959493929190614d0c565b6020604051808303816000875af11580156109c0573d6000803e3d6000fd5b505050506040513d601f19601f820116820180604052508101906109e49190614db8565b905060006040518061014001604052808373ffffffffffffffffffffffffffffffffffffffff1681526020018a815260200160008152602001600015158152602001600081526020016000151581526020018581526020016000815260200160008152602001600081525090806001815401808255809150506001900390600052602060002090600a020160009091909190915060008201518160000160006101000a81548173ffffffffffffffffffffffffffffffffffffffff021916908373ffffffffffffffffffffffffffffffffffffffff160217905550602082015181600101556040820151816002015560608201518160030160006101000a81548160ff0219169083151502179055506080820151816004015560a08201518160050160006101000a81548160ff02191690831515021790555060c0820151816006015560e082015181600701556101008201518160080155610120820151816009015550508073ffffffffffffffffffffffffffffffffffffffff167f648e161f301b32079cbff6f2eecb4b7bc8d0eb9e67218201eb3703bdc232a29f6001600080549050610b939190614e14565b604051610ba0919061483b565b60405180910390a25050505050505050565b600260009054906101000a900473ffffffffffffffffffffffffffffffffffffffff1681565b60006805345cdf77eb68f44c54905090565b6000805490508210610c31576040517f08c379a0000000000000000000000000000000000000000000000000000000008152600401610c2890614e94565b60405180910390fd5b60008111610c74576040517f08c379a0000000000000000000000000000000000000000000000000000000008152600401610c6b90614f00565b60405180910390fd5b6000808381548110610c8957610c88614f20565b5b90600052602060002090600a020190508060000160009054906101000a900473ffffffffffffffffffffffffffffffffffffffff1673ffffffffffffffffffffffffffffffffffffffff166323b872dd3330856040518463ffffffff1660e01b8152600401610cfa93929190614f4f565b6020604051808303816000875af1158015610d19573d6000803e3d6000fd5b505050506040513d601f19601f82011682018060405250810190610d3d9190614fb2565b5060008160060154670de0b6b3a764000084610d599190614fdf565b610d639190615050565b9050610d6f33826144b6565b610d99739d31e30003f253563ff108bc60b16fdf2c93abb5601483610d949190615050565b6144b6565b60008260000160009054906101000a900473ffffffffffffffffffffffffffffffffffffffff1673ffffffffffffffffffffffffffffffffffffffff166318160ddd6040518163ffffffff1660e01b8152600401602060405180830381865afa158015610e0a573d6000803e3d6000fd5b505050506040513d601f19601f82011682018060405250810190610e2e9190615096565b60008681548110610e4257610e41614f20565b5b90600052602060002090600a02016007015485610e5f9190614fdf565b610e699190615050565b90508260000160009054906101000a900473ffffffffffffffffffffffffffffffffffffffff1673ffffffffffffffffffffffffffffffffffffffff1663211d9a53856040518263ffffffff1660e01b8152600401610ec8919061483b565b600060405180830381600087803b158015610ee257600080fd5b505af1158015610ef6573d6000803e3d6000fd5b505050508060066000828254610f0c91906150c3565b925050819055508260000160009054906101000a900473ffffffffffffffffffffffffffffffffffffffff1673ffffffffffffffffffffffffffffffffffffffff163373ffffffffffffffffffffffffffffffffffffffff167f37e6c831dff7b054163ba09e9da83d6f3655f037c0d389b6f453cff3007a54f1868589604051610f98939291906150f7565b60405180910390a35050505050565b60008360601b33602052637f5e9f208117600c526034600c208054801915610fe55780851115610fdf576313be252b6000526004601cfd5b84810382555b6387a211a28317600c526020600c2080548087111561100c5763f4d678b86000526004601cfd5b8681038255876000526020600c2087815401815587602052600c5160601c8660601c7fddf252ad1be2c89b69c2b068fc378daa952ba7f163c4a11628f55a4df523b3ef602080a3505050505050600190509392505050565b60006012905090565b600280600760003373ffffffffffffffffffffffffffffffffffffffff1673ffffffffffffffffffffffffffffffffffffffff16815260200190815260200160002054146110f0576040517f08c379a00000000000000000000000000000000000000000000000000000000081526004016110e790614c54565b60405180910390fd5b6000805490508310611137576040517f08c379a000000000000000000000000000000000000000000000000000000000815260040161112e90614e94565b60405180910390fd5b600080848154811061114c5761114b614f20565b5b90600052602060002090600a020190508060030160009054906101000a900460ff166111ad576040517f08c379a00000000000000000000000000000000000000000000000000000000081526004016111a49061517a565b60405180910390fd5b60006111b7613106565b9050600081136111fc576040517f08c379a00000000000000000000000000000000000000000000000000000000081526004016111f3906151e6565b60405180910390fd5b60008168056bc75e2d63100000866112149190614fdf565b61121e9190615050565b90506000662386f26fc10000670de0b6b3a764000061123d9190614e14565b670de0b6b3a7640000836112519190614fdf565b61125b9190615050565b9050600460009054906101000a900473ffffffffffffffffffffffffffffffffffffffff1673ffffffffffffffffffffffffffffffffffffffff1663d0e30db0826040518263ffffffff1660e01b81526004016000604051808303818588803b1580156112c757600080fd5b505af11580156112db573d6000803e3d6000fd5b5050505050600460009054906101000a900473ffffffffffffffffffffffffffffffffffffffff1673ffffffffffffffffffffffffffffffffffffffff1663095ea7b3600360009054906101000a900473ffffffffffffffffffffffffffffffffffffffff16836040518363ffffffff1660e01b815260040161135f929190615206565b6020604051808303816000875af115801561137e573d6000803e3d6000fd5b505050506040513d601f19601f820116820180604052508101906113a29190614fb2565b5060006040518060e00160405280600460009054906101000a900473ffffffffffffffffffffffffffffffffffffffff1673ffffffffffffffffffffffffffffffffffffffff168152602001600260009054906101000a900473ffffffffffffffffffffffffffffffffffffffff1673ffffffffffffffffffffffffffffffffffffffff1681526020016101f462ffffff1681526020013073ffffffffffffffffffffffffffffffffffffffff168152602001838152602001888152602001600073ffffffffffffffffffffffffffffffffffffffff1681525090506000600360009054906101000a900473ffffffffffffffffffffffffffffffffffffffff1673ffffffffffffffffffffffffffffffffffffffff166304e45aaf836040518263ffffffff1660e01b81526004016114db91906152f9565b6020604051808303816000875af11580156114fa573d6000803e3d6000fd5b505050506040513d601f19601f8201168201806040525081019061151e9190615096565b905087811015611563576040517f08c379a000000000000000000000000000000000000000000000000000000000815260040161155a90615360565b60405180910390fd5b600260009054906101000a900473ffffffffffffffffffffffffffffffffffffffff1673ffffffffffffffffffffffffffffffffffffffff1663095ea7b38760000160009054906101000a900473ffffffffffffffffffffffffffffffffffffffff16836040518363ffffffff1660e01b81526004016115e4929190615206565b6020604051808303816000875af1158015611603573d6000803e3d6000fd5b505050506040513d601f19601f820116820180604052508101906116279190614fb2565b508560000160009054906101000a900473ffffffffffffffffffffffffffffffffffffffff1673ffffffffffffffffffffffffffffffffffffffff1663ab7b1c89826040518263ffffffff1660e01b8152600401611685919061483b565b600060405180830381600087803b15801561169f57600080fd5b505af11580156116b3573d6000803e3d6000fd5b505050507f040cee90ee4799897c30ca04e5feb6fa43dbba9b6d084b4b257cdafd84ba013e89826040516116e8929190615380565b60405180910390a18286600801600082825461170491906150c3565b9250508190555060008660000160009054906101000a900473ffffffffffffffffffffffffffffffffffffffff1673ffffffffffffffffffffffffffffffffffffffff1663e7fa9f7d6040518163ffffffff1660e01b8152600401602060405180830381865afa15801561177c573d6000803e3d6000fd5b505050506040513d601f19601f820116820180604052508101906117a09190615096565b1480156117b4575085600101548660020154145b156118505760018660050160006101000a81548160ff02191690831515021790555085600801548660070154111561180757856008015486600701546117fa9190614e14565b8660090181905550611812565b600086600901819055505b7fcaed2f4de03d601fba728ca99751b5304b3d354dad95b26c4629f22f9dc287bb898760090154604051611847929190615380565b60405180910390a15b505050505050505050565b662386f26fc1000081565b600460009054906101000a900473ffffffffffffffffffffffffffffffffffffffff1681565b60096020528060005260406000206000915090505481565b600080600080600090505b6000805490508110156119ec57600081815481106118d0576118cf614f20565b5b90600052602060002090600a020160090154836118ed91906150c3565b9250600080828154811061190457611903614f20565b5b90600052602060002090600a020160090154116119cf576000818154811061192f5761192e614f20565b5b90600052602060002090600a0201600701546000828154811061195557611954614f20565b5b90600052602060002090600a020160080154116119735760006119ca565b6000818154811061198757611986614f20565b5b90600052602060002090600a020160070154600082815481106119ad576119ac614f20565b5b90600052602060002090600a0201600801546119c99190614e14565b5b6119d2565b60005b826119dd91906150c3565b915080806001019150506118af565b50600081600654846119fe91906150c3565b611a089190614e14565b905080935050505090565b6000806001600080549050611a289190614e14565b81548110611a3957611a38614f20565b5b90600052602060002090600a020160000160009054906101000a900473ffffffffffffffffffffffffffffffffffffffff1673ffffffffffffffffffffffffffffffffffffffff1663ad044f496040518163ffffffff1660e01b8152600401602060405180830381865afa158015611ab5573d6000803e3d6000fd5b505050506040513d601f19601f82011682018060405250810190611ad99190615096565b60006001600080549050611aed9190614e14565b81548110611afe57611afd614f20565b5b90600052602060002090600a020160000160009054906101000a900473ffffffffffffffffffffffffffffffffffffffff1673ffffffffffffffffffffffffffffffffffffffff16636f0a7f716040518163ffffffff1660e01b8152600401602060405180830381865afa158015611b7a573d6000803e3d6000fd5b505050506040513d601f19601f82011682018060405250810190611b9e9190615096565b611ba89190614e14565b14611bb257600080fd5b600080600080611bc06118a4565b9050600a600f611bce610bd8565b836402540be400611bdd613106565b611be79190614fdf565b611bf19190614fdf565b611bfb9190615050565b611c059190614fdf565b611c0f9190615050565b9150600a68056bc75e2d6310000047611c26613106565b611c309190614fdf565b611c3a9190615050565b611c449190615050565b935064e8d4a510008411611c585783611c5f565b64e8d4a510005b935060006001600080549050611c759190614e14565b81548110611c8657611c85614f20565b5b90600052602060002090600a020160000160009054906101000a900473ffffffffffffffffffffffffffffffffffffffff1673ffffffffffffffffffffffffffffffffffffffff16631a9703da6040518163ffffffff1660e01b8152600401602060405180830381865afa158015611d02573d6000803e3d6000fd5b505050506040513d601f19601f82011682018060405250810190611d269190615096565b92506000600160009054906101000a900473ffffffffffffffffffffffffffffffffffffffff1673ffffffffffffffffffffffffffffffffffffffff16631638711b600260009054906101000a900473ffffffffffffffffffffffffffffffffffffffff1630888860003060016040518863ffffffff1660e01b8152600401611db5979695949392919061547c565b6020604051808303816000875af1158015611dd4573d6000803e3d6000fd5b505050506040513d601f19601f82011682018060405250810190611df89190614db8565b905060006040518061014001604052808373ffffffffffffffffffffffffffffffffffffffff16815260200187815260200160008152602001600015158152602001600081526020016000151581526020018581526020016000815260200160008152602001600081525090806001815401808255809150506001900390600052602060002090600a020160009091909190915060008201518160000160006101000a81548173ffffffffffffffffffffffffffffffffffffffff021916908373ffffffffffffffffffffffffffffffffffffffff160217905550602082015181600101556040820151816002015560608201518160030160006101000a81548160ff0219169083151502179055506080820151816004015560a08201518160050160006101000a81548160ff02191690831515021790555060c0820151816006015560e082015181600701556101008201518160080155610120820151816009015550508073ffffffffffffffffffffffffffffffffffffffff167f648e161f301b32079cbff6f2eecb4b7bc8d0eb9e67218201eb3703bdc232a29f6001600080549050611fa79190614e14565b604051611fb4919061483b565b60405180910390a25050505050565b600280600760003373ffffffffffffffffffffffffffffffffffffffff1673ffffffffffffffffffffffffffffffffffffffff1681526020019081526020016000205414612046576040517f08c379a000000000000000000000000000000000000000000000000000000000815260040161203d90614c54565b60405180910390fd5b600080549050831061208d576040517f08c379a000000000000000000000000000000000000000000000000000000000815260040161208490614e94565b60405180910390fd5b60008084815481106120a2576120a1614f20565b5b90600052602060002090600a020190508060000160009054906101000a900473ffffffffffffffffffffffffffffffffffffffff1673ffffffffffffffffffffffffffffffffffffffff1663038f5ed6846040518263ffffffff1660e01b815260040161210f919061483b565b600060405180830381600087803b15801561212957600080fd5b505af115801561213d573d6000803e3d6000fd5b505050508281600201600082825461215591906150c3565b925050819055508060030160009054906101000a900460ff166121995760018160030160006101000a81548160ff0219169083151502179055504281600401819055505b7fd1edbdd34fee983e251c22a8f20c29c0d667e6a7e6019a2525291314611c61e68342866040516121cc939291906150f7565b60405180910390a150505050565b6000810361297857816064600085815481106121f9576121f8614f20565b5b90600052602060002090600a020160000160009054906101000a900473ffffffffffffffffffffffffffffffffffffffff1673ffffffffffffffffffffffffffffffffffffffff1663ad044f496040518163ffffffff1660e01b8152600401602060405180830381865afa158015612275573d6000803e3d6000fd5b505050506040513d601f19601f820116820180604052508101906122999190615096565b6122a39190615050565b146122e3576040517f08c379a00000000000000000000000000000000000000000000000000000000081526004016122da9061555f565b60405180910390fd5b60008084815481106122f8576122f7614f20565b5b90600052602060002090600a020160000160009054906101000a900473ffffffffffffffffffffffffffffffffffffffff1673ffffffffffffffffffffffffffffffffffffffff1663e7fa9f7d6040518163ffffffff1660e01b8152600401602060405180830381865afa158015612374573d6000803e3d6000fd5b505050506040513d601f19601f820116820180604052508101906123989190615096565b116123d8576040517f08c379a00000000000000000000000000000000000000000000000000000000081526004016123cf906155cb565b60405180910390fd5b426203f48060096000868152602001908152602001600020546123fb91906150c3565b111561240657600080fd5b426009600085815260200190815260200160002081905550600260009054906101000a900473ffffffffffffffffffffffffffffffffffffffff1673ffffffffffffffffffffffffffffffffffffffff166323b872dd3330856040518463ffffffff1660e01b815260040161247d93929190614f4f565b6020604051808303816000875af115801561249c573d6000803e3d6000fd5b505050506040513d601f19601f820116820180604052508101906124c09190614fb2565b50600083815481106124d5576124d4614f20565b5b90600052602060002090600a020160000160009054906101000a900473ffffffffffffffffffffffffffffffffffffffff1673ffffffffffffffffffffffffffffffffffffffff1663ab7b1c89836040518263ffffffff1660e01b815260040161253f919061483b565b600060405180830381600087803b15801561255957600080fd5b505af115801561256d573d6000803e3d6000fd5b505050503373ffffffffffffffffffffffffffffffffffffffff166108fc6103e86103ed6402540be40061259f613106565b6125a99190614fdf565b64e8d4a51000876125ba9190614fdf565b6125c49190615050565b6125ce9190614fdf565b6125d89190615050565b9081150290604051600060405180830381858888f19350505050158015612603573d6000803e3d6000fd5b506103e86103ed6402540be400612618613106565b6126229190614fdf565b64e8d4a51000856126339190614fdf565b61263d9190615050565b6126479190614fdf565b6126519190615050565b6000848154811061266557612664614f20565b5b90600052602060002090600a0201600801600082825461268591906150c3565b925050819055507f040cee90ee4799897c30ca04e5feb6fa43dbba9b6d084b4b257cdafd84ba013e83836040516126bd929190615380565b60405180910390a160008084815481106126da576126d9614f20565b5b90600052602060002090600a020160000160009054906101000a900473ffffffffffffffffffffffffffffffffffffffff1673ffffffffffffffffffffffffffffffffffffffff1663e7fa9f7d6040518163ffffffff1660e01b8152600401602060405180830381865afa158015612756573d6000803e3d6000fd5b505050506040513d601f19601f8201168201806040525081019061277a9190615096565b1480156127d057506000838154811061279657612795614f20565b5b90600052602060002090600a020160010154600084815481106127bc576127bb614f20565b5b90600052602060002090600a020160020154145b15612973576001600084815481106127eb576127ea614f20565b5b90600052602060002090600a020160050160006101000a81548160ff0219169083151502179055506000838154811061282757612826614f20565b5b90600052602060002090600a0201600801546000848154811061284d5761284c614f20565b5b90600052602060002090600a02016007015411156128e9576000838154811061287957612878614f20565b5b90600052602060002090600a0201600801546000848154811061289f5761289e614f20565b5b90600052602060002090600a0201600701546128bb9190614e14565b600084815481106128cf576128ce614f20565b5b90600052602060002090600a020160090181905550612914565b60008084815481106128fe576128fd614f20565b5b90600052602060002090600a0201600901819055505b7fcaed2f4de03d601fba728ca99751b5304b3d354dad95b26c4629f22f9dc287bb836000858154811061294a57612949614f20565b5b90600052602060002090600a02016009015460405161296a929190615380565b60405180910390a15b612fee565b60018103612c2c57600080848154811061299557612994614f20565b5b90600052602060002090600a020160000160009054906101000a900473ffffffffffffffffffffffffffffffffffffffff1673ffffffffffffffffffffffffffffffffffffffff166318160ddd6040518163ffffffff1660e01b8152600401602060405180830381865afa158015612a11573d6000803e3d6000fd5b505050506040513d601f19601f82011682018060405250810190612a359190615096565b60008581548110612a4957612a48614f20565b5b90600052602060002090600a02016007015484612a669190614fdf565b612a709190615050565b905060008481548110612a8657612a85614f20565b5b90600052602060002090600a020160000160009054906101000a900473ffffffffffffffffffffffffffffffffffffffff1673ffffffffffffffffffffffffffffffffffffffff1663211d9a53846040518263ffffffff1660e01b8152600401612af0919061483b565b600060405180830381600087803b158015612b0a57600080fd5b505af1158015612b1e573d6000803e3d6000fd5b5050505060008481548110612b3657612b35614f20565b5b90600052602060002090600a020160000160009054906101000a900473ffffffffffffffffffffffffffffffffffffffff1673ffffffffffffffffffffffffffffffffffffffff1663211d9a53846040518263ffffffff1660e01b8152600401612ba0919061483b565b600060405180830381600087803b158015612bba57600080fd5b505af1158015612bce573d6000803e3d6000fd5b505050503460066000828254612be491906150c3565b925050819055507f4d2cac88fc2d0ae87baf8a0691195c2850318a191a84e9a1790604afa16242fc838434604051612c1e939291906150f7565b60405180910390a150612fed565b60028103612fec57816305f5e100346103e86103e3612c49613106565b612c539190614fdf565b612c5d9190615050565b612c679190614fdf565b612c719190615050565b1015612cb2576040517f08c379a0000000000000000000000000000000000000000000000000000000008152600401612ca990615637565b60405180910390fd5b8160008481548110612cc757612cc6614f20565b5b90600052602060002090600a020160000160009054906101000a900473ffffffffffffffffffffffffffffffffffffffff1673ffffffffffffffffffffffffffffffffffffffff1663fe3699c66040518163ffffffff1660e01b8152600401602060405180830381865afa158015612d43573d6000803e3d6000fd5b505050506040513d601f19601f82011682018060405250810190612d679190615096565b60008581548110612d7b57612d7a614f20565b5b90600052602060002090600a020160000160009054906101000a900473ffffffffffffffffffffffffffffffffffffffff1673ffffffffffffffffffffffffffffffffffffffff1663ad044f496040518163ffffffff1660e01b8152600401602060405180830381865afa158015612df7573d6000803e3d6000fd5b505050506040513d601f19601f82011682018060405250810190612e1b9190615096565b612e259190614e14565b1015612e66576040517f08c379a0000000000000000000000000000000000000000000000000000000008152600401612e5d906156a3565b60405180910390fd5b3073ffffffffffffffffffffffffffffffffffffffff16636b7619c484846040518363ffffffff1660e01b8152600401612ea1929190615380565b600060405180830381600087803b158015612ebb57600080fd5b505af1158015612ecf573d6000803e3d6000fd5b50505050600260009054906101000a900473ffffffffffffffffffffffffffffffffffffffff1673ffffffffffffffffffffffffffffffffffffffff1663a9059cbb33846040518363ffffffff1660e01b8152600401612f30929190615206565b6020604051808303816000875af1158015612f4f573d6000803e3d6000fd5b505050506040513d601f19601f82011682018060405250810190612f739190614fb2565b503460008481548110612f8957612f88614f20565b5b90600052602060002090600a02016007016000828254612fa991906150c3565b925050819055507fd15ae7b6dd35fea2f80ac5ecad34c59d0f1edd4a0368585ee58f5ed1d4126ade838334604051612fe3939291906150f7565b60405180910390a15b5b5b505050565b60006387a211a2600c52816000526020600c20549050919050565b600560009054906101000a900473ffffffffffffffffffffffffffffffffffffffff1681565b600180600760003373ffffffffffffffffffffffffffffffffffffffff1673ffffffffffffffffffffffffffffffffffffffff16815260200190815260200160002054146130b7576040517f08c379a00000000000000000000000000000000000000000000000000000000081526004016130ae90614c54565b60405180910390fd5b81600760008573ffffffffffffffffffffffffffffffffffffffff1673ffffffffffffffffffffffffffffffffffffffff16815260200190815260200160002081905550505050565b60065481565b600080600560009054906101000a900473ffffffffffffffffffffffffffffffffffffffff1673ffffffffffffffffffffffffffffffffffffffff1663feaf968c6040518163ffffffff1660e01b815260040160a060405180830381865afa158015613176573d6000803e3d6000fd5b505050506040513d601f19601f8201168201806040525081019061319a9190615731565b5050509150508091505090565b60606040518060400160405280600281526020017f4747000000000000000000000000000000000000000000000000000000000000815250905090565b7fffffffffffffffffffffffffffffffffffffffffffffffffffffffffffffffff81565b60006387a211a2600c52336000526020600c208054808411156132335763f4d678b86000526004601cfd5b8381038255846000526020600c2084815401815584602052600c5160601c337fddf252ad1be2c89b69c2b068fc378daa952ba7f163c4a11628f55a4df523b3ef602080a35050506001905092915050565b426203f48060096000848152602001908152602001600020546132a791906150c3565b11156132b257600080fd5b60008082815481106132c7576132c6614f20565b5b90600052602060002090600a020160000160009054906101000a900473ffffffffffffffffffffffffffffffffffffffff1673ffffffffffffffffffffffffffffffffffffffff1663e7fa9f7d6040518163ffffffff1660e01b8152600401602060405180830381865afa158015613343573d6000803e3d6000fd5b505050506040513d601f19601f820116820180604052508101906133679190615096565b116133a7576040517f08c379a000000000000000000000000000000000000000000000000000000000815260040161339e906155cb565b60405180910390fd5b42600960008381526020019081526020016000208190555060006064600083815481106133d7576133d6614f20565b5b90600052602060002090600a020160000160009054906101000a900473ffffffffffffffffffffffffffffffffffffffff1673ffffffffffffffffffffffffffffffffffffffff1663ad044f496040518163ffffffff1660e01b8152600401602060405180830381865afa158015613453573d6000803e3d6000fd5b505050506040513d601f19601f820116820180604052508101906134779190615096565b6134819190615050565b90506000828154811061349757613496614f20565b5b90600052602060002090600a020160000160009054906101000a900473ffffffffffffffffffffffffffffffffffffffff1673ffffffffffffffffffffffffffffffffffffffff1663e7fa9f7d6040518163ffffffff1660e01b8152600401602060405180830381865afa158015613513573d6000803e3d6000fd5b505050506040513d601f19601f820116820180604052508101906135379190615096565b811161354357806135f8565b6000828154811061355757613556614f20565b5b90600052602060002090600a020160000160009054906101000a900473ffffffffffffffffffffffffffffffffffffffff1673ffffffffffffffffffffffffffffffffffffffff1663e7fa9f7d6040518163ffffffff1660e01b8152600401602060405180830381865afa1580156135d3573d6000803e3d6000fd5b505050506040513d601f19601f820116820180604052508101906135f79190615096565b5b90503073ffffffffffffffffffffffffffffffffffffffff16633614d0d283836040518363ffffffff1660e01b8152600401613635929190615380565b600060405180830381600087803b15801561364f57600080fd5b505af1158015613663573d6000803e3d6000fd5b505050505050565b607860085461367a91906150c3565b42101561368657600080fd5b426008819055506000600a600083815481106136a5576136a4614f20565b5b90600052602060002090600a020160000160009054906101000a900473ffffffffffffffffffffffffffffffffffffffff1673ffffffffffffffffffffffffffffffffffffffff1663ad044f496040518163ffffffff1660e01b8152600401602060405180830381865afa158015613721573d6000803e3d6000fd5b505050506040513d601f19601f820116820180604052508101906137459190615096565b61374f9190615050565b90506000828154811061376557613764614f20565b5b90600052602060002090600a020160000160009054906101000a900473ffffffffffffffffffffffffffffffffffffffff1673ffffffffffffffffffffffffffffffffffffffff1663fe3699c66040518163ffffffff1660e01b8152600401602060405180830381865afa1580156137e1573d6000803e3d6000fd5b505050506040513d601f19601f820116820180604052508101906138059190615096565b6000838154811061381957613818614f20565b5b90600052602060002090600a020160000160009054906101000a900473ffffffffffffffffffffffffffffffffffffffff1673ffffffffffffffffffffffffffffffffffffffff16636f0a7f716040518163ffffffff1660e01b8152600401602060405180830381865afa158015613895573d6000803e3d6000fd5b505050506040513d601f19601f820116820180604052508101906138b99190615096565b6138c39190614e14565b81116138cf5780613a42565b600082815481106138e3576138e2614f20565b5b90600052602060002090600a020160000160009054906101000a900473ffffffffffffffffffffffffffffffffffffffff1673ffffffffffffffffffffffffffffffffffffffff1663fe3699c66040518163ffffffff1660e01b8152600401602060405180830381865afa15801561395f573d6000803e3d6000fd5b505050506040513d601f19601f820116820180604052508101906139839190615096565b6000838154811061399757613996614f20565b5b90600052602060002090600a020160000160009054906101000a900473ffffffffffffffffffffffffffffffffffffffff1673ffffffffffffffffffffffffffffffffffffffff16636f0a7f716040518163ffffffff1660e01b8152600401602060405180830381865afa158015613a13573d6000803e3d6000fd5b505050506040513d601f19601f82011682018060405250810190613a379190615096565b613a419190614e14565b5b90503073ffffffffffffffffffffffffffffffffffffffff16636b7619c483836040518363ffffffff1660e01b8152600401613a7f929190615380565b600060405180830381600087803b158015613a9957600080fd5b505af1158015613aad573d6000803e3d6000fd5b505050503073ffffffffffffffffffffffffffffffffffffffff1663cb254f7e83836040518363ffffffff1660e01b8152600401613aec929190615380565b600060405180830381600087803b158015613b0657600080fd5b505af1158015613b1a573d6000803e3d6000fd5b505050505050565b600360009054906101000a900473ffffffffffffffffffffffffffffffffffffffff1681565b600280600760003373ffffffffffffffffffffffffffffffffffffffff1673ffffffffffffffffffffffffffffffffffffffff1681526020019081526020016000205414613bcb576040517f08c379a0000000000000000000000000000000000000000000000000000000008152600401613bc290614c54565b60405180910390fd5b6000805490508310613c12576040517f08c379a0000000000000000000000000000000000000000000000000000000008152600401613c0990614e94565b60405180910390fd5b60008211613c55576040517f08c379a0000000000000000000000000000000000000000000000000000000008152600401613c4c906157f8565b60405180910390fd5b600260009054906101000a900473ffffffffffffffffffffffffffffffffffffffff1673ffffffffffffffffffffffffffffffffffffffff1663095ea7b3600360009054906101000a900473ffffffffffffffffffffffffffffffffffffffff16846040518363ffffffff1660e01b8152600401613cd4929190615206565b6020604051808303816000875af1158015613cf3573d6000803e3d6000fd5b505050506040513d601f19601f82011682018060405250810190613d179190614fb2565b506000613d22613106565b905060008113613d67576040517f08c379a0000000000000000000000000000000000000000000000000000000008152600401613d5e90615864565b60405180910390fd5b60008168056bc75e2d6310000085613d7f9190614fdf565b613d899190615050565b90506000670de0b6b3a7640000662386f26fc10000670de0b6b3a7640000613db19190614e14565b83613dbc9190614fdf565b613dc69190615050565b905060006040518060e00160405280600260009054906101000a900473ffffffffffffffffffffffffffffffffffffffff1673ffffffffffffffffffffffffffffffffffffffff168152602001600460009054906101000a900473ffffffffffffffffffffffffffffffffffffffff1673ffffffffffffffffffffffffffffffffffffffff1681526020016101f462ffffff1681526020013073ffffffffffffffffffffffffffffffffffffffff168152602001878152602001838152602001600073ffffffffffffffffffffffffffffffffffffffff1681525090506000600360009054906101000a900473ffffffffffffffffffffffffffffffffffffffff1673ffffffffffffffffffffffffffffffffffffffff166304e45aaf836040518263ffffffff1660e01b8152600401613f0091906152f9565b6020604051808303816000875af1158015613f1f573d6000803e3d6000fd5b505050506040513d601f19601f82011682018060405250810190613f439190615096565b9050600460009054906101000a900473ffffffffffffffffffffffffffffffffffffffff1673ffffffffffffffffffffffffffffffffffffffff16632e1a7d4d826040518263ffffffff1660e01b8152600401613fa0919061483b565b600060405180830381600087803b158015613fba57600080fd5b505af1158015613fce573d6000803e3d6000fd5b505050508060008981548110613fe757613fe6614f20565b5b90600052602060002090600a0201600701600082825461400791906150c3565b925050819055507fd15ae7b6dd35fea2f80ac5ecad34c59d0f1edd4a0368585ee58f5ed1d4126ade888883604051614041939291906150f7565b60405180910390a15050505050505050565b60076020528060005260406000206000915090505481565b600160009054906101000a900473ffffffffffffffffffffffffffffffffffffffff1681565b6101f481565b600081602052637f5e9f20600c52826000526034600c2054905092915050565b600081815481106140c757600080fd5b90600052602060002090600a02016000915090508060000160009054906101000a900473ffffffffffffffffffffffffffffffffffffffff16908060010154908060020154908060030160009054906101000a900460ff16908060040154908060050160009054906101000a900460ff1690806006015490806007015490806008015490806009015490508a565b60008111614198576040517f08c379a000000000000000000000000000000000000000000000000000000000815260040161418f906158d0565b60405180910390fd5b806141a233612ff3565b10156141e3576040517f08c379a00000000000000000000000000000000000000000000000000000000081526004016141da9061593c565b60405180910390fd5b60006141ed6118a4565b905060006141f9610bd8565b82846142059190614fdf565b61420f9190615050565b905060008111614254576040517f08c379a000000000000000000000000000000000000000000000000000000000815260040161424b906159a8565b60405180910390fd5b61425e3384614535565b600081600654101561427257600654614274565b815b905080600660008282546142889190614e14565b925050819055506000818361429d9190614e14565b905060008111156143b257600081905060005b6000805490508110156143af5760008082815481106142d2576142d1614f20565b5b90600052602060002090600a02016009015403156143a2576000826000838154811061430157614300614f20565b5b90600052602060002090600a0201600901541015614344576000828154811061432d5761432c614f20565b5b90600052602060002090600a020160090154614346565b825b9050806000838154811061435d5761435c614f20565b5b90600052602060002090600a0201600901600082825461437d9190614e14565b9250508190555080836143909190614e14565b9250600083036143a057506143af565b505b80806001019150506142b0565b50505b60003373ffffffffffffffffffffffffffffffffffffffff16846040516143d8906159f9565b60006040518083038185875af1925050503d8060008114614415576040519150601f19603f3d011682016040523d82523d6000602084013e61441a565b606091505b505090508061445e576040517f08c379a000000000000000000000000000000000000000000000000000000000815260040161445590615a5a565b60405180910390fd5b3373ffffffffffffffffffffffffffffffffffffffff167f8dc57a14dabae9681ec851990eb2b72788cd4aa030f739d90e5c614a9dd174e487866040516144a6929190615380565b60405180910390a2505050505050565b6805345cdf77eb68f44c54818101818110156144da5763e5cfe9576000526004601cfd5b806805345cdf77eb68f44c556387a211a2600c52836000526020600c2083815401815583602052600c5160601c60007fddf252ad1be2c89b69c2b068fc378daa952ba7f163c4a11628f55a4df523b3ef602080a35050505050565b6387a211a2600c52816000526020600c2080548083111561455e5763f4d678b86000526004601cfd5b8281038255826805345cdf77eb68f44c54036805345cdf77eb68f44c558260005260008460601b60601c7fddf252ad1be2c89b69c2b068fc378daa952ba7f163c4a11628f55a4df523b3ef60206000a350505050565b600081519050919050565b600082825260208201905092915050565b60005b838110156145ee5780820151818401526020810190506145d3565b60008484015250505050565b6000601f19601f8301169050919050565b6000614616826145b4565b61462081856145bf565b93506146308185602086016145d0565b614639816145fa565b840191505092915050565b6000602082019050818103600083015261465e818461460b565b905092915050565b600080fd5b600073ffffffffffffffffffffffffffffffffffffffff82169050919050565b60006146968261466b565b9050919050565b6146a68161468b565b81146146b157600080fd5b50565b6000813590506146c38161469d565b92915050565b6000819050919050565b6146dc816146c9565b81146146e757600080fd5b50565b6000813590506146f9816146d3565b92915050565b6000806040838503121561471657614715614666565b5b6000614724858286016146b4565b9250506020614735858286016146ea565b9150509250929050565b60008115159050919050565b6147548161473f565b82525050565b600060208201905061476f600083018461474b565b92915050565b60008060008060008060c0878903121561479257614791614666565b5b60006147a089828a016146ea565b96505060206147b189828a016146b4565b95505060406147c289828a016146ea565b94505060606147d389828a016146ea565b93505060806147e489828a016146b4565b92505060a06147f589828a016146ea565b9150509295509295509295565b61480b8161468b565b82525050565b60006020820190506148266000830184614802565b92915050565b614835816146c9565b82525050565b6000602082019050614850600083018461482c565b92915050565b6000806040838503121561486d5761486c614666565b5b600061487b858286016146ea565b925050602061488c858286016146ea565b9150509250929050565b6000806000606084860312156148af576148ae614666565b5b60006148bd868287016146b4565b93505060206148ce868287016146b4565b92505060406148df868287016146ea565b9150509250925092565b600060ff82169050919050565b6148ff816148e9565b82525050565b600060208201905061491a60008301846148f6565b92915050565b60006020828403121561493657614935614666565b5b6000614944848285016146ea565b91505092915050565b60008060006060848603121561496657614965614666565b5b6000614974868287016146ea565b9350506020614985868287016146ea565b9250506040614996868287016146ea565b9150509250925092565b6000602082840312156149b6576149b5614666565b5b60006149c4848285016146b4565b91505092915050565b6000819050919050565b60006149f26149ed6149e88461466b565b6149cd565b61466b565b9050919050565b6000614a04826149d7565b9050919050565b6000614a16826149f9565b9050919050565b614a2681614a0b565b82525050565b6000602082019050614a416000830184614a1d565b92915050565b6000819050919050565b614a5a81614a47565b82525050565b6000602082019050614a756000830184614a51565b92915050565b6000614a86826149f9565b9050919050565b614a9681614a7b565b82525050565b6000602082019050614ab16000830184614a8d565b92915050565b6000614ac2826149f9565b9050919050565b614ad281614ab7565b82525050565b6000602082019050614aed6000830184614ac9565b92915050565b600062ffffff82169050919050565b614b0b81614af3565b82525050565b6000602082019050614b266000830184614b02565b92915050565b60008060408385031215614b4357614b42614666565b5b6000614b51858286016146b4565b9250506020614b62858286016146b4565b9150509250929050565b600061014082019050614b82600083018d614802565b614b8f602083018c61482c565b614b9c604083018b61482c565b614ba9606083018a61474b565b614bb6608083018961482c565b614bc360a083018861474b565b614bd060c083018761482c565b614bdd60e083018661482c565b614beb61010083018561482c565b614bf961012083018461482c565b9b9a5050505050505050505050565b7f4e6f7420617574686f72697a6564000000000000000000000000000000000000600082015250565b6000614c3e600e836145bf565b9150614c4982614c08565b602082019050919050565b60006020820190508181036000830152614c6d81614c31565b9050919050565b7f44414f20494f5500000000000000000000000000000000000000000000000000600082015250565b6000614caa6007836145bf565b9150614cb582614c74565b602082019050919050565b7f44494f5500000000000000000000000000000000000000000000000000000000600082015250565b6000614cf66004836145bf565b9150614d0182614cc0565b602082019050919050565b600061012082019050614d22600083018a614802565b614d2f6020830189614802565b614d3c604083018861482c565b614d49606083018761482c565b614d56608083018661482c565b614d6360a0830185614802565b81810360c0830152614d7481614c9d565b905081810360e0830152614d8781614ce9565b9050614d9761010083018461474b565b98975050505050505050565b600081519050614db28161469d565b92915050565b600060208284031215614dce57614dcd614666565b5b6000614ddc84828501614da3565b91505092915050565b7f4e487b7100000000000000000000000000000000000000000000000000000000600052601160045260246000fd5b6000614e1f826146c9565b9150614e2a836146c9565b9250828203905081811115614e4257614e41614de5565b5b92915050565b7f496e76616c6964206c6f616e20696e6465780000000000000000000000000000600082015250565b6000614e7e6012836145bf565b9150614e8982614e48565b602082019050919050565b60006020820190508181036000830152614ead81614e71565b9050919050565b7f494f5520616d6f756e74206d757374206265203e203000000000000000000000600082015250565b6000614eea6016836145bf565b9150614ef582614eb4565b602082019050919050565b60006020820190508181036000830152614f1981614edd565b9050919050565b7f4e487b7100000000000000000000000000000000000000000000000000000000600052603260045260246000fd5b6000606082019050614f646000830186614802565b614f716020830185614802565b614f7e604083018461482c565b949350505050565b614f8f8161473f565b8114614f9a57600080fd5b50565b600081519050614fac81614f86565b92915050565b600060208284031215614fc857614fc7614666565b5b6000614fd684828501614f9d565b91505092915050565b6000614fea826146c9565b9150614ff5836146c9565b9250828202615003816146c9565b9150828204841483151761501a57615019614de5565b5b5092915050565b7f4e487b7100000000000000000000000000000000000000000000000000000000600052601260045260246000fd5b600061505b826146c9565b9150615066836146c9565b92508261507657615075615021565b5b828204905092915050565b600081519050615090816146d3565b92915050565b6000602082840312156150ac576150ab614666565b5b60006150ba84828501615081565b91505092915050565b60006150ce826146c9565b91506150d9836146c9565b92508282019050808211156150f1576150f0614de5565b5b92915050565b600060608201905061510c600083018661482c565b615119602083018561482c565b615126604083018461482c565b949350505050565b7f4c6f616e206e6f7420647261776e20646f776e00000000000000000000000000600082015250565b60006151646013836145bf565b915061516f8261512e565b602082019050919050565b6000602082019050818103600083015261519381615157565b9050919050565b7f496e76616c69642070726963652066726f6d206f7261636c6500000000000000600082015250565b60006151d06019836145bf565b91506151db8261519a565b602082019050919050565b600060208201905081810360008301526151ff816151c3565b9050919050565b600060408201905061521b6000830185614802565b615228602083018461482c565b9392505050565b6152388161468b565b82525050565b61524781614af3565b82525050565b615256816146c9565b82525050565b6152658161466b565b82525050565b60e082016000820151615281600085018261522f565b506020820151615294602085018261522f565b5060408201516152a7604085018261523e565b5060608201516152ba606085018261522f565b5060808201516152cd608085018261524d565b5060a08201516152e060a085018261524d565b5060c08201516152f360c085018261525c565b50505050565b600060e08201905061530e600083018461526b565b92915050565b7f4e6f7420656e6f7567682055534443206f757400000000000000000000000000600082015250565b600061534a6013836145bf565b915061535582615314565b602082019050919050565b600060208201905081810360008301526153798161533d565b9050919050565b6000604082019050615395600083018561482c565b6153a2602083018461482c565b9392505050565b6000819050919050565b60006153ce6153c96153c4846153a9565b6149cd565b6146c9565b9050919050565b6153de816153b3565b82525050565b7f4769676153747261740000000000000000000000000000000000000000000000600082015250565b600061541a6009836145bf565b9150615425826153e4565b602082019050919050565b7f4747000000000000000000000000000000000000000000000000000000000000600082015250565b60006154666002836145bf565b915061547182615430565b602082019050919050565b600061012082019050615492600083018a614802565b61549f6020830189614802565b6154ac604083018861482c565b6154b9606083018761482c565b6154c660808301866153d5565b6154d360a0830185614802565b81810360c08301526154e48161540d565b905081810360e08301526154f781615459565b905061550761010083018461474b565b98975050505050505050565b7f546f6f206d7563682073656e7400000000000000000000000000000000000000600082015250565b6000615549600d836145bf565b915061555482615513565b602082019050919050565b600060208201905081810360008301526155788161553c565b9050919050565b7f4c6f616e2066756c6c7920726570616964000000000000000000000000000000600082015250565b60006155b56011836145bf565b91506155c08261557f565b602082019050919050565b600060208201905081810360008301526155e4816155a8565b9050919050565b7f4e6f7420656e6f7567682073656e740000000000000000000000000000000000600082015250565b6000615621600f836145bf565b915061562c826155eb565b602082019050919050565b6000602082019050818103600083015261565081615614565b9050919050565b7f4e6f7420656e6f7567682066756e647300000000000000000000000000000000600082015250565b600061568d6010836145bf565b915061569882615657565b602082019050919050565b600060208201905081810360008301526156bc81615680565b9050919050565b600069ffffffffffffffffffff82169050919050565b6156e2816156c3565b81146156ed57600080fd5b50565b6000815190506156ff816156d9565b92915050565b61570e81614a47565b811461571957600080fd5b50565b60008151905061572b81615705565b92915050565b600080600080600060a0868803121561574d5761574c614666565b5b600061575b888289016156f0565b955050602061576c8882890161571c565b945050604061577d88828901615081565b935050606061578e88828901615081565b925050608061579f888289016156f0565b9150509295509295909350565b7f5553444320616d6f756e74206d757374206265203e2030000000000000000000600082015250565b60006157e26017836145bf565b91506157ed826157ac565b602082019050919050565b60006020820190508181036000830152615811816157d5565b9050919050565b7f496e76616c6964206f7261636c65207072696365000000000000000000000000600082015250565b600061584e6014836145bf565b915061585982615818565b602082019050919050565b6000602082019050818103600083015261587d81615841565b9050919050565b7f44414f20746f6b656e20616d6f756e74206d757374206265203e203000000000600082015250565b60006158ba601c836145bf565b91506158c582615884565b602082019050919050565b600060208201905081810360008301526158e9816158ad565b9050919050565b7f496e73756666696369656e742062616c616e6365000000000000000000000000600082015250565b60006159266014836145bf565b9150615931826158f0565b602082019050919050565b6000602082019050818103600083015261595581615919565b9050919050565b7f55736572207368617265206973207a65726f0000000000000000000000000000600082015250565b60006159926012836145bf565b915061599d8261595c565b602082019050919050565b600060208201905081810360008301526159c181615985565b9050919050565b600081905092915050565b50565b60006159e36000836159c8565b91506159ee826159d3565b600082019050919050565b6000615a04826159d6565b9150819050919050565b7f455448207472616e73666572206661696c656400000000000000000000000000600082015250565b6000615a446013836145bf565b9150615a4f82615a0e565b602082019050919050565b60006020820190508181036000830152615a7381615a37565b905091905056fea2646970667358221220b86e3d9c64c8a79b14e8e1a9274c64957083652072ec71c2aa169a9638628e2264736f6c63430008180033",
  "linkReferences": {},
  "deployedLinkReferences": {}
}