{
  "_format": "hh-sol-artifact-1",
  "contractName": "Gigastrat2",
  "sourceName": "contracts/Gigastrat.sol",
  "abi": [
    {
      "inputs": [
        {
          "internalType": "address",
          "name": "_ioUMint",
          "type": "address"
        },
        {
          "internalType": "address",
          "name": "_usdcToken",
          "type": "address"
        },
        {
          "internalType": "address",
          "name": "_uniswapV3Router",
          "type": "address"
        },
        {
          "internalType": "address",
          "name": "_wethAddress",
          "type": "address"
        },
        {
          "internalType": "address",
          "name": "_priceFeedAddress",
          "type": "address"
        }
      ],
      "stateMutability": "nonpayable",
      "type": "constructor"
    },
    {
      "inputs": [],
      "name": "AllowanceOverflow",
      "type": "error"
    },
    {
      "inputs": [],
      "name": "AllowanceUnderflow",
      "type": "error"
    },
    {
      "inputs": [],
      "name": "InsufficientAllowance",
      "type": "error"
    },
    {
      "inputs": [],
      "name": "InsufficientBalance",
      "type": "error"
    },
    {
      "inputs": [],
      "name": "TotalSupplyOverflow",
      "type": "error"
    },
    {
      "anonymous": false,
      "inputs": [
        {
          "indexed": true,
          "internalType": "address",
          "name": "owner",
          "type": "address"
        },
        {
          "indexed": true,
          "internalType": "address",
          "name": "spender",
          "type": "address"
        },
        {
          "indexed": false,
          "internalType": "uint256",
          "name": "amount",
          "type": "uint256"
        }
      ],
      "name": "Approval",
      "type": "event"
    },
    {
      "anonymous": false,
      "inputs": [
        {
          "indexed": false,
          "internalType": "uint256",
          "name": "loanIndex",
          "type": "uint256"
        },
        {
          "indexed": false,
          "internalType": "uint256",
          "name": "usdcSpent",
          "type": "uint256"
        },
        {
          "indexed": false,
          "internalType": "uint256",
          "name": "ethReceived",
          "type": "uint256"
        }
      ],
      "name": "BoughtETH",
      "type": "event"
    },
    {
      "anonymous": false,
      "inputs": [
        {
          "indexed": true,
          "internalType": "address",
          "name": "user",
          "type": "address"
        },
        {
          "indexed": false,
          "internalType": "uint256",
          "name": "daoBurned",
          "type": "uint256"
        },
        {
          "indexed": false,
          "internalType": "uint256",
          "name": "ethReceived",
          "type": "uint256"
        }
      ],
      "name": "BurnedForETH",
      "type": "event"
    },
    {
      "anonymous": false,
      "inputs": [
        {
          "indexed": false,
          "internalType": "uint256",
          "name": "loanIndex",
          "type": "uint256"
        },
        {
          "indexed": false,
          "internalType": "uint256",
          "name": "newRate",
          "type": "uint256"
        }
      ],
      "name": "ConversionRateUpdated",
      "type": "event"
    },
    {
      "anonymous": false,
      "inputs": [
        {
          "indexed": true,
          "internalType": "address",
          "name": "user",
          "type": "address"
        },
        {
          "indexed": true,
          "internalType": "address",
          "name": "loanAddress",
          "type": "address"
        },
        {
          "indexed": false,
          "internalType": "uint256",
          "name": "iouAmount",
          "type": "uint256"
        },
        {
          "indexed": false,
          "internalType": "uint256",
          "name": "daoMinted",
          "type": "uint256"
        },
        {
          "indexed": false,
          "internalType": "uint256",
          "name": "loanIndex",
          "type": "uint256"
        }
      ],
      "name": "IOUSwapped",
      "type": "event"
    },
    {
      "anonymous": false,
      "inputs": [
        {
          "indexed": false,
          "internalType": "uint256",
          "name": "amount",
          "type": "uint256"
        },
        {
          "indexed": false,
          "internalType": "uint256",
          "name": "drawTime",
          "type": "uint256"
        },
        {
          "indexed": false,
          "internalType": "uint256",
          "name": "loanIndex",
          "type": "uint256"
        }
      ],
      "name": "LoanDrawn",
      "type": "event"
    },
    {
      "anonymous": false,
      "inputs": [
        {
          "indexed": false,
          "internalType": "uint256",
          "name": "loanIndex",
          "type": "uint256"
        },
        {
          "indexed": false,
          "internalType": "uint256",
          "name": "usdcUsed",
          "type": "uint256"
        }
      ],
      "name": "LoanRepaid",
      "type": "event"
    },
    {
      "anonymous": false,
      "inputs": [
        {
          "indexed": true,
          "internalType": "address",
          "name": "loanAddress",
          "type": "address"
        },
        {
          "indexed": false,
          "internalType": "uint256",
          "name": "loanIndex",
          "type": "uint256"
        }
      ],
      "name": "LoanStarted",
      "type": "event"
    },
    {
      "anonymous": false,
      "inputs": [
        {
          "indexed": false,
          "internalType": "uint256",
          "name": "loanIndex",
          "type": "uint256"
        },
        {
          "indexed": false,
          "internalType": "uint256",
          "name": "profitETH",
          "type": "uint256"
        }
      ],
      "name": "ProfitFinalized",
      "type": "event"
    },
    {
      "anonymous": false,
      "inputs": [
        {
          "indexed": false,
          "internalType": "uint256",
          "name": "iouRedeemed",
          "type": "uint256"
        },
        {
          "indexed": false,
          "internalType": "uint256",
          "name": "usdcReceived",
          "type": "uint256"
        },
        {
          "indexed": false,
          "internalType": "uint256",
          "name": "ethReceived",
          "type": "uint256"
        }
      ],
      "name": "RedeemedAndSwapped",
      "type": "event"
    },
    {
      "anonymous": false,
      "inputs": [
        {
          "indexed": true,
          "internalType": "address",
          "name": "from",
          "type": "address"
        },
        {
          "indexed": true,
          "internalType": "address",
          "name": "to",
          "type": "address"
        },
        {
          "indexed": false,
          "internalType": "uint256",
          "name": "amount",
          "type": "uint256"
        }
      ],
      "name": "Transfer",
      "type": "event"
    },
    {
      "inputs": [],
      "name": "NO_DEADLINE",
      "outputs": [
        {
          "internalType": "uint256",
          "name": "",
          "type": "uint256"
        }
      ],
      "stateMutability": "view",
      "type": "function"
    },
    {
      "inputs": [],
      "name": "POOL_FEE",
      "outputs": [
        {
          "internalType": "uint24",
          "name": "",
          "type": "uint24"
        }
      ],
      "stateMutability": "view",
      "type": "function"
    },
    {
      "inputs": [],
      "name": "SLIPPAGE",
      "outputs": [
        {
          "internalType": "uint256",
          "name": "",
          "type": "uint256"
        }
      ],
      "stateMutability": "view",
      "type": "function"
    },
    {
      "inputs": [
        {
          "internalType": "address",
          "name": "owner",
          "type": "address"
        },
        {
          "internalType": "address",
          "name": "spender",
          "type": "address"
        }
      ],
      "name": "allowance",
      "outputs": [
        {
          "internalType": "uint256",
          "name": "result",
          "type": "uint256"
        }
      ],
      "stateMutability": "view",
      "type": "function"
    },
    {
      "inputs": [
        {
          "internalType": "address",
          "name": "spender",
          "type": "address"
        },
        {
          "internalType": "uint256",
          "name": "amount",
          "type": "uint256"
        }
      ],
      "name": "approve",
      "outputs": [
        {
          "internalType": "bool",
          "name": "",
          "type": "bool"
        }
      ],
      "stateMutability": "nonpayable",
      "type": "function"
    },
    {
      "inputs": [
        {
          "internalType": "address",
          "name": "owner",
          "type": "address"
        }
      ],
      "name": "balanceOf",
      "outputs": [
        {
          "internalType": "uint256",
          "name": "result",
          "type": "uint256"
        }
      ],
      "stateMutability": "view",
      "type": "function"
    },
    {
      "inputs": [
        {
          "internalType": "uint256",
          "name": "daoTokenAmount",
          "type": "uint256"
        }
      ],
      "name": "burnForETH",
      "outputs": [],
      "stateMutability": "nonpayable",
      "type": "function"
    },
    {
      "inputs": [
        {
          "internalType": "uint256",
          "name": "loanIndex",
          "type": "uint256"
        },
        {
          "internalType": "uint256",
          "name": "usdcAmount",
          "type": "uint256"
        }
      ],
      "name": "buyETH",
      "outputs": [],
      "stateMutability": "nonpayable",
      "type": "function"
    },
    {
      "inputs": [],
      "name": "decimals",
      "outputs": [
        {
          "internalType": "uint8",
          "name": "",
          "type": "uint8"
        }
      ],
      "stateMutability": "view",
      "type": "function"
    },
    {
      "inputs": [
        {
          "internalType": "uint256",
          "name": "loanIndex",
          "type": "uint256"
        },
        {
          "internalType": "uint256",
          "name": "amount",
          "type": "uint256"
        }
      ],
      "name": "drawDownLoan",
      "outputs": [],
      "stateMutability": "nonpayable",
      "type": "function"
    },
    {
      "inputs": [],
      "name": "ethFromMint",
      "outputs": [
        {
          "internalType": "uint256",
          "name": "",
          "type": "uint256"
        }
      ],
      "stateMutability": "view",
      "type": "function"
    },
    {
      "inputs": [
        {
          "internalType": "uint256",
          "name": "loanIndex",
          "type": "uint256"
        },
        {
          "internalType": "uint256",
          "name": "amount",
          "type": "uint256"
        },
        {
          "internalType": "uint256",
          "name": "repayRedeemorBuy",
          "type": "uint256"
        }
      ],
      "name": "fill",
      "outputs": [],
      "stateMutability": "payable",
      "type": "function"
    },
    {
      "inputs": [
        {
          "internalType": "uint256",
          "name": "loanIndex",
          "type": "uint256"
        },
        {
          "internalType": "uint256",
          "name": "amount",
          "type": "uint256"
        }
      ],
      "name": "fundLoan",
      "outputs": [],
      "stateMutability": "nonpayable",
      "type": "function"
    },
    {
      "inputs": [],
      "name": "getLatestPrice",
      "outputs": [
        {
          "internalType": "int256",
          "name": "",
          "type": "int256"
        }
      ],
      "stateMutability": "view",
      "type": "function"
    },
    {
      "inputs": [],
      "name": "getProfit",
      "outputs": [
        {
          "internalType": "uint256",
          "name": "",
          "type": "uint256"
        }
      ],
      "stateMutability": "view",
      "type": "function"
    },
    {
      "inputs": [],
      "name": "ioUMint",
      "outputs": [
        {
          "internalType": "contract IIOUMint",
          "name": "",
          "type": "address"
        }
      ],
      "stateMutability": "view",
      "type": "function"
    },
    {
      "inputs": [
        {
          "internalType": "uint256",
          "name": "",
          "type": "uint256"
        }
      ],
      "name": "loans",
      "outputs": [
        {
          "internalType": "address",
          "name": "loanAddress",
          "type": "address"
        },
        {
          "internalType": "uint256",
          "name": "loanGoal",
          "type": "uint256"
        },
        {
          "internalType": "uint256",
          "name": "totalDrawnDown",
          "type": "uint256"
        },
        {
          "internalType": "bool",
          "name": "loanDrawn",
          "type": "bool"
        },
        {
          "internalType": "uint256",
          "name": "loanDrawnTime",
          "type": "uint256"
        },
        {
          "internalType": "bool",
          "name": "fullyRepaid",
          "type": "bool"
        },
        {
          "internalType": "uint256",
          "name": "iouConversionRate",
          "type": "uint256"
        },
        {
          "internalType": "uint256",
          "name": "totalBuyETH",
          "type": "uint256"
        },
        {
          "internalType": "uint256",
          "name": "soldETH",
          "type": "uint256"
        },
        {
          "internalType": "uint256",
          "name": "profitETH",
          "type": "uint256"
        },
        {
          "internalType": "uint256",
          "name": "lossETH",
          "type": "uint256"
        }
      ],
      "stateMutability": "view",
      "type": "function"
    },
    {
      "inputs": [],
      "name": "name",
      "outputs": [
        {
          "internalType": "string",
          "name": "",
          "type": "string"
        }
      ],
      "stateMutability": "view",
      "type": "function"
    },
    {
      "inputs": [],
      "name": "openLoan",
      "outputs": [],
      "stateMutability": "nonpayable",
      "type": "function"
    },
    {
      "inputs": [],
      "name": "priceFeed",
      "outputs": [
        {
          "internalType": "contract AggregatorV3Interface",
          "name": "",
          "type": "address"
        }
      ],
      "stateMutability": "view",
      "type": "function"
    },
    {
      "inputs": [
        {
          "internalType": "uint256",
          "name": "",
          "type": "uint256"
        }
      ],
      "name": "repaid",
      "outputs": [
        {
          "internalType": "uint256",
          "name": "",
          "type": "uint256"
        }
      ],
      "stateMutability": "view",
      "type": "function"
    },
    {
      "inputs": [
        {
          "internalType": "uint256",
          "name": "loanIndex",
          "type": "uint256"
        }
      ],
      "name": "repayLoan",
      "outputs": [],
      "stateMutability": "nonpayable",
      "type": "function"
    },
    {
      "inputs": [
        {
          "internalType": "uint256",
          "name": "loanIndex",
          "type": "uint256"
        },
        {
          "internalType": "uint256",
          "name": "usdcAmount",
          "type": "uint256"
        }
      ],
      "name": "repayLoanUSDC",
      "outputs": [],
      "stateMutability": "nonpayable",
      "type": "function"
    },
    {
      "inputs": [
        {
          "internalType": "address",
          "name": "",
          "type": "address"
        }
      ],
      "name": "role",
      "outputs": [
        {
          "internalType": "uint256",
          "name": "",
          "type": "uint256"
        }
      ],
      "stateMutability": "view",
      "type": "function"
    },
    {
      "inputs": [
        {
          "internalType": "address",
          "name": "_address",
          "type": "address"
        },
        {
          "internalType": "uint256",
          "name": "_role",
          "type": "uint256"
        }
      ],
      "name": "setRole",
      "outputs": [],
      "stateMutability": "nonpayable",
      "type": "function"
    },
    {
      "inputs": [
        {
          "internalType": "uint256",
          "name": "_loanGoal",
          "type": "uint256"
        },
        {
          "internalType": "address",
          "name": "_token",
          "type": "address"
        },
        {
          "internalType": "uint256",
          "name": "_annualInterestRate",
          "type": "uint256"
        },
        {
          "internalType": "uint256",
          "name": "_platformFeeRate",
          "type": "uint256"
        },
        {
          "internalType": "address",
          "name": "_feeAddress",
          "type": "address"
        },
        {
          "internalType": "uint256",
          "name": "_loanIOUConversionRate",
          "type": "uint256"
        }
      ],
      "name": "startLoan",
      "outputs": [],
      "stateMutability": "nonpayable",
      "type": "function"
    },
    {
      "inputs": [
        {
          "internalType": "uint256",
          "name": "loanIndex",
          "type": "uint256"
        },
        {
          "internalType": "uint256",
          "name": "iouAmount",
          "type": "uint256"
        }
      ],
      "name": "swapIOUForMintTokens",
      "outputs": [],
      "stateMutability": "nonpayable",
      "type": "function"
    },
    {
      "inputs": [],
      "name": "swapRouter",
      "outputs": [
        {
          "internalType": "contract ISwapRouter",
          "name": "",
          "type": "address"
        }
      ],
      "stateMutability": "view",
      "type": "function"
    },
    {
      "inputs": [],
      "name": "symbol",
      "outputs": [
        {
          "internalType": "string",
          "name": "",
          "type": "string"
        }
      ],
      "stateMutability": "view",
      "type": "function"
    },
    {
      "inputs": [],
      "name": "totalLoans",
      "outputs": [
        {
          "internalType": "uint256",
          "name": "",
          "type": "uint256"
        }
      ],
      "stateMutability": "view",
      "type": "function"
    },
    {
      "inputs": [],
      "name": "totalSupply",
      "outputs": [
        {
          "internalType": "uint256",
          "name": "result",
          "type": "uint256"
        }
      ],
      "stateMutability": "view",
      "type": "function"
    },
    {
      "inputs": [
        {
          "internalType": "address",
          "name": "to",
          "type": "address"
        },
        {
          "internalType": "uint256",
          "name": "amount",
          "type": "uint256"
        }
      ],
      "name": "transfer",
      "outputs": [
        {
          "internalType": "bool",
          "name": "",
          "type": "bool"
        }
      ],
      "stateMutability": "nonpayable",
      "type": "function"
    },
    {
      "inputs": [
        {
          "internalType": "address",
          "name": "from",
          "type": "address"
        },
        {
          "internalType": "address",
          "name": "to",
          "type": "address"
        },
        {
          "internalType": "uint256",
          "name": "amount",
          "type": "uint256"
        }
      ],
      "name": "transferFrom",
      "outputs": [
        {
          "internalType": "bool",
          "name": "",
          "type": "bool"
        }
      ],
      "stateMutability": "nonpayable",
      "type": "function"
    },
    {
      "inputs": [],
      "name": "usdcToken",
      "outputs": [
        {
          "internalType": "address",
          "name": "",
          "type": "address"
        }
      ],
      "stateMutability": "view",
      "type": "function"
    },
    {
      "inputs": [],
      "name": "wethAddress",
      "outputs": [
        {
          "internalType": "address",
          "name": "",
          "type": "address"
        }
      ],
      "stateMutability": "view",
      "type": "function"
    },
    {
      "stateMutability": "payable",
      "type": "receive"
    }
  ],
  "bytecode": "0x6080604052739d31e30003f253563ff108bc60b16fdf2c93abb5600660006101000a81548173ffffffffffffffffffffffffffffffffffffffff021916908373ffffffffffffffffffffffffffffffffffffffff1602179055503480156200006657600080fd5b50604051620067253803806200672583398181016040528101906200008c9190620006c8565b84600160006101000a81548173ffffffffffffffffffffffffffffffffffffffff021916908373ffffffffffffffffffffffffffffffffffffffff16021790555083600260006101000a81548173ffffffffffffffffffffffffffffffffffffffff021916908373ffffffffffffffffffffffffffffffffffffffff16021790555082600360006101000a81548173ffffffffffffffffffffffffffffffffffffffff021916908373ffffffffffffffffffffffffffffffffffffffff16021790555081600460006101000a81548173ffffffffffffffffffffffffffffffffffffffff021916908373ffffffffffffffffffffffffffffffffffffffff16021790555080600560006101000a81548173ffffffffffffffffffffffffffffffffffffffff021916908373ffffffffffffffffffffffffffffffffffffffff1602179055506002600860003073ffffffffffffffffffffffffffffffffffffffff1673ffffffffffffffffffffffffffffffffffffffff168152602001908152602001600020819055506002600860003373ffffffffffffffffffffffffffffffffffffffff1673ffffffffffffffffffffffffffffffffffffffff168152602001908152602001600020819055506001600860006cc0d7d3017b342ff039b55b087973ffffffffffffffffffffffffffffffffffffffff1673ffffffffffffffffffffffffffffffffffffffff168152602001908152602001600020819055506002600860003373ffffffffffffffffffffffffffffffffffffffff1673ffffffffffffffffffffffffffffffffffffffff1681526020019081526020016000208190555062000337620186a0600260009054906101000a900473ffffffffffffffffffffffffffffffffffffffff166064600030670de0b6b3a76400006200034260201b60201c565b505050505062000a1e565b600280600860003373ffffffffffffffffffffffffffffffffffffffff1673ffffffffffffffffffffffffffffffffffffffff1681526020019081526020016000205414620003c8576040517f08c379a0000000000000000000000000000000000000000000000000000000008152600401620003bf90620007b1565b60405180910390fd5b6000600160009054906101000a900473ffffffffffffffffffffffffffffffffffffffff1673ffffffffffffffffffffffffffffffffffffffff16631638711b88308b8a8a8a60006040518863ffffffff1660e01b8152600401620004349796959493929190620008bc565b6020604051808303816000875af115801562000454573d6000803e3d6000fd5b505050506040513d601f19601f820116820180604052508101906200047a919062000965565b905060006040518061016001604052808373ffffffffffffffffffffffffffffffffffffffff1681526020018a81526020016000815260200160001515815260200160008152602001600015158152602001858152602001600081526020016000815260200160008152602001600081525090806001815401808255809150506001900390600052602060002090600b020160009091909190915060008201518160000160006101000a81548173ffffffffffffffffffffffffffffffffffffffff021916908373ffffffffffffffffffffffffffffffffffffffff160217905550602082015181600101556040820151816002015560608201518160030160006101000a81548160ff0219169083151502179055506080820151816004015560a08201518160050160006101000a81548160ff02191690831515021790555060c0820151816006015560e082015181600701556101008201518160080155610120820151816009015561014082015181600a015550508073ffffffffffffffffffffffffffffffffffffffff167f648e161f301b32079cbff6f2eecb4b7bc8d0eb9e67218201eb3703bdc232a29f60016000805490506200063d9190620009c6565b6040516200064c919062000a01565b60405180910390a25050505050505050565b600080fd5b600073ffffffffffffffffffffffffffffffffffffffff82169050919050565b6000620006908262000663565b9050919050565b620006a28162000683565b8114620006ae57600080fd5b50565b600081519050620006c28162000697565b92915050565b600080600080600060a08688031215620006e757620006e66200065e565b5b6000620006f788828901620006b1565b95505060206200070a88828901620006b1565b94505060406200071d88828901620006b1565b93505060606200073088828901620006b1565b92505060806200074388828901620006b1565b9150509295509295909350565b600082825260208201905092915050565b7f4e6f7420617574686f72697a6564000000000000000000000000000000000000600082015250565b600062000799600e8362000750565b9150620007a68262000761565b602082019050919050565b60006020820190508181036000830152620007cc816200078a565b9050919050565b620007de8162000683565b82525050565b6000819050919050565b620007f981620007e4565b82525050565b7f4769676153747261740000000000000000000000000000000000000000000000600082015250565b60006200083760098362000750565b91506200084482620007ff565b602082019050919050565b7f4747000000000000000000000000000000000000000000000000000000000000600082015250565b60006200088760028362000750565b915062000894826200084f565b602082019050919050565b60008115159050919050565b620008b6816200089f565b82525050565b600061012082019050620008d4600083018a620007d3565b620008e36020830189620007d3565b620008f26040830188620007ee565b620009016060830187620007ee565b620009106080830186620007ee565b6200091f60a0830185620007d3565b81810360c0830152620009328162000828565b905081810360e0830152620009478162000878565b905062000959610100830184620008ab565b98975050505050505050565b6000602082840312156200097e576200097d6200065e565b5b60006200098e84828501620006b1565b91505092915050565b7f4e487b7100000000000000000000000000000000000000000000000000000000600052601160045260246000fd5b6000620009d382620007e4565b9150620009e083620007e4565b9250828203905081811115620009fb57620009fa62000997565b5b92915050565b600060208201905062000a186000830184620007ee565b92915050565b615cf78062000a2e6000396000f3fe6080604052600436106102085760003560e01c8063741bef1a11610118578063cb254f7e116100a0578063dd1b9c4a1161006f578063dd1b9c4a14610759578063dd62ed3e14610784578063e1ec3c68146107c1578063ee5d025214610808578063f4512bb6146108315761020f565b8063cb254f7e1461069d578063cc952b57146106c6578063d590f8c9146106f1578063db3a98151461072e5761020f565b806395d89b41116100e757806395d89b41146105b6578063a693ac64146105e1578063a9059cbb1461060c578063ab7b1c8914610649578063c31c9c07146106725761020f565b8063741bef1a1461050c57806374277a63146105375780638b0c030d146105605780638e15f4731461058b5761020f565b80633614d0d21161019b578063679dffb41161016a578063679dffb4146104485780636b231938146104735780636b7619c41461048a5780636fe4a448146104b357806370a08231146104cf5761020f565b80633614d0d21461038c57806336b4134a146103b55780634f0e0ef3146103e05780635f93893b1461040b5761020f565b806318160ddd116101d757806318160ddd146102d05780632137e1b9146102fb57806323b872dd14610324578063313ce567146103615761020f565b806306fdde0314610214578063095ea7b31461023f5780630bbaf6751461027c57806311eac855146102a55761020f565b3661020f57005b600080fd5b34801561022057600080fd5b5061022961085a565b6040516102369190614708565b60405180910390f35b34801561024b57600080fd5b50610266600480360381019061026191906147c3565b610897565b604051610273919061481e565b60405180910390f35b34801561028857600080fd5b506102a3600480360381019061029e9190614839565b6108eb565b005b3480156102b157600080fd5b506102ba610bfb565b6040516102c791906148d5565b60405180910390f35b3480156102dc57600080fd5b506102e5610c21565b6040516102f291906148ff565b60405180910390f35b34801561030757600080fd5b50610322600480360381019061031d919061491a565b610c33565b005b34801561033057600080fd5b5061034b6004803603810190610346919061495a565b611289565b604051610358919061481e565b60405180910390f35b34801561036d57600080fd5b50610376611346565b60405161038391906149c9565b60405180910390f35b34801561039857600080fd5b506103b360048036038101906103ae919061491a565b61134f565b005b3480156103c157600080fd5b506103ca611b59565b6040516103d791906148ff565b60405180910390f35b3480156103ec57600080fd5b506103f5611b64565b60405161040291906148d5565b60405180910390f35b34801561041757600080fd5b50610432600480360381019061042d91906149e4565b611b8a565b60405161043f91906148ff565b60405180910390f35b34801561045457600080fd5b5061045d611ba2565b60405161046a91906148ff565b60405180910390f35b34801561047f57600080fd5b50610488611c54565b005b34801561049657600080fd5b506104b160048036038101906104ac919061491a565b612218565b005b6104cd60048036038101906104c89190614a11565b61242f565b005b3480156104db57600080fd5b506104f660048036038101906104f19190614a64565b613012565b60405161050391906148ff565b60405180910390f35b34801561051857600080fd5b5061052161302d565b60405161052e9190614af0565b60405180910390f35b34801561054357600080fd5b5061055e600480360381019061055991906147c3565b613053565b005b34801561056c57600080fd5b506105756131d0565b60405161058291906148ff565b60405180910390f35b34801561059757600080fd5b506105a06131d6565b6040516105ad9190614b24565b60405180910390f35b3480156105c257600080fd5b506105cb613277565b6040516105d89190614708565b60405180910390f35b3480156105ed57600080fd5b506105f66132b4565b60405161060391906148ff565b60405180910390f35b34801561061857600080fd5b50610633600480360381019061062e91906147c3565b6132d8565b604051610640919061481e565b60405180910390f35b34801561065557600080fd5b50610670600480360381019061066b91906149e4565b613354565b005b34801561067e57600080fd5b5061068761373b565b6040516106949190614b60565b60405180910390f35b3480156106a957600080fd5b506106c460048036038101906106bf919061491a565b613761565b005b3480156106d257600080fd5b506106db613c6c565b6040516106e891906148ff565b60405180910390f35b3480156106fd57600080fd5b5061071860048036038101906107139190614a64565b613c78565b60405161072591906148ff565b60405180910390f35b34801561073a57600080fd5b50610743613c90565b6040516107509190614b9c565b60405180910390f35b34801561076557600080fd5b5061076e613cb6565b60405161077b9190614bd5565b60405180910390f35b34801561079057600080fd5b506107ab60048036038101906107a69190614bf0565b613cbc565b6040516107b891906148ff565b60405180910390f35b3480156107cd57600080fd5b506107e860048036038101906107e391906149e4565b613cdc565b6040516107ff9b9a99989796959493929190614c30565b60405180910390f35b34801561081457600080fd5b5061082f600480360381019061082a91906149e4565b613d80565b005b34801561083d57600080fd5b506108586004803603810190610853919061491a565b6140e1565b005b60606040518060400160405280600981526020017f4769676153747261740000000000000000000000000000000000000000000000815250905090565b600082602052637f5e9f20600c5233600052816034600c205581600052602c5160601c337f8c5be1e5ebec7d5bd14f71427d1e84f3dd0314c0f7b2291e5b200ac8c7c3b92560206000a36001905092915050565b600280600860003373ffffffffffffffffffffffffffffffffffffffff1673ffffffffffffffffffffffffffffffffffffffff168152602001908152602001600020541461096e576040517f08c379a000000000000000000000000000000000000000000000000000000000815260040161096590614d27565b60405180910390fd5b6000600160009054906101000a900473ffffffffffffffffffffffffffffffffffffffff1673ffffffffffffffffffffffffffffffffffffffff16631638711b88308b8a8a8a60006040518863ffffffff1660e01b81526004016109d89796959493929190614ddf565b6020604051808303816000875af11580156109f7573d6000803e3d6000fd5b505050506040513d601f19601f82011682018060405250810190610a1b9190614e8b565b905060006040518061016001604052808373ffffffffffffffffffffffffffffffffffffffff1681526020018a81526020016000815260200160001515815260200160008152602001600015158152602001858152602001600081526020016000815260200160008152602001600081525090806001815401808255809150506001900390600052602060002090600b020160009091909190915060008201518160000160006101000a81548173ffffffffffffffffffffffffffffffffffffffff021916908373ffffffffffffffffffffffffffffffffffffffff160217905550602082015181600101556040820151816002015560608201518160030160006101000a81548160ff0219169083151502179055506080820151816004015560a08201518160050160006101000a81548160ff02191690831515021790555060c0820151816006015560e082015181600701556101008201518160080155610120820151816009015561014082015181600a015550508073ffffffffffffffffffffffffffffffffffffffff167f648e161f301b32079cbff6f2eecb4b7bc8d0eb9e67218201eb3703bdc232a29f6001600080549050610bdc9190614ee7565b604051610be991906148ff565b60405180910390a25050505050505050565b600260009054906101000a900473ffffffffffffffffffffffffffffffffffffffff1681565b60006805345cdf77eb68f44c54905090565b6000805490508210610c7a576040517f08c379a0000000000000000000000000000000000000000000000000000000008152600401610c7190614f67565b60405180910390fd5b60008111610cbd576040517f08c379a0000000000000000000000000000000000000000000000000000000008152600401610cb490614fd3565b60405180910390fd5b6000808381548110610cd257610cd1614ff3565b5b90600052602060002090600b020190508060000160009054906101000a900473ffffffffffffffffffffffffffffffffffffffff1673ffffffffffffffffffffffffffffffffffffffff166323b872dd3330856040518463ffffffff1660e01b8152600401610d4393929190615022565b6020604051808303816000875af1158015610d62573d6000803e3d6000fd5b505050506040513d601f19601f82011682018060405250810190610d869190615085565b5060008160060154670de0b6b3a764000084610da291906150b2565b610dac9190615123565b9050610db8338261457a565b610df0600660009054906101000a900473ffffffffffffffffffffffffffffffffffffffff16601483610deb9190615123565b61457a565b60008260000160009054906101000a900473ffffffffffffffffffffffffffffffffffffffff1673ffffffffffffffffffffffffffffffffffffffff166318160ddd6040518163ffffffff1660e01b8152600401602060405180830381865afa158015610e61573d6000803e3d6000fd5b505050506040513d601f19601f82011682018060405250810190610e859190615169565b60008681548110610e9957610e98614ff3565b5b90600052602060002090600b02016007015485610eb691906150b2565b610ec09190615123565b90508060008681548110610ed757610ed6614ff3565b5b90600052602060002090600b02016008016000828254610ef79190615196565b925050819055508260000160009054906101000a900473ffffffffffffffffffffffffffffffffffffffff1673ffffffffffffffffffffffffffffffffffffffff1663211d9a53856040518263ffffffff1660e01b8152600401610f5b91906148ff565b600060405180830381600087803b158015610f7557600080fd5b505af1158015610f89573d6000803e3d6000fd5b505050508260000160009054906101000a900473ffffffffffffffffffffffffffffffffffffffff1673ffffffffffffffffffffffffffffffffffffffff1663316fb7c48460000160009054906101000a900473ffffffffffffffffffffffffffffffffffffffff1673ffffffffffffffffffffffffffffffffffffffff166306d378176040518163ffffffff1660e01b8152600401602060405180830381865afa15801561103c573d6000803e3d6000fd5b505050506040513d601f19601f820116820180604052508101906110609190614e8b565b73ffffffffffffffffffffffffffffffffffffffff1663313ce5676040518163ffffffff1660e01b8152600401602060405180830381865afa1580156110aa573d6000803e3d6000fd5b505050506040513d601f19601f820116820180604052508101906110ce91906151f6565b60126110da9190615223565b600a6110e6919061538b565b866110f19190615123565b8560000160009054906101000a900473ffffffffffffffffffffffffffffffffffffffff1673ffffffffffffffffffffffffffffffffffffffff16636f0a7f716040518163ffffffff1660e01b8152600401602060405180830381865afa158015611160573d6000803e3d6000fd5b505050506040513d601f19601f820116820180604052508101906111849190615169565b61118e9190614ee7565b6040518263ffffffff1660e01b81526004016111aa91906148ff565b600060405180830381600087803b1580156111c457600080fd5b505af11580156111d8573d6000803e3d6000fd5b5050505080600760008282546111ee9190615196565b925050819055508260000160009054906101000a900473ffffffffffffffffffffffffffffffffffffffff1673ffffffffffffffffffffffffffffffffffffffff163373ffffffffffffffffffffffffffffffffffffffff167f37e6c831dff7b054163ba09e9da83d6f3655f037c0d389b6f453cff3007a54f186858960405161127a939291906153d6565b60405180910390a35050505050565b60008360601b33602052637f5e9f208117600c526034600c2080548019156112c757808511156112c1576313be252b6000526004601cfd5b84810382555b6387a211a28317600c526020600c208054808711156112ee5763f4d678b86000526004601cfd5b8681038255876000526020600c2087815401815587602052600c5160601c8660601c7fddf252ad1be2c89b69c2b068fc378daa952ba7f163c4a11628f55a4df523b3ef602080a3505050505050600190509392505050565b60006012905090565b600280600860003373ffffffffffffffffffffffffffffffffffffffff1673ffffffffffffffffffffffffffffffffffffffff16815260200190815260200160002054146113d2576040517f08c379a00000000000000000000000000000000000000000000000000000000081526004016113c990614d27565b60405180910390fd5b6000805490508310611419576040517f08c379a000000000000000000000000000000000000000000000000000000000815260040161141090614f67565b60405180910390fd5b600080848154811061142e5761142d614ff3565b5b90600052602060002090600b020190508060030160009054906101000a900460ff1661148f576040517f08c379a000000000000000000000000000000000000000000000000000000000815260040161148690615459565b60405180910390fd5b60006114996131d6565b9050600081136114de576040517f08c379a00000000000000000000000000000000000000000000000000000000081526004016114d5906154c5565b60405180910390fd5b60008168056bc75e2d63100000866114f691906150b2565b6115009190615123565b90506000662386f26fc10000670de0b6b3a764000061151f9190614ee7565b670de0b6b3a76400008361153391906150b2565b61153d9190615123565b9050600460009054906101000a900473ffffffffffffffffffffffffffffffffffffffff1673ffffffffffffffffffffffffffffffffffffffff1663d0e30db0826040518263ffffffff1660e01b81526004016000604051808303818588803b1580156115a957600080fd5b505af11580156115bd573d6000803e3d6000fd5b5050505050600460009054906101000a900473ffffffffffffffffffffffffffffffffffffffff1673ffffffffffffffffffffffffffffffffffffffff1663095ea7b3600360009054906101000a900473ffffffffffffffffffffffffffffffffffffffff16836040518363ffffffff1660e01b81526004016116419291906154e5565b6020604051808303816000875af1158015611660573d6000803e3d6000fd5b505050506040513d601f19601f820116820180604052508101906116849190615085565b5060006040518060e00160405280600460009054906101000a900473ffffffffffffffffffffffffffffffffffffffff1673ffffffffffffffffffffffffffffffffffffffff168152602001600260009054906101000a900473ffffffffffffffffffffffffffffffffffffffff1673ffffffffffffffffffffffffffffffffffffffff1681526020016101f462ffffff1681526020013073ffffffffffffffffffffffffffffffffffffffff168152602001838152602001888152602001600073ffffffffffffffffffffffffffffffffffffffff1681525090506000600360009054906101000a900473ffffffffffffffffffffffffffffffffffffffff1673ffffffffffffffffffffffffffffffffffffffff166304e45aaf836040518263ffffffff1660e01b81526004016117bd91906155d8565b6020604051808303816000875af11580156117dc573d6000803e3d6000fd5b505050506040513d601f19601f820116820180604052508101906118009190615169565b905087811015611845576040517f08c379a000000000000000000000000000000000000000000000000000000000815260040161183c9061563f565b60405180910390fd5b600260009054906101000a900473ffffffffffffffffffffffffffffffffffffffff1673ffffffffffffffffffffffffffffffffffffffff1663095ea7b38760000160009054906101000a900473ffffffffffffffffffffffffffffffffffffffff16836040518363ffffffff1660e01b81526004016118c69291906154e5565b6020604051808303816000875af11580156118e5573d6000803e3d6000fd5b505050506040513d601f19601f820116820180604052508101906119099190615085565b508560000160009054906101000a900473ffffffffffffffffffffffffffffffffffffffff1673ffffffffffffffffffffffffffffffffffffffff1663ab7b1c89826040518263ffffffff1660e01b815260040161196791906148ff565b600060405180830381600087803b15801561198157600080fd5b505af1158015611995573d6000803e3d6000fd5b505050507f040cee90ee4799897c30ca04e5feb6fa43dbba9b6d084b4b257cdafd84ba013e89826040516119ca92919061565f565b60405180910390a1828660080160008282546119e69190615196565b9250508190555060008660000160009054906101000a900473ffffffffffffffffffffffffffffffffffffffff1673ffffffffffffffffffffffffffffffffffffffff1663e7fa9f7d6040518163ffffffff1660e01b8152600401602060405180830381865afa158015611a5e573d6000803e3d6000fd5b505050506040513d601f19601f82011682018060405250810190611a829190615169565b148015611a96575085600101548660020154145b15611b4e5760018660050160006101000a81548160ff021916908315150217905550856008015486600701541115611ae95785600801548660070154611adc9190614ee7565b8660090181905550611b10565b6000866009018190555085600701548660080154611b079190614ee7565b86600a01819055505b7fcaed2f4de03d601fba728ca99751b5304b3d354dad95b26c4629f22f9dc287bb898760090154604051611b4592919061565f565b60405180910390a15b505050505050505050565b662386f26fc1000081565b600460009054906101000a900473ffffffffffffffffffffffffffffffffffffffff1681565b60096020528060005260406000206000915090505481565b600080600080600090505b600080549050811015611c2d5760008181548110611bce57611bcd614ff3565b5b90600052602060002090600b02016009015483611beb9190615196565b925060008181548110611c0157611c00614ff3565b5b90600052602060002090600b0201600a015482611c1e9190615196565b91508080600101915050611bad565b5060008160075484611c3f9190615196565b611c499190614ee7565b905080935050505090565b6000806001600080549050611c699190614ee7565b81548110611c7a57611c79614ff3565b5b90600052602060002090600b020160000160009054906101000a900473ffffffffffffffffffffffffffffffffffffffff1673ffffffffffffffffffffffffffffffffffffffff1663ad044f496040518163ffffffff1660e01b8152600401602060405180830381865afa158015611cf6573d6000803e3d6000fd5b505050506040513d601f19601f82011682018060405250810190611d1a9190615169565b60006001600080549050611d2e9190614ee7565b81548110611d3f57611d3e614ff3565b5b90600052602060002090600b020160000160009054906101000a900473ffffffffffffffffffffffffffffffffffffffff1673ffffffffffffffffffffffffffffffffffffffff16636f0a7f716040518163ffffffff1660e01b8152600401602060405180830381865afa158015611dbb573d6000803e3d6000fd5b505050506040513d601f19601f82011682018060405250810190611ddf9190615169565b611de99190614ee7565b14611df357600080fd5b600080600080611e01611ba2565b9050600a600f611e0f610c21565b836402540be400611e1e6131d6565b611e2891906150b2565b611e3291906150b2565b611e3c9190615123565b611e4691906150b2565b611e509190615123565b9150600a68056bc75e2d6310000047611e676131d6565b611e7191906150b2565b611e7b9190615123565b611e859190615123565b93506509184e72a0008410611e9a5783611ea2565b6509184e72a0005b935060006001600080549050611eb89190614ee7565b81548110611ec957611ec8614ff3565b5b90600052602060002090600b020160000160009054906101000a900473ffffffffffffffffffffffffffffffffffffffff1673ffffffffffffffffffffffffffffffffffffffff16631a9703da6040518163ffffffff1660e01b8152600401602060405180830381865afa158015611f45573d6000803e3d6000fd5b505050506040513d601f19601f82011682018060405250810190611f699190615169565b92506000600160009054906101000a900473ffffffffffffffffffffffffffffffffffffffff1673ffffffffffffffffffffffffffffffffffffffff16631638711b600260009054906101000a900473ffffffffffffffffffffffffffffffffffffffff1630888860003060006040518863ffffffff1660e01b8152600401611ff897969594939291906156c3565b6020604051808303816000875af1158015612017573d6000803e3d6000fd5b505050506040513d601f19601f8201168201806040525081019061203b9190614e8b565b905060006040518061016001604052808373ffffffffffffffffffffffffffffffffffffffff1681526020018781526020016000815260200160001515815260200160008152602001600015158152602001858152602001600081526020016000815260200160008152602001600081525090806001815401808255809150506001900390600052602060002090600b020160009091909190915060008201518160000160006101000a81548173ffffffffffffffffffffffffffffffffffffffff021916908373ffffffffffffffffffffffffffffffffffffffff160217905550602082015181600101556040820151816002015560608201518160030160006101000a81548160ff0219169083151502179055506080820151816004015560a08201518160050160006101000a81548160ff02191690831515021790555060c0820151816006015560e082015181600701556101008201518160080155610120820151816009015561014082015181600a015550508073ffffffffffffffffffffffffffffffffffffffff167f648e161f301b32079cbff6f2eecb4b7bc8d0eb9e67218201eb3703bdc232a29f60016000805490506121fc9190614ee7565b60405161220991906148ff565b60405180910390a25050505050565b600280600860003373ffffffffffffffffffffffffffffffffffffffff1673ffffffffffffffffffffffffffffffffffffffff168152602001908152602001600020541461229b576040517f08c379a000000000000000000000000000000000000000000000000000000000815260040161229290614d27565b60405180910390fd5b60008054905083106122e2576040517f08c379a00000000000000000000000000000000000000000000000000000000081526004016122d990614f67565b60405180910390fd5b60008084815481106122f7576122f6614ff3565b5b90600052602060002090600b020190508060000160009054906101000a900473ffffffffffffffffffffffffffffffffffffffff1673ffffffffffffffffffffffffffffffffffffffff1663038f5ed6846040518263ffffffff1660e01b815260040161236491906148ff565b600060405180830381600087803b15801561237e57600080fd5b505af1158015612392573d6000803e3d6000fd5b50505050828160020160008282546123aa9190615196565b925050819055508060030160009054906101000a900460ff166123ee5760018160030160006101000a81548160ff0219169083151502179055504281600401819055505b7fd1edbdd34fee983e251c22a8f20c29c0d667e6a7e6019a2525291314611c61e6834286604051612421939291906153d6565b60405180910390a150505050565b60008103612c4c578160646000858154811061244e5761244d614ff3565b5b90600052602060002090600b020160000160009054906101000a900473ffffffffffffffffffffffffffffffffffffffff1673ffffffffffffffffffffffffffffffffffffffff1663ad044f496040518163ffffffff1660e01b8152600401602060405180830381865afa1580156124ca573d6000803e3d6000fd5b505050506040513d601f19601f820116820180604052508101906124ee9190615169565b6124f89190615123565b14612538576040517f08c379a000000000000000000000000000000000000000000000000000000000815260040161252f906157a6565b60405180910390fd5b600080848154811061254d5761254c614ff3565b5b90600052602060002090600b020160000160009054906101000a900473ffffffffffffffffffffffffffffffffffffffff1673ffffffffffffffffffffffffffffffffffffffff1663e7fa9f7d6040518163ffffffff1660e01b8152600401602060405180830381865afa1580156125c9573d6000803e3d6000fd5b505050506040513d601f19601f820116820180604052508101906125ed9190615169565b1161262d576040517f08c379a000000000000000000000000000000000000000000000000000000000815260040161262490615812565b60405180910390fd5b426203f48060096000868152602001908152602001600020546126509190615196565b111561265b57600080fd5b426009600085815260200190815260200160002081905550600260009054906101000a900473ffffffffffffffffffffffffffffffffffffffff1673ffffffffffffffffffffffffffffffffffffffff166323b872dd3330856040518463ffffffff1660e01b81526004016126d293929190615022565b6020604051808303816000875af11580156126f1573d6000803e3d6000fd5b505050506040513d601f19601f820116820180604052508101906127159190615085565b506000838154811061272a57612729614ff3565b5b90600052602060002090600b020160000160009054906101000a900473ffffffffffffffffffffffffffffffffffffffff1673ffffffffffffffffffffffffffffffffffffffff1663ab7b1c89836040518263ffffffff1660e01b815260040161279491906148ff565b600060405180830381600087803b1580156127ae57600080fd5b505af11580156127c2573d6000803e3d6000fd5b505050503373ffffffffffffffffffffffffffffffffffffffff166108fc6103e86103ed6402540be4006127f46131d6565b6127fe91906150b2565b64e8d4a510008761280f91906150b2565b6128199190615123565b61282391906150b2565b61282d9190615123565b9081150290604051600060405180830381858888f19350505050158015612858573d6000803e3d6000fd5b506103e86103ed6402540be40061286d6131d6565b61287791906150b2565b64e8d4a510008561288891906150b2565b6128929190615123565b61289c91906150b2565b6128a69190615123565b600084815481106128ba576128b9614ff3565b5b90600052602060002090600b020160080160008282546128da9190615196565b925050819055507f040cee90ee4799897c30ca04e5feb6fa43dbba9b6d084b4b257cdafd84ba013e838360405161291292919061565f565b60405180910390a1600080848154811061292f5761292e614ff3565b5b90600052602060002090600b020160000160009054906101000a900473ffffffffffffffffffffffffffffffffffffffff1673ffffffffffffffffffffffffffffffffffffffff1663e7fa9f7d6040518163ffffffff1660e01b8152600401602060405180830381865afa1580156129ab573d6000803e3d6000fd5b505050506040513d601f19601f820116820180604052508101906129cf9190615169565b148015612a255750600083815481106129eb576129ea614ff3565b5b90600052602060002090600b02016001015460008481548110612a1157612a10614ff3565b5b90600052602060002090600b020160020154145b15612c4757600160008481548110612a4057612a3f614ff3565b5b90600052602060002090600b020160050160006101000a81548160ff02191690831515021790555060008381548110612a7c57612a7b614ff3565b5b90600052602060002090600b02016008015460008481548110612aa257612aa1614ff3565b5b90600052602060002090600b0201600701541115612b3e5760008381548110612ace57612acd614ff3565b5b90600052602060002090600b02016008015460008481548110612af457612af3614ff3565b5b90600052602060002090600b020160070154612b109190614ee7565b60008481548110612b2457612b23614ff3565b5b90600052602060002090600b020160090181905550612be8565b6000808481548110612b5357612b52614ff3565b5b90600052602060002090600b02016009018190555060008381548110612b7c57612b7b614ff3565b5b90600052602060002090600b02016007015460008481548110612ba257612ba1614ff3565b5b90600052602060002090600b020160080154612bbe9190614ee7565b60008481548110612bd257612bd1614ff3565b5b90600052602060002090600b0201600a01819055505b7fcaed2f4de03d601fba728ca99751b5304b3d354dad95b26c4629f22f9dc287bb8360008581548110612c1e57612c1d614ff3565b5b90600052602060002090600b020160090154604051612c3e92919061565f565b60405180910390a15b61300d565b6001810361300c57816305f5e100346103e86103e3612c696131d6565b612c7391906150b2565b612c7d9190615123565b612c8791906150b2565b612c919190615123565b1015612cd2576040517f08c379a0000000000000000000000000000000000000000000000000000000008152600401612cc99061587e565b60405180910390fd5b8160008481548110612ce757612ce6614ff3565b5b90600052602060002090600b020160000160009054906101000a900473ffffffffffffffffffffffffffffffffffffffff1673ffffffffffffffffffffffffffffffffffffffff1663fe3699c66040518163ffffffff1660e01b8152600401602060405180830381865afa158015612d63573d6000803e3d6000fd5b505050506040513d601f19601f82011682018060405250810190612d879190615169565b60008581548110612d9b57612d9a614ff3565b5b90600052602060002090600b020160000160009054906101000a900473ffffffffffffffffffffffffffffffffffffffff1673ffffffffffffffffffffffffffffffffffffffff1663ad044f496040518163ffffffff1660e01b8152600401602060405180830381865afa158015612e17573d6000803e3d6000fd5b505050506040513d601f19601f82011682018060405250810190612e3b9190615169565b612e459190614ee7565b1015612e86576040517f08c379a0000000000000000000000000000000000000000000000000000000008152600401612e7d906158ea565b60405180910390fd5b3073ffffffffffffffffffffffffffffffffffffffff16636b7619c484846040518363ffffffff1660e01b8152600401612ec192919061565f565b600060405180830381600087803b158015612edb57600080fd5b505af1158015612eef573d6000803e3d6000fd5b50505050600260009054906101000a900473ffffffffffffffffffffffffffffffffffffffff1673ffffffffffffffffffffffffffffffffffffffff1663a9059cbb33846040518363ffffffff1660e01b8152600401612f509291906154e5565b6020604051808303816000875af1158015612f6f573d6000803e3d6000fd5b505050506040513d601f19601f82011682018060405250810190612f939190615085565b503460008481548110612fa957612fa8614ff3565b5b90600052602060002090600b02016007016000828254612fc99190615196565b925050819055507fd15ae7b6dd35fea2f80ac5ecad34c59d0f1edd4a0368585ee58f5ed1d4126ade838334604051613003939291906153d6565b60405180910390a15b5b505050565b60006387a211a2600c52816000526020600c20549050919050565b600560009054906101000a900473ffffffffffffffffffffffffffffffffffffffff1681565b600180600860003373ffffffffffffffffffffffffffffffffffffffff1673ffffffffffffffffffffffffffffffffffffffff16815260200190815260200160002054146130d6576040517f08c379a00000000000000000000000000000000000000000000000000000000081526004016130cd90614d27565b60405180910390fd5b81600860008573ffffffffffffffffffffffffffffffffffffffff1673ffffffffffffffffffffffffffffffffffffffff168152602001908152602001600020819055506003821461318957600660009054906101000a900473ffffffffffffffffffffffffffffffffffffffff16600660006101000a81548173ffffffffffffffffffffffffffffffffffffffff021916908373ffffffffffffffffffffffffffffffffffffffff16021790556131ca565b82600660006101000a81548173ffffffffffffffffffffffffffffffffffffffff021916908373ffffffffffffffffffffffffffffffffffffffff16021790555b50505050565b60075481565b600080600560009054906101000a900473ffffffffffffffffffffffffffffffffffffffff1673ffffffffffffffffffffffffffffffffffffffff1663feaf968c6040518163ffffffff1660e01b815260040160a060405180830381865afa158015613246573d6000803e3d6000fd5b505050506040513d601f19601f8201168201806040525081019061326a9190615978565b5050509150508091505090565b60606040518060400160405280600281526020017f4747000000000000000000000000000000000000000000000000000000000000815250905090565b7fffffffffffffffffffffffffffffffffffffffffffffffffffffffffffffffff81565b60006387a211a2600c52336000526020600c208054808411156133035763f4d678b86000526004601cfd5b8381038255846000526020600c2084815401815584602052600c5160601c337fddf252ad1be2c89b69c2b068fc378daa952ba7f163c4a11628f55a4df523b3ef602080a35050506001905092915050565b426203f48060096000848152602001908152602001600020546133779190615196565b111561338257600080fd5b600080828154811061339757613396614ff3565b5b90600052602060002090600b020160000160009054906101000a900473ffffffffffffffffffffffffffffffffffffffff1673ffffffffffffffffffffffffffffffffffffffff1663e7fa9f7d6040518163ffffffff1660e01b8152600401602060405180830381865afa158015613413573d6000803e3d6000fd5b505050506040513d601f19601f820116820180604052508101906134379190615169565b11613477576040517f08c379a000000000000000000000000000000000000000000000000000000000815260040161346e90615812565b60405180910390fd5b42600960008381526020019081526020016000208190555060006064600083815481106134a7576134a6614ff3565b5b90600052602060002090600b020160000160009054906101000a900473ffffffffffffffffffffffffffffffffffffffff1673ffffffffffffffffffffffffffffffffffffffff1663ad044f496040518163ffffffff1660e01b8152600401602060405180830381865afa158015613523573d6000803e3d6000fd5b505050506040513d601f19601f820116820180604052508101906135479190615169565b6135519190615123565b90506000828154811061356757613566614ff3565b5b90600052602060002090600b020160000160009054906101000a900473ffffffffffffffffffffffffffffffffffffffff1673ffffffffffffffffffffffffffffffffffffffff1663e7fa9f7d6040518163ffffffff1660e01b8152600401602060405180830381865afa1580156135e3573d6000803e3d6000fd5b505050506040513d601f19601f820116820180604052508101906136079190615169565b811161361357806136c8565b6000828154811061362757613626614ff3565b5b90600052602060002090600b020160000160009054906101000a900473ffffffffffffffffffffffffffffffffffffffff1673ffffffffffffffffffffffffffffffffffffffff1663e7fa9f7d6040518163ffffffff1660e01b8152600401602060405180830381865afa1580156136a3573d6000803e3d6000fd5b505050506040513d601f19601f820116820180604052508101906136c79190615169565b5b90503073ffffffffffffffffffffffffffffffffffffffff16633614d0d283836040518363ffffffff1660e01b815260040161370592919061565f565b600060405180830381600087803b15801561371f57600080fd5b505af1158015613733573d6000803e3d6000fd5b505050505050565b600360009054906101000a900473ffffffffffffffffffffffffffffffffffffffff1681565b600280600860003373ffffffffffffffffffffffffffffffffffffffff1673ffffffffffffffffffffffffffffffffffffffff16815260200190815260200160002054146137e4576040517f08c379a00000000000000000000000000000000000000000000000000000000081526004016137db90614d27565b60405180910390fd5b600080549050831061382b576040517f08c379a000000000000000000000000000000000000000000000000000000000815260040161382290614f67565b60405180910390fd5b6000821161386e576040517f08c379a000000000000000000000000000000000000000000000000000000000815260040161386590615a3f565b60405180910390fd5b600260009054906101000a900473ffffffffffffffffffffffffffffffffffffffff1673ffffffffffffffffffffffffffffffffffffffff1663095ea7b3600360009054906101000a900473ffffffffffffffffffffffffffffffffffffffff16846040518363ffffffff1660e01b81526004016138ed9291906154e5565b6020604051808303816000875af115801561390c573d6000803e3d6000fd5b505050506040513d601f19601f820116820180604052508101906139309190615085565b50600061393b6131d6565b905060008113613980576040517f08c379a000000000000000000000000000000000000000000000000000000000815260040161397790615aab565b60405180910390fd5b60008168056bc75e2d631000008561399891906150b2565b6139a29190615123565b90506000670de0b6b3a7640000662386f26fc10000670de0b6b3a76400006139ca9190614ee7565b836139d591906150b2565b6139df9190615123565b905060006040518060e00160405280600260009054906101000a900473ffffffffffffffffffffffffffffffffffffffff1673ffffffffffffffffffffffffffffffffffffffff168152602001600460009054906101000a900473ffffffffffffffffffffffffffffffffffffffff1673ffffffffffffffffffffffffffffffffffffffff1681526020016101f462ffffff1681526020013073ffffffffffffffffffffffffffffffffffffffff168152602001878152602001838152602001600073ffffffffffffffffffffffffffffffffffffffff1681525090506000600360009054906101000a900473ffffffffffffffffffffffffffffffffffffffff1673ffffffffffffffffffffffffffffffffffffffff166304e45aaf836040518263ffffffff1660e01b8152600401613b1991906155d8565b6020604051808303816000875af1158015613b38573d6000803e3d6000fd5b505050506040513d601f19601f82011682018060405250810190613b5c9190615169565b9050600460009054906101000a900473ffffffffffffffffffffffffffffffffffffffff1673ffffffffffffffffffffffffffffffffffffffff16632e1a7d4d826040518263ffffffff1660e01b8152600401613bb991906148ff565b600060405180830381600087803b158015613bd357600080fd5b505af1158015613be7573d6000803e3d6000fd5b505050508060008981548110613c0057613bff614ff3565b5b90600052602060002090600b02016007016000828254613c209190615196565b925050819055507fd15ae7b6dd35fea2f80ac5ecad34c59d0f1edd4a0368585ee58f5ed1d4126ade888883604051613c5a939291906153d6565b60405180910390a15050505050505050565b60008080549050905090565b60086020528060005260406000206000915090505481565b600160009054906101000a900473ffffffffffffffffffffffffffffffffffffffff1681565b6101f481565b600081602052637f5e9f20600c52826000526034600c2054905092915050565b60008181548110613cec57600080fd5b90600052602060002090600b02016000915090508060000160009054906101000a900473ffffffffffffffffffffffffffffffffffffffff16908060010154908060020154908060030160009054906101000a900460ff16908060040154908060050160009054906101000a900460ff169080600601549080600701549080600801549080600901549080600a015490508b565b60008111613dc3576040517f08c379a0000000000000000000000000000000000000000000000000000000008152600401613dba90615b17565b60405180910390fd5b80613dcd33613012565b1015613e0e576040517f08c379a0000000000000000000000000000000000000000000000000000000008152600401613e0590615b83565b60405180910390fd5b6000613e18611ba2565b90506000613e24610c21565b8284613e3091906150b2565b613e3a9190615123565b905060008111613e7f576040517f08c379a0000000000000000000000000000000000000000000000000000000008152600401613e7690615bef565b60405180910390fd5b613e8933846145f9565b6000816007541015613e9d57600754613e9f565b815b90508060076000828254613eb39190614ee7565b9250508190555060008183613ec89190614ee7565b90506000811115613fdd57600081905060005b600080549050811015613fda576000808281548110613efd57613efc614ff3565b5b90600052602060002090600b0201600901540315613fcd5760008260008381548110613f2c57613f2b614ff3565b5b90600052602060002090600b0201600901541015613f6f5760008281548110613f5857613f57614ff3565b5b90600052602060002090600b020160090154613f71565b825b90508060008381548110613f8857613f87614ff3565b5b90600052602060002090600b02016009016000828254613fa89190614ee7565b925050819055508083613fbb9190614ee7565b925060008303613fcb5750613fda565b505b8080600101915050613edb565b50505b60003373ffffffffffffffffffffffffffffffffffffffff168460405161400390615c40565b60006040518083038185875af1925050503d8060008114614040576040519150601f19603f3d011682016040523d82523d6000602084013e614045565b606091505b5050905080614089576040517f08c379a000000000000000000000000000000000000000000000000000000000815260040161408090615ca1565b60405180910390fd5b3373ffffffffffffffffffffffffffffffffffffffff167f8dc57a14dabae9681ec851990eb2b72788cd4aa030f739d90e5c614a9dd174e487866040516140d192919061565f565b60405180910390a2505050505050565b600260009054906101000a900473ffffffffffffffffffffffffffffffffffffffff1673ffffffffffffffffffffffffffffffffffffffff166323b872dd3330846040518463ffffffff1660e01b815260040161414093929190615022565b6020604051808303816000875af115801561415f573d6000803e3d6000fd5b505050506040513d601f19601f820116820180604052508101906141839190615085565b50600260009054906101000a900473ffffffffffffffffffffffffffffffffffffffff1673ffffffffffffffffffffffffffffffffffffffff1663095ea7b3600084815481106141d6576141d5614ff3565b5b90600052602060002090600b020160000160009054906101000a900473ffffffffffffffffffffffffffffffffffffffff16836040518363ffffffff1660e01b81526004016142269291906154e5565b6020604051808303816000875af1158015614245573d6000803e3d6000fd5b505050506040513d601f19601f820116820180604052508101906142699190615085565b506000828154811061427e5761427d614ff3565b5b90600052602060002090600b020160000160009054906101000a900473ffffffffffffffffffffffffffffffffffffffff1673ffffffffffffffffffffffffffffffffffffffff1663846b909a826040518263ffffffff1660e01b81526004016142e891906148ff565b600060405180830381600087803b15801561430257600080fd5b505af1158015614316573d6000803e3d6000fd5b505050506000828154811061432e5761432d614ff3565b5b90600052602060002090600b020160000160009054906101000a900473ffffffffffffffffffffffffffffffffffffffff1673ffffffffffffffffffffffffffffffffffffffff1663a9059cbb33600085815481106143905761438f614ff3565b5b90600052602060002090600b020160000160009054906101000a900473ffffffffffffffffffffffffffffffffffffffff1673ffffffffffffffffffffffffffffffffffffffff166370a08231306040518263ffffffff1660e01b81526004016143fa91906148d5565b602060405180830381865afa158015614417573d6000803e3d6000fd5b505050506040513d601f19601f8201168201806040525081019061443b9190615169565b6040518363ffffffff1660e01b81526004016144589291906154e5565b6020604051808303816000875af1158015614477573d6000803e3d6000fd5b505050506040513d601f19601f8201168201806040525081019061449b9190615085565b503073ffffffffffffffffffffffffffffffffffffffff16636b7619c483836040518363ffffffff1660e01b81526004016144d792919061565f565b600060405180830381600087803b1580156144f157600080fd5b505af1158015614505573d6000803e3d6000fd5b505050503073ffffffffffffffffffffffffffffffffffffffff1663cb254f7e83836040518363ffffffff1660e01b815260040161454492919061565f565b600060405180830381600087803b15801561455e57600080fd5b505af1158015614572573d6000803e3d6000fd5b505050505050565b6805345cdf77eb68f44c548181018181101561459e5763e5cfe9576000526004601cfd5b806805345cdf77eb68f44c556387a211a2600c52836000526020600c2083815401815583602052600c5160601c60007fddf252ad1be2c89b69c2b068fc378daa952ba7f163c4a11628f55a4df523b3ef602080a35050505050565b6387a211a2600c52816000526020600c208054808311156146225763f4d678b86000526004601cfd5b8281038255826805345cdf77eb68f44c54036805345cdf77eb68f44c558260005260008460601b60601c7fddf252ad1be2c89b69c2b068fc378daa952ba7f163c4a11628f55a4df523b3ef60206000a350505050565b600081519050919050565b600082825260208201905092915050565b60005b838110156146b2578082015181840152602081019050614697565b60008484015250505050565b6000601f19601f8301169050919050565b60006146da82614678565b6146e48185614683565b93506146f4818560208601614694565b6146fd816146be565b840191505092915050565b6000602082019050818103600083015261472281846146cf565b905092915050565b600080fd5b600073ffffffffffffffffffffffffffffffffffffffff82169050919050565b600061475a8261472f565b9050919050565b61476a8161474f565b811461477557600080fd5b50565b60008135905061478781614761565b92915050565b6000819050919050565b6147a08161478d565b81146147ab57600080fd5b50565b6000813590506147bd81614797565b92915050565b600080604083850312156147da576147d961472a565b5b60006147e885828601614778565b92505060206147f9858286016147ae565b9150509250929050565b60008115159050919050565b61481881614803565b82525050565b6000602082019050614833600083018461480f565b92915050565b60008060008060008060c087890312156148565761485561472a565b5b600061486489828a016147ae565b965050602061487589828a01614778565b955050604061488689828a016147ae565b945050606061489789828a016147ae565b93505060806148a889828a01614778565b92505060a06148b989828a016147ae565b9150509295509295509295565b6148cf8161474f565b82525050565b60006020820190506148ea60008301846148c6565b92915050565b6148f98161478d565b82525050565b600060208201905061491460008301846148f0565b92915050565b600080604083850312156149315761493061472a565b5b600061493f858286016147ae565b9250506020614950858286016147ae565b9150509250929050565b6000806000606084860312156149735761497261472a565b5b600061498186828701614778565b935050602061499286828701614778565b92505060406149a3868287016147ae565b9150509250925092565b600060ff82169050919050565b6149c3816149ad565b82525050565b60006020820190506149de60008301846149ba565b92915050565b6000602082840312156149fa576149f961472a565b5b6000614a08848285016147ae565b91505092915050565b600080600060608486031215614a2a57614a2961472a565b5b6000614a38868287016147ae565b9350506020614a49868287016147ae565b9250506040614a5a868287016147ae565b9150509250925092565b600060208284031215614a7a57614a7961472a565b5b6000614a8884828501614778565b91505092915050565b6000819050919050565b6000614ab6614ab1614aac8461472f565b614a91565b61472f565b9050919050565b6000614ac882614a9b565b9050919050565b6000614ada82614abd565b9050919050565b614aea81614acf565b82525050565b6000602082019050614b056000830184614ae1565b92915050565b6000819050919050565b614b1e81614b0b565b82525050565b6000602082019050614b396000830184614b15565b92915050565b6000614b4a82614abd565b9050919050565b614b5a81614b3f565b82525050565b6000602082019050614b756000830184614b51565b92915050565b6000614b8682614abd565b9050919050565b614b9681614b7b565b82525050565b6000602082019050614bb16000830184614b8d565b92915050565b600062ffffff82169050919050565b614bcf81614bb7565b82525050565b6000602082019050614bea6000830184614bc6565b92915050565b60008060408385031215614c0757614c0661472a565b5b6000614c1585828601614778565b9250506020614c2685828601614778565b9150509250929050565b600061016082019050614c46600083018e6148c6565b614c53602083018d6148f0565b614c60604083018c6148f0565b614c6d606083018b61480f565b614c7a608083018a6148f0565b614c8760a083018961480f565b614c9460c08301886148f0565b614ca160e08301876148f0565b614caf6101008301866148f0565b614cbd6101208301856148f0565b614ccb6101408301846148f0565b9c9b505050505050505050505050565b7f4e6f7420617574686f72697a6564000000000000000000000000000000000000600082015250565b6000614d11600e83614683565b9150614d1c82614cdb565b602082019050919050565b60006020820190508181036000830152614d4081614d04565b9050919050565b7f4769676153747261740000000000000000000000000000000000000000000000600082015250565b6000614d7d600983614683565b9150614d8882614d47565b602082019050919050565b7f4747000000000000000000000000000000000000000000000000000000000000600082015250565b6000614dc9600283614683565b9150614dd482614d93565b602082019050919050565b600061012082019050614df5600083018a6148c6565b614e0260208301896148c6565b614e0f60408301886148f0565b614e1c60608301876148f0565b614e2960808301866148f0565b614e3660a08301856148c6565b81810360c0830152614e4781614d70565b905081810360e0830152614e5a81614dbc565b9050614e6a61010083018461480f565b98975050505050505050565b600081519050614e8581614761565b92915050565b600060208284031215614ea157614ea061472a565b5b6000614eaf84828501614e76565b91505092915050565b7f4e487b7100000000000000000000000000000000000000000000000000000000600052601160045260246000fd5b6000614ef28261478d565b9150614efd8361478d565b9250828203905081811115614f1557614f14614eb8565b5b92915050565b7f496e76616c6964206c6f616e20696e6465780000000000000000000000000000600082015250565b6000614f51601283614683565b9150614f5c82614f1b565b602082019050919050565b60006020820190508181036000830152614f8081614f44565b9050919050565b7f494f5520616d6f756e74206d757374206265203e203000000000000000000000600082015250565b6000614fbd601683614683565b9150614fc882614f87565b602082019050919050565b60006020820190508181036000830152614fec81614fb0565b9050919050565b7f4e487b7100000000000000000000000000000000000000000000000000000000600052603260045260246000fd5b600060608201905061503760008301866148c6565b61504460208301856148c6565b61505160408301846148f0565b949350505050565b61506281614803565b811461506d57600080fd5b50565b60008151905061507f81615059565b92915050565b60006020828403121561509b5761509a61472a565b5b60006150a984828501615070565b91505092915050565b60006150bd8261478d565b91506150c88361478d565b92508282026150d68161478d565b915082820484148315176150ed576150ec614eb8565b5b5092915050565b7f4e487b7100000000000000000000000000000000000000000000000000000000600052601260045260246000fd5b600061512e8261478d565b91506151398361478d565b925082615149576151486150f4565b5b828204905092915050565b60008151905061516381614797565b92915050565b60006020828403121561517f5761517e61472a565b5b600061518d84828501615154565b91505092915050565b60006151a18261478d565b91506151ac8361478d565b92508282019050808211156151c4576151c3614eb8565b5b92915050565b6151d3816149ad565b81146151de57600080fd5b50565b6000815190506151f0816151ca565b92915050565b60006020828403121561520c5761520b61472a565b5b600061521a848285016151e1565b91505092915050565b600061522e826149ad565b9150615239836149ad565b9250828203905060ff81111561525257615251614eb8565b5b92915050565b60008160011c9050919050565b6000808291508390505b60018511156152af5780860481111561528b5761528a614eb8565b5b600185161561529a5780820291505b80810290506152a885615258565b945061526f565b94509492505050565b6000826152c85760019050615384565b816152d65760009050615384565b81600181146152ec57600281146152f657615325565b6001915050615384565b60ff84111561530857615307614eb8565b5b8360020a91508482111561531f5761531e614eb8565b5b50615384565b5060208310610133831016604e8410600b841016171561535a5782820a90508381111561535557615354614eb8565b5b615384565b6153678484846001615265565b9250905081840481111561537e5761537d614eb8565b5b81810290505b9392505050565b60006153968261478d565b91506153a1836149ad565b92506153ce7fffffffffffffffffffffffffffffffffffffffffffffffffffffffffffffffff84846152b8565b905092915050565b60006060820190506153eb60008301866148f0565b6153f860208301856148f0565b61540560408301846148f0565b949350505050565b7f4c6f616e206e6f7420647261776e20646f776e00000000000000000000000000600082015250565b6000615443601383614683565b915061544e8261540d565b602082019050919050565b6000602082019050818103600083015261547281615436565b9050919050565b7f496e76616c69642070726963652066726f6d206f7261636c6500000000000000600082015250565b60006154af601983614683565b91506154ba82615479565b602082019050919050565b600060208201905081810360008301526154de816154a2565b9050919050565b60006040820190506154fa60008301856148c6565b61550760208301846148f0565b9392505050565b6155178161474f565b82525050565b61552681614bb7565b82525050565b6155358161478d565b82525050565b6155448161472f565b82525050565b60e082016000820151615560600085018261550e565b506020820151615573602085018261550e565b506040820151615586604085018261551d565b506060820151615599606085018261550e565b5060808201516155ac608085018261552c565b5060a08201516155bf60a085018261552c565b5060c08201516155d260c085018261553b565b50505050565b600060e0820190506155ed600083018461554a565b92915050565b7f4e6f7420656e6f7567682055534443206f757400000000000000000000000000600082015250565b6000615629601383614683565b9150615634826155f3565b602082019050919050565b600060208201905081810360008301526156588161561c565b9050919050565b600060408201905061567460008301856148f0565b61568160208301846148f0565b9392505050565b6000819050919050565b60006156ad6156a86156a384615688565b614a91565b61478d565b9050919050565b6156bd81615692565b82525050565b6000610120820190506156d9600083018a6148c6565b6156e660208301896148c6565b6156f360408301886148f0565b61570060608301876148f0565b61570d60808301866156b4565b61571a60a08301856148c6565b81810360c083015261572b81614d70565b905081810360e083015261573e81614dbc565b905061574e61010083018461480f565b98975050505050505050565b7f546f6f206d7563682073656e7400000000000000000000000000000000000000600082015250565b6000615790600d83614683565b915061579b8261575a565b602082019050919050565b600060208201905081810360008301526157bf81615783565b9050919050565b7f4c6f616e2066756c6c7920726570616964000000000000000000000000000000600082015250565b60006157fc601183614683565b9150615807826157c6565b602082019050919050565b6000602082019050818103600083015261582b816157ef565b9050919050565b7f4e6f7420656e6f7567682073656e740000000000000000000000000000000000600082015250565b6000615868600f83614683565b915061587382615832565b602082019050919050565b600060208201905081810360008301526158978161585b565b9050919050565b7f4e6f7420656e6f7567682066756e647300000000000000000000000000000000600082015250565b60006158d4601083614683565b91506158df8261589e565b602082019050919050565b60006020820190508181036000830152615903816158c7565b9050919050565b600069ffffffffffffffffffff82169050919050565b6159298161590a565b811461593457600080fd5b50565b60008151905061594681615920565b92915050565b61595581614b0b565b811461596057600080fd5b50565b6000815190506159728161594c565b92915050565b600080600080600060a086880312156159945761599361472a565b5b60006159a288828901615937565b95505060206159b388828901615963565b94505060406159c488828901615154565b93505060606159d588828901615154565b92505060806159e688828901615937565b9150509295509295909350565b7f5553444320616d6f756e74206d757374206265203e2030000000000000000000600082015250565b6000615a29601783614683565b9150615a34826159f3565b602082019050919050565b60006020820190508181036000830152615a5881615a1c565b9050919050565b7f496e76616c6964206f7261636c65207072696365000000000000000000000000600082015250565b6000615a95601483614683565b9150615aa082615a5f565b602082019050919050565b60006020820190508181036000830152615ac481615a88565b9050919050565b7f44414f20746f6b656e20616d6f756e74206d757374206265203e203000000000600082015250565b6000615b01601c83614683565b9150615b0c82615acb565b602082019050919050565b60006020820190508181036000830152615b3081615af4565b9050919050565b7f496e73756666696369656e742062616c616e6365000000000000000000000000600082015250565b6000615b6d601483614683565b9150615b7882615b37565b602082019050919050565b60006020820190508181036000830152615b9c81615b60565b9050919050565b7f55736572207368617265206973207a65726f0000000000000000000000000000600082015250565b6000615bd9601283614683565b9150615be482615ba3565b602082019050919050565b60006020820190508181036000830152615c0881615bcc565b9050919050565b600081905092915050565b50565b6000615c2a600083615c0f565b9150615c3582615c1a565b600082019050919050565b6000615c4b82615c1d565b9150819050919050565b7f455448207472616e73666572206661696c656400000000000000000000000000600082015250565b6000615c8b601383614683565b9150615c9682615c55565b602082019050919050565b60006020820190508181036000830152615cba81615c7e565b905091905056fea2646970667358221220f9b9f7ad37f1e9d7c824aa0ec0acdf134cfb27abcb0a36c0f286583f7a304f9064736f6c63430008180033",
  "linkReferences": {},
  "deployedLinkReferences": {}
}