{
  "_format": "hh-sol-artifact-1",
  "contractName": "ERC721Mock",
  "sourceName": "contracts/mock/ERC721Mock.sol",
  "abi": [
    {
      "inputs": [
        {
          "internalType": "string",
          "name": "name",
          "type": "string"
        },
        {
          "internalType": "string",
          "name": "symbol",
          "type": "string"
        }
      ],
      "stateMutability": "nonpayable",
      "type": "constructor"
    },
    {
      "anonymous": false,
      "inputs": [
        {
          "indexed": true,
          "internalType": "address",
          "name": "owner",
          "type": "address"
        },
        {
          "indexed": true,
          "internalType": "address",
          "name": "approved",
          "type": "address"
        },
        {
          "indexed": true,
          "internalType": "uint256",
          "name": "tokenId",
          "type": "uint256"
        }
      ],
      "name": "Approval",
      "type": "event"
    },
    {
      "anonymous": false,
      "inputs": [
        {
          "indexed": true,
          "internalType": "address",
          "name": "owner",
          "type": "address"
        },
        {
          "indexed": true,
          "internalType": "address",
          "name": "operator",
          "type": "address"
        },
        {
          "indexed": false,
          "internalType": "bool",
          "name": "approved",
          "type": "bool"
        }
      ],
      "name": "ApprovalForAll",
      "type": "event"
    },
    {
      "anonymous": false,
      "inputs": [
        {
          "indexed": true,
          "internalType": "address",
          "name": "from",
          "type": "address"
        },
        {
          "indexed": true,
          "internalType": "address",
          "name": "to",
          "type": "address"
        },
        {
          "indexed": true,
          "internalType": "uint256",
          "name": "tokenId",
          "type": "uint256"
        }
      ],
      "name": "Transfer",
      "type": "event"
    },
    {
      "inputs": [
        {
          "internalType": "address",
          "name": "to",
          "type": "address"
        },
        {
          "internalType": "uint256",
          "name": "tokenId",
          "type": "uint256"
        }
      ],
      "name": "approve",
      "outputs": [],
      "stateMutability": "nonpayable",
      "type": "function"
    },
    {
      "inputs": [
        {
          "internalType": "address",
          "name": "owner",
          "type": "address"
        }
      ],
      "name": "balanceOf",
      "outputs": [
        {
          "internalType": "uint256",
          "name": "",
          "type": "uint256"
        }
      ],
      "stateMutability": "view",
      "type": "function"
    },
    {
      "inputs": [
        {
          "internalType": "uint256",
          "name": "tokenId",
          "type": "uint256"
        }
      ],
      "name": "getApproved",
      "outputs": [
        {
          "internalType": "address",
          "name": "",
          "type": "address"
        }
      ],
      "stateMutability": "view",
      "type": "function"
    },
    {
      "inputs": [
        {
          "internalType": "address",
          "name": "owner",
          "type": "address"
        },
        {
          "internalType": "address",
          "name": "operator",
          "type": "address"
        }
      ],
      "name": "isApprovedForAll",
      "outputs": [
        {
          "internalType": "bool",
          "name": "",
          "type": "bool"
        }
      ],
      "stateMutability": "view",
      "type": "function"
    },
    {
      "inputs": [
        {
          "internalType": "address",
          "name": "to",
          "type": "address"
        },
        {
          "internalType": "uint256",
          "name": "am",
          "type": "uint256"
        }
      ],
      "name": "mint",
      "outputs": [],
      "stateMutability": "nonpayable",
      "type": "function"
    },
    {
      "inputs": [],
      "name": "name",
      "outputs": [
        {
          "internalType": "string",
          "name": "",
          "type": "string"
        }
      ],
      "stateMutability": "view",
      "type": "function"
    },
    {
      "inputs": [],
      "name": "nextTokenId",
      "outputs": [
        {
          "internalType": "uint256",
          "name": "",
          "type": "uint256"
        }
      ],
      "stateMutability": "view",
      "type": "function"
    },
    {
      "inputs": [
        {
          "internalType": "uint256",
          "name": "tokenId",
          "type": "uint256"
        }
      ],
      "name": "ownerOf",
      "outputs": [
        {
          "internalType": "address",
          "name": "",
          "type": "address"
        }
      ],
      "stateMutability": "view",
      "type": "function"
    },
    {
      "inputs": [
        {
          "internalType": "address",
          "name": "from",
          "type": "address"
        },
        {
          "internalType": "address",
          "name": "to",
          "type": "address"
        },
        {
          "internalType": "uint256",
          "name": "tokenId",
          "type": "uint256"
        }
      ],
      "name": "safeTransferFrom",
      "outputs": [],
      "stateMutability": "nonpayable",
      "type": "function"
    },
    {
      "inputs": [
        {
          "internalType": "address",
          "name": "from",
          "type": "address"
        },
        {
          "internalType": "address",
          "name": "to",
          "type": "address"
        },
        {
          "internalType": "uint256",
          "name": "tokenId",
          "type": "uint256"
        },
        {
          "internalType": "bytes",
          "name": "_data",
          "type": "bytes"
        }
      ],
      "name": "safeTransferFrom",
      "outputs": [],
      "stateMutability": "nonpayable",
      "type": "function"
    },
    {
      "inputs": [
        {
          "internalType": "address",
          "name": "operator",
          "type": "address"
        },
        {
          "internalType": "bool",
          "name": "approved",
          "type": "bool"
        }
      ],
      "name": "setApprovalForAll",
      "outputs": [],
      "stateMutability": "nonpayable",
      "type": "function"
    },
    {
      "inputs": [
        {
          "internalType": "bytes4",
          "name": "interfaceId",
          "type": "bytes4"
        }
      ],
      "name": "supportsInterface",
      "outputs": [
        {
          "internalType": "bool",
          "name": "",
          "type": "bool"
        }
      ],
      "stateMutability": "view",
      "type": "function"
    },
    {
      "inputs": [],
      "name": "symbol",
      "outputs": [
        {
          "internalType": "string",
          "name": "",
          "type": "string"
        }
      ],
      "stateMutability": "view",
      "type": "function"
    },
    {
      "inputs": [
        {
          "internalType": "uint256",
          "name": "tokenId",
          "type": "uint256"
        }
      ],
      "name": "tokenURI",
      "outputs": [
        {
          "internalType": "string",
          "name": "",
          "type": "string"
        }
      ],
      "stateMutability": "view",
      "type": "function"
    },
    {
      "inputs": [
        {
          "internalType": "address",
          "name": "from",
          "type": "address"
        },
        {
          "internalType": "address",
          "name": "to",
          "type": "address"
        },
        {
          "internalType": "uint256",
          "name": "tokenId",
          "type": "uint256"
        }
      ],
      "name": "transferFrom",
      "outputs": [],
      "stateMutability": "nonpayable",
      "type": "function"
    }
  ],
  "bytecode": "0x60806040523480156200001157600080fd5b5060405162002d1b38038062002d1b833981810160405281019062000037919062000219565b818181600090816200004a9190620004e9565b5080600190816200005c9190620004e9565b5050506200007b671b94e8cc4c9d41a260c01b6200008360201b60201c565b5050620005d0565b50565b6000604051905090565b600080fd5b600080fd5b600080fd5b600080fd5b6000601f19601f8301169050919050565b7f4e487b7100000000000000000000000000000000000000000000000000000000600052604160045260246000fd5b620000ef82620000a4565b810181811067ffffffffffffffff82111715620001115762000110620000b5565b5b80604052505050565b60006200012662000086565b9050620001348282620000e4565b919050565b600067ffffffffffffffff821115620001575762000156620000b5565b5b6200016282620000a4565b9050602081019050919050565b60005b838110156200018f57808201518184015260208101905062000172565b60008484015250505050565b6000620001b2620001ac8462000139565b6200011a565b905082815260208101848484011115620001d157620001d06200009f565b5b620001de8482856200016f565b509392505050565b600082601f830112620001fe57620001fd6200009a565b5b8151620002108482602086016200019b565b91505092915050565b6000806040838503121562000233576200023262000090565b5b600083015167ffffffffffffffff81111562000254576200025362000095565b5b6200026285828601620001e6565b925050602083015167ffffffffffffffff81111562000286576200028562000095565b5b6200029485828601620001e6565b9150509250929050565b600081519050919050565b7f4e487b7100000000000000000000000000000000000000000000000000000000600052602260045260246000fd5b60006002820490506001821680620002f157607f821691505b602082108103620003075762000306620002a9565b5b50919050565b60008190508160005260206000209050919050565b60006020601f8301049050919050565b600082821b905092915050565b600060088302620003717fffffffffffffffffffffffffffffffffffffffffffffffffffffffffffffffff8262000332565b6200037d868362000332565b95508019841693508086168417925050509392505050565b6000819050919050565b6000819050919050565b6000620003ca620003c4620003be8462000395565b6200039f565b62000395565b9050919050565b6000819050919050565b620003e683620003a9565b620003fe620003f582620003d1565b8484546200033f565b825550505050565b600090565b6200041562000406565b62000422818484620003db565b505050565b5b818110156200044a576200043e6000826200040b565b60018101905062000428565b5050565b601f821115620004995762000463816200030d565b6200046e8462000322565b810160208510156200047e578190505b620004966200048d8562000322565b83018262000427565b50505b505050565b600082821c905092915050565b6000620004be600019846008026200049e565b1980831691505092915050565b6000620004d98383620004ab565b9150826002028217905092915050565b620004f4826200029e565b67ffffffffffffffff81111562000510576200050f620000b5565b5b6200051c8254620002d8565b620005298282856200044e565b600060209050601f8311600181146200056157600084156200054c578287015190505b620005588582620004cb565b865550620005c8565b601f19841662000571866200030d565b60005b828110156200059b5784890151825560018201915060208501945060208101905062000574565b86831015620005bb5784890151620005b7601f891682620004ab565b8355505b6001600288020188555050505b505050505050565b61273b80620005e06000396000f3fe608060405234801561001057600080fd5b50600436106100f55760003560e01c80636352211e11610097578063a22cb46511610066578063a22cb46514610284578063b88d4fde146102a0578063c87b56dd146102bc578063e985e9c5146102ec576100f5565b80636352211e146101e857806370a082311461021857806375794a3c1461024857806395d89b4114610266576100f5565b8063095ea7b3116100d3578063095ea7b31461017857806323b872dd1461019457806340c10f19146101b057806342842e0e146101cc576100f5565b806301ffc9a7146100fa57806306fdde031461012a578063081812fc14610148575b600080fd5b610114600480360381019061010f91906116eb565b61031c565b6040516101219190611733565b60405180910390f35b6101326103fe565b60405161013f91906117de565b60405180910390f35b610162600480360381019061015d9190611836565b610490565b60405161016f91906118a4565b60405180910390f35b610192600480360381019061018d91906118eb565b610515565b005b6101ae60048036038101906101a9919061192b565b61062c565b005b6101ca60048036038101906101c591906118eb565b61068c565b005b6101e660048036038101906101e1919061192b565b610702565b005b61020260048036038101906101fd9190611836565b610722565b60405161020f91906118a4565b60405180910390f35b610232600480360381019061022d919061197e565b6107d3565b60405161023f91906119ba565b60405180910390f35b61025061088a565b60405161025d91906119ba565b60405180910390f35b61026e610890565b60405161027b91906117de565b60405180910390f35b61029e60048036038101906102999190611a01565b610922565b005b6102ba60048036038101906102b59190611b76565b610938565b005b6102d660048036038101906102d19190611836565b61099a565b6040516102e391906117de565b60405180910390f35b61030660048036038101906103019190611bf9565b610a41565b6040516103139190611733565b60405180910390f35b60007f80ac58cd000000000000000000000000000000000000000000000000000000007bffffffffffffffffffffffffffffffffffffffffffffffffffffffff1916827bffffffffffffffffffffffffffffffffffffffffffffffffffffffff191614806103e757507f5b5e139f000000000000000000000000000000000000000000000000000000007bffffffffffffffffffffffffffffffffffffffffffffffffffffffff1916827bffffffffffffffffffffffffffffffffffffffffffffffffffffffff1916145b806103f757506103f682610ad5565b5b9050919050565b60606000805461040d90611c68565b80601f016020809104026020016040519081016040528092919081815260200182805461043990611c68565b80156104865780601f1061045b57610100808354040283529160200191610486565b820191906000526020600020905b81548152906001019060200180831161046957829003601f168201915b5050505050905090565b600061049b82610b3f565b6104da576040517f08c379a00000000000000000000000000000000000000000000000000000000081526004016104d190611d0b565b60405180910390fd5b6004600083815260200190815260200160002060009054906101000a900473ffffffffffffffffffffffffffffffffffffffff169050919050565b600061052082610722565b90508073ffffffffffffffffffffffffffffffffffffffff168373ffffffffffffffffffffffffffffffffffffffff1603610590576040517f08c379a000000000000000000000000000000000000000000000000000000000815260040161058790611d9d565b60405180910390fd5b8073ffffffffffffffffffffffffffffffffffffffff166105af610bab565b73ffffffffffffffffffffffffffffffffffffffff1614806105de57506105dd816105d8610bab565b610a41565b5b61061d576040517f08c379a000000000000000000000000000000000000000000000000000000000815260040161061490611e2f565b60405180910390fd5b6106278383610bb3565b505050565b61063d610637610bab565b82610c6c565b61067c576040517f08c379a000000000000000000000000000000000000000000000000000000000815260040161067390611ec1565b60405180910390fd5b610687838383610d4a565b505050565b6106a0676bda13ad9187061b60c01b610fb0565b6106b467e32e4f0b99274aa360c01b610fb0565b6106c867c9c672e52bd81a0e60c01b610fb0565b6106d28282610fb3565b6106e6670a3579a718891da360c01b610fb0565b600660008154809291906106f990611f10565b91905055505050565b61071d83838360405180602001604052806000815250610938565b505050565b6000806002600084815260200190815260200160002060009054906101000a900473ffffffffffffffffffffffffffffffffffffffff169050600073ffffffffffffffffffffffffffffffffffffffff168173ffffffffffffffffffffffffffffffffffffffff16036107ca576040517f08c379a00000000000000000000000000000000000000000000000000000000081526004016107c190611fca565b60405180910390fd5b80915050919050565b60008073ffffffffffffffffffffffffffffffffffffffff168273ffffffffffffffffffffffffffffffffffffffff1603610843576040517f08c379a000000000000000000000000000000000000000000000000000000000815260040161083a9061205c565b60405180910390fd5b600360008373ffffffffffffffffffffffffffffffffffffffff1673ffffffffffffffffffffffffffffffffffffffff168152602001908152602001600020549050919050565b60065481565b60606001805461089f90611c68565b80601f01602080910402602001604051908101604052809291908181526020018280546108cb90611c68565b80156109185780601f106108ed57610100808354040283529160200191610918565b820191906000526020600020905b8154815290600101906020018083116108fb57829003601f168201915b5050505050905090565b61093461092d610bab565b838361118c565b5050565b610949610943610bab565b83610c6c565b610988576040517f08c379a000000000000000000000000000000000000000000000000000000000815260040161097f90611ec1565b60405180910390fd5b610994848484846112f8565b50505050565b60606109a582610b3f565b6109e4576040517f08c379a00000000000000000000000000000000000000000000000000000000081526004016109db906120ee565b60405180910390fd5b60006109ee611354565b90506000815111610a0e5760405180602001604052806000815250610a39565b80610a188461136b565b604051602001610a2992919061214a565b6040516020818303038152906040525b915050919050565b6000600560008473ffffffffffffffffffffffffffffffffffffffff1673ffffffffffffffffffffffffffffffffffffffff16815260200190815260200160002060008373ffffffffffffffffffffffffffffffffffffffff1673ffffffffffffffffffffffffffffffffffffffff16815260200190815260200160002060009054906101000a900460ff16905092915050565b60007f01ffc9a7000000000000000000000000000000000000000000000000000000007bffffffffffffffffffffffffffffffffffffffffffffffffffffffff1916827bffffffffffffffffffffffffffffffffffffffffffffffffffffffff1916149050919050565b60008073ffffffffffffffffffffffffffffffffffffffff166002600084815260200190815260200160002060009054906101000a900473ffffffffffffffffffffffffffffffffffffffff1673ffffffffffffffffffffffffffffffffffffffff1614159050919050565b600033905090565b816004600083815260200190815260200160002060006101000a81548173ffffffffffffffffffffffffffffffffffffffff021916908373ffffffffffffffffffffffffffffffffffffffff160217905550808273ffffffffffffffffffffffffffffffffffffffff16610c2683610722565b73ffffffffffffffffffffffffffffffffffffffff167f8c5be1e5ebec7d5bd14f71427d1e84f3dd0314c0f7b2291e5b200ac8c7c3b92560405160405180910390a45050565b6000610c7782610b3f565b610cb6576040517f08c379a0000000000000000000000000000000000000000000000000000000008152600401610cad906121e0565b60405180910390fd5b6000610cc183610722565b90508073ffffffffffffffffffffffffffffffffffffffff168473ffffffffffffffffffffffffffffffffffffffff161480610d035750610d028185610a41565b5b80610d4157508373ffffffffffffffffffffffffffffffffffffffff16610d2984610490565b73ffffffffffffffffffffffffffffffffffffffff16145b91505092915050565b8273ffffffffffffffffffffffffffffffffffffffff16610d6a82610722565b73ffffffffffffffffffffffffffffffffffffffff1614610dc0576040517f08c379a0000000000000000000000000000000000000000000000000000000008152600401610db790612272565b60405180910390fd5b600073ffffffffffffffffffffffffffffffffffffffff168273ffffffffffffffffffffffffffffffffffffffff1603610e2f576040517f08c379a0000000000000000000000000000000000000000000000000000000008152600401610e2690612304565b60405180910390fd5b610e3a8383836114cb565b610e45600082610bb3565b6001600360008573ffffffffffffffffffffffffffffffffffffffff1673ffffffffffffffffffffffffffffffffffffffff1681526020019081526020016000206000828254610e959190612324565b925050819055506001600360008473ffffffffffffffffffffffffffffffffffffffff1673ffffffffffffffffffffffffffffffffffffffff1681526020019081526020016000206000828254610eec9190612358565b92505081905550816002600083815260200190815260200160002060006101000a81548173ffffffffffffffffffffffffffffffffffffffff021916908373ffffffffffffffffffffffffffffffffffffffff160217905550808273ffffffffffffffffffffffffffffffffffffffff168473ffffffffffffffffffffffffffffffffffffffff167fddf252ad1be2c89b69c2b068fc378daa952ba7f163c4a11628f55a4df523b3ef60405160405180910390a4610fab8383836114d0565b505050565b50565b600073ffffffffffffffffffffffffffffffffffffffff168273ffffffffffffffffffffffffffffffffffffffff1603611022576040517f08c379a0000000000000000000000000000000000000000000000000000000008152600401611019906123d8565b60405180910390fd5b61102b81610b3f565b1561106b576040517f08c379a000000000000000000000000000000000000000000000000000000000815260040161106290612444565b60405180910390fd5b611077600083836114cb565b6001600360008473ffffffffffffffffffffffffffffffffffffffff1673ffffffffffffffffffffffffffffffffffffffff16815260200190815260200160002060008282546110c79190612358565b92505081905550816002600083815260200190815260200160002060006101000a81548173ffffffffffffffffffffffffffffffffffffffff021916908373ffffffffffffffffffffffffffffffffffffffff160217905550808273ffffffffffffffffffffffffffffffffffffffff16600073ffffffffffffffffffffffffffffffffffffffff167fddf252ad1be2c89b69c2b068fc378daa952ba7f163c4a11628f55a4df523b3ef60405160405180910390a4611188600083836114d0565b5050565b8173ffffffffffffffffffffffffffffffffffffffff168373ffffffffffffffffffffffffffffffffffffffff16036111fa576040517f08c379a00000000000000000000000000000000000000000000000000000000081526004016111f1906124b0565b60405180910390fd5b80600560008573ffffffffffffffffffffffffffffffffffffffff1673ffffffffffffffffffffffffffffffffffffffff16815260200190815260200160002060008473ffffffffffffffffffffffffffffffffffffffff1673ffffffffffffffffffffffffffffffffffffffff16815260200190815260200160002060006101000a81548160ff0219169083151502179055508173ffffffffffffffffffffffffffffffffffffffff168373ffffffffffffffffffffffffffffffffffffffff167f17307eab39ab6107e8899845ad3d59bd9653f200f220920489ca2b5937696c31836040516112eb9190611733565b60405180910390a3505050565b611303848484610d4a565b61130f848484846114d5565b61134e576040517f08c379a000000000000000000000000000000000000000000000000000000000815260040161134590612542565b60405180910390fd5b50505050565b606060405180602001604052806000815250905090565b6060600082036113b2576040518060400160405280600181526020017f300000000000000000000000000000000000000000000000000000000000000081525090506114c6565b600082905060005b600082146113e45780806113cd90611f10565b915050600a826113dd9190612591565b91506113ba565b60008167ffffffffffffffff811115611400576113ff611a4b565b5b6040519080825280601f01601f1916602001820160405280156114325781602001600182028036833780820191505090505b5090505b600085146114bf5760018261144b9190612324565b9150600a8561145a91906125c2565b60306114669190612358565b60f81b81838151811061147c5761147b6125f3565b5b60200101907effffffffffffffffffffffffffffffffffffffffffffffffffffffffffffff1916908160001a905350600a856114b89190612591565b9450611436565b8093505050505b919050565b505050565b505050565b60006114f68473ffffffffffffffffffffffffffffffffffffffff1661165c565b1561164f578373ffffffffffffffffffffffffffffffffffffffff1663150b7a0261151f610bab565b8786866040518563ffffffff1660e01b81526004016115419493929190612677565b6020604051808303816000875af192505050801561157d57506040513d601f19601f8201168201806040525081019061157a91906126d8565b60015b6115ff573d80600081146115ad576040519150601f19603f3d011682016040523d82523d6000602084013e6115b2565b606091505b5060008151036115f7576040517f08c379a00000000000000000000000000000000000000000000000000000000081526004016115ee90612542565b60405180910390fd5b805181602001fd5b63150b7a0260e01b7bffffffffffffffffffffffffffffffffffffffffffffffffffffffff1916817bffffffffffffffffffffffffffffffffffffffffffffffffffffffff191614915050611654565b600190505b949350505050565b6000808273ffffffffffffffffffffffffffffffffffffffff163b119050919050565b6000604051905090565b600080fd5b600080fd5b60007fffffffff0000000000000000000000000000000000000000000000000000000082169050919050565b6116c881611693565b81146116d357600080fd5b50565b6000813590506116e5816116bf565b92915050565b60006020828403121561170157611700611689565b5b600061170f848285016116d6565b91505092915050565b60008115159050919050565b61172d81611718565b82525050565b60006020820190506117486000830184611724565b92915050565b600081519050919050565b600082825260208201905092915050565b60005b8381101561178857808201518184015260208101905061176d565b60008484015250505050565b6000601f19601f8301169050919050565b60006117b08261174e565b6117ba8185611759565b93506117ca81856020860161176a565b6117d381611794565b840191505092915050565b600060208201905081810360008301526117f881846117a5565b905092915050565b6000819050919050565b61181381611800565b811461181e57600080fd5b50565b6000813590506118308161180a565b92915050565b60006020828403121561184c5761184b611689565b5b600061185a84828501611821565b91505092915050565b600073ffffffffffffffffffffffffffffffffffffffff82169050919050565b600061188e82611863565b9050919050565b61189e81611883565b82525050565b60006020820190506118b96000830184611895565b92915050565b6118c881611883565b81146118d357600080fd5b50565b6000813590506118e5816118bf565b92915050565b6000806040838503121561190257611901611689565b5b6000611910858286016118d6565b925050602061192185828601611821565b9150509250929050565b60008060006060848603121561194457611943611689565b5b6000611952868287016118d6565b9350506020611963868287016118d6565b925050604061197486828701611821565b9150509250925092565b60006020828403121561199457611993611689565b5b60006119a2848285016118d6565b91505092915050565b6119b481611800565b82525050565b60006020820190506119cf60008301846119ab565b92915050565b6119de81611718565b81146119e957600080fd5b50565b6000813590506119fb816119d5565b92915050565b60008060408385031215611a1857611a17611689565b5b6000611a26858286016118d6565b9250506020611a37858286016119ec565b9150509250929050565b600080fd5b600080fd5b7f4e487b7100000000000000000000000000000000000000000000000000000000600052604160045260246000fd5b611a8382611794565b810181811067ffffffffffffffff82111715611aa257611aa1611a4b565b5b80604052505050565b6000611ab561167f565b9050611ac18282611a7a565b919050565b600067ffffffffffffffff821115611ae157611ae0611a4b565b5b611aea82611794565b9050602081019050919050565b82818337600083830152505050565b6000611b19611b1484611ac6565b611aab565b905082815260208101848484011115611b3557611b34611a46565b5b611b40848285611af7565b509392505050565b600082601f830112611b5d57611b5c611a41565b5b8135611b6d848260208601611b06565b91505092915050565b60008060008060808587031215611b9057611b8f611689565b5b6000611b9e878288016118d6565b9450506020611baf878288016118d6565b9350506040611bc087828801611821565b925050606085013567ffffffffffffffff811115611be157611be061168e565b5b611bed87828801611b48565b91505092959194509250565b60008060408385031215611c1057611c0f611689565b5b6000611c1e858286016118d6565b9250506020611c2f858286016118d6565b9150509250929050565b7f4e487b7100000000000000000000000000000000000000000000000000000000600052602260045260246000fd5b60006002820490506001821680611c8057607f821691505b602082108103611c9357611c92611c39565b5b50919050565b7f4552433732313a20617070726f76656420717565727920666f72206e6f6e657860008201527f697374656e7420746f6b656e0000000000000000000000000000000000000000602082015250565b6000611cf5602c83611759565b9150611d0082611c99565b604082019050919050565b60006020820190508181036000830152611d2481611ce8565b9050919050565b7f4552433732313a20617070726f76616c20746f2063757272656e74206f776e6560008201527f7200000000000000000000000000000000000000000000000000000000000000602082015250565b6000611d87602183611759565b9150611d9282611d2b565b604082019050919050565b60006020820190508181036000830152611db681611d7a565b9050919050565b7f4552433732313a20617070726f76652063616c6c6572206973206e6f74206f7760008201527f6e6572206e6f7220617070726f76656420666f7220616c6c0000000000000000602082015250565b6000611e19603883611759565b9150611e2482611dbd565b604082019050919050565b60006020820190508181036000830152611e4881611e0c565b9050919050565b7f4552433732313a207472616e736665722063616c6c6572206973206e6f74206f60008201527f776e6572206e6f7220617070726f766564000000000000000000000000000000602082015250565b6000611eab603183611759565b9150611eb682611e4f565b604082019050919050565b60006020820190508181036000830152611eda81611e9e565b9050919050565b7f4e487b7100000000000000000000000000000000000000000000000000000000600052601160045260246000fd5b6000611f1b82611800565b91507fffffffffffffffffffffffffffffffffffffffffffffffffffffffffffffffff8203611f4d57611f4c611ee1565b5b600182019050919050565b7f4552433732313a206f776e657220717565727920666f72206e6f6e657869737460008201527f656e7420746f6b656e0000000000000000000000000000000000000000000000602082015250565b6000611fb4602983611759565b9150611fbf82611f58565b604082019050919050565b60006020820190508181036000830152611fe381611fa7565b9050919050565b7f4552433732313a2062616c616e636520717565727920666f7220746865207a6560008201527f726f206164647265737300000000000000000000000000000000000000000000602082015250565b6000612046602a83611759565b915061205182611fea565b604082019050919050565b6000602082019050818103600083015261207581612039565b9050919050565b7f4552433732314d657461646174613a2055524920717565727920666f72206e6f60008201527f6e6578697374656e7420746f6b656e0000000000000000000000000000000000602082015250565b60006120d8602f83611759565b91506120e38261207c565b604082019050919050565b60006020820190508181036000830152612107816120cb565b9050919050565b600081905092915050565b60006121248261174e565b61212e818561210e565b935061213e81856020860161176a565b80840191505092915050565b60006121568285612119565b91506121628284612119565b91508190509392505050565b7f4552433732313a206f70657261746f7220717565727920666f72206e6f6e657860008201527f697374656e7420746f6b656e0000000000000000000000000000000000000000602082015250565b60006121ca602c83611759565b91506121d58261216e565b604082019050919050565b600060208201905081810360008301526121f9816121bd565b9050919050565b7f4552433732313a207472616e736665722066726f6d20696e636f72726563742060008201527f6f776e6572000000000000000000000000000000000000000000000000000000602082015250565b600061225c602583611759565b915061226782612200565b604082019050919050565b6000602082019050818103600083015261228b8161224f565b9050919050565b7f4552433732313a207472616e7366657220746f20746865207a65726f2061646460008201527f7265737300000000000000000000000000000000000000000000000000000000602082015250565b60006122ee602483611759565b91506122f982612292565b604082019050919050565b6000602082019050818103600083015261231d816122e1565b9050919050565b600061232f82611800565b915061233a83611800565b925082820390508181111561235257612351611ee1565b5b92915050565b600061236382611800565b915061236e83611800565b925082820190508082111561238657612385611ee1565b5b92915050565b7f4552433732313a206d696e7420746f20746865207a65726f2061646472657373600082015250565b60006123c2602083611759565b91506123cd8261238c565b602082019050919050565b600060208201905081810360008301526123f1816123b5565b9050919050565b7f4552433732313a20746f6b656e20616c7265616479206d696e74656400000000600082015250565b600061242e601c83611759565b9150612439826123f8565b602082019050919050565b6000602082019050818103600083015261245d81612421565b9050919050565b7f4552433732313a20617070726f766520746f2063616c6c657200000000000000600082015250565b600061249a601983611759565b91506124a582612464565b602082019050919050565b600060208201905081810360008301526124c98161248d565b9050919050565b7f4552433732313a207472616e7366657220746f206e6f6e20455243373231526560008201527f63656976657220696d706c656d656e7465720000000000000000000000000000602082015250565b600061252c603283611759565b9150612537826124d0565b604082019050919050565b6000602082019050818103600083015261255b8161251f565b9050919050565b7f4e487b7100000000000000000000000000000000000000000000000000000000600052601260045260246000fd5b600061259c82611800565b91506125a783611800565b9250826125b7576125b6612562565b5b828204905092915050565b60006125cd82611800565b91506125d883611800565b9250826125e8576125e7612562565b5b828206905092915050565b7f4e487b7100000000000000000000000000000000000000000000000000000000600052603260045260246000fd5b600081519050919050565b600082825260208201905092915050565b600061264982612622565b612653818561262d565b935061266381856020860161176a565b61266c81611794565b840191505092915050565b600060808201905061268c6000830187611895565b6126996020830186611895565b6126a660408301856119ab565b81810360608301526126b8818461263e565b905095945050505050565b6000815190506126d2816116bf565b92915050565b6000602082840312156126ee576126ed611689565b5b60006126fc848285016126c3565b9150509291505056fea2646970667358221220edace3536fcc3a0059e951e28c0b38fded7e88be467cb665ce08406401addb6964736f6c63430008180033",
  "linkReferences": {},
  "deployedLinkReferences": {}
}